{"contracts/InstitutionManager.sol":{"InstitutionManager":{"abi":[{"inputs":[],"stateMutability":"nonpayable","type":"constructor"},{"inputs":[{"internalType":"string","name":"_name","type":"string"},{"internalType":"enum IMyPetBase.InstitutionType","name":"_institutionType","type":"uint8"},{"internalType":"address","name":"_responsiblePerson","type":"address"},{"internalType":"string","name":"_orgAddress","type":"string"},{"internalType":"string","name":"_contactInfo","type":"string"}],"name":"addInstitution","outputs":[{"internalType":"uint256","name":"","type":"uint256"}],"stateMutability":"nonpayable","type":"function"},{"inputs":[{"internalType":"uint256","name":"_orgId","type":"uint256"},{"internalType":"address","name":"_staff","type":"address"}],"name":"addStaffToInstitution","outputs":[],"stateMutability":"nonpayable","type":"function"},{"inputs":[],"name":"deployer","outputs":[{"internalType":"address","name":"","type":"address"}],"stateMutability":"view","type":"function"},{"inputs":[],"name":"getAllInstitutions","outputs":[{"components":[{"internalType":"uint256","name":"id","type":"uint256"},{"internalType":"string","name":"name","type":"string"},{"internalType":"enum IMyPetBase.InstitutionType","name":"institutionType","type":"uint8"},{"internalType":"address","name":"responsiblePerson","type":"address"},{"internalType":"address[]","name":"staffList","type":"address[]"},{"internalType":"uint256","name":"createdAt","type":"uint256"},{"internalType":"string","name":"orgAddress","type":"string"},{"internalType":"string","name":"contactInfo","type":"string"}],"internalType":"struct IMyPetBase.Institution[]","name":"","type":"tuple[]"}],"stateMutability":"view","type":"function"},{"inputs":[{"internalType":"uint256","name":"_orgId","type":"uint256"}],"name":"getInstitutionCreationTime","outputs":[{"internalType":"uint256","name":"","type":"uint256"}],"stateMutability":"view","type":"function"},{"inputs":[{"internalType":"uint256","name":"_orgId","type":"uint256"}],"name":"getInstitutionDetail","outputs":[{"components":[{"internalType":"uint256","name":"id","type":"uint256"},{"internalType":"string","name":"name","type":"string"},{"internalType":"enum IMyPetBase.InstitutionType","name":"institutionType","type":"uint8"},{"internalType":"address","name":"responsiblePerson","type":"address"},{"internalType":"address[]","name":"staffList","type":"address[]"},{"internalType":"uint256","name":"createdAt","type":"uint256"},{"internalType":"string","name":"orgAddress","type":"string"},{"internalType":"string","name":"contactInfo","type":"string"}],"internalType":"struct IMyPetBase.Institution","name":"","type":"tuple"}],"stateMutability":"view","type":"function"},{"inputs":[{"internalType":"uint256","name":"_orgId","type":"uint256"}],"name":"getInstitutionStaff","outputs":[{"internalType":"address[]","name":"","type":"address[]"}],"stateMutability":"view","type":"function"},{"inputs":[{"internalType":"enum IMyPetBase.InstitutionType","name":"_type","type":"uint8"}],"name":"getInstitutionsByType","outputs":[{"components":[{"internalType":"uint256","name":"id","type":"uint256"},{"internalType":"string","name":"name","type":"string"},{"internalType":"enum IMyPetBase.InstitutionType","name":"institutionType","type":"uint8"},{"internalType":"address","name":"responsiblePerson","type":"address"},{"internalType":"address[]","name":"staffList","type":"address[]"},{"internalType":"uint256","name":"createdAt","type":"uint256"},{"internalType":"string","name":"orgAddress","type":"string"},{"internalType":"string","name":"contactInfo","type":"string"}],"internalType":"struct IMyPetBase.Institution[]","name":"","type":"tuple[]"}],"stateMutability":"view","type":"function"},{"inputs":[],"name":"institutionIdCounter","outputs":[{"internalType":"uint256","name":"","type":"uint256"}],"stateMutability":"view","type":"function"},{"inputs":[{"internalType":"uint256","name":"","type":"uint256"}],"name":"institutions","outputs":[{"internalType":"uint256","name":"id","type":"uint256"},{"internalType":"string","name":"name","type":"string"},{"internalType":"enum IMyPetBase.InstitutionType","name":"institutionType","type":"uint8"},{"internalType":"address","name":"responsiblePerson","type":"address"},{"internalType":"uint256","name":"createdAt","type":"uint256"},{"internalType":"string","name":"orgAddress","type":"string"},{"internalType":"string","name":"contactInfo","type":"string"}],"stateMutability":"view","type":"function"},{"inputs":[{"internalType":"uint256","name":"_orgId","type":"uint256"},{"internalType":"address","name":"_staff","type":"address"}],"name":"isStaffInInstitution","outputs":[{"internalType":"bool","name":"","type":"bool"}],"stateMutability":"view","type":"function"},{"inputs":[{"internalType":"uint256","name":"_orgId","type":"uint256"},{"internalType":"address","name":"_staff","type":"address"}],"name":"removeStaffFromInstitution","outputs":[],"stateMutability":"nonpayable","type":"function"},{"inputs":[{"internalType":"address","name":"","type":"address"}],"name":"staffToInstitution","outputs":[{"internalType":"uint256","name":"","type":"uint256"}],"stateMutability":"view","type":"function"},{"inputs":[{"internalType":"uint256","name":"_orgId","type":"uint256"},{"internalType":"string","name":"_name","type":"string"},{"internalType":"string","name":"_orgAddress","type":"string"},{"internalType":"string","name":"_contactInfo","type":"string"}],"name":"updateInstitution","outputs":[],"stateMutability":"nonpayable","type":"function"},{"inputs":[{"internalType":"uint256","name":"_orgId","type":"uint256"},{"internalType":"address","name":"_newResponsiblePerson","type":"address"}],"name":"updateInstitutionResponsiblePerson","outputs":[],"stateMutability":"nonpayable","type":"function"}],"evm":{"bytecode":{"linkReferences":{},"object":"6080806040523461002d576001600255600380546001600160a01b03191633179055611a9090816100338239f35b600080fdfe6080604052600436101561001257600080fd5b60003560e01c806303d7fe401461131d5780630c09662114610ee05780631063b48414610e7757806310dca1ab14610c875780633864855e14610a8a5780634104180e14610a12578063584fab0f146109d45780636eee7b30146109b65780638192574e1461096157806390691bf61461083e578063ab2c193514610297578063c03c75a814610267578063c1d7efe7146101b2578063c3b59d00146100ef5763d5f39488146100c157600080fd5b346100ea5760003660031901126100ea576003546040516001600160a01b039091168152602090f35b600080fd5b346100ea5760203660031901126100ea576004356000548110156100ea576101169061168b565b5080546101ae61012860018401611713565b926101a0600282015460048301549261014f600661014860058401611713565b9201611713565b9361016c604051988998895260e060208a015260e089019061151b565b9261017d6040890160ff831661155b565b60081c6001600160a01b03166060880152608087015285820360a087015261151b565b9083820360c085015261151b565b0390f35b346100ea576020806003193601126100ea576004358015158061025c575b6101d990611848565b60001981019081116102465760036101f36101fa9261168b565b5001611975565b906040519181839283018184528251809152816040850193019160005b82811061022657505050500390f35b83516001600160a01b031685528695509381019392810192600101610217565b634e487b7160e01b600052601160045260246000fd5b5060025481106101d0565b346100ea5760403660031901126100ea57602061028d61028561146f565b600435611894565b6040519015158152f35b346100ea5760a03660031901126100ea5760043567ffffffffffffffff81116100ea576102c89036906004016114c4565b600260243510156100ea576001600160a01b0360443580821690036100ea5760643567ffffffffffffffff81116100ea576103079036906004016114c4565b9060843567ffffffffffffffff81116100ea576103289036906004016114c4565b92816003541633036107ee57816044351660005260016020526040600020546107925760025492610358846117b9565b600255600054600160401b8110156105f95780600161037a920160005561168b565b50506000198401848111610246576103919061168b565b509184835580519067ffffffffffffffff82116105f95781906103b760018601546116d9565b601f811161075d575b50602090601f83116001146106eb576000926106e0575b50508160011b916000199060031b1c19161760018301555b6002820180546001600160a81b03191660243560ff161760443560081b610100600160a81b031617905560405180602081011067ffffffffffffffff6020830111176105f9578060206000920160405252600382015460006003840155806106c1575b506003820160005242600483015580519067ffffffffffffffff82116105f957819061048160058501546116d9565b601f811161068c575b50602090601f831160011461061a5760009261060f575b50508160011b916000199060031b1c19161760058201555b835167ffffffffffffffff81116105f9576020946104da60068401546116d9565b601f81116105bb575b508590601f8311600114610549576105249392916000918361053e575b50508160011b916000199060031b1c19161760068201555b60036044359101611825565b604435166000526001825280604060002055604051908152f35b015190508780610500565b9060068401600052866000209160005b601f19851681106105a457509183916001936105249695601f1981161061058b575b505050811b016006820155610518565b015160001960f88460031b161c1916905587808061057b565b919288600181928685015181550194019201610559565b6105e9906006850160005287600020601f850160051c8101918986106105ef575b601f0160051c01906117c8565b866104e3565b90915081906105dc565b634e487b7160e01b600052604160045260246000fd5b0151905086806104a1565b9250600584016000526020600020906000935b601f1984168510610671576001945083601f19811610610658575b505050811b0160058201556104b9565b015160001960f88460031b161c19169055868080610648565b8181015183556020948501946001909301929091019061062d565b6106bb90600586016000526020600020601f850160051c810191602086106105ef57601f0160051c01906117c8565b8761048a565b6106da90600384016000526020600020908101906117c8565b85610452565b0151905087806103d7565b9250600185016000526020600020906000935b601f1984168510610742576001945083601f19811610610729575b505050811b0160018301556103ef565b015160001960f88460031b161c19169055878080610719565b818101518355602094850194600190930192909101906106fe565b61078c90600187016000526020600020601f850160051c810191602086106105ef57601f0160051c01906117c8565b886103c0565b60405162461bcd60e51b815260206004820152602e60248201527f4164647265737320616c7265616479206173736f63696174656420776974682060448201526d30b71034b739ba34ba3aba34b7b760911b6064820152608490fd5b60405162461bcd60e51b815260206004820152602260248201527f4f6e6c79206465706c6f7965722063616e2061646420696e737469747574696f6044820152616e7360f01b6064820152608490fd5b346100ea5760203660031901126100ea5760026004358181101591826100ea57600080549190805b838110610919575061087790611911565b9260009160005b84811061089357604051806101ae8882611629565b8660ff836108a08461168b565b500154169061090357828110156109035783146108c6575b6108c1906117b9565b61087e565b926108fb6108c1916108e06108da8761168b565b506119cd565b6108ea828a611961565b526108f58189611961565b506117b9565b9390506108b8565b634e487b7160e01b600052602160045260246000fd5b8560ff846109268461168b565b5001541690610903578381101561090357851461094c575b610947906117b9565b610866565b90610959610947916117b9565b91905061093e565b346100ea5760203660031901126100ea57600435801515806109ab575b61098790611848565b60001981019081116102465760046109a060209261168b565b500154604051908152f35b50600254811061097e565b346100ea5760003660031901126100ea576020600254604051908152f35b346100ea5760203660031901126100ea576004356001600160a01b038116908190036100ea5760005260016020526020604060002054604051908152f35b346100ea5760003660031901126100ea576002546000199081810181811161024657610a3d90611911565b9160015b828110610a5657604051806101ae8682611629565b81810190808211610246576108f582610a746108da610a859561168b565b610a7e8289611961565b5286611961565b610a41565b346100ea5760403660031901126100ea57600435610aa661146f565b81151580610c7c575b610ab890611848565b6000199180830190811161024657610acf9061168b565b509160018060a01b0380600285015460081c1692833303610c1a578116928314610bd657826000939293526001928392836020526000604081205560006003809701945b610b1957005b845480821015610bd4578285610b2f84896117f7565b9054908b1b1c1614610b4b5750610b45906117b9565b85610b13565b839495965080939192500191821161024657610b7c84610b6e610b9b94886117f7565b905490891b1c1691866117f7565b90919082549060031b9160018060a01b03809116831b921b1916179055565b82548015610bbe570192610baf84846117f7565b8154921b9290921b1916905555005b634e487b7160e01b600052603160045260246000fd5b005b606460405162461bcd60e51b815260206004820152602060248201527f43616e6e6f742072656d6f766520726573706f6e7369626c6520706572736f6e6044820152fd5b60405162461bcd60e51b815260206004820152603460248201527f4f6e6c7920696e737469747574696f6e20726573706f6e7369626c652070657260448201527339b7b71031b0b7103932b6b7bb329039ba30b33360611b6064820152608490fd5b506002548210610aaf565b346100ea5760403660031901126100ea57600435610ca361146f565b81151580610e6c575b610cb590611848565b600019820182811161024657610cca9061168b565b5091600283019060018060a01b0380835460081c1633148015610e5f575b15610de2578316806000526001602052604060002054828115918215610dd8575b505015610d6d57610bd49484916000526001602052604060002090815415610d56575b50508254610100600160a81b03191660089490941b610100600160a81b0316939093179091555050565b610d64936003925501611825565b83828180610d2c565b60405162461bcd60e51b815260206004820152603d60248201527f4e657720726573706f6e7369626c6520706572736f6e206973206173736f636960448201527f61746564207769746820616e6f7468657220696e737469747574696f6e0000006064820152608490fd5b1490508287610d09565b60405162461bcd60e51b815260206004820152604960248201527f4f6e6c792063757272656e7420726573706f6e7369626c6520706572736f6e2060448201527f6f72206465706c6f7965722063616e2075706461746520726573706f6e7369626064820152683632903832b939b7b760b91b608482015260a490fd5b5080600354163314610ce8565b506002548210610cac565b346100ea5760203660031901126100ea57600435610e936118d1565b5080151580610ed5575b610ea690611848565b600019810190811161024657610ec16108da6101ae9261168b565b604051918291602083526020830190611568565b506002548110610e9d565b346100ea5760803660031901126100ea57602460043567ffffffffffffffff82358181116100ea57610f169036906004016114c4565b916044358281116100ea57610f2f9036906004016114c4565b926064358381116100ea57610f489036906004016114c4565b82151580611312575b610f5a90611848565b600019928084019081116112fd57610f719061168b565b5060018060a01b0380600283015460081c1633149081156112ef575b50156112855760019586820184518781116111d45780610fad83546116d9565b96601f97888111611255575b506020908883116001146111f4576000926111e9575b505087828b1b9260031b1c19161790555b805160058301918782116111d457610ff883546116d9565b8681116111a4575b5060209086831160011461113e5760069493929160009183611133575b505087828b1b9260031b1c19161790555b0195815194851161111f575061104486546116d9565b8281116110e5575b50602091841160011461108457938394918492600095611079575b50501b9260031b1c1916179055600080f35b015193508680611067565b9190601f198416928660005284826000209460005b888282106110cc575050106110b4575b50505050811b019055005b01519060f88460031b161c19169055838080806110a9565b8486015188559096019560209485019488935001611099565b611110908760005260206000208480880160051c82019260208910611116575b0160051c01906117c8565b8661104c565b92508192611105565b634e487b7160e01b60009081526041600452fd5b015190508b8061101d565b9392918991601f1982169084600052806000209160005b81811061118c5750968360069810611175575b505050811b01905561102e565b01518960f88460031b161c191690558b8080611168565b8289015184558d959093019260209283019201611155565b6111ce908460005260206000208880860160051c82019260208710611116570160051c01906117c8565b8a611000565b89634e487b7160e01b60005260416004526000fd5b015190508b80610fcf565b908b9350601f1983169185600052816000209260005b81811061123d57508411611226575b505050811b019055610fe0565b01518960f88460031b161c191690558b8080611219565b8284015185558e96909401936020938401930161120a565b61127f908560005260206000208a80860160051c82019260208710611116570160051c01906117c8565b8c610fb9565b60405162461bcd60e51b815260206004820152603a818901527f4f6e6c7920726573706f6e7369626c6520706572736f6e206f72206465706c6f60448201527f7965722063616e2075706461746520696e737469747574696f6e0000000000006064820152608490fd5b905060035416331488610f8d565b86634e487b7160e01b60005260116004526000fd5b506002548310610f51565b346100ea5760403660031901126100ea5760043561133961146f565b81151580611464575b61134b90611848565b6000198201828111610246576113609061168b565b5060028101546001600160a01b039060081c81163303611405578216908160005260016020526040600020546113ab57610bd493600392600052600160205260406000205501611825565b60405162461bcd60e51b815260206004820152602c60248201527f537461666620616c7265616479206173736f636961746564207769746820616e60448201526b1034b739ba34ba3aba34b7b760a11b6064820152608490fd5b60405162461bcd60e51b815260206004820152603160248201527f4f6e6c7920696e737469747574696f6e20726573706f6e7369626c652070657260448201527039b7b71031b0b71030b2321039ba30b33360791b6064820152608490fd5b506002548210611342565b602435906001600160a01b03821682036100ea57565b610100810190811067ffffffffffffffff8211176105f957604052565b90601f8019910116810190811067ffffffffffffffff8211176105f957604052565b81601f820112156100ea5780359067ffffffffffffffff82116105f957604051926114f9601f8401601f1916602001856114a2565b828452602083830101116100ea57816000926020809301838601378301015290565b919082519283825260005b848110611547575050826000602080949584010152601f8019910116010190565b602081830181015184830182015201611526565b9060028210156109035752565b9190918051835260209261158984830151610100808785015283019061151b565b9361159c6040840151604084019061155b565b60018060a01b0390816060850151166060840152608084015195838103608085015281808851928381520197019160005b82811061161357505050505060e06115ff611610949560a085015160a085015260c085015184820360c086015261151b565b9201519060e081840391015261151b565b90565b83518516895297810197928101926001016115cd565b602080820190808352835180925260408301928160408460051b8301019501936000915b84831061165d5750505050505090565b909192939495848061167b600193603f198682030187528a51611568565b980193019301919493929061164d565b9060009182548110156116c557600790838052027f290decd9548b62a8d60345a988386fc84ba6bc95484008f6362f93160ef3e563019190565b634e487b7160e01b83526032600452602483fd5b90600182811c92168015611709575b60208310146116f357565b634e487b7160e01b600052602260045260246000fd5b91607f16916116e8565b9060405191826000825492611727846116d9565b9081845260019485811690816000146117965750600114611753575b5050611751925003836114a2565b565b9093915060005260209081600020936000915b81831061177e57505061175193508201013880611743565b85548884018501529485019487945091830191611766565b91505061175194506020925060ff191682840152151560051b8201013880611743565b60001981146102465760010190565b8181106117d3575050565b600081556001016117c8565b67ffffffffffffffff81116105f95760051b60200190565b805482101561180f5760005260206000200190600090565b634e487b7160e01b600052603260045260246000fd5b90815491600160401b8310156105f95782610b7c916001611751950181556117f7565b1561184f57565b60405162461bcd60e51b815260206004820152601a60248201527f496e737469747574696f6e20646f6573206e6f742065786973740000000000006044820152606490fd5b90811515806118c6575b156118bf576001600160a01b03166000908152600160205260409020541490565b5050600090565b50600254821061189e565b604051906118de82611485565b606060e0836000815282602082015260006040820152600083820152826080820152600060a08201528260c08201520152565b9061191b826117df565b61192860405191826114a2565b8281528092611939601f19916117df565b019060005b82811061194a57505050565b6020906119556118d1565b8282850101520161193e565b805182101561180f5760209160051b010190565b9060405191828154918282526020928383019160005283600020936000905b8282106119aa57505050611751925003836114a2565b85546001600160a01b031684526001958601958895509381019390910190611994565b906040516119da81611485565b8092805482526119ec60018201611713565b6020830152600281015460ff8116600281101561090357604084015260081c6001600160a01b0316606083015260e090611a5590600690611a2f60038201611975565b6080860152600481015460a0860152611a4a60058201611713565b60c086015201611713565b91015256fea2646970667358221220d5abef234be3ea8a47682eff84bb6457694e792be9bae968a66d49c5ecb2f13e64736f6c63430008130033","opcodes":"PUSH1 0x80 DUP1 PUSH1 0x40 MSTORE CALLVALUE PUSH2 0x2D JUMPI PUSH1 0x1 PUSH1 0x2 SSTORE PUSH1 0x3 DUP1 SLOAD PUSH1 0x1 PUSH1 0x1 PUSH1 0xA0 SHL SUB NOT AND CALLER OR SWAP1 SSTORE PUSH2 0x1A90 SWAP1 DUP2 PUSH2 0x33 DUP3 CODECOPY RETURN JUMPDEST PUSH1 0x0 DUP1 REVERT INVALID PUSH1 0x80 PUSH1 0x40 MSTORE PUSH1 0x4 CALLDATASIZE LT ISZERO PUSH2 0x12 JUMPI PUSH1 0x0 DUP1 REVERT JUMPDEST PUSH1 0x0 CALLDATALOAD PUSH1 0xE0 SHR DUP1 PUSH4 0x3D7FE40 EQ PUSH2 0x131D JUMPI DUP1 PUSH4 0xC096621 EQ PUSH2 0xEE0 JUMPI DUP1 PUSH4 0x1063B484 EQ PUSH2 0xE77 JUMPI DUP1 PUSH4 0x10DCA1AB EQ PUSH2 0xC87 JUMPI DUP1 PUSH4 0x3864855E EQ PUSH2 0xA8A JUMPI DUP1 PUSH4 0x4104180E EQ PUSH2 0xA12 JUMPI DUP1 PUSH4 0x584FAB0F EQ PUSH2 0x9D4 JUMPI DUP1 PUSH4 0x6EEE7B30 EQ PUSH2 0x9B6 JUMPI DUP1 PUSH4 0x8192574E EQ PUSH2 0x961 JUMPI DUP1 PUSH4 0x90691BF6 EQ PUSH2 0x83E JUMPI DUP1 PUSH4 0xAB2C1935 EQ PUSH2 0x297 JUMPI DUP1 PUSH4 0xC03C75A8 EQ PUSH2 0x267 JUMPI DUP1 PUSH4 0xC1D7EFE7 EQ PUSH2 0x1B2 JUMPI DUP1 PUSH4 0xC3B59D00 EQ PUSH2 0xEF JUMPI PUSH4 0xD5F39488 EQ PUSH2 0xC1 JUMPI PUSH1 0x0 DUP1 REVERT JUMPDEST CALLVALUE PUSH2 0xEA JUMPI PUSH1 0x0 CALLDATASIZE PUSH1 0x3 NOT ADD SLT PUSH2 0xEA JUMPI PUSH1 0x3 SLOAD PUSH1 0x40 MLOAD PUSH1 0x1 PUSH1 0x1 PUSH1 0xA0 SHL SUB SWAP1 SWAP2 AND DUP2 MSTORE PUSH1 0x20 SWAP1 RETURN JUMPDEST PUSH1 0x0 DUP1 REVERT JUMPDEST CALLVALUE PUSH2 0xEA JUMPI PUSH1 0x20 CALLDATASIZE PUSH1 0x3 NOT ADD SLT PUSH2 0xEA JUMPI PUSH1 0x4 CALLDATALOAD PUSH1 0x0 SLOAD DUP2 LT ISZERO PUSH2 0xEA JUMPI PUSH2 0x116 SWAP1 PUSH2 0x168B JUMP JUMPDEST POP DUP1 SLOAD PUSH2 0x1AE PUSH2 0x128 PUSH1 0x1 DUP5 ADD PUSH2 0x1713 JUMP JUMPDEST SWAP3 PUSH2 0x1A0 PUSH1 0x2 DUP3 ADD SLOAD PUSH1 0x4 DUP4 ADD SLOAD SWAP3 PUSH2 0x14F PUSH1 0x6 PUSH2 0x148 PUSH1 0x5 DUP5 ADD PUSH2 0x1713 JUMP JUMPDEST SWAP3 ADD PUSH2 0x1713 JUMP JUMPDEST SWAP4 PUSH2 0x16C PUSH1 0x40 MLOAD SWAP9 DUP10 SWAP9 DUP10 MSTORE PUSH1 0xE0 PUSH1 0x20 DUP11 ADD MSTORE PUSH1 0xE0 DUP10 ADD SWAP1 PUSH2 0x151B JUMP JUMPDEST SWAP3 PUSH2 0x17D PUSH1 0x40 DUP10 ADD PUSH1 0xFF DUP4 AND PUSH2 0x155B JUMP JUMPDEST PUSH1 0x8 SHR PUSH1 0x1 PUSH1 0x1 PUSH1 0xA0 SHL SUB AND PUSH1 0x60 DUP9 ADD MSTORE PUSH1 0x80 DUP8 ADD MSTORE DUP6 DUP3 SUB PUSH1 0xA0 DUP8 ADD MSTORE PUSH2 0x151B JUMP JUMPDEST SWAP1 DUP4 DUP3 SUB PUSH1 0xC0 DUP6 ADD MSTORE PUSH2 0x151B JUMP JUMPDEST SUB SWAP1 RETURN JUMPDEST CALLVALUE PUSH2 0xEA JUMPI PUSH1 0x20 DUP1 PUSH1 0x3 NOT CALLDATASIZE ADD SLT PUSH2 0xEA JUMPI PUSH1 0x4 CALLDATALOAD DUP1 ISZERO ISZERO DUP1 PUSH2 0x25C JUMPI JUMPDEST PUSH2 0x1D9 SWAP1 PUSH2 0x1848 JUMP JUMPDEST PUSH1 0x0 NOT DUP2 ADD SWAP1 DUP2 GT PUSH2 0x246 JUMPI PUSH1 0x3 PUSH2 0x1F3 PUSH2 0x1FA SWAP3 PUSH2 0x168B JUMP JUMPDEST POP ADD PUSH2 0x1975 JUMP JUMPDEST SWAP1 PUSH1 0x40 MLOAD SWAP2 DUP2 DUP4 SWAP3 DUP4 ADD DUP2 DUP5 MSTORE DUP3 MLOAD DUP1 SWAP2 MSTORE DUP2 PUSH1 0x40 DUP6 ADD SWAP4 ADD SWAP2 PUSH1 0x0 JUMPDEST DUP3 DUP2 LT PUSH2 0x226 JUMPI POP POP POP POP SUB SWAP1 RETURN JUMPDEST DUP4 MLOAD PUSH1 0x1 PUSH1 0x1 PUSH1 0xA0 SHL SUB AND DUP6 MSTORE DUP7 SWAP6 POP SWAP4 DUP2 ADD SWAP4 SWAP3 DUP2 ADD SWAP3 PUSH1 0x1 ADD PUSH2 0x217 JUMP JUMPDEST PUSH4 0x4E487B71 PUSH1 0xE0 SHL PUSH1 0x0 MSTORE PUSH1 0x11 PUSH1 0x4 MSTORE PUSH1 0x24 PUSH1 0x0 REVERT JUMPDEST POP PUSH1 0x2 SLOAD DUP2 LT PUSH2 0x1D0 JUMP JUMPDEST CALLVALUE PUSH2 0xEA JUMPI PUSH1 0x40 CALLDATASIZE PUSH1 0x3 NOT ADD SLT PUSH2 0xEA JUMPI PUSH1 0x20 PUSH2 0x28D PUSH2 0x285 PUSH2 0x146F JUMP JUMPDEST PUSH1 0x4 CALLDATALOAD PUSH2 0x1894 JUMP JUMPDEST PUSH1 0x40 MLOAD SWAP1 ISZERO ISZERO DUP2 MSTORE RETURN JUMPDEST CALLVALUE PUSH2 0xEA JUMPI PUSH1 0xA0 CALLDATASIZE PUSH1 0x3 NOT ADD SLT PUSH2 0xEA JUMPI PUSH1 0x4 CALLDATALOAD PUSH8 0xFFFFFFFFFFFFFFFF DUP2 GT PUSH2 0xEA JUMPI PUSH2 0x2C8 SWAP1 CALLDATASIZE SWAP1 PUSH1 0x4 ADD PUSH2 0x14C4 JUMP JUMPDEST PUSH1 0x2 PUSH1 0x24 CALLDATALOAD LT ISZERO PUSH2 0xEA JUMPI PUSH1 0x1 PUSH1 0x1 PUSH1 0xA0 SHL SUB PUSH1 0x44 CALLDATALOAD DUP1 DUP3 AND SWAP1 SUB PUSH2 0xEA JUMPI PUSH1 0x64 CALLDATALOAD PUSH8 0xFFFFFFFFFFFFFFFF DUP2 GT PUSH2 0xEA JUMPI PUSH2 0x307 SWAP1 CALLDATASIZE SWAP1 PUSH1 0x4 ADD PUSH2 0x14C4 JUMP JUMPDEST SWAP1 PUSH1 0x84 CALLDATALOAD PUSH8 0xFFFFFFFFFFFFFFFF DUP2 GT PUSH2 0xEA JUMPI PUSH2 0x328 SWAP1 CALLDATASIZE SWAP1 PUSH1 0x4 ADD PUSH2 0x14C4 JUMP JUMPDEST SWAP3 DUP2 PUSH1 0x3 SLOAD AND CALLER SUB PUSH2 0x7EE JUMPI DUP2 PUSH1 0x44 CALLDATALOAD AND PUSH1 0x0 MSTORE PUSH1 0x1 PUSH1 0x20 MSTORE PUSH1 0x40 PUSH1 0x0 KECCAK256 SLOAD PUSH2 0x792 JUMPI PUSH1 0x2 SLOAD SWAP3 PUSH2 0x358 DUP5 PUSH2 0x17B9 JUMP JUMPDEST PUSH1 0x2 SSTORE PUSH1 0x0 SLOAD PUSH1 0x1 PUSH1 0x40 SHL DUP2 LT ISZERO PUSH2 0x5F9 JUMPI DUP1 PUSH1 0x1 PUSH2 0x37A SWAP3 ADD PUSH1 0x0 SSTORE PUSH2 0x168B JUMP JUMPDEST POP POP PUSH1 0x0 NOT DUP5 ADD DUP5 DUP2 GT PUSH2 0x246 JUMPI PUSH2 0x391 SWAP1 PUSH2 0x168B JUMP JUMPDEST POP SWAP2 DUP5 DUP4 SSTORE DUP1 MLOAD SWAP1 PUSH8 0xFFFFFFFFFFFFFFFF DUP3 GT PUSH2 0x5F9 JUMPI DUP2 SWAP1 PUSH2 0x3B7 PUSH1 0x1 DUP7 ADD SLOAD PUSH2 0x16D9 JUMP JUMPDEST PUSH1 0x1F DUP2 GT PUSH2 0x75D JUMPI JUMPDEST POP PUSH1 0x20 SWAP1 PUSH1 0x1F DUP4 GT PUSH1 0x1 EQ PUSH2 0x6EB JUMPI PUSH1 0x0 SWAP3 PUSH2 0x6E0 JUMPI JUMPDEST POP POP DUP2 PUSH1 0x1 SHL SWAP2 PUSH1 0x0 NOT SWAP1 PUSH1 0x3 SHL SHR NOT AND OR PUSH1 0x1 DUP4 ADD SSTORE JUMPDEST PUSH1 0x2 DUP3 ADD DUP1 SLOAD PUSH1 0x1 PUSH1 0x1 PUSH1 0xA8 SHL SUB NOT AND PUSH1 0x24 CALLDATALOAD PUSH1 0xFF AND OR PUSH1 0x44 CALLDATALOAD PUSH1 0x8 SHL PUSH2 0x100 PUSH1 0x1 PUSH1 0xA8 SHL SUB AND OR SWAP1 SSTORE PUSH1 0x40 MLOAD DUP1 PUSH1 0x20 DUP2 ADD LT PUSH8 0xFFFFFFFFFFFFFFFF PUSH1 0x20 DUP4 ADD GT OR PUSH2 0x5F9 JUMPI DUP1 PUSH1 0x20 PUSH1 0x0 SWAP3 ADD PUSH1 0x40 MSTORE MSTORE PUSH1 0x3 DUP3 ADD SLOAD PUSH1 0x0 PUSH1 0x3 DUP5 ADD SSTORE DUP1 PUSH2 0x6C1 JUMPI JUMPDEST POP PUSH1 0x3 DUP3 ADD PUSH1 0x0 MSTORE TIMESTAMP PUSH1 0x4 DUP4 ADD SSTORE DUP1 MLOAD SWAP1 PUSH8 0xFFFFFFFFFFFFFFFF DUP3 GT PUSH2 0x5F9 JUMPI DUP2 SWAP1 PUSH2 0x481 PUSH1 0x5 DUP6 ADD SLOAD PUSH2 0x16D9 JUMP JUMPDEST PUSH1 0x1F DUP2 GT PUSH2 0x68C JUMPI JUMPDEST POP PUSH1 0x20 SWAP1 PUSH1 0x1F DUP4 GT PUSH1 0x1 EQ PUSH2 0x61A JUMPI PUSH1 0x0 SWAP3 PUSH2 0x60F JUMPI JUMPDEST POP POP DUP2 PUSH1 0x1 SHL SWAP2 PUSH1 0x0 NOT SWAP1 PUSH1 0x3 SHL SHR NOT AND OR PUSH1 0x5 DUP3 ADD SSTORE JUMPDEST DUP4 MLOAD PUSH8 0xFFFFFFFFFFFFFFFF DUP2 GT PUSH2 0x5F9 JUMPI PUSH1 0x20 SWAP5 PUSH2 0x4DA PUSH1 0x6 DUP5 ADD SLOAD PUSH2 0x16D9 JUMP JUMPDEST PUSH1 0x1F DUP2 GT PUSH2 0x5BB JUMPI JUMPDEST POP DUP6 SWAP1 PUSH1 0x1F DUP4 GT PUSH1 0x1 EQ PUSH2 0x549 JUMPI PUSH2 0x524 SWAP4 SWAP3 SWAP2 PUSH1 0x0 SWAP2 DUP4 PUSH2 0x53E JUMPI JUMPDEST POP POP DUP2 PUSH1 0x1 SHL SWAP2 PUSH1 0x0 NOT SWAP1 PUSH1 0x3 SHL SHR NOT AND OR PUSH1 0x6 DUP3 ADD SSTORE JUMPDEST PUSH1 0x3 PUSH1 0x44 CALLDATALOAD SWAP2 ADD PUSH2 0x1825 JUMP JUMPDEST PUSH1 0x44 CALLDATALOAD AND PUSH1 0x0 MSTORE PUSH1 0x1 DUP3 MSTORE DUP1 PUSH1 0x40 PUSH1 0x0 KECCAK256 SSTORE PUSH1 0x40 MLOAD SWAP1 DUP2 MSTORE RETURN JUMPDEST ADD MLOAD SWAP1 POP DUP8 DUP1 PUSH2 0x500 JUMP JUMPDEST SWAP1 PUSH1 0x6 DUP5 ADD PUSH1 0x0 MSTORE DUP7 PUSH1 0x0 KECCAK256 SWAP2 PUSH1 0x0 JUMPDEST PUSH1 0x1F NOT DUP6 AND DUP2 LT PUSH2 0x5A4 JUMPI POP SWAP2 DUP4 SWAP2 PUSH1 0x1 SWAP4 PUSH2 0x524 SWAP7 SWAP6 PUSH1 0x1F NOT DUP2 AND LT PUSH2 0x58B JUMPI JUMPDEST POP POP POP DUP2 SHL ADD PUSH1 0x6 DUP3 ADD SSTORE PUSH2 0x518 JUMP JUMPDEST ADD MLOAD PUSH1 0x0 NOT PUSH1 0xF8 DUP5 PUSH1 0x3 SHL AND SHR NOT AND SWAP1 SSTORE DUP8 DUP1 DUP1 PUSH2 0x57B JUMP JUMPDEST SWAP2 SWAP3 DUP9 PUSH1 0x1 DUP2 SWAP3 DUP7 DUP6 ADD MLOAD DUP2 SSTORE ADD SWAP5 ADD SWAP3 ADD PUSH2 0x559 JUMP JUMPDEST PUSH2 0x5E9 SWAP1 PUSH1 0x6 DUP6 ADD PUSH1 0x0 MSTORE DUP8 PUSH1 0x0 KECCAK256 PUSH1 0x1F DUP6 ADD PUSH1 0x5 SHR DUP2 ADD SWAP2 DUP10 DUP7 LT PUSH2 0x5EF JUMPI JUMPDEST PUSH1 0x1F ADD PUSH1 0x5 SHR ADD SWAP1 PUSH2 0x17C8 JUMP JUMPDEST DUP7 PUSH2 0x4E3 JUMP JUMPDEST SWAP1 SWAP2 POP DUP2 SWAP1 PUSH2 0x5DC JUMP JUMPDEST PUSH4 0x4E487B71 PUSH1 0xE0 SHL PUSH1 0x0 MSTORE PUSH1 0x41 PUSH1 0x4 MSTORE PUSH1 0x24 PUSH1 0x0 REVERT JUMPDEST ADD MLOAD SWAP1 POP DUP7 DUP1 PUSH2 0x4A1 JUMP JUMPDEST SWAP3 POP PUSH1 0x5 DUP5 ADD PUSH1 0x0 MSTORE PUSH1 0x20 PUSH1 0x0 KECCAK256 SWAP1 PUSH1 0x0 SWAP4 JUMPDEST PUSH1 0x1F NOT DUP5 AND DUP6 LT PUSH2 0x671 JUMPI PUSH1 0x1 SWAP5 POP DUP4 PUSH1 0x1F NOT DUP2 AND LT PUSH2 0x658 JUMPI JUMPDEST POP POP POP DUP2 SHL ADD PUSH1 0x5 DUP3 ADD SSTORE PUSH2 0x4B9 JUMP JUMPDEST ADD MLOAD PUSH1 0x0 NOT PUSH1 0xF8 DUP5 PUSH1 0x3 SHL AND SHR NOT AND SWAP1 SSTORE DUP7 DUP1 DUP1 PUSH2 0x648 JUMP JUMPDEST DUP2 DUP2 ADD MLOAD DUP4 SSTORE PUSH1 0x20 SWAP5 DUP6 ADD SWAP5 PUSH1 0x1 SWAP1 SWAP4 ADD SWAP3 SWAP1 SWAP2 ADD SWAP1 PUSH2 0x62D JUMP JUMPDEST PUSH2 0x6BB SWAP1 PUSH1 0x5 DUP7 ADD PUSH1 0x0 MSTORE PUSH1 0x20 PUSH1 0x0 KECCAK256 PUSH1 0x1F DUP6 ADD PUSH1 0x5 SHR DUP2 ADD SWAP2 PUSH1 0x20 DUP7 LT PUSH2 0x5EF JUMPI PUSH1 0x1F ADD PUSH1 0x5 SHR ADD SWAP1 PUSH2 0x17C8 JUMP JUMPDEST DUP8 PUSH2 0x48A JUMP JUMPDEST PUSH2 0x6DA SWAP1 PUSH1 0x3 DUP5 ADD PUSH1 0x0 MSTORE PUSH1 0x20 PUSH1 0x0 KECCAK256 SWAP1 DUP2 ADD SWAP1 PUSH2 0x17C8 JUMP JUMPDEST DUP6 PUSH2 0x452 JUMP JUMPDEST ADD MLOAD SWAP1 POP DUP8 DUP1 PUSH2 0x3D7 JUMP JUMPDEST SWAP3 POP PUSH1 0x1 DUP6 ADD PUSH1 0x0 MSTORE PUSH1 0x20 PUSH1 0x0 KECCAK256 SWAP1 PUSH1 0x0 SWAP4 JUMPDEST PUSH1 0x1F NOT DUP5 AND DUP6 LT PUSH2 0x742 JUMPI PUSH1 0x1 SWAP5 POP DUP4 PUSH1 0x1F NOT DUP2 AND LT PUSH2 0x729 JUMPI JUMPDEST POP POP POP DUP2 SHL ADD PUSH1 0x1 DUP4 ADD SSTORE PUSH2 0x3EF JUMP JUMPDEST ADD MLOAD PUSH1 0x0 NOT PUSH1 0xF8 DUP5 PUSH1 0x3 SHL AND SHR NOT AND SWAP1 SSTORE DUP8 DUP1 DUP1 PUSH2 0x719 JUMP JUMPDEST DUP2 DUP2 ADD MLOAD DUP4 SSTORE PUSH1 0x20 SWAP5 DUP6 ADD SWAP5 PUSH1 0x1 SWAP1 SWAP4 ADD SWAP3 SWAP1 SWAP2 ADD SWAP1 PUSH2 0x6FE JUMP JUMPDEST PUSH2 0x78C SWAP1 PUSH1 0x1 DUP8 ADD PUSH1 0x0 MSTORE PUSH1 0x20 PUSH1 0x0 KECCAK256 PUSH1 0x1F DUP6 ADD PUSH1 0x5 SHR DUP2 ADD SWAP2 PUSH1 0x20 DUP7 LT PUSH2 0x5EF JUMPI PUSH1 0x1F ADD PUSH1 0x5 SHR ADD SWAP1 PUSH2 0x17C8 JUMP JUMPDEST DUP9 PUSH2 0x3C0 JUMP JUMPDEST PUSH1 0x40 MLOAD PUSH3 0x461BCD PUSH1 0xE5 SHL DUP2 MSTORE PUSH1 0x20 PUSH1 0x4 DUP3 ADD MSTORE PUSH1 0x2E PUSH1 0x24 DUP3 ADD MSTORE PUSH32 0x4164647265737320616C7265616479206173736F636961746564207769746820 PUSH1 0x44 DUP3 ADD MSTORE PUSH14 0x30B71034B739BA34BA3ABA34B7B7 PUSH1 0x91 SHL PUSH1 0x64 DUP3 ADD MSTORE PUSH1 0x84 SWAP1 REVERT JUMPDEST PUSH1 0x40 MLOAD PUSH3 0x461BCD PUSH1 0xE5 SHL DUP2 MSTORE PUSH1 0x20 PUSH1 0x4 DUP3 ADD MSTORE PUSH1 0x22 PUSH1 0x24 DUP3 ADD MSTORE PUSH32 0x4F6E6C79206465706C6F7965722063616E2061646420696E737469747574696F PUSH1 0x44 DUP3 ADD MSTORE PUSH2 0x6E73 PUSH1 0xF0 SHL PUSH1 0x64 DUP3 ADD MSTORE PUSH1 0x84 SWAP1 REVERT JUMPDEST CALLVALUE PUSH2 0xEA JUMPI PUSH1 0x20 CALLDATASIZE PUSH1 0x3 NOT ADD SLT PUSH2 0xEA JUMPI PUSH1 0x2 PUSH1 0x4 CALLDATALOAD DUP2 DUP2 LT ISZERO SWAP2 DUP3 PUSH2 0xEA JUMPI PUSH1 0x0 DUP1 SLOAD SWAP2 SWAP1 DUP1 JUMPDEST DUP4 DUP2 LT PUSH2 0x919 JUMPI POP PUSH2 0x877 SWAP1 PUSH2 0x1911 JUMP JUMPDEST SWAP3 PUSH1 0x0 SWAP2 PUSH1 0x0 JUMPDEST DUP5 DUP2 LT PUSH2 0x893 JUMPI PUSH1 0x40 MLOAD DUP1 PUSH2 0x1AE DUP9 DUP3 PUSH2 0x1629 JUMP JUMPDEST DUP7 PUSH1 0xFF DUP4 PUSH2 0x8A0 DUP5 PUSH2 0x168B JUMP JUMPDEST POP ADD SLOAD AND SWAP1 PUSH2 0x903 JUMPI DUP3 DUP2 LT ISZERO PUSH2 0x903 JUMPI DUP4 EQ PUSH2 0x8C6 JUMPI JUMPDEST PUSH2 0x8C1 SWAP1 PUSH2 0x17B9 JUMP JUMPDEST PUSH2 0x87E JUMP JUMPDEST SWAP3 PUSH2 0x8FB PUSH2 0x8C1 SWAP2 PUSH2 0x8E0 PUSH2 0x8DA DUP8 PUSH2 0x168B JUMP JUMPDEST POP PUSH2 0x19CD JUMP JUMPDEST PUSH2 0x8EA DUP3 DUP11 PUSH2 0x1961 JUMP JUMPDEST MSTORE PUSH2 0x8F5 DUP2 DUP10 PUSH2 0x1961 JUMP JUMPDEST POP PUSH2 0x17B9 JUMP JUMPDEST SWAP4 SWAP1 POP PUSH2 0x8B8 JUMP JUMPDEST PUSH4 0x4E487B71 PUSH1 0xE0 SHL PUSH1 0x0 MSTORE PUSH1 0x21 PUSH1 0x4 MSTORE PUSH1 0x24 PUSH1 0x0 REVERT JUMPDEST DUP6 PUSH1 0xFF DUP5 PUSH2 0x926 DUP5 PUSH2 0x168B JUMP JUMPDEST POP ADD SLOAD AND SWAP1 PUSH2 0x903 JUMPI DUP4 DUP2 LT ISZERO PUSH2 0x903 JUMPI DUP6 EQ PUSH2 0x94C JUMPI JUMPDEST PUSH2 0x947 SWAP1 PUSH2 0x17B9 JUMP JUMPDEST PUSH2 0x866 JUMP JUMPDEST SWAP1 PUSH2 0x959 PUSH2 0x947 SWAP2 PUSH2 0x17B9 JUMP JUMPDEST SWAP2 SWAP1 POP PUSH2 0x93E JUMP JUMPDEST CALLVALUE PUSH2 0xEA JUMPI PUSH1 0x20 CALLDATASIZE PUSH1 0x3 NOT ADD SLT PUSH2 0xEA JUMPI PUSH1 0x4 CALLDATALOAD DUP1 ISZERO ISZERO DUP1 PUSH2 0x9AB JUMPI JUMPDEST PUSH2 0x987 SWAP1 PUSH2 0x1848 JUMP JUMPDEST PUSH1 0x0 NOT DUP2 ADD SWAP1 DUP2 GT PUSH2 0x246 JUMPI PUSH1 0x4 PUSH2 0x9A0 PUSH1 0x20 SWAP3 PUSH2 0x168B JUMP JUMPDEST POP ADD SLOAD PUSH1 0x40 MLOAD SWAP1 DUP2 MSTORE RETURN JUMPDEST POP PUSH1 0x2 SLOAD DUP2 LT PUSH2 0x97E JUMP JUMPDEST CALLVALUE PUSH2 0xEA JUMPI PUSH1 0x0 CALLDATASIZE PUSH1 0x3 NOT ADD SLT PUSH2 0xEA JUMPI PUSH1 0x20 PUSH1 0x2 SLOAD PUSH1 0x40 MLOAD SWAP1 DUP2 MSTORE RETURN JUMPDEST CALLVALUE PUSH2 0xEA JUMPI PUSH1 0x20 CALLDATASIZE PUSH1 0x3 NOT ADD SLT PUSH2 0xEA JUMPI PUSH1 0x4 CALLDATALOAD PUSH1 0x1 PUSH1 0x1 PUSH1 0xA0 SHL SUB DUP2 AND SWAP1 DUP2 SWAP1 SUB PUSH2 0xEA JUMPI PUSH1 0x0 MSTORE PUSH1 0x1 PUSH1 0x20 MSTORE PUSH1 0x20 PUSH1 0x40 PUSH1 0x0 KECCAK256 SLOAD PUSH1 0x40 MLOAD SWAP1 DUP2 MSTORE RETURN JUMPDEST CALLVALUE PUSH2 0xEA JUMPI PUSH1 0x0 CALLDATASIZE PUSH1 0x3 NOT ADD SLT PUSH2 0xEA JUMPI PUSH1 0x2 SLOAD PUSH1 0x0 NOT SWAP1 DUP2 DUP2 ADD DUP2 DUP2 GT PUSH2 0x246 JUMPI PUSH2 0xA3D SWAP1 PUSH2 0x1911 JUMP JUMPDEST SWAP2 PUSH1 0x1 JUMPDEST DUP3 DUP2 LT PUSH2 0xA56 JUMPI PUSH1 0x40 MLOAD DUP1 PUSH2 0x1AE DUP7 DUP3 PUSH2 0x1629 JUMP JUMPDEST DUP2 DUP2 ADD SWAP1 DUP1 DUP3 GT PUSH2 0x246 JUMPI PUSH2 0x8F5 DUP3 PUSH2 0xA74 PUSH2 0x8DA PUSH2 0xA85 SWAP6 PUSH2 0x168B JUMP JUMPDEST PUSH2 0xA7E DUP3 DUP10 PUSH2 0x1961 JUMP JUMPDEST MSTORE DUP7 PUSH2 0x1961 JUMP JUMPDEST PUSH2 0xA41 JUMP JUMPDEST CALLVALUE PUSH2 0xEA JUMPI PUSH1 0x40 CALLDATASIZE PUSH1 0x3 NOT ADD SLT PUSH2 0xEA JUMPI PUSH1 0x4 CALLDATALOAD PUSH2 0xAA6 PUSH2 0x146F JUMP JUMPDEST DUP2 ISZERO ISZERO DUP1 PUSH2 0xC7C JUMPI JUMPDEST PUSH2 0xAB8 SWAP1 PUSH2 0x1848 JUMP JUMPDEST PUSH1 0x0 NOT SWAP2 DUP1 DUP4 ADD SWAP1 DUP2 GT PUSH2 0x246 JUMPI PUSH2 0xACF SWAP1 PUSH2 0x168B JUMP JUMPDEST POP SWAP2 PUSH1 0x1 DUP1 PUSH1 0xA0 SHL SUB DUP1 PUSH1 0x2 DUP6 ADD SLOAD PUSH1 0x8 SHR AND SWAP3 DUP4 CALLER SUB PUSH2 0xC1A JUMPI DUP2 AND SWAP3 DUP4 EQ PUSH2 0xBD6 JUMPI DUP3 PUSH1 0x0 SWAP4 SWAP3 SWAP4 MSTORE PUSH1 0x1 SWAP3 DUP4 SWAP3 DUP4 PUSH1 0x20 MSTORE PUSH1 0x0 PUSH1 0x40 DUP2 KECCAK256 SSTORE PUSH1 0x0 PUSH1 0x3 DUP1 SWAP8 ADD SWAP5 JUMPDEST PUSH2 0xB19 JUMPI STOP JUMPDEST DUP5 SLOAD DUP1 DUP3 LT ISZERO PUSH2 0xBD4 JUMPI DUP3 DUP6 PUSH2 0xB2F DUP5 DUP10 PUSH2 0x17F7 JUMP JUMPDEST SWAP1 SLOAD SWAP1 DUP12 SHL SHR AND EQ PUSH2 0xB4B JUMPI POP PUSH2 0xB45 SWAP1 PUSH2 0x17B9 JUMP JUMPDEST DUP6 PUSH2 0xB13 JUMP JUMPDEST DUP4 SWAP5 SWAP6 SWAP7 POP DUP1 SWAP4 SWAP2 SWAP3 POP ADD SWAP2 DUP3 GT PUSH2 0x246 JUMPI PUSH2 0xB7C DUP5 PUSH2 0xB6E PUSH2 0xB9B SWAP5 DUP9 PUSH2 0x17F7 JUMP JUMPDEST SWAP1 SLOAD SWAP1 DUP10 SHL SHR AND SWAP2 DUP7 PUSH2 0x17F7 JUMP JUMPDEST SWAP1 SWAP2 SWAP1 DUP3 SLOAD SWAP1 PUSH1 0x3 SHL SWAP2 PUSH1 0x1 DUP1 PUSH1 0xA0 SHL SUB DUP1 SWAP2 AND DUP4 SHL SWAP3 SHL NOT AND OR SWAP1 SSTORE JUMP JUMPDEST DUP3 SLOAD DUP1 ISZERO PUSH2 0xBBE JUMPI ADD SWAP3 PUSH2 0xBAF DUP5 DUP5 PUSH2 0x17F7 JUMP JUMPDEST DUP2 SLOAD SWAP3 SHL SWAP3 SWAP1 SWAP3 SHL NOT AND SWAP1 SSTORE SSTORE STOP JUMPDEST PUSH4 0x4E487B71 PUSH1 0xE0 SHL PUSH1 0x0 MSTORE PUSH1 0x31 PUSH1 0x4 MSTORE PUSH1 0x24 PUSH1 0x0 REVERT JUMPDEST STOP JUMPDEST PUSH1 0x64 PUSH1 0x40 MLOAD PUSH3 0x461BCD PUSH1 0xE5 SHL DUP2 MSTORE PUSH1 0x20 PUSH1 0x4 DUP3 ADD MSTORE PUSH1 0x20 PUSH1 0x24 DUP3 ADD MSTORE PUSH32 0x43616E6E6F742072656D6F766520726573706F6E7369626C6520706572736F6E PUSH1 0x44 DUP3 ADD MSTORE REVERT JUMPDEST PUSH1 0x40 MLOAD PUSH3 0x461BCD PUSH1 0xE5 SHL DUP2 MSTORE PUSH1 0x20 PUSH1 0x4 DUP3 ADD MSTORE PUSH1 0x34 PUSH1 0x24 DUP3 ADD MSTORE PUSH32 0x4F6E6C7920696E737469747574696F6E20726573706F6E7369626C6520706572 PUSH1 0x44 DUP3 ADD MSTORE PUSH20 0x39B7B71031B0B7103932B6B7BB329039BA30B333 PUSH1 0x61 SHL PUSH1 0x64 DUP3 ADD MSTORE PUSH1 0x84 SWAP1 REVERT JUMPDEST POP PUSH1 0x2 SLOAD DUP3 LT PUSH2 0xAAF JUMP JUMPDEST CALLVALUE PUSH2 0xEA JUMPI PUSH1 0x40 CALLDATASIZE PUSH1 0x3 NOT ADD SLT PUSH2 0xEA JUMPI PUSH1 0x4 CALLDATALOAD PUSH2 0xCA3 PUSH2 0x146F JUMP JUMPDEST DUP2 ISZERO ISZERO DUP1 PUSH2 0xE6C JUMPI JUMPDEST PUSH2 0xCB5 SWAP1 PUSH2 0x1848 JUMP JUMPDEST PUSH1 0x0 NOT DUP3 ADD DUP3 DUP2 GT PUSH2 0x246 JUMPI PUSH2 0xCCA SWAP1 PUSH2 0x168B JUMP JUMPDEST POP SWAP2 PUSH1 0x2 DUP4 ADD SWAP1 PUSH1 0x1 DUP1 PUSH1 0xA0 SHL SUB DUP1 DUP4 SLOAD PUSH1 0x8 SHR AND CALLER EQ DUP1 ISZERO PUSH2 0xE5F JUMPI JUMPDEST ISZERO PUSH2 0xDE2 JUMPI DUP4 AND DUP1 PUSH1 0x0 MSTORE PUSH1 0x1 PUSH1 0x20 MSTORE PUSH1 0x40 PUSH1 0x0 KECCAK256 SLOAD DUP3 DUP2 ISZERO SWAP2 DUP3 ISZERO PUSH2 0xDD8 JUMPI JUMPDEST POP POP ISZERO PUSH2 0xD6D JUMPI PUSH2 0xBD4 SWAP5 DUP5 SWAP2 PUSH1 0x0 MSTORE PUSH1 0x1 PUSH1 0x20 MSTORE PUSH1 0x40 PUSH1 0x0 KECCAK256 SWAP1 DUP2 SLOAD ISZERO PUSH2 0xD56 JUMPI JUMPDEST POP POP DUP3 SLOAD PUSH2 0x100 PUSH1 0x1 PUSH1 0xA8 SHL SUB NOT AND PUSH1 0x8 SWAP5 SWAP1 SWAP5 SHL PUSH2 0x100 PUSH1 0x1 PUSH1 0xA8 SHL SUB AND SWAP4 SWAP1 SWAP4 OR SWAP1 SWAP2 SSTORE POP POP JUMP JUMPDEST PUSH2 0xD64 SWAP4 PUSH1 0x3 SWAP3 SSTORE ADD PUSH2 0x1825 JUMP JUMPDEST DUP4 DUP3 DUP2 DUP1 PUSH2 0xD2C JUMP JUMPDEST PUSH1 0x40 MLOAD PUSH3 0x461BCD PUSH1 0xE5 SHL DUP2 MSTORE PUSH1 0x20 PUSH1 0x4 DUP3 ADD MSTORE PUSH1 0x3D PUSH1 0x24 DUP3 ADD MSTORE PUSH32 0x4E657720726573706F6E7369626C6520706572736F6E206973206173736F6369 PUSH1 0x44 DUP3 ADD MSTORE PUSH32 0x61746564207769746820616E6F7468657220696E737469747574696F6E000000 PUSH1 0x64 DUP3 ADD MSTORE PUSH1 0x84 SWAP1 REVERT JUMPDEST EQ SWAP1 POP DUP3 DUP8 PUSH2 0xD09 JUMP JUMPDEST PUSH1 0x40 MLOAD PUSH3 0x461BCD PUSH1 0xE5 SHL DUP2 MSTORE PUSH1 0x20 PUSH1 0x4 DUP3 ADD MSTORE PUSH1 0x49 PUSH1 0x24 DUP3 ADD MSTORE PUSH32 0x4F6E6C792063757272656E7420726573706F6E7369626C6520706572736F6E20 PUSH1 0x44 DUP3 ADD MSTORE PUSH32 0x6F72206465706C6F7965722063616E2075706461746520726573706F6E736962 PUSH1 0x64 DUP3 ADD MSTORE PUSH9 0x3632903832B939B7B7 PUSH1 0xB9 SHL PUSH1 0x84 DUP3 ADD MSTORE PUSH1 0xA4 SWAP1 REVERT JUMPDEST POP DUP1 PUSH1 0x3 SLOAD AND CALLER EQ PUSH2 0xCE8 JUMP JUMPDEST POP PUSH1 0x2 SLOAD DUP3 LT PUSH2 0xCAC JUMP JUMPDEST CALLVALUE PUSH2 0xEA JUMPI PUSH1 0x20 CALLDATASIZE PUSH1 0x3 NOT ADD SLT PUSH2 0xEA JUMPI PUSH1 0x4 CALLDATALOAD PUSH2 0xE93 PUSH2 0x18D1 JUMP JUMPDEST POP DUP1 ISZERO ISZERO DUP1 PUSH2 0xED5 JUMPI JUMPDEST PUSH2 0xEA6 SWAP1 PUSH2 0x1848 JUMP JUMPDEST PUSH1 0x0 NOT DUP2 ADD SWAP1 DUP2 GT PUSH2 0x246 JUMPI PUSH2 0xEC1 PUSH2 0x8DA PUSH2 0x1AE SWAP3 PUSH2 0x168B JUMP JUMPDEST PUSH1 0x40 MLOAD SWAP2 DUP3 SWAP2 PUSH1 0x20 DUP4 MSTORE PUSH1 0x20 DUP4 ADD SWAP1 PUSH2 0x1568 JUMP JUMPDEST POP PUSH1 0x2 SLOAD DUP2 LT PUSH2 0xE9D JUMP JUMPDEST CALLVALUE PUSH2 0xEA JUMPI PUSH1 0x80 CALLDATASIZE PUSH1 0x3 NOT ADD SLT PUSH2 0xEA JUMPI PUSH1 0x24 PUSH1 0x4 CALLDATALOAD PUSH8 0xFFFFFFFFFFFFFFFF DUP3 CALLDATALOAD DUP2 DUP2 GT PUSH2 0xEA JUMPI PUSH2 0xF16 SWAP1 CALLDATASIZE SWAP1 PUSH1 0x4 ADD PUSH2 0x14C4 JUMP JUMPDEST SWAP2 PUSH1 0x44 CALLDATALOAD DUP3 DUP2 GT PUSH2 0xEA JUMPI PUSH2 0xF2F SWAP1 CALLDATASIZE SWAP1 PUSH1 0x4 ADD PUSH2 0x14C4 JUMP JUMPDEST SWAP3 PUSH1 0x64 CALLDATALOAD DUP4 DUP2 GT PUSH2 0xEA JUMPI PUSH2 0xF48 SWAP1 CALLDATASIZE SWAP1 PUSH1 0x4 ADD PUSH2 0x14C4 JUMP JUMPDEST DUP3 ISZERO ISZERO DUP1 PUSH2 0x1312 JUMPI JUMPDEST PUSH2 0xF5A SWAP1 PUSH2 0x1848 JUMP JUMPDEST PUSH1 0x0 NOT SWAP3 DUP1 DUP5 ADD SWAP1 DUP2 GT PUSH2 0x12FD JUMPI PUSH2 0xF71 SWAP1 PUSH2 0x168B JUMP JUMPDEST POP PUSH1 0x1 DUP1 PUSH1 0xA0 SHL SUB DUP1 PUSH1 0x2 DUP4 ADD SLOAD PUSH1 0x8 SHR AND CALLER EQ SWAP1 DUP2 ISZERO PUSH2 0x12EF JUMPI JUMPDEST POP ISZERO PUSH2 0x1285 JUMPI PUSH1 0x1 SWAP6 DUP7 DUP3 ADD DUP5 MLOAD DUP8 DUP2 GT PUSH2 0x11D4 JUMPI DUP1 PUSH2 0xFAD DUP4 SLOAD PUSH2 0x16D9 JUMP JUMPDEST SWAP7 PUSH1 0x1F SWAP8 DUP9 DUP2 GT PUSH2 0x1255 JUMPI JUMPDEST POP PUSH1 0x20 SWAP1 DUP9 DUP4 GT PUSH1 0x1 EQ PUSH2 0x11F4 JUMPI PUSH1 0x0 SWAP3 PUSH2 0x11E9 JUMPI JUMPDEST POP POP DUP8 DUP3 DUP12 SHL SWAP3 PUSH1 0x3 SHL SHR NOT AND OR SWAP1 SSTORE JUMPDEST DUP1 MLOAD PUSH1 0x5 DUP4 ADD SWAP2 DUP8 DUP3 GT PUSH2 0x11D4 JUMPI PUSH2 0xFF8 DUP4 SLOAD PUSH2 0x16D9 JUMP JUMPDEST DUP7 DUP2 GT PUSH2 0x11A4 JUMPI JUMPDEST POP PUSH1 0x20 SWAP1 DUP7 DUP4 GT PUSH1 0x1 EQ PUSH2 0x113E JUMPI PUSH1 0x6 SWAP5 SWAP4 SWAP3 SWAP2 PUSH1 0x0 SWAP2 DUP4 PUSH2 0x1133 JUMPI JUMPDEST POP POP DUP8 DUP3 DUP12 SHL SWAP3 PUSH1 0x3 SHL SHR NOT AND OR SWAP1 SSTORE JUMPDEST ADD SWAP6 DUP2 MLOAD SWAP5 DUP6 GT PUSH2 0x111F JUMPI POP PUSH2 0x1044 DUP7 SLOAD PUSH2 0x16D9 JUMP JUMPDEST DUP3 DUP2 GT PUSH2 0x10E5 JUMPI JUMPDEST POP PUSH1 0x20 SWAP2 DUP5 GT PUSH1 0x1 EQ PUSH2 0x1084 JUMPI SWAP4 DUP4 SWAP5 SWAP2 DUP5 SWAP3 PUSH1 0x0 SWAP6 PUSH2 0x1079 JUMPI JUMPDEST POP POP SHL SWAP3 PUSH1 0x3 SHL SHR NOT AND OR SWAP1 SSTORE PUSH1 0x0 DUP1 RETURN JUMPDEST ADD MLOAD SWAP4 POP DUP7 DUP1 PUSH2 0x1067 JUMP JUMPDEST SWAP2 SWAP1 PUSH1 0x1F NOT DUP5 AND SWAP3 DUP7 PUSH1 0x0 MSTORE DUP5 DUP3 PUSH1 0x0 KECCAK256 SWAP5 PUSH1 0x0 JUMPDEST DUP9 DUP3 DUP3 LT PUSH2 0x10CC JUMPI POP POP LT PUSH2 0x10B4 JUMPI JUMPDEST POP POP POP POP DUP2 SHL ADD SWAP1 SSTORE STOP JUMPDEST ADD MLOAD SWAP1 PUSH1 0xF8 DUP5 PUSH1 0x3 SHL AND SHR NOT AND SWAP1 SSTORE DUP4 DUP1 DUP1 DUP1 PUSH2 0x10A9 JUMP JUMPDEST DUP5 DUP7 ADD MLOAD DUP9 SSTORE SWAP1 SWAP7 ADD SWAP6 PUSH1 0x20 SWAP5 DUP6 ADD SWAP5 DUP9 SWAP4 POP ADD PUSH2 0x1099 JUMP JUMPDEST PUSH2 0x1110 SWAP1 DUP8 PUSH1 0x0 MSTORE PUSH1 0x20 PUSH1 0x0 KECCAK256 DUP5 DUP1 DUP9 ADD PUSH1 0x5 SHR DUP3 ADD SWAP3 PUSH1 0x20 DUP10 LT PUSH2 0x1116 JUMPI JUMPDEST ADD PUSH1 0x5 SHR ADD SWAP1 PUSH2 0x17C8 JUMP JUMPDEST DUP7 PUSH2 0x104C JUMP JUMPDEST SWAP3 POP DUP2 SWAP3 PUSH2 0x1105 JUMP JUMPDEST PUSH4 0x4E487B71 PUSH1 0xE0 SHL PUSH1 0x0 SWAP1 DUP2 MSTORE PUSH1 0x41 PUSH1 0x4 MSTORE REVERT JUMPDEST ADD MLOAD SWAP1 POP DUP12 DUP1 PUSH2 0x101D JUMP JUMPDEST SWAP4 SWAP3 SWAP2 DUP10 SWAP2 PUSH1 0x1F NOT DUP3 AND SWAP1 DUP5 PUSH1 0x0 MSTORE DUP1 PUSH1 0x0 KECCAK256 SWAP2 PUSH1 0x0 JUMPDEST DUP2 DUP2 LT PUSH2 0x118C JUMPI POP SWAP7 DUP4 PUSH1 0x6 SWAP9 LT PUSH2 0x1175 JUMPI JUMPDEST POP POP POP DUP2 SHL ADD SWAP1 SSTORE PUSH2 0x102E JUMP JUMPDEST ADD MLOAD DUP10 PUSH1 0xF8 DUP5 PUSH1 0x3 SHL AND SHR NOT AND SWAP1 SSTORE DUP12 DUP1 DUP1 PUSH2 0x1168 JUMP JUMPDEST DUP3 DUP10 ADD MLOAD DUP5 SSTORE DUP14 SWAP6 SWAP1 SWAP4 ADD SWAP3 PUSH1 0x20 SWAP3 DUP4 ADD SWAP3 ADD PUSH2 0x1155 JUMP JUMPDEST PUSH2 0x11CE SWAP1 DUP5 PUSH1 0x0 MSTORE PUSH1 0x20 PUSH1 0x0 KECCAK256 DUP9 DUP1 DUP7 ADD PUSH1 0x5 SHR DUP3 ADD SWAP3 PUSH1 0x20 DUP8 LT PUSH2 0x1116 JUMPI ADD PUSH1 0x5 SHR ADD SWAP1 PUSH2 0x17C8 JUMP JUMPDEST DUP11 PUSH2 0x1000 JUMP JUMPDEST DUP10 PUSH4 0x4E487B71 PUSH1 0xE0 SHL PUSH1 0x0 MSTORE PUSH1 0x41 PUSH1 0x4 MSTORE PUSH1 0x0 REVERT JUMPDEST ADD MLOAD SWAP1 POP DUP12 DUP1 PUSH2 0xFCF JUMP JUMPDEST SWAP1 DUP12 SWAP4 POP PUSH1 0x1F NOT DUP4 AND SWAP2 DUP6 PUSH1 0x0 MSTORE DUP2 PUSH1 0x0 KECCAK256 SWAP3 PUSH1 0x0 JUMPDEST DUP2 DUP2 LT PUSH2 0x123D JUMPI POP DUP5 GT PUSH2 0x1226 JUMPI JUMPDEST POP POP POP DUP2 SHL ADD SWAP1 SSTORE PUSH2 0xFE0 JUMP JUMPDEST ADD MLOAD DUP10 PUSH1 0xF8 DUP5 PUSH1 0x3 SHL AND SHR NOT AND SWAP1 SSTORE DUP12 DUP1 DUP1 PUSH2 0x1219 JUMP JUMPDEST DUP3 DUP5 ADD MLOAD DUP6 SSTORE DUP15 SWAP7 SWAP1 SWAP5 ADD SWAP4 PUSH1 0x20 SWAP4 DUP5 ADD SWAP4 ADD PUSH2 0x120A JUMP JUMPDEST PUSH2 0x127F SWAP1 DUP6 PUSH1 0x0 MSTORE PUSH1 0x20 PUSH1 0x0 KECCAK256 DUP11 DUP1 DUP7 ADD PUSH1 0x5 SHR DUP3 ADD SWAP3 PUSH1 0x20 DUP8 LT PUSH2 0x1116 JUMPI ADD PUSH1 0x5 SHR ADD SWAP1 PUSH2 0x17C8 JUMP JUMPDEST DUP13 PUSH2 0xFB9 JUMP JUMPDEST PUSH1 0x40 MLOAD PUSH3 0x461BCD PUSH1 0xE5 SHL DUP2 MSTORE PUSH1 0x20 PUSH1 0x4 DUP3 ADD MSTORE PUSH1 0x3A DUP2 DUP10 ADD MSTORE PUSH32 0x4F6E6C7920726573706F6E7369626C6520706572736F6E206F72206465706C6F PUSH1 0x44 DUP3 ADD MSTORE PUSH32 0x7965722063616E2075706461746520696E737469747574696F6E000000000000 PUSH1 0x64 DUP3 ADD MSTORE PUSH1 0x84 SWAP1 REVERT JUMPDEST SWAP1 POP PUSH1 0x3 SLOAD AND CALLER EQ DUP9 PUSH2 0xF8D JUMP JUMPDEST DUP7 PUSH4 0x4E487B71 PUSH1 0xE0 SHL PUSH1 0x0 MSTORE PUSH1 0x11 PUSH1 0x4 MSTORE PUSH1 0x0 REVERT JUMPDEST POP PUSH1 0x2 SLOAD DUP4 LT PUSH2 0xF51 JUMP JUMPDEST CALLVALUE PUSH2 0xEA JUMPI PUSH1 0x40 CALLDATASIZE PUSH1 0x3 NOT ADD SLT PUSH2 0xEA JUMPI PUSH1 0x4 CALLDATALOAD PUSH2 0x1339 PUSH2 0x146F JUMP JUMPDEST DUP2 ISZERO ISZERO DUP1 PUSH2 0x1464 JUMPI JUMPDEST PUSH2 0x134B SWAP1 PUSH2 0x1848 JUMP JUMPDEST PUSH1 0x0 NOT DUP3 ADD DUP3 DUP2 GT PUSH2 0x246 JUMPI PUSH2 0x1360 SWAP1 PUSH2 0x168B JUMP JUMPDEST POP PUSH1 0x2 DUP2 ADD SLOAD PUSH1 0x1 PUSH1 0x1 PUSH1 0xA0 SHL SUB SWAP1 PUSH1 0x8 SHR DUP2 AND CALLER SUB PUSH2 0x1405 JUMPI DUP3 AND SWAP1 DUP2 PUSH1 0x0 MSTORE PUSH1 0x1 PUSH1 0x20 MSTORE PUSH1 0x40 PUSH1 0x0 KECCAK256 SLOAD PUSH2 0x13AB JUMPI PUSH2 0xBD4 SWAP4 PUSH1 0x3 SWAP3 PUSH1 0x0 MSTORE PUSH1 0x1 PUSH1 0x20 MSTORE PUSH1 0x40 PUSH1 0x0 KECCAK256 SSTORE ADD PUSH2 0x1825 JUMP JUMPDEST PUSH1 0x40 MLOAD PUSH3 0x461BCD PUSH1 0xE5 SHL DUP2 MSTORE PUSH1 0x20 PUSH1 0x4 DUP3 ADD MSTORE PUSH1 0x2C PUSH1 0x24 DUP3 ADD MSTORE PUSH32 0x537461666620616C7265616479206173736F636961746564207769746820616E PUSH1 0x44 DUP3 ADD MSTORE PUSH12 0x1034B739BA34BA3ABA34B7B7 PUSH1 0xA1 SHL PUSH1 0x64 DUP3 ADD MSTORE PUSH1 0x84 SWAP1 REVERT JUMPDEST PUSH1 0x40 MLOAD PUSH3 0x461BCD PUSH1 0xE5 SHL DUP2 MSTORE PUSH1 0x20 PUSH1 0x4 DUP3 ADD MSTORE PUSH1 0x31 PUSH1 0x24 DUP3 ADD MSTORE PUSH32 0x4F6E6C7920696E737469747574696F6E20726573706F6E7369626C6520706572 PUSH1 0x44 DUP3 ADD MSTORE PUSH17 0x39B7B71031B0B71030B2321039BA30B333 PUSH1 0x79 SHL PUSH1 0x64 DUP3 ADD MSTORE PUSH1 0x84 SWAP1 REVERT JUMPDEST POP PUSH1 0x2 SLOAD DUP3 LT PUSH2 0x1342 JUMP JUMPDEST PUSH1 0x24 CALLDATALOAD SWAP1 PUSH1 0x1 PUSH1 0x1 PUSH1 0xA0 SHL SUB DUP3 AND DUP3 SUB PUSH2 0xEA JUMPI JUMP JUMPDEST PUSH2 0x100 DUP2 ADD SWAP1 DUP2 LT PUSH8 0xFFFFFFFFFFFFFFFF DUP3 GT OR PUSH2 0x5F9 JUMPI PUSH1 0x40 MSTORE JUMP JUMPDEST SWAP1 PUSH1 0x1F DUP1 NOT SWAP2 ADD AND DUP2 ADD SWAP1 DUP2 LT PUSH8 0xFFFFFFFFFFFFFFFF DUP3 GT OR PUSH2 0x5F9 JUMPI PUSH1 0x40 MSTORE JUMP JUMPDEST DUP2 PUSH1 0x1F DUP3 ADD SLT ISZERO PUSH2 0xEA JUMPI DUP1 CALLDATALOAD SWAP1 PUSH8 0xFFFFFFFFFFFFFFFF DUP3 GT PUSH2 0x5F9 JUMPI PUSH1 0x40 MLOAD SWAP3 PUSH2 0x14F9 PUSH1 0x1F DUP5 ADD PUSH1 0x1F NOT AND PUSH1 0x20 ADD DUP6 PUSH2 0x14A2 JUMP JUMPDEST DUP3 DUP5 MSTORE PUSH1 0x20 DUP4 DUP4 ADD ADD GT PUSH2 0xEA JUMPI DUP2 PUSH1 0x0 SWAP3 PUSH1 0x20 DUP1 SWAP4 ADD DUP4 DUP7 ADD CALLDATACOPY DUP4 ADD ADD MSTORE SWAP1 JUMP JUMPDEST SWAP2 SWAP1 DUP3 MLOAD SWAP3 DUP4 DUP3 MSTORE PUSH1 0x0 JUMPDEST DUP5 DUP2 LT PUSH2 0x1547 JUMPI POP POP DUP3 PUSH1 0x0 PUSH1 0x20 DUP1 SWAP5 SWAP6 DUP5 ADD ADD MSTORE PUSH1 0x1F DUP1 NOT SWAP2 ADD AND ADD ADD SWAP1 JUMP JUMPDEST PUSH1 0x20 DUP2 DUP4 ADD DUP2 ADD MLOAD DUP5 DUP4 ADD DUP3 ADD MSTORE ADD PUSH2 0x1526 JUMP JUMPDEST SWAP1 PUSH1 0x2 DUP3 LT ISZERO PUSH2 0x903 JUMPI MSTORE JUMP JUMPDEST SWAP2 SWAP1 SWAP2 DUP1 MLOAD DUP4 MSTORE PUSH1 0x20 SWAP3 PUSH2 0x1589 DUP5 DUP4 ADD MLOAD PUSH2 0x100 DUP1 DUP8 DUP6 ADD MSTORE DUP4 ADD SWAP1 PUSH2 0x151B JUMP JUMPDEST SWAP4 PUSH2 0x159C PUSH1 0x40 DUP5 ADD MLOAD PUSH1 0x40 DUP5 ADD SWAP1 PUSH2 0x155B JUMP JUMPDEST PUSH1 0x1 DUP1 PUSH1 0xA0 SHL SUB SWAP1 DUP2 PUSH1 0x60 DUP6 ADD MLOAD AND PUSH1 0x60 DUP5 ADD MSTORE PUSH1 0x80 DUP5 ADD MLOAD SWAP6 DUP4 DUP2 SUB PUSH1 0x80 DUP6 ADD MSTORE DUP2 DUP1 DUP9 MLOAD SWAP3 DUP4 DUP2 MSTORE ADD SWAP8 ADD SWAP2 PUSH1 0x0 JUMPDEST DUP3 DUP2 LT PUSH2 0x1613 JUMPI POP POP POP POP POP PUSH1 0xE0 PUSH2 0x15FF PUSH2 0x1610 SWAP5 SWAP6 PUSH1 0xA0 DUP6 ADD MLOAD PUSH1 0xA0 DUP6 ADD MSTORE PUSH1 0xC0 DUP6 ADD MLOAD DUP5 DUP3 SUB PUSH1 0xC0 DUP7 ADD MSTORE PUSH2 0x151B JUMP JUMPDEST SWAP3 ADD MLOAD SWAP1 PUSH1 0xE0 DUP2 DUP5 SUB SWAP2 ADD MSTORE PUSH2 0x151B JUMP JUMPDEST SWAP1 JUMP JUMPDEST DUP4 MLOAD DUP6 AND DUP10 MSTORE SWAP8 DUP2 ADD SWAP8 SWAP3 DUP2 ADD SWAP3 PUSH1 0x1 ADD PUSH2 0x15CD JUMP JUMPDEST PUSH1 0x20 DUP1 DUP3 ADD SWAP1 DUP1 DUP4 MSTORE DUP4 MLOAD DUP1 SWAP3 MSTORE PUSH1 0x40 DUP4 ADD SWAP3 DUP2 PUSH1 0x40 DUP5 PUSH1 0x5 SHL DUP4 ADD ADD SWAP6 ADD SWAP4 PUSH1 0x0 SWAP2 JUMPDEST DUP5 DUP4 LT PUSH2 0x165D JUMPI POP POP POP POP POP POP SWAP1 JUMP JUMPDEST SWAP1 SWAP2 SWAP3 SWAP4 SWAP5 SWAP6 DUP5 DUP1 PUSH2 0x167B PUSH1 0x1 SWAP4 PUSH1 0x3F NOT DUP7 DUP3 SUB ADD DUP8 MSTORE DUP11 MLOAD PUSH2 0x1568 JUMP JUMPDEST SWAP9 ADD SWAP4 ADD SWAP4 ADD SWAP2 SWAP5 SWAP4 SWAP3 SWAP1 PUSH2 0x164D JUMP JUMPDEST SWAP1 PUSH1 0x0 SWAP2 DUP3 SLOAD DUP2 LT ISZERO PUSH2 0x16C5 JUMPI PUSH1 0x7 SWAP1 DUP4 DUP1 MSTORE MUL PUSH32 0x290DECD9548B62A8D60345A988386FC84BA6BC95484008F6362F93160EF3E563 ADD SWAP2 SWAP1 JUMP JUMPDEST PUSH4 0x4E487B71 PUSH1 0xE0 SHL DUP4 MSTORE PUSH1 0x32 PUSH1 0x4 MSTORE PUSH1 0x24 DUP4 REVERT JUMPDEST SWAP1 PUSH1 0x1 DUP3 DUP2 SHR SWAP3 AND DUP1 ISZERO PUSH2 0x1709 JUMPI JUMPDEST PUSH1 0x20 DUP4 LT EQ PUSH2 0x16F3 JUMPI JUMP JUMPDEST PUSH4 0x4E487B71 PUSH1 0xE0 SHL PUSH1 0x0 MSTORE PUSH1 0x22 PUSH1 0x4 MSTORE PUSH1 0x24 PUSH1 0x0 REVERT JUMPDEST SWAP2 PUSH1 0x7F AND SWAP2 PUSH2 0x16E8 JUMP JUMPDEST SWAP1 PUSH1 0x40 MLOAD SWAP2 DUP3 PUSH1 0x0 DUP3 SLOAD SWAP3 PUSH2 0x1727 DUP5 PUSH2 0x16D9 JUMP JUMPDEST SWAP1 DUP2 DUP5 MSTORE PUSH1 0x1 SWAP5 DUP6 DUP2 AND SWAP1 DUP2 PUSH1 0x0 EQ PUSH2 0x1796 JUMPI POP PUSH1 0x1 EQ PUSH2 0x1753 JUMPI JUMPDEST POP POP PUSH2 0x1751 SWAP3 POP SUB DUP4 PUSH2 0x14A2 JUMP JUMPDEST JUMP JUMPDEST SWAP1 SWAP4 SWAP2 POP PUSH1 0x0 MSTORE PUSH1 0x20 SWAP1 DUP2 PUSH1 0x0 KECCAK256 SWAP4 PUSH1 0x0 SWAP2 JUMPDEST DUP2 DUP4 LT PUSH2 0x177E JUMPI POP POP PUSH2 0x1751 SWAP4 POP DUP3 ADD ADD CODESIZE DUP1 PUSH2 0x1743 JUMP JUMPDEST DUP6 SLOAD DUP9 DUP5 ADD DUP6 ADD MSTORE SWAP5 DUP6 ADD SWAP5 DUP8 SWAP5 POP SWAP2 DUP4 ADD SWAP2 PUSH2 0x1766 JUMP JUMPDEST SWAP2 POP POP PUSH2 0x1751 SWAP5 POP PUSH1 0x20 SWAP3 POP PUSH1 0xFF NOT AND DUP3 DUP5 ADD MSTORE ISZERO ISZERO PUSH1 0x5 SHL DUP3 ADD ADD CODESIZE DUP1 PUSH2 0x1743 JUMP JUMPDEST PUSH1 0x0 NOT DUP2 EQ PUSH2 0x246 JUMPI PUSH1 0x1 ADD SWAP1 JUMP JUMPDEST DUP2 DUP2 LT PUSH2 0x17D3 JUMPI POP POP JUMP JUMPDEST PUSH1 0x0 DUP2 SSTORE PUSH1 0x1 ADD PUSH2 0x17C8 JUMP JUMPDEST PUSH8 0xFFFFFFFFFFFFFFFF DUP2 GT PUSH2 0x5F9 JUMPI PUSH1 0x5 SHL PUSH1 0x20 ADD SWAP1 JUMP JUMPDEST DUP1 SLOAD DUP3 LT ISZERO PUSH2 0x180F JUMPI PUSH1 0x0 MSTORE PUSH1 0x20 PUSH1 0x0 KECCAK256 ADD SWAP1 PUSH1 0x0 SWAP1 JUMP JUMPDEST PUSH4 0x4E487B71 PUSH1 0xE0 SHL PUSH1 0x0 MSTORE PUSH1 0x32 PUSH1 0x4 MSTORE PUSH1 0x24 PUSH1 0x0 REVERT JUMPDEST SWAP1 DUP2 SLOAD SWAP2 PUSH1 0x1 PUSH1 0x40 SHL DUP4 LT ISZERO PUSH2 0x5F9 JUMPI DUP3 PUSH2 0xB7C SWAP2 PUSH1 0x1 PUSH2 0x1751 SWAP6 ADD DUP2 SSTORE PUSH2 0x17F7 JUMP JUMPDEST ISZERO PUSH2 0x184F JUMPI JUMP JUMPDEST PUSH1 0x40 MLOAD PUSH3 0x461BCD PUSH1 0xE5 SHL DUP2 MSTORE PUSH1 0x20 PUSH1 0x4 DUP3 ADD MSTORE PUSH1 0x1A PUSH1 0x24 DUP3 ADD MSTORE PUSH32 0x496E737469747574696F6E20646F6573206E6F74206578697374000000000000 PUSH1 0x44 DUP3 ADD MSTORE PUSH1 0x64 SWAP1 REVERT JUMPDEST SWAP1 DUP2 ISZERO ISZERO DUP1 PUSH2 0x18C6 JUMPI JUMPDEST ISZERO PUSH2 0x18BF JUMPI PUSH1 0x1 PUSH1 0x1 PUSH1 0xA0 SHL SUB AND PUSH1 0x0 SWAP1 DUP2 MSTORE PUSH1 0x1 PUSH1 0x20 MSTORE PUSH1 0x40 SWAP1 KECCAK256 SLOAD EQ SWAP1 JUMP JUMPDEST POP POP PUSH1 0x0 SWAP1 JUMP JUMPDEST POP PUSH1 0x2 SLOAD DUP3 LT PUSH2 0x189E JUMP JUMPDEST PUSH1 0x40 MLOAD SWAP1 PUSH2 0x18DE DUP3 PUSH2 0x1485 JUMP JUMPDEST PUSH1 0x60 PUSH1 0xE0 DUP4 PUSH1 0x0 DUP2 MSTORE DUP3 PUSH1 0x20 DUP3 ADD MSTORE PUSH1 0x0 PUSH1 0x40 DUP3 ADD MSTORE PUSH1 0x0 DUP4 DUP3 ADD MSTORE DUP3 PUSH1 0x80 DUP3 ADD MSTORE PUSH1 0x0 PUSH1 0xA0 DUP3 ADD MSTORE DUP3 PUSH1 0xC0 DUP3 ADD MSTORE ADD MSTORE JUMP JUMPDEST SWAP1 PUSH2 0x191B DUP3 PUSH2 0x17DF JUMP JUMPDEST PUSH2 0x1928 PUSH1 0x40 MLOAD SWAP2 DUP3 PUSH2 0x14A2 JUMP JUMPDEST DUP3 DUP2 MSTORE DUP1 SWAP3 PUSH2 0x1939 PUSH1 0x1F NOT SWAP2 PUSH2 0x17DF JUMP JUMPDEST ADD SWAP1 PUSH1 0x0 JUMPDEST DUP3 DUP2 LT PUSH2 0x194A JUMPI POP POP POP JUMP JUMPDEST PUSH1 0x20 SWAP1 PUSH2 0x1955 PUSH2 0x18D1 JUMP JUMPDEST DUP3 DUP3 DUP6 ADD ADD MSTORE ADD PUSH2 0x193E JUMP JUMPDEST DUP1 MLOAD DUP3 LT ISZERO PUSH2 0x180F JUMPI PUSH1 0x20 SWAP2 PUSH1 0x5 SHL ADD ADD SWAP1 JUMP JUMPDEST SWAP1 PUSH1 0x40 MLOAD SWAP2 DUP3 DUP2 SLOAD SWAP2 DUP3 DUP3 MSTORE PUSH1 0x20 SWAP3 DUP4 DUP4 ADD SWAP2 PUSH1 0x0 MSTORE DUP4 PUSH1 0x0 KECCAK256 SWAP4 PUSH1 0x0 SWAP1 JUMPDEST DUP3 DUP3 LT PUSH2 0x19AA JUMPI POP POP POP PUSH2 0x1751 SWAP3 POP SUB DUP4 PUSH2 0x14A2 JUMP JUMPDEST DUP6 SLOAD PUSH1 0x1 PUSH1 0x1 PUSH1 0xA0 SHL SUB AND DUP5 MSTORE PUSH1 0x1 SWAP6 DUP7 ADD SWAP6 DUP9 SWAP6 POP SWAP4 DUP2 ADD SWAP4 SWAP1 SWAP2 ADD SWAP1 PUSH2 0x1994 JUMP JUMPDEST SWAP1 PUSH1 0x40 MLOAD PUSH2 0x19DA DUP2 PUSH2 0x1485 JUMP JUMPDEST DUP1 SWAP3 DUP1 SLOAD DUP3 MSTORE PUSH2 0x19EC PUSH1 0x1 DUP3 ADD PUSH2 0x1713 JUMP JUMPDEST PUSH1 0x20 DUP4 ADD MSTORE PUSH1 0x2 DUP2 ADD SLOAD PUSH1 0xFF DUP2 AND PUSH1 0x2 DUP2 LT ISZERO PUSH2 0x903 JUMPI PUSH1 0x40 DUP5 ADD MSTORE PUSH1 0x8 SHR PUSH1 0x1 PUSH1 0x1 PUSH1 0xA0 SHL SUB AND PUSH1 0x60 DUP4 ADD MSTORE PUSH1 0xE0 SWAP1 PUSH2 0x1A55 SWAP1 PUSH1 0x6 SWAP1 PUSH2 0x1A2F PUSH1 0x3 DUP3 ADD PUSH2 0x1975 JUMP JUMPDEST PUSH1 0x80 DUP7 ADD MSTORE PUSH1 0x4 DUP2 ADD SLOAD PUSH1 0xA0 DUP7 ADD MSTORE PUSH2 0x1A4A PUSH1 0x5 DUP3 ADD PUSH2 0x1713 JUMP JUMPDEST PUSH1 0xC0 DUP7 ADD MSTORE ADD PUSH2 0x1713 JUMP JUMPDEST SWAP2 ADD MSTORE JUMP INVALID LOG2 PUSH5 0x6970667358 0x22 SLT KECCAK256 0xD5 0xAB 0xEF 0x23 0x4B 0xE3 0xEA DUP11 SELFBALANCE PUSH9 0x2EFF84BB6457694E79 0x2B 0xE9 0xBA 0xE9 PUSH9 0xA66D49C5ECB2F13E64 PUSH20 0x6F6C634300081300330000000000000000000000 "},"methodIdentifiers":{"addInstitution(string,uint8,address,string,string)":"ab2c1935","addStaffToInstitution(uint256,address)":"03d7fe40","deployer()":"d5f39488","getAllInstitutions()":"4104180e","getInstitutionCreationTime(uint256)":"8192574e","getInstitutionDetail(uint256)":"1063b484","getInstitutionStaff(uint256)":"c1d7efe7","getInstitutionsByType(uint8)":"90691bf6","institutionIdCounter()":"6eee7b30","institutions(uint256)":"c3b59d00","isStaffInInstitution(uint256,address)":"c03c75a8","removeStaffFromInstitution(uint256,address)":"3864855e","staffToInstitution(address)":"584fab0f","updateInstitution(uint256,string,string,string)":"0c096621","updateInstitutionResponsiblePerson(uint256,address)":"10dca1ab"}}}}}