{"contracts/UserManager.sol":{"UserManager":{"abi":[{"inputs":[{"internalType":"address","name":"_institutionManagerAddress","type":"address"}],"stateMutability":"nonpayable","type":"constructor"},{"inputs":[{"internalType":"address","name":"_user","type":"address"},{"internalType":"uint256","name":"_petId","type":"uint256"}],"name":"addPetToUser","outputs":[],"stateMutability":"nonpayable","type":"function"},{"inputs":[{"internalType":"address","name":"_user","type":"address"}],"name":"checkUserIsRegistered","outputs":[{"internalType":"bool","name":"","type":"bool"}],"stateMutability":"view","type":"function"},{"inputs":[],"name":"deployer","outputs":[{"internalType":"address","name":"","type":"address"}],"stateMutability":"view","type":"function"},{"inputs":[],"name":"getAllUsers","outputs":[{"components":[{"internalType":"string","name":"name","type":"string"},{"internalType":"string","name":"email","type":"string"},{"internalType":"string","name":"phone","type":"string"},{"internalType":"address","name":"wallet","type":"address"},{"internalType":"enum IMyPetBase.UserType","name":"userType","type":"uint8"},{"internalType":"uint256","name":"orgId","type":"uint256"},{"internalType":"bool","name":"isProfileSet","type":"bool"},{"internalType":"enum IMyPetBase.RoleType","name":"roleId","type":"uint8"},{"internalType":"uint256[]","name":"petIds","type":"uint256[]"},{"internalType":"uint256","name":"registeredAt","type":"uint256"},{"internalType":"string","name":"avatar","type":"string"}],"internalType":"struct IMyPetBase.User[]","name":"","type":"tuple[]"}],"stateMutability":"view","type":"function"},{"inputs":[{"internalType":"address","name":"_user","type":"address"}],"name":"getUserInfo","outputs":[{"internalType":"uint256","name":"id","type":"uint256"},{"internalType":"string","name":"name","type":"string"},{"internalType":"string","name":"email","type":"string"},{"internalType":"string","name":"phone","type":"string"},{"internalType":"address","name":"wallet","type":"address"},{"internalType":"enum IMyPetBase.UserType","name":"userType","type":"uint8"},{"internalType":"uint256","name":"orgId","type":"uint256"},{"internalType":"string","name":"orgName","type":"string"},{"internalType":"enum IMyPetBase.InstitutionType","name":"orgType","type":"uint8"},{"internalType":"enum IMyPetBase.RoleType","name":"roleId","type":"uint8"},{"internalType":"uint256","name":"registeredAt","type":"uint256"},{"internalType":"string","name":"avatar","type":"string"}],"stateMutability":"view","type":"function"},{"inputs":[{"internalType":"address","name":"_user","type":"address"}],"name":"getUserPetIds","outputs":[{"internalType":"uint256[]","name":"","type":"uint256[]"}],"stateMutability":"view","type":"function"},{"inputs":[{"internalType":"uint256","name":"_orgId","type":"uint256"}],"name":"getUsersByInstitution","outputs":[{"components":[{"internalType":"string","name":"name","type":"string"},{"internalType":"string","name":"email","type":"string"},{"internalType":"string","name":"phone","type":"string"},{"internalType":"address","name":"wallet","type":"address"},{"internalType":"enum IMyPetBase.UserType","name":"userType","type":"uint8"},{"internalType":"uint256","name":"orgId","type":"uint256"},{"internalType":"bool","name":"isProfileSet","type":"bool"},{"internalType":"enum IMyPetBase.RoleType","name":"roleId","type":"uint8"},{"internalType":"uint256[]","name":"petIds","type":"uint256[]"},{"internalType":"uint256","name":"registeredAt","type":"uint256"},{"internalType":"string","name":"avatar","type":"string"}],"internalType":"struct IMyPetBase.User[]","name":"","type":"tuple[]"}],"stateMutability":"view","type":"function"},{"inputs":[{"internalType":"enum IMyPetBase.RoleType","name":"_roleId","type":"uint8"}],"name":"getUsersByRole","outputs":[{"components":[{"internalType":"string","name":"name","type":"string"},{"internalType":"string","name":"email","type":"string"},{"internalType":"string","name":"phone","type":"string"},{"internalType":"address","name":"wallet","type":"address"},{"internalType":"enum IMyPetBase.UserType","name":"userType","type":"uint8"},{"internalType":"uint256","name":"orgId","type":"uint256"},{"internalType":"bool","name":"isProfileSet","type":"bool"},{"internalType":"enum IMyPetBase.RoleType","name":"roleId","type":"uint8"},{"internalType":"uint256[]","name":"petIds","type":"uint256[]"},{"internalType":"uint256","name":"registeredAt","type":"uint256"},{"internalType":"string","name":"avatar","type":"string"}],"internalType":"struct IMyPetBase.User[]","name":"","type":"tuple[]"}],"stateMutability":"view","type":"function"},{"inputs":[],"name":"institutionManagerAddress","outputs":[{"internalType":"address","name":"","type":"address"}],"stateMutability":"view","type":"function"},{"inputs":[{"internalType":"address","name":"_user","type":"address"},{"internalType":"uint256","name":"_petId","type":"uint256"}],"name":"removePetFromUser","outputs":[],"stateMutability":"nonpayable","type":"function"},{"inputs":[{"internalType":"string","name":"_name","type":"string"},{"internalType":"string","name":"_email","type":"string"},{"internalType":"string","name":"_phone","type":"string"},{"internalType":"enum IMyPetBase.UserType","name":"_userType","type":"uint8"},{"internalType":"uint256","name":"_orgId","type":"uint256"},{"internalType":"string","name":"_avatar","type":"string"}],"name":"setUserProfile","outputs":[],"stateMutability":"nonpayable","type":"function"},{"inputs":[{"internalType":"address","name":"_user","type":"address"},{"internalType":"enum IMyPetBase.RoleType","name":"_roleId","type":"uint8"}],"name":"updateUserRole","outputs":[],"stateMutability":"nonpayable","type":"function"},{"inputs":[],"name":"userIdCounter","outputs":[{"internalType":"uint256","name":"","type":"uint256"}],"stateMutability":"view","type":"function"},{"inputs":[{"internalType":"address","name":"","type":"address"}],"name":"userIds","outputs":[{"internalType":"uint256","name":"","type":"uint256"}],"stateMutability":"view","type":"function"},{"inputs":[{"internalType":"uint256","name":"","type":"uint256"}],"name":"users","outputs":[{"internalType":"string","name":"name","type":"string"},{"internalType":"string","name":"email","type":"string"},{"internalType":"string","name":"phone","type":"string"},{"internalType":"address","name":"wallet","type":"address"},{"internalType":"enum IMyPetBase.UserType","name":"userType","type":"uint8"},{"internalType":"uint256","name":"orgId","type":"uint256"},{"internalType":"bool","name":"isProfileSet","type":"bool"},{"internalType":"enum IMyPetBase.RoleType","name":"roleId","type":"uint8"},{"internalType":"uint256","name":"registeredAt","type":"uint256"},{"internalType":"string","name":"avatar","type":"string"}],"stateMutability":"view","type":"function"}],"evm":{"bytecode":{"linkReferences":{},"object":"60a0346100fb57601f6124bc38819003918201601f19168301916001600160401b03831184841017610100578084926020946040528339810103126100fb57516001600160a01b0381168082036100fb576001600255156100aa57608052600380546001600160a01b031916331790556040516123a5908161011782396080518181816105bc01528181610715015281816108260152818161088a015281816112bd01526117010152f35b60405162461bcd60e51b815260206004820152602360248201527f496e76616c696420696e737469747574696f6e206d616e61676572206164647260448201526265737360e81b6064820152608490fd5b600080fd5b634e487b7160e01b600052604160045260246000fdfe6080604052600436101561001257600080fd5b60003560e01c80630a86fdff1461195657806323b1ddc61461189e5780632640d5ea146116c75780632faba6ae146116a9578063365b98b2146115a15780634081db511461156757806342dd0779146107445780635c828f37146106ff5780636386c1c7146104cb578063c291fe62146103cf578063d5f39488146103a6578063ddb7a4de14610218578063e2842d7914610132578063eac50f6b146100ed5763f2658413146100c157600080fd5b346100e85760403660031901126100e8576100e66100dd611ab0565b602435906120d4565b005b600080fd5b346100e85760203660031901126100e857602061012861010b611ab0565b6001600160a01b0316600090815260208190526040902054151590565b6040519015158152f35b346100e85760003660031901126100e8576003546001600160a01b031633036101d4576001805461016281611ebc565b906101706040519283611d3a565b808252600083815260207fb10e2d527612073b26eecdfd717e6a320cf44b4afac2b0732d9fcbe2b7fa0cf68185015b8484106101b857604051806101b48882611b25565b0390f35b60098388926101c6856121fa565b81520192019301929061019f565b606460405162461bcd60e51b815260206004820152602060248201527f4f6e6c79206465706c6f7965722063616e207669657720616c6c2075736572736044820152fd5b346100e85760203660031901126100e857600435600481101590816100e8576003546001600160a01b03163303610355576001546000805b8281106103085750610261906122be565b9160009060005b83811061027d57604051806101b48782611b25565b8560ff600561028b84611c78565b50015460081c16906102f25760048110156102f25782146102b5575b6102b09061206b565b610268565b916102ea6102b0916102cf6102c986611c78565b506121fa565b6102d9828961235b565b526102e4818861235b565b5061206b565b9290506102a7565b634e487b7160e01b600052602160045260246000fd5b8460ff600561031684611c78565b50015460081c16906102f25760048110156102f2578414610340575b61033b9061206b565b610250565b9061034d61033b9161206b565b919050610332565b60405162461bcd60e51b8152602060048201526024808201527f4f6e6c79206465706c6f7965722063616e207669657720757365727320627920604482015263726f6c6560e01b6064820152608490fd5b346100e85760003660031901126100e8576003546040516001600160a01b039091168152602090f35b346100e85760403660031901126100e8576103e8611ab0565b6024359060048210156100e8576003546001600160a01b0391908216330361047a576001600160a01b03811660009081526020819052604090205461043390151561207a565b61207a565b16600052600060205260406000205490600019820191821161046457600561045d6100e693611c78565b500161204c565b634e487b7160e01b600052601160045260246000fd5b60405162461bcd60e51b815260206004820152602360248201527f4f6e6c79206465706c6f7965722063616e20757064617465207573657220726f6044820152626c657360e81b6064820152608490fd5b346100e85760203660031901126100e8576104e4611ab0565b6001600160a01b03811660009081526020819052604090205461050890151561207a565b6001600160a01b0390811660009081526020819052604090205460001981018181116104645761053790611c78565b509161054283611d5b565b9261054f60018201611d5b565b9061055c60028201611d5b565b60038201549060ff8260a01c16916004840154600585015493610586600860078801549701611d5b565b9761059082611b0e565b60018214806106f6575b156106dd57604051630418ed2160e21b815260048101849052946000866024817f000000000000000000000000000000000000000000000000000000000000000086165afa9586156106d1576000966106ac575b506040602087015196015161060281611b0e565b985b6040519c8d9c8d528c6101806020819201528d0161062191611ae9565b8c810360408e015261063291611ae9565b8b810360608d015261064391611ae9565b931660808a015261065381611b0e565b60a089015260c088015286810360e088015261066e91611ae9565b9261067881611b0e565b61010086015261012085019060081c60ff169061069491611b18565b6101408401528281036101608401526101b491611ae9565b6106ca9196503d806000833e6106c28183611d3a565b810190611ed3565b948c6105ee565b6040513d6000823e3d90fd5b6040516106e981611d1f565b6000815294600098610604565b5082151561059a565b346100e85760003660031901126100e8576040517f00000000000000000000000000000000000000000000000000000000000000006001600160a01b03168152602090f35b346100e85760c03660031901126100e8576004356001600160401b0381116100e857610774903690600401611e1c565b6024356001600160401b0381116100e857610793903690600401611e1c565b906044356001600160401b0381116100e8576107b3903690600401611e1c565b90600260643510156100e85760a4356001600160401b0381116100e8576107de903690600401611e1c565b3360009081526020819052604090205490929015906107fe606435611b0e565b6064356001036114fb576084358015611498576040516306eee7b360e41b81526020816004817f00000000000000000000000000000000000000000000000000000000000000006001600160a01b03165afa9081156106d157600091611466575b50811015611413576040516318078eb560e31b815260048101919091523360248201526020816044817f00000000000000000000000000000000000000000000000000000000000000006001600160a01b03165afa9081156106d1576000916113d8575b501561136d575b6003546001600160a01b0390339082160361128157506000915b15610e3c5760025433600052600060205260406000205560015494600160401b861015610be657600186018060015561091c87611c78565b505086116104645761093d6040519661093488611d1f565b60008852611c78565b50938051906001600160401b038211610be657819061095c8754611cc9565b601f8111610e0a575b50602090601f8311600114610d9e57600092610d93575b50508160011b916000199060031b1c19161784555b8051906001600160401b038211610be65781906109b16001870154611cc9565b601f8111610d5e575b50602090601f8311600114610cec57600092610ce1575b50508160011b916000199060031b1c19161760018401555b8051906001600160401b038211610be657610a076002850154611cc9565b601f8111610cac575b50602090601f8311600114610c3857610a8393929160009183610c2d575b50508160011b916000199060031b1c19161760028401555b6003830180546001600160a01b03191633178155610a679060643590612028565b608435600484015560058301805460ff1916600117815561204c565b825160068201936001600160401b038211610be657600160401b8211610be6576020908554838755808410610c10575b500193600052602060002060005b828110610bfc5750505060089192504260078201550181516001600160401b038111610be657610af18254611cc9565b601f8111610ba9575b50602092601f8211600114610b455792819293600092610b3a575b50508160011b916000199060031b1c19161790555b610b3560025461206b565b600255005b015190508380610b15565b601f198216938360005260206000209160005b868110610b915750836001959610610b78575b505050811b019055610b2a565b015160001960f88460031b161c19169055838080610b6b565b91926020600181928685015181550194019201610b58565b610bd690836000526020600020601f840160051c81019160208510610bdc575b601f0160051c0190612011565b83610afa565b9091508190610bc9565b634e487b7160e01b600052604160045260246000fd5b600190602087519701968184015501610ac1565b610c27908760005284846000209182019101612011565b86610ab3565b015190508780610a2e565b906002850160005260206000209160005b601f1985168110610c945750918391600193610a839695601f19811610610c7b575b505050811b016002840155610a46565b015160001960f88460031b161c19169055878080610c6b565b91926020600181928685015181550194019201610c49565b610cdb90600286016000526020600020601f850160051c81019160208610610bdc57601f0160051c0190612011565b86610a10565b0151905087806109d1565b9250600186016000526020600020906000935b601f1984168510610d43576001945083601f19811610610d2a575b505050811b0160018401556109e9565b015160001960f88460031b161c19169055878080610d1a565b81810151835560209485019460019093019290910190610cff565b610d8d90600188016000526020600020601f850160051c81019160208610610bdc57601f0160051c0190612011565b886109ba565b01519050888061097c565b9250866000526020600020906000935b601f1984168510610def576001945083601f19811610610dd6575b505050811b018455610991565b015160001960f88460031b161c19169055888080610dc9565b81810151835560209485019460019093019290910190610dae565b610e3690886000526020600020601f850160051c81019160208610610bdc57601f0160051c0190612011565b89610965565b93336000526000602052604060002054600019810190811161046457610e6190611c78565b50928051906001600160401b038211610be6578190610e808654611cc9565b601f811161124f575b50602090601f83116001146111e3576000926111d8575b50508160011b916000199060031b1c19161783555b8051906001600160401b038211610be6578190610ed56001860154611cc9565b601f81116111a3575b50602090601f831160011461113157600092611126575b50508160011b916000199060031b1c19161760018301555b83516001600160401b038111610be657610f2a6002840154611cc9565b601f81116110f1575b506020601f821160011461107b579080610f7b939260089697600092611070575b50508160011b916000199060031b1c19161760028401555b610a6760643560038501612028565b0181516001600160401b038111610be657610f968254611cc9565b601f811161103e575b50602092601f8211600114610fdd5792819293600092610fd2575b5050600019600383901b1c191660019190911b179055005b015190508380610fba565b601f198216938360005260206000209160005b868110611026575083600195961061100d575b505050811b019055005b015160001960f88460031b161c19169055838080611003565b91926020600181928685015181550194019201610ff0565b61106a90836000526020600020601f840160051c81019160208510610bdc57601f0160051c0190612011565b83610f9f565b015190508780610f54565b6002840160005260206000209560005b601f19841681106110d957509160089596600192610f7b959483601f198116106110c0575b505050811b016002840155610f6c565b015160001960f88460031b161c191690558780806110b0565b8282015188556001909701966020928301920161108b565b61112090600285016000526020600020601f840160051c81019160208510610bdc57601f0160051c0190612011565b85610f33565b015190508680610ef5565b9250600185016000526020600020906000935b601f1984168510611188576001945083601f1981161061116f575b505050811b016001830155610f0d565b015160001960f88460031b161c1916905586808061115f565b81810151835560209485019460019093019290910190611144565b6111d290600187016000526020600020601f850160051c81019160208610610bdc57601f0160051c0190612011565b87610ede565b015190508780610ea0565b9250856000526020600020906000935b601f1984168510611234576001945083601f1981161061121b575b505050811b018355610eb5565b015160001960f88460031b161c1916905587808061120e565b818101518355602094850194600190930192909101906111f3565b61127b90876000526020600020601f850160051c81019160208610610bdc57601f0160051c0190612011565b88610e89565b61128c606435611b0e565b60643560011480611362575b1561135957600060249160405192838092630418ed2160e21b825260843560048301527f0000000000000000000000000000000000000000000000000000000000000000165afa80156106d15760409160009161133e575b500180516112fd81611b0e565b61130681611b0e565b61131357506002916108e4565b6001905161132081611b0e565b61132981611b0e565b03611336576003916108e4565b6001916108e4565b61135391503d806000833e6106c28183611d3a565b876112f0565b506001916108e4565b506084351515611298565b60405162461bcd60e51b815260206004820152603760248201527f55736572206973206e6f742061207374616666206d656d626572206f6620746860448201527f652073706563696669656420696e737469747574696f6e0000000000000000006064820152608490fd5b90506020813d60201161140b575b816113f360209383611d3a565b810103126100e8575180151581036100e857866108c3565b3d91506113e6565b60405162461bcd60e51b815260206004820152602560248201527f4173736f63696174656420696e737469747574696f6e20646f6573206e6f7420604482015264195e1a5cdd60da1b6064820152608490fd5b90506020813d602011611490575b8161148160209383611d3a565b810103126100e857518761085f565b3d9150611474565b60405162461bcd60e51b815260206004820152603560248201527f496e737469747574696f6e616c2075736572206d757374206173736f6369617460448201527432903bb4ba341030b71034b739ba34ba3aba34b7b760591b6064820152608490fd5b608435156108ca5760405162461bcd60e51b815260206004820152603660248201527f506572736f6e616c20757365722073686f756c64206e6f74206173736f6369616044820152753a32903bb4ba341030b71034b739ba34ba3aba34b7b760511b6064820152608490fd5b346100e85760203660031901126100e8576001600160a01b03611588611ab0565b1660005260006020526020604060002054604051908152f35b346100e85760203660031901126100e8576004356001548110156100e8576115cb61163b91611c78565b506101b46115d882611d5b565b916115e560018201611d5b565b6115f160028301611d5b565b9161169560038201549360ff8560a01c16600484015490611657600586015493611649611625600860078a01549901611d5b565b986040519d8e9d8e610140908181520190611ae9565b8d810360208f015290611ae9565b908b820360408d0152611ae9565b6001600160a01b0390971660608a015261167081611b0e565b608089015260a088015260ff8116151560c088015260ff60e088019160081c16611b18565b610100850152838203610120850152611ae9565b346100e85760003660031901126100e8576020600254604051908152f35b346100e85760203660031901126100e857604051630418ed2160e21b815260048035908201819052906001600160a01b03906000816024817f000000000000000000000000000000000000000000000000000000000000000086165afa9081156106d1578291606091600091611883575b500151163314908115611875575b50156117f7576001546000805b8281106117bf5750611764906122be565b9160009060005b83811061178057604051806101b48782611b25565b81600461178c83611c78565b500154146117a3575b61179e9061206b565b61176b565b916117b761179e916102cf6102c986611c78565b929050611795565b8360046117cb83611c78565b500154146117e2575b6117dd9061206b565b611753565b906117ef6117dd9161206b565b9190506117d4565b60405162461bcd60e51b815260206004820152604a60248201527f4f6e6c7920696e737469747574696f6e20726573706f6e7369626c652070657260448201527f736f6e206f72206465706c6f7965722063616e207669657720696e737469747560648201526974696f6e20757365727360b01b608482015260a490fd5b905060035416331482611746565b61189891503d806000833e6106c28183611d3a565b85611738565b346100e8576020806003193601126100e8576118b8611ab0565b6001600160a01b0381166000908152602081905260409020546118dc90151561207a565b6001600160a01b031660009081528082526040902054600019810190811161046457600661190c61191392611c78565b50016121ab565b906040519181839283018184528251809152816040850193019160005b82811061193f57505050500390f35b835185528695509381019392810192600101611930565b346100e85760403660031901126100e85761196f611ab0565b602480359161199661042e8260018060a01b03166000526000602052604060002054151590565b6001600160a01b03166000908152602081905260409020546000199190828101908111611a9b57916119c88493611c78565b506006019060005b8254808210156100e65785906119e683866120bc565b929054600393841b1c14611a045750506119ff9061206b565b6119d0565b90955082819593949501908111611a865790611a33611a26611a4c93876120bc565b905490881b1c91866120bc565b90919082549060031b91821b91600019901b1916179055565b8254908115611a725750810192611a6384846120bc565b8154921b9290921b1916905555005b634e487b7160e01b60009081526031600452fd5b82634e487b7160e01b60005260116004526000fd5b50634e487b7160e01b60009081526011600452fd5b600435906001600160a01b03821682036100e857565b60005b838110611ad95750506000910152565b8181015183820152602001611ac9565b90602091611b0281518092818552858086019101611ac6565b601f01601f1916010190565b600211156102f257565b9060048210156102f25752565b602080820190808352835180925260409283810182858560051b84010196019460009081935b868510611b5d57505050505050505090565b9091929394959697603f1982820301855286895191611bab611b9b611b8b8551610160808652850190611ae9565b8486015184820386860152611ae9565b8685015183820388850152611ae9565b6060848101516001600160a01b03169083015260808085015191929190611bd182611b0e565b82015260a0808501519082015260c080850151151590820152611bfc60e08086015190830190611b18565b6101009182850151928282039083015283808451928381520193019088905b808210611c5e575050508291600194611c4c9261012080830151908201526101408092015191818403910152611ae9565b9a019501950193969594929190611b4b565b825185528c95948501949092019160019190910190611c1b565b600154811015611cb3576009906001600052027fb10e2d527612073b26eecdfd717e6a320cf44b4afac2b0732d9fcbe2b7fa0cf60190600090565b634e487b7160e01b600052603260045260246000fd5b90600182811c92168015611cf9575b6020831014611ce357565b634e487b7160e01b600052602260045260246000fd5b91607f1691611cd8565b61016081019081106001600160401b03821117610be657604052565b602081019081106001600160401b03821117610be657604052565b90601f801991011681019081106001600160401b03821117610be657604052565b9060405191826000825492611d6f84611cc9565b908184526001948581169081600014611dde5750600114611d9b575b5050611d9992500383611d3a565b565b9093915060005260209081600020936000915b818310611dc6575050611d9993508201013880611d8b565b85548884018501529485019487945091830191611dae565b915050611d9994506020925060ff191682840152151560051b8201013880611d8b565b6001600160401b038111610be657601f01601f191660200190565b81601f820112156100e857803590611e3382611e01565b92611e416040519485611d3a565b828452602083830101116100e857816000926020809301838601378301015290565b81601f820112156100e8578051611e7981611e01565b92611e876040519485611d3a565b818452602082840101116100e857611ea59160208085019101611ac6565b90565b51906001600160a01b03821682036100e857565b6001600160401b038111610be65760051b60200190565b60209182828203126100e85781516001600160401b03928382116100e85701916101009384848403126100e85760405194850185811083821117610be65760405283518552808401518281116100e85783611f2f918601611e63565b81860152604084015160028110156100e8576040860152611f5260608501611ea8565b606086015260808401518281116100e85784019083601f830112156100e857815191611f7d83611ebc565b92611f8b6040519485611d3a565b808452828085019160051b830101918683116100e8578301905b828210611ffa5750505050608085015260a083015160a085015260c08301518181116100e85782611fd7918501611e63565b60c085015260e08301519081116100e857611ff29201611e63565b60e082015290565b83809161200684611ea8565b815201910190611fa5565b81811061201c575050565b60008155600101612011565b9061203281611b0e565b815460ff60a01b191660a09190911b60ff60a01b16179055565b9060048110156102f25761ff0082549160081b169061ff001916179055565b60001981146104645760010190565b1561208157565b60405162461bcd60e51b8152602060048201526013602482015272155cd95c881b9bdd081c9959da5cdd195c9959606a1b6044820152606490fd5b8054821015611cb35760005260206000200190600090565b6001600160a01b0381166000908152602081905260409020546120f890151561207a565b6001600160a01b031660009081526020819052604081205460001981019081116121975761212590611c78565b50600601805491805b83811061216b5750600160401b831015612157575081611a33916001611d9995940181556120bc565b634e487b7160e01b81526041600452602490fd5b8461217682856120bc565b90549060031b1c146121905761218b9061206b565b61212e565b5050505050565b634e487b7160e01b82526011600452602482fd5b9060405191828154918282526020928383019160005283600020936000905b8282106121e057505050611d9992500383611d3a565b8554845260019586019588955093810193909101906121ca565b9060405161220781611d03565b809261221281611d5b565b825261222060018201611d5b565b602083015261223160028201611d5b565b604083015260038101546001600160a01b038116606084015260a01c60ff1661225981611b0e565b6080830152600481015460a083015260ff6005820154818116151560c085015260081c169060048210156102f25760086122b9916101409360e08601526122a2600682016121ab565b610100860152600781015461012086015201611d5b565b910152565b906122c882611ebc565b6040906122d782519182611d3a565b83815280936122e8601f1991611ebc565b019160005b8381106122fa5750505050565b602090825161230881611d03565b606080825283908082840152808684015260008184015260006080840152600060a0840152600060c0840152600060e08401528061010084015260006101208401526101408301528286010152016122ed565b8051821015611cb35760209160051b01019056fea26469706673582212208f11352be1451a9d64ba4e50f7b646044fcbd8c1bfca61357ea3fde67ce78d1a64736f6c63430008130033","opcodes":"PUSH1 0xA0 CALLVALUE PUSH2 0xFB JUMPI PUSH1 0x1F PUSH2 0x24BC CODESIZE DUP2 SWAP1 SUB SWAP2 DUP3 ADD PUSH1 0x1F NOT AND DUP4 ADD SWAP2 PUSH1 0x1 PUSH1 0x1 PUSH1 0x40 SHL SUB DUP4 GT DUP5 DUP5 LT OR PUSH2 0x100 JUMPI DUP1 DUP5 SWAP3 PUSH1 0x20 SWAP5 PUSH1 0x40 MSTORE DUP4 CODECOPY DUP2 ADD SUB SLT PUSH2 0xFB JUMPI MLOAD PUSH1 0x1 PUSH1 0x1 PUSH1 0xA0 SHL SUB DUP2 AND DUP1 DUP3 SUB PUSH2 0xFB JUMPI PUSH1 0x1 PUSH1 0x2 SSTORE ISZERO PUSH2 0xAA JUMPI PUSH1 0x80 MSTORE PUSH1 0x3 DUP1 SLOAD PUSH1 0x1 PUSH1 0x1 PUSH1 0xA0 SHL SUB NOT AND CALLER OR SWAP1 SSTORE PUSH1 0x40 MLOAD PUSH2 0x23A5 SWAP1 DUP2 PUSH2 0x117 DUP3 CODECOPY PUSH1 0x80 MLOAD DUP2 DUP2 DUP2 PUSH2 0x5BC ADD MSTORE DUP2 DUP2 PUSH2 0x715 ADD MSTORE DUP2 DUP2 PUSH2 0x826 ADD MSTORE DUP2 DUP2 PUSH2 0x88A ADD MSTORE DUP2 DUP2 PUSH2 0x12BD ADD MSTORE PUSH2 0x1701 ADD MSTORE RETURN JUMPDEST PUSH1 0x40 MLOAD PUSH3 0x461BCD PUSH1 0xE5 SHL DUP2 MSTORE PUSH1 0x20 PUSH1 0x4 DUP3 ADD MSTORE PUSH1 0x23 PUSH1 0x24 DUP3 ADD MSTORE PUSH32 0x496E76616C696420696E737469747574696F6E206D616E616765722061646472 PUSH1 0x44 DUP3 ADD MSTORE PUSH3 0x657373 PUSH1 0xE8 SHL PUSH1 0x64 DUP3 ADD MSTORE PUSH1 0x84 SWAP1 REVERT JUMPDEST PUSH1 0x0 DUP1 REVERT JUMPDEST PUSH4 0x4E487B71 PUSH1 0xE0 SHL PUSH1 0x0 MSTORE PUSH1 0x41 PUSH1 0x4 MSTORE PUSH1 0x24 PUSH1 0x0 REVERT INVALID PUSH1 0x80 PUSH1 0x40 MSTORE PUSH1 0x4 CALLDATASIZE LT ISZERO PUSH2 0x12 JUMPI PUSH1 0x0 DUP1 REVERT JUMPDEST PUSH1 0x0 CALLDATALOAD PUSH1 0xE0 SHR DUP1 PUSH4 0xA86FDFF EQ PUSH2 0x1956 JUMPI DUP1 PUSH4 0x23B1DDC6 EQ PUSH2 0x189E JUMPI DUP1 PUSH4 0x2640D5EA EQ PUSH2 0x16C7 JUMPI DUP1 PUSH4 0x2FABA6AE EQ PUSH2 0x16A9 JUMPI DUP1 PUSH4 0x365B98B2 EQ PUSH2 0x15A1 JUMPI DUP1 PUSH4 0x4081DB51 EQ PUSH2 0x1567 JUMPI DUP1 PUSH4 0x42DD0779 EQ PUSH2 0x744 JUMPI DUP1 PUSH4 0x5C828F37 EQ PUSH2 0x6FF JUMPI DUP1 PUSH4 0x6386C1C7 EQ PUSH2 0x4CB JUMPI DUP1 PUSH4 0xC291FE62 EQ PUSH2 0x3CF JUMPI DUP1 PUSH4 0xD5F39488 EQ PUSH2 0x3A6 JUMPI DUP1 PUSH4 0xDDB7A4DE EQ PUSH2 0x218 JUMPI DUP1 PUSH4 0xE2842D79 EQ PUSH2 0x132 JUMPI DUP1 PUSH4 0xEAC50F6B EQ PUSH2 0xED JUMPI PUSH4 0xF2658413 EQ PUSH2 0xC1 JUMPI PUSH1 0x0 DUP1 REVERT JUMPDEST CALLVALUE PUSH2 0xE8 JUMPI PUSH1 0x40 CALLDATASIZE PUSH1 0x3 NOT ADD SLT PUSH2 0xE8 JUMPI PUSH2 0xE6 PUSH2 0xDD PUSH2 0x1AB0 JUMP JUMPDEST PUSH1 0x24 CALLDATALOAD SWAP1 PUSH2 0x20D4 JUMP JUMPDEST STOP JUMPDEST PUSH1 0x0 DUP1 REVERT JUMPDEST CALLVALUE PUSH2 0xE8 JUMPI PUSH1 0x20 CALLDATASIZE PUSH1 0x3 NOT ADD SLT PUSH2 0xE8 JUMPI PUSH1 0x20 PUSH2 0x128 PUSH2 0x10B PUSH2 0x1AB0 JUMP JUMPDEST PUSH1 0x1 PUSH1 0x1 PUSH1 0xA0 SHL SUB AND PUSH1 0x0 SWAP1 DUP2 MSTORE PUSH1 0x20 DUP2 SWAP1 MSTORE PUSH1 0x40 SWAP1 KECCAK256 SLOAD ISZERO ISZERO SWAP1 JUMP JUMPDEST PUSH1 0x40 MLOAD SWAP1 ISZERO ISZERO DUP2 MSTORE RETURN JUMPDEST CALLVALUE PUSH2 0xE8 JUMPI PUSH1 0x0 CALLDATASIZE PUSH1 0x3 NOT ADD SLT PUSH2 0xE8 JUMPI PUSH1 0x3 SLOAD PUSH1 0x1 PUSH1 0x1 PUSH1 0xA0 SHL SUB AND CALLER SUB PUSH2 0x1D4 JUMPI PUSH1 0x1 DUP1 SLOAD PUSH2 0x162 DUP2 PUSH2 0x1EBC JUMP JUMPDEST SWAP1 PUSH2 0x170 PUSH1 0x40 MLOAD SWAP3 DUP4 PUSH2 0x1D3A JUMP JUMPDEST DUP1 DUP3 MSTORE PUSH1 0x0 DUP4 DUP2 MSTORE PUSH1 0x20 PUSH32 0xB10E2D527612073B26EECDFD717E6A320CF44B4AFAC2B0732D9FCBE2B7FA0CF6 DUP2 DUP6 ADD JUMPDEST DUP5 DUP5 LT PUSH2 0x1B8 JUMPI PUSH1 0x40 MLOAD DUP1 PUSH2 0x1B4 DUP9 DUP3 PUSH2 0x1B25 JUMP JUMPDEST SUB SWAP1 RETURN JUMPDEST PUSH1 0x9 DUP4 DUP9 SWAP3 PUSH2 0x1C6 DUP6 PUSH2 0x21FA JUMP JUMPDEST DUP2 MSTORE ADD SWAP3 ADD SWAP4 ADD SWAP3 SWAP1 PUSH2 0x19F JUMP JUMPDEST PUSH1 0x64 PUSH1 0x40 MLOAD PUSH3 0x461BCD PUSH1 0xE5 SHL DUP2 MSTORE PUSH1 0x20 PUSH1 0x4 DUP3 ADD MSTORE PUSH1 0x20 PUSH1 0x24 DUP3 ADD MSTORE PUSH32 0x4F6E6C79206465706C6F7965722063616E207669657720616C6C207573657273 PUSH1 0x44 DUP3 ADD MSTORE REVERT JUMPDEST CALLVALUE PUSH2 0xE8 JUMPI PUSH1 0x20 CALLDATASIZE PUSH1 0x3 NOT ADD SLT PUSH2 0xE8 JUMPI PUSH1 0x4 CALLDATALOAD PUSH1 0x4 DUP2 LT ISZERO SWAP1 DUP2 PUSH2 0xE8 JUMPI PUSH1 0x3 SLOAD PUSH1 0x1 PUSH1 0x1 PUSH1 0xA0 SHL SUB AND CALLER SUB PUSH2 0x355 JUMPI PUSH1 0x1 SLOAD PUSH1 0x0 DUP1 JUMPDEST DUP3 DUP2 LT PUSH2 0x308 JUMPI POP PUSH2 0x261 SWAP1 PUSH2 0x22BE JUMP JUMPDEST SWAP2 PUSH1 0x0 SWAP1 PUSH1 0x0 JUMPDEST DUP4 DUP2 LT PUSH2 0x27D JUMPI PUSH1 0x40 MLOAD DUP1 PUSH2 0x1B4 DUP8 DUP3 PUSH2 0x1B25 JUMP JUMPDEST DUP6 PUSH1 0xFF PUSH1 0x5 PUSH2 0x28B DUP5 PUSH2 0x1C78 JUMP JUMPDEST POP ADD SLOAD PUSH1 0x8 SHR AND SWAP1 PUSH2 0x2F2 JUMPI PUSH1 0x4 DUP2 LT ISZERO PUSH2 0x2F2 JUMPI DUP3 EQ PUSH2 0x2B5 JUMPI JUMPDEST PUSH2 0x2B0 SWAP1 PUSH2 0x206B JUMP JUMPDEST PUSH2 0x268 JUMP JUMPDEST SWAP2 PUSH2 0x2EA PUSH2 0x2B0 SWAP2 PUSH2 0x2CF PUSH2 0x2C9 DUP7 PUSH2 0x1C78 JUMP JUMPDEST POP PUSH2 0x21FA JUMP JUMPDEST PUSH2 0x2D9 DUP3 DUP10 PUSH2 0x235B JUMP JUMPDEST MSTORE PUSH2 0x2E4 DUP2 DUP9 PUSH2 0x235B JUMP JUMPDEST POP PUSH2 0x206B JUMP JUMPDEST SWAP3 SWAP1 POP PUSH2 0x2A7 JUMP JUMPDEST PUSH4 0x4E487B71 PUSH1 0xE0 SHL PUSH1 0x0 MSTORE PUSH1 0x21 PUSH1 0x4 MSTORE PUSH1 0x24 PUSH1 0x0 REVERT JUMPDEST DUP5 PUSH1 0xFF PUSH1 0x5 PUSH2 0x316 DUP5 PUSH2 0x1C78 JUMP JUMPDEST POP ADD SLOAD PUSH1 0x8 SHR AND SWAP1 PUSH2 0x2F2 JUMPI PUSH1 0x4 DUP2 LT ISZERO PUSH2 0x2F2 JUMPI DUP5 EQ PUSH2 0x340 JUMPI JUMPDEST PUSH2 0x33B SWAP1 PUSH2 0x206B JUMP JUMPDEST PUSH2 0x250 JUMP JUMPDEST SWAP1 PUSH2 0x34D PUSH2 0x33B SWAP2 PUSH2 0x206B JUMP JUMPDEST SWAP2 SWAP1 POP PUSH2 0x332 JUMP JUMPDEST PUSH1 0x40 MLOAD PUSH3 0x461BCD PUSH1 0xE5 SHL DUP2 MSTORE PUSH1 0x20 PUSH1 0x4 DUP3 ADD MSTORE PUSH1 0x24 DUP1 DUP3 ADD MSTORE PUSH32 0x4F6E6C79206465706C6F7965722063616E207669657720757365727320627920 PUSH1 0x44 DUP3 ADD MSTORE PUSH4 0x726F6C65 PUSH1 0xE0 SHL PUSH1 0x64 DUP3 ADD MSTORE PUSH1 0x84 SWAP1 REVERT JUMPDEST CALLVALUE PUSH2 0xE8 JUMPI PUSH1 0x0 CALLDATASIZE PUSH1 0x3 NOT ADD SLT PUSH2 0xE8 JUMPI PUSH1 0x3 SLOAD PUSH1 0x40 MLOAD PUSH1 0x1 PUSH1 0x1 PUSH1 0xA0 SHL SUB SWAP1 SWAP2 AND DUP2 MSTORE PUSH1 0x20 SWAP1 RETURN JUMPDEST CALLVALUE PUSH2 0xE8 JUMPI PUSH1 0x40 CALLDATASIZE PUSH1 0x3 NOT ADD SLT PUSH2 0xE8 JUMPI PUSH2 0x3E8 PUSH2 0x1AB0 JUMP JUMPDEST PUSH1 0x24 CALLDATALOAD SWAP1 PUSH1 0x4 DUP3 LT ISZERO PUSH2 0xE8 JUMPI PUSH1 0x3 SLOAD PUSH1 0x1 PUSH1 0x1 PUSH1 0xA0 SHL SUB SWAP2 SWAP1 DUP3 AND CALLER SUB PUSH2 0x47A JUMPI PUSH1 0x1 PUSH1 0x1 PUSH1 0xA0 SHL SUB DUP2 AND PUSH1 0x0 SWAP1 DUP2 MSTORE PUSH1 0x20 DUP2 SWAP1 MSTORE PUSH1 0x40 SWAP1 KECCAK256 SLOAD PUSH2 0x433 SWAP1 ISZERO ISZERO PUSH2 0x207A JUMP JUMPDEST PUSH2 0x207A JUMP JUMPDEST AND PUSH1 0x0 MSTORE PUSH1 0x0 PUSH1 0x20 MSTORE PUSH1 0x40 PUSH1 0x0 KECCAK256 SLOAD SWAP1 PUSH1 0x0 NOT DUP3 ADD SWAP2 DUP3 GT PUSH2 0x464 JUMPI PUSH1 0x5 PUSH2 0x45D PUSH2 0xE6 SWAP4 PUSH2 0x1C78 JUMP JUMPDEST POP ADD PUSH2 0x204C JUMP JUMPDEST PUSH4 0x4E487B71 PUSH1 0xE0 SHL PUSH1 0x0 MSTORE PUSH1 0x11 PUSH1 0x4 MSTORE PUSH1 0x24 PUSH1 0x0 REVERT JUMPDEST PUSH1 0x40 MLOAD PUSH3 0x461BCD PUSH1 0xE5 SHL DUP2 MSTORE PUSH1 0x20 PUSH1 0x4 DUP3 ADD MSTORE PUSH1 0x23 PUSH1 0x24 DUP3 ADD MSTORE PUSH32 0x4F6E6C79206465706C6F7965722063616E20757064617465207573657220726F PUSH1 0x44 DUP3 ADD MSTORE PUSH3 0x6C6573 PUSH1 0xE8 SHL PUSH1 0x64 DUP3 ADD MSTORE PUSH1 0x84 SWAP1 REVERT JUMPDEST CALLVALUE PUSH2 0xE8 JUMPI PUSH1 0x20 CALLDATASIZE PUSH1 0x3 NOT ADD SLT PUSH2 0xE8 JUMPI PUSH2 0x4E4 PUSH2 0x1AB0 JUMP JUMPDEST PUSH1 0x1 PUSH1 0x1 PUSH1 0xA0 SHL SUB DUP2 AND PUSH1 0x0 SWAP1 DUP2 MSTORE PUSH1 0x20 DUP2 SWAP1 MSTORE PUSH1 0x40 SWAP1 KECCAK256 SLOAD PUSH2 0x508 SWAP1 ISZERO ISZERO PUSH2 0x207A JUMP JUMPDEST PUSH1 0x1 PUSH1 0x1 PUSH1 0xA0 SHL SUB SWAP1 DUP2 AND PUSH1 0x0 SWAP1 DUP2 MSTORE PUSH1 0x20 DUP2 SWAP1 MSTORE PUSH1 0x40 SWAP1 KECCAK256 SLOAD PUSH1 0x0 NOT DUP2 ADD DUP2 DUP2 GT PUSH2 0x464 JUMPI PUSH2 0x537 SWAP1 PUSH2 0x1C78 JUMP JUMPDEST POP SWAP2 PUSH2 0x542 DUP4 PUSH2 0x1D5B JUMP JUMPDEST SWAP3 PUSH2 0x54F PUSH1 0x1 DUP3 ADD PUSH2 0x1D5B JUMP JUMPDEST SWAP1 PUSH2 0x55C PUSH1 0x2 DUP3 ADD PUSH2 0x1D5B JUMP JUMPDEST PUSH1 0x3 DUP3 ADD SLOAD SWAP1 PUSH1 0xFF DUP3 PUSH1 0xA0 SHR AND SWAP2 PUSH1 0x4 DUP5 ADD SLOAD PUSH1 0x5 DUP6 ADD SLOAD SWAP4 PUSH2 0x586 PUSH1 0x8 PUSH1 0x7 DUP9 ADD SLOAD SWAP8 ADD PUSH2 0x1D5B JUMP JUMPDEST SWAP8 PUSH2 0x590 DUP3 PUSH2 0x1B0E JUMP JUMPDEST PUSH1 0x1 DUP3 EQ DUP1 PUSH2 0x6F6 JUMPI JUMPDEST ISZERO PUSH2 0x6DD JUMPI PUSH1 0x40 MLOAD PUSH4 0x418ED21 PUSH1 0xE2 SHL DUP2 MSTORE PUSH1 0x4 DUP2 ADD DUP5 SWAP1 MSTORE SWAP5 PUSH1 0x0 DUP7 PUSH1 0x24 DUP2 PUSH32 0x0 DUP7 AND GAS STATICCALL SWAP6 DUP7 ISZERO PUSH2 0x6D1 JUMPI PUSH1 0x0 SWAP7 PUSH2 0x6AC JUMPI JUMPDEST POP PUSH1 0x40 PUSH1 0x20 DUP8 ADD MLOAD SWAP7 ADD MLOAD PUSH2 0x602 DUP2 PUSH2 0x1B0E JUMP JUMPDEST SWAP9 JUMPDEST PUSH1 0x40 MLOAD SWAP13 DUP14 SWAP13 DUP14 MSTORE DUP13 PUSH2 0x180 PUSH1 0x20 DUP2 SWAP3 ADD MSTORE DUP14 ADD PUSH2 0x621 SWAP2 PUSH2 0x1AE9 JUMP JUMPDEST DUP13 DUP2 SUB PUSH1 0x40 DUP15 ADD MSTORE PUSH2 0x632 SWAP2 PUSH2 0x1AE9 JUMP JUMPDEST DUP12 DUP2 SUB PUSH1 0x60 DUP14 ADD MSTORE PUSH2 0x643 SWAP2 PUSH2 0x1AE9 JUMP JUMPDEST SWAP4 AND PUSH1 0x80 DUP11 ADD MSTORE PUSH2 0x653 DUP2 PUSH2 0x1B0E JUMP JUMPDEST PUSH1 0xA0 DUP10 ADD MSTORE PUSH1 0xC0 DUP9 ADD MSTORE DUP7 DUP2 SUB PUSH1 0xE0 DUP9 ADD MSTORE PUSH2 0x66E SWAP2 PUSH2 0x1AE9 JUMP JUMPDEST SWAP3 PUSH2 0x678 DUP2 PUSH2 0x1B0E JUMP JUMPDEST PUSH2 0x100 DUP7 ADD MSTORE PUSH2 0x120 DUP6 ADD SWAP1 PUSH1 0x8 SHR PUSH1 0xFF AND SWAP1 PUSH2 0x694 SWAP2 PUSH2 0x1B18 JUMP JUMPDEST PUSH2 0x140 DUP5 ADD MSTORE DUP3 DUP2 SUB PUSH2 0x160 DUP5 ADD MSTORE PUSH2 0x1B4 SWAP2 PUSH2 0x1AE9 JUMP JUMPDEST PUSH2 0x6CA SWAP2 SWAP7 POP RETURNDATASIZE DUP1 PUSH1 0x0 DUP4 RETURNDATACOPY PUSH2 0x6C2 DUP2 DUP4 PUSH2 0x1D3A JUMP JUMPDEST DUP2 ADD SWAP1 PUSH2 0x1ED3 JUMP JUMPDEST SWAP5 DUP13 PUSH2 0x5EE JUMP JUMPDEST PUSH1 0x40 MLOAD RETURNDATASIZE PUSH1 0x0 DUP3 RETURNDATACOPY RETURNDATASIZE SWAP1 REVERT JUMPDEST PUSH1 0x40 MLOAD PUSH2 0x6E9 DUP2 PUSH2 0x1D1F JUMP JUMPDEST PUSH1 0x0 DUP2 MSTORE SWAP5 PUSH1 0x0 SWAP9 PUSH2 0x604 JUMP JUMPDEST POP DUP3 ISZERO ISZERO PUSH2 0x59A JUMP JUMPDEST CALLVALUE PUSH2 0xE8 JUMPI PUSH1 0x0 CALLDATASIZE PUSH1 0x3 NOT ADD SLT PUSH2 0xE8 JUMPI PUSH1 0x40 MLOAD PUSH32 0x0 PUSH1 0x1 PUSH1 0x1 PUSH1 0xA0 SHL SUB AND DUP2 MSTORE PUSH1 0x20 SWAP1 RETURN JUMPDEST CALLVALUE PUSH2 0xE8 JUMPI PUSH1 0xC0 CALLDATASIZE PUSH1 0x3 NOT ADD SLT PUSH2 0xE8 JUMPI PUSH1 0x4 CALLDATALOAD PUSH1 0x1 PUSH1 0x1 PUSH1 0x40 SHL SUB DUP2 GT PUSH2 0xE8 JUMPI PUSH2 0x774 SWAP1 CALLDATASIZE SWAP1 PUSH1 0x4 ADD PUSH2 0x1E1C JUMP JUMPDEST PUSH1 0x24 CALLDATALOAD PUSH1 0x1 PUSH1 0x1 PUSH1 0x40 SHL SUB DUP2 GT PUSH2 0xE8 JUMPI PUSH2 0x793 SWAP1 CALLDATASIZE SWAP1 PUSH1 0x4 ADD PUSH2 0x1E1C JUMP JUMPDEST SWAP1 PUSH1 0x44 CALLDATALOAD PUSH1 0x1 PUSH1 0x1 PUSH1 0x40 SHL SUB DUP2 GT PUSH2 0xE8 JUMPI PUSH2 0x7B3 SWAP1 CALLDATASIZE SWAP1 PUSH1 0x4 ADD PUSH2 0x1E1C JUMP JUMPDEST SWAP1 PUSH1 0x2 PUSH1 0x64 CALLDATALOAD LT ISZERO PUSH2 0xE8 JUMPI PUSH1 0xA4 CALLDATALOAD PUSH1 0x1 PUSH1 0x1 PUSH1 0x40 SHL SUB DUP2 GT PUSH2 0xE8 JUMPI PUSH2 0x7DE SWAP1 CALLDATASIZE SWAP1 PUSH1 0x4 ADD PUSH2 0x1E1C JUMP JUMPDEST CALLER PUSH1 0x0 SWAP1 DUP2 MSTORE PUSH1 0x20 DUP2 SWAP1 MSTORE PUSH1 0x40 SWAP1 KECCAK256 SLOAD SWAP1 SWAP3 SWAP1 ISZERO SWAP1 PUSH2 0x7FE PUSH1 0x64 CALLDATALOAD PUSH2 0x1B0E JUMP JUMPDEST PUSH1 0x64 CALLDATALOAD PUSH1 0x1 SUB PUSH2 0x14FB JUMPI PUSH1 0x84 CALLDATALOAD DUP1 ISZERO PUSH2 0x1498 JUMPI PUSH1 0x40 MLOAD PUSH4 0x6EEE7B3 PUSH1 0xE4 SHL DUP2 MSTORE PUSH1 0x20 DUP2 PUSH1 0x4 DUP2 PUSH32 0x0 PUSH1 0x1 PUSH1 0x1 PUSH1 0xA0 SHL SUB AND GAS STATICCALL SWAP1 DUP2 ISZERO PUSH2 0x6D1 JUMPI PUSH1 0x0 SWAP2 PUSH2 0x1466 JUMPI JUMPDEST POP DUP2 LT ISZERO PUSH2 0x1413 JUMPI PUSH1 0x40 MLOAD PUSH4 0x18078EB5 PUSH1 0xE3 SHL DUP2 MSTORE PUSH1 0x4 DUP2 ADD SWAP2 SWAP1 SWAP2 MSTORE CALLER PUSH1 0x24 DUP3 ADD MSTORE PUSH1 0x20 DUP2 PUSH1 0x44 DUP2 PUSH32 0x0 PUSH1 0x1 PUSH1 0x1 PUSH1 0xA0 SHL SUB AND GAS STATICCALL SWAP1 DUP2 ISZERO PUSH2 0x6D1 JUMPI PUSH1 0x0 SWAP2 PUSH2 0x13D8 JUMPI JUMPDEST POP ISZERO PUSH2 0x136D JUMPI JUMPDEST PUSH1 0x3 SLOAD PUSH1 0x1 PUSH1 0x1 PUSH1 0xA0 SHL SUB SWAP1 CALLER SWAP1 DUP3 AND SUB PUSH2 0x1281 JUMPI POP PUSH1 0x0 SWAP2 JUMPDEST ISZERO PUSH2 0xE3C JUMPI PUSH1 0x2 SLOAD CALLER PUSH1 0x0 MSTORE PUSH1 0x0 PUSH1 0x20 MSTORE PUSH1 0x40 PUSH1 0x0 KECCAK256 SSTORE PUSH1 0x1 SLOAD SWAP5 PUSH1 0x1 PUSH1 0x40 SHL DUP7 LT ISZERO PUSH2 0xBE6 JUMPI PUSH1 0x1 DUP7 ADD DUP1 PUSH1 0x1 SSTORE PUSH2 0x91C DUP8 PUSH2 0x1C78 JUMP JUMPDEST POP POP DUP7 GT PUSH2 0x464 JUMPI PUSH2 0x93D PUSH1 0x40 MLOAD SWAP7 PUSH2 0x934 DUP9 PUSH2 0x1D1F JUMP JUMPDEST PUSH1 0x0 DUP9 MSTORE PUSH2 0x1C78 JUMP JUMPDEST POP SWAP4 DUP1 MLOAD SWAP1 PUSH1 0x1 PUSH1 0x1 PUSH1 0x40 SHL SUB DUP3 GT PUSH2 0xBE6 JUMPI DUP2 SWAP1 PUSH2 0x95C DUP8 SLOAD PUSH2 0x1CC9 JUMP JUMPDEST PUSH1 0x1F DUP2 GT PUSH2 0xE0A JUMPI JUMPDEST POP PUSH1 0x20 SWAP1 PUSH1 0x1F DUP4 GT PUSH1 0x1 EQ PUSH2 0xD9E JUMPI PUSH1 0x0 SWAP3 PUSH2 0xD93 JUMPI JUMPDEST POP POP DUP2 PUSH1 0x1 SHL SWAP2 PUSH1 0x0 NOT SWAP1 PUSH1 0x3 SHL SHR NOT AND OR DUP5 SSTORE JUMPDEST DUP1 MLOAD SWAP1 PUSH1 0x1 PUSH1 0x1 PUSH1 0x40 SHL SUB DUP3 GT PUSH2 0xBE6 JUMPI DUP2 SWAP1 PUSH2 0x9B1 PUSH1 0x1 DUP8 ADD SLOAD PUSH2 0x1CC9 JUMP JUMPDEST PUSH1 0x1F DUP2 GT PUSH2 0xD5E JUMPI JUMPDEST POP PUSH1 0x20 SWAP1 PUSH1 0x1F DUP4 GT PUSH1 0x1 EQ PUSH2 0xCEC JUMPI PUSH1 0x0 SWAP3 PUSH2 0xCE1 JUMPI JUMPDEST POP POP DUP2 PUSH1 0x1 SHL SWAP2 PUSH1 0x0 NOT SWAP1 PUSH1 0x3 SHL SHR NOT AND OR PUSH1 0x1 DUP5 ADD SSTORE JUMPDEST DUP1 MLOAD SWAP1 PUSH1 0x1 PUSH1 0x1 PUSH1 0x40 SHL SUB DUP3 GT PUSH2 0xBE6 JUMPI PUSH2 0xA07 PUSH1 0x2 DUP6 ADD SLOAD PUSH2 0x1CC9 JUMP JUMPDEST PUSH1 0x1F DUP2 GT PUSH2 0xCAC JUMPI JUMPDEST POP PUSH1 0x20 SWAP1 PUSH1 0x1F DUP4 GT PUSH1 0x1 EQ PUSH2 0xC38 JUMPI PUSH2 0xA83 SWAP4 SWAP3 SWAP2 PUSH1 0x0 SWAP2 DUP4 PUSH2 0xC2D JUMPI JUMPDEST POP POP DUP2 PUSH1 0x1 SHL SWAP2 PUSH1 0x0 NOT SWAP1 PUSH1 0x3 SHL SHR NOT AND OR PUSH1 0x2 DUP5 ADD SSTORE JUMPDEST PUSH1 0x3 DUP4 ADD DUP1 SLOAD PUSH1 0x1 PUSH1 0x1 PUSH1 0xA0 SHL SUB NOT AND CALLER OR DUP2 SSTORE PUSH2 0xA67 SWAP1 PUSH1 0x64 CALLDATALOAD SWAP1 PUSH2 0x2028 JUMP JUMPDEST PUSH1 0x84 CALLDATALOAD PUSH1 0x4 DUP5 ADD SSTORE PUSH1 0x5 DUP4 ADD DUP1 SLOAD PUSH1 0xFF NOT AND PUSH1 0x1 OR DUP2 SSTORE PUSH2 0x204C JUMP JUMPDEST DUP3 MLOAD PUSH1 0x6 DUP3 ADD SWAP4 PUSH1 0x1 PUSH1 0x1 PUSH1 0x40 SHL SUB DUP3 GT PUSH2 0xBE6 JUMPI PUSH1 0x1 PUSH1 0x40 SHL DUP3 GT PUSH2 0xBE6 JUMPI PUSH1 0x20 SWAP1 DUP6 SLOAD DUP4 DUP8 SSTORE DUP1 DUP5 LT PUSH2 0xC10 JUMPI JUMPDEST POP ADD SWAP4 PUSH1 0x0 MSTORE PUSH1 0x20 PUSH1 0x0 KECCAK256 PUSH1 0x0 JUMPDEST DUP3 DUP2 LT PUSH2 0xBFC JUMPI POP POP POP PUSH1 0x8 SWAP2 SWAP3 POP TIMESTAMP PUSH1 0x7 DUP3 ADD SSTORE ADD DUP2 MLOAD PUSH1 0x1 PUSH1 0x1 PUSH1 0x40 SHL SUB DUP2 GT PUSH2 0xBE6 JUMPI PUSH2 0xAF1 DUP3 SLOAD PUSH2 0x1CC9 JUMP JUMPDEST PUSH1 0x1F DUP2 GT PUSH2 0xBA9 JUMPI JUMPDEST POP PUSH1 0x20 SWAP3 PUSH1 0x1F DUP3 GT PUSH1 0x1 EQ PUSH2 0xB45 JUMPI SWAP3 DUP2 SWAP3 SWAP4 PUSH1 0x0 SWAP3 PUSH2 0xB3A JUMPI JUMPDEST POP POP DUP2 PUSH1 0x1 SHL SWAP2 PUSH1 0x0 NOT SWAP1 PUSH1 0x3 SHL SHR NOT AND OR SWAP1 SSTORE JUMPDEST PUSH2 0xB35 PUSH1 0x2 SLOAD PUSH2 0x206B JUMP JUMPDEST PUSH1 0x2 SSTORE STOP JUMPDEST ADD MLOAD SWAP1 POP DUP4 DUP1 PUSH2 0xB15 JUMP JUMPDEST PUSH1 0x1F NOT DUP3 AND SWAP4 DUP4 PUSH1 0x0 MSTORE PUSH1 0x20 PUSH1 0x0 KECCAK256 SWAP2 PUSH1 0x0 JUMPDEST DUP7 DUP2 LT PUSH2 0xB91 JUMPI POP DUP4 PUSH1 0x1 SWAP6 SWAP7 LT PUSH2 0xB78 JUMPI JUMPDEST POP POP POP DUP2 SHL ADD SWAP1 SSTORE PUSH2 0xB2A JUMP JUMPDEST ADD MLOAD PUSH1 0x0 NOT PUSH1 0xF8 DUP5 PUSH1 0x3 SHL AND SHR NOT AND SWAP1 SSTORE DUP4 DUP1 DUP1 PUSH2 0xB6B JUMP JUMPDEST SWAP2 SWAP3 PUSH1 0x20 PUSH1 0x1 DUP2 SWAP3 DUP7 DUP6 ADD MLOAD DUP2 SSTORE ADD SWAP5 ADD SWAP3 ADD PUSH2 0xB58 JUMP JUMPDEST PUSH2 0xBD6 SWAP1 DUP4 PUSH1 0x0 MSTORE PUSH1 0x20 PUSH1 0x0 KECCAK256 PUSH1 0x1F DUP5 ADD PUSH1 0x5 SHR DUP2 ADD SWAP2 PUSH1 0x20 DUP6 LT PUSH2 0xBDC JUMPI JUMPDEST PUSH1 0x1F ADD PUSH1 0x5 SHR ADD SWAP1 PUSH2 0x2011 JUMP JUMPDEST DUP4 PUSH2 0xAFA JUMP JUMPDEST SWAP1 SWAP2 POP DUP2 SWAP1 PUSH2 0xBC9 JUMP JUMPDEST PUSH4 0x4E487B71 PUSH1 0xE0 SHL PUSH1 0x0 MSTORE PUSH1 0x41 PUSH1 0x4 MSTORE PUSH1 0x24 PUSH1 0x0 REVERT JUMPDEST PUSH1 0x1 SWAP1 PUSH1 0x20 DUP8 MLOAD SWAP8 ADD SWAP7 DUP2 DUP5 ADD SSTORE ADD PUSH2 0xAC1 JUMP JUMPDEST PUSH2 0xC27 SWAP1 DUP8 PUSH1 0x0 MSTORE DUP5 DUP5 PUSH1 0x0 KECCAK256 SWAP2 DUP3 ADD SWAP2 ADD PUSH2 0x2011 JUMP JUMPDEST DUP7 PUSH2 0xAB3 JUMP JUMPDEST ADD MLOAD SWAP1 POP DUP8 DUP1 PUSH2 0xA2E JUMP JUMPDEST SWAP1 PUSH1 0x2 DUP6 ADD PUSH1 0x0 MSTORE PUSH1 0x20 PUSH1 0x0 KECCAK256 SWAP2 PUSH1 0x0 JUMPDEST PUSH1 0x1F NOT DUP6 AND DUP2 LT PUSH2 0xC94 JUMPI POP SWAP2 DUP4 SWAP2 PUSH1 0x1 SWAP4 PUSH2 0xA83 SWAP7 SWAP6 PUSH1 0x1F NOT DUP2 AND LT PUSH2 0xC7B JUMPI JUMPDEST POP POP POP DUP2 SHL ADD PUSH1 0x2 DUP5 ADD SSTORE PUSH2 0xA46 JUMP JUMPDEST ADD MLOAD PUSH1 0x0 NOT PUSH1 0xF8 DUP5 PUSH1 0x3 SHL AND SHR NOT AND SWAP1 SSTORE DUP8 DUP1 DUP1 PUSH2 0xC6B JUMP JUMPDEST SWAP2 SWAP3 PUSH1 0x20 PUSH1 0x1 DUP2 SWAP3 DUP7 DUP6 ADD MLOAD DUP2 SSTORE ADD SWAP5 ADD SWAP3 ADD PUSH2 0xC49 JUMP JUMPDEST PUSH2 0xCDB SWAP1 PUSH1 0x2 DUP7 ADD PUSH1 0x0 MSTORE PUSH1 0x20 PUSH1 0x0 KECCAK256 PUSH1 0x1F DUP6 ADD PUSH1 0x5 SHR DUP2 ADD SWAP2 PUSH1 0x20 DUP7 LT PUSH2 0xBDC JUMPI PUSH1 0x1F ADD PUSH1 0x5 SHR ADD SWAP1 PUSH2 0x2011 JUMP JUMPDEST DUP7 PUSH2 0xA10 JUMP JUMPDEST ADD MLOAD SWAP1 POP DUP8 DUP1 PUSH2 0x9D1 JUMP JUMPDEST SWAP3 POP PUSH1 0x1 DUP7 ADD PUSH1 0x0 MSTORE PUSH1 0x20 PUSH1 0x0 KECCAK256 SWAP1 PUSH1 0x0 SWAP4 JUMPDEST PUSH1 0x1F NOT DUP5 AND DUP6 LT PUSH2 0xD43 JUMPI PUSH1 0x1 SWAP5 POP DUP4 PUSH1 0x1F NOT DUP2 AND LT PUSH2 0xD2A JUMPI JUMPDEST POP POP POP DUP2 SHL ADD PUSH1 0x1 DUP5 ADD SSTORE PUSH2 0x9E9 JUMP JUMPDEST ADD MLOAD PUSH1 0x0 NOT PUSH1 0xF8 DUP5 PUSH1 0x3 SHL AND SHR NOT AND SWAP1 SSTORE DUP8 DUP1 DUP1 PUSH2 0xD1A JUMP JUMPDEST DUP2 DUP2 ADD MLOAD DUP4 SSTORE PUSH1 0x20 SWAP5 DUP6 ADD SWAP5 PUSH1 0x1 SWAP1 SWAP4 ADD SWAP3 SWAP1 SWAP2 ADD SWAP1 PUSH2 0xCFF JUMP JUMPDEST PUSH2 0xD8D SWAP1 PUSH1 0x1 DUP9 ADD PUSH1 0x0 MSTORE PUSH1 0x20 PUSH1 0x0 KECCAK256 PUSH1 0x1F DUP6 ADD PUSH1 0x5 SHR DUP2 ADD SWAP2 PUSH1 0x20 DUP7 LT PUSH2 0xBDC JUMPI PUSH1 0x1F ADD PUSH1 0x5 SHR ADD SWAP1 PUSH2 0x2011 JUMP JUMPDEST DUP9 PUSH2 0x9BA JUMP JUMPDEST ADD MLOAD SWAP1 POP DUP9 DUP1 PUSH2 0x97C JUMP JUMPDEST SWAP3 POP DUP7 PUSH1 0x0 MSTORE PUSH1 0x20 PUSH1 0x0 KECCAK256 SWAP1 PUSH1 0x0 SWAP4 JUMPDEST PUSH1 0x1F NOT DUP5 AND DUP6 LT PUSH2 0xDEF JUMPI PUSH1 0x1 SWAP5 POP DUP4 PUSH1 0x1F NOT DUP2 AND LT PUSH2 0xDD6 JUMPI JUMPDEST POP POP POP DUP2 SHL ADD DUP5 SSTORE PUSH2 0x991 JUMP JUMPDEST ADD MLOAD PUSH1 0x0 NOT PUSH1 0xF8 DUP5 PUSH1 0x3 SHL AND SHR NOT AND SWAP1 SSTORE DUP9 DUP1 DUP1 PUSH2 0xDC9 JUMP JUMPDEST DUP2 DUP2 ADD MLOAD DUP4 SSTORE PUSH1 0x20 SWAP5 DUP6 ADD SWAP5 PUSH1 0x1 SWAP1 SWAP4 ADD SWAP3 SWAP1 SWAP2 ADD SWAP1 PUSH2 0xDAE JUMP JUMPDEST PUSH2 0xE36 SWAP1 DUP9 PUSH1 0x0 MSTORE PUSH1 0x20 PUSH1 0x0 KECCAK256 PUSH1 0x1F DUP6 ADD PUSH1 0x5 SHR DUP2 ADD SWAP2 PUSH1 0x20 DUP7 LT PUSH2 0xBDC JUMPI PUSH1 0x1F ADD PUSH1 0x5 SHR ADD SWAP1 PUSH2 0x2011 JUMP JUMPDEST DUP10 PUSH2 0x965 JUMP JUMPDEST SWAP4 CALLER PUSH1 0x0 MSTORE PUSH1 0x0 PUSH1 0x20 MSTORE PUSH1 0x40 PUSH1 0x0 KECCAK256 SLOAD PUSH1 0x0 NOT DUP2 ADD SWAP1 DUP2 GT PUSH2 0x464 JUMPI PUSH2 0xE61 SWAP1 PUSH2 0x1C78 JUMP JUMPDEST POP SWAP3 DUP1 MLOAD SWAP1 PUSH1 0x1 PUSH1 0x1 PUSH1 0x40 SHL SUB DUP3 GT PUSH2 0xBE6 JUMPI DUP2 SWAP1 PUSH2 0xE80 DUP7 SLOAD PUSH2 0x1CC9 JUMP JUMPDEST PUSH1 0x1F DUP2 GT PUSH2 0x124F JUMPI JUMPDEST POP PUSH1 0x20 SWAP1 PUSH1 0x1F DUP4 GT PUSH1 0x1 EQ PUSH2 0x11E3 JUMPI PUSH1 0x0 SWAP3 PUSH2 0x11D8 JUMPI JUMPDEST POP POP DUP2 PUSH1 0x1 SHL SWAP2 PUSH1 0x0 NOT SWAP1 PUSH1 0x3 SHL SHR NOT AND OR DUP4 SSTORE JUMPDEST DUP1 MLOAD SWAP1 PUSH1 0x1 PUSH1 0x1 PUSH1 0x40 SHL SUB DUP3 GT PUSH2 0xBE6 JUMPI DUP2 SWAP1 PUSH2 0xED5 PUSH1 0x1 DUP7 ADD SLOAD PUSH2 0x1CC9 JUMP JUMPDEST PUSH1 0x1F DUP2 GT PUSH2 0x11A3 JUMPI JUMPDEST POP PUSH1 0x20 SWAP1 PUSH1 0x1F DUP4 GT PUSH1 0x1 EQ PUSH2 0x1131 JUMPI PUSH1 0x0 SWAP3 PUSH2 0x1126 JUMPI JUMPDEST POP POP DUP2 PUSH1 0x1 SHL SWAP2 PUSH1 0x0 NOT SWAP1 PUSH1 0x3 SHL SHR NOT AND OR PUSH1 0x1 DUP4 ADD SSTORE JUMPDEST DUP4 MLOAD PUSH1 0x1 PUSH1 0x1 PUSH1 0x40 SHL SUB DUP2 GT PUSH2 0xBE6 JUMPI PUSH2 0xF2A PUSH1 0x2 DUP5 ADD SLOAD PUSH2 0x1CC9 JUMP JUMPDEST PUSH1 0x1F DUP2 GT PUSH2 0x10F1 JUMPI JUMPDEST POP PUSH1 0x20 PUSH1 0x1F DUP3 GT PUSH1 0x1 EQ PUSH2 0x107B JUMPI SWAP1 DUP1 PUSH2 0xF7B SWAP4 SWAP3 PUSH1 0x8 SWAP7 SWAP8 PUSH1 0x0 SWAP3 PUSH2 0x1070 JUMPI JUMPDEST POP POP DUP2 PUSH1 0x1 SHL SWAP2 PUSH1 0x0 NOT SWAP1 PUSH1 0x3 SHL SHR NOT AND OR PUSH1 0x2 DUP5 ADD SSTORE JUMPDEST PUSH2 0xA67 PUSH1 0x64 CALLDATALOAD PUSH1 0x3 DUP6 ADD PUSH2 0x2028 JUMP JUMPDEST ADD DUP2 MLOAD PUSH1 0x1 PUSH1 0x1 PUSH1 0x40 SHL SUB DUP2 GT PUSH2 0xBE6 JUMPI PUSH2 0xF96 DUP3 SLOAD PUSH2 0x1CC9 JUMP JUMPDEST PUSH1 0x1F DUP2 GT PUSH2 0x103E JUMPI JUMPDEST POP PUSH1 0x20 SWAP3 PUSH1 0x1F DUP3 GT PUSH1 0x1 EQ PUSH2 0xFDD JUMPI SWAP3 DUP2 SWAP3 SWAP4 PUSH1 0x0 SWAP3 PUSH2 0xFD2 JUMPI JUMPDEST POP POP PUSH1 0x0 NOT PUSH1 0x3 DUP4 SWAP1 SHL SHR NOT AND PUSH1 0x1 SWAP2 SWAP1 SWAP2 SHL OR SWAP1 SSTORE STOP JUMPDEST ADD MLOAD SWAP1 POP DUP4 DUP1 PUSH2 0xFBA JUMP JUMPDEST PUSH1 0x1F NOT DUP3 AND SWAP4 DUP4 PUSH1 0x0 MSTORE PUSH1 0x20 PUSH1 0x0 KECCAK256 SWAP2 PUSH1 0x0 JUMPDEST DUP7 DUP2 LT PUSH2 0x1026 JUMPI POP DUP4 PUSH1 0x1 SWAP6 SWAP7 LT PUSH2 0x100D JUMPI JUMPDEST POP POP POP DUP2 SHL ADD SWAP1 SSTORE STOP JUMPDEST ADD MLOAD PUSH1 0x0 NOT PUSH1 0xF8 DUP5 PUSH1 0x3 SHL AND SHR NOT AND SWAP1 SSTORE DUP4 DUP1 DUP1 PUSH2 0x1003 JUMP JUMPDEST SWAP2 SWAP3 PUSH1 0x20 PUSH1 0x1 DUP2 SWAP3 DUP7 DUP6 ADD MLOAD DUP2 SSTORE ADD SWAP5 ADD SWAP3 ADD PUSH2 0xFF0 JUMP JUMPDEST PUSH2 0x106A SWAP1 DUP4 PUSH1 0x0 MSTORE PUSH1 0x20 PUSH1 0x0 KECCAK256 PUSH1 0x1F DUP5 ADD PUSH1 0x5 SHR DUP2 ADD SWAP2 PUSH1 0x20 DUP6 LT PUSH2 0xBDC JUMPI PUSH1 0x1F ADD PUSH1 0x5 SHR ADD SWAP1 PUSH2 0x2011 JUMP JUMPDEST DUP4 PUSH2 0xF9F JUMP JUMPDEST ADD MLOAD SWAP1 POP DUP8 DUP1 PUSH2 0xF54 JUMP JUMPDEST PUSH1 0x2 DUP5 ADD PUSH1 0x0 MSTORE PUSH1 0x20 PUSH1 0x0 KECCAK256 SWAP6 PUSH1 0x0 JUMPDEST PUSH1 0x1F NOT DUP5 AND DUP2 LT PUSH2 0x10D9 JUMPI POP SWAP2 PUSH1 0x8 SWAP6 SWAP7 PUSH1 0x1 SWAP3 PUSH2 0xF7B SWAP6 SWAP5 DUP4 PUSH1 0x1F NOT DUP2 AND LT PUSH2 0x10C0 JUMPI JUMPDEST POP POP POP DUP2 SHL ADD PUSH1 0x2 DUP5 ADD SSTORE PUSH2 0xF6C JUMP JUMPDEST ADD MLOAD PUSH1 0x0 NOT PUSH1 0xF8 DUP5 PUSH1 0x3 SHL AND SHR NOT AND SWAP1 SSTORE DUP8 DUP1 DUP1 PUSH2 0x10B0 JUMP JUMPDEST DUP3 DUP3 ADD MLOAD DUP9 SSTORE PUSH1 0x1 SWAP1 SWAP8 ADD SWAP7 PUSH1 0x20 SWAP3 DUP4 ADD SWAP3 ADD PUSH2 0x108B JUMP JUMPDEST PUSH2 0x1120 SWAP1 PUSH1 0x2 DUP6 ADD PUSH1 0x0 MSTORE PUSH1 0x20 PUSH1 0x0 KECCAK256 PUSH1 0x1F DUP5 ADD PUSH1 0x5 SHR DUP2 ADD SWAP2 PUSH1 0x20 DUP6 LT PUSH2 0xBDC JUMPI PUSH1 0x1F ADD PUSH1 0x5 SHR ADD SWAP1 PUSH2 0x2011 JUMP JUMPDEST DUP6 PUSH2 0xF33 JUMP JUMPDEST ADD MLOAD SWAP1 POP DUP7 DUP1 PUSH2 0xEF5 JUMP JUMPDEST SWAP3 POP PUSH1 0x1 DUP6 ADD PUSH1 0x0 MSTORE PUSH1 0x20 PUSH1 0x0 KECCAK256 SWAP1 PUSH1 0x0 SWAP4 JUMPDEST PUSH1 0x1F NOT DUP5 AND DUP6 LT PUSH2 0x1188 JUMPI PUSH1 0x1 SWAP5 POP DUP4 PUSH1 0x1F NOT DUP2 AND LT PUSH2 0x116F JUMPI JUMPDEST POP POP POP DUP2 SHL ADD PUSH1 0x1 DUP4 ADD SSTORE PUSH2 0xF0D JUMP JUMPDEST ADD MLOAD PUSH1 0x0 NOT PUSH1 0xF8 DUP5 PUSH1 0x3 SHL AND SHR NOT AND SWAP1 SSTORE DUP7 DUP1 DUP1 PUSH2 0x115F JUMP JUMPDEST DUP2 DUP2 ADD MLOAD DUP4 SSTORE PUSH1 0x20 SWAP5 DUP6 ADD SWAP5 PUSH1 0x1 SWAP1 SWAP4 ADD SWAP3 SWAP1 SWAP2 ADD SWAP1 PUSH2 0x1144 JUMP JUMPDEST PUSH2 0x11D2 SWAP1 PUSH1 0x1 DUP8 ADD PUSH1 0x0 MSTORE PUSH1 0x20 PUSH1 0x0 KECCAK256 PUSH1 0x1F DUP6 ADD PUSH1 0x5 SHR DUP2 ADD SWAP2 PUSH1 0x20 DUP7 LT PUSH2 0xBDC JUMPI PUSH1 0x1F ADD PUSH1 0x5 SHR ADD SWAP1 PUSH2 0x2011 JUMP JUMPDEST DUP8 PUSH2 0xEDE JUMP JUMPDEST ADD MLOAD SWAP1 POP DUP8 DUP1 PUSH2 0xEA0 JUMP JUMPDEST SWAP3 POP DUP6 PUSH1 0x0 MSTORE PUSH1 0x20 PUSH1 0x0 KECCAK256 SWAP1 PUSH1 0x0 SWAP4 JUMPDEST PUSH1 0x1F NOT DUP5 AND DUP6 LT PUSH2 0x1234 JUMPI PUSH1 0x1 SWAP5 POP DUP4 PUSH1 0x1F NOT DUP2 AND LT PUSH2 0x121B JUMPI JUMPDEST POP POP POP DUP2 SHL ADD DUP4 SSTORE PUSH2 0xEB5 JUMP JUMPDEST ADD MLOAD PUSH1 0x0 NOT PUSH1 0xF8 DUP5 PUSH1 0x3 SHL AND SHR NOT AND SWAP1 SSTORE DUP8 DUP1 DUP1 PUSH2 0x120E JUMP JUMPDEST DUP2 DUP2 ADD MLOAD DUP4 SSTORE PUSH1 0x20 SWAP5 DUP6 ADD SWAP5 PUSH1 0x1 SWAP1 SWAP4 ADD SWAP3 SWAP1 SWAP2 ADD SWAP1 PUSH2 0x11F3 JUMP JUMPDEST PUSH2 0x127B SWAP1 DUP8 PUSH1 0x0 MSTORE PUSH1 0x20 PUSH1 0x0 KECCAK256 PUSH1 0x1F DUP6 ADD PUSH1 0x5 SHR DUP2 ADD SWAP2 PUSH1 0x20 DUP7 LT PUSH2 0xBDC JUMPI PUSH1 0x1F ADD PUSH1 0x5 SHR ADD SWAP1 PUSH2 0x2011 JUMP JUMPDEST DUP9 PUSH2 0xE89 JUMP JUMPDEST PUSH2 0x128C PUSH1 0x64 CALLDATALOAD PUSH2 0x1B0E JUMP JUMPDEST PUSH1 0x64 CALLDATALOAD PUSH1 0x1 EQ DUP1 PUSH2 0x1362 JUMPI JUMPDEST ISZERO PUSH2 0x1359 JUMPI PUSH1 0x0 PUSH1 0x24 SWAP2 PUSH1 0x40 MLOAD SWAP3 DUP4 DUP1 SWAP3 PUSH4 0x418ED21 PUSH1 0xE2 SHL DUP3 MSTORE PUSH1 0x84 CALLDATALOAD PUSH1 0x4 DUP4 ADD MSTORE PUSH32 0x0 AND GAS STATICCALL DUP1 ISZERO PUSH2 0x6D1 JUMPI PUSH1 0x40 SWAP2 PUSH1 0x0 SWAP2 PUSH2 0x133E JUMPI JUMPDEST POP ADD DUP1 MLOAD PUSH2 0x12FD DUP2 PUSH2 0x1B0E JUMP JUMPDEST PUSH2 0x1306 DUP2 PUSH2 0x1B0E JUMP JUMPDEST PUSH2 0x1313 JUMPI POP PUSH1 0x2 SWAP2 PUSH2 0x8E4 JUMP JUMPDEST PUSH1 0x1 SWAP1 MLOAD PUSH2 0x1320 DUP2 PUSH2 0x1B0E JUMP JUMPDEST PUSH2 0x1329 DUP2 PUSH2 0x1B0E JUMP JUMPDEST SUB PUSH2 0x1336 JUMPI PUSH1 0x3 SWAP2 PUSH2 0x8E4 JUMP JUMPDEST PUSH1 0x1 SWAP2 PUSH2 0x8E4 JUMP JUMPDEST PUSH2 0x1353 SWAP2 POP RETURNDATASIZE DUP1 PUSH1 0x0 DUP4 RETURNDATACOPY PUSH2 0x6C2 DUP2 DUP4 PUSH2 0x1D3A JUMP JUMPDEST DUP8 PUSH2 0x12F0 JUMP JUMPDEST POP PUSH1 0x1 SWAP2 PUSH2 0x8E4 JUMP JUMPDEST POP PUSH1 0x84 CALLDATALOAD ISZERO ISZERO PUSH2 0x1298 JUMP JUMPDEST PUSH1 0x40 MLOAD PUSH3 0x461BCD PUSH1 0xE5 SHL DUP2 MSTORE PUSH1 0x20 PUSH1 0x4 DUP3 ADD MSTORE PUSH1 0x37 PUSH1 0x24 DUP3 ADD MSTORE PUSH32 0x55736572206973206E6F742061207374616666206D656D626572206F66207468 PUSH1 0x44 DUP3 ADD MSTORE PUSH32 0x652073706563696669656420696E737469747574696F6E000000000000000000 PUSH1 0x64 DUP3 ADD MSTORE PUSH1 0x84 SWAP1 REVERT JUMPDEST SWAP1 POP PUSH1 0x20 DUP2 RETURNDATASIZE PUSH1 0x20 GT PUSH2 0x140B JUMPI JUMPDEST DUP2 PUSH2 0x13F3 PUSH1 0x20 SWAP4 DUP4 PUSH2 0x1D3A JUMP JUMPDEST DUP2 ADD SUB SLT PUSH2 0xE8 JUMPI MLOAD DUP1 ISZERO ISZERO DUP2 SUB PUSH2 0xE8 JUMPI DUP7 PUSH2 0x8C3 JUMP JUMPDEST RETURNDATASIZE SWAP2 POP PUSH2 0x13E6 JUMP JUMPDEST PUSH1 0x40 MLOAD PUSH3 0x461BCD PUSH1 0xE5 SHL DUP2 MSTORE PUSH1 0x20 PUSH1 0x4 DUP3 ADD MSTORE PUSH1 0x25 PUSH1 0x24 DUP3 ADD MSTORE PUSH32 0x4173736F63696174656420696E737469747574696F6E20646F6573206E6F7420 PUSH1 0x44 DUP3 ADD MSTORE PUSH5 0x195E1A5CDD PUSH1 0xDA SHL PUSH1 0x64 DUP3 ADD MSTORE PUSH1 0x84 SWAP1 REVERT JUMPDEST SWAP1 POP PUSH1 0x20 DUP2 RETURNDATASIZE PUSH1 0x20 GT PUSH2 0x1490 JUMPI JUMPDEST DUP2 PUSH2 0x1481 PUSH1 0x20 SWAP4 DUP4 PUSH2 0x1D3A JUMP JUMPDEST DUP2 ADD SUB SLT PUSH2 0xE8 JUMPI MLOAD DUP8 PUSH2 0x85F JUMP JUMPDEST RETURNDATASIZE SWAP2 POP PUSH2 0x1474 JUMP JUMPDEST PUSH1 0x40 MLOAD PUSH3 0x461BCD PUSH1 0xE5 SHL DUP2 MSTORE PUSH1 0x20 PUSH1 0x4 DUP3 ADD MSTORE PUSH1 0x35 PUSH1 0x24 DUP3 ADD MSTORE PUSH32 0x496E737469747574696F6E616C2075736572206D757374206173736F63696174 PUSH1 0x44 DUP3 ADD MSTORE PUSH21 0x32903BB4BA341030B71034B739BA34BA3ABA34B7B7 PUSH1 0x59 SHL PUSH1 0x64 DUP3 ADD MSTORE PUSH1 0x84 SWAP1 REVERT JUMPDEST PUSH1 0x84 CALLDATALOAD ISZERO PUSH2 0x8CA JUMPI PUSH1 0x40 MLOAD PUSH3 0x461BCD PUSH1 0xE5 SHL DUP2 MSTORE PUSH1 0x20 PUSH1 0x4 DUP3 ADD MSTORE PUSH1 0x36 PUSH1 0x24 DUP3 ADD MSTORE PUSH32 0x506572736F6E616C20757365722073686F756C64206E6F74206173736F636961 PUSH1 0x44 DUP3 ADD MSTORE PUSH22 0x3A32903BB4BA341030B71034B739BA34BA3ABA34B7B7 PUSH1 0x51 SHL PUSH1 0x64 DUP3 ADD MSTORE PUSH1 0x84 SWAP1 REVERT JUMPDEST CALLVALUE PUSH2 0xE8 JUMPI PUSH1 0x20 CALLDATASIZE PUSH1 0x3 NOT ADD SLT PUSH2 0xE8 JUMPI PUSH1 0x1 PUSH1 0x1 PUSH1 0xA0 SHL SUB PUSH2 0x1588 PUSH2 0x1AB0 JUMP JUMPDEST AND PUSH1 0x0 MSTORE PUSH1 0x0 PUSH1 0x20 MSTORE PUSH1 0x20 PUSH1 0x40 PUSH1 0x0 KECCAK256 SLOAD PUSH1 0x40 MLOAD SWAP1 DUP2 MSTORE RETURN JUMPDEST CALLVALUE PUSH2 0xE8 JUMPI PUSH1 0x20 CALLDATASIZE PUSH1 0x3 NOT ADD SLT PUSH2 0xE8 JUMPI PUSH1 0x4 CALLDATALOAD PUSH1 0x1 SLOAD DUP2 LT ISZERO PUSH2 0xE8 JUMPI PUSH2 0x15CB PUSH2 0x163B SWAP2 PUSH2 0x1C78 JUMP JUMPDEST POP PUSH2 0x1B4 PUSH2 0x15D8 DUP3 PUSH2 0x1D5B JUMP JUMPDEST SWAP2 PUSH2 0x15E5 PUSH1 0x1 DUP3 ADD PUSH2 0x1D5B JUMP JUMPDEST PUSH2 0x15F1 PUSH1 0x2 DUP4 ADD PUSH2 0x1D5B JUMP JUMPDEST SWAP2 PUSH2 0x1695 PUSH1 0x3 DUP3 ADD SLOAD SWAP4 PUSH1 0xFF DUP6 PUSH1 0xA0 SHR AND PUSH1 0x4 DUP5 ADD SLOAD SWAP1 PUSH2 0x1657 PUSH1 0x5 DUP7 ADD SLOAD SWAP4 PUSH2 0x1649 PUSH2 0x1625 PUSH1 0x8 PUSH1 0x7 DUP11 ADD SLOAD SWAP10 ADD PUSH2 0x1D5B JUMP JUMPDEST SWAP9 PUSH1 0x40 MLOAD SWAP14 DUP15 SWAP14 DUP15 PUSH2 0x140 SWAP1 DUP2 DUP2 MSTORE ADD SWAP1 PUSH2 0x1AE9 JUMP JUMPDEST DUP14 DUP2 SUB PUSH1 0x20 DUP16 ADD MSTORE SWAP1 PUSH2 0x1AE9 JUMP JUMPDEST SWAP1 DUP12 DUP3 SUB PUSH1 0x40 DUP14 ADD MSTORE PUSH2 0x1AE9 JUMP JUMPDEST PUSH1 0x1 PUSH1 0x1 PUSH1 0xA0 SHL SUB SWAP1 SWAP8 AND PUSH1 0x60 DUP11 ADD MSTORE PUSH2 0x1670 DUP2 PUSH2 0x1B0E JUMP JUMPDEST PUSH1 0x80 DUP10 ADD MSTORE PUSH1 0xA0 DUP9 ADD MSTORE PUSH1 0xFF DUP2 AND ISZERO ISZERO PUSH1 0xC0 DUP9 ADD MSTORE PUSH1 0xFF PUSH1 0xE0 DUP9 ADD SWAP2 PUSH1 0x8 SHR AND PUSH2 0x1B18 JUMP JUMPDEST PUSH2 0x100 DUP6 ADD MSTORE DUP4 DUP3 SUB PUSH2 0x120 DUP6 ADD MSTORE PUSH2 0x1AE9 JUMP JUMPDEST CALLVALUE PUSH2 0xE8 JUMPI PUSH1 0x0 CALLDATASIZE PUSH1 0x3 NOT ADD SLT PUSH2 0xE8 JUMPI PUSH1 0x20 PUSH1 0x2 SLOAD PUSH1 0x40 MLOAD SWAP1 DUP2 MSTORE RETURN JUMPDEST CALLVALUE PUSH2 0xE8 JUMPI PUSH1 0x20 CALLDATASIZE PUSH1 0x3 NOT ADD SLT PUSH2 0xE8 JUMPI PUSH1 0x40 MLOAD PUSH4 0x418ED21 PUSH1 0xE2 SHL DUP2 MSTORE PUSH1 0x4 DUP1 CALLDATALOAD SWAP1 DUP3 ADD DUP2 SWAP1 MSTORE SWAP1 PUSH1 0x1 PUSH1 0x1 PUSH1 0xA0 SHL SUB SWAP1 PUSH1 0x0 DUP2 PUSH1 0x24 DUP2 PUSH32 0x0 DUP7 AND GAS STATICCALL SWAP1 DUP2 ISZERO PUSH2 0x6D1 JUMPI DUP3 SWAP2 PUSH1 0x60 SWAP2 PUSH1 0x0 SWAP2 PUSH2 0x1883 JUMPI JUMPDEST POP ADD MLOAD AND CALLER EQ SWAP1 DUP2 ISZERO PUSH2 0x1875 JUMPI JUMPDEST POP ISZERO PUSH2 0x17F7 JUMPI PUSH1 0x1 SLOAD PUSH1 0x0 DUP1 JUMPDEST DUP3 DUP2 LT PUSH2 0x17BF JUMPI POP PUSH2 0x1764 SWAP1 PUSH2 0x22BE JUMP JUMPDEST SWAP2 PUSH1 0x0 SWAP1 PUSH1 0x0 JUMPDEST DUP4 DUP2 LT PUSH2 0x1780 JUMPI PUSH1 0x40 MLOAD DUP1 PUSH2 0x1B4 DUP8 DUP3 PUSH2 0x1B25 JUMP JUMPDEST DUP2 PUSH1 0x4 PUSH2 0x178C DUP4 PUSH2 0x1C78 JUMP JUMPDEST POP ADD SLOAD EQ PUSH2 0x17A3 JUMPI JUMPDEST PUSH2 0x179E SWAP1 PUSH2 0x206B JUMP JUMPDEST PUSH2 0x176B JUMP JUMPDEST SWAP2 PUSH2 0x17B7 PUSH2 0x179E SWAP2 PUSH2 0x2CF PUSH2 0x2C9 DUP7 PUSH2 0x1C78 JUMP JUMPDEST SWAP3 SWAP1 POP PUSH2 0x1795 JUMP JUMPDEST DUP4 PUSH1 0x4 PUSH2 0x17CB DUP4 PUSH2 0x1C78 JUMP JUMPDEST POP ADD SLOAD EQ PUSH2 0x17E2 JUMPI JUMPDEST PUSH2 0x17DD SWAP1 PUSH2 0x206B JUMP JUMPDEST PUSH2 0x1753 JUMP JUMPDEST SWAP1 PUSH2 0x17EF PUSH2 0x17DD SWAP2 PUSH2 0x206B JUMP JUMPDEST SWAP2 SWAP1 POP PUSH2 0x17D4 JUMP JUMPDEST PUSH1 0x40 MLOAD PUSH3 0x461BCD PUSH1 0xE5 SHL DUP2 MSTORE PUSH1 0x20 PUSH1 0x4 DUP3 ADD MSTORE PUSH1 0x4A PUSH1 0x24 DUP3 ADD MSTORE PUSH32 0x4F6E6C7920696E737469747574696F6E20726573706F6E7369626C6520706572 PUSH1 0x44 DUP3 ADD MSTORE PUSH32 0x736F6E206F72206465706C6F7965722063616E207669657720696E7374697475 PUSH1 0x64 DUP3 ADD MSTORE PUSH10 0x74696F6E207573657273 PUSH1 0xB0 SHL PUSH1 0x84 DUP3 ADD MSTORE PUSH1 0xA4 SWAP1 REVERT JUMPDEST SWAP1 POP PUSH1 0x3 SLOAD AND CALLER EQ DUP3 PUSH2 0x1746 JUMP JUMPDEST PUSH2 0x1898 SWAP2 POP RETURNDATASIZE DUP1 PUSH1 0x0 DUP4 RETURNDATACOPY PUSH2 0x6C2 DUP2 DUP4 PUSH2 0x1D3A JUMP JUMPDEST DUP6 PUSH2 0x1738 JUMP JUMPDEST CALLVALUE PUSH2 0xE8 JUMPI PUSH1 0x20 DUP1 PUSH1 0x3 NOT CALLDATASIZE ADD SLT PUSH2 0xE8 JUMPI PUSH2 0x18B8 PUSH2 0x1AB0 JUMP JUMPDEST PUSH1 0x1 PUSH1 0x1 PUSH1 0xA0 SHL SUB DUP2 AND PUSH1 0x0 SWAP1 DUP2 MSTORE PUSH1 0x20 DUP2 SWAP1 MSTORE PUSH1 0x40 SWAP1 KECCAK256 SLOAD PUSH2 0x18DC SWAP1 ISZERO ISZERO PUSH2 0x207A JUMP JUMPDEST PUSH1 0x1 PUSH1 0x1 PUSH1 0xA0 SHL SUB AND PUSH1 0x0 SWAP1 DUP2 MSTORE DUP1 DUP3 MSTORE PUSH1 0x40 SWAP1 KECCAK256 SLOAD PUSH1 0x0 NOT DUP2 ADD SWAP1 DUP2 GT PUSH2 0x464 JUMPI PUSH1 0x6 PUSH2 0x190C PUSH2 0x1913 SWAP3 PUSH2 0x1C78 JUMP JUMPDEST POP ADD PUSH2 0x21AB JUMP JUMPDEST SWAP1 PUSH1 0x40 MLOAD SWAP2 DUP2 DUP4 SWAP3 DUP4 ADD DUP2 DUP5 MSTORE DUP3 MLOAD DUP1 SWAP2 MSTORE DUP2 PUSH1 0x40 DUP6 ADD SWAP4 ADD SWAP2 PUSH1 0x0 JUMPDEST DUP3 DUP2 LT PUSH2 0x193F JUMPI POP POP POP POP SUB SWAP1 RETURN JUMPDEST DUP4 MLOAD DUP6 MSTORE DUP7 SWAP6 POP SWAP4 DUP2 ADD SWAP4 SWAP3 DUP2 ADD SWAP3 PUSH1 0x1 ADD PUSH2 0x1930 JUMP JUMPDEST CALLVALUE PUSH2 0xE8 JUMPI PUSH1 0x40 CALLDATASIZE PUSH1 0x3 NOT ADD SLT PUSH2 0xE8 JUMPI PUSH2 0x196F PUSH2 0x1AB0 JUMP JUMPDEST PUSH1 0x24 DUP1 CALLDATALOAD SWAP2 PUSH2 0x1996 PUSH2 0x42E DUP3 PUSH1 0x1 DUP1 PUSH1 0xA0 SHL SUB AND PUSH1 0x0 MSTORE PUSH1 0x0 PUSH1 0x20 MSTORE PUSH1 0x40 PUSH1 0x0 KECCAK256 SLOAD ISZERO ISZERO SWAP1 JUMP JUMPDEST PUSH1 0x1 PUSH1 0x1 PUSH1 0xA0 SHL SUB AND PUSH1 0x0 SWAP1 DUP2 MSTORE PUSH1 0x20 DUP2 SWAP1 MSTORE PUSH1 0x40 SWAP1 KECCAK256 SLOAD PUSH1 0x0 NOT SWAP2 SWAP1 DUP3 DUP2 ADD SWAP1 DUP2 GT PUSH2 0x1A9B JUMPI SWAP2 PUSH2 0x19C8 DUP5 SWAP4 PUSH2 0x1C78 JUMP JUMPDEST POP PUSH1 0x6 ADD SWAP1 PUSH1 0x0 JUMPDEST DUP3 SLOAD DUP1 DUP3 LT ISZERO PUSH2 0xE6 JUMPI DUP6 SWAP1 PUSH2 0x19E6 DUP4 DUP7 PUSH2 0x20BC JUMP JUMPDEST SWAP3 SWAP1 SLOAD PUSH1 0x3 SWAP4 DUP5 SHL SHR EQ PUSH2 0x1A04 JUMPI POP POP PUSH2 0x19FF SWAP1 PUSH2 0x206B JUMP JUMPDEST PUSH2 0x19D0 JUMP JUMPDEST SWAP1 SWAP6 POP DUP3 DUP2 SWAP6 SWAP4 SWAP5 SWAP6 ADD SWAP1 DUP2 GT PUSH2 0x1A86 JUMPI SWAP1 PUSH2 0x1A33 PUSH2 0x1A26 PUSH2 0x1A4C SWAP4 DUP8 PUSH2 0x20BC JUMP JUMPDEST SWAP1 SLOAD SWAP1 DUP9 SHL SHR SWAP2 DUP7 PUSH2 0x20BC JUMP JUMPDEST SWAP1 SWAP2 SWAP1 DUP3 SLOAD SWAP1 PUSH1 0x3 SHL SWAP2 DUP3 SHL SWAP2 PUSH1 0x0 NOT SWAP1 SHL NOT AND OR SWAP1 SSTORE JUMP JUMPDEST DUP3 SLOAD SWAP1 DUP2 ISZERO PUSH2 0x1A72 JUMPI POP DUP2 ADD SWAP3 PUSH2 0x1A63 DUP5 DUP5 PUSH2 0x20BC JUMP JUMPDEST DUP2 SLOAD SWAP3 SHL SWAP3 SWAP1 SWAP3 SHL NOT AND SWAP1 SSTORE SSTORE STOP JUMPDEST PUSH4 0x4E487B71 PUSH1 0xE0 SHL PUSH1 0x0 SWAP1 DUP2 MSTORE PUSH1 0x31 PUSH1 0x4 MSTORE REVERT JUMPDEST DUP3 PUSH4 0x4E487B71 PUSH1 0xE0 SHL PUSH1 0x0 MSTORE PUSH1 0x11 PUSH1 0x4 MSTORE PUSH1 0x0 REVERT JUMPDEST POP PUSH4 0x4E487B71 PUSH1 0xE0 SHL PUSH1 0x0 SWAP1 DUP2 MSTORE PUSH1 0x11 PUSH1 0x4 MSTORE REVERT JUMPDEST PUSH1 0x4 CALLDATALOAD SWAP1 PUSH1 0x1 PUSH1 0x1 PUSH1 0xA0 SHL SUB DUP3 AND DUP3 SUB PUSH2 0xE8 JUMPI JUMP JUMPDEST PUSH1 0x0 JUMPDEST DUP4 DUP2 LT PUSH2 0x1AD9 JUMPI POP POP PUSH1 0x0 SWAP2 ADD MSTORE JUMP JUMPDEST DUP2 DUP2 ADD MLOAD DUP4 DUP3 ADD MSTORE PUSH1 0x20 ADD PUSH2 0x1AC9 JUMP JUMPDEST SWAP1 PUSH1 0x20 SWAP2 PUSH2 0x1B02 DUP2 MLOAD DUP1 SWAP3 DUP2 DUP6 MSTORE DUP6 DUP1 DUP7 ADD SWAP2 ADD PUSH2 0x1AC6 JUMP JUMPDEST PUSH1 0x1F ADD PUSH1 0x1F NOT AND ADD ADD SWAP1 JUMP JUMPDEST PUSH1 0x2 GT ISZERO PUSH2 0x2F2 JUMPI JUMP JUMPDEST SWAP1 PUSH1 0x4 DUP3 LT ISZERO PUSH2 0x2F2 JUMPI MSTORE JUMP JUMPDEST PUSH1 0x20 DUP1 DUP3 ADD SWAP1 DUP1 DUP4 MSTORE DUP4 MLOAD DUP1 SWAP3 MSTORE PUSH1 0x40 SWAP3 DUP4 DUP2 ADD DUP3 DUP6 DUP6 PUSH1 0x5 SHL DUP5 ADD ADD SWAP7 ADD SWAP5 PUSH1 0x0 SWAP1 DUP2 SWAP4 JUMPDEST DUP7 DUP6 LT PUSH2 0x1B5D JUMPI POP POP POP POP POP POP POP POP SWAP1 JUMP JUMPDEST SWAP1 SWAP2 SWAP3 SWAP4 SWAP5 SWAP6 SWAP7 SWAP8 PUSH1 0x3F NOT DUP3 DUP3 SUB ADD DUP6 MSTORE DUP7 DUP10 MLOAD SWAP2 PUSH2 0x1BAB PUSH2 0x1B9B PUSH2 0x1B8B DUP6 MLOAD PUSH2 0x160 DUP1 DUP7 MSTORE DUP6 ADD SWAP1 PUSH2 0x1AE9 JUMP JUMPDEST DUP5 DUP7 ADD MLOAD DUP5 DUP3 SUB DUP7 DUP7 ADD MSTORE PUSH2 0x1AE9 JUMP JUMPDEST DUP7 DUP6 ADD MLOAD DUP4 DUP3 SUB DUP9 DUP6 ADD MSTORE PUSH2 0x1AE9 JUMP JUMPDEST PUSH1 0x60 DUP5 DUP2 ADD MLOAD PUSH1 0x1 PUSH1 0x1 PUSH1 0xA0 SHL SUB AND SWAP1 DUP4 ADD MSTORE PUSH1 0x80 DUP1 DUP6 ADD MLOAD SWAP2 SWAP3 SWAP2 SWAP1 PUSH2 0x1BD1 DUP3 PUSH2 0x1B0E JUMP JUMPDEST DUP3 ADD MSTORE PUSH1 0xA0 DUP1 DUP6 ADD MLOAD SWAP1 DUP3 ADD MSTORE PUSH1 0xC0 DUP1 DUP6 ADD MLOAD ISZERO ISZERO SWAP1 DUP3 ADD MSTORE PUSH2 0x1BFC PUSH1 0xE0 DUP1 DUP7 ADD MLOAD SWAP1 DUP4 ADD SWAP1 PUSH2 0x1B18 JUMP JUMPDEST PUSH2 0x100 SWAP2 DUP3 DUP6 ADD MLOAD SWAP3 DUP3 DUP3 SUB SWAP1 DUP4 ADD MSTORE DUP4 DUP1 DUP5 MLOAD SWAP3 DUP4 DUP2 MSTORE ADD SWAP4 ADD SWAP1 DUP9 SWAP1 JUMPDEST DUP1 DUP3 LT PUSH2 0x1C5E JUMPI POP POP POP DUP3 SWAP2 PUSH1 0x1 SWAP5 PUSH2 0x1C4C SWAP3 PUSH2 0x120 DUP1 DUP4 ADD MLOAD SWAP1 DUP3 ADD MSTORE PUSH2 0x140 DUP1 SWAP3 ADD MLOAD SWAP2 DUP2 DUP5 SUB SWAP2 ADD MSTORE PUSH2 0x1AE9 JUMP JUMPDEST SWAP11 ADD SWAP6 ADD SWAP6 ADD SWAP4 SWAP7 SWAP6 SWAP5 SWAP3 SWAP2 SWAP1 PUSH2 0x1B4B JUMP JUMPDEST DUP3 MLOAD DUP6 MSTORE DUP13 SWAP6 SWAP5 DUP6 ADD SWAP5 SWAP1 SWAP3 ADD SWAP2 PUSH1 0x1 SWAP2 SWAP1 SWAP2 ADD SWAP1 PUSH2 0x1C1B JUMP JUMPDEST PUSH1 0x1 SLOAD DUP2 LT ISZERO PUSH2 0x1CB3 JUMPI PUSH1 0x9 SWAP1 PUSH1 0x1 PUSH1 0x0 MSTORE MUL PUSH32 0xB10E2D527612073B26EECDFD717E6A320CF44B4AFAC2B0732D9FCBE2B7FA0CF6 ADD SWAP1 PUSH1 0x0 SWAP1 JUMP JUMPDEST PUSH4 0x4E487B71 PUSH1 0xE0 SHL PUSH1 0x0 MSTORE PUSH1 0x32 PUSH1 0x4 MSTORE PUSH1 0x24 PUSH1 0x0 REVERT JUMPDEST SWAP1 PUSH1 0x1 DUP3 DUP2 SHR SWAP3 AND DUP1 ISZERO PUSH2 0x1CF9 JUMPI JUMPDEST PUSH1 0x20 DUP4 LT EQ PUSH2 0x1CE3 JUMPI JUMP JUMPDEST PUSH4 0x4E487B71 PUSH1 0xE0 SHL PUSH1 0x0 MSTORE PUSH1 0x22 PUSH1 0x4 MSTORE PUSH1 0x24 PUSH1 0x0 REVERT JUMPDEST SWAP2 PUSH1 0x7F AND SWAP2 PUSH2 0x1CD8 JUMP JUMPDEST PUSH2 0x160 DUP2 ADD SWAP1 DUP2 LT PUSH1 0x1 PUSH1 0x1 PUSH1 0x40 SHL SUB DUP3 GT OR PUSH2 0xBE6 JUMPI PUSH1 0x40 MSTORE JUMP JUMPDEST PUSH1 0x20 DUP2 ADD SWAP1 DUP2 LT PUSH1 0x1 PUSH1 0x1 PUSH1 0x40 SHL SUB DUP3 GT OR PUSH2 0xBE6 JUMPI PUSH1 0x40 MSTORE JUMP JUMPDEST SWAP1 PUSH1 0x1F DUP1 NOT SWAP2 ADD AND DUP2 ADD SWAP1 DUP2 LT PUSH1 0x1 PUSH1 0x1 PUSH1 0x40 SHL SUB DUP3 GT OR PUSH2 0xBE6 JUMPI PUSH1 0x40 MSTORE JUMP JUMPDEST SWAP1 PUSH1 0x40 MLOAD SWAP2 DUP3 PUSH1 0x0 DUP3 SLOAD SWAP3 PUSH2 0x1D6F DUP5 PUSH2 0x1CC9 JUMP JUMPDEST SWAP1 DUP2 DUP5 MSTORE PUSH1 0x1 SWAP5 DUP6 DUP2 AND SWAP1 DUP2 PUSH1 0x0 EQ PUSH2 0x1DDE JUMPI POP PUSH1 0x1 EQ PUSH2 0x1D9B JUMPI JUMPDEST POP POP PUSH2 0x1D99 SWAP3 POP SUB DUP4 PUSH2 0x1D3A JUMP JUMPDEST JUMP JUMPDEST SWAP1 SWAP4 SWAP2 POP PUSH1 0x0 MSTORE PUSH1 0x20 SWAP1 DUP2 PUSH1 0x0 KECCAK256 SWAP4 PUSH1 0x0 SWAP2 JUMPDEST DUP2 DUP4 LT PUSH2 0x1DC6 JUMPI POP POP PUSH2 0x1D99 SWAP4 POP DUP3 ADD ADD CODESIZE DUP1 PUSH2 0x1D8B JUMP JUMPDEST DUP6 SLOAD DUP9 DUP5 ADD DUP6 ADD MSTORE SWAP5 DUP6 ADD SWAP5 DUP8 SWAP5 POP SWAP2 DUP4 ADD SWAP2 PUSH2 0x1DAE JUMP JUMPDEST SWAP2 POP POP PUSH2 0x1D99 SWAP5 POP PUSH1 0x20 SWAP3 POP PUSH1 0xFF NOT AND DUP3 DUP5 ADD MSTORE ISZERO ISZERO PUSH1 0x5 SHL DUP3 ADD ADD CODESIZE DUP1 PUSH2 0x1D8B JUMP JUMPDEST PUSH1 0x1 PUSH1 0x1 PUSH1 0x40 SHL SUB DUP2 GT PUSH2 0xBE6 JUMPI PUSH1 0x1F ADD PUSH1 0x1F NOT AND PUSH1 0x20 ADD SWAP1 JUMP JUMPDEST DUP2 PUSH1 0x1F DUP3 ADD SLT ISZERO PUSH2 0xE8 JUMPI DUP1 CALLDATALOAD SWAP1 PUSH2 0x1E33 DUP3 PUSH2 0x1E01 JUMP JUMPDEST SWAP3 PUSH2 0x1E41 PUSH1 0x40 MLOAD SWAP5 DUP6 PUSH2 0x1D3A JUMP JUMPDEST DUP3 DUP5 MSTORE PUSH1 0x20 DUP4 DUP4 ADD ADD GT PUSH2 0xE8 JUMPI DUP2 PUSH1 0x0 SWAP3 PUSH1 0x20 DUP1 SWAP4 ADD DUP4 DUP7 ADD CALLDATACOPY DUP4 ADD ADD MSTORE SWAP1 JUMP JUMPDEST DUP2 PUSH1 0x1F DUP3 ADD SLT ISZERO PUSH2 0xE8 JUMPI DUP1 MLOAD PUSH2 0x1E79 DUP2 PUSH2 0x1E01 JUMP JUMPDEST SWAP3 PUSH2 0x1E87 PUSH1 0x40 MLOAD SWAP5 DUP6 PUSH2 0x1D3A JUMP JUMPDEST DUP2 DUP5 MSTORE PUSH1 0x20 DUP3 DUP5 ADD ADD GT PUSH2 0xE8 JUMPI PUSH2 0x1EA5 SWAP2 PUSH1 0x20 DUP1 DUP6 ADD SWAP2 ADD PUSH2 0x1AC6 JUMP JUMPDEST SWAP1 JUMP JUMPDEST MLOAD SWAP1 PUSH1 0x1 PUSH1 0x1 PUSH1 0xA0 SHL SUB DUP3 AND DUP3 SUB PUSH2 0xE8 JUMPI JUMP JUMPDEST PUSH1 0x1 PUSH1 0x1 PUSH1 0x40 SHL SUB DUP2 GT PUSH2 0xBE6 JUMPI PUSH1 0x5 SHL PUSH1 0x20 ADD SWAP1 JUMP JUMPDEST PUSH1 0x20 SWAP2 DUP3 DUP3 DUP3 SUB SLT PUSH2 0xE8 JUMPI DUP2 MLOAD PUSH1 0x1 PUSH1 0x1 PUSH1 0x40 SHL SUB SWAP3 DUP4 DUP3 GT PUSH2 0xE8 JUMPI ADD SWAP2 PUSH2 0x100 SWAP4 DUP5 DUP5 DUP5 SUB SLT PUSH2 0xE8 JUMPI PUSH1 0x40 MLOAD SWAP5 DUP6 ADD DUP6 DUP2 LT DUP4 DUP3 GT OR PUSH2 0xBE6 JUMPI PUSH1 0x40 MSTORE DUP4 MLOAD DUP6 MSTORE DUP1 DUP5 ADD MLOAD DUP3 DUP2 GT PUSH2 0xE8 JUMPI DUP4 PUSH2 0x1F2F SWAP2 DUP7 ADD PUSH2 0x1E63 JUMP JUMPDEST DUP2 DUP7 ADD MSTORE PUSH1 0x40 DUP5 ADD MLOAD PUSH1 0x2 DUP2 LT ISZERO PUSH2 0xE8 JUMPI PUSH1 0x40 DUP7 ADD MSTORE PUSH2 0x1F52 PUSH1 0x60 DUP6 ADD PUSH2 0x1EA8 JUMP JUMPDEST PUSH1 0x60 DUP7 ADD MSTORE PUSH1 0x80 DUP5 ADD MLOAD DUP3 DUP2 GT PUSH2 0xE8 JUMPI DUP5 ADD SWAP1 DUP4 PUSH1 0x1F DUP4 ADD SLT ISZERO PUSH2 0xE8 JUMPI DUP2 MLOAD SWAP2 PUSH2 0x1F7D DUP4 PUSH2 0x1EBC JUMP JUMPDEST SWAP3 PUSH2 0x1F8B PUSH1 0x40 MLOAD SWAP5 DUP6 PUSH2 0x1D3A JUMP JUMPDEST DUP1 DUP5 MSTORE DUP3 DUP1 DUP6 ADD SWAP2 PUSH1 0x5 SHL DUP4 ADD ADD SWAP2 DUP7 DUP4 GT PUSH2 0xE8 JUMPI DUP4 ADD SWAP1 JUMPDEST DUP3 DUP3 LT PUSH2 0x1FFA JUMPI POP POP POP POP PUSH1 0x80 DUP6 ADD MSTORE PUSH1 0xA0 DUP4 ADD MLOAD PUSH1 0xA0 DUP6 ADD MSTORE PUSH1 0xC0 DUP4 ADD MLOAD DUP2 DUP2 GT PUSH2 0xE8 JUMPI DUP3 PUSH2 0x1FD7 SWAP2 DUP6 ADD PUSH2 0x1E63 JUMP JUMPDEST PUSH1 0xC0 DUP6 ADD MSTORE PUSH1 0xE0 DUP4 ADD MLOAD SWAP1 DUP2 GT PUSH2 0xE8 JUMPI PUSH2 0x1FF2 SWAP3 ADD PUSH2 0x1E63 JUMP JUMPDEST PUSH1 0xE0 DUP3 ADD MSTORE SWAP1 JUMP JUMPDEST DUP4 DUP1 SWAP2 PUSH2 0x2006 DUP5 PUSH2 0x1EA8 JUMP JUMPDEST DUP2 MSTORE ADD SWAP2 ADD SWAP1 PUSH2 0x1FA5 JUMP JUMPDEST DUP2 DUP2 LT PUSH2 0x201C JUMPI POP POP JUMP JUMPDEST PUSH1 0x0 DUP2 SSTORE PUSH1 0x1 ADD PUSH2 0x2011 JUMP JUMPDEST SWAP1 PUSH2 0x2032 DUP2 PUSH2 0x1B0E JUMP JUMPDEST DUP2 SLOAD PUSH1 0xFF PUSH1 0xA0 SHL NOT AND PUSH1 0xA0 SWAP2 SWAP1 SWAP2 SHL PUSH1 0xFF PUSH1 0xA0 SHL AND OR SWAP1 SSTORE JUMP JUMPDEST SWAP1 PUSH1 0x4 DUP2 LT ISZERO PUSH2 0x2F2 JUMPI PUSH2 0xFF00 DUP3 SLOAD SWAP2 PUSH1 0x8 SHL AND SWAP1 PUSH2 0xFF00 NOT AND OR SWAP1 SSTORE JUMP JUMPDEST PUSH1 0x0 NOT DUP2 EQ PUSH2 0x464 JUMPI PUSH1 0x1 ADD SWAP1 JUMP JUMPDEST ISZERO PUSH2 0x2081 JUMPI JUMP JUMPDEST PUSH1 0x40 MLOAD PUSH3 0x461BCD PUSH1 0xE5 SHL DUP2 MSTORE PUSH1 0x20 PUSH1 0x4 DUP3 ADD MSTORE PUSH1 0x13 PUSH1 0x24 DUP3 ADD MSTORE PUSH19 0x155CD95C881B9BDD081C9959DA5CDD195C9959 PUSH1 0x6A SHL PUSH1 0x44 DUP3 ADD MSTORE PUSH1 0x64 SWAP1 REVERT JUMPDEST DUP1 SLOAD DUP3 LT ISZERO PUSH2 0x1CB3 JUMPI PUSH1 0x0 MSTORE PUSH1 0x20 PUSH1 0x0 KECCAK256 ADD SWAP1 PUSH1 0x0 SWAP1 JUMP JUMPDEST PUSH1 0x1 PUSH1 0x1 PUSH1 0xA0 SHL SUB DUP2 AND PUSH1 0x0 SWAP1 DUP2 MSTORE PUSH1 0x20 DUP2 SWAP1 MSTORE PUSH1 0x40 SWAP1 KECCAK256 SLOAD PUSH2 0x20F8 SWAP1 ISZERO ISZERO PUSH2 0x207A JUMP JUMPDEST PUSH1 0x1 PUSH1 0x1 PUSH1 0xA0 SHL SUB AND PUSH1 0x0 SWAP1 DUP2 MSTORE PUSH1 0x20 DUP2 SWAP1 MSTORE PUSH1 0x40 DUP2 KECCAK256 SLOAD PUSH1 0x0 NOT DUP2 ADD SWAP1 DUP2 GT PUSH2 0x2197 JUMPI PUSH2 0x2125 SWAP1 PUSH2 0x1C78 JUMP JUMPDEST POP PUSH1 0x6 ADD DUP1 SLOAD SWAP2 DUP1 JUMPDEST DUP4 DUP2 LT PUSH2 0x216B JUMPI POP PUSH1 0x1 PUSH1 0x40 SHL DUP4 LT ISZERO PUSH2 0x2157 JUMPI POP DUP2 PUSH2 0x1A33 SWAP2 PUSH1 0x1 PUSH2 0x1D99 SWAP6 SWAP5 ADD DUP2 SSTORE PUSH2 0x20BC JUMP JUMPDEST PUSH4 0x4E487B71 PUSH1 0xE0 SHL DUP2 MSTORE PUSH1 0x41 PUSH1 0x4 MSTORE PUSH1 0x24 SWAP1 REVERT JUMPDEST DUP5 PUSH2 0x2176 DUP3 DUP6 PUSH2 0x20BC JUMP JUMPDEST SWAP1 SLOAD SWAP1 PUSH1 0x3 SHL SHR EQ PUSH2 0x2190 JUMPI PUSH2 0x218B SWAP1 PUSH2 0x206B JUMP JUMPDEST PUSH2 0x212E JUMP JUMPDEST POP POP POP POP POP JUMP JUMPDEST PUSH4 0x4E487B71 PUSH1 0xE0 SHL DUP3 MSTORE PUSH1 0x11 PUSH1 0x4 MSTORE PUSH1 0x24 DUP3 REVERT JUMPDEST SWAP1 PUSH1 0x40 MLOAD SWAP2 DUP3 DUP2 SLOAD SWAP2 DUP3 DUP3 MSTORE PUSH1 0x20 SWAP3 DUP4 DUP4 ADD SWAP2 PUSH1 0x0 MSTORE DUP4 PUSH1 0x0 KECCAK256 SWAP4 PUSH1 0x0 SWAP1 JUMPDEST DUP3 DUP3 LT PUSH2 0x21E0 JUMPI POP POP POP PUSH2 0x1D99 SWAP3 POP SUB DUP4 PUSH2 0x1D3A JUMP JUMPDEST DUP6 SLOAD DUP5 MSTORE PUSH1 0x1 SWAP6 DUP7 ADD SWAP6 DUP9 SWAP6 POP SWAP4 DUP2 ADD SWAP4 SWAP1 SWAP2 ADD SWAP1 PUSH2 0x21CA JUMP JUMPDEST SWAP1 PUSH1 0x40 MLOAD PUSH2 0x2207 DUP2 PUSH2 0x1D03 JUMP JUMPDEST DUP1 SWAP3 PUSH2 0x2212 DUP2 PUSH2 0x1D5B JUMP JUMPDEST DUP3 MSTORE PUSH2 0x2220 PUSH1 0x1 DUP3 ADD PUSH2 0x1D5B JUMP JUMPDEST PUSH1 0x20 DUP4 ADD MSTORE PUSH2 0x2231 PUSH1 0x2 DUP3 ADD PUSH2 0x1D5B JUMP JUMPDEST PUSH1 0x40 DUP4 ADD MSTORE PUSH1 0x3 DUP2 ADD SLOAD PUSH1 0x1 PUSH1 0x1 PUSH1 0xA0 SHL SUB DUP2 AND PUSH1 0x60 DUP5 ADD MSTORE PUSH1 0xA0 SHR PUSH1 0xFF AND PUSH2 0x2259 DUP2 PUSH2 0x1B0E JUMP JUMPDEST PUSH1 0x80 DUP4 ADD MSTORE PUSH1 0x4 DUP2 ADD SLOAD PUSH1 0xA0 DUP4 ADD MSTORE PUSH1 0xFF PUSH1 0x5 DUP3 ADD SLOAD DUP2 DUP2 AND ISZERO ISZERO PUSH1 0xC0 DUP6 ADD MSTORE PUSH1 0x8 SHR AND SWAP1 PUSH1 0x4 DUP3 LT ISZERO PUSH2 0x2F2 JUMPI PUSH1 0x8 PUSH2 0x22B9 SWAP2 PUSH2 0x140 SWAP4 PUSH1 0xE0 DUP7 ADD MSTORE PUSH2 0x22A2 PUSH1 0x6 DUP3 ADD PUSH2 0x21AB JUMP JUMPDEST PUSH2 0x100 DUP7 ADD MSTORE PUSH1 0x7 DUP2 ADD SLOAD PUSH2 0x120 DUP7 ADD MSTORE ADD PUSH2 0x1D5B JUMP JUMPDEST SWAP2 ADD MSTORE JUMP JUMPDEST SWAP1 PUSH2 0x22C8 DUP3 PUSH2 0x1EBC JUMP JUMPDEST PUSH1 0x40 SWAP1 PUSH2 0x22D7 DUP3 MLOAD SWAP2 DUP3 PUSH2 0x1D3A JUMP JUMPDEST DUP4 DUP2 MSTORE DUP1 SWAP4 PUSH2 0x22E8 PUSH1 0x1F NOT SWAP2 PUSH2 0x1EBC JUMP JUMPDEST ADD SWAP2 PUSH1 0x0 JUMPDEST DUP4 DUP2 LT PUSH2 0x22FA JUMPI POP POP POP POP JUMP JUMPDEST PUSH1 0x20 SWAP1 DUP3 MLOAD PUSH2 0x2308 DUP2 PUSH2 0x1D03 JUMP JUMPDEST PUSH1 0x60 DUP1 DUP3 MSTORE DUP4 SWAP1 DUP1 DUP3 DUP5 ADD MSTORE DUP1 DUP7 DUP5 ADD MSTORE PUSH1 0x0 DUP2 DUP5 ADD MSTORE PUSH1 0x0 PUSH1 0x80 DUP5 ADD MSTORE PUSH1 0x0 PUSH1 0xA0 DUP5 ADD MSTORE PUSH1 0x0 PUSH1 0xC0 DUP5 ADD MSTORE PUSH1 0x0 PUSH1 0xE0 DUP5 ADD MSTORE DUP1 PUSH2 0x100 DUP5 ADD MSTORE PUSH1 0x0 PUSH2 0x120 DUP5 ADD MSTORE PUSH2 0x140 DUP4 ADD MSTORE DUP3 DUP7 ADD ADD MSTORE ADD PUSH2 0x22ED JUMP JUMPDEST DUP1 MLOAD DUP3 LT ISZERO PUSH2 0x1CB3 JUMPI PUSH1 0x20 SWAP2 PUSH1 0x5 SHL ADD ADD SWAP1 JUMP INVALID LOG2 PUSH5 0x6970667358 0x22 SLT KECCAK256 DUP16 GT CALLDATALOAD 0x2B 0xE1 GASLIMIT BYTE SWAP14 PUSH5 0xBA4E50F7B6 CHAINID DIV 0x4F 0xCB 0xD8 0xC1 0xBF 0xCA PUSH2 0x357E LOG3 REVERT 0xE6 PUSH29 0xE78D1A64736F6C63430008130033000000000000000000000000000000 "},"methodIdentifiers":{"addPetToUser(address,uint256)":"f2658413","checkUserIsRegistered(address)":"eac50f6b","deployer()":"d5f39488","getAllUsers()":"e2842d79","getUserInfo(address)":"6386c1c7","getUserPetIds(address)":"23b1ddc6","getUsersByInstitution(uint256)":"2640d5ea","getUsersByRole(uint8)":"ddb7a4de","institutionManagerAddress()":"5c828f37","removePetFromUser(address,uint256)":"0a86fdff","setUserProfile(string,string,string,uint8,uint256,string)":"42dd0779","updateUserRole(address,uint8)":"c291fe62","userIdCounter()":"2faba6ae","userIds(address)":"4081db51","users(uint256)":"365b98b2"}}}}}