{"contracts/PetManager.sol":{"PetManager":{"abi":[{"inputs":[{"internalType":"address","name":"_userManagerAddress","type":"address"},{"internalType":"address","name":"_institutionManagerAddress","type":"address"}],"stateMutability":"nonpayable","type":"constructor"},{"inputs":[{"internalType":"uint256","name":"_petId","type":"uint256"},{"internalType":"address","name":"_adopter","type":"address"},{"internalType":"string","name":"_notes","type":"string"},{"internalType":"uint256","name":"_institutionId","type":"uint256"}],"name":"addAdoptionEvent","outputs":[{"internalType":"uint256","name":"","type":"uint256"}],"stateMutability":"nonpayable","type":"function"},{"inputs":[{"internalType":"uint256","name":"_petId","type":"uint256"},{"internalType":"string","name":"_diagnosis","type":"string"},{"internalType":"string","name":"_treatment","type":"string"},{"internalType":"uint256","name":"_cost","type":"uint256"},{"internalType":"string[]","name":"_attachments","type":"string[]"}],"name":"addMedicalEvent","outputs":[{"internalType":"uint256","name":"","type":"uint256"}],"stateMutability":"nonpayable","type":"function"},{"inputs":[{"internalType":"string","name":"_name","type":"string"},{"internalType":"string","name":"_species","type":"string"},{"internalType":"string","name":"_breed","type":"string"},{"internalType":"string","name":"_gender","type":"string"},{"internalType":"uint256","name":"_age","type":"uint256"},{"internalType":"string","name":"_description","type":"string"},{"internalType":"string","name":"_image","type":"string"},{"internalType":"enum IMyPetBase.PetHealthStatus","name":"_healthStatus","type":"uint8"},{"internalType":"enum IMyPetBase.PetAdoptionStatus","name":"_adoptionStatus","type":"uint8"}],"name":"addPet","outputs":[{"internalType":"uint256","name":"","type":"uint256"}],"stateMutability":"nonpayable","type":"function"},{"inputs":[{"internalType":"string","name":"_location","type":"string"},{"internalType":"string","name":"_description","type":"string"},{"internalType":"string[]","name":"_images","type":"string[]"},{"internalType":"uint256","name":"_urgencyLevel","type":"uint256"}],"name":"addRescueRequest","outputs":[{"internalType":"uint256","name":"","type":"uint256"}],"stateMutability":"nonpayable","type":"function"},{"inputs":[],"name":"adoptionEventIdCounter","outputs":[{"internalType":"uint256","name":"","type":"uint256"}],"stateMutability":"view","type":"function"},{"inputs":[{"internalType":"uint256","name":"","type":"uint256"}],"name":"adoptionEvents","outputs":[{"internalType":"uint256","name":"id","type":"uint256"},{"internalType":"uint256","name":"petId","type":"uint256"},{"internalType":"address","name":"adopter","type":"address"},{"internalType":"uint256","name":"timestamp","type":"uint256"},{"internalType":"string","name":"notes","type":"string"},{"internalType":"address","name":"previousOwner","type":"address"},{"internalType":"uint256","name":"institutionId","type":"uint256"}],"stateMutability":"view","type":"function"},{"inputs":[{"internalType":"uint256","name":"_eventId","type":"uint256"}],"name":"getAdoptionEvent","outputs":[{"components":[{"internalType":"uint256","name":"id","type":"uint256"},{"internalType":"uint256","name":"petId","type":"uint256"},{"internalType":"address","name":"adopter","type":"address"},{"internalType":"uint256","name":"timestamp","type":"uint256"},{"internalType":"string","name":"notes","type":"string"},{"internalType":"address","name":"previousOwner","type":"address"},{"internalType":"uint256","name":"institutionId","type":"uint256"}],"internalType":"struct IMyPetBase.AdoptionEvent","name":"","type":"tuple"}],"stateMutability":"view","type":"function"},{"inputs":[],"name":"getAllPets","outputs":[{"components":[{"internalType":"uint256","name":"id","type":"uint256"},{"internalType":"string","name":"name","type":"string"},{"internalType":"string","name":"species","type":"string"},{"internalType":"string","name":"breed","type":"string"},{"internalType":"string","name":"gender","type":"string"},{"internalType":"uint256","name":"age","type":"uint256"},{"internalType":"string","name":"description","type":"string"},{"internalType":"string","name":"image","type":"string"},{"internalType":"enum IMyPetBase.PetHealthStatus","name":"healthStatus","type":"uint8"},{"internalType":"enum IMyPetBase.PetAdoptionStatus","name":"adoptionStatus","type":"uint8"},{"internalType":"address","name":"owner","type":"address"},{"internalType":"uint256[]","name":"medicalRecordIds","type":"uint256[]"},{"internalType":"uint256","name":"lastUpdatedAt","type":"uint256"}],"internalType":"struct IMyPetBase.Pet[]","name":"","type":"tuple[]"}],"stateMutability":"view","type":"function"},{"inputs":[],"name":"getAllRescueRequests","outputs":[{"components":[{"internalType":"uint256","name":"id","type":"uint256"},{"internalType":"string","name":"location","type":"string"},{"internalType":"string","name":"description","type":"string"},{"internalType":"string","name":"status","type":"string"},{"internalType":"uint256","name":"responderOrgId","type":"uint256"},{"internalType":"uint256","name":"timestamp","type":"uint256"},{"internalType":"address","name":"requester","type":"address"},{"internalType":"string[]","name":"images","type":"string[]"},{"internalType":"uint256","name":"urgencyLevel","type":"uint256"}],"internalType":"struct IMyPetBase.RescueRequest[]","name":"","type":"tuple[]"}],"stateMutability":"view","type":"function"},{"inputs":[{"internalType":"uint256","name":"_eventId","type":"uint256"}],"name":"getMedicalEvent","outputs":[{"components":[{"internalType":"uint256","name":"id","type":"uint256"},{"internalType":"uint256","name":"petId","type":"uint256"},{"internalType":"string","name":"diagnosis","type":"string"},{"internalType":"string","name":"treatment","type":"string"},{"internalType":"uint256","name":"timestamp","type":"uint256"},{"internalType":"uint256","name":"hospital","type":"uint256"},{"internalType":"address","name":"doctor","type":"address"},{"internalType":"uint256","name":"cost","type":"uint256"},{"internalType":"string[]","name":"attachments","type":"string[]"}],"internalType":"struct IMyPetBase.MedicalEvent","name":"","type":"tuple"}],"stateMutability":"view","type":"function"},{"inputs":[{"internalType":"uint256","name":"_petId","type":"uint256"}],"name":"getPetAdoptionHistory","outputs":[{"components":[{"internalType":"uint256","name":"id","type":"uint256"},{"internalType":"uint256","name":"petId","type":"uint256"},{"internalType":"address","name":"adopter","type":"address"},{"internalType":"uint256","name":"timestamp","type":"uint256"},{"internalType":"string","name":"notes","type":"string"},{"internalType":"address","name":"previousOwner","type":"address"},{"internalType":"uint256","name":"institutionId","type":"uint256"}],"internalType":"struct IMyPetBase.AdoptionEvent[]","name":"","type":"tuple[]"}],"stateMutability":"view","type":"function"},{"inputs":[{"internalType":"uint256","name":"_petId","type":"uint256"}],"name":"getPetById","outputs":[{"components":[{"internalType":"uint256","name":"id","type":"uint256"},{"internalType":"string","name":"name","type":"string"},{"internalType":"string","name":"species","type":"string"},{"internalType":"string","name":"breed","type":"string"},{"internalType":"string","name":"gender","type":"string"},{"internalType":"uint256","name":"age","type":"uint256"},{"internalType":"string","name":"description","type":"string"},{"internalType":"string","name":"image","type":"string"},{"internalType":"enum IMyPetBase.PetHealthStatus","name":"healthStatus","type":"uint8"},{"internalType":"enum IMyPetBase.PetAdoptionStatus","name":"adoptionStatus","type":"uint8"},{"internalType":"address","name":"owner","type":"address"},{"internalType":"uint256[]","name":"medicalRecordIds","type":"uint256[]"},{"internalType":"uint256","name":"lastUpdatedAt","type":"uint256"}],"internalType":"struct IMyPetBase.Pet","name":"","type":"tuple"}],"stateMutability":"view","type":"function"},{"inputs":[{"internalType":"uint256","name":"_petId","type":"uint256"}],"name":"getPetMedicalHistory","outputs":[{"components":[{"internalType":"uint256","name":"id","type":"uint256"},{"internalType":"uint256","name":"petId","type":"uint256"},{"internalType":"string","name":"diagnosis","type":"string"},{"internalType":"string","name":"treatment","type":"string"},{"internalType":"uint256","name":"timestamp","type":"uint256"},{"internalType":"uint256","name":"hospital","type":"uint256"},{"internalType":"address","name":"doctor","type":"address"},{"internalType":"uint256","name":"cost","type":"uint256"},{"internalType":"string[]","name":"attachments","type":"string[]"}],"internalType":"struct IMyPetBase.MedicalEvent[]","name":"","type":"tuple[]"}],"stateMutability":"view","type":"function"},{"inputs":[{"internalType":"enum IMyPetBase.PetAdoptionStatus","name":"_status","type":"uint8"}],"name":"getPetsByAdoptionStatus","outputs":[{"components":[{"internalType":"uint256","name":"id","type":"uint256"},{"internalType":"string","name":"name","type":"string"},{"internalType":"string","name":"species","type":"string"},{"internalType":"string","name":"breed","type":"string"},{"internalType":"string","name":"gender","type":"string"},{"internalType":"uint256","name":"age","type":"uint256"},{"internalType":"string","name":"description","type":"string"},{"internalType":"string","name":"image","type":"string"},{"internalType":"enum IMyPetBase.PetHealthStatus","name":"healthStatus","type":"uint8"},{"internalType":"enum IMyPetBase.PetAdoptionStatus","name":"adoptionStatus","type":"uint8"},{"internalType":"address","name":"owner","type":"address"},{"internalType":"uint256[]","name":"medicalRecordIds","type":"uint256[]"},{"internalType":"uint256","name":"lastUpdatedAt","type":"uint256"}],"internalType":"struct IMyPetBase.Pet[]","name":"","type":"tuple[]"}],"stateMutability":"view","type":"function"},{"inputs":[{"internalType":"enum IMyPetBase.PetHealthStatus","name":"_status","type":"uint8"}],"name":"getPetsByHealthStatus","outputs":[{"components":[{"internalType":"uint256","name":"id","type":"uint256"},{"internalType":"string","name":"name","type":"string"},{"internalType":"string","name":"species","type":"string"},{"internalType":"string","name":"breed","type":"string"},{"internalType":"string","name":"gender","type":"string"},{"internalType":"uint256","name":"age","type":"uint256"},{"internalType":"string","name":"description","type":"string"},{"internalType":"string","name":"image","type":"string"},{"internalType":"enum IMyPetBase.PetHealthStatus","name":"healthStatus","type":"uint8"},{"internalType":"enum IMyPetBase.PetAdoptionStatus","name":"adoptionStatus","type":"uint8"},{"internalType":"address","name":"owner","type":"address"},{"internalType":"uint256[]","name":"medicalRecordIds","type":"uint256[]"},{"internalType":"uint256","name":"lastUpdatedAt","type":"uint256"}],"internalType":"struct IMyPetBase.Pet[]","name":"","type":"tuple[]"}],"stateMutability":"view","type":"function"},{"inputs":[{"internalType":"uint256","name":"_requestId","type":"uint256"}],"name":"getRescueRequest","outputs":[{"components":[{"internalType":"uint256","name":"id","type":"uint256"},{"internalType":"string","name":"location","type":"string"},{"internalType":"string","name":"description","type":"string"},{"internalType":"string","name":"status","type":"string"},{"internalType":"uint256","name":"responderOrgId","type":"uint256"},{"internalType":"uint256","name":"timestamp","type":"uint256"},{"internalType":"address","name":"requester","type":"address"},{"internalType":"string[]","name":"images","type":"string[]"},{"internalType":"uint256","name":"urgencyLevel","type":"uint256"}],"internalType":"struct IMyPetBase.RescueRequest","name":"","type":"tuple"}],"stateMutability":"view","type":"function"},{"inputs":[{"internalType":"address","name":"_user","type":"address"}],"name":"getUserPets","outputs":[{"components":[{"internalType":"uint256","name":"id","type":"uint256"},{"internalType":"string","name":"name","type":"string"},{"internalType":"string","name":"species","type":"string"},{"internalType":"string","name":"breed","type":"string"},{"internalType":"string","name":"gender","type":"string"},{"internalType":"uint256","name":"age","type":"uint256"},{"internalType":"string","name":"description","type":"string"},{"internalType":"string","name":"image","type":"string"},{"internalType":"enum IMyPetBase.PetHealthStatus","name":"healthStatus","type":"uint8"},{"internalType":"enum IMyPetBase.PetAdoptionStatus","name":"adoptionStatus","type":"uint8"},{"internalType":"address","name":"owner","type":"address"},{"internalType":"uint256[]","name":"medicalRecordIds","type":"uint256[]"},{"internalType":"uint256","name":"lastUpdatedAt","type":"uint256"}],"internalType":"struct IMyPetBase.Pet[]","name":"","type":"tuple[]"}],"stateMutability":"view","type":"function"},{"inputs":[{"internalType":"address","name":"_user","type":"address"}],"name":"getUserRescueRequests","outputs":[{"components":[{"internalType":"uint256","name":"id","type":"uint256"},{"internalType":"string","name":"location","type":"string"},{"internalType":"string","name":"description","type":"string"},{"internalType":"string","name":"status","type":"string"},{"internalType":"uint256","name":"responderOrgId","type":"uint256"},{"internalType":"uint256","name":"timestamp","type":"uint256"},{"internalType":"address","name":"requester","type":"address"},{"internalType":"string[]","name":"images","type":"string[]"},{"internalType":"uint256","name":"urgencyLevel","type":"uint256"}],"internalType":"struct IMyPetBase.RescueRequest[]","name":"","type":"tuple[]"}],"stateMutability":"view","type":"function"},{"inputs":[],"name":"institutionManagerAddress","outputs":[{"internalType":"address","name":"","type":"address"}],"stateMutability":"view","type":"function"},{"inputs":[],"name":"medicalEventIdCounter","outputs":[{"internalType":"uint256","name":"","type":"uint256"}],"stateMutability":"view","type":"function"},{"inputs":[{"internalType":"uint256","name":"","type":"uint256"}],"name":"medicalEvents","outputs":[{"internalType":"uint256","name":"id","type":"uint256"},{"internalType":"uint256","name":"petId","type":"uint256"},{"internalType":"string","name":"diagnosis","type":"string"},{"internalType":"string","name":"treatment","type":"string"},{"internalType":"uint256","name":"timestamp","type":"uint256"},{"internalType":"uint256","name":"hospital","type":"uint256"},{"internalType":"address","name":"doctor","type":"address"},{"internalType":"uint256","name":"cost","type":"uint256"}],"stateMutability":"view","type":"function"},{"inputs":[],"name":"petIdCounter","outputs":[{"internalType":"uint256","name":"","type":"uint256"}],"stateMutability":"view","type":"function"},{"inputs":[{"internalType":"uint256","name":"","type":"uint256"}],"name":"pets","outputs":[{"internalType":"uint256","name":"id","type":"uint256"},{"internalType":"string","name":"name","type":"string"},{"internalType":"string","name":"species","type":"string"},{"internalType":"string","name":"breed","type":"string"},{"internalType":"string","name":"gender","type":"string"},{"internalType":"uint256","name":"age","type":"uint256"},{"internalType":"string","name":"description","type":"string"},{"internalType":"string","name":"image","type":"string"},{"internalType":"enum IMyPetBase.PetHealthStatus","name":"healthStatus","type":"uint8"},{"internalType":"enum IMyPetBase.PetAdoptionStatus","name":"adoptionStatus","type":"uint8"},{"internalType":"address","name":"owner","type":"address"},{"internalType":"uint256","name":"lastUpdatedAt","type":"uint256"}],"stateMutability":"view","type":"function"},{"inputs":[{"internalType":"uint256","name":"_petId","type":"uint256"}],"name":"removePet","outputs":[],"stateMutability":"nonpayable","type":"function"},{"inputs":[],"name":"rescueRequestIdCounter","outputs":[{"internalType":"uint256","name":"","type":"uint256"}],"stateMutability":"view","type":"function"},{"inputs":[{"internalType":"uint256","name":"","type":"uint256"}],"name":"rescueRequests","outputs":[{"internalType":"uint256","name":"id","type":"uint256"},{"internalType":"string","name":"location","type":"string"},{"internalType":"string","name":"description","type":"string"},{"internalType":"string","name":"status","type":"string"},{"internalType":"uint256","name":"responderOrgId","type":"uint256"},{"internalType":"uint256","name":"timestamp","type":"uint256"},{"internalType":"address","name":"requester","type":"address"},{"internalType":"uint256","name":"urgencyLevel","type":"uint256"}],"stateMutability":"view","type":"function"},{"inputs":[{"internalType":"uint256","name":"_petId","type":"uint256"},{"internalType":"string","name":"_name","type":"string"},{"internalType":"string","name":"_species","type":"string"},{"internalType":"string","name":"_breed","type":"string"},{"internalType":"string","name":"_gender","type":"string"},{"internalType":"uint256","name":"_age","type":"uint256"},{"internalType":"string","name":"_description","type":"string"},{"internalType":"string","name":"_image","type":"string"},{"internalType":"enum IMyPetBase.PetHealthStatus","name":"_healthStatus","type":"uint8"},{"internalType":"enum IMyPetBase.PetAdoptionStatus","name":"_adoptionStatus","type":"uint8"}],"name":"updatePet","outputs":[],"stateMutability":"nonpayable","type":"function"},{"inputs":[{"internalType":"uint256","name":"_petId","type":"uint256"},{"internalType":"enum IMyPetBase.PetAdoptionStatus","name":"_adoptionStatus","type":"uint8"}],"name":"updatePetAdoptionStatus","outputs":[],"stateMutability":"nonpayable","type":"function"},{"inputs":[{"internalType":"uint256","name":"_petId","type":"uint256"},{"internalType":"enum IMyPetBase.PetHealthStatus","name":"_healthStatus","type":"uint8"}],"name":"updatePetHealthStatus","outputs":[],"stateMutability":"nonpayable","type":"function"},{"inputs":[{"internalType":"uint256","name":"_requestId","type":"uint256"},{"internalType":"string","name":"_status","type":"string"},{"internalType":"uint256","name":"_responderOrgId","type":"uint256"}],"name":"updateRescueRequestStatus","outputs":[],"stateMutability":"nonpayable","type":"function"},{"inputs":[],"name":"userManagerAddress","outputs":[{"internalType":"address","name":"","type":"address"}],"stateMutability":"view","type":"function"}],"evm":{"bytecode":{"linkReferences":{},"object":"60c0346200017c57601f6200520a38819003918201601f19168301916001600160401b03831184841017620001815780849260409485528339810103126200017c576200005a6020620000528362000197565b920162000197565b600180805560058190556006819055600755906001600160a01b03808216156200013757821615620000e65760805260a05260405161505d9081620001ad82396080518181816103cd015281816123a6015281816132cc015281816135690152613910015260a05181818161080701528181610a720152818161351001528181613b5a0152613e2c0152f35b60405162461bcd60e51b815260206004820152602360248201527f496e76616c696420696e737469747574696f6e206d616e61676572206164647260448201526265737360e81b6064820152608490fd5b60405162461bcd60e51b815260206004820152601c60248201527f496e76616c69642075736572206d616e616765722061646472657373000000006044820152606490fd5b600080fd5b634e487b7160e01b600052604160045260246000fd5b51906001600160a01b03821682036200017c5756fe608080604052600436101561001357600080fd5b600090813560e01c9081630262df23146140ac575080630c0e88df14613dca57806311eedb6114613cd35780631c1c28f414613af057806332e414bf14613a6457806346910856146139cc5780634a95525d1461393f5780634d1def2c146138fa57806350c688b31461383357806359f95c25146138155780635b236d971461353f5780635c828f37146134fa5780638480f69e1461348f5780638ccdb9e5146133a05780638e5e7d671461322e578063926c9bcf146130ae578063a50a6eb014612a3c578063a9dae805146128a7578063b0e29ab714611edc578063b6ce010c1461173c578063ba8cd53214611620578063bf2fbcae1461156e578063cb920509146114fd578063cfb869bf146113b6578063d0c2dc0614611283578063e737963b146109cb578063ed0f162f1461079d578063eda95cb71461077f578063f29bc9de146106b5578063f664d942146106975763feed30131461017657600080fd5b34610694576080366003190112610694576024356001600160a01b038116900361068f576044356001600160401b0381116104b0576101b990369060040161416a565b600435151580610682575b6101cd906148f8565b600435600019810190811161066e576101e59061481f565b5060018060a01b03600882015460101c1690600554926102048461486d565b60055560405161021381614113565b848152602081019160043583526040820160018060a01b036024351681526060830190428252608084019283528660a085015260643560c0850152600254600160401b81101561065a5780600161026d92016002556144e6565b9590956106465784518655516001860155516002850180546001600160a01b0319166001600160a01b03929092169190911790555160038401555180516001600160401b0381116106325760048401916102c78354614537565b601f81116105f7575b50602090601f831160011461058d57918060c09492600696948c92610582575b50508160011b916000199060031b1c19161790555b60a08101516005850180546001600160a01b0319166001600160a01b03928316179055910151919092015560088281018054601090811c8416885260208381526040808a2060048035808d52918452828c20805460ff199081169091558654610100602480359889901b62010000600160b01b0316610100600160b01b0319909316929092171790975542600a909a01999099559387168b52948252808a20948a529381528389208054909616600117909555915163eac50f6b60e01b8082529281018690527f0000000000000000000000000000000000000000000000000000000000000000909316949193879391829081885afa9081156104b4578391610563575b506104fd575b5050604051908152602480356001600160a01b03166004830152602090829081855afa9081156104f25784916104c3575b50610451575b602082604051908152f35b803b156104bf5760405163f265841360e01b8152602480356001600160a01b031660048084019190915235908201529083908290818381604481015b03925af180156104b45715610446576104a683916140c8565b6104b05781610446565b5080fd5b6040513d85823e3d90fd5b8280fd5b6104e5915060203d6020116104eb575b6104dd818361412e565b8101906148e0565b38610440565b503d6104d3565b6040513d86823e3d90fd5b833b156104b057604051630a86fdff60e01b81526001600160a01b0391909116600480830191909152356024820152818160448183885af18015610558571561040f57610549906140c8565b61055457833861040f565b8380fd5b6040513d84823e3d90fd5b61057c915060203d6020116104eb576104dd818361412e565b38610409565b0151905038806102f0565b838a5260208a209190601f1984168b5b8181106105df57509260019285926006989660c09896106105c6575b505050811b019055610305565b015160001960f88460031b161c191690553880806105b9565b9293602060018192878601518155019501930161059d565b61062290848b5260208b20601f850160051c81019160208610610628575b601f0160051c0190614892565b386102d0565b9091508190610615565b634e487b7160e01b88526041600452602488fd5b634e487b7160e01b8a5260048a905260248afd5b634e487b7160e01b8a52604160045260248afd5b634e487b7160e01b83526011600452602483fd5b50600154600435106101c4565b600080fd5b80fd5b50346106945780600319360112610694576020600554604051908152f35b503461069457602036600319011261069457600435906106d3614df5565b5081151580610774575b1561072f57600019820191821161071b576107176107036106fd84614652565b50614e8e565b60405191829160208352602083019061468d565b0390f35b634e487b7160e01b81526011600452602490fd5b60405162461bcd60e51b815260206004820152601c60248201527f4d65646963616c206576656e7420646f6573206e6f74206578697374000000006044820152606490fd5b5060065482106106dd565b50346106945780600319360112610694576020600754604051908152f35b50346106945760403660031901126106945760248035600480359082101561055457801515806109c0575b6107d1906148f8565b60001981019081116109ad576107e69061481f565b5060405163584fab0f60e01b815233600482015290926001600160a01b03917f000000000000000000000000000000000000000000000000000000000000000083166020828481845afa9182156109a257879261096f575b50868092806108ed575b50505060088501923390845460101c16149081156108e5575b501561087b575090610872916148a9565b600a4291015580f35b60849060396040519162461bcd60e51b8352602060048401528201527f4f6e6c7920706574206f776e6572206f7220686f73706974616c20737461666660448201527f2063616e20757064617465206865616c746820737461747573000000000000006064820152fd5b905038610861565b909192508360405180948193630418ed2160e21b835260048301525afa8015610964576040918791610942575b500151600281101561092f5715388681610848565b50634e487b7160e01b8552602160045284fd5b61095e91503d8089833e610956818361412e565b8101906149cf565b3861091a565b6040513d88823e3d90fd5b9091506020813d821161099a575b8161098a6020938361412e565b8101031261068f5751903861083e565b3d915061097d565b6040513d89823e3d90fd5b634e487b7160e01b845260116004528284fd5b5060015481106107c8565b50346106945760a0366003190112610694576024356001600160401b0381116104b0576109fc90369060040161416a565b6044356001600160401b0381116104bf57610a1b90369060040161416a565b906084356001600160401b03811161055457610a3b90369060040161472c565b600435151580611276575b610a4f906148f8565b815115611231578251156111ec5760405163584fab0f60e01b81523360048201527f00000000000000000000000000000000000000000000000000000000000000006001600160a01b03169085602082602481865afa9182156111df5781926111aa575b508192610ac36024931515614d91565b60405192838092630418ed2160e21b82528660048301525afa8015610964576040918791611190575b500151600281101561117c576111285760065493610b098561486d565b60065560405193610b19856140db565b85855260043560208601526040850152606084015242608084015260a08301523360c083015260643560e0830152610100820152600354600160401b81101561111457806001610b6c9201600355614652565b91909161110057805182556020810151600183015560408101518051906001600160401b03821161103f578190610ba66002860154614537565b601f81116110cd575b50602090601f831160011461105e578792611053575b50508160011b916000199060031b1c19161760028301555b60608101518051906001600160401b03821161103f57610c006003850154614537565b601f811161100c575b50602090601f8311600114610f9b57610100939291879183610f90575b50508160011b916000199060031b1c19161760038401555b6080810151600484015560a081015160058401556006830160018060a01b0360c0830151166bffffffffffffffffffffffff60a01b82541617905560e08101516007840155015190815191600160401b8311610f7c576008820154836008840155808410610f04575b50602060089101910184526020842084915b838310610df5578585600435600019810190811161066e57610cda9061481f565b50600981019283549060018201808311610de157610d10610cfa82614715565b91610d08604051938461412e565b808352614715565b602082019190601f1901368337825b848110610dbe575085610d328583614bbe565b5251926001600160401b038411610daa57600160401b8411610daa57838755808410610d8f575b5094815260208120905b828110610d7b5742600a850155604051858152602090f35b600190602087519701968184015501610d63565b86835260208320610da4918101908501614892565b86610d59565b634e487b7160e01b83526041600452602483fd5b610ddc9088855280602086200154610dd68285614bbe565b5261486d565b610d1f565b634e487b7160e01b82526011600452602482fd5b80518051906001600160401b03821161063257610e128454614537565b601f8111610ed4575b50602090601f8311600114610e675792826001949360209386958c92610e5c575b5050600019600383901b1c191690841b1785555b01920192019190610cb9565b015190503880610e3c565b908489526020892091895b601f1985168110610ebc575083602093600196938796938794601f19811610610ea3575b505050811b018555610e50565b015160001960f88460031b161c19169055388080610e96565b91926020600181928685015181550194019201610e72565b610efe90858a5260208a20601f850160051c8101916020861061062857601f0160051c0190614892565b38610e1b565b60088301865260208620908482015b8183018110610f23575050610ca7565b8088610f3160019354614537565b80610f3f575b505001610f13565b601f81118414610f57575050600081555b8838610f37565b828252610f72601f60208420920160051c8201858301614892565b6000835555610f50565b634e487b7160e01b85526041600452602485fd5b015190503880610c26565b906003850187526020872091875b601f1985168110610ff457509183916001936101009695601f19811610610fdb575b505050811b016003840155610c3e565b015160001960f88460031b161c19169055388080610fcb565b91926020600181928685015181550194019201610fa9565b6110399060038601885260208820601f850160051c8101916020861061062857601f0160051c0190614892565b38610c09565b634e487b7160e01b86526041600452602486fd5b015190503880610bc5565b9250600285018752602087209087935b601f19841685106110b2576001945083601f19811610611099575b505050811b016002830155610bdd565b015160001960f88460031b161c19169055388080611089565b8181015183556020948501946001909301929091019061106e565b6110fa9060028701895260208920601f850160051c8101916020861061062857601f0160051c0190614892565b38610baf565b634e487b7160e01b84526004849052602484fd5b634e487b7160e01b84526041600452602484fd5b60405162461bcd60e51b815260206004820152602660248201527f43616c6c6572277320696e737469747574696f6e206973206e6f74206120686f6044820152651cdc1a5d185b60d21b6064820152608490fd5b634e487b7160e01b86526021600452602486fd5b6111a491503d8089833e610956818361412e565b38610aec565b9150506020813d6020116111d7575b816111c66020938361412e565b8101031261068f5751856024610ab3565b3d91506111b9565b50604051903d90823e3d90fd5b60405162461bcd60e51b815260206004820152601960248201527f54726561746d656e742063616e6e6f7420626520656d707479000000000000006044820152606490fd5b60405162461bcd60e51b815260206004820152601960248201527f446961676e6f7369732063616e6e6f7420626520656d707479000000000000006044820152606490fd5b5060015460043510610a46565b5034610694576020806003193601126104b05761129e614809565b6004549183916001600160a01b0390811691835b85811061137c57506112c386614715565b956112d1604051978861412e565b8087526112e0601f1991614715565b01845b81811061136657505050825b84811061130457604051806107178882614484565b8282600661131184614617565b5001541614611329575b6113249061486d565b6112ef565b9261135e6113249161134361133d87614617565b50614f9d565b61134d828a614bbe565b526113588189614bbe565b5061486d565b93905061131b565b8290611370614f56565b82828b010152016112e3565b8383600661138984614617565b50015416146113a1575b61139c9061486d565b6112b2565b956113ae61139c9161486d565b969050611393565b50346106945760203660031901126106945760043581548110156104b0576113dd9061481f565b5080546113ec60018301614571565b916113f960028201614571565b61140560038301614571565b9161141260048201614571565b9060058101546006820161142590614571565b61143160078401614571565b9160088401549460ff8616978660081c60ff1695600a0154976040519b8c9b8c528b6101806020819201528c01611467916141d4565b8b810360408d0152611478916141d4565b8a810360608c0152611489916141d4565b89810360808b015261149a916141d4565b9060a089015287810360c08901526114b1916141d4565b86810360e08801526114c2916141d4565b936114cc816141f9565b6101008601526114db816141f9565b61012085015260101c6001600160a01b03166101408401526101608301520390f35b5034610694576020366003190112610694576004359061151b614b0d565b5081151580611563575b61152e906148f8565b600019820191821161071b5761071761154f6115498461481f565b50614bd2565b604051918291602083526020830190614219565b506001548210611525565b5034610694576020366003190112610694576004359061158c614cf7565b5081151580611615575b156115d057600019820191821161071b576107176115bc6115b6846144e6565b50614d30565b6040519182916020835260208301906147ac565b60405162461bcd60e51b815260206004820152601d60248201527f41646f7074696f6e206576656e7420646f6573206e6f742065786973740000006044820152606490fd5b506005548210611596565b50346106945760203660031901126106945761163a614809565b600180546001600160a01b0392831692909184905b8381106116df575061166090614b6e565b92849060015b84811061167b57604051806107178882614335565b60001981018181116116cb57828560086116948461481f565b50015460101c16146116b0575b506116ab9061486d565b611666565b6116ab91936113436115496116c49361481f565b92906116a1565b634e487b7160e01b88526011600452602488fd5b6000198101818111611728578360086116f8889361481f565b50015460101c1614611713575b61170e9061486d565b61164f565b9061172061170e9161486d565b919050611705565b634e487b7160e01b87526011600452602487fd5b503461069457610140366003190112610694576004356024356001600160401b0381116104bf5761177190369060040161416a565b916044356001600160401b0381116104b05761179190369060040161416a565b926064356001600160401b0381116104bf576117b190369060040161416a565b6084356001600160401b038111610554576117d090369060040161416a565b9060c4356001600160401b038111611ed8576117f090369060040161416a565b9560e4356001600160401b038111611ed45761181090369060040161416a565b956004610104351015611ed4576004610124351015611ed45780151580611ec9575b61183b906148f8565b6000198101908111611eb557806118726118576118779361481f565b50600801543360109190911c6001600160a01b031614614939565b61481f565b50938051906001600160401b038211611ea15781906118996001880154614537565b601f8111611e6e575b50602090601f8311600114611e00578892611df5575b50508160011b916000199060031b1c19161760018501555b8051906001600160401b03821161103f5781906118f06002870154614537565b601f8111611dc2575b50602090601f8311600114611d54578792611d49575b50508160011b916000199060031b1c19161760028401555b8051906001600160401b038211610f7c5781906119476003860154614537565b601f8111611d16575b50602090601f8311600114611ca8578692611c9d575b50508160011b916000199060031b1c19161760038301555b8051906001600160401b03821161111457819061199e6004850154614537565b601f8111611c6a575b50602090601f8311600114611bfc578592611bf1575b50508160011b916000199060031b1c19161760048201555b60a435600582015583516001600160401b038111610daa576119fa6006830154614537565b601f8111611bbe575b506020601f8211600114611b535783949582939492611b48575b50508160011b916000199060031b1c19161760068201555b6007810183516001600160401b03811161111457611a538254614537565b601f8111611b18575b50602094601f8211600114611ab6579484958293949592611aab575b50508160011b916000199060031b1c19161790555b61087260088201611aa161010435826148a9565b61012435906148c1565b015190503880611a78565b601f1982169583865280862091865b888110611b0057508360019596979810611ae7575b505050811b019055611a8d565b015160001960f88460031b161c19169055388080611ada565b91926020600181928685015181550194019201611ac5565b611b429083865260208620601f840160051c8101916020851061062857601f0160051c0190614892565b38611a5c565b015190503880611a1d565b60068301845280842090845b601f1984168110611ba6575060019394959683601f19811610611b8d575b505050811b016006820155611a35565b015160001960f88460031b161c19169055388080611b7d565b9091602060018192858b015181550193019101611b5f565b611beb9060068401855260208520601f840160051c8101916020851061062857601f0160051c0190614892565b38611a03565b0151905038806119bd565b92506004840185528085209085935b601f1984168510611c4f576001945083601f19811610611c36575b505050811b0160048201556119d5565b015160001960f88460031b161c19169055388080611c26565b81810151835560209485019460019093019290910190611c0b565b611c979060048601875260208720601f850160051c8101916020861061062857601f0160051c0190614892565b386119a7565b015190503880611966565b92506003850186528086209086935b601f1984168510611cfb576001945083601f19811610611ce2575b505050811b01600383015561197e565b015160001960f88460031b161c19169055388080611cd2565b81810151835560209485019460019093019290910190611cb7565b611d439060038701885260208820601f850160051c8101916020861061062857601f0160051c0190614892565b38611950565b01519050388061190f565b92506002860187528087209087935b601f1984168510611da7576001945083601f19811610611d8e575b505050811b016002840155611927565b015160001960f88460031b161c19169055388080611d7e565b81810151835560209485019460019093019290910190611d63565b611def9060028801895260208920601f850160051c8101916020861061062857601f0160051c0190614892565b386118f9565b0151905038806118b8565b92506001870188528088209088935b601f1984168510611e53576001945083601f19811610611e3a575b505050811b0160018501556118d0565b015160001960f88460031b161c19169055388080611e2a565b81810151835560209485019460019093019290910190611e0f565b611e9b90600189018a5260208a20601f850160051c8101916020861061062857601f0160051c0190614892565b386118a2565b634e487b7160e01b87526041600452602487fd5b634e487b7160e01b86526011600452602486fd5b506001548110611832565b8580fd5b8480fd5b503461069457610120366003190112610694576004356001600160401b0381116104b057611f0e90369060040161416a565b6024356001600160401b0381116104bf57611f2d90369060040161416a565b906044356001600160401b03811161055457611f4d90369060040161416a565b916064356001600160401b038111611ed857611f6d90369060040161416a565b60a4356001600160401b038111611ed457611f8c90369060040161416a565b60c4356001600160401b0381116128a357611fab90369060040161416a565b91600460e43510156128a35760046101043510156128a35760015495611fd08761486d565b600155604051948560208101106001600160401b0360208801111761288d576020860160405288865260405196612006886140f7565b888852602088015260408701526060860152608085015260843560a085015260c084015260e083015261203a60e4356141f9565b60e43561010083015261204f610104356141f9565b6101043561012083015233610140830152610160820152426101808201528254600160401b8110156111145780600161208a9201855561481f565b611100578151815560208201518051906001600160401b03821161103f5781906120b76001850154614537565b601f811161285a575b50602090601f83116001146127eb5787926127e0575b50508160011b916000199060031b1c19161760018201555b60408201518051906001600160401b03821161103f5781906121136002850154614537565b601f81116127ad575b50602090601f831160011461273e578792612733575b50508160011b916000199060031b1c19161760028201555b60608201518051906001600160401b03821161103f57819061216f6003850154614537565b601f8111612700575b50602090601f8311600114612691578792612686575b50508160011b916000199060031b1c19161760038201555b60808201518051906001600160401b03821161103f5781906121cb6004850154614537565b601f8111612653575b50602090601f83116001146125e45787926125d9575b50508160011b916000199060031b1c19161760048201555b60a0820151600582015560c08201518051906001600160401b03821161103f5781906122316006850154614537565b601f81116125a6575b50602090601f831160011461253757879261252c575b50508160011b916000199060031b1c19161760068201555b60e08201518051906001600160401b03821161103f57819061228d6007850154614537565b601f81116124f9575b50602090601f831160011461248a57879261247f575b50508160011b916000199060031b1c19161760078201555b60088101916122e16101008201516122db816141f9565b846148a9565b6122f96101208201516122f3816141f9565b846148c1565b610140810151835462010000600160b01b03191660109190911b62010000600160b01b0316179092556001600160a01b039160098201610160820151908151916001600160401b03831161063257600160401b8311610632576020908254848455808510612465575b500190875260208720875b8381106124515750505050610180600a91015191015533835260086020526040832082845260205260408320600160ff198254161790557f00000000000000000000000000000000000000000000000000000000000000001660405163eac50f6b60e01b8152336004820152602081602481855afa9081156104f2578491612432575b5061240057602082604051908152f35b803b156104bf5760405163f265841360e01b81523360048201526024810183905290839082908183816044810161048d565b61244b915060203d6020116104eb576104dd818361412e565b386123f0565b60019060208451940193818401550161236d565b838a52828a20612479918101908601614892565b38612362565b0151905038806122ac565b9250600784018752602087209087935b601f19841685106124de576001945083601f198116106124c5575b505050811b0160078201556122c4565b015160001960f88460031b161c191690553880806124b5565b8181015183556020948501946001909301929091019061249a565b6125269060078601895260208920601f850160051c8101916020861061062857601f0160051c0190614892565b38612296565b015190503880612250565b9250600684018752602087209087935b601f198416851061258b576001945083601f19811610612572575b505050811b016006820155612268565b015160001960f88460031b161c19169055388080612562565b81810151835560209485019460019093019290910190612547565b6125d39060068601895260208920601f850160051c8101916020861061062857601f0160051c0190614892565b3861223a565b0151905038806121ea565b9250600484018752602087209087935b601f1984168510612638576001945083601f1981161061261f575b505050811b016004820155612202565b015160001960f88460031b161c1916905538808061260f565b818101518355602094850194600190930192909101906125f4565b6126809060048601895260208920601f850160051c8101916020861061062857601f0160051c0190614892565b386121d4565b01519050388061218e565b9250600384018752602087209087935b601f19841685106126e5576001945083601f198116106126cc575b505050811b0160038201556121a6565b015160001960f88460031b161c191690553880806126bc565b818101518355602094850194600190930192909101906126a1565b61272d9060038601895260208920601f850160051c8101916020861061062857601f0160051c0190614892565b38612178565b015190503880612132565b9250600284018752602087209087935b601f1984168510612792576001945083601f19811610612779575b505050811b01600282015561214a565b015160001960f88460031b161c19169055388080612769565b8181015183556020948501946001909301929091019061274e565b6127da9060028601895260208920601f850160051c8101916020861061062857601f0160051c0190614892565b3861211c565b0151905038806120d6565b9250600184018752602087209087935b601f198416851061283f576001945083601f19811610612826575b505050811b0160018201556120ee565b015160001960f88460031b161c19169055388080612816565b818101518355602094850194600190930192909101906127fb565b6128879060018601895260208920601f850160051c8101916020861061062857601f0160051c0190614892565b386120c0565b634e487b7160e01b600052604160045260246000fd5b8680fd5b5034610694576020806003193601126104b05760043580151580612a31575b6128d2909392936148f8565b6002548291825b8281106129f357506128ea83614715565b926128f8604051948561412e565b808452612907601f1991614715565b01845b8181106129d85750508390845b83811061297e575050505060405191838301848452825180915260408401948060408360051b870101940192955b8287106129525785850386f35b90919293828061296e600193603f198a820301865288516147ac565b9601920196019592919092612945565b81600161298d839998996144e6565b500154146129a7575b61299f9061486d565b959495612917565b916129d061299f916129bb6115b6866144e6565b6129c58289614bbe565b526113588188614bbe565b929050612996565b958095966129e4614cf7565b8282880101520195949561290a565b816001612a02839897986144e6565b50015414612a1c575b612a149061486d565b9493946128d9565b92612a29612a149161486d565b939050612a0b565b5060015481106128c6565b5034610694576080366003190112610694576004356001600160401b0381116104b057612a6d90369060040161416a565b906024356001600160401b0381116104b057612a8d90369060040161416a565b916044356001600160401b0381116104bf57612aad90369060040161472c565b9160075492612abb8461486d565b60075560405194612acb866140db565b848652602086019384526040860152604051604081018181106001600160401b0382111761288d57604052600781526670656e64696e6760c81b602082015260608601528160808601524260a08601523360c086015260e0850152606435610100850152600454600160401b81101561309a57806001612b4e9201600455614617565b9290926130865784518355518051906001600160401b038211610daa578190612b7a6001860154614537565b601f8111613053575b50602090601f8311600114612fe4578492612fd9575b50508160011b916000199060031b1c19161760018301555b60408401518051906001600160401b038211610daa578190612bd66002860154614537565b601f8111612fa6575b50602090601f8311600114612f37578492612f2c575b50508160011b916000199060031b1c19161760028301555b60608401518051906001600160401b038211610daa578190612c326003860154614537565b601f8111612ef9575b50602090601f8311600114612e8a578492612e7f575b50508160011b916000199060031b1c19161760038301555b6080840151600483015560a084015160058301556006820160018060a01b0360c0860151166bffffffffffffffffffffffff60a01b82541617905560e0840151805190600160401b8211610daa576007840154826007860155808310612e07575b506020016007840183526020832083915b838310612cf8576101008801516008870155604051878152602090f35b80518051906001600160401b038211611ea157612d158454614537565b601f8111612dd7575b50602090601f8311600114612d6a5792826001949360209386958b92612d5f575b5050600019600383901b1c191690841b1785555b01920192019190612cdb565b015190503880612d3f565b908488526020882091885b601f1985168110612dbf575083602093600196938796938794601f19811610612da6575b505050811b018555612d53565b015160001960f88460031b161c19169055388080612d99565b91926020600181928685015181550194019201612d75565b612e019085895260208920601f850160051c8101916020861061062857601f0160051c0190614892565b38612d1e565b60078501845260208420908382015b8183018110612e26575050612cca565b8086612e3460019354614537565b80612e42575b505001612e16565b601f81118414612e5a575050600081555b8638612e3a565b828252612e75601f60208420920160051c8201858301614892565b6000835555612e53565b015190503880612c51565b9250600385018452602084209084935b601f1984168510612ede576001945083601f19811610612ec5575b505050811b016003830155612c69565b015160001960f88460031b161c19169055388080612eb5565b81810151835560209485019460019093019290910190612e9a565b612f269060038701865260208620601f850160051c8101916020861061062857601f0160051c0190614892565b38612c3b565b015190503880612bf5565b9250600285018452602084209084935b601f1984168510612f8b576001945083601f19811610612f72575b505050811b016002830155612c0d565b015160001960f88460031b161c19169055388080612f62565b81810151835560209485019460019093019290910190612f47565b612fd39060028701865260208620601f850160051c8101916020861061062857601f0160051c0190614892565b38612bdf565b015190503880612b99565b9250600185018452602084209084935b601f1984168510613038576001945083601f1981161061301f575b505050811b016001830155612bb1565b015160001960f88460031b161c1916905538808061300f565b81810151835560209485019460019093019290910190612ff4565b6130809060018701865260208620601f850160051c8101916020861061062857601f0160051c0190614892565b38612b83565b634e487b7160e01b82526004829052602482fd5b634e487b7160e01b82526041600452602482fd5b5034610694576020806003193601126104b05760043580151580613223575b6130d9909392936148f8565b6003548291825b8281106131e557506130f183614715565b926130ff604051948561412e565b80845261310e601f1991614715565b01845b8181106131ca5750508390845b838110613185575050505060405191838301848452825180915260408401948060408360051b870101940192955b8287106131595785850386f35b909192938280613175600193603f198a8203018652885161468d565b960192019601959291909261314c565b81600161319483999899614652565b500154146131ae575b6131a69061486d565b95949561311e565b916131c26131a6916129bb6106fd86614652565b92905061319d565b958095966131d6614df5565b82828801015201959495613111565b8160016131f483989798614652565b5001541461320e575b6132069061486d565b9493946130e0565b9261321b6132069161486d565b9390506131fd565b5060015481106130cd565b50346106945760209081600319360112610694576004359182151580613395575b613258906148f8565b60001983019280841161066e57600861329085611872613278879861481f565b5060018060a01b03948591015460101c163314614939565b5060088101610300610100600160b01b0319825416179055600a42910155338452600883526040842082855283526040842060ff1981541690557f0000000000000000000000000000000000000000000000000000000000000000169160405163eac50f6b60e01b81523360048201528181602481875afa91821561338a57859261336d575b5050613320575050f35b813b1561336957604051630a86fdff60e01b8152336004820152602481019190915291908290604490829084905af180156105585761335d575080f35b613366906140c8565b80f35b5050fd5b6133839250803d106104eb576104dd818361412e565b3880613316565b6040513d87823e3d90fd5b50600154831061324f565b5034610694576020366003190112610694576004359060048210156106945780549080805b83811061344257506133d690614b6e565b92815b8381106133ee57604051806107178782614335565b8160ff60086133fc8461481f565b50015416613409826141f9565b613412816141f9565b14613426575b6134219061486d565b6133d9565b9161343a613421916129bb6115498661481f565b929050613418565b8460ff60086134508461481f565b5001541661345d826141f9565b613466816141f9565b1461347a575b6134759061486d565b6133c5565b906134876134759161486d565b91905061346c565b503461069457602036600319011261069457600435906134ad614f56565b50811515806134ef575b6134c090614f11565b600019820191821161071b576107176134db61133d84614617565b6040519182916020835260208301906143f3565b5060075482106134b7565b50346106945780600319360112610694576040517f00000000000000000000000000000000000000000000000000000000000000006001600160a01b03168152602090f35b503461069457806003193601126106945760405163eac50f6b60e01b8152336004820152602091907f00000000000000000000000000000000000000000000000000000000000000006001600160a01b0316908381602481855afa9081156104b45783916137f8575b50156137bd578160249160405192838092636386c1c760e01b82523360048301525afa9081156105585782916136dc575b506135e3816141f9565b80159081156136c8575b501561366c579081546135ff81614715565b9161360d604051938461412e565b8183528380527f290decd9548b62a8d60345a988386fc84ba6bc95484008f6362f93160ef3e56393908084015b83831061364f57604051806107178782614335565b600b8260019261365e89614bd2565b81520196019201919461363a565b60405162461bcd60e51b815260048101839052602e60248201527f4f6e6c792061646d696e206f7220686f73706974616c2073746166662063616e60448201526d207669657720616c6c207065747360901b6064820152608490fd5b600291506136d5816141f9565b14386135ed565b90503d8083833e6136ed818361412e565b8101610180828203126104bf57838201516001600160401b0390818111611ed8578261371a918501614979565b506040830151818111611ed85782613733918501614979565b506060830151818111611ed8578261374c918501614979565b50613759608084016149bb565b50600260a084015110156105545760e0830151818111611ed8578261377f918501614979565b506002610100840151101561055457610120830151926004841015611ed857610160810151918211611ed8576137b6929101614979565b50386135d9565b60405162461bcd60e51b8152600481018490526013602482015272155cd95c881b9bdd081c9959da5cdd195c9959606a1b6044820152606490fd5b61380f9150843d86116104eb576104dd818361412e565b386135a8565b50346106945780600319360112610694576020600154604051908152f35b5034610694576020366003190112610694576004356004548110156104b05761385b90614617565b50805461386a60018301614571565b9161387760028201614571565b61388360038301614571565b916004810154926138e16005830154916138d3600860018060a01b03600687015416950154956138c56040519a8b9a8b526101008060208d01528b01906141d4565b9089820360408b01526141d4565b9087820360608901526141d4565b93608086015260a085015260c084015260e08301520390f35b50346106945780600319360112610694576040517f00000000000000000000000000000000000000000000000000000000000000006001600160a01b03168152602090f35b5034610694576020366003190112610694576004356003548110156104b05761396790614652565b50805460018201549161397c60028201614571565b61398860038301614571565b916004810154926138e16005830154916138d3600760018060a01b0360068701541695015495604051998a998a5260208a01526101008060408b01528901906141d4565b5034610694576020366003190112610694576004356002548110156104b0576139f4906144e6565b50805460018201549160018060a01b03613a55816002840154169160038401546006613a2260048701614571565b9260058701541695015493604051978897885260208801526040870152606086015260e0608086015260e08501906141d4565b9160a084015260c08301520390f35b5034610694578060031936011261069457600454613a8181614715565b90613a8f604051928361412e565b808252600483527f8a35acfbc15ff81a39ae7d344fd709f28e8600b4aa8c65c6b64bfe7fe36bd19b9260208084015b838310613ad357604051806107178782614484565b600982600192613ae289614f9d565b815201960192019194613abe565b5034610694576040366003190112610694576024803560048035908210156105545780151580613cc8575b613b24906148f8565b60001981019081116109ad57613b399061481f565b5060405163584fab0f60e01b815233600482015290926001600160a01b03917f000000000000000000000000000000000000000000000000000000000000000083166020828481845afa9182156109a2578792613c95575b5086809280613c37575b50505060088501923390845460101c1614908115613c2f575b5015613bc5575090610872916148c1565b608490603a6040519162461bcd60e51b8352602060048401528201527f4f6e6c7920706574206f776e6572206f72207368656c7465722073746166662060448201527f63616e207570646174652061646f7074696f6e207374617475730000000000006064820152fd5b905038613bb4565b909192508360405180948193630418ed2160e21b835260048301525afa8015610964576040918791613c7b575b500151600281101561092f57600114388681613b9b565b613c8f91503d8089833e610956818361412e565b38613c64565b9091506020813d8211613cc0575b81613cb06020938361412e565b810103126128a357519038613b91565b3d9150613ca3565b506001548110613b1b565b5034610694576020366003190112610694576004359060048210156106945780549080805b838110613d795750613d0990614b6e565b92815b838110613d2157604051806107178782614335565b8160ff613d2d8361481f565b50600880910154901c16613d40826141f9565b613d49816141f9565b14613d5d575b613d589061486d565b613d0c565b91613d71613d58916129bb6115498661481f565b929050613d4f565b8460ff613d858361481f565b50600880910154901c16613d98826141f9565b613da1816141f9565b14613db5575b613db09061486d565b613cf8565b90613dc2613db09161486d565b919050613da7565b5034610694576060366003190112610694576001600160401b0360246004358135838111611ed857613e0090369060040161416a565b92811515806140a1575b613e1390614f11565b60405163584fab0f60e01b8152336004820152602092907f00000000000000000000000000000000000000000000000000000000000000006001600160a01b031690879085818881865afa908115610558578291614074575b50613e78811515614d91565b8660405180948193630418ed2160e21b835260048301525afa80156109a257604091889161405a575b500151926002841015614047576001809403613fe85760001991808301908111613fd557613ece90614617565b509560038701958151948511613fc35750613ee98654614537565b601f8111613f95575b5081601f8511600114613f3157509383949184928995613f26575b50501b9260031b1c19161790555b600460443591015580f35b015193503880613f0d565b92919084601f198116888b52858b20958b905b89838310613f7b5750505010613f63575b50505050811b019055613f1b565b01519060f88460031b161c1916905538808080613f55565b858701518955909701969485019488935090810190613f44565b613fbd90878a52838a20601f870160051c81019185881061062857601f0160051c0190614892565b38613ef2565b634e487b7160e01b8952604160045288fd5b634e487b7160e01b885260116004528588fd5b6084906033866040519262461bcd60e51b845260048401528201527f4f6e6c79207368656c7465722073746166662063616e207570646174652072656044820152727363756520726571756573742073746174757360681b6064820152fd5b634e487b7160e01b875260216004528487fd5b61406e91503d808a833e610956818361412e565b38613ea1565b90508581813d831161409a575b61408b818361412e565b810103126104b0575138613e6c565b503d614081565b506007548210613e0a565b9050346104b057816003193601126104b0576020906006548152f35b6001600160401b03811161288d57604052565b61012081019081106001600160401b0382111761288d57604052565b6101a081019081106001600160401b0382111761288d57604052565b60e081019081106001600160401b0382111761288d57604052565b90601f801991011681019081106001600160401b0382111761288d57604052565b6001600160401b03811161288d57601f01601f191660200190565b81601f8201121561068f578035906141818261414f565b9261418f604051948561412e565b8284526020838301011161068f57816000926020809301838601378301015290565b60005b8381106141c45750506000910152565b81810151838201526020016141b4565b906020916141ed815180928185528580860191016141b1565b601f01601f1916010190565b6004111561420357565b634e487b7160e01b600052602160045260246000fd5b90815181526020916142ab61429961427d61426b614259614247888701516101a0808b8b01528901906141d4565b604087015188820360408a01526141d4565b606086015187820360608901526141d4565b608085015186820360808801526141d4565b60a084015160a086015260c084015185820360c08701526141d4565b60e083015184820360e08601526141d4565b9261010080830151906142bd826141f9565b84015261012080830151906142d1826141f9565b840152610140828101516001600160a01b03169084015261016080830151848603918501919091528051808652948201949082019160005b82811061432157505050506101808091015191015290565b835187529581019592810192600101614309565b602080820190808352835180925260408301928160408460051b8301019501936000915b8483106143695750505050505090565b9091929394958480614387600193603f198682030187528a51614219565b9801930193019194939290614359565b908082519081815260208091019281808460051b8301019501936000915b8483106143c55750505050505090565b90919293949584806143e3600193601f198682030187528a516141d4565b98019301930191949392906143b5565b908151815261447661443e61442c61441a60208601516101208060208801528601906141d4565b604086015185820360408701526141d4565b606085015184820360608601526141d4565b6080840151608084015260a084015160a084015260018060a01b0360c08501511660c084015260e084015183820360e0850152614397565b916101008091015191015290565b602080820190808352835180925260408301928160408460051b8301019501936000915b8483106144b85750505050505090565b90919293949584806144d6600193603f198682030187528a516143f3565b98019301930191949392906144a8565b600254811015614521576007906002600052027f405787fa12a823e0f2b7631cc41b3ba8828b3321ca811111fa75cd3aa3bb5ace0190600090565b634e487b7160e01b600052603260045260246000fd5b90600182811c92168015614567575b602083101461455157565b634e487b7160e01b600052602260045260246000fd5b91607f1691614546565b906040519182600082549261458584614537565b9081845260019485811690816000146145f457506001146145b1575b50506145af9250038361412e565b565b9093915060005260209081600020936000915b8183106145dc5750506145af935082010138806145a1565b855488840185015294850194879450918301916145c4565b9150506145af94506020925060ff191682840152151560051b82010138806145a1565b600454811015614521576009906004600052027f8a35acfbc15ff81a39ae7d344fd709f28e8600b4aa8c65c6b64bfe7fe36bd19b0190600090565b600354811015614521576009906003600052027fc2575a0e9e593c00f959f8c92f12db2869c3395a3b0502d05e2516446f71f85b0190600090565b906147129180518252602081015160208301526146ce6146bc60408301516101208060408701528501906141d4565b606083015184820360608601526141d4565b916080820151608082015260a082015160a082015260018060a01b0360c08301511660c082015260e082015160e08201526101008092015191818403910152614397565b90565b6001600160401b03811161288d5760051b60200190565b9080601f8301121561068f5781359061474482614715565b92614752604051948561412e565b828452602092838086019160051b8301019280841161068f57848301915b8483106147805750505050505090565b82356001600160401b03811161068f5786916147a18484809489010161416a565b815201920191614770565b90815181526020820151602082015260c08060018060a01b0393846040820151166040850152606081015160608501526147f5608082015160e0608087015260e08601906141d4565b9460a08201511660a0850152015191015290565b600435906001600160a01b038216820361068f57565b90600091825481101561485957600b90838052027f290decd9548b62a8d60345a988386fc84ba6bc95484008f6362f93160ef3e563019190565b634e487b7160e01b83526032600452602483fd5b600019811461487c5760010190565b634e487b7160e01b600052601160045260246000fd5b81811061489d575050565b60008155600101614892565b906148b3816141f9565b60ff80198354169116179055565b906148cb816141f9565b61ff0082549160081b169061ff001916179055565b9081602091031261068f5751801515810361068f5790565b156148ff57565b60405162461bcd60e51b815260206004820152601260248201527114195d08191bd95cc81b9bdd08195e1a5cdd60721b6044820152606490fd5b1561494057565b60405162461bcd60e51b81526020600482015260116024820152702737ba103a3432903832ba1037bbb732b960791b6044820152606490fd5b81601f8201121561068f57805161498f8161414f565b9261499d604051948561412e565b8184526020828401011161068f5761471291602080850191016141b1565b51906001600160a01b038216820361068f57565b602091828282031261068f5781516001600160401b039283821161068f57019161010093848484031261068f576040519485018581108382111761288d57604052835185528084015182811161068f5783614a2b918601614979565b818601526040840151600281101561068f576040860152614a4e606085016149bb565b6060860152608084015182811161068f5784019083601f8301121561068f57815191614a7983614715565b92614a87604051948561412e565b808452828085019160051b8301019186831161068f578301905b828210614af65750505050608085015260a083015160a085015260c083015181811161068f5782614ad3918501614979565b60c085015260e083015190811161068f57614aee9201614979565b60e082015290565b838091614b02846149bb565b815201910190614aa1565b60405190614b1a826140f7565b81610180600091828152606080602083015280604083015280808301528060808301528360a08301528060c08301528060e08301528361010083015283610120830152836101408301526101608201520152565b90614b7882614715565b614b85604051918261412e565b8281528092614b96601f1991614715565b019060005b828110614ba757505050565b602090614bb2614b0d565b82828501015201614b9b565b80518210156145215760209160051b010190565b90604051614bdf816140f7565b8092805482526001614bf2818301614571565b60209081850152614c0560028401614571565b6040850152614c1660038401614571565b6060850152614c2760048401614571565b6080850152600583015460a0850152614c4260068401614571565b60c0850152614c5360078401614571565b60e0850152600883015460ff8116614c6a816141f9565b61010086015260ff8160081c16614c80816141f9565b61012086015260101c6001600160a01b031661014085015260405160098401805480835260009182528382209294858501949092905b828210614ce25750505050509181614cd5600a9361018095038261412e565b6101608501520154910152565b84548652948501949383019390830190614cb6565b60405190614d0482614113565b8160c0600091828152826020820152826040820152826060820152606060808201528260a08201520152565b90604051614d3d81614113565b60c060068294805484526001810154602085015260018060a01b0380600283015416604086015260038201546060860152614d7a60048301614571565b608086015260058201541660a08501520154910152565b15614d9857565b60405162461bcd60e51b815260206004820152602f60248201527f43616c6c6572206973206e6f742061207374616666206d656d626572206f662060448201526e30b73c9034b739ba34ba3aba34b7b760891b6064820152608490fd5b60405190614e02826140db565b606061010083600080825280602083015283604083015283808301528060808301528060a08301528060c083015260e08201520152565b908154614e4581614715565b92614e53604051948561412e565b818452600090815260208082208186015b848410614e72575050505050565b6001838192614e8085614571565b815201920193019290614e64565b90604051614e9b816140db565b610100614f0c600883958054855260018101546020860152614ebf60028201614571565b6040860152614ed060038201614571565b606086015260048101546080860152600581015460a086015260068101546001600160a01b031660c0860152600781015460e086015201614e39565b910152565b15614f1857565b60405162461bcd60e51b815260206004820152601660248201527514995c5d595cdd08191bd95cc81b9bdd08195e1a5cdd60521b6044820152606490fd5b60405190614f63826140db565b60006101008382815260606020820152606060408201526060808201528260808201528260a08201528260c0820152606060e08201520152565b90604051614faa816140db565b6101006008829480548452614fc160018201614571565b6020850152614fd260028201614571565b6040850152614fe360038201614571565b606085015260048101546080850152600581015460a085015260068101546001600160a01b031660c085015261501b60078201614e39565b60e0850152015491015256fea2646970667358221220154e07ecad791b04ef571cf650e8a82bb878165de838037d8f88e133c420487164736f6c63430008130033","opcodes":"PUSH1 0xC0 CALLVALUE PUSH3 0x17C JUMPI PUSH1 0x1F PUSH3 0x520A CODESIZE DUP2 SWAP1 SUB SWAP2 DUP3 ADD PUSH1 0x1F NOT AND DUP4 ADD SWAP2 PUSH1 0x1 PUSH1 0x1 PUSH1 0x40 SHL SUB DUP4 GT DUP5 DUP5 LT OR PUSH3 0x181 JUMPI DUP1 DUP5 SWAP3 PUSH1 0x40 SWAP5 DUP6 MSTORE DUP4 CODECOPY DUP2 ADD SUB SLT PUSH3 0x17C JUMPI PUSH3 0x5A PUSH1 0x20 PUSH3 0x52 DUP4 PUSH3 0x197 JUMP JUMPDEST SWAP3 ADD PUSH3 0x197 JUMP JUMPDEST PUSH1 0x1 DUP1 DUP1 SSTORE PUSH1 0x5 DUP2 SWAP1 SSTORE PUSH1 0x6 DUP2 SWAP1 SSTORE PUSH1 0x7 SSTORE SWAP1 PUSH1 0x1 PUSH1 0x1 PUSH1 0xA0 SHL SUB DUP1 DUP3 AND ISZERO PUSH3 0x137 JUMPI DUP3 AND ISZERO PUSH3 0xE6 JUMPI PUSH1 0x80 MSTORE PUSH1 0xA0 MSTORE PUSH1 0x40 MLOAD PUSH2 0x505D SWAP1 DUP2 PUSH3 0x1AD DUP3 CODECOPY PUSH1 0x80 MLOAD DUP2 DUP2 DUP2 PUSH2 0x3CD ADD MSTORE DUP2 DUP2 PUSH2 0x23A6 ADD MSTORE DUP2 DUP2 PUSH2 0x32CC ADD MSTORE DUP2 DUP2 PUSH2 0x3569 ADD MSTORE PUSH2 0x3910 ADD MSTORE PUSH1 0xA0 MLOAD DUP2 DUP2 DUP2 PUSH2 0x807 ADD MSTORE DUP2 DUP2 PUSH2 0xA72 ADD MSTORE DUP2 DUP2 PUSH2 0x3510 ADD MSTORE DUP2 DUP2 PUSH2 0x3B5A ADD MSTORE PUSH2 0x3E2C ADD MSTORE RETURN JUMPDEST PUSH1 0x40 MLOAD PUSH3 0x461BCD PUSH1 0xE5 SHL DUP2 MSTORE PUSH1 0x20 PUSH1 0x4 DUP3 ADD MSTORE PUSH1 0x23 PUSH1 0x24 DUP3 ADD MSTORE PUSH32 0x496E76616C696420696E737469747574696F6E206D616E616765722061646472 PUSH1 0x44 DUP3 ADD MSTORE PUSH3 0x657373 PUSH1 0xE8 SHL PUSH1 0x64 DUP3 ADD MSTORE PUSH1 0x84 SWAP1 REVERT JUMPDEST PUSH1 0x40 MLOAD PUSH3 0x461BCD PUSH1 0xE5 SHL DUP2 MSTORE PUSH1 0x20 PUSH1 0x4 DUP3 ADD MSTORE PUSH1 0x1C PUSH1 0x24 DUP3 ADD MSTORE PUSH32 0x496E76616C69642075736572206D616E61676572206164647265737300000000 PUSH1 0x44 DUP3 ADD MSTORE PUSH1 0x64 SWAP1 REVERT JUMPDEST PUSH1 0x0 DUP1 REVERT JUMPDEST PUSH4 0x4E487B71 PUSH1 0xE0 SHL PUSH1 0x0 MSTORE PUSH1 0x41 PUSH1 0x4 MSTORE PUSH1 0x24 PUSH1 0x0 REVERT JUMPDEST MLOAD SWAP1 PUSH1 0x1 PUSH1 0x1 PUSH1 0xA0 SHL SUB DUP3 AND DUP3 SUB PUSH3 0x17C JUMPI JUMP INVALID PUSH1 0x80 DUP1 PUSH1 0x40 MSTORE PUSH1 0x4 CALLDATASIZE LT ISZERO PUSH2 0x13 JUMPI PUSH1 0x0 DUP1 REVERT JUMPDEST PUSH1 0x0 SWAP1 DUP2 CALLDATALOAD PUSH1 0xE0 SHR SWAP1 DUP2 PUSH4 0x262DF23 EQ PUSH2 0x40AC JUMPI POP DUP1 PUSH4 0xC0E88DF EQ PUSH2 0x3DCA JUMPI DUP1 PUSH4 0x11EEDB61 EQ PUSH2 0x3CD3 JUMPI DUP1 PUSH4 0x1C1C28F4 EQ PUSH2 0x3AF0 JUMPI DUP1 PUSH4 0x32E414BF EQ PUSH2 0x3A64 JUMPI DUP1 PUSH4 0x46910856 EQ PUSH2 0x39CC JUMPI DUP1 PUSH4 0x4A95525D EQ PUSH2 0x393F JUMPI DUP1 PUSH4 0x4D1DEF2C EQ PUSH2 0x38FA JUMPI DUP1 PUSH4 0x50C688B3 EQ PUSH2 0x3833 JUMPI DUP1 PUSH4 0x59F95C25 EQ PUSH2 0x3815 JUMPI DUP1 PUSH4 0x5B236D97 EQ PUSH2 0x353F JUMPI DUP1 PUSH4 0x5C828F37 EQ PUSH2 0x34FA JUMPI DUP1 PUSH4 0x8480F69E EQ PUSH2 0x348F JUMPI DUP1 PUSH4 0x8CCDB9E5 EQ PUSH2 0x33A0 JUMPI DUP1 PUSH4 0x8E5E7D67 EQ PUSH2 0x322E JUMPI DUP1 PUSH4 0x926C9BCF EQ PUSH2 0x30AE JUMPI DUP1 PUSH4 0xA50A6EB0 EQ PUSH2 0x2A3C JUMPI DUP1 PUSH4 0xA9DAE805 EQ PUSH2 0x28A7 JUMPI DUP1 PUSH4 0xB0E29AB7 EQ PUSH2 0x1EDC JUMPI DUP1 PUSH4 0xB6CE010C EQ PUSH2 0x173C JUMPI DUP1 PUSH4 0xBA8CD532 EQ PUSH2 0x1620 JUMPI DUP1 PUSH4 0xBF2FBCAE EQ PUSH2 0x156E JUMPI DUP1 PUSH4 0xCB920509 EQ PUSH2 0x14FD JUMPI DUP1 PUSH4 0xCFB869BF EQ PUSH2 0x13B6 JUMPI DUP1 PUSH4 0xD0C2DC06 EQ PUSH2 0x1283 JUMPI DUP1 PUSH4 0xE737963B EQ PUSH2 0x9CB JUMPI DUP1 PUSH4 0xED0F162F EQ PUSH2 0x79D JUMPI DUP1 PUSH4 0xEDA95CB7 EQ PUSH2 0x77F JUMPI DUP1 PUSH4 0xF29BC9DE EQ PUSH2 0x6B5 JUMPI DUP1 PUSH4 0xF664D942 EQ PUSH2 0x697 JUMPI PUSH4 0xFEED3013 EQ PUSH2 0x176 JUMPI PUSH1 0x0 DUP1 REVERT JUMPDEST CALLVALUE PUSH2 0x694 JUMPI PUSH1 0x80 CALLDATASIZE PUSH1 0x3 NOT ADD SLT PUSH2 0x694 JUMPI PUSH1 0x24 CALLDATALOAD PUSH1 0x1 PUSH1 0x1 PUSH1 0xA0 SHL SUB DUP2 AND SWAP1 SUB PUSH2 0x68F JUMPI PUSH1 0x44 CALLDATALOAD PUSH1 0x1 PUSH1 0x1 PUSH1 0x40 SHL SUB DUP2 GT PUSH2 0x4B0 JUMPI PUSH2 0x1B9 SWAP1 CALLDATASIZE SWAP1 PUSH1 0x4 ADD PUSH2 0x416A JUMP JUMPDEST PUSH1 0x4 CALLDATALOAD ISZERO ISZERO DUP1 PUSH2 0x682 JUMPI JUMPDEST PUSH2 0x1CD SWAP1 PUSH2 0x48F8 JUMP JUMPDEST PUSH1 0x4 CALLDATALOAD PUSH1 0x0 NOT DUP2 ADD SWAP1 DUP2 GT PUSH2 0x66E JUMPI PUSH2 0x1E5 SWAP1 PUSH2 0x481F JUMP JUMPDEST POP PUSH1 0x1 DUP1 PUSH1 0xA0 SHL SUB PUSH1 0x8 DUP3 ADD SLOAD PUSH1 0x10 SHR AND SWAP1 PUSH1 0x5 SLOAD SWAP3 PUSH2 0x204 DUP5 PUSH2 0x486D JUMP JUMPDEST PUSH1 0x5 SSTORE PUSH1 0x40 MLOAD PUSH2 0x213 DUP2 PUSH2 0x4113 JUMP JUMPDEST DUP5 DUP2 MSTORE PUSH1 0x20 DUP2 ADD SWAP2 PUSH1 0x4 CALLDATALOAD DUP4 MSTORE PUSH1 0x40 DUP3 ADD PUSH1 0x1 DUP1 PUSH1 0xA0 SHL SUB PUSH1 0x24 CALLDATALOAD AND DUP2 MSTORE PUSH1 0x60 DUP4 ADD SWAP1 TIMESTAMP DUP3 MSTORE PUSH1 0x80 DUP5 ADD SWAP3 DUP4 MSTORE DUP7 PUSH1 0xA0 DUP6 ADD MSTORE PUSH1 0x64 CALLDATALOAD PUSH1 0xC0 DUP6 ADD MSTORE PUSH1 0x2 SLOAD PUSH1 0x1 PUSH1 0x40 SHL DUP2 LT ISZERO PUSH2 0x65A JUMPI DUP1 PUSH1 0x1 PUSH2 0x26D SWAP3 ADD PUSH1 0x2 SSTORE PUSH2 0x44E6 JUMP JUMPDEST SWAP6 SWAP1 SWAP6 PUSH2 0x646 JUMPI DUP5 MLOAD DUP7 SSTORE MLOAD PUSH1 0x1 DUP7 ADD SSTORE MLOAD PUSH1 0x2 DUP6 ADD DUP1 SLOAD PUSH1 0x1 PUSH1 0x1 PUSH1 0xA0 SHL SUB NOT AND PUSH1 0x1 PUSH1 0x1 PUSH1 0xA0 SHL SUB SWAP3 SWAP1 SWAP3 AND SWAP2 SWAP1 SWAP2 OR SWAP1 SSTORE MLOAD PUSH1 0x3 DUP5 ADD SSTORE MLOAD DUP1 MLOAD PUSH1 0x1 PUSH1 0x1 PUSH1 0x40 SHL SUB DUP2 GT PUSH2 0x632 JUMPI PUSH1 0x4 DUP5 ADD SWAP2 PUSH2 0x2C7 DUP4 SLOAD PUSH2 0x4537 JUMP JUMPDEST PUSH1 0x1F DUP2 GT PUSH2 0x5F7 JUMPI JUMPDEST POP PUSH1 0x20 SWAP1 PUSH1 0x1F DUP4 GT PUSH1 0x1 EQ PUSH2 0x58D JUMPI SWAP2 DUP1 PUSH1 0xC0 SWAP5 SWAP3 PUSH1 0x6 SWAP7 SWAP5 DUP13 SWAP3 PUSH2 0x582 JUMPI JUMPDEST POP POP DUP2 PUSH1 0x1 SHL SWAP2 PUSH1 0x0 NOT SWAP1 PUSH1 0x3 SHL SHR NOT AND OR SWAP1 SSTORE JUMPDEST PUSH1 0xA0 DUP2 ADD MLOAD PUSH1 0x5 DUP6 ADD DUP1 SLOAD PUSH1 0x1 PUSH1 0x1 PUSH1 0xA0 SHL SUB NOT AND PUSH1 0x1 PUSH1 0x1 PUSH1 0xA0 SHL SUB SWAP3 DUP4 AND OR SWAP1 SSTORE SWAP2 ADD MLOAD SWAP2 SWAP1 SWAP3 ADD SSTORE PUSH1 0x8 DUP3 DUP2 ADD DUP1 SLOAD PUSH1 0x10 SWAP1 DUP2 SHR DUP5 AND DUP9 MSTORE PUSH1 0x20 DUP4 DUP2 MSTORE PUSH1 0x40 DUP1 DUP11 KECCAK256 PUSH1 0x4 DUP1 CALLDATALOAD DUP1 DUP14 MSTORE SWAP2 DUP5 MSTORE DUP3 DUP13 KECCAK256 DUP1 SLOAD PUSH1 0xFF NOT SWAP1 DUP2 AND SWAP1 SWAP2 SSTORE DUP7 SLOAD PUSH2 0x100 PUSH1 0x24 DUP1 CALLDATALOAD SWAP9 DUP10 SWAP1 SHL PUSH3 0x10000 PUSH1 0x1 PUSH1 0xB0 SHL SUB AND PUSH2 0x100 PUSH1 0x1 PUSH1 0xB0 SHL SUB NOT SWAP1 SWAP4 AND SWAP3 SWAP1 SWAP3 OR OR SWAP1 SWAP8 SSTORE TIMESTAMP PUSH1 0xA SWAP1 SWAP11 ADD SWAP10 SWAP1 SWAP10 SSTORE SWAP4 DUP8 AND DUP12 MSTORE SWAP5 DUP3 MSTORE DUP1 DUP11 KECCAK256 SWAP5 DUP11 MSTORE SWAP4 DUP2 MSTORE DUP4 DUP10 KECCAK256 DUP1 SLOAD SWAP1 SWAP7 AND PUSH1 0x1 OR SWAP1 SWAP6 SSTORE SWAP2 MLOAD PUSH4 0xEAC50F6B PUSH1 0xE0 SHL DUP1 DUP3 MSTORE SWAP3 DUP2 ADD DUP7 SWAP1 MSTORE PUSH32 0x0 SWAP1 SWAP4 AND SWAP5 SWAP2 SWAP4 DUP8 SWAP4 SWAP2 DUP3 SWAP1 DUP2 DUP9 GAS STATICCALL SWAP1 DUP2 ISZERO PUSH2 0x4B4 JUMPI DUP4 SWAP2 PUSH2 0x563 JUMPI JUMPDEST POP PUSH2 0x4FD JUMPI JUMPDEST POP POP PUSH1 0x40 MLOAD SWAP1 DUP2 MSTORE PUSH1 0x24 DUP1 CALLDATALOAD PUSH1 0x1 PUSH1 0x1 PUSH1 0xA0 SHL SUB AND PUSH1 0x4 DUP4 ADD MSTORE PUSH1 0x20 SWAP1 DUP3 SWAP1 DUP2 DUP6 GAS STATICCALL SWAP1 DUP2 ISZERO PUSH2 0x4F2 JUMPI DUP5 SWAP2 PUSH2 0x4C3 JUMPI JUMPDEST POP PUSH2 0x451 JUMPI JUMPDEST PUSH1 0x20 DUP3 PUSH1 0x40 MLOAD SWAP1 DUP2 MSTORE RETURN JUMPDEST DUP1 EXTCODESIZE ISZERO PUSH2 0x4BF JUMPI PUSH1 0x40 MLOAD PUSH4 0xF2658413 PUSH1 0xE0 SHL DUP2 MSTORE PUSH1 0x24 DUP1 CALLDATALOAD PUSH1 0x1 PUSH1 0x1 PUSH1 0xA0 SHL SUB AND PUSH1 0x4 DUP1 DUP5 ADD SWAP2 SWAP1 SWAP2 MSTORE CALLDATALOAD SWAP1 DUP3 ADD MSTORE SWAP1 DUP4 SWAP1 DUP3 SWAP1 DUP2 DUP4 DUP2 PUSH1 0x44 DUP2 ADD JUMPDEST SUB SWAP3 GAS CALL DUP1 ISZERO PUSH2 0x4B4 JUMPI ISZERO PUSH2 0x446 JUMPI PUSH2 0x4A6 DUP4 SWAP2 PUSH2 0x40C8 JUMP JUMPDEST PUSH2 0x4B0 JUMPI DUP2 PUSH2 0x446 JUMP JUMPDEST POP DUP1 REVERT JUMPDEST PUSH1 0x40 MLOAD RETURNDATASIZE DUP6 DUP3 RETURNDATACOPY RETURNDATASIZE SWAP1 REVERT JUMPDEST DUP3 DUP1 REVERT JUMPDEST PUSH2 0x4E5 SWAP2 POP PUSH1 0x20 RETURNDATASIZE PUSH1 0x20 GT PUSH2 0x4EB JUMPI JUMPDEST PUSH2 0x4DD DUP2 DUP4 PUSH2 0x412E JUMP JUMPDEST DUP2 ADD SWAP1 PUSH2 0x48E0 JUMP JUMPDEST CODESIZE PUSH2 0x440 JUMP JUMPDEST POP RETURNDATASIZE PUSH2 0x4D3 JUMP JUMPDEST PUSH1 0x40 MLOAD RETURNDATASIZE DUP7 DUP3 RETURNDATACOPY RETURNDATASIZE SWAP1 REVERT JUMPDEST DUP4 EXTCODESIZE ISZERO PUSH2 0x4B0 JUMPI PUSH1 0x40 MLOAD PUSH4 0xA86FDFF PUSH1 0xE0 SHL DUP2 MSTORE PUSH1 0x1 PUSH1 0x1 PUSH1 0xA0 SHL SUB SWAP2 SWAP1 SWAP2 AND PUSH1 0x4 DUP1 DUP4 ADD SWAP2 SWAP1 SWAP2 MSTORE CALLDATALOAD PUSH1 0x24 DUP3 ADD MSTORE DUP2 DUP2 PUSH1 0x44 DUP2 DUP4 DUP9 GAS CALL DUP1 ISZERO PUSH2 0x558 JUMPI ISZERO PUSH2 0x40F JUMPI PUSH2 0x549 SWAP1 PUSH2 0x40C8 JUMP JUMPDEST PUSH2 0x554 JUMPI DUP4 CODESIZE PUSH2 0x40F JUMP JUMPDEST DUP4 DUP1 REVERT JUMPDEST PUSH1 0x40 MLOAD RETURNDATASIZE DUP5 DUP3 RETURNDATACOPY RETURNDATASIZE SWAP1 REVERT JUMPDEST PUSH2 0x57C SWAP2 POP PUSH1 0x20 RETURNDATASIZE PUSH1 0x20 GT PUSH2 0x4EB JUMPI PUSH2 0x4DD DUP2 DUP4 PUSH2 0x412E JUMP JUMPDEST CODESIZE PUSH2 0x409 JUMP JUMPDEST ADD MLOAD SWAP1 POP CODESIZE DUP1 PUSH2 0x2F0 JUMP JUMPDEST DUP4 DUP11 MSTORE PUSH1 0x20 DUP11 KECCAK256 SWAP2 SWAP1 PUSH1 0x1F NOT DUP5 AND DUP12 JUMPDEST DUP2 DUP2 LT PUSH2 0x5DF JUMPI POP SWAP3 PUSH1 0x1 SWAP3 DUP6 SWAP3 PUSH1 0x6 SWAP9 SWAP7 PUSH1 0xC0 SWAP9 SWAP7 LT PUSH2 0x5C6 JUMPI JUMPDEST POP POP POP DUP2 SHL ADD SWAP1 SSTORE PUSH2 0x305 JUMP JUMPDEST ADD MLOAD PUSH1 0x0 NOT PUSH1 0xF8 DUP5 PUSH1 0x3 SHL AND SHR NOT AND SWAP1 SSTORE CODESIZE DUP1 DUP1 PUSH2 0x5B9 JUMP JUMPDEST SWAP3 SWAP4 PUSH1 0x20 PUSH1 0x1 DUP2 SWAP3 DUP8 DUP7 ADD MLOAD DUP2 SSTORE ADD SWAP6 ADD SWAP4 ADD PUSH2 0x59D JUMP JUMPDEST PUSH2 0x622 SWAP1 DUP5 DUP12 MSTORE PUSH1 0x20 DUP12 KECCAK256 PUSH1 0x1F DUP6 ADD PUSH1 0x5 SHR DUP2 ADD SWAP2 PUSH1 0x20 DUP7 LT PUSH2 0x628 JUMPI JUMPDEST PUSH1 0x1F ADD PUSH1 0x5 SHR ADD SWAP1 PUSH2 0x4892 JUMP JUMPDEST CODESIZE PUSH2 0x2D0 JUMP JUMPDEST SWAP1 SWAP2 POP DUP2 SWAP1 PUSH2 0x615 JUMP JUMPDEST PUSH4 0x4E487B71 PUSH1 0xE0 SHL DUP9 MSTORE PUSH1 0x41 PUSH1 0x4 MSTORE PUSH1 0x24 DUP9 REVERT JUMPDEST PUSH4 0x4E487B71 PUSH1 0xE0 SHL DUP11 MSTORE PUSH1 0x4 DUP11 SWAP1 MSTORE PUSH1 0x24 DUP11 REVERT JUMPDEST PUSH4 0x4E487B71 PUSH1 0xE0 SHL DUP11 MSTORE PUSH1 0x41 PUSH1 0x4 MSTORE PUSH1 0x24 DUP11 REVERT JUMPDEST PUSH4 0x4E487B71 PUSH1 0xE0 SHL DUP4 MSTORE PUSH1 0x11 PUSH1 0x4 MSTORE PUSH1 0x24 DUP4 REVERT JUMPDEST POP PUSH1 0x1 SLOAD PUSH1 0x4 CALLDATALOAD LT PUSH2 0x1C4 JUMP JUMPDEST PUSH1 0x0 DUP1 REVERT JUMPDEST DUP1 REVERT JUMPDEST POP CALLVALUE PUSH2 0x694 JUMPI DUP1 PUSH1 0x3 NOT CALLDATASIZE ADD SLT PUSH2 0x694 JUMPI PUSH1 0x20 PUSH1 0x5 SLOAD PUSH1 0x40 MLOAD SWAP1 DUP2 MSTORE RETURN JUMPDEST POP CALLVALUE PUSH2 0x694 JUMPI PUSH1 0x20 CALLDATASIZE PUSH1 0x3 NOT ADD SLT PUSH2 0x694 JUMPI PUSH1 0x4 CALLDATALOAD SWAP1 PUSH2 0x6D3 PUSH2 0x4DF5 JUMP JUMPDEST POP DUP2 ISZERO ISZERO DUP1 PUSH2 0x774 JUMPI JUMPDEST ISZERO PUSH2 0x72F JUMPI PUSH1 0x0 NOT DUP3 ADD SWAP2 DUP3 GT PUSH2 0x71B JUMPI PUSH2 0x717 PUSH2 0x703 PUSH2 0x6FD DUP5 PUSH2 0x4652 JUMP JUMPDEST POP PUSH2 0x4E8E JUMP JUMPDEST PUSH1 0x40 MLOAD SWAP2 DUP3 SWAP2 PUSH1 0x20 DUP4 MSTORE PUSH1 0x20 DUP4 ADD SWAP1 PUSH2 0x468D JUMP JUMPDEST SUB SWAP1 RETURN JUMPDEST PUSH4 0x4E487B71 PUSH1 0xE0 SHL DUP2 MSTORE PUSH1 0x11 PUSH1 0x4 MSTORE PUSH1 0x24 SWAP1 REVERT JUMPDEST PUSH1 0x40 MLOAD PUSH3 0x461BCD PUSH1 0xE5 SHL DUP2 MSTORE PUSH1 0x20 PUSH1 0x4 DUP3 ADD MSTORE PUSH1 0x1C PUSH1 0x24 DUP3 ADD MSTORE PUSH32 0x4D65646963616C206576656E7420646F6573206E6F7420657869737400000000 PUSH1 0x44 DUP3 ADD MSTORE PUSH1 0x64 SWAP1 REVERT JUMPDEST POP PUSH1 0x6 SLOAD DUP3 LT PUSH2 0x6DD JUMP JUMPDEST POP CALLVALUE PUSH2 0x694 JUMPI DUP1 PUSH1 0x3 NOT CALLDATASIZE ADD SLT PUSH2 0x694 JUMPI PUSH1 0x20 PUSH1 0x7 SLOAD PUSH1 0x40 MLOAD SWAP1 DUP2 MSTORE RETURN JUMPDEST POP CALLVALUE PUSH2 0x694 JUMPI PUSH1 0x40 CALLDATASIZE PUSH1 0x3 NOT ADD SLT PUSH2 0x694 JUMPI PUSH1 0x24 DUP1 CALLDATALOAD PUSH1 0x4 DUP1 CALLDATALOAD SWAP1 DUP3 LT ISZERO PUSH2 0x554 JUMPI DUP1 ISZERO ISZERO DUP1 PUSH2 0x9C0 JUMPI JUMPDEST PUSH2 0x7D1 SWAP1 PUSH2 0x48F8 JUMP JUMPDEST PUSH1 0x0 NOT DUP2 ADD SWAP1 DUP2 GT PUSH2 0x9AD JUMPI PUSH2 0x7E6 SWAP1 PUSH2 0x481F JUMP JUMPDEST POP PUSH1 0x40 MLOAD PUSH4 0x584FAB0F PUSH1 0xE0 SHL DUP2 MSTORE CALLER PUSH1 0x4 DUP3 ADD MSTORE SWAP1 SWAP3 PUSH1 0x1 PUSH1 0x1 PUSH1 0xA0 SHL SUB SWAP2 PUSH32 0x0 DUP4 AND PUSH1 0x20 DUP3 DUP5 DUP2 DUP5 GAS STATICCALL SWAP2 DUP3 ISZERO PUSH2 0x9A2 JUMPI DUP8 SWAP3 PUSH2 0x96F JUMPI JUMPDEST POP DUP7 DUP1 SWAP3 DUP1 PUSH2 0x8ED JUMPI JUMPDEST POP POP POP PUSH1 0x8 DUP6 ADD SWAP3 CALLER SWAP1 DUP5 SLOAD PUSH1 0x10 SHR AND EQ SWAP1 DUP2 ISZERO PUSH2 0x8E5 JUMPI JUMPDEST POP ISZERO PUSH2 0x87B JUMPI POP SWAP1 PUSH2 0x872 SWAP2 PUSH2 0x48A9 JUMP JUMPDEST PUSH1 0xA TIMESTAMP SWAP2 ADD SSTORE DUP1 RETURN JUMPDEST PUSH1 0x84 SWAP1 PUSH1 0x39 PUSH1 0x40 MLOAD SWAP2 PUSH3 0x461BCD PUSH1 0xE5 SHL DUP4 MSTORE PUSH1 0x20 PUSH1 0x4 DUP5 ADD MSTORE DUP3 ADD MSTORE PUSH32 0x4F6E6C7920706574206F776E6572206F7220686F73706974616C207374616666 PUSH1 0x44 DUP3 ADD MSTORE PUSH32 0x2063616E20757064617465206865616C74682073746174757300000000000000 PUSH1 0x64 DUP3 ADD MSTORE REVERT JUMPDEST SWAP1 POP CODESIZE PUSH2 0x861 JUMP JUMPDEST SWAP1 SWAP2 SWAP3 POP DUP4 PUSH1 0x40 MLOAD DUP1 SWAP5 DUP2 SWAP4 PUSH4 0x418ED21 PUSH1 0xE2 SHL DUP4 MSTORE PUSH1 0x4 DUP4 ADD MSTORE GAS STATICCALL DUP1 ISZERO PUSH2 0x964 JUMPI PUSH1 0x40 SWAP2 DUP8 SWAP2 PUSH2 0x942 JUMPI JUMPDEST POP ADD MLOAD PUSH1 0x2 DUP2 LT ISZERO PUSH2 0x92F JUMPI ISZERO CODESIZE DUP7 DUP2 PUSH2 0x848 JUMP JUMPDEST POP PUSH4 0x4E487B71 PUSH1 0xE0 SHL DUP6 MSTORE PUSH1 0x21 PUSH1 0x4 MSTORE DUP5 REVERT JUMPDEST PUSH2 0x95E SWAP2 POP RETURNDATASIZE DUP1 DUP10 DUP4 RETURNDATACOPY PUSH2 0x956 DUP2 DUP4 PUSH2 0x412E JUMP JUMPDEST DUP2 ADD SWAP1 PUSH2 0x49CF JUMP JUMPDEST CODESIZE PUSH2 0x91A JUMP JUMPDEST PUSH1 0x40 MLOAD RETURNDATASIZE DUP9 DUP3 RETURNDATACOPY RETURNDATASIZE SWAP1 REVERT JUMPDEST SWAP1 SWAP2 POP PUSH1 0x20 DUP2 RETURNDATASIZE DUP3 GT PUSH2 0x99A JUMPI JUMPDEST DUP2 PUSH2 0x98A PUSH1 0x20 SWAP4 DUP4 PUSH2 0x412E JUMP JUMPDEST DUP2 ADD SUB SLT PUSH2 0x68F JUMPI MLOAD SWAP1 CODESIZE PUSH2 0x83E JUMP JUMPDEST RETURNDATASIZE SWAP2 POP PUSH2 0x97D JUMP JUMPDEST PUSH1 0x40 MLOAD RETURNDATASIZE DUP10 DUP3 RETURNDATACOPY RETURNDATASIZE SWAP1 REVERT JUMPDEST PUSH4 0x4E487B71 PUSH1 0xE0 SHL DUP5 MSTORE PUSH1 0x11 PUSH1 0x4 MSTORE DUP3 DUP5 REVERT JUMPDEST POP PUSH1 0x1 SLOAD DUP2 LT PUSH2 0x7C8 JUMP JUMPDEST POP CALLVALUE PUSH2 0x694 JUMPI PUSH1 0xA0 CALLDATASIZE PUSH1 0x3 NOT ADD SLT PUSH2 0x694 JUMPI PUSH1 0x24 CALLDATALOAD PUSH1 0x1 PUSH1 0x1 PUSH1 0x40 SHL SUB DUP2 GT PUSH2 0x4B0 JUMPI PUSH2 0x9FC SWAP1 CALLDATASIZE SWAP1 PUSH1 0x4 ADD PUSH2 0x416A JUMP JUMPDEST PUSH1 0x44 CALLDATALOAD PUSH1 0x1 PUSH1 0x1 PUSH1 0x40 SHL SUB DUP2 GT PUSH2 0x4BF JUMPI PUSH2 0xA1B SWAP1 CALLDATASIZE SWAP1 PUSH1 0x4 ADD PUSH2 0x416A JUMP JUMPDEST SWAP1 PUSH1 0x84 CALLDATALOAD PUSH1 0x1 PUSH1 0x1 PUSH1 0x40 SHL SUB DUP2 GT PUSH2 0x554 JUMPI PUSH2 0xA3B SWAP1 CALLDATASIZE SWAP1 PUSH1 0x4 ADD PUSH2 0x472C JUMP JUMPDEST PUSH1 0x4 CALLDATALOAD ISZERO ISZERO DUP1 PUSH2 0x1276 JUMPI JUMPDEST PUSH2 0xA4F SWAP1 PUSH2 0x48F8 JUMP JUMPDEST DUP2 MLOAD ISZERO PUSH2 0x1231 JUMPI DUP3 MLOAD ISZERO PUSH2 0x11EC JUMPI PUSH1 0x40 MLOAD PUSH4 0x584FAB0F PUSH1 0xE0 SHL DUP2 MSTORE CALLER PUSH1 0x4 DUP3 ADD MSTORE PUSH32 0x0 PUSH1 0x1 PUSH1 0x1 PUSH1 0xA0 SHL SUB AND SWAP1 DUP6 PUSH1 0x20 DUP3 PUSH1 0x24 DUP2 DUP7 GAS STATICCALL SWAP2 DUP3 ISZERO PUSH2 0x11DF JUMPI DUP2 SWAP3 PUSH2 0x11AA JUMPI JUMPDEST POP DUP2 SWAP3 PUSH2 0xAC3 PUSH1 0x24 SWAP4 ISZERO ISZERO PUSH2 0x4D91 JUMP JUMPDEST PUSH1 0x40 MLOAD SWAP3 DUP4 DUP1 SWAP3 PUSH4 0x418ED21 PUSH1 0xE2 SHL DUP3 MSTORE DUP7 PUSH1 0x4 DUP4 ADD MSTORE GAS STATICCALL DUP1 ISZERO PUSH2 0x964 JUMPI PUSH1 0x40 SWAP2 DUP8 SWAP2 PUSH2 0x1190 JUMPI JUMPDEST POP ADD MLOAD PUSH1 0x2 DUP2 LT ISZERO PUSH2 0x117C JUMPI PUSH2 0x1128 JUMPI PUSH1 0x6 SLOAD SWAP4 PUSH2 0xB09 DUP6 PUSH2 0x486D JUMP JUMPDEST PUSH1 0x6 SSTORE PUSH1 0x40 MLOAD SWAP4 PUSH2 0xB19 DUP6 PUSH2 0x40DB JUMP JUMPDEST DUP6 DUP6 MSTORE PUSH1 0x4 CALLDATALOAD PUSH1 0x20 DUP7 ADD MSTORE PUSH1 0x40 DUP6 ADD MSTORE PUSH1 0x60 DUP5 ADD MSTORE TIMESTAMP PUSH1 0x80 DUP5 ADD MSTORE PUSH1 0xA0 DUP4 ADD MSTORE CALLER PUSH1 0xC0 DUP4 ADD MSTORE PUSH1 0x64 CALLDATALOAD PUSH1 0xE0 DUP4 ADD MSTORE PUSH2 0x100 DUP3 ADD MSTORE PUSH1 0x3 SLOAD PUSH1 0x1 PUSH1 0x40 SHL DUP2 LT ISZERO PUSH2 0x1114 JUMPI DUP1 PUSH1 0x1 PUSH2 0xB6C SWAP3 ADD PUSH1 0x3 SSTORE PUSH2 0x4652 JUMP JUMPDEST SWAP2 SWAP1 SWAP2 PUSH2 0x1100 JUMPI DUP1 MLOAD DUP3 SSTORE PUSH1 0x20 DUP2 ADD MLOAD PUSH1 0x1 DUP4 ADD SSTORE PUSH1 0x40 DUP2 ADD MLOAD DUP1 MLOAD SWAP1 PUSH1 0x1 PUSH1 0x1 PUSH1 0x40 SHL SUB DUP3 GT PUSH2 0x103F JUMPI DUP2 SWAP1 PUSH2 0xBA6 PUSH1 0x2 DUP7 ADD SLOAD PUSH2 0x4537 JUMP JUMPDEST PUSH1 0x1F DUP2 GT PUSH2 0x10CD JUMPI JUMPDEST POP PUSH1 0x20 SWAP1 PUSH1 0x1F DUP4 GT PUSH1 0x1 EQ PUSH2 0x105E JUMPI DUP8 SWAP3 PUSH2 0x1053 JUMPI JUMPDEST POP POP DUP2 PUSH1 0x1 SHL SWAP2 PUSH1 0x0 NOT SWAP1 PUSH1 0x3 SHL SHR NOT AND OR PUSH1 0x2 DUP4 ADD SSTORE JUMPDEST PUSH1 0x60 DUP2 ADD MLOAD DUP1 MLOAD SWAP1 PUSH1 0x1 PUSH1 0x1 PUSH1 0x40 SHL SUB DUP3 GT PUSH2 0x103F JUMPI PUSH2 0xC00 PUSH1 0x3 DUP6 ADD SLOAD PUSH2 0x4537 JUMP JUMPDEST PUSH1 0x1F DUP2 GT PUSH2 0x100C JUMPI JUMPDEST POP PUSH1 0x20 SWAP1 PUSH1 0x1F DUP4 GT PUSH1 0x1 EQ PUSH2 0xF9B JUMPI PUSH2 0x100 SWAP4 SWAP3 SWAP2 DUP8 SWAP2 DUP4 PUSH2 0xF90 JUMPI JUMPDEST POP POP DUP2 PUSH1 0x1 SHL SWAP2 PUSH1 0x0 NOT SWAP1 PUSH1 0x3 SHL SHR NOT AND OR PUSH1 0x3 DUP5 ADD SSTORE JUMPDEST PUSH1 0x80 DUP2 ADD MLOAD PUSH1 0x4 DUP5 ADD SSTORE PUSH1 0xA0 DUP2 ADD MLOAD PUSH1 0x5 DUP5 ADD SSTORE PUSH1 0x6 DUP4 ADD PUSH1 0x1 DUP1 PUSH1 0xA0 SHL SUB PUSH1 0xC0 DUP4 ADD MLOAD AND PUSH12 0xFFFFFFFFFFFFFFFFFFFFFFFF PUSH1 0xA0 SHL DUP3 SLOAD AND OR SWAP1 SSTORE PUSH1 0xE0 DUP2 ADD MLOAD PUSH1 0x7 DUP5 ADD SSTORE ADD MLOAD SWAP1 DUP2 MLOAD SWAP2 PUSH1 0x1 PUSH1 0x40 SHL DUP4 GT PUSH2 0xF7C JUMPI PUSH1 0x8 DUP3 ADD SLOAD DUP4 PUSH1 0x8 DUP5 ADD SSTORE DUP1 DUP5 LT PUSH2 0xF04 JUMPI JUMPDEST POP PUSH1 0x20 PUSH1 0x8 SWAP2 ADD SWAP2 ADD DUP5 MSTORE PUSH1 0x20 DUP5 KECCAK256 DUP5 SWAP2 JUMPDEST DUP4 DUP4 LT PUSH2 0xDF5 JUMPI DUP6 DUP6 PUSH1 0x4 CALLDATALOAD PUSH1 0x0 NOT DUP2 ADD SWAP1 DUP2 GT PUSH2 0x66E JUMPI PUSH2 0xCDA SWAP1 PUSH2 0x481F JUMP JUMPDEST POP PUSH1 0x9 DUP2 ADD SWAP3 DUP4 SLOAD SWAP1 PUSH1 0x1 DUP3 ADD DUP1 DUP4 GT PUSH2 0xDE1 JUMPI PUSH2 0xD10 PUSH2 0xCFA DUP3 PUSH2 0x4715 JUMP JUMPDEST SWAP2 PUSH2 0xD08 PUSH1 0x40 MLOAD SWAP4 DUP5 PUSH2 0x412E JUMP JUMPDEST DUP1 DUP4 MSTORE PUSH2 0x4715 JUMP JUMPDEST PUSH1 0x20 DUP3 ADD SWAP2 SWAP1 PUSH1 0x1F NOT ADD CALLDATASIZE DUP4 CALLDATACOPY DUP3 JUMPDEST DUP5 DUP2 LT PUSH2 0xDBE JUMPI POP DUP6 PUSH2 0xD32 DUP6 DUP4 PUSH2 0x4BBE JUMP JUMPDEST MSTORE MLOAD SWAP3 PUSH1 0x1 PUSH1 0x1 PUSH1 0x40 SHL SUB DUP5 GT PUSH2 0xDAA JUMPI PUSH1 0x1 PUSH1 0x40 SHL DUP5 GT PUSH2 0xDAA JUMPI DUP4 DUP8 SSTORE DUP1 DUP5 LT PUSH2 0xD8F JUMPI JUMPDEST POP SWAP5 DUP2 MSTORE PUSH1 0x20 DUP2 KECCAK256 SWAP1 JUMPDEST DUP3 DUP2 LT PUSH2 0xD7B JUMPI TIMESTAMP PUSH1 0xA DUP6 ADD SSTORE PUSH1 0x40 MLOAD DUP6 DUP2 MSTORE PUSH1 0x20 SWAP1 RETURN JUMPDEST PUSH1 0x1 SWAP1 PUSH1 0x20 DUP8 MLOAD SWAP8 ADD SWAP7 DUP2 DUP5 ADD SSTORE ADD PUSH2 0xD63 JUMP JUMPDEST DUP7 DUP4 MSTORE PUSH1 0x20 DUP4 KECCAK256 PUSH2 0xDA4 SWAP2 DUP2 ADD SWAP1 DUP6 ADD PUSH2 0x4892 JUMP JUMPDEST DUP7 PUSH2 0xD59 JUMP JUMPDEST PUSH4 0x4E487B71 PUSH1 0xE0 SHL DUP4 MSTORE PUSH1 0x41 PUSH1 0x4 MSTORE PUSH1 0x24 DUP4 REVERT JUMPDEST PUSH2 0xDDC SWAP1 DUP9 DUP6 MSTORE DUP1 PUSH1 0x20 DUP7 KECCAK256 ADD SLOAD PUSH2 0xDD6 DUP3 DUP6 PUSH2 0x4BBE JUMP JUMPDEST MSTORE PUSH2 0x486D JUMP JUMPDEST PUSH2 0xD1F JUMP JUMPDEST PUSH4 0x4E487B71 PUSH1 0xE0 SHL DUP3 MSTORE PUSH1 0x11 PUSH1 0x4 MSTORE PUSH1 0x24 DUP3 REVERT JUMPDEST DUP1 MLOAD DUP1 MLOAD SWAP1 PUSH1 0x1 PUSH1 0x1 PUSH1 0x40 SHL SUB DUP3 GT PUSH2 0x632 JUMPI PUSH2 0xE12 DUP5 SLOAD PUSH2 0x4537 JUMP JUMPDEST PUSH1 0x1F DUP2 GT PUSH2 0xED4 JUMPI JUMPDEST POP PUSH1 0x20 SWAP1 PUSH1 0x1F DUP4 GT PUSH1 0x1 EQ PUSH2 0xE67 JUMPI SWAP3 DUP3 PUSH1 0x1 SWAP5 SWAP4 PUSH1 0x20 SWAP4 DUP7 SWAP6 DUP13 SWAP3 PUSH2 0xE5C JUMPI JUMPDEST POP POP PUSH1 0x0 NOT PUSH1 0x3 DUP4 SWAP1 SHL SHR NOT AND SWAP1 DUP5 SHL OR DUP6 SSTORE JUMPDEST ADD SWAP3 ADD SWAP3 ADD SWAP2 SWAP1 PUSH2 0xCB9 JUMP JUMPDEST ADD MLOAD SWAP1 POP CODESIZE DUP1 PUSH2 0xE3C JUMP JUMPDEST SWAP1 DUP5 DUP10 MSTORE PUSH1 0x20 DUP10 KECCAK256 SWAP2 DUP10 JUMPDEST PUSH1 0x1F NOT DUP6 AND DUP2 LT PUSH2 0xEBC JUMPI POP DUP4 PUSH1 0x20 SWAP4 PUSH1 0x1 SWAP7 SWAP4 DUP8 SWAP7 SWAP4 DUP8 SWAP5 PUSH1 0x1F NOT DUP2 AND LT PUSH2 0xEA3 JUMPI JUMPDEST POP POP POP DUP2 SHL ADD DUP6 SSTORE PUSH2 0xE50 JUMP JUMPDEST ADD MLOAD PUSH1 0x0 NOT PUSH1 0xF8 DUP5 PUSH1 0x3 SHL AND SHR NOT AND SWAP1 SSTORE CODESIZE DUP1 DUP1 PUSH2 0xE96 JUMP JUMPDEST SWAP2 SWAP3 PUSH1 0x20 PUSH1 0x1 DUP2 SWAP3 DUP7 DUP6 ADD MLOAD DUP2 SSTORE ADD SWAP5 ADD SWAP3 ADD PUSH2 0xE72 JUMP JUMPDEST PUSH2 0xEFE SWAP1 DUP6 DUP11 MSTORE PUSH1 0x20 DUP11 KECCAK256 PUSH1 0x1F DUP6 ADD PUSH1 0x5 SHR DUP2 ADD SWAP2 PUSH1 0x20 DUP7 LT PUSH2 0x628 JUMPI PUSH1 0x1F ADD PUSH1 0x5 SHR ADD SWAP1 PUSH2 0x4892 JUMP JUMPDEST CODESIZE PUSH2 0xE1B JUMP JUMPDEST PUSH1 0x8 DUP4 ADD DUP7 MSTORE PUSH1 0x20 DUP7 KECCAK256 SWAP1 DUP5 DUP3 ADD JUMPDEST DUP2 DUP4 ADD DUP2 LT PUSH2 0xF23 JUMPI POP POP PUSH2 0xCA7 JUMP JUMPDEST DUP1 DUP9 PUSH2 0xF31 PUSH1 0x1 SWAP4 SLOAD PUSH2 0x4537 JUMP JUMPDEST DUP1 PUSH2 0xF3F JUMPI JUMPDEST POP POP ADD PUSH2 0xF13 JUMP JUMPDEST PUSH1 0x1F DUP2 GT DUP5 EQ PUSH2 0xF57 JUMPI POP POP PUSH1 0x0 DUP2 SSTORE JUMPDEST DUP9 CODESIZE PUSH2 0xF37 JUMP JUMPDEST DUP3 DUP3 MSTORE PUSH2 0xF72 PUSH1 0x1F PUSH1 0x20 DUP5 KECCAK256 SWAP3 ADD PUSH1 0x5 SHR DUP3 ADD DUP6 DUP4 ADD PUSH2 0x4892 JUMP JUMPDEST PUSH1 0x0 DUP4 SSTORE SSTORE PUSH2 0xF50 JUMP JUMPDEST PUSH4 0x4E487B71 PUSH1 0xE0 SHL DUP6 MSTORE PUSH1 0x41 PUSH1 0x4 MSTORE PUSH1 0x24 DUP6 REVERT JUMPDEST ADD MLOAD SWAP1 POP CODESIZE DUP1 PUSH2 0xC26 JUMP JUMPDEST SWAP1 PUSH1 0x3 DUP6 ADD DUP8 MSTORE PUSH1 0x20 DUP8 KECCAK256 SWAP2 DUP8 JUMPDEST PUSH1 0x1F NOT DUP6 AND DUP2 LT PUSH2 0xFF4 JUMPI POP SWAP2 DUP4 SWAP2 PUSH1 0x1 SWAP4 PUSH2 0x100 SWAP7 SWAP6 PUSH1 0x1F NOT DUP2 AND LT PUSH2 0xFDB JUMPI JUMPDEST POP POP POP DUP2 SHL ADD PUSH1 0x3 DUP5 ADD SSTORE PUSH2 0xC3E JUMP JUMPDEST ADD MLOAD PUSH1 0x0 NOT PUSH1 0xF8 DUP5 PUSH1 0x3 SHL AND SHR NOT AND SWAP1 SSTORE CODESIZE DUP1 DUP1 PUSH2 0xFCB JUMP JUMPDEST SWAP2 SWAP3 PUSH1 0x20 PUSH1 0x1 DUP2 SWAP3 DUP7 DUP6 ADD MLOAD DUP2 SSTORE ADD SWAP5 ADD SWAP3 ADD PUSH2 0xFA9 JUMP JUMPDEST PUSH2 0x1039 SWAP1 PUSH1 0x3 DUP7 ADD DUP9 MSTORE PUSH1 0x20 DUP9 KECCAK256 PUSH1 0x1F DUP6 ADD PUSH1 0x5 SHR DUP2 ADD SWAP2 PUSH1 0x20 DUP7 LT PUSH2 0x628 JUMPI PUSH1 0x1F ADD PUSH1 0x5 SHR ADD SWAP1 PUSH2 0x4892 JUMP JUMPDEST CODESIZE PUSH2 0xC09 JUMP JUMPDEST PUSH4 0x4E487B71 PUSH1 0xE0 SHL DUP7 MSTORE PUSH1 0x41 PUSH1 0x4 MSTORE PUSH1 0x24 DUP7 REVERT JUMPDEST ADD MLOAD SWAP1 POP CODESIZE DUP1 PUSH2 0xBC5 JUMP JUMPDEST SWAP3 POP PUSH1 0x2 DUP6 ADD DUP8 MSTORE PUSH1 0x20 DUP8 KECCAK256 SWAP1 DUP8 SWAP4 JUMPDEST PUSH1 0x1F NOT DUP5 AND DUP6 LT PUSH2 0x10B2 JUMPI PUSH1 0x1 SWAP5 POP DUP4 PUSH1 0x1F NOT DUP2 AND LT PUSH2 0x1099 JUMPI JUMPDEST POP POP POP DUP2 SHL ADD PUSH1 0x2 DUP4 ADD SSTORE PUSH2 0xBDD JUMP JUMPDEST ADD MLOAD PUSH1 0x0 NOT PUSH1 0xF8 DUP5 PUSH1 0x3 SHL AND SHR NOT AND SWAP1 SSTORE CODESIZE DUP1 DUP1 PUSH2 0x1089 JUMP JUMPDEST DUP2 DUP2 ADD MLOAD DUP4 SSTORE PUSH1 0x20 SWAP5 DUP6 ADD SWAP5 PUSH1 0x1 SWAP1 SWAP4 ADD SWAP3 SWAP1 SWAP2 ADD SWAP1 PUSH2 0x106E JUMP JUMPDEST PUSH2 0x10FA SWAP1 PUSH1 0x2 DUP8 ADD DUP10 MSTORE PUSH1 0x20 DUP10 KECCAK256 PUSH1 0x1F DUP6 ADD PUSH1 0x5 SHR DUP2 ADD SWAP2 PUSH1 0x20 DUP7 LT PUSH2 0x628 JUMPI PUSH1 0x1F ADD PUSH1 0x5 SHR ADD SWAP1 PUSH2 0x4892 JUMP JUMPDEST CODESIZE PUSH2 0xBAF JUMP JUMPDEST PUSH4 0x4E487B71 PUSH1 0xE0 SHL DUP5 MSTORE PUSH1 0x4 DUP5 SWAP1 MSTORE PUSH1 0x24 DUP5 REVERT JUMPDEST PUSH4 0x4E487B71 PUSH1 0xE0 SHL DUP5 MSTORE PUSH1 0x41 PUSH1 0x4 MSTORE PUSH1 0x24 DUP5 REVERT JUMPDEST PUSH1 0x40 MLOAD PUSH3 0x461BCD PUSH1 0xE5 SHL DUP2 MSTORE PUSH1 0x20 PUSH1 0x4 DUP3 ADD MSTORE PUSH1 0x26 PUSH1 0x24 DUP3 ADD MSTORE PUSH32 0x43616C6C6572277320696E737469747574696F6E206973206E6F74206120686F PUSH1 0x44 DUP3 ADD MSTORE PUSH6 0x1CDC1A5D185B PUSH1 0xD2 SHL PUSH1 0x64 DUP3 ADD MSTORE PUSH1 0x84 SWAP1 REVERT JUMPDEST PUSH4 0x4E487B71 PUSH1 0xE0 SHL DUP7 MSTORE PUSH1 0x21 PUSH1 0x4 MSTORE PUSH1 0x24 DUP7 REVERT JUMPDEST PUSH2 0x11A4 SWAP2 POP RETURNDATASIZE DUP1 DUP10 DUP4 RETURNDATACOPY PUSH2 0x956 DUP2 DUP4 PUSH2 0x412E JUMP JUMPDEST CODESIZE PUSH2 0xAEC JUMP JUMPDEST SWAP2 POP POP PUSH1 0x20 DUP2 RETURNDATASIZE PUSH1 0x20 GT PUSH2 0x11D7 JUMPI JUMPDEST DUP2 PUSH2 0x11C6 PUSH1 0x20 SWAP4 DUP4 PUSH2 0x412E JUMP JUMPDEST DUP2 ADD SUB SLT PUSH2 0x68F JUMPI MLOAD DUP6 PUSH1 0x24 PUSH2 0xAB3 JUMP JUMPDEST RETURNDATASIZE SWAP2 POP PUSH2 0x11B9 JUMP JUMPDEST POP PUSH1 0x40 MLOAD SWAP1 RETURNDATASIZE SWAP1 DUP3 RETURNDATACOPY RETURNDATASIZE SWAP1 REVERT JUMPDEST PUSH1 0x40 MLOAD PUSH3 0x461BCD PUSH1 0xE5 SHL DUP2 MSTORE PUSH1 0x20 PUSH1 0x4 DUP3 ADD MSTORE PUSH1 0x19 PUSH1 0x24 DUP3 ADD MSTORE PUSH32 0x54726561746D656E742063616E6E6F7420626520656D70747900000000000000 PUSH1 0x44 DUP3 ADD MSTORE PUSH1 0x64 SWAP1 REVERT JUMPDEST PUSH1 0x40 MLOAD PUSH3 0x461BCD PUSH1 0xE5 SHL DUP2 MSTORE PUSH1 0x20 PUSH1 0x4 DUP3 ADD MSTORE PUSH1 0x19 PUSH1 0x24 DUP3 ADD MSTORE PUSH32 0x446961676E6F7369732063616E6E6F7420626520656D70747900000000000000 PUSH1 0x44 DUP3 ADD MSTORE PUSH1 0x64 SWAP1 REVERT JUMPDEST POP PUSH1 0x1 SLOAD PUSH1 0x4 CALLDATALOAD LT PUSH2 0xA46 JUMP JUMPDEST POP CALLVALUE PUSH2 0x694 JUMPI PUSH1 0x20 DUP1 PUSH1 0x3 NOT CALLDATASIZE ADD SLT PUSH2 0x4B0 JUMPI PUSH2 0x129E PUSH2 0x4809 JUMP JUMPDEST PUSH1 0x4 SLOAD SWAP2 DUP4 SWAP2 PUSH1 0x1 PUSH1 0x1 PUSH1 0xA0 SHL SUB SWAP1 DUP2 AND SWAP2 DUP4 JUMPDEST DUP6 DUP2 LT PUSH2 0x137C JUMPI POP PUSH2 0x12C3 DUP7 PUSH2 0x4715 JUMP JUMPDEST SWAP6 PUSH2 0x12D1 PUSH1 0x40 MLOAD SWAP8 DUP9 PUSH2 0x412E JUMP JUMPDEST DUP1 DUP8 MSTORE PUSH2 0x12E0 PUSH1 0x1F NOT SWAP2 PUSH2 0x4715 JUMP JUMPDEST ADD DUP5 JUMPDEST DUP2 DUP2 LT PUSH2 0x1366 JUMPI POP POP POP DUP3 JUMPDEST DUP5 DUP2 LT PUSH2 0x1304 JUMPI PUSH1 0x40 MLOAD DUP1 PUSH2 0x717 DUP9 DUP3 PUSH2 0x4484 JUMP JUMPDEST DUP3 DUP3 PUSH1 0x6 PUSH2 0x1311 DUP5 PUSH2 0x4617 JUMP JUMPDEST POP ADD SLOAD AND EQ PUSH2 0x1329 JUMPI JUMPDEST PUSH2 0x1324 SWAP1 PUSH2 0x486D JUMP JUMPDEST PUSH2 0x12EF JUMP JUMPDEST SWAP3 PUSH2 0x135E PUSH2 0x1324 SWAP2 PUSH2 0x1343 PUSH2 0x133D DUP8 PUSH2 0x4617 JUMP JUMPDEST POP PUSH2 0x4F9D JUMP JUMPDEST PUSH2 0x134D DUP3 DUP11 PUSH2 0x4BBE JUMP JUMPDEST MSTORE PUSH2 0x1358 DUP2 DUP10 PUSH2 0x4BBE JUMP JUMPDEST POP PUSH2 0x486D JUMP JUMPDEST SWAP4 SWAP1 POP PUSH2 0x131B JUMP JUMPDEST DUP3 SWAP1 PUSH2 0x1370 PUSH2 0x4F56 JUMP JUMPDEST DUP3 DUP3 DUP12 ADD ADD MSTORE ADD PUSH2 0x12E3 JUMP JUMPDEST DUP4 DUP4 PUSH1 0x6 PUSH2 0x1389 DUP5 PUSH2 0x4617 JUMP JUMPDEST POP ADD SLOAD AND EQ PUSH2 0x13A1 JUMPI JUMPDEST PUSH2 0x139C SWAP1 PUSH2 0x486D JUMP JUMPDEST PUSH2 0x12B2 JUMP JUMPDEST SWAP6 PUSH2 0x13AE PUSH2 0x139C SWAP2 PUSH2 0x486D JUMP JUMPDEST SWAP7 SWAP1 POP PUSH2 0x1393 JUMP JUMPDEST POP CALLVALUE PUSH2 0x694 JUMPI PUSH1 0x20 CALLDATASIZE PUSH1 0x3 NOT ADD SLT PUSH2 0x694 JUMPI PUSH1 0x4 CALLDATALOAD DUP2 SLOAD DUP2 LT ISZERO PUSH2 0x4B0 JUMPI PUSH2 0x13DD SWAP1 PUSH2 0x481F JUMP JUMPDEST POP DUP1 SLOAD PUSH2 0x13EC PUSH1 0x1 DUP4 ADD PUSH2 0x4571 JUMP JUMPDEST SWAP2 PUSH2 0x13F9 PUSH1 0x2 DUP3 ADD PUSH2 0x4571 JUMP JUMPDEST PUSH2 0x1405 PUSH1 0x3 DUP4 ADD PUSH2 0x4571 JUMP JUMPDEST SWAP2 PUSH2 0x1412 PUSH1 0x4 DUP3 ADD PUSH2 0x4571 JUMP JUMPDEST SWAP1 PUSH1 0x5 DUP2 ADD SLOAD PUSH1 0x6 DUP3 ADD PUSH2 0x1425 SWAP1 PUSH2 0x4571 JUMP JUMPDEST PUSH2 0x1431 PUSH1 0x7 DUP5 ADD PUSH2 0x4571 JUMP JUMPDEST SWAP2 PUSH1 0x8 DUP5 ADD SLOAD SWAP5 PUSH1 0xFF DUP7 AND SWAP8 DUP7 PUSH1 0x8 SHR PUSH1 0xFF AND SWAP6 PUSH1 0xA ADD SLOAD SWAP8 PUSH1 0x40 MLOAD SWAP12 DUP13 SWAP12 DUP13 MSTORE DUP12 PUSH2 0x180 PUSH1 0x20 DUP2 SWAP3 ADD MSTORE DUP13 ADD PUSH2 0x1467 SWAP2 PUSH2 0x41D4 JUMP JUMPDEST DUP12 DUP2 SUB PUSH1 0x40 DUP14 ADD MSTORE PUSH2 0x1478 SWAP2 PUSH2 0x41D4 JUMP JUMPDEST DUP11 DUP2 SUB PUSH1 0x60 DUP13 ADD MSTORE PUSH2 0x1489 SWAP2 PUSH2 0x41D4 JUMP JUMPDEST DUP10 DUP2 SUB PUSH1 0x80 DUP12 ADD MSTORE PUSH2 0x149A SWAP2 PUSH2 0x41D4 JUMP JUMPDEST SWAP1 PUSH1 0xA0 DUP10 ADD MSTORE DUP8 DUP2 SUB PUSH1 0xC0 DUP10 ADD MSTORE PUSH2 0x14B1 SWAP2 PUSH2 0x41D4 JUMP JUMPDEST DUP7 DUP2 SUB PUSH1 0xE0 DUP9 ADD MSTORE PUSH2 0x14C2 SWAP2 PUSH2 0x41D4 JUMP JUMPDEST SWAP4 PUSH2 0x14CC DUP2 PUSH2 0x41F9 JUMP JUMPDEST PUSH2 0x100 DUP7 ADD MSTORE PUSH2 0x14DB DUP2 PUSH2 0x41F9 JUMP JUMPDEST PUSH2 0x120 DUP6 ADD MSTORE PUSH1 0x10 SHR PUSH1 0x1 PUSH1 0x1 PUSH1 0xA0 SHL SUB AND PUSH2 0x140 DUP5 ADD MSTORE PUSH2 0x160 DUP4 ADD MSTORE SUB SWAP1 RETURN JUMPDEST POP CALLVALUE PUSH2 0x694 JUMPI PUSH1 0x20 CALLDATASIZE PUSH1 0x3 NOT ADD SLT PUSH2 0x694 JUMPI PUSH1 0x4 CALLDATALOAD SWAP1 PUSH2 0x151B PUSH2 0x4B0D JUMP JUMPDEST POP DUP2 ISZERO ISZERO DUP1 PUSH2 0x1563 JUMPI JUMPDEST PUSH2 0x152E SWAP1 PUSH2 0x48F8 JUMP JUMPDEST PUSH1 0x0 NOT DUP3 ADD SWAP2 DUP3 GT PUSH2 0x71B JUMPI PUSH2 0x717 PUSH2 0x154F PUSH2 0x1549 DUP5 PUSH2 0x481F JUMP JUMPDEST POP PUSH2 0x4BD2 JUMP JUMPDEST PUSH1 0x40 MLOAD SWAP2 DUP3 SWAP2 PUSH1 0x20 DUP4 MSTORE PUSH1 0x20 DUP4 ADD SWAP1 PUSH2 0x4219 JUMP JUMPDEST POP PUSH1 0x1 SLOAD DUP3 LT PUSH2 0x1525 JUMP JUMPDEST POP CALLVALUE PUSH2 0x694 JUMPI PUSH1 0x20 CALLDATASIZE PUSH1 0x3 NOT ADD SLT PUSH2 0x694 JUMPI PUSH1 0x4 CALLDATALOAD SWAP1 PUSH2 0x158C PUSH2 0x4CF7 JUMP JUMPDEST POP DUP2 ISZERO ISZERO DUP1 PUSH2 0x1615 JUMPI JUMPDEST ISZERO PUSH2 0x15D0 JUMPI PUSH1 0x0 NOT DUP3 ADD SWAP2 DUP3 GT PUSH2 0x71B JUMPI PUSH2 0x717 PUSH2 0x15BC PUSH2 0x15B6 DUP5 PUSH2 0x44E6 JUMP JUMPDEST POP PUSH2 0x4D30 JUMP JUMPDEST PUSH1 0x40 MLOAD SWAP2 DUP3 SWAP2 PUSH1 0x20 DUP4 MSTORE PUSH1 0x20 DUP4 ADD SWAP1 PUSH2 0x47AC JUMP JUMPDEST PUSH1 0x40 MLOAD PUSH3 0x461BCD PUSH1 0xE5 SHL DUP2 MSTORE PUSH1 0x20 PUSH1 0x4 DUP3 ADD MSTORE PUSH1 0x1D PUSH1 0x24 DUP3 ADD MSTORE PUSH32 0x41646F7074696F6E206576656E7420646F6573206E6F74206578697374000000 PUSH1 0x44 DUP3 ADD MSTORE PUSH1 0x64 SWAP1 REVERT JUMPDEST POP PUSH1 0x5 SLOAD DUP3 LT PUSH2 0x1596 JUMP JUMPDEST POP CALLVALUE PUSH2 0x694 JUMPI PUSH1 0x20 CALLDATASIZE PUSH1 0x3 NOT ADD SLT PUSH2 0x694 JUMPI PUSH2 0x163A PUSH2 0x4809 JUMP JUMPDEST PUSH1 0x1 DUP1 SLOAD PUSH1 0x1 PUSH1 0x1 PUSH1 0xA0 SHL SUB SWAP3 DUP4 AND SWAP3 SWAP1 SWAP2 DUP5 SWAP1 JUMPDEST DUP4 DUP2 LT PUSH2 0x16DF JUMPI POP PUSH2 0x1660 SWAP1 PUSH2 0x4B6E JUMP JUMPDEST SWAP3 DUP5 SWAP1 PUSH1 0x1 JUMPDEST DUP5 DUP2 LT PUSH2 0x167B JUMPI PUSH1 0x40 MLOAD DUP1 PUSH2 0x717 DUP9 DUP3 PUSH2 0x4335 JUMP JUMPDEST PUSH1 0x0 NOT DUP2 ADD DUP2 DUP2 GT PUSH2 0x16CB JUMPI DUP3 DUP6 PUSH1 0x8 PUSH2 0x1694 DUP5 PUSH2 0x481F JUMP JUMPDEST POP ADD SLOAD PUSH1 0x10 SHR AND EQ PUSH2 0x16B0 JUMPI JUMPDEST POP PUSH2 0x16AB SWAP1 PUSH2 0x486D JUMP JUMPDEST PUSH2 0x1666 JUMP JUMPDEST PUSH2 0x16AB SWAP2 SWAP4 PUSH2 0x1343 PUSH2 0x1549 PUSH2 0x16C4 SWAP4 PUSH2 0x481F JUMP JUMPDEST SWAP3 SWAP1 PUSH2 0x16A1 JUMP JUMPDEST PUSH4 0x4E487B71 PUSH1 0xE0 SHL DUP9 MSTORE PUSH1 0x11 PUSH1 0x4 MSTORE PUSH1 0x24 DUP9 REVERT JUMPDEST PUSH1 0x0 NOT DUP2 ADD DUP2 DUP2 GT PUSH2 0x1728 JUMPI DUP4 PUSH1 0x8 PUSH2 0x16F8 DUP9 SWAP4 PUSH2 0x481F JUMP JUMPDEST POP ADD SLOAD PUSH1 0x10 SHR AND EQ PUSH2 0x1713 JUMPI JUMPDEST PUSH2 0x170E SWAP1 PUSH2 0x486D JUMP JUMPDEST PUSH2 0x164F JUMP JUMPDEST SWAP1 PUSH2 0x1720 PUSH2 0x170E SWAP2 PUSH2 0x486D JUMP JUMPDEST SWAP2 SWAP1 POP PUSH2 0x1705 JUMP JUMPDEST PUSH4 0x4E487B71 PUSH1 0xE0 SHL DUP8 MSTORE PUSH1 0x11 PUSH1 0x4 MSTORE PUSH1 0x24 DUP8 REVERT JUMPDEST POP CALLVALUE PUSH2 0x694 JUMPI PUSH2 0x140 CALLDATASIZE PUSH1 0x3 NOT ADD SLT PUSH2 0x694 JUMPI PUSH1 0x4 CALLDATALOAD PUSH1 0x24 CALLDATALOAD PUSH1 0x1 PUSH1 0x1 PUSH1 0x40 SHL SUB DUP2 GT PUSH2 0x4BF JUMPI PUSH2 0x1771 SWAP1 CALLDATASIZE SWAP1 PUSH1 0x4 ADD PUSH2 0x416A JUMP JUMPDEST SWAP2 PUSH1 0x44 CALLDATALOAD PUSH1 0x1 PUSH1 0x1 PUSH1 0x40 SHL SUB DUP2 GT PUSH2 0x4B0 JUMPI PUSH2 0x1791 SWAP1 CALLDATASIZE SWAP1 PUSH1 0x4 ADD PUSH2 0x416A JUMP JUMPDEST SWAP3 PUSH1 0x64 CALLDATALOAD PUSH1 0x1 PUSH1 0x1 PUSH1 0x40 SHL SUB DUP2 GT PUSH2 0x4BF JUMPI PUSH2 0x17B1 SWAP1 CALLDATASIZE SWAP1 PUSH1 0x4 ADD PUSH2 0x416A JUMP JUMPDEST PUSH1 0x84 CALLDATALOAD PUSH1 0x1 PUSH1 0x1 PUSH1 0x40 SHL SUB DUP2 GT PUSH2 0x554 JUMPI PUSH2 0x17D0 SWAP1 CALLDATASIZE SWAP1 PUSH1 0x4 ADD PUSH2 0x416A JUMP JUMPDEST SWAP1 PUSH1 0xC4 CALLDATALOAD PUSH1 0x1 PUSH1 0x1 PUSH1 0x40 SHL SUB DUP2 GT PUSH2 0x1ED8 JUMPI PUSH2 0x17F0 SWAP1 CALLDATASIZE SWAP1 PUSH1 0x4 ADD PUSH2 0x416A JUMP JUMPDEST SWAP6 PUSH1 0xE4 CALLDATALOAD PUSH1 0x1 PUSH1 0x1 PUSH1 0x40 SHL SUB DUP2 GT PUSH2 0x1ED4 JUMPI PUSH2 0x1810 SWAP1 CALLDATASIZE SWAP1 PUSH1 0x4 ADD PUSH2 0x416A JUMP JUMPDEST SWAP6 PUSH1 0x4 PUSH2 0x104 CALLDATALOAD LT ISZERO PUSH2 0x1ED4 JUMPI PUSH1 0x4 PUSH2 0x124 CALLDATALOAD LT ISZERO PUSH2 0x1ED4 JUMPI DUP1 ISZERO ISZERO DUP1 PUSH2 0x1EC9 JUMPI JUMPDEST PUSH2 0x183B SWAP1 PUSH2 0x48F8 JUMP JUMPDEST PUSH1 0x0 NOT DUP2 ADD SWAP1 DUP2 GT PUSH2 0x1EB5 JUMPI DUP1 PUSH2 0x1872 PUSH2 0x1857 PUSH2 0x1877 SWAP4 PUSH2 0x481F JUMP JUMPDEST POP PUSH1 0x8 ADD SLOAD CALLER PUSH1 0x10 SWAP2 SWAP1 SWAP2 SHR PUSH1 0x1 PUSH1 0x1 PUSH1 0xA0 SHL SUB AND EQ PUSH2 0x4939 JUMP JUMPDEST PUSH2 0x481F JUMP JUMPDEST POP SWAP4 DUP1 MLOAD SWAP1 PUSH1 0x1 PUSH1 0x1 PUSH1 0x40 SHL SUB DUP3 GT PUSH2 0x1EA1 JUMPI DUP2 SWAP1 PUSH2 0x1899 PUSH1 0x1 DUP9 ADD SLOAD PUSH2 0x4537 JUMP JUMPDEST PUSH1 0x1F DUP2 GT PUSH2 0x1E6E JUMPI JUMPDEST POP PUSH1 0x20 SWAP1 PUSH1 0x1F DUP4 GT PUSH1 0x1 EQ PUSH2 0x1E00 JUMPI DUP9 SWAP3 PUSH2 0x1DF5 JUMPI JUMPDEST POP POP DUP2 PUSH1 0x1 SHL SWAP2 PUSH1 0x0 NOT SWAP1 PUSH1 0x3 SHL SHR NOT AND OR PUSH1 0x1 DUP6 ADD SSTORE JUMPDEST DUP1 MLOAD SWAP1 PUSH1 0x1 PUSH1 0x1 PUSH1 0x40 SHL SUB DUP3 GT PUSH2 0x103F JUMPI DUP2 SWAP1 PUSH2 0x18F0 PUSH1 0x2 DUP8 ADD SLOAD PUSH2 0x4537 JUMP JUMPDEST PUSH1 0x1F DUP2 GT PUSH2 0x1DC2 JUMPI JUMPDEST POP PUSH1 0x20 SWAP1 PUSH1 0x1F DUP4 GT PUSH1 0x1 EQ PUSH2 0x1D54 JUMPI DUP8 SWAP3 PUSH2 0x1D49 JUMPI JUMPDEST POP POP DUP2 PUSH1 0x1 SHL SWAP2 PUSH1 0x0 NOT SWAP1 PUSH1 0x3 SHL SHR NOT AND OR PUSH1 0x2 DUP5 ADD SSTORE JUMPDEST DUP1 MLOAD SWAP1 PUSH1 0x1 PUSH1 0x1 PUSH1 0x40 SHL SUB DUP3 GT PUSH2 0xF7C JUMPI DUP2 SWAP1 PUSH2 0x1947 PUSH1 0x3 DUP7 ADD SLOAD PUSH2 0x4537 JUMP JUMPDEST PUSH1 0x1F DUP2 GT PUSH2 0x1D16 JUMPI JUMPDEST POP PUSH1 0x20 SWAP1 PUSH1 0x1F DUP4 GT PUSH1 0x1 EQ PUSH2 0x1CA8 JUMPI DUP7 SWAP3 PUSH2 0x1C9D JUMPI JUMPDEST POP POP DUP2 PUSH1 0x1 SHL SWAP2 PUSH1 0x0 NOT SWAP1 PUSH1 0x3 SHL SHR NOT AND OR PUSH1 0x3 DUP4 ADD SSTORE JUMPDEST DUP1 MLOAD SWAP1 PUSH1 0x1 PUSH1 0x1 PUSH1 0x40 SHL SUB DUP3 GT PUSH2 0x1114 JUMPI DUP2 SWAP1 PUSH2 0x199E PUSH1 0x4 DUP6 ADD SLOAD PUSH2 0x4537 JUMP JUMPDEST PUSH1 0x1F DUP2 GT PUSH2 0x1C6A JUMPI JUMPDEST POP PUSH1 0x20 SWAP1 PUSH1 0x1F DUP4 GT PUSH1 0x1 EQ PUSH2 0x1BFC JUMPI DUP6 SWAP3 PUSH2 0x1BF1 JUMPI JUMPDEST POP POP DUP2 PUSH1 0x1 SHL SWAP2 PUSH1 0x0 NOT SWAP1 PUSH1 0x3 SHL SHR NOT AND OR PUSH1 0x4 DUP3 ADD SSTORE JUMPDEST PUSH1 0xA4 CALLDATALOAD PUSH1 0x5 DUP3 ADD SSTORE DUP4 MLOAD PUSH1 0x1 PUSH1 0x1 PUSH1 0x40 SHL SUB DUP2 GT PUSH2 0xDAA JUMPI PUSH2 0x19FA PUSH1 0x6 DUP4 ADD SLOAD PUSH2 0x4537 JUMP JUMPDEST PUSH1 0x1F DUP2 GT PUSH2 0x1BBE JUMPI JUMPDEST POP PUSH1 0x20 PUSH1 0x1F DUP3 GT PUSH1 0x1 EQ PUSH2 0x1B53 JUMPI DUP4 SWAP5 SWAP6 DUP3 SWAP4 SWAP5 SWAP3 PUSH2 0x1B48 JUMPI JUMPDEST POP POP DUP2 PUSH1 0x1 SHL SWAP2 PUSH1 0x0 NOT SWAP1 PUSH1 0x3 SHL SHR NOT AND OR PUSH1 0x6 DUP3 ADD SSTORE JUMPDEST PUSH1 0x7 DUP2 ADD DUP4 MLOAD PUSH1 0x1 PUSH1 0x1 PUSH1 0x40 SHL SUB DUP2 GT PUSH2 0x1114 JUMPI PUSH2 0x1A53 DUP3 SLOAD PUSH2 0x4537 JUMP JUMPDEST PUSH1 0x1F DUP2 GT PUSH2 0x1B18 JUMPI JUMPDEST POP PUSH1 0x20 SWAP5 PUSH1 0x1F DUP3 GT PUSH1 0x1 EQ PUSH2 0x1AB6 JUMPI SWAP5 DUP5 SWAP6 DUP3 SWAP4 SWAP5 SWAP6 SWAP3 PUSH2 0x1AAB JUMPI JUMPDEST POP POP DUP2 PUSH1 0x1 SHL SWAP2 PUSH1 0x0 NOT SWAP1 PUSH1 0x3 SHL SHR NOT AND OR SWAP1 SSTORE JUMPDEST PUSH2 0x872 PUSH1 0x8 DUP3 ADD PUSH2 0x1AA1 PUSH2 0x104 CALLDATALOAD DUP3 PUSH2 0x48A9 JUMP JUMPDEST PUSH2 0x124 CALLDATALOAD SWAP1 PUSH2 0x48C1 JUMP JUMPDEST ADD MLOAD SWAP1 POP CODESIZE DUP1 PUSH2 0x1A78 JUMP JUMPDEST PUSH1 0x1F NOT DUP3 AND SWAP6 DUP4 DUP7 MSTORE DUP1 DUP7 KECCAK256 SWAP2 DUP7 JUMPDEST DUP9 DUP2 LT PUSH2 0x1B00 JUMPI POP DUP4 PUSH1 0x1 SWAP6 SWAP7 SWAP8 SWAP9 LT PUSH2 0x1AE7 JUMPI JUMPDEST POP POP POP DUP2 SHL ADD SWAP1 SSTORE PUSH2 0x1A8D JUMP JUMPDEST ADD MLOAD PUSH1 0x0 NOT PUSH1 0xF8 DUP5 PUSH1 0x3 SHL AND SHR NOT AND SWAP1 SSTORE CODESIZE DUP1 DUP1 PUSH2 0x1ADA JUMP JUMPDEST SWAP2 SWAP3 PUSH1 0x20 PUSH1 0x1 DUP2 SWAP3 DUP7 DUP6 ADD MLOAD DUP2 SSTORE ADD SWAP5 ADD SWAP3 ADD PUSH2 0x1AC5 JUMP JUMPDEST PUSH2 0x1B42 SWAP1 DUP4 DUP7 MSTORE PUSH1 0x20 DUP7 KECCAK256 PUSH1 0x1F DUP5 ADD PUSH1 0x5 SHR DUP2 ADD SWAP2 PUSH1 0x20 DUP6 LT PUSH2 0x628 JUMPI PUSH1 0x1F ADD PUSH1 0x5 SHR ADD SWAP1 PUSH2 0x4892 JUMP JUMPDEST CODESIZE PUSH2 0x1A5C JUMP JUMPDEST ADD MLOAD SWAP1 POP CODESIZE DUP1 PUSH2 0x1A1D JUMP JUMPDEST PUSH1 0x6 DUP4 ADD DUP5 MSTORE DUP1 DUP5 KECCAK256 SWAP1 DUP5 JUMPDEST PUSH1 0x1F NOT DUP5 AND DUP2 LT PUSH2 0x1BA6 JUMPI POP PUSH1 0x1 SWAP4 SWAP5 SWAP6 SWAP7 DUP4 PUSH1 0x1F NOT DUP2 AND LT PUSH2 0x1B8D JUMPI JUMPDEST POP POP POP DUP2 SHL ADD PUSH1 0x6 DUP3 ADD SSTORE PUSH2 0x1A35 JUMP JUMPDEST ADD MLOAD PUSH1 0x0 NOT PUSH1 0xF8 DUP5 PUSH1 0x3 SHL AND SHR NOT AND SWAP1 SSTORE CODESIZE DUP1 DUP1 PUSH2 0x1B7D JUMP JUMPDEST SWAP1 SWAP2 PUSH1 0x20 PUSH1 0x1 DUP2 SWAP3 DUP6 DUP12 ADD MLOAD DUP2 SSTORE ADD SWAP4 ADD SWAP2 ADD PUSH2 0x1B5F JUMP JUMPDEST PUSH2 0x1BEB SWAP1 PUSH1 0x6 DUP5 ADD DUP6 MSTORE PUSH1 0x20 DUP6 KECCAK256 PUSH1 0x1F DUP5 ADD PUSH1 0x5 SHR DUP2 ADD SWAP2 PUSH1 0x20 DUP6 LT PUSH2 0x628 JUMPI PUSH1 0x1F ADD PUSH1 0x5 SHR ADD SWAP1 PUSH2 0x4892 JUMP JUMPDEST CODESIZE PUSH2 0x1A03 JUMP JUMPDEST ADD MLOAD SWAP1 POP CODESIZE DUP1 PUSH2 0x19BD JUMP JUMPDEST SWAP3 POP PUSH1 0x4 DUP5 ADD DUP6 MSTORE DUP1 DUP6 KECCAK256 SWAP1 DUP6 SWAP4 JUMPDEST PUSH1 0x1F NOT DUP5 AND DUP6 LT PUSH2 0x1C4F JUMPI PUSH1 0x1 SWAP5 POP DUP4 PUSH1 0x1F NOT DUP2 AND LT PUSH2 0x1C36 JUMPI JUMPDEST POP POP POP DUP2 SHL ADD PUSH1 0x4 DUP3 ADD SSTORE PUSH2 0x19D5 JUMP JUMPDEST ADD MLOAD PUSH1 0x0 NOT PUSH1 0xF8 DUP5 PUSH1 0x3 SHL AND SHR NOT AND SWAP1 SSTORE CODESIZE DUP1 DUP1 PUSH2 0x1C26 JUMP JUMPDEST DUP2 DUP2 ADD MLOAD DUP4 SSTORE PUSH1 0x20 SWAP5 DUP6 ADD SWAP5 PUSH1 0x1 SWAP1 SWAP4 ADD SWAP3 SWAP1 SWAP2 ADD SWAP1 PUSH2 0x1C0B JUMP JUMPDEST PUSH2 0x1C97 SWAP1 PUSH1 0x4 DUP7 ADD DUP8 MSTORE PUSH1 0x20 DUP8 KECCAK256 PUSH1 0x1F DUP6 ADD PUSH1 0x5 SHR DUP2 ADD SWAP2 PUSH1 0x20 DUP7 LT PUSH2 0x628 JUMPI PUSH1 0x1F ADD PUSH1 0x5 SHR ADD SWAP1 PUSH2 0x4892 JUMP JUMPDEST CODESIZE PUSH2 0x19A7 JUMP JUMPDEST ADD MLOAD SWAP1 POP CODESIZE DUP1 PUSH2 0x1966 JUMP JUMPDEST SWAP3 POP PUSH1 0x3 DUP6 ADD DUP7 MSTORE DUP1 DUP7 KECCAK256 SWAP1 DUP7 SWAP4 JUMPDEST PUSH1 0x1F NOT DUP5 AND DUP6 LT PUSH2 0x1CFB JUMPI PUSH1 0x1 SWAP5 POP DUP4 PUSH1 0x1F NOT DUP2 AND LT PUSH2 0x1CE2 JUMPI JUMPDEST POP POP POP DUP2 SHL ADD PUSH1 0x3 DUP4 ADD SSTORE PUSH2 0x197E JUMP JUMPDEST ADD MLOAD PUSH1 0x0 NOT PUSH1 0xF8 DUP5 PUSH1 0x3 SHL AND SHR NOT AND SWAP1 SSTORE CODESIZE DUP1 DUP1 PUSH2 0x1CD2 JUMP JUMPDEST DUP2 DUP2 ADD MLOAD DUP4 SSTORE PUSH1 0x20 SWAP5 DUP6 ADD SWAP5 PUSH1 0x1 SWAP1 SWAP4 ADD SWAP3 SWAP1 SWAP2 ADD SWAP1 PUSH2 0x1CB7 JUMP JUMPDEST PUSH2 0x1D43 SWAP1 PUSH1 0x3 DUP8 ADD DUP9 MSTORE PUSH1 0x20 DUP9 KECCAK256 PUSH1 0x1F DUP6 ADD PUSH1 0x5 SHR DUP2 ADD SWAP2 PUSH1 0x20 DUP7 LT PUSH2 0x628 JUMPI PUSH1 0x1F ADD PUSH1 0x5 SHR ADD SWAP1 PUSH2 0x4892 JUMP JUMPDEST CODESIZE PUSH2 0x1950 JUMP JUMPDEST ADD MLOAD SWAP1 POP CODESIZE DUP1 PUSH2 0x190F JUMP JUMPDEST SWAP3 POP PUSH1 0x2 DUP7 ADD DUP8 MSTORE DUP1 DUP8 KECCAK256 SWAP1 DUP8 SWAP4 JUMPDEST PUSH1 0x1F NOT DUP5 AND DUP6 LT PUSH2 0x1DA7 JUMPI PUSH1 0x1 SWAP5 POP DUP4 PUSH1 0x1F NOT DUP2 AND LT PUSH2 0x1D8E JUMPI JUMPDEST POP POP POP DUP2 SHL ADD PUSH1 0x2 DUP5 ADD SSTORE PUSH2 0x1927 JUMP JUMPDEST ADD MLOAD PUSH1 0x0 NOT PUSH1 0xF8 DUP5 PUSH1 0x3 SHL AND SHR NOT AND SWAP1 SSTORE CODESIZE DUP1 DUP1 PUSH2 0x1D7E JUMP JUMPDEST DUP2 DUP2 ADD MLOAD DUP4 SSTORE PUSH1 0x20 SWAP5 DUP6 ADD SWAP5 PUSH1 0x1 SWAP1 SWAP4 ADD SWAP3 SWAP1 SWAP2 ADD SWAP1 PUSH2 0x1D63 JUMP JUMPDEST PUSH2 0x1DEF SWAP1 PUSH1 0x2 DUP9 ADD DUP10 MSTORE PUSH1 0x20 DUP10 KECCAK256 PUSH1 0x1F DUP6 ADD PUSH1 0x5 SHR DUP2 ADD SWAP2 PUSH1 0x20 DUP7 LT PUSH2 0x628 JUMPI PUSH1 0x1F ADD PUSH1 0x5 SHR ADD SWAP1 PUSH2 0x4892 JUMP JUMPDEST CODESIZE PUSH2 0x18F9 JUMP JUMPDEST ADD MLOAD SWAP1 POP CODESIZE DUP1 PUSH2 0x18B8 JUMP JUMPDEST SWAP3 POP PUSH1 0x1 DUP8 ADD DUP9 MSTORE DUP1 DUP9 KECCAK256 SWAP1 DUP9 SWAP4 JUMPDEST PUSH1 0x1F NOT DUP5 AND DUP6 LT PUSH2 0x1E53 JUMPI PUSH1 0x1 SWAP5 POP DUP4 PUSH1 0x1F NOT DUP2 AND LT PUSH2 0x1E3A JUMPI JUMPDEST POP POP POP DUP2 SHL ADD PUSH1 0x1 DUP6 ADD SSTORE PUSH2 0x18D0 JUMP JUMPDEST ADD MLOAD PUSH1 0x0 NOT PUSH1 0xF8 DUP5 PUSH1 0x3 SHL AND SHR NOT AND SWAP1 SSTORE CODESIZE DUP1 DUP1 PUSH2 0x1E2A JUMP JUMPDEST DUP2 DUP2 ADD MLOAD DUP4 SSTORE PUSH1 0x20 SWAP5 DUP6 ADD SWAP5 PUSH1 0x1 SWAP1 SWAP4 ADD SWAP3 SWAP1 SWAP2 ADD SWAP1 PUSH2 0x1E0F JUMP JUMPDEST PUSH2 0x1E9B SWAP1 PUSH1 0x1 DUP10 ADD DUP11 MSTORE PUSH1 0x20 DUP11 KECCAK256 PUSH1 0x1F DUP6 ADD PUSH1 0x5 SHR DUP2 ADD SWAP2 PUSH1 0x20 DUP7 LT PUSH2 0x628 JUMPI PUSH1 0x1F ADD PUSH1 0x5 SHR ADD SWAP1 PUSH2 0x4892 JUMP JUMPDEST CODESIZE PUSH2 0x18A2 JUMP JUMPDEST PUSH4 0x4E487B71 PUSH1 0xE0 SHL DUP8 MSTORE PUSH1 0x41 PUSH1 0x4 MSTORE PUSH1 0x24 DUP8 REVERT JUMPDEST PUSH4 0x4E487B71 PUSH1 0xE0 SHL DUP7 MSTORE PUSH1 0x11 PUSH1 0x4 MSTORE PUSH1 0x24 DUP7 REVERT JUMPDEST POP PUSH1 0x1 SLOAD DUP2 LT PUSH2 0x1832 JUMP JUMPDEST DUP6 DUP1 REVERT JUMPDEST DUP5 DUP1 REVERT JUMPDEST POP CALLVALUE PUSH2 0x694 JUMPI PUSH2 0x120 CALLDATASIZE PUSH1 0x3 NOT ADD SLT PUSH2 0x694 JUMPI PUSH1 0x4 CALLDATALOAD PUSH1 0x1 PUSH1 0x1 PUSH1 0x40 SHL SUB DUP2 GT PUSH2 0x4B0 JUMPI PUSH2 0x1F0E SWAP1 CALLDATASIZE SWAP1 PUSH1 0x4 ADD PUSH2 0x416A JUMP JUMPDEST PUSH1 0x24 CALLDATALOAD PUSH1 0x1 PUSH1 0x1 PUSH1 0x40 SHL SUB DUP2 GT PUSH2 0x4BF JUMPI PUSH2 0x1F2D SWAP1 CALLDATASIZE SWAP1 PUSH1 0x4 ADD PUSH2 0x416A JUMP JUMPDEST SWAP1 PUSH1 0x44 CALLDATALOAD PUSH1 0x1 PUSH1 0x1 PUSH1 0x40 SHL SUB DUP2 GT PUSH2 0x554 JUMPI PUSH2 0x1F4D SWAP1 CALLDATASIZE SWAP1 PUSH1 0x4 ADD PUSH2 0x416A JUMP JUMPDEST SWAP2 PUSH1 0x64 CALLDATALOAD PUSH1 0x1 PUSH1 0x1 PUSH1 0x40 SHL SUB DUP2 GT PUSH2 0x1ED8 JUMPI PUSH2 0x1F6D SWAP1 CALLDATASIZE SWAP1 PUSH1 0x4 ADD PUSH2 0x416A JUMP JUMPDEST PUSH1 0xA4 CALLDATALOAD PUSH1 0x1 PUSH1 0x1 PUSH1 0x40 SHL SUB DUP2 GT PUSH2 0x1ED4 JUMPI PUSH2 0x1F8C SWAP1 CALLDATASIZE SWAP1 PUSH1 0x4 ADD PUSH2 0x416A JUMP JUMPDEST PUSH1 0xC4 CALLDATALOAD PUSH1 0x1 PUSH1 0x1 PUSH1 0x40 SHL SUB DUP2 GT PUSH2 0x28A3 JUMPI PUSH2 0x1FAB SWAP1 CALLDATASIZE SWAP1 PUSH1 0x4 ADD PUSH2 0x416A JUMP JUMPDEST SWAP2 PUSH1 0x4 PUSH1 0xE4 CALLDATALOAD LT ISZERO PUSH2 0x28A3 JUMPI PUSH1 0x4 PUSH2 0x104 CALLDATALOAD LT ISZERO PUSH2 0x28A3 JUMPI PUSH1 0x1 SLOAD SWAP6 PUSH2 0x1FD0 DUP8 PUSH2 0x486D JUMP JUMPDEST PUSH1 0x1 SSTORE PUSH1 0x40 MLOAD SWAP5 DUP6 PUSH1 0x20 DUP2 ADD LT PUSH1 0x1 PUSH1 0x1 PUSH1 0x40 SHL SUB PUSH1 0x20 DUP9 ADD GT OR PUSH2 0x288D JUMPI PUSH1 0x20 DUP7 ADD PUSH1 0x40 MSTORE DUP9 DUP7 MSTORE PUSH1 0x40 MLOAD SWAP7 PUSH2 0x2006 DUP9 PUSH2 0x40F7 JUMP JUMPDEST DUP9 DUP9 MSTORE PUSH1 0x20 DUP9 ADD MSTORE PUSH1 0x40 DUP8 ADD MSTORE PUSH1 0x60 DUP7 ADD MSTORE PUSH1 0x80 DUP6 ADD MSTORE PUSH1 0x84 CALLDATALOAD PUSH1 0xA0 DUP6 ADD MSTORE PUSH1 0xC0 DUP5 ADD MSTORE PUSH1 0xE0 DUP4 ADD MSTORE PUSH2 0x203A PUSH1 0xE4 CALLDATALOAD PUSH2 0x41F9 JUMP JUMPDEST PUSH1 0xE4 CALLDATALOAD PUSH2 0x100 DUP4 ADD MSTORE PUSH2 0x204F PUSH2 0x104 CALLDATALOAD PUSH2 0x41F9 JUMP JUMPDEST PUSH2 0x104 CALLDATALOAD PUSH2 0x120 DUP4 ADD MSTORE CALLER PUSH2 0x140 DUP4 ADD MSTORE PUSH2 0x160 DUP3 ADD MSTORE TIMESTAMP PUSH2 0x180 DUP3 ADD MSTORE DUP3 SLOAD PUSH1 0x1 PUSH1 0x40 SHL DUP2 LT ISZERO PUSH2 0x1114 JUMPI DUP1 PUSH1 0x1 PUSH2 0x208A SWAP3 ADD DUP6 SSTORE PUSH2 0x481F JUMP JUMPDEST PUSH2 0x1100 JUMPI DUP2 MLOAD DUP2 SSTORE PUSH1 0x20 DUP3 ADD MLOAD DUP1 MLOAD SWAP1 PUSH1 0x1 PUSH1 0x1 PUSH1 0x40 SHL SUB DUP3 GT PUSH2 0x103F JUMPI DUP2 SWAP1 PUSH2 0x20B7 PUSH1 0x1 DUP6 ADD SLOAD PUSH2 0x4537 JUMP JUMPDEST PUSH1 0x1F DUP2 GT PUSH2 0x285A JUMPI JUMPDEST POP PUSH1 0x20 SWAP1 PUSH1 0x1F DUP4 GT PUSH1 0x1 EQ PUSH2 0x27EB JUMPI DUP8 SWAP3 PUSH2 0x27E0 JUMPI JUMPDEST POP POP DUP2 PUSH1 0x1 SHL SWAP2 PUSH1 0x0 NOT SWAP1 PUSH1 0x3 SHL SHR NOT AND OR PUSH1 0x1 DUP3 ADD SSTORE JUMPDEST PUSH1 0x40 DUP3 ADD MLOAD DUP1 MLOAD SWAP1 PUSH1 0x1 PUSH1 0x1 PUSH1 0x40 SHL SUB DUP3 GT PUSH2 0x103F JUMPI DUP2 SWAP1 PUSH2 0x2113 PUSH1 0x2 DUP6 ADD SLOAD PUSH2 0x4537 JUMP JUMPDEST PUSH1 0x1F DUP2 GT PUSH2 0x27AD JUMPI JUMPDEST POP PUSH1 0x20 SWAP1 PUSH1 0x1F DUP4 GT PUSH1 0x1 EQ PUSH2 0x273E JUMPI DUP8 SWAP3 PUSH2 0x2733 JUMPI JUMPDEST POP POP DUP2 PUSH1 0x1 SHL SWAP2 PUSH1 0x0 NOT SWAP1 PUSH1 0x3 SHL SHR NOT AND OR PUSH1 0x2 DUP3 ADD SSTORE JUMPDEST PUSH1 0x60 DUP3 ADD MLOAD DUP1 MLOAD SWAP1 PUSH1 0x1 PUSH1 0x1 PUSH1 0x40 SHL SUB DUP3 GT PUSH2 0x103F JUMPI DUP2 SWAP1 PUSH2 0x216F PUSH1 0x3 DUP6 ADD SLOAD PUSH2 0x4537 JUMP JUMPDEST PUSH1 0x1F DUP2 GT PUSH2 0x2700 JUMPI JUMPDEST POP PUSH1 0x20 SWAP1 PUSH1 0x1F DUP4 GT PUSH1 0x1 EQ PUSH2 0x2691 JUMPI DUP8 SWAP3 PUSH2 0x2686 JUMPI JUMPDEST POP POP DUP2 PUSH1 0x1 SHL SWAP2 PUSH1 0x0 NOT SWAP1 PUSH1 0x3 SHL SHR NOT AND OR PUSH1 0x3 DUP3 ADD SSTORE JUMPDEST PUSH1 0x80 DUP3 ADD MLOAD DUP1 MLOAD SWAP1 PUSH1 0x1 PUSH1 0x1 PUSH1 0x40 SHL SUB DUP3 GT PUSH2 0x103F JUMPI DUP2 SWAP1 PUSH2 0x21CB PUSH1 0x4 DUP6 ADD SLOAD PUSH2 0x4537 JUMP JUMPDEST PUSH1 0x1F DUP2 GT PUSH2 0x2653 JUMPI JUMPDEST POP PUSH1 0x20 SWAP1 PUSH1 0x1F DUP4 GT PUSH1 0x1 EQ PUSH2 0x25E4 JUMPI DUP8 SWAP3 PUSH2 0x25D9 JUMPI JUMPDEST POP POP DUP2 PUSH1 0x1 SHL SWAP2 PUSH1 0x0 NOT SWAP1 PUSH1 0x3 SHL SHR NOT AND OR PUSH1 0x4 DUP3 ADD SSTORE JUMPDEST PUSH1 0xA0 DUP3 ADD MLOAD PUSH1 0x5 DUP3 ADD SSTORE PUSH1 0xC0 DUP3 ADD MLOAD DUP1 MLOAD SWAP1 PUSH1 0x1 PUSH1 0x1 PUSH1 0x40 SHL SUB DUP3 GT PUSH2 0x103F JUMPI DUP2 SWAP1 PUSH2 0x2231 PUSH1 0x6 DUP6 ADD SLOAD PUSH2 0x4537 JUMP JUMPDEST PUSH1 0x1F DUP2 GT PUSH2 0x25A6 JUMPI JUMPDEST POP PUSH1 0x20 SWAP1 PUSH1 0x1F DUP4 GT PUSH1 0x1 EQ PUSH2 0x2537 JUMPI DUP8 SWAP3 PUSH2 0x252C JUMPI JUMPDEST POP POP DUP2 PUSH1 0x1 SHL SWAP2 PUSH1 0x0 NOT SWAP1 PUSH1 0x3 SHL SHR NOT AND OR PUSH1 0x6 DUP3 ADD SSTORE JUMPDEST PUSH1 0xE0 DUP3 ADD MLOAD DUP1 MLOAD SWAP1 PUSH1 0x1 PUSH1 0x1 PUSH1 0x40 SHL SUB DUP3 GT PUSH2 0x103F JUMPI DUP2 SWAP1 PUSH2 0x228D PUSH1 0x7 DUP6 ADD SLOAD PUSH2 0x4537 JUMP JUMPDEST PUSH1 0x1F DUP2 GT PUSH2 0x24F9 JUMPI JUMPDEST POP PUSH1 0x20 SWAP1 PUSH1 0x1F DUP4 GT PUSH1 0x1 EQ PUSH2 0x248A JUMPI DUP8 SWAP3 PUSH2 0x247F JUMPI JUMPDEST POP POP DUP2 PUSH1 0x1 SHL SWAP2 PUSH1 0x0 NOT SWAP1 PUSH1 0x3 SHL SHR NOT AND OR PUSH1 0x7 DUP3 ADD SSTORE JUMPDEST PUSH1 0x8 DUP2 ADD SWAP2 PUSH2 0x22E1 PUSH2 0x100 DUP3 ADD MLOAD PUSH2 0x22DB DUP2 PUSH2 0x41F9 JUMP JUMPDEST DUP5 PUSH2 0x48A9 JUMP JUMPDEST PUSH2 0x22F9 PUSH2 0x120 DUP3 ADD MLOAD PUSH2 0x22F3 DUP2 PUSH2 0x41F9 JUMP JUMPDEST DUP5 PUSH2 0x48C1 JUMP JUMPDEST PUSH2 0x140 DUP2 ADD MLOAD DUP4 SLOAD PUSH3 0x10000 PUSH1 0x1 PUSH1 0xB0 SHL SUB NOT AND PUSH1 0x10 SWAP2 SWAP1 SWAP2 SHL PUSH3 0x10000 PUSH1 0x1 PUSH1 0xB0 SHL SUB AND OR SWAP1 SWAP3 SSTORE PUSH1 0x1 PUSH1 0x1 PUSH1 0xA0 SHL SUB SWAP2 PUSH1 0x9 DUP3 ADD PUSH2 0x160 DUP3 ADD MLOAD SWAP1 DUP2 MLOAD SWAP2 PUSH1 0x1 PUSH1 0x1 PUSH1 0x40 SHL SUB DUP4 GT PUSH2 0x632 JUMPI PUSH1 0x1 PUSH1 0x40 SHL DUP4 GT PUSH2 0x632 JUMPI PUSH1 0x20 SWAP1 DUP3 SLOAD DUP5 DUP5 SSTORE DUP1 DUP6 LT PUSH2 0x2465 JUMPI JUMPDEST POP ADD SWAP1 DUP8 MSTORE PUSH1 0x20 DUP8 KECCAK256 DUP8 JUMPDEST DUP4 DUP2 LT PUSH2 0x2451 JUMPI POP POP POP POP PUSH2 0x180 PUSH1 0xA SWAP2 ADD MLOAD SWAP2 ADD SSTORE CALLER DUP4 MSTORE PUSH1 0x8 PUSH1 0x20 MSTORE PUSH1 0x40 DUP4 KECCAK256 DUP3 DUP5 MSTORE PUSH1 0x20 MSTORE PUSH1 0x40 DUP4 KECCAK256 PUSH1 0x1 PUSH1 0xFF NOT DUP3 SLOAD AND OR SWAP1 SSTORE PUSH32 0x0 AND PUSH1 0x40 MLOAD PUSH4 0xEAC50F6B PUSH1 0xE0 SHL DUP2 MSTORE CALLER PUSH1 0x4 DUP3 ADD MSTORE PUSH1 0x20 DUP2 PUSH1 0x24 DUP2 DUP6 GAS STATICCALL SWAP1 DUP2 ISZERO PUSH2 0x4F2 JUMPI DUP5 SWAP2 PUSH2 0x2432 JUMPI JUMPDEST POP PUSH2 0x2400 JUMPI PUSH1 0x20 DUP3 PUSH1 0x40 MLOAD SWAP1 DUP2 MSTORE RETURN JUMPDEST DUP1 EXTCODESIZE ISZERO PUSH2 0x4BF JUMPI PUSH1 0x40 MLOAD PUSH4 0xF2658413 PUSH1 0xE0 SHL DUP2 MSTORE CALLER PUSH1 0x4 DUP3 ADD MSTORE PUSH1 0x24 DUP2 ADD DUP4 SWAP1 MSTORE SWAP1 DUP4 SWAP1 DUP3 SWAP1 DUP2 DUP4 DUP2 PUSH1 0x44 DUP2 ADD PUSH2 0x48D JUMP JUMPDEST PUSH2 0x244B SWAP2 POP PUSH1 0x20 RETURNDATASIZE PUSH1 0x20 GT PUSH2 0x4EB JUMPI PUSH2 0x4DD DUP2 DUP4 PUSH2 0x412E JUMP JUMPDEST CODESIZE PUSH2 0x23F0 JUMP JUMPDEST PUSH1 0x1 SWAP1 PUSH1 0x20 DUP5 MLOAD SWAP5 ADD SWAP4 DUP2 DUP5 ADD SSTORE ADD PUSH2 0x236D JUMP JUMPDEST DUP4 DUP11 MSTORE DUP3 DUP11 KECCAK256 PUSH2 0x2479 SWAP2 DUP2 ADD SWAP1 DUP7 ADD PUSH2 0x4892 JUMP JUMPDEST CODESIZE PUSH2 0x2362 JUMP JUMPDEST ADD MLOAD SWAP1 POP CODESIZE DUP1 PUSH2 0x22AC JUMP JUMPDEST SWAP3 POP PUSH1 0x7 DUP5 ADD DUP8 MSTORE PUSH1 0x20 DUP8 KECCAK256 SWAP1 DUP8 SWAP4 JUMPDEST PUSH1 0x1F NOT DUP5 AND DUP6 LT PUSH2 0x24DE JUMPI PUSH1 0x1 SWAP5 POP DUP4 PUSH1 0x1F NOT DUP2 AND LT PUSH2 0x24C5 JUMPI JUMPDEST POP POP POP DUP2 SHL ADD PUSH1 0x7 DUP3 ADD SSTORE PUSH2 0x22C4 JUMP JUMPDEST ADD MLOAD PUSH1 0x0 NOT PUSH1 0xF8 DUP5 PUSH1 0x3 SHL AND SHR NOT AND SWAP1 SSTORE CODESIZE DUP1 DUP1 PUSH2 0x24B5 JUMP JUMPDEST DUP2 DUP2 ADD MLOAD DUP4 SSTORE PUSH1 0x20 SWAP5 DUP6 ADD SWAP5 PUSH1 0x1 SWAP1 SWAP4 ADD SWAP3 SWAP1 SWAP2 ADD SWAP1 PUSH2 0x249A JUMP JUMPDEST PUSH2 0x2526 SWAP1 PUSH1 0x7 DUP7 ADD DUP10 MSTORE PUSH1 0x20 DUP10 KECCAK256 PUSH1 0x1F DUP6 ADD PUSH1 0x5 SHR DUP2 ADD SWAP2 PUSH1 0x20 DUP7 LT PUSH2 0x628 JUMPI PUSH1 0x1F ADD PUSH1 0x5 SHR ADD SWAP1 PUSH2 0x4892 JUMP JUMPDEST CODESIZE PUSH2 0x2296 JUMP JUMPDEST ADD MLOAD SWAP1 POP CODESIZE DUP1 PUSH2 0x2250 JUMP JUMPDEST SWAP3 POP PUSH1 0x6 DUP5 ADD DUP8 MSTORE PUSH1 0x20 DUP8 KECCAK256 SWAP1 DUP8 SWAP4 JUMPDEST PUSH1 0x1F NOT DUP5 AND DUP6 LT PUSH2 0x258B JUMPI PUSH1 0x1 SWAP5 POP DUP4 PUSH1 0x1F NOT DUP2 AND LT PUSH2 0x2572 JUMPI JUMPDEST POP POP POP DUP2 SHL ADD PUSH1 0x6 DUP3 ADD SSTORE PUSH2 0x2268 JUMP JUMPDEST ADD MLOAD PUSH1 0x0 NOT PUSH1 0xF8 DUP5 PUSH1 0x3 SHL AND SHR NOT AND SWAP1 SSTORE CODESIZE DUP1 DUP1 PUSH2 0x2562 JUMP JUMPDEST DUP2 DUP2 ADD MLOAD DUP4 SSTORE PUSH1 0x20 SWAP5 DUP6 ADD SWAP5 PUSH1 0x1 SWAP1 SWAP4 ADD SWAP3 SWAP1 SWAP2 ADD SWAP1 PUSH2 0x2547 JUMP JUMPDEST PUSH2 0x25D3 SWAP1 PUSH1 0x6 DUP7 ADD DUP10 MSTORE PUSH1 0x20 DUP10 KECCAK256 PUSH1 0x1F DUP6 ADD PUSH1 0x5 SHR DUP2 ADD SWAP2 PUSH1 0x20 DUP7 LT PUSH2 0x628 JUMPI PUSH1 0x1F ADD PUSH1 0x5 SHR ADD SWAP1 PUSH2 0x4892 JUMP JUMPDEST CODESIZE PUSH2 0x223A JUMP JUMPDEST ADD MLOAD SWAP1 POP CODESIZE DUP1 PUSH2 0x21EA JUMP JUMPDEST SWAP3 POP PUSH1 0x4 DUP5 ADD DUP8 MSTORE PUSH1 0x20 DUP8 KECCAK256 SWAP1 DUP8 SWAP4 JUMPDEST PUSH1 0x1F NOT DUP5 AND DUP6 LT PUSH2 0x2638 JUMPI PUSH1 0x1 SWAP5 POP DUP4 PUSH1 0x1F NOT DUP2 AND LT PUSH2 0x261F JUMPI JUMPDEST POP POP POP DUP2 SHL ADD PUSH1 0x4 DUP3 ADD SSTORE PUSH2 0x2202 JUMP JUMPDEST ADD MLOAD PUSH1 0x0 NOT PUSH1 0xF8 DUP5 PUSH1 0x3 SHL AND SHR NOT AND SWAP1 SSTORE CODESIZE DUP1 DUP1 PUSH2 0x260F JUMP JUMPDEST DUP2 DUP2 ADD MLOAD DUP4 SSTORE PUSH1 0x20 SWAP5 DUP6 ADD SWAP5 PUSH1 0x1 SWAP1 SWAP4 ADD SWAP3 SWAP1 SWAP2 ADD SWAP1 PUSH2 0x25F4 JUMP JUMPDEST PUSH2 0x2680 SWAP1 PUSH1 0x4 DUP7 ADD DUP10 MSTORE PUSH1 0x20 DUP10 KECCAK256 PUSH1 0x1F DUP6 ADD PUSH1 0x5 SHR DUP2 ADD SWAP2 PUSH1 0x20 DUP7 LT PUSH2 0x628 JUMPI PUSH1 0x1F ADD PUSH1 0x5 SHR ADD SWAP1 PUSH2 0x4892 JUMP JUMPDEST CODESIZE PUSH2 0x21D4 JUMP JUMPDEST ADD MLOAD SWAP1 POP CODESIZE DUP1 PUSH2 0x218E JUMP JUMPDEST SWAP3 POP PUSH1 0x3 DUP5 ADD DUP8 MSTORE PUSH1 0x20 DUP8 KECCAK256 SWAP1 DUP8 SWAP4 JUMPDEST PUSH1 0x1F NOT DUP5 AND DUP6 LT PUSH2 0x26E5 JUMPI PUSH1 0x1 SWAP5 POP DUP4 PUSH1 0x1F NOT DUP2 AND LT PUSH2 0x26CC JUMPI JUMPDEST POP POP POP DUP2 SHL ADD PUSH1 0x3 DUP3 ADD SSTORE PUSH2 0x21A6 JUMP JUMPDEST ADD MLOAD PUSH1 0x0 NOT PUSH1 0xF8 DUP5 PUSH1 0x3 SHL AND SHR NOT AND SWAP1 SSTORE CODESIZE DUP1 DUP1 PUSH2 0x26BC JUMP JUMPDEST DUP2 DUP2 ADD MLOAD DUP4 SSTORE PUSH1 0x20 SWAP5 DUP6 ADD SWAP5 PUSH1 0x1 SWAP1 SWAP4 ADD SWAP3 SWAP1 SWAP2 ADD SWAP1 PUSH2 0x26A1 JUMP JUMPDEST PUSH2 0x272D SWAP1 PUSH1 0x3 DUP7 ADD DUP10 MSTORE PUSH1 0x20 DUP10 KECCAK256 PUSH1 0x1F DUP6 ADD PUSH1 0x5 SHR DUP2 ADD SWAP2 PUSH1 0x20 DUP7 LT PUSH2 0x628 JUMPI PUSH1 0x1F ADD PUSH1 0x5 SHR ADD SWAP1 PUSH2 0x4892 JUMP JUMPDEST CODESIZE PUSH2 0x2178 JUMP JUMPDEST ADD MLOAD SWAP1 POP CODESIZE DUP1 PUSH2 0x2132 JUMP JUMPDEST SWAP3 POP PUSH1 0x2 DUP5 ADD DUP8 MSTORE PUSH1 0x20 DUP8 KECCAK256 SWAP1 DUP8 SWAP4 JUMPDEST PUSH1 0x1F NOT DUP5 AND DUP6 LT PUSH2 0x2792 JUMPI PUSH1 0x1 SWAP5 POP DUP4 PUSH1 0x1F NOT DUP2 AND LT PUSH2 0x2779 JUMPI JUMPDEST POP POP POP DUP2 SHL ADD PUSH1 0x2 DUP3 ADD SSTORE PUSH2 0x214A JUMP JUMPDEST ADD MLOAD PUSH1 0x0 NOT PUSH1 0xF8 DUP5 PUSH1 0x3 SHL AND SHR NOT AND SWAP1 SSTORE CODESIZE DUP1 DUP1 PUSH2 0x2769 JUMP JUMPDEST DUP2 DUP2 ADD MLOAD DUP4 SSTORE PUSH1 0x20 SWAP5 DUP6 ADD SWAP5 PUSH1 0x1 SWAP1 SWAP4 ADD SWAP3 SWAP1 SWAP2 ADD SWAP1 PUSH2 0x274E JUMP JUMPDEST PUSH2 0x27DA SWAP1 PUSH1 0x2 DUP7 ADD DUP10 MSTORE PUSH1 0x20 DUP10 KECCAK256 PUSH1 0x1F DUP6 ADD PUSH1 0x5 SHR DUP2 ADD SWAP2 PUSH1 0x20 DUP7 LT PUSH2 0x628 JUMPI PUSH1 0x1F ADD PUSH1 0x5 SHR ADD SWAP1 PUSH2 0x4892 JUMP JUMPDEST CODESIZE PUSH2 0x211C JUMP JUMPDEST ADD MLOAD SWAP1 POP CODESIZE DUP1 PUSH2 0x20D6 JUMP JUMPDEST SWAP3 POP PUSH1 0x1 DUP5 ADD DUP8 MSTORE PUSH1 0x20 DUP8 KECCAK256 SWAP1 DUP8 SWAP4 JUMPDEST PUSH1 0x1F NOT DUP5 AND DUP6 LT PUSH2 0x283F JUMPI PUSH1 0x1 SWAP5 POP DUP4 PUSH1 0x1F NOT DUP2 AND LT PUSH2 0x2826 JUMPI JUMPDEST POP POP POP DUP2 SHL ADD PUSH1 0x1 DUP3 ADD SSTORE PUSH2 0x20EE JUMP JUMPDEST ADD MLOAD PUSH1 0x0 NOT PUSH1 0xF8 DUP5 PUSH1 0x3 SHL AND SHR NOT AND SWAP1 SSTORE CODESIZE DUP1 DUP1 PUSH2 0x2816 JUMP JUMPDEST DUP2 DUP2 ADD MLOAD DUP4 SSTORE PUSH1 0x20 SWAP5 DUP6 ADD SWAP5 PUSH1 0x1 SWAP1 SWAP4 ADD SWAP3 SWAP1 SWAP2 ADD SWAP1 PUSH2 0x27FB JUMP JUMPDEST PUSH2 0x2887 SWAP1 PUSH1 0x1 DUP7 ADD DUP10 MSTORE PUSH1 0x20 DUP10 KECCAK256 PUSH1 0x1F DUP6 ADD PUSH1 0x5 SHR DUP2 ADD SWAP2 PUSH1 0x20 DUP7 LT PUSH2 0x628 JUMPI PUSH1 0x1F ADD PUSH1 0x5 SHR ADD SWAP1 PUSH2 0x4892 JUMP JUMPDEST CODESIZE PUSH2 0x20C0 JUMP JUMPDEST PUSH4 0x4E487B71 PUSH1 0xE0 SHL PUSH1 0x0 MSTORE PUSH1 0x41 PUSH1 0x4 MSTORE PUSH1 0x24 PUSH1 0x0 REVERT JUMPDEST DUP7 DUP1 REVERT JUMPDEST POP CALLVALUE PUSH2 0x694 JUMPI PUSH1 0x20 DUP1 PUSH1 0x3 NOT CALLDATASIZE ADD SLT PUSH2 0x4B0 JUMPI PUSH1 0x4 CALLDATALOAD DUP1 ISZERO ISZERO DUP1 PUSH2 0x2A31 JUMPI JUMPDEST PUSH2 0x28D2 SWAP1 SWAP4 SWAP3 SWAP4 PUSH2 0x48F8 JUMP JUMPDEST PUSH1 0x2 SLOAD DUP3 SWAP2 DUP3 JUMPDEST DUP3 DUP2 LT PUSH2 0x29F3 JUMPI POP PUSH2 0x28EA DUP4 PUSH2 0x4715 JUMP JUMPDEST SWAP3 PUSH2 0x28F8 PUSH1 0x40 MLOAD SWAP5 DUP6 PUSH2 0x412E JUMP JUMPDEST DUP1 DUP5 MSTORE PUSH2 0x2907 PUSH1 0x1F NOT SWAP2 PUSH2 0x4715 JUMP JUMPDEST ADD DUP5 JUMPDEST DUP2 DUP2 LT PUSH2 0x29D8 JUMPI POP POP DUP4 SWAP1 DUP5 JUMPDEST DUP4 DUP2 LT PUSH2 0x297E JUMPI POP POP POP POP PUSH1 0x40 MLOAD SWAP2 DUP4 DUP4 ADD DUP5 DUP5 MSTORE DUP3 MLOAD DUP1 SWAP2 MSTORE PUSH1 0x40 DUP5 ADD SWAP5 DUP1 PUSH1 0x40 DUP4 PUSH1 0x5 SHL DUP8 ADD ADD SWAP5 ADD SWAP3 SWAP6 JUMPDEST DUP3 DUP8 LT PUSH2 0x2952 JUMPI DUP6 DUP6 SUB DUP7 RETURN JUMPDEST SWAP1 SWAP2 SWAP3 SWAP4 DUP3 DUP1 PUSH2 0x296E PUSH1 0x1 SWAP4 PUSH1 0x3F NOT DUP11 DUP3 SUB ADD DUP7 MSTORE DUP9 MLOAD PUSH2 0x47AC JUMP JUMPDEST SWAP7 ADD SWAP3 ADD SWAP7 ADD SWAP6 SWAP3 SWAP2 SWAP1 SWAP3 PUSH2 0x2945 JUMP JUMPDEST DUP2 PUSH1 0x1 PUSH2 0x298D DUP4 SWAP10 SWAP9 SWAP10 PUSH2 0x44E6 JUMP JUMPDEST POP ADD SLOAD EQ PUSH2 0x29A7 JUMPI JUMPDEST PUSH2 0x299F SWAP1 PUSH2 0x486D JUMP JUMPDEST SWAP6 SWAP5 SWAP6 PUSH2 0x2917 JUMP JUMPDEST SWAP2 PUSH2 0x29D0 PUSH2 0x299F SWAP2 PUSH2 0x29BB PUSH2 0x15B6 DUP7 PUSH2 0x44E6 JUMP JUMPDEST PUSH2 0x29C5 DUP3 DUP10 PUSH2 0x4BBE JUMP JUMPDEST MSTORE PUSH2 0x1358 DUP2 DUP9 PUSH2 0x4BBE JUMP JUMPDEST SWAP3 SWAP1 POP PUSH2 0x2996 JUMP JUMPDEST SWAP6 DUP1 SWAP6 SWAP7 PUSH2 0x29E4 PUSH2 0x4CF7 JUMP JUMPDEST DUP3 DUP3 DUP9 ADD ADD MSTORE ADD SWAP6 SWAP5 SWAP6 PUSH2 0x290A JUMP JUMPDEST DUP2 PUSH1 0x1 PUSH2 0x2A02 DUP4 SWAP9 SWAP8 SWAP9 PUSH2 0x44E6 JUMP JUMPDEST POP ADD SLOAD EQ PUSH2 0x2A1C JUMPI JUMPDEST PUSH2 0x2A14 SWAP1 PUSH2 0x486D JUMP JUMPDEST SWAP5 SWAP4 SWAP5 PUSH2 0x28D9 JUMP JUMPDEST SWAP3 PUSH2 0x2A29 PUSH2 0x2A14 SWAP2 PUSH2 0x486D JUMP JUMPDEST SWAP4 SWAP1 POP PUSH2 0x2A0B JUMP JUMPDEST POP PUSH1 0x1 SLOAD DUP2 LT PUSH2 0x28C6 JUMP JUMPDEST POP CALLVALUE PUSH2 0x694 JUMPI PUSH1 0x80 CALLDATASIZE PUSH1 0x3 NOT ADD SLT PUSH2 0x694 JUMPI PUSH1 0x4 CALLDATALOAD PUSH1 0x1 PUSH1 0x1 PUSH1 0x40 SHL SUB DUP2 GT PUSH2 0x4B0 JUMPI PUSH2 0x2A6D SWAP1 CALLDATASIZE SWAP1 PUSH1 0x4 ADD PUSH2 0x416A JUMP JUMPDEST SWAP1 PUSH1 0x24 CALLDATALOAD PUSH1 0x1 PUSH1 0x1 PUSH1 0x40 SHL SUB DUP2 GT PUSH2 0x4B0 JUMPI PUSH2 0x2A8D SWAP1 CALLDATASIZE SWAP1 PUSH1 0x4 ADD PUSH2 0x416A JUMP JUMPDEST SWAP2 PUSH1 0x44 CALLDATALOAD PUSH1 0x1 PUSH1 0x1 PUSH1 0x40 SHL SUB DUP2 GT PUSH2 0x4BF JUMPI PUSH2 0x2AAD SWAP1 CALLDATASIZE SWAP1 PUSH1 0x4 ADD PUSH2 0x472C JUMP JUMPDEST SWAP2 PUSH1 0x7 SLOAD SWAP3 PUSH2 0x2ABB DUP5 PUSH2 0x486D JUMP JUMPDEST PUSH1 0x7 SSTORE PUSH1 0x40 MLOAD SWAP5 PUSH2 0x2ACB DUP7 PUSH2 0x40DB JUMP JUMPDEST DUP5 DUP7 MSTORE PUSH1 0x20 DUP7 ADD SWAP4 DUP5 MSTORE PUSH1 0x40 DUP7 ADD MSTORE PUSH1 0x40 MLOAD PUSH1 0x40 DUP2 ADD DUP2 DUP2 LT PUSH1 0x1 PUSH1 0x1 PUSH1 0x40 SHL SUB DUP3 GT OR PUSH2 0x288D JUMPI PUSH1 0x40 MSTORE PUSH1 0x7 DUP2 MSTORE PUSH7 0x70656E64696E67 PUSH1 0xC8 SHL PUSH1 0x20 DUP3 ADD MSTORE PUSH1 0x60 DUP7 ADD MSTORE DUP2 PUSH1 0x80 DUP7 ADD MSTORE TIMESTAMP PUSH1 0xA0 DUP7 ADD MSTORE CALLER PUSH1 0xC0 DUP7 ADD MSTORE PUSH1 0xE0 DUP6 ADD MSTORE PUSH1 0x64 CALLDATALOAD PUSH2 0x100 DUP6 ADD MSTORE PUSH1 0x4 SLOAD PUSH1 0x1 PUSH1 0x40 SHL DUP2 LT ISZERO PUSH2 0x309A JUMPI DUP1 PUSH1 0x1 PUSH2 0x2B4E SWAP3 ADD PUSH1 0x4 SSTORE PUSH2 0x4617 JUMP JUMPDEST SWAP3 SWAP1 SWAP3 PUSH2 0x3086 JUMPI DUP5 MLOAD DUP4 SSTORE MLOAD DUP1 MLOAD SWAP1 PUSH1 0x1 PUSH1 0x1 PUSH1 0x40 SHL SUB DUP3 GT PUSH2 0xDAA JUMPI DUP2 SWAP1 PUSH2 0x2B7A PUSH1 0x1 DUP7 ADD SLOAD PUSH2 0x4537 JUMP JUMPDEST PUSH1 0x1F DUP2 GT PUSH2 0x3053 JUMPI JUMPDEST POP PUSH1 0x20 SWAP1 PUSH1 0x1F DUP4 GT PUSH1 0x1 EQ PUSH2 0x2FE4 JUMPI DUP5 SWAP3 PUSH2 0x2FD9 JUMPI JUMPDEST POP POP DUP2 PUSH1 0x1 SHL SWAP2 PUSH1 0x0 NOT SWAP1 PUSH1 0x3 SHL SHR NOT AND OR PUSH1 0x1 DUP4 ADD SSTORE JUMPDEST PUSH1 0x40 DUP5 ADD MLOAD DUP1 MLOAD SWAP1 PUSH1 0x1 PUSH1 0x1 PUSH1 0x40 SHL SUB DUP3 GT PUSH2 0xDAA JUMPI DUP2 SWAP1 PUSH2 0x2BD6 PUSH1 0x2 DUP7 ADD SLOAD PUSH2 0x4537 JUMP JUMPDEST PUSH1 0x1F DUP2 GT PUSH2 0x2FA6 JUMPI JUMPDEST POP PUSH1 0x20 SWAP1 PUSH1 0x1F DUP4 GT PUSH1 0x1 EQ PUSH2 0x2F37 JUMPI DUP5 SWAP3 PUSH2 0x2F2C JUMPI JUMPDEST POP POP DUP2 PUSH1 0x1 SHL SWAP2 PUSH1 0x0 NOT SWAP1 PUSH1 0x3 SHL SHR NOT AND OR PUSH1 0x2 DUP4 ADD SSTORE JUMPDEST PUSH1 0x60 DUP5 ADD MLOAD DUP1 MLOAD SWAP1 PUSH1 0x1 PUSH1 0x1 PUSH1 0x40 SHL SUB DUP3 GT PUSH2 0xDAA JUMPI DUP2 SWAP1 PUSH2 0x2C32 PUSH1 0x3 DUP7 ADD SLOAD PUSH2 0x4537 JUMP JUMPDEST PUSH1 0x1F DUP2 GT PUSH2 0x2EF9 JUMPI JUMPDEST POP PUSH1 0x20 SWAP1 PUSH1 0x1F DUP4 GT PUSH1 0x1 EQ PUSH2 0x2E8A JUMPI DUP5 SWAP3 PUSH2 0x2E7F JUMPI JUMPDEST POP POP DUP2 PUSH1 0x1 SHL SWAP2 PUSH1 0x0 NOT SWAP1 PUSH1 0x3 SHL SHR NOT AND OR PUSH1 0x3 DUP4 ADD SSTORE JUMPDEST PUSH1 0x80 DUP5 ADD MLOAD PUSH1 0x4 DUP4 ADD SSTORE PUSH1 0xA0 DUP5 ADD MLOAD PUSH1 0x5 DUP4 ADD SSTORE PUSH1 0x6 DUP3 ADD PUSH1 0x1 DUP1 PUSH1 0xA0 SHL SUB PUSH1 0xC0 DUP7 ADD MLOAD AND PUSH12 0xFFFFFFFFFFFFFFFFFFFFFFFF PUSH1 0xA0 SHL DUP3 SLOAD AND OR SWAP1 SSTORE PUSH1 0xE0 DUP5 ADD MLOAD DUP1 MLOAD SWAP1 PUSH1 0x1 PUSH1 0x40 SHL DUP3 GT PUSH2 0xDAA JUMPI PUSH1 0x7 DUP5 ADD SLOAD DUP3 PUSH1 0x7 DUP7 ADD SSTORE DUP1 DUP4 LT PUSH2 0x2E07 JUMPI JUMPDEST POP PUSH1 0x20 ADD PUSH1 0x7 DUP5 ADD DUP4 MSTORE PUSH1 0x20 DUP4 KECCAK256 DUP4 SWAP2 JUMPDEST DUP4 DUP4 LT PUSH2 0x2CF8 JUMPI PUSH2 0x100 DUP9 ADD MLOAD PUSH1 0x8 DUP8 ADD SSTORE PUSH1 0x40 MLOAD DUP8 DUP2 MSTORE PUSH1 0x20 SWAP1 RETURN JUMPDEST DUP1 MLOAD DUP1 MLOAD SWAP1 PUSH1 0x1 PUSH1 0x1 PUSH1 0x40 SHL SUB DUP3 GT PUSH2 0x1EA1 JUMPI PUSH2 0x2D15 DUP5 SLOAD PUSH2 0x4537 JUMP JUMPDEST PUSH1 0x1F DUP2 GT PUSH2 0x2DD7 JUMPI JUMPDEST POP PUSH1 0x20 SWAP1 PUSH1 0x1F DUP4 GT PUSH1 0x1 EQ PUSH2 0x2D6A JUMPI SWAP3 DUP3 PUSH1 0x1 SWAP5 SWAP4 PUSH1 0x20 SWAP4 DUP7 SWAP6 DUP12 SWAP3 PUSH2 0x2D5F JUMPI JUMPDEST POP POP PUSH1 0x0 NOT PUSH1 0x3 DUP4 SWAP1 SHL SHR NOT AND SWAP1 DUP5 SHL OR DUP6 SSTORE JUMPDEST ADD SWAP3 ADD SWAP3 ADD SWAP2 SWAP1 PUSH2 0x2CDB JUMP JUMPDEST ADD MLOAD SWAP1 POP CODESIZE DUP1 PUSH2 0x2D3F JUMP JUMPDEST SWAP1 DUP5 DUP9 MSTORE PUSH1 0x20 DUP9 KECCAK256 SWAP2 DUP9 JUMPDEST PUSH1 0x1F NOT DUP6 AND DUP2 LT PUSH2 0x2DBF JUMPI POP DUP4 PUSH1 0x20 SWAP4 PUSH1 0x1 SWAP7 SWAP4 DUP8 SWAP7 SWAP4 DUP8 SWAP5 PUSH1 0x1F NOT DUP2 AND LT PUSH2 0x2DA6 JUMPI JUMPDEST POP POP POP DUP2 SHL ADD DUP6 SSTORE PUSH2 0x2D53 JUMP JUMPDEST ADD MLOAD PUSH1 0x0 NOT PUSH1 0xF8 DUP5 PUSH1 0x3 SHL AND SHR NOT AND SWAP1 SSTORE CODESIZE DUP1 DUP1 PUSH2 0x2D99 JUMP JUMPDEST SWAP2 SWAP3 PUSH1 0x20 PUSH1 0x1 DUP2 SWAP3 DUP7 DUP6 ADD MLOAD DUP2 SSTORE ADD SWAP5 ADD SWAP3 ADD PUSH2 0x2D75 JUMP JUMPDEST PUSH2 0x2E01 SWAP1 DUP6 DUP10 MSTORE PUSH1 0x20 DUP10 KECCAK256 PUSH1 0x1F DUP6 ADD PUSH1 0x5 SHR DUP2 ADD SWAP2 PUSH1 0x20 DUP7 LT PUSH2 0x628 JUMPI PUSH1 0x1F ADD PUSH1 0x5 SHR ADD SWAP1 PUSH2 0x4892 JUMP JUMPDEST CODESIZE PUSH2 0x2D1E JUMP JUMPDEST PUSH1 0x7 DUP6 ADD DUP5 MSTORE PUSH1 0x20 DUP5 KECCAK256 SWAP1 DUP4 DUP3 ADD JUMPDEST DUP2 DUP4 ADD DUP2 LT PUSH2 0x2E26 JUMPI POP POP PUSH2 0x2CCA JUMP JUMPDEST DUP1 DUP7 PUSH2 0x2E34 PUSH1 0x1 SWAP4 SLOAD PUSH2 0x4537 JUMP JUMPDEST DUP1 PUSH2 0x2E42 JUMPI JUMPDEST POP POP ADD PUSH2 0x2E16 JUMP JUMPDEST PUSH1 0x1F DUP2 GT DUP5 EQ PUSH2 0x2E5A JUMPI POP POP PUSH1 0x0 DUP2 SSTORE JUMPDEST DUP7 CODESIZE PUSH2 0x2E3A JUMP JUMPDEST DUP3 DUP3 MSTORE PUSH2 0x2E75 PUSH1 0x1F PUSH1 0x20 DUP5 KECCAK256 SWAP3 ADD PUSH1 0x5 SHR DUP3 ADD DUP6 DUP4 ADD PUSH2 0x4892 JUMP JUMPDEST PUSH1 0x0 DUP4 SSTORE SSTORE PUSH2 0x2E53 JUMP JUMPDEST ADD MLOAD SWAP1 POP CODESIZE DUP1 PUSH2 0x2C51 JUMP JUMPDEST SWAP3 POP PUSH1 0x3 DUP6 ADD DUP5 MSTORE PUSH1 0x20 DUP5 KECCAK256 SWAP1 DUP5 SWAP4 JUMPDEST PUSH1 0x1F NOT DUP5 AND DUP6 LT PUSH2 0x2EDE JUMPI PUSH1 0x1 SWAP5 POP DUP4 PUSH1 0x1F NOT DUP2 AND LT PUSH2 0x2EC5 JUMPI JUMPDEST POP POP POP DUP2 SHL ADD PUSH1 0x3 DUP4 ADD SSTORE PUSH2 0x2C69 JUMP JUMPDEST ADD MLOAD PUSH1 0x0 NOT PUSH1 0xF8 DUP5 PUSH1 0x3 SHL AND SHR NOT AND SWAP1 SSTORE CODESIZE DUP1 DUP1 PUSH2 0x2EB5 JUMP JUMPDEST DUP2 DUP2 ADD MLOAD DUP4 SSTORE PUSH1 0x20 SWAP5 DUP6 ADD SWAP5 PUSH1 0x1 SWAP1 SWAP4 ADD SWAP3 SWAP1 SWAP2 ADD SWAP1 PUSH2 0x2E9A JUMP JUMPDEST PUSH2 0x2F26 SWAP1 PUSH1 0x3 DUP8 ADD DUP7 MSTORE PUSH1 0x20 DUP7 KECCAK256 PUSH1 0x1F DUP6 ADD PUSH1 0x5 SHR DUP2 ADD SWAP2 PUSH1 0x20 DUP7 LT PUSH2 0x628 JUMPI PUSH1 0x1F ADD PUSH1 0x5 SHR ADD SWAP1 PUSH2 0x4892 JUMP JUMPDEST CODESIZE PUSH2 0x2C3B JUMP JUMPDEST ADD MLOAD SWAP1 POP CODESIZE DUP1 PUSH2 0x2BF5 JUMP JUMPDEST SWAP3 POP PUSH1 0x2 DUP6 ADD DUP5 MSTORE PUSH1 0x20 DUP5 KECCAK256 SWAP1 DUP5 SWAP4 JUMPDEST PUSH1 0x1F NOT DUP5 AND DUP6 LT PUSH2 0x2F8B JUMPI PUSH1 0x1 SWAP5 POP DUP4 PUSH1 0x1F NOT DUP2 AND LT PUSH2 0x2F72 JUMPI JUMPDEST POP POP POP DUP2 SHL ADD PUSH1 0x2 DUP4 ADD SSTORE PUSH2 0x2C0D JUMP JUMPDEST ADD MLOAD PUSH1 0x0 NOT PUSH1 0xF8 DUP5 PUSH1 0x3 SHL AND SHR NOT AND SWAP1 SSTORE CODESIZE DUP1 DUP1 PUSH2 0x2F62 JUMP JUMPDEST DUP2 DUP2 ADD MLOAD DUP4 SSTORE PUSH1 0x20 SWAP5 DUP6 ADD SWAP5 PUSH1 0x1 SWAP1 SWAP4 ADD SWAP3 SWAP1 SWAP2 ADD SWAP1 PUSH2 0x2F47 JUMP JUMPDEST PUSH2 0x2FD3 SWAP1 PUSH1 0x2 DUP8 ADD DUP7 MSTORE PUSH1 0x20 DUP7 KECCAK256 PUSH1 0x1F DUP6 ADD PUSH1 0x5 SHR DUP2 ADD SWAP2 PUSH1 0x20 DUP7 LT PUSH2 0x628 JUMPI PUSH1 0x1F ADD PUSH1 0x5 SHR ADD SWAP1 PUSH2 0x4892 JUMP JUMPDEST CODESIZE PUSH2 0x2BDF JUMP JUMPDEST ADD MLOAD SWAP1 POP CODESIZE DUP1 PUSH2 0x2B99 JUMP JUMPDEST SWAP3 POP PUSH1 0x1 DUP6 ADD DUP5 MSTORE PUSH1 0x20 DUP5 KECCAK256 SWAP1 DUP5 SWAP4 JUMPDEST PUSH1 0x1F NOT DUP5 AND DUP6 LT PUSH2 0x3038 JUMPI PUSH1 0x1 SWAP5 POP DUP4 PUSH1 0x1F NOT DUP2 AND LT PUSH2 0x301F JUMPI JUMPDEST POP POP POP DUP2 SHL ADD PUSH1 0x1 DUP4 ADD SSTORE PUSH2 0x2BB1 JUMP JUMPDEST ADD MLOAD PUSH1 0x0 NOT PUSH1 0xF8 DUP5 PUSH1 0x3 SHL AND SHR NOT AND SWAP1 SSTORE CODESIZE DUP1 DUP1 PUSH2 0x300F JUMP JUMPDEST DUP2 DUP2 ADD MLOAD DUP4 SSTORE PUSH1 0x20 SWAP5 DUP6 ADD SWAP5 PUSH1 0x1 SWAP1 SWAP4 ADD SWAP3 SWAP1 SWAP2 ADD SWAP1 PUSH2 0x2FF4 JUMP JUMPDEST PUSH2 0x3080 SWAP1 PUSH1 0x1 DUP8 ADD DUP7 MSTORE PUSH1 0x20 DUP7 KECCAK256 PUSH1 0x1F DUP6 ADD PUSH1 0x5 SHR DUP2 ADD SWAP2 PUSH1 0x20 DUP7 LT PUSH2 0x628 JUMPI PUSH1 0x1F ADD PUSH1 0x5 SHR ADD SWAP1 PUSH2 0x4892 JUMP JUMPDEST CODESIZE PUSH2 0x2B83 JUMP JUMPDEST PUSH4 0x4E487B71 PUSH1 0xE0 SHL DUP3 MSTORE PUSH1 0x4 DUP3 SWAP1 MSTORE PUSH1 0x24 DUP3 REVERT JUMPDEST PUSH4 0x4E487B71 PUSH1 0xE0 SHL DUP3 MSTORE PUSH1 0x41 PUSH1 0x4 MSTORE PUSH1 0x24 DUP3 REVERT JUMPDEST POP CALLVALUE PUSH2 0x694 JUMPI PUSH1 0x20 DUP1 PUSH1 0x3 NOT CALLDATASIZE ADD SLT PUSH2 0x4B0 JUMPI PUSH1 0x4 CALLDATALOAD DUP1 ISZERO ISZERO DUP1 PUSH2 0x3223 JUMPI JUMPDEST PUSH2 0x30D9 SWAP1 SWAP4 SWAP3 SWAP4 PUSH2 0x48F8 JUMP JUMPDEST PUSH1 0x3 SLOAD DUP3 SWAP2 DUP3 JUMPDEST DUP3 DUP2 LT PUSH2 0x31E5 JUMPI POP PUSH2 0x30F1 DUP4 PUSH2 0x4715 JUMP JUMPDEST SWAP3 PUSH2 0x30FF PUSH1 0x40 MLOAD SWAP5 DUP6 PUSH2 0x412E JUMP JUMPDEST DUP1 DUP5 MSTORE PUSH2 0x310E PUSH1 0x1F NOT SWAP2 PUSH2 0x4715 JUMP JUMPDEST ADD DUP5 JUMPDEST DUP2 DUP2 LT PUSH2 0x31CA JUMPI POP POP DUP4 SWAP1 DUP5 JUMPDEST DUP4 DUP2 LT PUSH2 0x3185 JUMPI POP POP POP POP PUSH1 0x40 MLOAD SWAP2 DUP4 DUP4 ADD DUP5 DUP5 MSTORE DUP3 MLOAD DUP1 SWAP2 MSTORE PUSH1 0x40 DUP5 ADD SWAP5 DUP1 PUSH1 0x40 DUP4 PUSH1 0x5 SHL DUP8 ADD ADD SWAP5 ADD SWAP3 SWAP6 JUMPDEST DUP3 DUP8 LT PUSH2 0x3159 JUMPI DUP6 DUP6 SUB DUP7 RETURN JUMPDEST SWAP1 SWAP2 SWAP3 SWAP4 DUP3 DUP1 PUSH2 0x3175 PUSH1 0x1 SWAP4 PUSH1 0x3F NOT DUP11 DUP3 SUB ADD DUP7 MSTORE DUP9 MLOAD PUSH2 0x468D JUMP JUMPDEST SWAP7 ADD SWAP3 ADD SWAP7 ADD SWAP6 SWAP3 SWAP2 SWAP1 SWAP3 PUSH2 0x314C JUMP JUMPDEST DUP2 PUSH1 0x1 PUSH2 0x3194 DUP4 SWAP10 SWAP9 SWAP10 PUSH2 0x4652 JUMP JUMPDEST POP ADD SLOAD EQ PUSH2 0x31AE JUMPI JUMPDEST PUSH2 0x31A6 SWAP1 PUSH2 0x486D JUMP JUMPDEST SWAP6 SWAP5 SWAP6 PUSH2 0x311E JUMP JUMPDEST SWAP2 PUSH2 0x31C2 PUSH2 0x31A6 SWAP2 PUSH2 0x29BB PUSH2 0x6FD DUP7 PUSH2 0x4652 JUMP JUMPDEST SWAP3 SWAP1 POP PUSH2 0x319D JUMP JUMPDEST SWAP6 DUP1 SWAP6 SWAP7 PUSH2 0x31D6 PUSH2 0x4DF5 JUMP JUMPDEST DUP3 DUP3 DUP9 ADD ADD MSTORE ADD SWAP6 SWAP5 SWAP6 PUSH2 0x3111 JUMP JUMPDEST DUP2 PUSH1 0x1 PUSH2 0x31F4 DUP4 SWAP9 SWAP8 SWAP9 PUSH2 0x4652 JUMP JUMPDEST POP ADD SLOAD EQ PUSH2 0x320E JUMPI JUMPDEST PUSH2 0x3206 SWAP1 PUSH2 0x486D JUMP JUMPDEST SWAP5 SWAP4 SWAP5 PUSH2 0x30E0 JUMP JUMPDEST SWAP3 PUSH2 0x321B PUSH2 0x3206 SWAP2 PUSH2 0x486D JUMP JUMPDEST SWAP4 SWAP1 POP PUSH2 0x31FD JUMP JUMPDEST POP PUSH1 0x1 SLOAD DUP2 LT PUSH2 0x30CD JUMP JUMPDEST POP CALLVALUE PUSH2 0x694 JUMPI PUSH1 0x20 SWAP1 DUP2 PUSH1 0x3 NOT CALLDATASIZE ADD SLT PUSH2 0x694 JUMPI PUSH1 0x4 CALLDATALOAD SWAP2 DUP3 ISZERO ISZERO DUP1 PUSH2 0x3395 JUMPI JUMPDEST PUSH2 0x3258 SWAP1 PUSH2 0x48F8 JUMP JUMPDEST PUSH1 0x0 NOT DUP4 ADD SWAP3 DUP1 DUP5 GT PUSH2 0x66E JUMPI PUSH1 0x8 PUSH2 0x3290 DUP6 PUSH2 0x1872 PUSH2 0x3278 DUP8 SWAP9 PUSH2 0x481F JUMP JUMPDEST POP PUSH1 0x1 DUP1 PUSH1 0xA0 SHL SUB SWAP5 DUP6 SWAP2 ADD SLOAD PUSH1 0x10 SHR AND CALLER EQ PUSH2 0x4939 JUMP JUMPDEST POP PUSH1 0x8 DUP2 ADD PUSH2 0x300 PUSH2 0x100 PUSH1 0x1 PUSH1 0xB0 SHL SUB NOT DUP3 SLOAD AND OR SWAP1 SSTORE PUSH1 0xA TIMESTAMP SWAP2 ADD SSTORE CALLER DUP5 MSTORE PUSH1 0x8 DUP4 MSTORE PUSH1 0x40 DUP5 KECCAK256 DUP3 DUP6 MSTORE DUP4 MSTORE PUSH1 0x40 DUP5 KECCAK256 PUSH1 0xFF NOT DUP2 SLOAD AND SWAP1 SSTORE PUSH32 0x0 AND SWAP2 PUSH1 0x40 MLOAD PUSH4 0xEAC50F6B PUSH1 0xE0 SHL DUP2 MSTORE CALLER PUSH1 0x4 DUP3 ADD MSTORE DUP2 DUP2 PUSH1 0x24 DUP2 DUP8 GAS STATICCALL SWAP2 DUP3 ISZERO PUSH2 0x338A JUMPI DUP6 SWAP3 PUSH2 0x336D JUMPI JUMPDEST POP POP PUSH2 0x3320 JUMPI POP POP RETURN JUMPDEST DUP2 EXTCODESIZE ISZERO PUSH2 0x3369 JUMPI PUSH1 0x40 MLOAD PUSH4 0xA86FDFF PUSH1 0xE0 SHL DUP2 MSTORE CALLER PUSH1 0x4 DUP3 ADD MSTORE PUSH1 0x24 DUP2 ADD SWAP2 SWAP1 SWAP2 MSTORE SWAP2 SWAP1 DUP3 SWAP1 PUSH1 0x44 SWAP1 DUP3 SWAP1 DUP5 SWAP1 GAS CALL DUP1 ISZERO PUSH2 0x558 JUMPI PUSH2 0x335D JUMPI POP DUP1 RETURN JUMPDEST PUSH2 0x3366 SWAP1 PUSH2 0x40C8 JUMP JUMPDEST DUP1 RETURN JUMPDEST POP POP REVERT JUMPDEST PUSH2 0x3383 SWAP3 POP DUP1 RETURNDATASIZE LT PUSH2 0x4EB JUMPI PUSH2 0x4DD DUP2 DUP4 PUSH2 0x412E JUMP JUMPDEST CODESIZE DUP1 PUSH2 0x3316 JUMP JUMPDEST PUSH1 0x40 MLOAD RETURNDATASIZE DUP8 DUP3 RETURNDATACOPY RETURNDATASIZE SWAP1 REVERT JUMPDEST POP PUSH1 0x1 SLOAD DUP4 LT PUSH2 0x324F JUMP JUMPDEST POP CALLVALUE PUSH2 0x694 JUMPI PUSH1 0x20 CALLDATASIZE PUSH1 0x3 NOT ADD SLT PUSH2 0x694 JUMPI PUSH1 0x4 CALLDATALOAD SWAP1 PUSH1 0x4 DUP3 LT ISZERO PUSH2 0x694 JUMPI DUP1 SLOAD SWAP1 DUP1 DUP1 JUMPDEST DUP4 DUP2 LT PUSH2 0x3442 JUMPI POP PUSH2 0x33D6 SWAP1 PUSH2 0x4B6E JUMP JUMPDEST SWAP3 DUP2 JUMPDEST DUP4 DUP2 LT PUSH2 0x33EE JUMPI PUSH1 0x40 MLOAD DUP1 PUSH2 0x717 DUP8 DUP3 PUSH2 0x4335 JUMP JUMPDEST DUP2 PUSH1 0xFF PUSH1 0x8 PUSH2 0x33FC DUP5 PUSH2 0x481F JUMP JUMPDEST POP ADD SLOAD AND PUSH2 0x3409 DUP3 PUSH2 0x41F9 JUMP JUMPDEST PUSH2 0x3412 DUP2 PUSH2 0x41F9 JUMP JUMPDEST EQ PUSH2 0x3426 JUMPI JUMPDEST PUSH2 0x3421 SWAP1 PUSH2 0x486D JUMP JUMPDEST PUSH2 0x33D9 JUMP JUMPDEST SWAP2 PUSH2 0x343A PUSH2 0x3421 SWAP2 PUSH2 0x29BB PUSH2 0x1549 DUP7 PUSH2 0x481F JUMP JUMPDEST SWAP3 SWAP1 POP PUSH2 0x3418 JUMP JUMPDEST DUP5 PUSH1 0xFF PUSH1 0x8 PUSH2 0x3450 DUP5 PUSH2 0x481F JUMP JUMPDEST POP ADD SLOAD AND PUSH2 0x345D DUP3 PUSH2 0x41F9 JUMP JUMPDEST PUSH2 0x3466 DUP2 PUSH2 0x41F9 JUMP JUMPDEST EQ PUSH2 0x347A JUMPI JUMPDEST PUSH2 0x3475 SWAP1 PUSH2 0x486D JUMP JUMPDEST PUSH2 0x33C5 JUMP JUMPDEST SWAP1 PUSH2 0x3487 PUSH2 0x3475 SWAP2 PUSH2 0x486D JUMP JUMPDEST SWAP2 SWAP1 POP PUSH2 0x346C JUMP JUMPDEST POP CALLVALUE PUSH2 0x694 JUMPI PUSH1 0x20 CALLDATASIZE PUSH1 0x3 NOT ADD SLT PUSH2 0x694 JUMPI PUSH1 0x4 CALLDATALOAD SWAP1 PUSH2 0x34AD PUSH2 0x4F56 JUMP JUMPDEST POP DUP2 ISZERO ISZERO DUP1 PUSH2 0x34EF JUMPI JUMPDEST PUSH2 0x34C0 SWAP1 PUSH2 0x4F11 JUMP JUMPDEST PUSH1 0x0 NOT DUP3 ADD SWAP2 DUP3 GT PUSH2 0x71B JUMPI PUSH2 0x717 PUSH2 0x34DB PUSH2 0x133D DUP5 PUSH2 0x4617 JUMP JUMPDEST PUSH1 0x40 MLOAD SWAP2 DUP3 SWAP2 PUSH1 0x20 DUP4 MSTORE PUSH1 0x20 DUP4 ADD SWAP1 PUSH2 0x43F3 JUMP JUMPDEST POP PUSH1 0x7 SLOAD DUP3 LT PUSH2 0x34B7 JUMP JUMPDEST POP CALLVALUE PUSH2 0x694 JUMPI DUP1 PUSH1 0x3 NOT CALLDATASIZE ADD SLT PUSH2 0x694 JUMPI PUSH1 0x40 MLOAD PUSH32 0x0 PUSH1 0x1 PUSH1 0x1 PUSH1 0xA0 SHL SUB AND DUP2 MSTORE PUSH1 0x20 SWAP1 RETURN JUMPDEST POP CALLVALUE PUSH2 0x694 JUMPI DUP1 PUSH1 0x3 NOT CALLDATASIZE ADD SLT PUSH2 0x694 JUMPI PUSH1 0x40 MLOAD PUSH4 0xEAC50F6B PUSH1 0xE0 SHL DUP2 MSTORE CALLER PUSH1 0x4 DUP3 ADD MSTORE PUSH1 0x20 SWAP2 SWAP1 PUSH32 0x0 PUSH1 0x1 PUSH1 0x1 PUSH1 0xA0 SHL SUB AND SWAP1 DUP4 DUP2 PUSH1 0x24 DUP2 DUP6 GAS STATICCALL SWAP1 DUP2 ISZERO PUSH2 0x4B4 JUMPI DUP4 SWAP2 PUSH2 0x37F8 JUMPI JUMPDEST POP ISZERO PUSH2 0x37BD JUMPI DUP2 PUSH1 0x24 SWAP2 PUSH1 0x40 MLOAD SWAP3 DUP4 DUP1 SWAP3 PUSH4 0x6386C1C7 PUSH1 0xE0 SHL DUP3 MSTORE CALLER PUSH1 0x4 DUP4 ADD MSTORE GAS STATICCALL SWAP1 DUP2 ISZERO PUSH2 0x558 JUMPI DUP3 SWAP2 PUSH2 0x36DC JUMPI JUMPDEST POP PUSH2 0x35E3 DUP2 PUSH2 0x41F9 JUMP JUMPDEST DUP1 ISZERO SWAP1 DUP2 ISZERO PUSH2 0x36C8 JUMPI JUMPDEST POP ISZERO PUSH2 0x366C JUMPI SWAP1 DUP2 SLOAD PUSH2 0x35FF DUP2 PUSH2 0x4715 JUMP JUMPDEST SWAP2 PUSH2 0x360D PUSH1 0x40 MLOAD SWAP4 DUP5 PUSH2 0x412E JUMP JUMPDEST DUP2 DUP4 MSTORE DUP4 DUP1 MSTORE PUSH32 0x290DECD9548B62A8D60345A988386FC84BA6BC95484008F6362F93160EF3E563 SWAP4 SWAP1 DUP1 DUP5 ADD JUMPDEST DUP4 DUP4 LT PUSH2 0x364F JUMPI PUSH1 0x40 MLOAD DUP1 PUSH2 0x717 DUP8 DUP3 PUSH2 0x4335 JUMP JUMPDEST PUSH1 0xB DUP3 PUSH1 0x1 SWAP3 PUSH2 0x365E DUP10 PUSH2 0x4BD2 JUMP JUMPDEST DUP2 MSTORE ADD SWAP7 ADD SWAP3 ADD SWAP2 SWAP5 PUSH2 0x363A JUMP JUMPDEST PUSH1 0x40 MLOAD PUSH3 0x461BCD PUSH1 0xE5 SHL DUP2 MSTORE PUSH1 0x4 DUP2 ADD DUP4 SWAP1 MSTORE PUSH1 0x2E PUSH1 0x24 DUP3 ADD MSTORE PUSH32 0x4F6E6C792061646D696E206F7220686F73706974616C2073746166662063616E PUSH1 0x44 DUP3 ADD MSTORE PUSH14 0x207669657720616C6C2070657473 PUSH1 0x90 SHL PUSH1 0x64 DUP3 ADD MSTORE PUSH1 0x84 SWAP1 REVERT JUMPDEST PUSH1 0x2 SWAP2 POP PUSH2 0x36D5 DUP2 PUSH2 0x41F9 JUMP JUMPDEST EQ CODESIZE PUSH2 0x35ED JUMP JUMPDEST SWAP1 POP RETURNDATASIZE DUP1 DUP4 DUP4 RETURNDATACOPY PUSH2 0x36ED DUP2 DUP4 PUSH2 0x412E JUMP JUMPDEST DUP2 ADD PUSH2 0x180 DUP3 DUP3 SUB SLT PUSH2 0x4BF JUMPI DUP4 DUP3 ADD MLOAD PUSH1 0x1 PUSH1 0x1 PUSH1 0x40 SHL SUB SWAP1 DUP2 DUP2 GT PUSH2 0x1ED8 JUMPI DUP3 PUSH2 0x371A SWAP2 DUP6 ADD PUSH2 0x4979 JUMP JUMPDEST POP PUSH1 0x40 DUP4 ADD MLOAD DUP2 DUP2 GT PUSH2 0x1ED8 JUMPI DUP3 PUSH2 0x3733 SWAP2 DUP6 ADD PUSH2 0x4979 JUMP JUMPDEST POP PUSH1 0x60 DUP4 ADD MLOAD DUP2 DUP2 GT PUSH2 0x1ED8 JUMPI DUP3 PUSH2 0x374C SWAP2 DUP6 ADD PUSH2 0x4979 JUMP JUMPDEST POP PUSH2 0x3759 PUSH1 0x80 DUP5 ADD PUSH2 0x49BB JUMP JUMPDEST POP PUSH1 0x2 PUSH1 0xA0 DUP5 ADD MLOAD LT ISZERO PUSH2 0x554 JUMPI PUSH1 0xE0 DUP4 ADD MLOAD DUP2 DUP2 GT PUSH2 0x1ED8 JUMPI DUP3 PUSH2 0x377F SWAP2 DUP6 ADD PUSH2 0x4979 JUMP JUMPDEST POP PUSH1 0x2 PUSH2 0x100 DUP5 ADD MLOAD LT ISZERO PUSH2 0x554 JUMPI PUSH2 0x120 DUP4 ADD MLOAD SWAP3 PUSH1 0x4 DUP5 LT ISZERO PUSH2 0x1ED8 JUMPI PUSH2 0x160 DUP2 ADD MLOAD SWAP2 DUP3 GT PUSH2 0x1ED8 JUMPI PUSH2 0x37B6 SWAP3 SWAP2 ADD PUSH2 0x4979 JUMP JUMPDEST POP CODESIZE PUSH2 0x35D9 JUMP JUMPDEST PUSH1 0x40 MLOAD PUSH3 0x461BCD PUSH1 0xE5 SHL DUP2 MSTORE PUSH1 0x4 DUP2 ADD DUP5 SWAP1 MSTORE PUSH1 0x13 PUSH1 0x24 DUP3 ADD MSTORE PUSH19 0x155CD95C881B9BDD081C9959DA5CDD195C9959 PUSH1 0x6A SHL PUSH1 0x44 DUP3 ADD MSTORE PUSH1 0x64 SWAP1 REVERT JUMPDEST PUSH2 0x380F SWAP2 POP DUP5 RETURNDATASIZE DUP7 GT PUSH2 0x4EB JUMPI PUSH2 0x4DD DUP2 DUP4 PUSH2 0x412E JUMP JUMPDEST CODESIZE PUSH2 0x35A8 JUMP JUMPDEST POP CALLVALUE PUSH2 0x694 JUMPI DUP1 PUSH1 0x3 NOT CALLDATASIZE ADD SLT PUSH2 0x694 JUMPI PUSH1 0x20 PUSH1 0x1 SLOAD PUSH1 0x40 MLOAD SWAP1 DUP2 MSTORE RETURN JUMPDEST POP CALLVALUE PUSH2 0x694 JUMPI PUSH1 0x20 CALLDATASIZE PUSH1 0x3 NOT ADD SLT PUSH2 0x694 JUMPI PUSH1 0x4 CALLDATALOAD PUSH1 0x4 SLOAD DUP2 LT ISZERO PUSH2 0x4B0 JUMPI PUSH2 0x385B SWAP1 PUSH2 0x4617 JUMP JUMPDEST POP DUP1 SLOAD PUSH2 0x386A PUSH1 0x1 DUP4 ADD PUSH2 0x4571 JUMP JUMPDEST SWAP2 PUSH2 0x3877 PUSH1 0x2 DUP3 ADD PUSH2 0x4571 JUMP JUMPDEST PUSH2 0x3883 PUSH1 0x3 DUP4 ADD PUSH2 0x4571 JUMP JUMPDEST SWAP2 PUSH1 0x4 DUP2 ADD SLOAD SWAP3 PUSH2 0x38E1 PUSH1 0x5 DUP4 ADD SLOAD SWAP2 PUSH2 0x38D3 PUSH1 0x8 PUSH1 0x1 DUP1 PUSH1 0xA0 SHL SUB PUSH1 0x6 DUP8 ADD SLOAD AND SWAP6 ADD SLOAD SWAP6 PUSH2 0x38C5 PUSH1 0x40 MLOAD SWAP11 DUP12 SWAP11 DUP12 MSTORE PUSH2 0x100 DUP1 PUSH1 0x20 DUP14 ADD MSTORE DUP12 ADD SWAP1 PUSH2 0x41D4 JUMP JUMPDEST SWAP1 DUP10 DUP3 SUB PUSH1 0x40 DUP12 ADD MSTORE PUSH2 0x41D4 JUMP JUMPDEST SWAP1 DUP8 DUP3 SUB PUSH1 0x60 DUP10 ADD MSTORE PUSH2 0x41D4 JUMP JUMPDEST SWAP4 PUSH1 0x80 DUP7 ADD MSTORE PUSH1 0xA0 DUP6 ADD MSTORE PUSH1 0xC0 DUP5 ADD MSTORE PUSH1 0xE0 DUP4 ADD MSTORE SUB SWAP1 RETURN JUMPDEST POP CALLVALUE PUSH2 0x694 JUMPI DUP1 PUSH1 0x3 NOT CALLDATASIZE ADD SLT PUSH2 0x694 JUMPI PUSH1 0x40 MLOAD PUSH32 0x0 PUSH1 0x1 PUSH1 0x1 PUSH1 0xA0 SHL SUB AND DUP2 MSTORE PUSH1 0x20 SWAP1 RETURN JUMPDEST POP CALLVALUE PUSH2 0x694 JUMPI PUSH1 0x20 CALLDATASIZE PUSH1 0x3 NOT ADD SLT PUSH2 0x694 JUMPI PUSH1 0x4 CALLDATALOAD PUSH1 0x3 SLOAD DUP2 LT ISZERO PUSH2 0x4B0 JUMPI PUSH2 0x3967 SWAP1 PUSH2 0x4652 JUMP JUMPDEST POP DUP1 SLOAD PUSH1 0x1 DUP3 ADD SLOAD SWAP2 PUSH2 0x397C PUSH1 0x2 DUP3 ADD PUSH2 0x4571 JUMP JUMPDEST PUSH2 0x3988 PUSH1 0x3 DUP4 ADD PUSH2 0x4571 JUMP JUMPDEST SWAP2 PUSH1 0x4 DUP2 ADD SLOAD SWAP3 PUSH2 0x38E1 PUSH1 0x5 DUP4 ADD SLOAD SWAP2 PUSH2 0x38D3 PUSH1 0x7 PUSH1 0x1 DUP1 PUSH1 0xA0 SHL SUB PUSH1 0x6 DUP8 ADD SLOAD AND SWAP6 ADD SLOAD SWAP6 PUSH1 0x40 MLOAD SWAP10 DUP11 SWAP10 DUP11 MSTORE PUSH1 0x20 DUP11 ADD MSTORE PUSH2 0x100 DUP1 PUSH1 0x40 DUP12 ADD MSTORE DUP10 ADD SWAP1 PUSH2 0x41D4 JUMP JUMPDEST POP CALLVALUE PUSH2 0x694 JUMPI PUSH1 0x20 CALLDATASIZE PUSH1 0x3 NOT ADD SLT PUSH2 0x694 JUMPI PUSH1 0x4 CALLDATALOAD PUSH1 0x2 SLOAD DUP2 LT ISZERO PUSH2 0x4B0 JUMPI PUSH2 0x39F4 SWAP1 PUSH2 0x44E6 JUMP JUMPDEST POP DUP1 SLOAD PUSH1 0x1 DUP3 ADD SLOAD SWAP2 PUSH1 0x1 DUP1 PUSH1 0xA0 SHL SUB PUSH2 0x3A55 DUP2 PUSH1 0x2 DUP5 ADD SLOAD AND SWAP2 PUSH1 0x3 DUP5 ADD SLOAD PUSH1 0x6 PUSH2 0x3A22 PUSH1 0x4 DUP8 ADD PUSH2 0x4571 JUMP JUMPDEST SWAP3 PUSH1 0x5 DUP8 ADD SLOAD AND SWAP6 ADD SLOAD SWAP4 PUSH1 0x40 MLOAD SWAP8 DUP9 SWAP8 DUP9 MSTORE PUSH1 0x20 DUP9 ADD MSTORE PUSH1 0x40 DUP8 ADD MSTORE PUSH1 0x60 DUP7 ADD MSTORE PUSH1 0xE0 PUSH1 0x80 DUP7 ADD MSTORE PUSH1 0xE0 DUP6 ADD SWAP1 PUSH2 0x41D4 JUMP JUMPDEST SWAP2 PUSH1 0xA0 DUP5 ADD MSTORE PUSH1 0xC0 DUP4 ADD MSTORE SUB SWAP1 RETURN JUMPDEST POP CALLVALUE PUSH2 0x694 JUMPI DUP1 PUSH1 0x3 NOT CALLDATASIZE ADD SLT PUSH2 0x694 JUMPI PUSH1 0x4 SLOAD PUSH2 0x3A81 DUP2 PUSH2 0x4715 JUMP JUMPDEST SWAP1 PUSH2 0x3A8F PUSH1 0x40 MLOAD SWAP3 DUP4 PUSH2 0x412E JUMP JUMPDEST DUP1 DUP3 MSTORE PUSH1 0x4 DUP4 MSTORE PUSH32 0x8A35ACFBC15FF81A39AE7D344FD709F28E8600B4AA8C65C6B64BFE7FE36BD19B SWAP3 PUSH1 0x20 DUP1 DUP5 ADD JUMPDEST DUP4 DUP4 LT PUSH2 0x3AD3 JUMPI PUSH1 0x40 MLOAD DUP1 PUSH2 0x717 DUP8 DUP3 PUSH2 0x4484 JUMP JUMPDEST PUSH1 0x9 DUP3 PUSH1 0x1 SWAP3 PUSH2 0x3AE2 DUP10 PUSH2 0x4F9D JUMP JUMPDEST DUP2 MSTORE ADD SWAP7 ADD SWAP3 ADD SWAP2 SWAP5 PUSH2 0x3ABE JUMP JUMPDEST POP CALLVALUE PUSH2 0x694 JUMPI PUSH1 0x40 CALLDATASIZE PUSH1 0x3 NOT ADD SLT PUSH2 0x694 JUMPI PUSH1 0x24 DUP1 CALLDATALOAD PUSH1 0x4 DUP1 CALLDATALOAD SWAP1 DUP3 LT ISZERO PUSH2 0x554 JUMPI DUP1 ISZERO ISZERO DUP1 PUSH2 0x3CC8 JUMPI JUMPDEST PUSH2 0x3B24 SWAP1 PUSH2 0x48F8 JUMP JUMPDEST PUSH1 0x0 NOT DUP2 ADD SWAP1 DUP2 GT PUSH2 0x9AD JUMPI PUSH2 0x3B39 SWAP1 PUSH2 0x481F JUMP JUMPDEST POP PUSH1 0x40 MLOAD PUSH4 0x584FAB0F PUSH1 0xE0 SHL DUP2 MSTORE CALLER PUSH1 0x4 DUP3 ADD MSTORE SWAP1 SWAP3 PUSH1 0x1 PUSH1 0x1 PUSH1 0xA0 SHL SUB SWAP2 PUSH32 0x0 DUP4 AND PUSH1 0x20 DUP3 DUP5 DUP2 DUP5 GAS STATICCALL SWAP2 DUP3 ISZERO PUSH2 0x9A2 JUMPI DUP8 SWAP3 PUSH2 0x3C95 JUMPI JUMPDEST POP DUP7 DUP1 SWAP3 DUP1 PUSH2 0x3C37 JUMPI JUMPDEST POP POP POP PUSH1 0x8 DUP6 ADD SWAP3 CALLER SWAP1 DUP5 SLOAD PUSH1 0x10 SHR AND EQ SWAP1 DUP2 ISZERO PUSH2 0x3C2F JUMPI JUMPDEST POP ISZERO PUSH2 0x3BC5 JUMPI POP SWAP1 PUSH2 0x872 SWAP2 PUSH2 0x48C1 JUMP JUMPDEST PUSH1 0x84 SWAP1 PUSH1 0x3A PUSH1 0x40 MLOAD SWAP2 PUSH3 0x461BCD PUSH1 0xE5 SHL DUP4 MSTORE PUSH1 0x20 PUSH1 0x4 DUP5 ADD MSTORE DUP3 ADD MSTORE PUSH32 0x4F6E6C7920706574206F776E6572206F72207368656C74657220737461666620 PUSH1 0x44 DUP3 ADD MSTORE PUSH32 0x63616E207570646174652061646F7074696F6E20737461747573000000000000 PUSH1 0x64 DUP3 ADD MSTORE REVERT JUMPDEST SWAP1 POP CODESIZE PUSH2 0x3BB4 JUMP JUMPDEST SWAP1 SWAP2 SWAP3 POP DUP4 PUSH1 0x40 MLOAD DUP1 SWAP5 DUP2 SWAP4 PUSH4 0x418ED21 PUSH1 0xE2 SHL DUP4 MSTORE PUSH1 0x4 DUP4 ADD MSTORE GAS STATICCALL DUP1 ISZERO PUSH2 0x964 JUMPI PUSH1 0x40 SWAP2 DUP8 SWAP2 PUSH2 0x3C7B JUMPI JUMPDEST POP ADD MLOAD PUSH1 0x2 DUP2 LT ISZERO PUSH2 0x92F JUMPI PUSH1 0x1 EQ CODESIZE DUP7 DUP2 PUSH2 0x3B9B JUMP JUMPDEST PUSH2 0x3C8F SWAP2 POP RETURNDATASIZE DUP1 DUP10 DUP4 RETURNDATACOPY PUSH2 0x956 DUP2 DUP4 PUSH2 0x412E JUMP JUMPDEST CODESIZE PUSH2 0x3C64 JUMP JUMPDEST SWAP1 SWAP2 POP PUSH1 0x20 DUP2 RETURNDATASIZE DUP3 GT PUSH2 0x3CC0 JUMPI JUMPDEST DUP2 PUSH2 0x3CB0 PUSH1 0x20 SWAP4 DUP4 PUSH2 0x412E JUMP JUMPDEST DUP2 ADD SUB SLT PUSH2 0x28A3 JUMPI MLOAD SWAP1 CODESIZE PUSH2 0x3B91 JUMP JUMPDEST RETURNDATASIZE SWAP2 POP PUSH2 0x3CA3 JUMP JUMPDEST POP PUSH1 0x1 SLOAD DUP2 LT PUSH2 0x3B1B JUMP JUMPDEST POP CALLVALUE PUSH2 0x694 JUMPI PUSH1 0x20 CALLDATASIZE PUSH1 0x3 NOT ADD SLT PUSH2 0x694 JUMPI PUSH1 0x4 CALLDATALOAD SWAP1 PUSH1 0x4 DUP3 LT ISZERO PUSH2 0x694 JUMPI DUP1 SLOAD SWAP1 DUP1 DUP1 JUMPDEST DUP4 DUP2 LT PUSH2 0x3D79 JUMPI POP PUSH2 0x3D09 SWAP1 PUSH2 0x4B6E JUMP JUMPDEST SWAP3 DUP2 JUMPDEST DUP4 DUP2 LT PUSH2 0x3D21 JUMPI PUSH1 0x40 MLOAD DUP1 PUSH2 0x717 DUP8 DUP3 PUSH2 0x4335 JUMP JUMPDEST DUP2 PUSH1 0xFF PUSH2 0x3D2D DUP4 PUSH2 0x481F JUMP JUMPDEST POP PUSH1 0x8 DUP1 SWAP2 ADD SLOAD SWAP1 SHR AND PUSH2 0x3D40 DUP3 PUSH2 0x41F9 JUMP JUMPDEST PUSH2 0x3D49 DUP2 PUSH2 0x41F9 JUMP JUMPDEST EQ PUSH2 0x3D5D JUMPI JUMPDEST PUSH2 0x3D58 SWAP1 PUSH2 0x486D JUMP JUMPDEST PUSH2 0x3D0C JUMP JUMPDEST SWAP2 PUSH2 0x3D71 PUSH2 0x3D58 SWAP2 PUSH2 0x29BB PUSH2 0x1549 DUP7 PUSH2 0x481F JUMP JUMPDEST SWAP3 SWAP1 POP PUSH2 0x3D4F JUMP JUMPDEST DUP5 PUSH1 0xFF PUSH2 0x3D85 DUP4 PUSH2 0x481F JUMP JUMPDEST POP PUSH1 0x8 DUP1 SWAP2 ADD SLOAD SWAP1 SHR AND PUSH2 0x3D98 DUP3 PUSH2 0x41F9 JUMP JUMPDEST PUSH2 0x3DA1 DUP2 PUSH2 0x41F9 JUMP JUMPDEST EQ PUSH2 0x3DB5 JUMPI JUMPDEST PUSH2 0x3DB0 SWAP1 PUSH2 0x486D JUMP JUMPDEST PUSH2 0x3CF8 JUMP JUMPDEST SWAP1 PUSH2 0x3DC2 PUSH2 0x3DB0 SWAP2 PUSH2 0x486D JUMP JUMPDEST SWAP2 SWAP1 POP PUSH2 0x3DA7 JUMP JUMPDEST POP CALLVALUE PUSH2 0x694 JUMPI PUSH1 0x60 CALLDATASIZE PUSH1 0x3 NOT ADD SLT PUSH2 0x694 JUMPI PUSH1 0x1 PUSH1 0x1 PUSH1 0x40 SHL SUB PUSH1 0x24 PUSH1 0x4 CALLDATALOAD DUP2 CALLDATALOAD DUP4 DUP2 GT PUSH2 0x1ED8 JUMPI PUSH2 0x3E00 SWAP1 CALLDATASIZE SWAP1 PUSH1 0x4 ADD PUSH2 0x416A JUMP JUMPDEST SWAP3 DUP2 ISZERO ISZERO DUP1 PUSH2 0x40A1 JUMPI JUMPDEST PUSH2 0x3E13 SWAP1 PUSH2 0x4F11 JUMP JUMPDEST PUSH1 0x40 MLOAD PUSH4 0x584FAB0F PUSH1 0xE0 SHL DUP2 MSTORE CALLER PUSH1 0x4 DUP3 ADD MSTORE PUSH1 0x20 SWAP3 SWAP1 PUSH32 0x0 PUSH1 0x1 PUSH1 0x1 PUSH1 0xA0 SHL SUB AND SWAP1 DUP8 SWAP1 DUP6 DUP2 DUP9 DUP2 DUP7 GAS STATICCALL SWAP1 DUP2 ISZERO PUSH2 0x558 JUMPI DUP3 SWAP2 PUSH2 0x4074 JUMPI JUMPDEST POP PUSH2 0x3E78 DUP2 ISZERO ISZERO PUSH2 0x4D91 JUMP JUMPDEST DUP7 PUSH1 0x40 MLOAD DUP1 SWAP5 DUP2 SWAP4 PUSH4 0x418ED21 PUSH1 0xE2 SHL DUP4 MSTORE PUSH1 0x4 DUP4 ADD MSTORE GAS STATICCALL DUP1 ISZERO PUSH2 0x9A2 JUMPI PUSH1 0x40 SWAP2 DUP9 SWAP2 PUSH2 0x405A JUMPI JUMPDEST POP ADD MLOAD SWAP3 PUSH1 0x2 DUP5 LT ISZERO PUSH2 0x4047 JUMPI PUSH1 0x1 DUP1 SWAP5 SUB PUSH2 0x3FE8 JUMPI PUSH1 0x0 NOT SWAP2 DUP1 DUP4 ADD SWAP1 DUP2 GT PUSH2 0x3FD5 JUMPI PUSH2 0x3ECE SWAP1 PUSH2 0x4617 JUMP JUMPDEST POP SWAP6 PUSH1 0x3 DUP8 ADD SWAP6 DUP2 MLOAD SWAP5 DUP6 GT PUSH2 0x3FC3 JUMPI POP PUSH2 0x3EE9 DUP7 SLOAD PUSH2 0x4537 JUMP JUMPDEST PUSH1 0x1F DUP2 GT PUSH2 0x3F95 JUMPI JUMPDEST POP DUP2 PUSH1 0x1F DUP6 GT PUSH1 0x1 EQ PUSH2 0x3F31 JUMPI POP SWAP4 DUP4 SWAP5 SWAP2 DUP5 SWAP3 DUP10 SWAP6 PUSH2 0x3F26 JUMPI JUMPDEST POP POP SHL SWAP3 PUSH1 0x3 SHL SHR NOT AND OR SWAP1 SSTORE JUMPDEST PUSH1 0x4 PUSH1 0x44 CALLDATALOAD SWAP2 ADD SSTORE DUP1 RETURN JUMPDEST ADD MLOAD SWAP4 POP CODESIZE DUP1 PUSH2 0x3F0D JUMP JUMPDEST SWAP3 SWAP2 SWAP1 DUP5 PUSH1 0x1F NOT DUP2 AND DUP9 DUP12 MSTORE DUP6 DUP12 KECCAK256 SWAP6 DUP12 SWAP1 JUMPDEST DUP10 DUP4 DUP4 LT PUSH2 0x3F7B JUMPI POP POP POP LT PUSH2 0x3F63 JUMPI JUMPDEST POP POP POP POP DUP2 SHL ADD SWAP1 SSTORE PUSH2 0x3F1B JUMP JUMPDEST ADD MLOAD SWAP1 PUSH1 0xF8 DUP5 PUSH1 0x3 SHL AND SHR NOT AND SWAP1 SSTORE CODESIZE DUP1 DUP1 DUP1 PUSH2 0x3F55 JUMP JUMPDEST DUP6 DUP8 ADD MLOAD DUP10 SSTORE SWAP1 SWAP8 ADD SWAP7 SWAP5 DUP6 ADD SWAP5 DUP9 SWAP4 POP SWAP1 DUP2 ADD SWAP1 PUSH2 0x3F44 JUMP JUMPDEST PUSH2 0x3FBD SWAP1 DUP8 DUP11 MSTORE DUP4 DUP11 KECCAK256 PUSH1 0x1F DUP8 ADD PUSH1 0x5 SHR DUP2 ADD SWAP2 DUP6 DUP9 LT PUSH2 0x628 JUMPI PUSH1 0x1F ADD PUSH1 0x5 SHR ADD SWAP1 PUSH2 0x4892 JUMP JUMPDEST CODESIZE PUSH2 0x3EF2 JUMP JUMPDEST PUSH4 0x4E487B71 PUSH1 0xE0 SHL DUP10 MSTORE PUSH1 0x41 PUSH1 0x4 MSTORE DUP9 REVERT JUMPDEST PUSH4 0x4E487B71 PUSH1 0xE0 SHL DUP9 MSTORE PUSH1 0x11 PUSH1 0x4 MSTORE DUP6 DUP9 REVERT JUMPDEST PUSH1 0x84 SWAP1 PUSH1 0x33 DUP7 PUSH1 0x40 MLOAD SWAP3 PUSH3 0x461BCD PUSH1 0xE5 SHL DUP5 MSTORE PUSH1 0x4 DUP5 ADD MSTORE DUP3 ADD MSTORE PUSH32 0x4F6E6C79207368656C7465722073746166662063616E20757064617465207265 PUSH1 0x44 DUP3 ADD MSTORE PUSH19 0x73637565207265717565737420737461747573 PUSH1 0x68 SHL PUSH1 0x64 DUP3 ADD MSTORE REVERT JUMPDEST PUSH4 0x4E487B71 PUSH1 0xE0 SHL DUP8 MSTORE PUSH1 0x21 PUSH1 0x4 MSTORE DUP5 DUP8 REVERT JUMPDEST PUSH2 0x406E SWAP2 POP RETURNDATASIZE DUP1 DUP11 DUP4 RETURNDATACOPY PUSH2 0x956 DUP2 DUP4 PUSH2 0x412E JUMP JUMPDEST CODESIZE PUSH2 0x3EA1 JUMP JUMPDEST SWAP1 POP DUP6 DUP2 DUP2 RETURNDATASIZE DUP4 GT PUSH2 0x409A JUMPI JUMPDEST PUSH2 0x408B DUP2 DUP4 PUSH2 0x412E JUMP JUMPDEST DUP2 ADD SUB SLT PUSH2 0x4B0 JUMPI MLOAD CODESIZE PUSH2 0x3E6C JUMP JUMPDEST POP RETURNDATASIZE PUSH2 0x4081 JUMP JUMPDEST POP PUSH1 0x7 SLOAD DUP3 LT PUSH2 0x3E0A JUMP JUMPDEST SWAP1 POP CALLVALUE PUSH2 0x4B0 JUMPI DUP2 PUSH1 0x3 NOT CALLDATASIZE ADD SLT PUSH2 0x4B0 JUMPI PUSH1 0x20 SWAP1 PUSH1 0x6 SLOAD DUP2 MSTORE RETURN JUMPDEST PUSH1 0x1 PUSH1 0x1 PUSH1 0x40 SHL SUB DUP2 GT PUSH2 0x288D JUMPI PUSH1 0x40 MSTORE JUMP JUMPDEST PUSH2 0x120 DUP2 ADD SWAP1 DUP2 LT PUSH1 0x1 PUSH1 0x1 PUSH1 0x40 SHL SUB DUP3 GT OR PUSH2 0x288D JUMPI PUSH1 0x40 MSTORE JUMP JUMPDEST PUSH2 0x1A0 DUP2 ADD SWAP1 DUP2 LT PUSH1 0x1 PUSH1 0x1 PUSH1 0x40 SHL SUB DUP3 GT OR PUSH2 0x288D JUMPI PUSH1 0x40 MSTORE JUMP JUMPDEST PUSH1 0xE0 DUP2 ADD SWAP1 DUP2 LT PUSH1 0x1 PUSH1 0x1 PUSH1 0x40 SHL SUB DUP3 GT OR PUSH2 0x288D JUMPI PUSH1 0x40 MSTORE JUMP JUMPDEST SWAP1 PUSH1 0x1F DUP1 NOT SWAP2 ADD AND DUP2 ADD SWAP1 DUP2 LT PUSH1 0x1 PUSH1 0x1 PUSH1 0x40 SHL SUB DUP3 GT OR PUSH2 0x288D JUMPI PUSH1 0x40 MSTORE JUMP JUMPDEST PUSH1 0x1 PUSH1 0x1 PUSH1 0x40 SHL SUB DUP2 GT PUSH2 0x288D JUMPI PUSH1 0x1F ADD PUSH1 0x1F NOT AND PUSH1 0x20 ADD SWAP1 JUMP JUMPDEST DUP2 PUSH1 0x1F DUP3 ADD SLT ISZERO PUSH2 0x68F JUMPI DUP1 CALLDATALOAD SWAP1 PUSH2 0x4181 DUP3 PUSH2 0x414F JUMP JUMPDEST SWAP3 PUSH2 0x418F PUSH1 0x40 MLOAD SWAP5 DUP6 PUSH2 0x412E JUMP JUMPDEST DUP3 DUP5 MSTORE PUSH1 0x20 DUP4 DUP4 ADD ADD GT PUSH2 0x68F JUMPI DUP2 PUSH1 0x0 SWAP3 PUSH1 0x20 DUP1 SWAP4 ADD DUP4 DUP7 ADD CALLDATACOPY DUP4 ADD ADD MSTORE SWAP1 JUMP JUMPDEST PUSH1 0x0 JUMPDEST DUP4 DUP2 LT PUSH2 0x41C4 JUMPI POP POP PUSH1 0x0 SWAP2 ADD MSTORE JUMP JUMPDEST DUP2 DUP2 ADD MLOAD DUP4 DUP3 ADD MSTORE PUSH1 0x20 ADD PUSH2 0x41B4 JUMP JUMPDEST SWAP1 PUSH1 0x20 SWAP2 PUSH2 0x41ED DUP2 MLOAD DUP1 SWAP3 DUP2 DUP6 MSTORE DUP6 DUP1 DUP7 ADD SWAP2 ADD PUSH2 0x41B1 JUMP JUMPDEST PUSH1 0x1F ADD PUSH1 0x1F NOT AND ADD ADD SWAP1 JUMP JUMPDEST PUSH1 0x4 GT ISZERO PUSH2 0x4203 JUMPI JUMP JUMPDEST PUSH4 0x4E487B71 PUSH1 0xE0 SHL PUSH1 0x0 MSTORE PUSH1 0x21 PUSH1 0x4 MSTORE PUSH1 0x24 PUSH1 0x0 REVERT JUMPDEST SWAP1 DUP2 MLOAD DUP2 MSTORE PUSH1 0x20 SWAP2 PUSH2 0x42AB PUSH2 0x4299 PUSH2 0x427D PUSH2 0x426B PUSH2 0x4259 PUSH2 0x4247 DUP9 DUP8 ADD MLOAD PUSH2 0x1A0 DUP1 DUP12 DUP12 ADD MSTORE DUP10 ADD SWAP1 PUSH2 0x41D4 JUMP JUMPDEST PUSH1 0x40 DUP8 ADD MLOAD DUP9 DUP3 SUB PUSH1 0x40 DUP11 ADD MSTORE PUSH2 0x41D4 JUMP JUMPDEST PUSH1 0x60 DUP7 ADD MLOAD DUP8 DUP3 SUB PUSH1 0x60 DUP10 ADD MSTORE PUSH2 0x41D4 JUMP JUMPDEST PUSH1 0x80 DUP6 ADD MLOAD DUP7 DUP3 SUB PUSH1 0x80 DUP9 ADD MSTORE PUSH2 0x41D4 JUMP JUMPDEST PUSH1 0xA0 DUP5 ADD MLOAD PUSH1 0xA0 DUP7 ADD MSTORE PUSH1 0xC0 DUP5 ADD MLOAD DUP6 DUP3 SUB PUSH1 0xC0 DUP8 ADD MSTORE PUSH2 0x41D4 JUMP JUMPDEST PUSH1 0xE0 DUP4 ADD MLOAD DUP5 DUP3 SUB PUSH1 0xE0 DUP7 ADD MSTORE PUSH2 0x41D4 JUMP JUMPDEST SWAP3 PUSH2 0x100 DUP1 DUP4 ADD MLOAD SWAP1 PUSH2 0x42BD DUP3 PUSH2 0x41F9 JUMP JUMPDEST DUP5 ADD MSTORE PUSH2 0x120 DUP1 DUP4 ADD MLOAD SWAP1 PUSH2 0x42D1 DUP3 PUSH2 0x41F9 JUMP JUMPDEST DUP5 ADD MSTORE PUSH2 0x140 DUP3 DUP2 ADD MLOAD PUSH1 0x1 PUSH1 0x1 PUSH1 0xA0 SHL SUB AND SWAP1 DUP5 ADD MSTORE PUSH2 0x160 DUP1 DUP4 ADD MLOAD DUP5 DUP7 SUB SWAP2 DUP6 ADD SWAP2 SWAP1 SWAP2 MSTORE DUP1 MLOAD DUP1 DUP7 MSTORE SWAP5 DUP3 ADD SWAP5 SWAP1 DUP3 ADD SWAP2 PUSH1 0x0 JUMPDEST DUP3 DUP2 LT PUSH2 0x4321 JUMPI POP POP POP POP PUSH2 0x180 DUP1 SWAP2 ADD MLOAD SWAP2 ADD MSTORE SWAP1 JUMP JUMPDEST DUP4 MLOAD DUP8 MSTORE SWAP6 DUP2 ADD SWAP6 SWAP3 DUP2 ADD SWAP3 PUSH1 0x1 ADD PUSH2 0x4309 JUMP JUMPDEST PUSH1 0x20 DUP1 DUP3 ADD SWAP1 DUP1 DUP4 MSTORE DUP4 MLOAD DUP1 SWAP3 MSTORE PUSH1 0x40 DUP4 ADD SWAP3 DUP2 PUSH1 0x40 DUP5 PUSH1 0x5 SHL DUP4 ADD ADD SWAP6 ADD SWAP4 PUSH1 0x0 SWAP2 JUMPDEST DUP5 DUP4 LT PUSH2 0x4369 JUMPI POP POP POP POP POP POP SWAP1 JUMP JUMPDEST SWAP1 SWAP2 SWAP3 SWAP4 SWAP5 SWAP6 DUP5 DUP1 PUSH2 0x4387 PUSH1 0x1 SWAP4 PUSH1 0x3F NOT DUP7 DUP3 SUB ADD DUP8 MSTORE DUP11 MLOAD PUSH2 0x4219 JUMP JUMPDEST SWAP9 ADD SWAP4 ADD SWAP4 ADD SWAP2 SWAP5 SWAP4 SWAP3 SWAP1 PUSH2 0x4359 JUMP JUMPDEST SWAP1 DUP1 DUP3 MLOAD SWAP1 DUP2 DUP2 MSTORE PUSH1 0x20 DUP1 SWAP2 ADD SWAP3 DUP2 DUP1 DUP5 PUSH1 0x5 SHL DUP4 ADD ADD SWAP6 ADD SWAP4 PUSH1 0x0 SWAP2 JUMPDEST DUP5 DUP4 LT PUSH2 0x43C5 JUMPI POP POP POP POP POP POP SWAP1 JUMP JUMPDEST SWAP1 SWAP2 SWAP3 SWAP4 SWAP5 SWAP6 DUP5 DUP1 PUSH2 0x43E3 PUSH1 0x1 SWAP4 PUSH1 0x1F NOT DUP7 DUP3 SUB ADD DUP8 MSTORE DUP11 MLOAD PUSH2 0x41D4 JUMP JUMPDEST SWAP9 ADD SWAP4 ADD SWAP4 ADD SWAP2 SWAP5 SWAP4 SWAP3 SWAP1 PUSH2 0x43B5 JUMP JUMPDEST SWAP1 DUP2 MLOAD DUP2 MSTORE PUSH2 0x4476 PUSH2 0x443E PUSH2 0x442C PUSH2 0x441A PUSH1 0x20 DUP7 ADD MLOAD PUSH2 0x120 DUP1 PUSH1 0x20 DUP9 ADD MSTORE DUP7 ADD SWAP1 PUSH2 0x41D4 JUMP JUMPDEST PUSH1 0x40 DUP7 ADD MLOAD DUP6 DUP3 SUB PUSH1 0x40 DUP8 ADD MSTORE PUSH2 0x41D4 JUMP JUMPDEST PUSH1 0x60 DUP6 ADD MLOAD DUP5 DUP3 SUB PUSH1 0x60 DUP7 ADD MSTORE PUSH2 0x41D4 JUMP JUMPDEST PUSH1 0x80 DUP5 ADD MLOAD PUSH1 0x80 DUP5 ADD MSTORE PUSH1 0xA0 DUP5 ADD MLOAD PUSH1 0xA0 DUP5 ADD MSTORE PUSH1 0x1 DUP1 PUSH1 0xA0 SHL SUB PUSH1 0xC0 DUP6 ADD MLOAD AND PUSH1 0xC0 DUP5 ADD MSTORE PUSH1 0xE0 DUP5 ADD MLOAD DUP4 DUP3 SUB PUSH1 0xE0 DUP6 ADD MSTORE PUSH2 0x4397 JUMP JUMPDEST SWAP2 PUSH2 0x100 DUP1 SWAP2 ADD MLOAD SWAP2 ADD MSTORE SWAP1 JUMP JUMPDEST PUSH1 0x20 DUP1 DUP3 ADD SWAP1 DUP1 DUP4 MSTORE DUP4 MLOAD DUP1 SWAP3 MSTORE PUSH1 0x40 DUP4 ADD SWAP3 DUP2 PUSH1 0x40 DUP5 PUSH1 0x5 SHL DUP4 ADD ADD SWAP6 ADD SWAP4 PUSH1 0x0 SWAP2 JUMPDEST DUP5 DUP4 LT PUSH2 0x44B8 JUMPI POP POP POP POP POP POP SWAP1 JUMP JUMPDEST SWAP1 SWAP2 SWAP3 SWAP4 SWAP5 SWAP6 DUP5 DUP1 PUSH2 0x44D6 PUSH1 0x1 SWAP4 PUSH1 0x3F NOT DUP7 DUP3 SUB ADD DUP8 MSTORE DUP11 MLOAD PUSH2 0x43F3 JUMP JUMPDEST SWAP9 ADD SWAP4 ADD SWAP4 ADD SWAP2 SWAP5 SWAP4 SWAP3 SWAP1 PUSH2 0x44A8 JUMP JUMPDEST PUSH1 0x2 SLOAD DUP2 LT ISZERO PUSH2 0x4521 JUMPI PUSH1 0x7 SWAP1 PUSH1 0x2 PUSH1 0x0 MSTORE MUL PUSH32 0x405787FA12A823E0F2B7631CC41B3BA8828B3321CA811111FA75CD3AA3BB5ACE ADD SWAP1 PUSH1 0x0 SWAP1 JUMP JUMPDEST PUSH4 0x4E487B71 PUSH1 0xE0 SHL PUSH1 0x0 MSTORE PUSH1 0x32 PUSH1 0x4 MSTORE PUSH1 0x24 PUSH1 0x0 REVERT JUMPDEST SWAP1 PUSH1 0x1 DUP3 DUP2 SHR SWAP3 AND DUP1 ISZERO PUSH2 0x4567 JUMPI JUMPDEST PUSH1 0x20 DUP4 LT EQ PUSH2 0x4551 JUMPI JUMP JUMPDEST PUSH4 0x4E487B71 PUSH1 0xE0 SHL PUSH1 0x0 MSTORE PUSH1 0x22 PUSH1 0x4 MSTORE PUSH1 0x24 PUSH1 0x0 REVERT JUMPDEST SWAP2 PUSH1 0x7F AND SWAP2 PUSH2 0x4546 JUMP JUMPDEST SWAP1 PUSH1 0x40 MLOAD SWAP2 DUP3 PUSH1 0x0 DUP3 SLOAD SWAP3 PUSH2 0x4585 DUP5 PUSH2 0x4537 JUMP JUMPDEST SWAP1 DUP2 DUP5 MSTORE PUSH1 0x1 SWAP5 DUP6 DUP2 AND SWAP1 DUP2 PUSH1 0x0 EQ PUSH2 0x45F4 JUMPI POP PUSH1 0x1 EQ PUSH2 0x45B1 JUMPI JUMPDEST POP POP PUSH2 0x45AF SWAP3 POP SUB DUP4 PUSH2 0x412E JUMP JUMPDEST JUMP JUMPDEST SWAP1 SWAP4 SWAP2 POP PUSH1 0x0 MSTORE PUSH1 0x20 SWAP1 DUP2 PUSH1 0x0 KECCAK256 SWAP4 PUSH1 0x0 SWAP2 JUMPDEST DUP2 DUP4 LT PUSH2 0x45DC JUMPI POP POP PUSH2 0x45AF SWAP4 POP DUP3 ADD ADD CODESIZE DUP1 PUSH2 0x45A1 JUMP JUMPDEST DUP6 SLOAD DUP9 DUP5 ADD DUP6 ADD MSTORE SWAP5 DUP6 ADD SWAP5 DUP8 SWAP5 POP SWAP2 DUP4 ADD SWAP2 PUSH2 0x45C4 JUMP JUMPDEST SWAP2 POP POP PUSH2 0x45AF SWAP5 POP PUSH1 0x20 SWAP3 POP PUSH1 0xFF NOT AND DUP3 DUP5 ADD MSTORE ISZERO ISZERO PUSH1 0x5 SHL DUP3 ADD ADD CODESIZE DUP1 PUSH2 0x45A1 JUMP JUMPDEST PUSH1 0x4 SLOAD DUP2 LT ISZERO PUSH2 0x4521 JUMPI PUSH1 0x9 SWAP1 PUSH1 0x4 PUSH1 0x0 MSTORE MUL PUSH32 0x8A35ACFBC15FF81A39AE7D344FD709F28E8600B4AA8C65C6B64BFE7FE36BD19B ADD SWAP1 PUSH1 0x0 SWAP1 JUMP JUMPDEST PUSH1 0x3 SLOAD DUP2 LT ISZERO PUSH2 0x4521 JUMPI PUSH1 0x9 SWAP1 PUSH1 0x3 PUSH1 0x0 MSTORE MUL PUSH32 0xC2575A0E9E593C00F959F8C92F12DB2869C3395A3B0502D05E2516446F71F85B ADD SWAP1 PUSH1 0x0 SWAP1 JUMP JUMPDEST SWAP1 PUSH2 0x4712 SWAP2 DUP1 MLOAD DUP3 MSTORE PUSH1 0x20 DUP2 ADD MLOAD PUSH1 0x20 DUP4 ADD MSTORE PUSH2 0x46CE PUSH2 0x46BC PUSH1 0x40 DUP4 ADD MLOAD PUSH2 0x120 DUP1 PUSH1 0x40 DUP8 ADD MSTORE DUP6 ADD SWAP1 PUSH2 0x41D4 JUMP JUMPDEST PUSH1 0x60 DUP4 ADD MLOAD DUP5 DUP3 SUB PUSH1 0x60 DUP7 ADD MSTORE PUSH2 0x41D4 JUMP JUMPDEST SWAP2 PUSH1 0x80 DUP3 ADD MLOAD PUSH1 0x80 DUP3 ADD MSTORE PUSH1 0xA0 DUP3 ADD MLOAD PUSH1 0xA0 DUP3 ADD MSTORE PUSH1 0x1 DUP1 PUSH1 0xA0 SHL SUB PUSH1 0xC0 DUP4 ADD MLOAD AND PUSH1 0xC0 DUP3 ADD MSTORE PUSH1 0xE0 DUP3 ADD MLOAD PUSH1 0xE0 DUP3 ADD MSTORE PUSH2 0x100 DUP1 SWAP3 ADD MLOAD SWAP2 DUP2 DUP5 SUB SWAP2 ADD MSTORE PUSH2 0x4397 JUMP JUMPDEST SWAP1 JUMP JUMPDEST PUSH1 0x1 PUSH1 0x1 PUSH1 0x40 SHL SUB DUP2 GT PUSH2 0x288D JUMPI PUSH1 0x5 SHL PUSH1 0x20 ADD SWAP1 JUMP JUMPDEST SWAP1 DUP1 PUSH1 0x1F DUP4 ADD SLT ISZERO PUSH2 0x68F JUMPI DUP2 CALLDATALOAD SWAP1 PUSH2 0x4744 DUP3 PUSH2 0x4715 JUMP JUMPDEST SWAP3 PUSH2 0x4752 PUSH1 0x40 MLOAD SWAP5 DUP6 PUSH2 0x412E JUMP JUMPDEST DUP3 DUP5 MSTORE PUSH1 0x20 SWAP3 DUP4 DUP1 DUP7 ADD SWAP2 PUSH1 0x5 SHL DUP4 ADD ADD SWAP3 DUP1 DUP5 GT PUSH2 0x68F JUMPI DUP5 DUP4 ADD SWAP2 JUMPDEST DUP5 DUP4 LT PUSH2 0x4780 JUMPI POP POP POP POP POP POP SWAP1 JUMP JUMPDEST DUP3 CALLDATALOAD PUSH1 0x1 PUSH1 0x1 PUSH1 0x40 SHL SUB DUP2 GT PUSH2 0x68F JUMPI DUP7 SWAP2 PUSH2 0x47A1 DUP5 DUP5 DUP1 SWAP5 DUP10 ADD ADD PUSH2 0x416A JUMP JUMPDEST DUP2 MSTORE ADD SWAP3 ADD SWAP2 PUSH2 0x4770 JUMP JUMPDEST SWAP1 DUP2 MLOAD DUP2 MSTORE PUSH1 0x20 DUP3 ADD MLOAD PUSH1 0x20 DUP3 ADD MSTORE PUSH1 0xC0 DUP1 PUSH1 0x1 DUP1 PUSH1 0xA0 SHL SUB SWAP4 DUP5 PUSH1 0x40 DUP3 ADD MLOAD AND PUSH1 0x40 DUP6 ADD MSTORE PUSH1 0x60 DUP2 ADD MLOAD PUSH1 0x60 DUP6 ADD MSTORE PUSH2 0x47F5 PUSH1 0x80 DUP3 ADD MLOAD PUSH1 0xE0 PUSH1 0x80 DUP8 ADD MSTORE PUSH1 0xE0 DUP7 ADD SWAP1 PUSH2 0x41D4 JUMP JUMPDEST SWAP5 PUSH1 0xA0 DUP3 ADD MLOAD AND PUSH1 0xA0 DUP6 ADD MSTORE ADD MLOAD SWAP2 ADD MSTORE SWAP1 JUMP JUMPDEST PUSH1 0x4 CALLDATALOAD SWAP1 PUSH1 0x1 PUSH1 0x1 PUSH1 0xA0 SHL SUB DUP3 AND DUP3 SUB PUSH2 0x68F JUMPI JUMP JUMPDEST SWAP1 PUSH1 0x0 SWAP2 DUP3 SLOAD DUP2 LT ISZERO PUSH2 0x4859 JUMPI PUSH1 0xB SWAP1 DUP4 DUP1 MSTORE MUL PUSH32 0x290DECD9548B62A8D60345A988386FC84BA6BC95484008F6362F93160EF3E563 ADD SWAP2 SWAP1 JUMP JUMPDEST PUSH4 0x4E487B71 PUSH1 0xE0 SHL DUP4 MSTORE PUSH1 0x32 PUSH1 0x4 MSTORE PUSH1 0x24 DUP4 REVERT JUMPDEST PUSH1 0x0 NOT DUP2 EQ PUSH2 0x487C JUMPI PUSH1 0x1 ADD SWAP1 JUMP JUMPDEST PUSH4 0x4E487B71 PUSH1 0xE0 SHL PUSH1 0x0 MSTORE PUSH1 0x11 PUSH1 0x4 MSTORE PUSH1 0x24 PUSH1 0x0 REVERT JUMPDEST DUP2 DUP2 LT PUSH2 0x489D JUMPI POP POP JUMP JUMPDEST PUSH1 0x0 DUP2 SSTORE PUSH1 0x1 ADD PUSH2 0x4892 JUMP JUMPDEST SWAP1 PUSH2 0x48B3 DUP2 PUSH2 0x41F9 JUMP JUMPDEST PUSH1 0xFF DUP1 NOT DUP4 SLOAD AND SWAP2 AND OR SWAP1 SSTORE JUMP JUMPDEST SWAP1 PUSH2 0x48CB DUP2 PUSH2 0x41F9 JUMP JUMPDEST PUSH2 0xFF00 DUP3 SLOAD SWAP2 PUSH1 0x8 SHL AND SWAP1 PUSH2 0xFF00 NOT AND OR SWAP1 SSTORE JUMP JUMPDEST SWAP1 DUP2 PUSH1 0x20 SWAP2 SUB SLT PUSH2 0x68F JUMPI MLOAD DUP1 ISZERO ISZERO DUP2 SUB PUSH2 0x68F JUMPI SWAP1 JUMP JUMPDEST ISZERO PUSH2 0x48FF JUMPI JUMP JUMPDEST PUSH1 0x40 MLOAD PUSH3 0x461BCD PUSH1 0xE5 SHL DUP2 MSTORE PUSH1 0x20 PUSH1 0x4 DUP3 ADD MSTORE PUSH1 0x12 PUSH1 0x24 DUP3 ADD MSTORE PUSH18 0x14195D08191BD95CC81B9BDD08195E1A5CDD PUSH1 0x72 SHL PUSH1 0x44 DUP3 ADD MSTORE PUSH1 0x64 SWAP1 REVERT JUMPDEST ISZERO PUSH2 0x4940 JUMPI JUMP JUMPDEST PUSH1 0x40 MLOAD PUSH3 0x461BCD PUSH1 0xE5 SHL DUP2 MSTORE PUSH1 0x20 PUSH1 0x4 DUP3 ADD MSTORE PUSH1 0x11 PUSH1 0x24 DUP3 ADD MSTORE PUSH17 0x2737BA103A3432903832BA1037BBB732B9 PUSH1 0x79 SHL PUSH1 0x44 DUP3 ADD MSTORE PUSH1 0x64 SWAP1 REVERT JUMPDEST DUP2 PUSH1 0x1F DUP3 ADD SLT ISZERO PUSH2 0x68F JUMPI DUP1 MLOAD PUSH2 0x498F DUP2 PUSH2 0x414F JUMP JUMPDEST SWAP3 PUSH2 0x499D PUSH1 0x40 MLOAD SWAP5 DUP6 PUSH2 0x412E JUMP JUMPDEST DUP2 DUP5 MSTORE PUSH1 0x20 DUP3 DUP5 ADD ADD GT PUSH2 0x68F JUMPI PUSH2 0x4712 SWAP2 PUSH1 0x20 DUP1 DUP6 ADD SWAP2 ADD PUSH2 0x41B1 JUMP JUMPDEST MLOAD SWAP1 PUSH1 0x1 PUSH1 0x1 PUSH1 0xA0 SHL SUB DUP3 AND DUP3 SUB PUSH2 0x68F JUMPI JUMP JUMPDEST PUSH1 0x20 SWAP2 DUP3 DUP3 DUP3 SUB SLT PUSH2 0x68F JUMPI DUP2 MLOAD PUSH1 0x1 PUSH1 0x1 PUSH1 0x40 SHL SUB SWAP3 DUP4 DUP3 GT PUSH2 0x68F JUMPI ADD SWAP2 PUSH2 0x100 SWAP4 DUP5 DUP5 DUP5 SUB SLT PUSH2 0x68F JUMPI PUSH1 0x40 MLOAD SWAP5 DUP6 ADD DUP6 DUP2 LT DUP4 DUP3 GT OR PUSH2 0x288D JUMPI PUSH1 0x40 MSTORE DUP4 MLOAD DUP6 MSTORE DUP1 DUP5 ADD MLOAD DUP3 DUP2 GT PUSH2 0x68F JUMPI DUP4 PUSH2 0x4A2B SWAP2 DUP7 ADD PUSH2 0x4979 JUMP JUMPDEST DUP2 DUP7 ADD MSTORE PUSH1 0x40 DUP5 ADD MLOAD PUSH1 0x2 DUP2 LT ISZERO PUSH2 0x68F JUMPI PUSH1 0x40 DUP7 ADD MSTORE PUSH2 0x4A4E PUSH1 0x60 DUP6 ADD PUSH2 0x49BB JUMP JUMPDEST PUSH1 0x60 DUP7 ADD MSTORE PUSH1 0x80 DUP5 ADD MLOAD DUP3 DUP2 GT PUSH2 0x68F JUMPI DUP5 ADD SWAP1 DUP4 PUSH1 0x1F DUP4 ADD SLT ISZERO PUSH2 0x68F JUMPI DUP2 MLOAD SWAP2 PUSH2 0x4A79 DUP4 PUSH2 0x4715 JUMP JUMPDEST SWAP3 PUSH2 0x4A87 PUSH1 0x40 MLOAD SWAP5 DUP6 PUSH2 0x412E JUMP JUMPDEST DUP1 DUP5 MSTORE DUP3 DUP1 DUP6 ADD SWAP2 PUSH1 0x5 SHL DUP4 ADD ADD SWAP2 DUP7 DUP4 GT PUSH2 0x68F JUMPI DUP4 ADD SWAP1 JUMPDEST DUP3 DUP3 LT PUSH2 0x4AF6 JUMPI POP POP POP POP PUSH1 0x80 DUP6 ADD MSTORE PUSH1 0xA0 DUP4 ADD MLOAD PUSH1 0xA0 DUP6 ADD MSTORE PUSH1 0xC0 DUP4 ADD MLOAD DUP2 DUP2 GT PUSH2 0x68F JUMPI DUP3 PUSH2 0x4AD3 SWAP2 DUP6 ADD PUSH2 0x4979 JUMP JUMPDEST PUSH1 0xC0 DUP6 ADD MSTORE PUSH1 0xE0 DUP4 ADD MLOAD SWAP1 DUP2 GT PUSH2 0x68F JUMPI PUSH2 0x4AEE SWAP3 ADD PUSH2 0x4979 JUMP JUMPDEST PUSH1 0xE0 DUP3 ADD MSTORE SWAP1 JUMP JUMPDEST DUP4 DUP1 SWAP2 PUSH2 0x4B02 DUP5 PUSH2 0x49BB JUMP JUMPDEST DUP2 MSTORE ADD SWAP2 ADD SWAP1 PUSH2 0x4AA1 JUMP JUMPDEST PUSH1 0x40 MLOAD SWAP1 PUSH2 0x4B1A DUP3 PUSH2 0x40F7 JUMP JUMPDEST DUP2 PUSH2 0x180 PUSH1 0x0 SWAP2 DUP3 DUP2 MSTORE PUSH1 0x60 DUP1 PUSH1 0x20 DUP4 ADD MSTORE DUP1 PUSH1 0x40 DUP4 ADD MSTORE DUP1 DUP1 DUP4 ADD MSTORE DUP1 PUSH1 0x80 DUP4 ADD MSTORE DUP4 PUSH1 0xA0 DUP4 ADD MSTORE DUP1 PUSH1 0xC0 DUP4 ADD MSTORE DUP1 PUSH1 0xE0 DUP4 ADD MSTORE DUP4 PUSH2 0x100 DUP4 ADD MSTORE DUP4 PUSH2 0x120 DUP4 ADD MSTORE DUP4 PUSH2 0x140 DUP4 ADD MSTORE PUSH2 0x160 DUP3 ADD MSTORE ADD MSTORE JUMP JUMPDEST SWAP1 PUSH2 0x4B78 DUP3 PUSH2 0x4715 JUMP JUMPDEST PUSH2 0x4B85 PUSH1 0x40 MLOAD SWAP2 DUP3 PUSH2 0x412E JUMP JUMPDEST DUP3 DUP2 MSTORE DUP1 SWAP3 PUSH2 0x4B96 PUSH1 0x1F NOT SWAP2 PUSH2 0x4715 JUMP JUMPDEST ADD SWAP1 PUSH1 0x0 JUMPDEST DUP3 DUP2 LT PUSH2 0x4BA7 JUMPI POP POP POP JUMP JUMPDEST PUSH1 0x20 SWAP1 PUSH2 0x4BB2 PUSH2 0x4B0D JUMP JUMPDEST DUP3 DUP3 DUP6 ADD ADD MSTORE ADD PUSH2 0x4B9B JUMP JUMPDEST DUP1 MLOAD DUP3 LT ISZERO PUSH2 0x4521 JUMPI PUSH1 0x20 SWAP2 PUSH1 0x5 SHL ADD ADD SWAP1 JUMP JUMPDEST SWAP1 PUSH1 0x40 MLOAD PUSH2 0x4BDF DUP2 PUSH2 0x40F7 JUMP JUMPDEST DUP1 SWAP3 DUP1 SLOAD DUP3 MSTORE PUSH1 0x1 PUSH2 0x4BF2 DUP2 DUP4 ADD PUSH2 0x4571 JUMP JUMPDEST PUSH1 0x20 SWAP1 DUP2 DUP6 ADD MSTORE PUSH2 0x4C05 PUSH1 0x2 DUP5 ADD PUSH2 0x4571 JUMP JUMPDEST PUSH1 0x40 DUP6 ADD MSTORE PUSH2 0x4C16 PUSH1 0x3 DUP5 ADD PUSH2 0x4571 JUMP JUMPDEST PUSH1 0x60 DUP6 ADD MSTORE PUSH2 0x4C27 PUSH1 0x4 DUP5 ADD PUSH2 0x4571 JUMP JUMPDEST PUSH1 0x80 DUP6 ADD MSTORE PUSH1 0x5 DUP4 ADD SLOAD PUSH1 0xA0 DUP6 ADD MSTORE PUSH2 0x4C42 PUSH1 0x6 DUP5 ADD PUSH2 0x4571 JUMP JUMPDEST PUSH1 0xC0 DUP6 ADD MSTORE PUSH2 0x4C53 PUSH1 0x7 DUP5 ADD PUSH2 0x4571 JUMP JUMPDEST PUSH1 0xE0 DUP6 ADD MSTORE PUSH1 0x8 DUP4 ADD SLOAD PUSH1 0xFF DUP2 AND PUSH2 0x4C6A DUP2 PUSH2 0x41F9 JUMP JUMPDEST PUSH2 0x100 DUP7 ADD MSTORE PUSH1 0xFF DUP2 PUSH1 0x8 SHR AND PUSH2 0x4C80 DUP2 PUSH2 0x41F9 JUMP JUMPDEST PUSH2 0x120 DUP7 ADD MSTORE PUSH1 0x10 SHR PUSH1 0x1 PUSH1 0x1 PUSH1 0xA0 SHL SUB AND PUSH2 0x140 DUP6 ADD MSTORE PUSH1 0x40 MLOAD PUSH1 0x9 DUP5 ADD DUP1 SLOAD DUP1 DUP4 MSTORE PUSH1 0x0 SWAP2 DUP3 MSTORE DUP4 DUP3 KECCAK256 SWAP3 SWAP5 DUP6 DUP6 ADD SWAP5 SWAP1 SWAP3 SWAP1 JUMPDEST DUP3 DUP3 LT PUSH2 0x4CE2 JUMPI POP POP POP POP POP SWAP2 DUP2 PUSH2 0x4CD5 PUSH1 0xA SWAP4 PUSH2 0x180 SWAP6 SUB DUP3 PUSH2 0x412E JUMP JUMPDEST PUSH2 0x160 DUP6 ADD MSTORE ADD SLOAD SWAP2 ADD MSTORE JUMP JUMPDEST DUP5 SLOAD DUP7 MSTORE SWAP5 DUP6 ADD SWAP5 SWAP4 DUP4 ADD SWAP4 SWAP1 DUP4 ADD SWAP1 PUSH2 0x4CB6 JUMP JUMPDEST PUSH1 0x40 MLOAD SWAP1 PUSH2 0x4D04 DUP3 PUSH2 0x4113 JUMP JUMPDEST DUP2 PUSH1 0xC0 PUSH1 0x0 SWAP2 DUP3 DUP2 MSTORE DUP3 PUSH1 0x20 DUP3 ADD MSTORE DUP3 PUSH1 0x40 DUP3 ADD MSTORE DUP3 PUSH1 0x60 DUP3 ADD MSTORE PUSH1 0x60 PUSH1 0x80 DUP3 ADD MSTORE DUP3 PUSH1 0xA0 DUP3 ADD MSTORE ADD MSTORE JUMP JUMPDEST SWAP1 PUSH1 0x40 MLOAD PUSH2 0x4D3D DUP2 PUSH2 0x4113 JUMP JUMPDEST PUSH1 0xC0 PUSH1 0x6 DUP3 SWAP5 DUP1 SLOAD DUP5 MSTORE PUSH1 0x1 DUP2 ADD SLOAD PUSH1 0x20 DUP6 ADD MSTORE PUSH1 0x1 DUP1 PUSH1 0xA0 SHL SUB DUP1 PUSH1 0x2 DUP4 ADD SLOAD AND PUSH1 0x40 DUP7 ADD MSTORE PUSH1 0x3 DUP3 ADD SLOAD PUSH1 0x60 DUP7 ADD MSTORE PUSH2 0x4D7A PUSH1 0x4 DUP4 ADD PUSH2 0x4571 JUMP JUMPDEST PUSH1 0x80 DUP7 ADD MSTORE PUSH1 0x5 DUP3 ADD SLOAD AND PUSH1 0xA0 DUP6 ADD MSTORE ADD SLOAD SWAP2 ADD MSTORE JUMP JUMPDEST ISZERO PUSH2 0x4D98 JUMPI JUMP JUMPDEST PUSH1 0x40 MLOAD PUSH3 0x461BCD PUSH1 0xE5 SHL DUP2 MSTORE PUSH1 0x20 PUSH1 0x4 DUP3 ADD MSTORE PUSH1 0x2F PUSH1 0x24 DUP3 ADD MSTORE PUSH32 0x43616C6C6572206973206E6F742061207374616666206D656D626572206F6620 PUSH1 0x44 DUP3 ADD MSTORE PUSH15 0x30B73C9034B739BA34BA3ABA34B7B7 PUSH1 0x89 SHL PUSH1 0x64 DUP3 ADD MSTORE PUSH1 0x84 SWAP1 REVERT JUMPDEST PUSH1 0x40 MLOAD SWAP1 PUSH2 0x4E02 DUP3 PUSH2 0x40DB JUMP JUMPDEST PUSH1 0x60 PUSH2 0x100 DUP4 PUSH1 0x0 DUP1 DUP3 MSTORE DUP1 PUSH1 0x20 DUP4 ADD MSTORE DUP4 PUSH1 0x40 DUP4 ADD MSTORE DUP4 DUP1 DUP4 ADD MSTORE DUP1 PUSH1 0x80 DUP4 ADD MSTORE DUP1 PUSH1 0xA0 DUP4 ADD MSTORE DUP1 PUSH1 0xC0 DUP4 ADD MSTORE PUSH1 0xE0 DUP3 ADD MSTORE ADD MSTORE JUMP JUMPDEST SWAP1 DUP2 SLOAD PUSH2 0x4E45 DUP2 PUSH2 0x4715 JUMP JUMPDEST SWAP3 PUSH2 0x4E53 PUSH1 0x40 MLOAD SWAP5 DUP6 PUSH2 0x412E JUMP JUMPDEST DUP2 DUP5 MSTORE PUSH1 0x0 SWAP1 DUP2 MSTORE PUSH1 0x20 DUP1 DUP3 KECCAK256 DUP2 DUP7 ADD JUMPDEST DUP5 DUP5 LT PUSH2 0x4E72 JUMPI POP POP POP POP POP JUMP JUMPDEST PUSH1 0x1 DUP4 DUP2 SWAP3 PUSH2 0x4E80 DUP6 PUSH2 0x4571 JUMP JUMPDEST DUP2 MSTORE ADD SWAP3 ADD SWAP4 ADD SWAP3 SWAP1 PUSH2 0x4E64 JUMP JUMPDEST SWAP1 PUSH1 0x40 MLOAD PUSH2 0x4E9B DUP2 PUSH2 0x40DB JUMP JUMPDEST PUSH2 0x100 PUSH2 0x4F0C PUSH1 0x8 DUP4 SWAP6 DUP1 SLOAD DUP6 MSTORE PUSH1 0x1 DUP2 ADD SLOAD PUSH1 0x20 DUP7 ADD MSTORE PUSH2 0x4EBF PUSH1 0x2 DUP3 ADD PUSH2 0x4571 JUMP JUMPDEST PUSH1 0x40 DUP7 ADD MSTORE PUSH2 0x4ED0 PUSH1 0x3 DUP3 ADD PUSH2 0x4571 JUMP JUMPDEST PUSH1 0x60 DUP7 ADD MSTORE PUSH1 0x4 DUP2 ADD SLOAD PUSH1 0x80 DUP7 ADD MSTORE PUSH1 0x5 DUP2 ADD SLOAD PUSH1 0xA0 DUP7 ADD MSTORE PUSH1 0x6 DUP2 ADD SLOAD PUSH1 0x1 PUSH1 0x1 PUSH1 0xA0 SHL SUB AND PUSH1 0xC0 DUP7 ADD MSTORE PUSH1 0x7 DUP2 ADD SLOAD PUSH1 0xE0 DUP7 ADD MSTORE ADD PUSH2 0x4E39 JUMP JUMPDEST SWAP2 ADD MSTORE JUMP JUMPDEST ISZERO PUSH2 0x4F18 JUMPI JUMP JUMPDEST PUSH1 0x40 MLOAD PUSH3 0x461BCD PUSH1 0xE5 SHL DUP2 MSTORE PUSH1 0x20 PUSH1 0x4 DUP3 ADD MSTORE PUSH1 0x16 PUSH1 0x24 DUP3 ADD MSTORE PUSH22 0x14995C5D595CDD08191BD95CC81B9BDD08195E1A5CDD PUSH1 0x52 SHL PUSH1 0x44 DUP3 ADD MSTORE PUSH1 0x64 SWAP1 REVERT JUMPDEST PUSH1 0x40 MLOAD SWAP1 PUSH2 0x4F63 DUP3 PUSH2 0x40DB JUMP JUMPDEST PUSH1 0x0 PUSH2 0x100 DUP4 DUP3 DUP2 MSTORE PUSH1 0x60 PUSH1 0x20 DUP3 ADD MSTORE PUSH1 0x60 PUSH1 0x40 DUP3 ADD MSTORE PUSH1 0x60 DUP1 DUP3 ADD MSTORE DUP3 PUSH1 0x80 DUP3 ADD MSTORE DUP3 PUSH1 0xA0 DUP3 ADD MSTORE DUP3 PUSH1 0xC0 DUP3 ADD MSTORE PUSH1 0x60 PUSH1 0xE0 DUP3 ADD MSTORE ADD MSTORE JUMP JUMPDEST SWAP1 PUSH1 0x40 MLOAD PUSH2 0x4FAA DUP2 PUSH2 0x40DB JUMP JUMPDEST PUSH2 0x100 PUSH1 0x8 DUP3 SWAP5 DUP1 SLOAD DUP5 MSTORE PUSH2 0x4FC1 PUSH1 0x1 DUP3 ADD PUSH2 0x4571 JUMP JUMPDEST PUSH1 0x20 DUP6 ADD MSTORE PUSH2 0x4FD2 PUSH1 0x2 DUP3 ADD PUSH2 0x4571 JUMP JUMPDEST PUSH1 0x40 DUP6 ADD MSTORE PUSH2 0x4FE3 PUSH1 0x3 DUP3 ADD PUSH2 0x4571 JUMP JUMPDEST PUSH1 0x60 DUP6 ADD MSTORE PUSH1 0x4 DUP2 ADD SLOAD PUSH1 0x80 DUP6 ADD MSTORE PUSH1 0x5 DUP2 ADD SLOAD PUSH1 0xA0 DUP6 ADD MSTORE PUSH1 0x6 DUP2 ADD SLOAD PUSH1 0x1 PUSH1 0x1 PUSH1 0xA0 SHL SUB AND PUSH1 0xC0 DUP6 ADD MSTORE PUSH2 0x501B PUSH1 0x7 DUP3 ADD PUSH2 0x4E39 JUMP JUMPDEST PUSH1 0xE0 DUP6 ADD MSTORE ADD SLOAD SWAP2 ADD MSTORE JUMP INVALID LOG2 PUSH5 0x6970667358 0x22 SLT KECCAK256 ISZERO 0x4E SMOD 0xEC 0xAD PUSH26 0x1B04EF571CF650E8A82BB878165DE838037D8F88E133C4204871 PUSH5 0x736F6C6343 STOP ADDMOD SGT STOP CALLER "},"methodIdentifiers":{"addAdoptionEvent(uint256,address,string,uint256)":"feed3013","addMedicalEvent(uint256,string,string,uint256,string[])":"e737963b","addPet(string,string,string,string,uint256,string,string,uint8,uint8)":"b0e29ab7","addRescueRequest(string,string,string[],uint256)":"a50a6eb0","adoptionEventIdCounter()":"f664d942","adoptionEvents(uint256)":"46910856","getAdoptionEvent(uint256)":"bf2fbcae","getAllPets()":"5b236d97","getAllRescueRequests()":"32e414bf","getMedicalEvent(uint256)":"f29bc9de","getPetAdoptionHistory(uint256)":"a9dae805","getPetById(uint256)":"cb920509","getPetMedicalHistory(uint256)":"926c9bcf","getPetsByAdoptionStatus(uint8)":"11eedb61","getPetsByHealthStatus(uint8)":"8ccdb9e5","getRescueRequest(uint256)":"8480f69e","getUserPets(address)":"ba8cd532","getUserRescueRequests(address)":"d0c2dc06","institutionManagerAddress()":"5c828f37","medicalEventIdCounter()":"0262df23","medicalEvents(uint256)":"4a95525d","petIdCounter()":"59f95c25","pets(uint256)":"cfb869bf","removePet(uint256)":"8e5e7d67","rescueRequestIdCounter()":"eda95cb7","rescueRequests(uint256)":"50c688b3","updatePet(uint256,string,string,string,string,uint256,string,string,uint8,uint8)":"b6ce010c","updatePetAdoptionStatus(uint256,uint8)":"1c1c28f4","updatePetHealthStatus(uint256,uint8)":"ed0f162f","updateRescueRequestStatus(uint256,string,uint256)":"0c0e88df","userManagerAddress()":"4d1def2c"}}}}}