{
  "_format": "hh-sol-artifact-1",
  "contractName": "PetManager",
  "sourceName": "contracts/PetManager.sol",
  "abi": [
    {
      "inputs": [
        {
          "internalType": "address",
          "name": "_userManagerAddress",
          "type": "address"
        },
        {
          "internalType": "address",
          "name": "_institutionManagerAddress",
          "type": "address"
        }
      ],
      "stateMutability": "nonpayable",
      "type": "constructor"
    },
    {
      "anonymous": false,
      "inputs": [
        {
          "indexed": true,
          "internalType": "uint256",
          "name": "eventId",
          "type": "uint256"
        },
        {
          "indexed": true,
          "internalType": "uint256",
          "name": "petId",
          "type": "uint256"
        },
        {
          "indexed": true,
          "internalType": "address",
          "name": "adopter",
          "type": "address"
        },
        {
          "indexed": false,
          "internalType": "address",
          "name": "previousOwner",
          "type": "address"
        },
        {
          "indexed": false,
          "internalType": "uint256",
          "name": "timestamp",
          "type": "uint256"
        }
      ],
      "name": "AdoptionEventAdded",
      "type": "event"
    },
    {
      "anonymous": false,
      "inputs": [
        {
          "indexed": true,
          "internalType": "uint256",
          "name": "eventId",
          "type": "uint256"
        },
        {
          "indexed": true,
          "internalType": "uint256",
          "name": "petId",
          "type": "uint256"
        },
        {
          "indexed": true,
          "internalType": "address",
          "name": "doctor",
          "type": "address"
        },
        {
          "indexed": false,
          "internalType": "uint256",
          "name": "hospitalId",
          "type": "uint256"
        },
        {
          "indexed": false,
          "internalType": "uint256",
          "name": "timestamp",
          "type": "uint256"
        }
      ],
      "name": "MedicalEventAdded",
      "type": "event"
    },
    {
      "anonymous": false,
      "inputs": [
        {
          "indexed": true,
          "internalType": "uint256",
          "name": "petId",
          "type": "uint256"
        },
        {
          "indexed": false,
          "internalType": "string",
          "name": "name",
          "type": "string"
        },
        {
          "indexed": true,
          "internalType": "address",
          "name": "owner",
          "type": "address"
        },
        {
          "indexed": false,
          "internalType": "uint256",
          "name": "timestamp",
          "type": "uint256"
        }
      ],
      "name": "PetAdded",
      "type": "event"
    },
    {
      "anonymous": false,
      "inputs": [
        {
          "indexed": true,
          "internalType": "uint256",
          "name": "petId",
          "type": "uint256"
        },
        {
          "indexed": false,
          "internalType": "enum IMyPetBase.PetAdoptionStatus",
          "name": "adoptionStatus",
          "type": "uint8"
        },
        {
          "indexed": false,
          "internalType": "address",
          "name": "updatedBy",
          "type": "address"
        },
        {
          "indexed": false,
          "internalType": "uint256",
          "name": "timestamp",
          "type": "uint256"
        }
      ],
      "name": "PetAdoptionStatusUpdated",
      "type": "event"
    },
    {
      "anonymous": false,
      "inputs": [
        {
          "indexed": true,
          "internalType": "uint256",
          "name": "petId",
          "type": "uint256"
        },
        {
          "indexed": false,
          "internalType": "enum IMyPetBase.PetHealthStatus",
          "name": "healthStatus",
          "type": "uint8"
        },
        {
          "indexed": false,
          "internalType": "address",
          "name": "updatedBy",
          "type": "address"
        },
        {
          "indexed": false,
          "internalType": "uint256",
          "name": "timestamp",
          "type": "uint256"
        }
      ],
      "name": "PetHealthStatusUpdated",
      "type": "event"
    },
    {
      "anonymous": false,
      "inputs": [
        {
          "indexed": true,
          "internalType": "uint256",
          "name": "petId",
          "type": "uint256"
        },
        {
          "indexed": true,
          "internalType": "address",
          "name": "previousOwner",
          "type": "address"
        },
        {
          "indexed": false,
          "internalType": "uint256",
          "name": "timestamp",
          "type": "uint256"
        }
      ],
      "name": "PetRemoved",
      "type": "event"
    },
    {
      "anonymous": false,
      "inputs": [
        {
          "indexed": true,
          "internalType": "uint256",
          "name": "petId",
          "type": "uint256"
        },
        {
          "indexed": false,
          "internalType": "string",
          "name": "name",
          "type": "string"
        },
        {
          "indexed": true,
          "internalType": "address",
          "name": "owner",
          "type": "address"
        },
        {
          "indexed": false,
          "internalType": "uint256",
          "name": "timestamp",
          "type": "uint256"
        }
      ],
      "name": "PetUpdated",
      "type": "event"
    },
    {
      "anonymous": false,
      "inputs": [
        {
          "indexed": true,
          "internalType": "uint256",
          "name": "requestId",
          "type": "uint256"
        },
        {
          "indexed": true,
          "internalType": "address",
          "name": "requester",
          "type": "address"
        },
        {
          "indexed": false,
          "internalType": "string",
          "name": "location",
          "type": "string"
        },
        {
          "indexed": false,
          "internalType": "uint256",
          "name": "urgencyLevel",
          "type": "uint256"
        },
        {
          "indexed": false,
          "internalType": "uint256",
          "name": "timestamp",
          "type": "uint256"
        }
      ],
      "name": "RescueRequestAdded",
      "type": "event"
    },
    {
      "anonymous": false,
      "inputs": [
        {
          "indexed": true,
          "internalType": "uint256",
          "name": "requestId",
          "type": "uint256"
        },
        {
          "indexed": false,
          "internalType": "string",
          "name": "status",
          "type": "string"
        },
        {
          "indexed": false,
          "internalType": "uint256",
          "name": "responderOrgId",
          "type": "uint256"
        },
        {
          "indexed": false,
          "internalType": "uint256",
          "name": "timestamp",
          "type": "uint256"
        }
      ],
      "name": "RescueRequestStatusUpdated",
      "type": "event"
    },
    {
      "inputs": [
        {
          "internalType": "uint256",
          "name": "_petId",
          "type": "uint256"
        },
        {
          "internalType": "address",
          "name": "_adopter",
          "type": "address"
        },
        {
          "internalType": "string",
          "name": "_notes",
          "type": "string"
        },
        {
          "internalType": "uint256",
          "name": "_institutionId",
          "type": "uint256"
        }
      ],
      "name": "addAdoptionEvent",
      "outputs": [
        {
          "internalType": "uint256",
          "name": "",
          "type": "uint256"
        }
      ],
      "stateMutability": "nonpayable",
      "type": "function"
    },
    {
      "inputs": [
        {
          "internalType": "uint256",
          "name": "_petId",
          "type": "uint256"
        },
        {
          "internalType": "string",
          "name": "_diagnosis",
          "type": "string"
        },
        {
          "internalType": "string",
          "name": "_treatment",
          "type": "string"
        },
        {
          "internalType": "uint256",
          "name": "_cost",
          "type": "uint256"
        },
        {
          "internalType": "string[]",
          "name": "_attachments",
          "type": "string[]"
        }
      ],
      "name": "addMedicalEvent",
      "outputs": [
        {
          "internalType": "uint256",
          "name": "",
          "type": "uint256"
        }
      ],
      "stateMutability": "nonpayable",
      "type": "function"
    },
    {
      "inputs": [
        {
          "internalType": "string",
          "name": "_name",
          "type": "string"
        },
        {
          "internalType": "string",
          "name": "_species",
          "type": "string"
        },
        {
          "internalType": "string",
          "name": "_breed",
          "type": "string"
        },
        {
          "internalType": "string",
          "name": "_gender",
          "type": "string"
        },
        {
          "internalType": "uint256",
          "name": "_age",
          "type": "uint256"
        },
        {
          "internalType": "string",
          "name": "_description",
          "type": "string"
        },
        {
          "internalType": "string[]",
          "name": "_images",
          "type": "string[]"
        },
        {
          "internalType": "enum IMyPetBase.PetHealthStatus",
          "name": "_healthStatus",
          "type": "uint8"
        },
        {
          "internalType": "enum IMyPetBase.PetAdoptionStatus",
          "name": "_adoptionStatus",
          "type": "uint8"
        }
      ],
      "name": "addPet",
      "outputs": [
        {
          "internalType": "uint256",
          "name": "",
          "type": "uint256"
        }
      ],
      "stateMutability": "nonpayable",
      "type": "function"
    },
    {
      "inputs": [
        {
          "internalType": "string",
          "name": "_location",
          "type": "string"
        },
        {
          "internalType": "string",
          "name": "_description",
          "type": "string"
        },
        {
          "internalType": "string[]",
          "name": "_images",
          "type": "string[]"
        },
        {
          "internalType": "uint256",
          "name": "_urgencyLevel",
          "type": "uint256"
        }
      ],
      "name": "addRescueRequest",
      "outputs": [
        {
          "internalType": "uint256",
          "name": "",
          "type": "uint256"
        }
      ],
      "stateMutability": "nonpayable",
      "type": "function"
    },
    {
      "inputs": [
        {
          "internalType": "string",
          "name": "_hash",
          "type": "string"
        }
      ],
      "name": "addTransactionHash",
      "outputs": [
        {
          "internalType": "uint256",
          "name": "",
          "type": "uint256"
        }
      ],
      "stateMutability": "nonpayable",
      "type": "function"
    },
    {
      "inputs": [],
      "name": "adoptionEventIdCounter",
      "outputs": [
        {
          "internalType": "uint256",
          "name": "",
          "type": "uint256"
        }
      ],
      "stateMutability": "view",
      "type": "function"
    },
    {
      "inputs": [
        {
          "internalType": "uint256",
          "name": "",
          "type": "uint256"
        }
      ],
      "name": "adoptionEvents",
      "outputs": [
        {
          "internalType": "uint256",
          "name": "id",
          "type": "uint256"
        },
        {
          "internalType": "uint256",
          "name": "petId",
          "type": "uint256"
        },
        {
          "internalType": "address",
          "name": "adopter",
          "type": "address"
        },
        {
          "internalType": "uint256",
          "name": "timestamp",
          "type": "uint256"
        },
        {
          "internalType": "string",
          "name": "notes",
          "type": "string"
        },
        {
          "internalType": "address",
          "name": "previousOwner",
          "type": "address"
        },
        {
          "internalType": "uint256",
          "name": "institutionId",
          "type": "uint256"
        }
      ],
      "stateMutability": "view",
      "type": "function"
    },
    {
      "inputs": [
        {
          "internalType": "uint256",
          "name": "_eventId",
          "type": "uint256"
        }
      ],
      "name": "getAdoptionEvent",
      "outputs": [
        {
          "components": [
            {
              "internalType": "uint256",
              "name": "id",
              "type": "uint256"
            },
            {
              "internalType": "uint256",
              "name": "petId",
              "type": "uint256"
            },
            {
              "internalType": "address",
              "name": "adopter",
              "type": "address"
            },
            {
              "internalType": "uint256",
              "name": "timestamp",
              "type": "uint256"
            },
            {
              "internalType": "string",
              "name": "notes",
              "type": "string"
            },
            {
              "internalType": "address",
              "name": "previousOwner",
              "type": "address"
            },
            {
              "internalType": "uint256",
              "name": "institutionId",
              "type": "uint256"
            }
          ],
          "internalType": "struct IMyPetBase.AdoptionEvent",
          "name": "",
          "type": "tuple"
        }
      ],
      "stateMutability": "view",
      "type": "function"
    },
    {
      "inputs": [],
      "name": "getAllPets",
      "outputs": [
        {
          "components": [
            {
              "internalType": "uint256",
              "name": "id",
              "type": "uint256"
            },
            {
              "internalType": "string",
              "name": "name",
              "type": "string"
            },
            {
              "internalType": "string",
              "name": "species",
              "type": "string"
            },
            {
              "internalType": "string",
              "name": "breed",
              "type": "string"
            },
            {
              "internalType": "string",
              "name": "gender",
              "type": "string"
            },
            {
              "internalType": "uint256",
              "name": "age",
              "type": "uint256"
            },
            {
              "internalType": "string",
              "name": "description",
              "type": "string"
            },
            {
              "internalType": "string[]",
              "name": "images",
              "type": "string[]"
            },
            {
              "internalType": "enum IMyPetBase.PetHealthStatus",
              "name": "healthStatus",
              "type": "uint8"
            },
            {
              "internalType": "enum IMyPetBase.PetAdoptionStatus",
              "name": "adoptionStatus",
              "type": "uint8"
            },
            {
              "internalType": "address",
              "name": "owner",
              "type": "address"
            },
            {
              "internalType": "uint256[]",
              "name": "medicalRecordIds",
              "type": "uint256[]"
            },
            {
              "internalType": "uint256",
              "name": "lastUpdatedAt",
              "type": "uint256"
            }
          ],
          "internalType": "struct IMyPetBase.Pet[]",
          "name": "",
          "type": "tuple[]"
        }
      ],
      "stateMutability": "view",
      "type": "function"
    },
    {
      "inputs": [],
      "name": "getAllRescueRequests",
      "outputs": [
        {
          "components": [
            {
              "internalType": "uint256",
              "name": "id",
              "type": "uint256"
            },
            {
              "internalType": "string",
              "name": "location",
              "type": "string"
            },
            {
              "internalType": "string",
              "name": "description",
              "type": "string"
            },
            {
              "internalType": "string",
              "name": "status",
              "type": "string"
            },
            {
              "internalType": "uint256",
              "name": "responderOrgId",
              "type": "uint256"
            },
            {
              "internalType": "uint256",
              "name": "timestamp",
              "type": "uint256"
            },
            {
              "internalType": "address",
              "name": "requester",
              "type": "address"
            },
            {
              "internalType": "string[]",
              "name": "images",
              "type": "string[]"
            },
            {
              "internalType": "uint256",
              "name": "urgencyLevel",
              "type": "uint256"
            }
          ],
          "internalType": "struct IMyPetBase.RescueRequest[]",
          "name": "",
          "type": "tuple[]"
        }
      ],
      "stateMutability": "view",
      "type": "function"
    },
    {
      "inputs": [
        {
          "internalType": "uint256",
          "name": "_eventId",
          "type": "uint256"
        }
      ],
      "name": "getMedicalEvent",
      "outputs": [
        {
          "components": [
            {
              "internalType": "uint256",
              "name": "id",
              "type": "uint256"
            },
            {
              "internalType": "uint256",
              "name": "petId",
              "type": "uint256"
            },
            {
              "internalType": "string",
              "name": "diagnosis",
              "type": "string"
            },
            {
              "internalType": "string",
              "name": "treatment",
              "type": "string"
            },
            {
              "internalType": "uint256",
              "name": "timestamp",
              "type": "uint256"
            },
            {
              "internalType": "uint256",
              "name": "hospital",
              "type": "uint256"
            },
            {
              "internalType": "address",
              "name": "doctor",
              "type": "address"
            },
            {
              "internalType": "uint256",
              "name": "cost",
              "type": "uint256"
            },
            {
              "internalType": "string[]",
              "name": "attachments",
              "type": "string[]"
            }
          ],
          "internalType": "struct IMyPetBase.MedicalEvent",
          "name": "",
          "type": "tuple"
        }
      ],
      "stateMutability": "view",
      "type": "function"
    },
    {
      "inputs": [
        {
          "internalType": "uint256",
          "name": "_petId",
          "type": "uint256"
        }
      ],
      "name": "getPetAdoptionHistory",
      "outputs": [
        {
          "components": [
            {
              "internalType": "uint256",
              "name": "id",
              "type": "uint256"
            },
            {
              "internalType": "uint256",
              "name": "petId",
              "type": "uint256"
            },
            {
              "internalType": "address",
              "name": "adopter",
              "type": "address"
            },
            {
              "internalType": "uint256",
              "name": "timestamp",
              "type": "uint256"
            },
            {
              "internalType": "string",
              "name": "notes",
              "type": "string"
            },
            {
              "internalType": "address",
              "name": "previousOwner",
              "type": "address"
            },
            {
              "internalType": "uint256",
              "name": "institutionId",
              "type": "uint256"
            }
          ],
          "internalType": "struct IMyPetBase.AdoptionEvent[]",
          "name": "",
          "type": "tuple[]"
        }
      ],
      "stateMutability": "view",
      "type": "function"
    },
    {
      "inputs": [
        {
          "internalType": "uint256",
          "name": "_petId",
          "type": "uint256"
        }
      ],
      "name": "getPetById",
      "outputs": [
        {
          "components": [
            {
              "internalType": "uint256",
              "name": "id",
              "type": "uint256"
            },
            {
              "internalType": "string",
              "name": "name",
              "type": "string"
            },
            {
              "internalType": "string",
              "name": "species",
              "type": "string"
            },
            {
              "internalType": "string",
              "name": "breed",
              "type": "string"
            },
            {
              "internalType": "string",
              "name": "gender",
              "type": "string"
            },
            {
              "internalType": "uint256",
              "name": "age",
              "type": "uint256"
            },
            {
              "internalType": "string",
              "name": "description",
              "type": "string"
            },
            {
              "internalType": "string[]",
              "name": "images",
              "type": "string[]"
            },
            {
              "internalType": "enum IMyPetBase.PetHealthStatus",
              "name": "healthStatus",
              "type": "uint8"
            },
            {
              "internalType": "enum IMyPetBase.PetAdoptionStatus",
              "name": "adoptionStatus",
              "type": "uint8"
            },
            {
              "internalType": "address",
              "name": "owner",
              "type": "address"
            },
            {
              "internalType": "uint256[]",
              "name": "medicalRecordIds",
              "type": "uint256[]"
            },
            {
              "internalType": "uint256",
              "name": "lastUpdatedAt",
              "type": "uint256"
            }
          ],
          "internalType": "struct IMyPetBase.Pet",
          "name": "",
          "type": "tuple"
        }
      ],
      "stateMutability": "view",
      "type": "function"
    },
    {
      "inputs": [
        {
          "internalType": "uint256",
          "name": "_petId",
          "type": "uint256"
        }
      ],
      "name": "getPetMedicalHistory",
      "outputs": [
        {
          "components": [
            {
              "internalType": "uint256",
              "name": "id",
              "type": "uint256"
            },
            {
              "internalType": "uint256",
              "name": "petId",
              "type": "uint256"
            },
            {
              "internalType": "string",
              "name": "diagnosis",
              "type": "string"
            },
            {
              "internalType": "string",
              "name": "treatment",
              "type": "string"
            },
            {
              "internalType": "uint256",
              "name": "timestamp",
              "type": "uint256"
            },
            {
              "internalType": "uint256",
              "name": "hospital",
              "type": "uint256"
            },
            {
              "internalType": "address",
              "name": "doctor",
              "type": "address"
            },
            {
              "internalType": "uint256",
              "name": "cost",
              "type": "uint256"
            },
            {
              "internalType": "string[]",
              "name": "attachments",
              "type": "string[]"
            }
          ],
          "internalType": "struct IMyPetBase.MedicalEvent[]",
          "name": "",
          "type": "tuple[]"
        }
      ],
      "stateMutability": "view",
      "type": "function"
    },
    {
      "inputs": [
        {
          "internalType": "enum IMyPetBase.PetAdoptionStatus",
          "name": "_status",
          "type": "uint8"
        }
      ],
      "name": "getPetsByAdoptionStatus",
      "outputs": [
        {
          "components": [
            {
              "internalType": "uint256",
              "name": "id",
              "type": "uint256"
            },
            {
              "internalType": "string",
              "name": "name",
              "type": "string"
            },
            {
              "internalType": "string",
              "name": "species",
              "type": "string"
            },
            {
              "internalType": "string",
              "name": "breed",
              "type": "string"
            },
            {
              "internalType": "string",
              "name": "gender",
              "type": "string"
            },
            {
              "internalType": "uint256",
              "name": "age",
              "type": "uint256"
            },
            {
              "internalType": "string",
              "name": "description",
              "type": "string"
            },
            {
              "internalType": "string[]",
              "name": "images",
              "type": "string[]"
            },
            {
              "internalType": "enum IMyPetBase.PetHealthStatus",
              "name": "healthStatus",
              "type": "uint8"
            },
            {
              "internalType": "enum IMyPetBase.PetAdoptionStatus",
              "name": "adoptionStatus",
              "type": "uint8"
            },
            {
              "internalType": "address",
              "name": "owner",
              "type": "address"
            },
            {
              "internalType": "uint256[]",
              "name": "medicalRecordIds",
              "type": "uint256[]"
            },
            {
              "internalType": "uint256",
              "name": "lastUpdatedAt",
              "type": "uint256"
            }
          ],
          "internalType": "struct IMyPetBase.Pet[]",
          "name": "",
          "type": "tuple[]"
        }
      ],
      "stateMutability": "view",
      "type": "function"
    },
    {
      "inputs": [
        {
          "internalType": "uint256",
          "name": "_requestId",
          "type": "uint256"
        }
      ],
      "name": "getRescueRequest",
      "outputs": [
        {
          "components": [
            {
              "internalType": "uint256",
              "name": "id",
              "type": "uint256"
            },
            {
              "internalType": "string",
              "name": "location",
              "type": "string"
            },
            {
              "internalType": "string",
              "name": "description",
              "type": "string"
            },
            {
              "internalType": "string",
              "name": "status",
              "type": "string"
            },
            {
              "internalType": "uint256",
              "name": "responderOrgId",
              "type": "uint256"
            },
            {
              "internalType": "uint256",
              "name": "timestamp",
              "type": "uint256"
            },
            {
              "internalType": "address",
              "name": "requester",
              "type": "address"
            },
            {
              "internalType": "string[]",
              "name": "images",
              "type": "string[]"
            },
            {
              "internalType": "uint256",
              "name": "urgencyLevel",
              "type": "uint256"
            }
          ],
          "internalType": "struct IMyPetBase.RescueRequest",
          "name": "",
          "type": "tuple"
        }
      ],
      "stateMutability": "view",
      "type": "function"
    },
    {
      "inputs": [
        {
          "internalType": "address",
          "name": "_user",
          "type": "address"
        }
      ],
      "name": "getUserPets",
      "outputs": [
        {
          "components": [
            {
              "internalType": "uint256",
              "name": "id",
              "type": "uint256"
            },
            {
              "internalType": "string",
              "name": "name",
              "type": "string"
            },
            {
              "internalType": "string",
              "name": "species",
              "type": "string"
            },
            {
              "internalType": "string",
              "name": "breed",
              "type": "string"
            },
            {
              "internalType": "string",
              "name": "gender",
              "type": "string"
            },
            {
              "internalType": "uint256",
              "name": "age",
              "type": "uint256"
            },
            {
              "internalType": "string",
              "name": "description",
              "type": "string"
            },
            {
              "internalType": "string[]",
              "name": "images",
              "type": "string[]"
            },
            {
              "internalType": "enum IMyPetBase.PetHealthStatus",
              "name": "healthStatus",
              "type": "uint8"
            },
            {
              "internalType": "enum IMyPetBase.PetAdoptionStatus",
              "name": "adoptionStatus",
              "type": "uint8"
            },
            {
              "internalType": "address",
              "name": "owner",
              "type": "address"
            },
            {
              "internalType": "uint256[]",
              "name": "medicalRecordIds",
              "type": "uint256[]"
            },
            {
              "internalType": "uint256",
              "name": "lastUpdatedAt",
              "type": "uint256"
            }
          ],
          "internalType": "struct IMyPetBase.Pet[]",
          "name": "",
          "type": "tuple[]"
        }
      ],
      "stateMutability": "view",
      "type": "function"
    },
    {
      "inputs": [
        {
          "internalType": "address",
          "name": "_user",
          "type": "address"
        }
      ],
      "name": "getUserRescueRequests",
      "outputs": [
        {
          "components": [
            {
              "internalType": "uint256",
              "name": "id",
              "type": "uint256"
            },
            {
              "internalType": "string",
              "name": "location",
              "type": "string"
            },
            {
              "internalType": "string",
              "name": "description",
              "type": "string"
            },
            {
              "internalType": "string",
              "name": "status",
              "type": "string"
            },
            {
              "internalType": "uint256",
              "name": "responderOrgId",
              "type": "uint256"
            },
            {
              "internalType": "uint256",
              "name": "timestamp",
              "type": "uint256"
            },
            {
              "internalType": "address",
              "name": "requester",
              "type": "address"
            },
            {
              "internalType": "string[]",
              "name": "images",
              "type": "string[]"
            },
            {
              "internalType": "uint256",
              "name": "urgencyLevel",
              "type": "uint256"
            }
          ],
          "internalType": "struct IMyPetBase.RescueRequest[]",
          "name": "",
          "type": "tuple[]"
        }
      ],
      "stateMutability": "view",
      "type": "function"
    },
    {
      "inputs": [],
      "name": "hashCount",
      "outputs": [
        {
          "internalType": "uint256",
          "name": "",
          "type": "uint256"
        }
      ],
      "stateMutability": "view",
      "type": "function"
    },
    {
      "inputs": [],
      "name": "institutionManagerAddress",
      "outputs": [
        {
          "internalType": "address",
          "name": "",
          "type": "address"
        }
      ],
      "stateMutability": "view",
      "type": "function"
    },
    {
      "inputs": [],
      "name": "medicalEventIdCounter",
      "outputs": [
        {
          "internalType": "uint256",
          "name": "",
          "type": "uint256"
        }
      ],
      "stateMutability": "view",
      "type": "function"
    },
    {
      "inputs": [
        {
          "internalType": "uint256",
          "name": "",
          "type": "uint256"
        }
      ],
      "name": "medicalEvents",
      "outputs": [
        {
          "internalType": "uint256",
          "name": "id",
          "type": "uint256"
        },
        {
          "internalType": "uint256",
          "name": "petId",
          "type": "uint256"
        },
        {
          "internalType": "string",
          "name": "diagnosis",
          "type": "string"
        },
        {
          "internalType": "string",
          "name": "treatment",
          "type": "string"
        },
        {
          "internalType": "uint256",
          "name": "timestamp",
          "type": "uint256"
        },
        {
          "internalType": "uint256",
          "name": "hospital",
          "type": "uint256"
        },
        {
          "internalType": "address",
          "name": "doctor",
          "type": "address"
        },
        {
          "internalType": "uint256",
          "name": "cost",
          "type": "uint256"
        }
      ],
      "stateMutability": "view",
      "type": "function"
    },
    {
      "inputs": [],
      "name": "petIdCounter",
      "outputs": [
        {
          "internalType": "uint256",
          "name": "",
          "type": "uint256"
        }
      ],
      "stateMutability": "view",
      "type": "function"
    },
    {
      "inputs": [
        {
          "internalType": "uint256",
          "name": "",
          "type": "uint256"
        }
      ],
      "name": "pets",
      "outputs": [
        {
          "internalType": "uint256",
          "name": "id",
          "type": "uint256"
        },
        {
          "internalType": "string",
          "name": "name",
          "type": "string"
        },
        {
          "internalType": "string",
          "name": "species",
          "type": "string"
        },
        {
          "internalType": "string",
          "name": "breed",
          "type": "string"
        },
        {
          "internalType": "string",
          "name": "gender",
          "type": "string"
        },
        {
          "internalType": "uint256",
          "name": "age",
          "type": "uint256"
        },
        {
          "internalType": "string",
          "name": "description",
          "type": "string"
        },
        {
          "internalType": "enum IMyPetBase.PetHealthStatus",
          "name": "healthStatus",
          "type": "uint8"
        },
        {
          "internalType": "enum IMyPetBase.PetAdoptionStatus",
          "name": "adoptionStatus",
          "type": "uint8"
        },
        {
          "internalType": "address",
          "name": "owner",
          "type": "address"
        },
        {
          "internalType": "uint256",
          "name": "lastUpdatedAt",
          "type": "uint256"
        }
      ],
      "stateMutability": "view",
      "type": "function"
    },
    {
      "inputs": [
        {
          "internalType": "uint256",
          "name": "_petId",
          "type": "uint256"
        }
      ],
      "name": "removePet",
      "outputs": [],
      "stateMutability": "nonpayable",
      "type": "function"
    },
    {
      "inputs": [],
      "name": "rescueRequestIdCounter",
      "outputs": [
        {
          "internalType": "uint256",
          "name": "",
          "type": "uint256"
        }
      ],
      "stateMutability": "view",
      "type": "function"
    },
    {
      "inputs": [
        {
          "internalType": "uint256",
          "name": "",
          "type": "uint256"
        }
      ],
      "name": "rescueRequests",
      "outputs": [
        {
          "internalType": "uint256",
          "name": "id",
          "type": "uint256"
        },
        {
          "internalType": "string",
          "name": "location",
          "type": "string"
        },
        {
          "internalType": "string",
          "name": "description",
          "type": "string"
        },
        {
          "internalType": "string",
          "name": "status",
          "type": "string"
        },
        {
          "internalType": "uint256",
          "name": "responderOrgId",
          "type": "uint256"
        },
        {
          "internalType": "uint256",
          "name": "timestamp",
          "type": "uint256"
        },
        {
          "internalType": "address",
          "name": "requester",
          "type": "address"
        },
        {
          "internalType": "uint256",
          "name": "urgencyLevel",
          "type": "uint256"
        }
      ],
      "stateMutability": "view",
      "type": "function"
    },
    {
      "inputs": [
        {
          "internalType": "string",
          "name": "_hash",
          "type": "string"
        }
      ],
      "name": "storeTransactionHash",
      "outputs": [],
      "stateMutability": "nonpayable",
      "type": "function"
    },
    {
      "inputs": [
        {
          "internalType": "uint256",
          "name": "",
          "type": "uint256"
        }
      ],
      "name": "transactionHashes",
      "outputs": [
        {
          "internalType": "string",
          "name": "",
          "type": "string"
        }
      ],
      "stateMutability": "view",
      "type": "function"
    },
    {
      "inputs": [
        {
          "internalType": "uint256",
          "name": "_petId",
          "type": "uint256"
        },
        {
          "internalType": "string",
          "name": "_name",
          "type": "string"
        },
        {
          "internalType": "string",
          "name": "_species",
          "type": "string"
        },
        {
          "internalType": "string",
          "name": "_breed",
          "type": "string"
        },
        {
          "internalType": "string",
          "name": "_gender",
          "type": "string"
        },
        {
          "internalType": "uint256",
          "name": "_age",
          "type": "uint256"
        },
        {
          "internalType": "string",
          "name": "_description",
          "type": "string"
        },
        {
          "internalType": "string[]",
          "name": "_images",
          "type": "string[]"
        },
        {
          "internalType": "enum IMyPetBase.PetHealthStatus",
          "name": "_healthStatus",
          "type": "uint8"
        },
        {
          "internalType": "enum IMyPetBase.PetAdoptionStatus",
          "name": "_adoptionStatus",
          "type": "uint8"
        }
      ],
      "name": "updatePet",
      "outputs": [],
      "stateMutability": "nonpayable",
      "type": "function"
    },
    {
      "inputs": [
        {
          "internalType": "uint256",
          "name": "_petId",
          "type": "uint256"
        },
        {
          "internalType": "enum IMyPetBase.PetAdoptionStatus",
          "name": "_adoptionStatus",
          "type": "uint8"
        }
      ],
      "name": "updatePetAdoptionStatus",
      "outputs": [],
      "stateMutability": "nonpayable",
      "type": "function"
    },
    {
      "inputs": [
        {
          "internalType": "uint256",
          "name": "_petId",
          "type": "uint256"
        },
        {
          "internalType": "enum IMyPetBase.PetHealthStatus",
          "name": "_healthStatus",
          "type": "uint8"
        }
      ],
      "name": "updatePetHealthStatus",
      "outputs": [],
      "stateMutability": "nonpayable",
      "type": "function"
    },
    {
      "inputs": [
        {
          "internalType": "uint256",
          "name": "_requestId",
          "type": "uint256"
        },
        {
          "internalType": "string",
          "name": "_status",
          "type": "string"
        },
        {
          "internalType": "uint256",
          "name": "_responderOrgId",
          "type": "uint256"
        }
      ],
      "name": "updateRescueRequestStatus",
      "outputs": [],
      "stateMutability": "nonpayable",
      "type": "function"
    },
    {
      "inputs": [],
      "name": "userManagerAddress",
      "outputs": [
        {
          "internalType": "address",
          "name": "",
          "type": "address"
        }
      ],
      "stateMutability": "view",
      "type": "function"
    }
  ],
  "bytecode": "0x60c0346200017c57601f6200584338819003918201601f19168301916001600160401b03831184841017620001815780849260409485528339810103126200017c576200005a6020620000528362000197565b920162000197565b600180805560058190556006819055600755906001600160a01b03808216156200013757821615620000e65760805260a0526040516156969081620001ad82396080518181816103ec015281816119910152818161389f01528181613aab0152613e5d015260a0518181816109d601528181610c7f01528181613a34015281816140e801526143e20152f35b60405162461bcd60e51b815260206004820152602360248201527f496e76616c696420696e737469747574696f6e206d616e61676572206164647260448201526265737360e81b6064820152608490fd5b60405162461bcd60e51b815260206004820152601c60248201527f496e76616c69642075736572206d616e616765722061646472657373000000006044820152606490fd5b600080fd5b634e487b7160e01b600052604160045260246000fd5b51906001600160a01b03821682036200017c5756fe608080604052600436101561001357600080fd5b600090813560e01c9081630262df23146146c3575080630c0e88df1461437c57806311eedb61146142855780631c1c28f41461407c578063213dafcd1461403d57806332e414bf14613fb15780634691085614613f195780634a95525d14613e8c5780634d1def2c14613e4757806350c688b314613d8057806359f95c2514613d625780635b236d9714613a815780635bebd9d714613a635780635c828f3714613a1e5780638480f69e146139b35780638e5e7d67146137eb578063926c9bcf1461366b578063a50a6eb014612fa8578063a5e2252f14612e58578063a9dae80514612cc3578063ad9ad0e21461247f578063ba8cd53214612363578063bf2fbcae146122b1578063cb92050914612240578063cfb869bf14612118578063d0c2dc0614611fe5578063e4c05c80146114df578063e737963b14610bd5578063ed0f162f1461096a578063eda95cb71461094c578063f29bc9de14610882578063f664d94214610864578063f825c803146107135763feed30131461019757600080fd5b34610710576080366003190112610710576024356001600160a01b038116900361070b576044356001600160401b038111610707576101da903690600401614781565b6004351515806106fa575b6101ee90614f0f565b60043560001981019081116106e65761020690614e36565b5060018060a01b03600882015460101c16906005549261022584614e84565b6005556040516102348161472a565b848152602081019160043583526040820160018060a01b036024351681526060830190428252608084019283528660a085015260643560c0850152600254600160401b8110156106d25780600161028e9201600255614bdd565b9590956106be5784518655516001860155516002850180546001600160a01b0319166001600160a01b03929092169190911790555160038401555180516001600160401b0381116106aa5760048401916102e88354614a0a565b601f811161066f575b50602090601f831160011461060557918060c09492600696948c926105fa575b50508160011b916000199060031b1c19161790555b60a08101516005850180546001600160a01b0319166001600160a01b039283161790559101519190920155600882018054601090811c83168752600a60208181526040808a2060048035808d52918452828c20805460ff19908116909155875461010060248035998a901b62010000600160b01b0316610100600160b01b0319909316929092171790985542998601999099559487168b52928252808a20928a5291815281892080549096166001179095555163eac50f6b60e01b8082529181018690527f000000000000000000000000000000000000000000000000000000000000000090931693909291829081865afa9081156105ef5786916105d0575b50610563575b604051908152602480356001600160a01b03166004830152602090829081855afa908115610558578591610529575b506104b8575b604080516001600160a01b03848116825242602080840191909152928692602435909216916004359184917f55be7614be0c2182d17fa4209154903dc72879f15b00e2f2710ccda329bc34589190a4604051908152f35b803b156105255760405163f265841360e01b8152602480356001600160a01b0316600480840191909152359082015290849082908183816044810103925af1801561051a57156104615761050c84916146df565b6105165782610461565b8280fd5b6040513d86823e3d90fd5b8380fd5b61054b915060203d602011610551575b6105438183614745565b810190614ef7565b3861045b565b503d610539565b6040513d87823e3d90fd5b813b156105c157604051630a86fdff60e01b81526001600160a01b0384166004808301919091523560248201528590818160448183885af180156105c5576105ad575b505061042c565b6105b6906146df565b6105c15784386105a6565b8480fd5b6040513d84823e3d90fd5b6105e9915060203d602011610551576105438183614745565b38610426565b6040513d88823e3d90fd5b015190503880610311565b838a5260208a209190601f1984168b5b81811061065757509260019285926006989660c098961061063e575b505050811b019055610326565b015160001960f88460031b161c19169055388080610631565b92936020600181928786015181550195019301610615565b61069a90848b5260208b20601f850160051c810191602086106106a0575b601f0160051c0190614ea9565b386102f1565b909150819061068d565b634e487b7160e01b88526041600452602488fd5b634e487b7160e01b8a5260048a905260248afd5b634e487b7160e01b8a52604160045260248afd5b634e487b7160e01b83526011600452602483fd5b50600154600435106101e5565b5080fd5b600080fd5b80fd5b50346107105760209081600319360112610710576001600160401b039060043582811161070757610748903690600401614781565b91600954825260088452604082209183519182116108505761076a8354614a0a565b601f8111610822575b508490601f83116001146107c25793829394926107b7575b50508160011b916000199060031b1c19161790555b6009546107ac81614e84565b600955604051908152f35b01519050388061078b565b90601f19831694848352868320925b8787821061080c5750508360019596106107f3575b505050811b0190556107a0565b015160001960f88460031b161c191690553880806107e6565b60018495829395850151815501940192016107d1565b61084a90848352868320601f850160051c8101918886106106a057601f0160051c0190614ea9565b38610773565b634e487b7160e01b81526041600452602490fd5b50346107105780600319360112610710576020600554604051908152f35b503461071057602036600319011261071057600435906108a0615461565b5081151580610941575b156108fc5760001982019182116108e8576108e46108d06108ca84614c69565b506154a5565b604051918291602083526020830190614ca4565b0390f35b634e487b7160e01b81526011600452602490fd5b60405162461bcd60e51b815260206004820152601c60248201527f4d65646963616c206576656e7420646f6573206e6f74206578697374000000006044820152606490fd5b5060065482106108aa565b50346107105780600319360112610710576020600754604051908152f35b503461071057604036600319011261071057600435602480359060048210156105255782151580610bca575b61099f90614f0f565b6000198301838111610bb7576109b490614e36565b5060405163584fab0f60e01b81523360048201526020926001600160a01b03917f0000000000000000000000000000000000000000000000000000000000000000831685828481845afa918215610bac578992610b7d575b5088809280610afb575b50505060088401923390845460101c1614908115610af3575b5015610a8a5750918391610a667fc8e817726513561c7616eb3edbd23bf2a45394ccb9fcc869aba072a54f13d6a195606095614ec0565b600a4291015560405191610a798161486c565b82523390820152426040820152a280f35b8360396084926040519262461bcd60e51b845260048401528201527f4f6e6c7920706574206f776e6572206f7220686f73706974616c20737461666660448201527f2063616e20757064617465206865616c746820737461747573000000000000006064820152fd5b905038610a2f565b909192508360405180948193630418ed2160e21b835260048301525afa8015610b72576040918991610b50575b5001516003811015610b3d5715388881610a16565b50634e487b7160e01b8752602160045286fd5b610b6c91503d808b833e610b648183614745565b810190614fe6565b38610b28565b6040513d8a823e3d90fd5b9091508581813d8311610ba5575b610b958183614745565b8101031261070b57519038610a0c565b503d610b8b565b6040513d8b823e3d90fd5b50634e487b7160e01b8452601160045283fd5b506001548310610996565b50346107105760a0366003190112610710576024356001600160401b03811161070757610c06903690600401614781565b6044356001600160401b03811161051657610c25903690600401614781565b906084356001600160401b03811161052557610c45903690600401614d43565b906004351515806114d2575b610c5a90614f0f565b80511561148d578251156114485760405163584fab0f60e01b815233600482015291847f00000000000000000000000000000000000000000000000000000000000000006001600160a01b0316602085602481845afa9485156105c5578295611410575b5090602491610cce8615156153fd565b60405192838092630418ed2160e21b82528860048301525afa80156105ef5760409187916113f6575b50015160038110156113e25761138e5760065493610d1485614e84565b60065560405192610d24846146f2565b8584526004356020850152604084015260608301524260808301528260a08301523360c083015260643560e0830152610100820152600354600160401b81101561137a57806001610d789201600355614c69565b91909161136657805182556020810151600183015560408101518051906001600160401b038211610ff9578190610db26002860154614a0a565b601f8111611333575b50602090601f83116001146112c45788926112b9575b50508160011b916000199060031b1c19161760028301555b60608101518051906001600160401b038211610ff957610e0c6003850154614a0a565b601f8111611286575b50602090601f83116001146112155761010093929188918361120a575b50508160011b916000199060031b1c19161760038401555b6080810151600484015560a081015160058401556006830160018060a01b0360c0830151166bffffffffffffffffffffffff60a01b82541617905560e08101516007840155015190815191600160401b83116111f657600882015483600884015580841061117e575b50602060089101910185526020852085915b83831061105b5750505060043560001981019150811161104757610ee890614e36565b5060098101546001810180821161103357610f0281614d2c565b90610f106040519283614745565b808252610f1f601f1991614d2c565b01366020830137855b82811061100d575084610f3b83836151d5565b528051916001600160401b038311610ff957600160401b8311610ff95790602091836009860155808410610fdc575b500160098301865260208620955b828110610fc8576020868686600a4291015560405190815242838201523390827f34ff5635072ed578cb1a5a1c8738633eba9c3eb2bcc771cdeee87acff6b2c19b604060043593a4604051908152f35b600190602083519301928189015501610f78565b600985018852828820610ff3918101908501614ea9565b38610f6a565b634e487b7160e01b87526041600452602487fd5b61102e906009850188528060208920015461102882856151d5565b52614e84565b610f28565b634e487b7160e01b86526011600452602486fd5b634e487b7160e01b84526011600452602484fd5b80518051906001600160401b03821161116a576110788454614a0a565b601f811161113a575b50602090601f83116001146110cd5792826001949360209386958d926110c2575b5050600019600383901b1c191690841b1785555b01920192019190610ec5565b0151905038806110a2565b90848a5260208a20918a5b601f1985168110611122575083602093600196938796938794601f19811610611109575b505050811b0185556110b6565b015160001960f88460031b161c191690553880806110fc565b919260206001819286850151815501940192016110d8565b61116490858b5260208b20601f850160051c810191602086106106a057601f0160051c0190614ea9565b38611081565b634e487b7160e01b89526041600452602489fd5b60088301875260208720908482015b818301811061119d575050610eb3565b80896111ab60019354614a0a565b806111b9575b50500161118d565b601f811184146111d1575050600081555b89386111b1565b8282526111ec601f60208420920160051c8201858301614ea9565b60008355556111ca565b634e487b7160e01b86526041600452602486fd5b015190503880610e32565b906003850188526020882091885b601f198516811061126e57509183916001936101009695601f19811610611255575b505050811b016003840155610e4a565b015160001960f88460031b161c19169055388080611245565b91926020600181928685015181550194019201611223565b6112b39060038601895260208920601f850160051c810191602086106106a057601f0160051c0190614ea9565b38610e15565b015190503880610dd1565b9250600285018852602088209088935b601f1984168510611318576001945083601f198116106112ff575b505050811b016002830155610de9565b015160001960f88460031b161c191690553880806112ef565b818101518355602094850194600190930192909101906112d4565b61136090600287018a5260208a20601f850160051c810191602086106106a057601f0160051c0190614ea9565b38610dbb565b634e487b7160e01b85526004859052602485fd5b634e487b7160e01b85526041600452602485fd5b60405162461bcd60e51b815260206004820152602660248201527f43616c6c6572277320696e737469747574696f6e206973206e6f74206120686f6044820152651cdc1a5d185b60d21b6064820152608490fd5b634e487b7160e01b86526021600452602486fd5b61140a91503d8089833e610b648183614745565b38610cf7565b915093506020813d602011611440575b8161142d60209383614745565b8101031261070b57519285906024610cbe565b3d9150611420565b60405162461bcd60e51b815260206004820152601960248201527f54726561746d656e742063616e6e6f7420626520656d707479000000000000006044820152606490fd5b60405162461bcd60e51b815260206004820152601960248201527f446961676e6f7369732063616e6e6f7420626520656d707479000000000000006044820152606490fd5b5060015460043510610c51565b503461071057610120366003190112610710576004356001600160401b03811161070757611511903690600401614781565b6024356001600160401b03811161051657611530903690600401614781565b906044356001600160401b03811161052557611550903690600401614781565b916064356001600160401b0381116105c157611570903690600401614781565b9260a4356001600160401b038111611fe157611590903690600401614781565b60c4356001600160401b038111611fdd576115af903690600401614d43565b90600460e4351015611fdd576004610104351015611fdd57600154956115d487614e84565b600155604051938460208101106001600160401b03602087011117611fc757602085016040528885526040519561160a8761470e565b88875287602088015260408701526060860152608085015260843560a085015260c084015260e083015261163f60e43561486c565b60e4356101008301526116546101043561486c565b6101043561012083015233610140830152610160820152426101808201528354600160401b81101561137a5780600161168f92018655614e36565b611366578151815560208201518051906001600160401b038211610ff95781906116bc6001850154614a0a565b601f8111611f94575b50602090601f8311600114611f25578892611f1a575b50508160011b916000199060031b1c19161760018201555b60408201518051906001600160401b038211610ff95781906117186002850154614a0a565b601f8111611ee7575b50602090601f8311600114611e78578892611e6d575b50508160011b916000199060031b1c19161760028201555b60608201518051906001600160401b038211610ff95781906117746003850154614a0a565b601f8111611e3a575b50602090601f8311600114611dcb578892611dc0575b50508160011b916000199060031b1c19161760038201555b60808201518051906001600160401b038211610ff95781906117d06004850154614a0a565b601f8111611d8d575b50602090601f8311600114611d1e578892611d13575b50508160011b916000199060031b1c19161760048201555b60a0820151600582015560c08201518051906001600160401b038211610ff95781906118366006850154614a0a565b601f8111611ce0575b50602090601f8311600114611c71578892611c66575b50508160011b916000199060031b1c19161760068201555b60e0820151805190600160401b8211610ff9576007830154826007850155808310611bee575b506020016007830187526020872087915b838310611acb575050505060088101916118cc6101008201516118c68161486c565b84614ec0565b6118e46101208201516118de8161486c565b84614ed8565b610140810151835462010000600160b01b03191660109190911b62010000600160b01b0316179092556001600160a01b039160098201610160820151908151916001600160401b03831161116a57600160401b831161116a576020908254848455808510611ab1575b500190885260208820885b838110611a9d5750505050610180600a910151910155338452600a6020526040842083855260205260408420600160ff198254161790557f00000000000000000000000000000000000000000000000000000000000000001660405163eac50f6b60e01b8152336004820152602081602481855afa908115610558578591611a7e575b50611a30575b60208383817f6342c419c510d61c7ee75cc1173c8ca03be76384bd2b9fc7eaa7279dbdfd95c2611a1c604051936040855260408501906147eb565b9242868201528033940390a3604051908152f35b803b156105255760405163f265841360e01b8152336004820152602481018490529084908290604490829084905af1801561051a57156119e157611a7484916146df565b61051657826119e1565b611a97915060203d602011610551576105438183614745565b386119db565b600190602084519401938184015501611958565b838b52828b20611ac5918101908601614ea9565b3861194d565b80518051906001600160401b038211611bda57611ae88454614a0a565b601f8111611baa575b506020908b601f8411600114611b3d57928060209360019693879692611b32575b5050600019600383901b1c191690841b1785555b019201920191906118a4565b015190503880611b12565b85905260208c2091908c5b601f1985168110611b92575083602093600196938796938794601f19811610611b79575b505050811b018555611b26565b015160001960f88460031b161c19169055388080611b6c565b91926020600181928685015181550194019201611b48565b611bd490858d5260208d20601f850160051c810191602086106106a057601f0160051c0190614ea9565b38611af1565b634e487b7160e01b8b52604160045260248bfd5b60078401885260208820908382015b8183018110611c0d575050611893565b808a611c1b60019354614a0a565b80611c29575b505001611bfd565b601f81118414611c41575050600081555b8a38611c21565b828252611c5c601f60208420920160051c8201858301614ea9565b6000835555611c3a565b015190503880611855565b9250600684018852602088209088935b601f1984168510611cc5576001945083601f19811610611cac575b505050811b01600682015561186d565b015160001960f88460031b161c19169055388080611c9c565b81810151835560209485019460019093019290910190611c81565b611d0d90600686018a5260208a20601f850160051c810191602086106106a057601f0160051c0190614ea9565b3861183f565b0151905038806117ef565b9250600484018852602088209088935b601f1984168510611d72576001945083601f19811610611d59575b505050811b016004820155611807565b015160001960f88460031b161c19169055388080611d49565b81810151835560209485019460019093019290910190611d2e565b611dba90600486018a5260208a20601f850160051c810191602086106106a057601f0160051c0190614ea9565b386117d9565b015190503880611793565b9250600384018852602088209088935b601f1984168510611e1f576001945083601f19811610611e06575b505050811b0160038201556117ab565b015160001960f88460031b161c19169055388080611df6565b81810151835560209485019460019093019290910190611ddb565b611e6790600386018a5260208a20601f850160051c810191602086106106a057601f0160051c0190614ea9565b3861177d565b015190503880611737565b9250600284018852602088209088935b601f1984168510611ecc576001945083601f19811610611eb3575b505050811b01600282015561174f565b015160001960f88460031b161c19169055388080611ea3565b81810151835560209485019460019093019290910190611e88565b611f1490600286018a5260208a20601f850160051c810191602086106106a057601f0160051c0190614ea9565b38611721565b0151905038806116db565b9250600184018852602088209088935b601f1984168510611f79576001945083601f19811610611f60575b505050811b0160018201556116f3565b015160001960f88460031b161c19169055388080611f50565b81810151835560209485019460019093019290910190611f35565b611fc190600186018a5260208a20601f850160051c810191602086106106a057601f0160051c0190614ea9565b386116c5565b634e487b7160e01b600052604160045260246000fd5b8680fd5b8580fd5b50346107105760208060031936011261070757612000614e20565b6004549183916001600160a01b0390811691835b8581106120de575061202586614d2c565b956120336040519788614745565b808752612042601f1991614d2c565b01845b8181106120c857505050825b84811061206657604051806108e48882614b7b565b8282600661207384614c2e565b500154161461208b575b61208690614e84565b612051565b926120c0612086916120a561209f87614c2e565b506155d6565b6120af828a6151d5565b526120ba81896151d5565b50614e84565b93905061207d565b82906120d261558f565b82828b01015201612045565b838360066120eb84614c2e565b5001541614612103575b6120fe90614e84565b612014565b956121106120fe91614e84565b9690506120f5565b50346107105760203660031901126107105760043581548110156107075761213f90614e36565b50805461214e60018301614a44565b9161215b60028201614a44565b61216760038301614a44565b9161217460048201614a44565b9060058101546006820161218790614a44565b9060088301549360ff8516968560081c60ff1694600a0154966040519a8b9a8b526101608060208d01528b016121bc916147eb565b8a810360408c01526121cd916147eb565b89810360608b01526121de916147eb565b88810360808a01526121ef916147eb565b9060a088015286810360c0880152612206916147eb565b936122108161486c565b60e086015261221e8161486c565b61010085015260101c6001600160a01b03166101208401526101408301520390f35b5034610710576020366003190112610710576004359061225e615124565b50811515806122a6575b61227190614f0f565b60001982019182116108e8576108e461229261228c84614e36565b5061523e565b60405191829160208352602083019061488c565b506001548210612268565b503461071057602036600319011261071057600435906122cf615363565b5081151580612358575b156123135760001982019182116108e8576108e46122ff6122f984614bdd565b5061539c565b604051918291602083526020830190614dc3565b60405162461bcd60e51b815260206004820152601d60248201527f41646f7074696f6e206576656e7420646f6573206e6f742065786973740000006044820152606490fd5b5060055482106122d9565b50346107105760203660031901126107105761237d614e20565b600180546001600160a01b0392831692909184905b83811061242257506123a390615185565b92849060015b8481106123be57604051806108e488826149a8565b600019810181811161240e57828560086123d784614e36565b50015460101c16146123f3575b506123ee90614e84565b6123a9565b6123ee91936120a561228c61240793614e36565b92906123e4565b634e487b7160e01b88526011600452602488fd5b600019810181811161246b5783600861243b8893614e36565b50015460101c1614612456575b61245190614e84565b612392565b9061246361245191614e84565b919050612448565b634e487b7160e01b87526011600452602487fd5b503461071057610140366003190112610710576024356001600160401b038111610707576124b1903690600401614781565b6044356001600160401b038111610516576124d0903690600401614781565b6064356001600160401b038111610525576124ef903690600401614781565b6084356001600160401b0381116105c15761250e903690600401614781565b60c4356001600160401b038111611fe15761252d903690600401614781565b9060e4356001600160401b038111611fdd5761254d903690600401614d43565b926004610104351015611fdd576004610124351015611fdd57600435151580612cb6575b61257a90614f0f565b600435600019810190811161240e57806125b46125996125b993614e36565b50600801543360109190911c6001600160a01b031614614f50565b614e36565b509486516001600160401b03811161116a576125d86001880154614a0a565b601f8111612c83575b50806020601f8211600114612c19578a91612c0e575b508160011b916000199060031b1c19161760018701555b80516001600160401b03811161116a5780600288019261262e8454614a0a565b601f8111612bde575b50602090601f8311600114612b7b578b92612b70575b50508160011b916000199060031b1c19161790555b80516001600160401b0381116106aa578060038701926126828454614a0a565b601f8111612b40575b50602090601f8311600114612add578a92612ad2575b50508160011b916000199060031b1c19161790555b80516001600160401b038111610ff9578060048601926126d68454614a0a565b601f8111612aa2575b50602090601f8311600114612a3f578992612a34575b50508160011b916000199060031b1c19161790555b60a435600584015580516001600160401b0381116111f6578060068501926127328454614a0a565b601f8111612a04575b50602090601f83116001146129a1578892612996575b50508160011b916000199060031b1c19161790555b805190600160401b821161137a57600783015482600785015580831061291e575b506020016007830185526020852085915b83831061281057505050506127c1600882016127b76101043582614ec0565b6101243590614ed8565b600a429101556127dc604051916040835260408301906147eb565b4260208301527f43b40e0bdc5aab239d36a56df4ba90b148b997eb5b50f01d12e22cf544d1731c339280600435930390a380f35b80518051906001600160401b03821161116a5761282d8454614a0a565b601f81116128ee575b50602090601f83116001146128825792826001949360209386958d92612877575b5050600019600383901b1c191690841b1785555b01920192019190612798565b015190503880612857565b90848a52808a20918a5b601f19851681106128d6575083602093600196938796938794601f198116106128bd575b505050811b01855561286b565b015160001960f88460031b161c191690553880806128b0565b9192602060018192868501518155019401920161288c565b61291890858b5260208b20601f850160051c810191602086106106a057601f0160051c0190614ea9565b38612836565b60078401865260208620908382015b818301811061293d575050612787565b808861294b60019354614a0a565b80612959575b50500161292d565b601f81118414612971575050600081555b8838612951565b82825261298c601f60208420920160051c8201858301614ea9565b600083555561296a565b015190503880612751565b8489528189209250601f198416895b8181106129ec57509084600195949392106129d3575b505050811b019055612766565b015160001960f88460031b161c191690553880806129c6565b929360206001819287860151815501950193016129b0565b612a2e90858a5260208a20601f850160051c810191602086106106a057601f0160051c0190614ea9565b3861273b565b0151905038806126f5565b848a52818a209250601f1984168a5b818110612a8a5750908460019594939210612a71575b505050811b01905561270a565b015160001960f88460031b161c19169055388080612a64565b92936020600181928786015181550195019301612a4e565b612acc90858b5260208b20601f850160051c810191602086106106a057601f0160051c0190614ea9565b386126df565b0151905038806126a1565b848b52818b209250601f1984168b5b818110612b285750908460019594939210612b0f575b505050811b0190556126b6565b015160001960f88460031b161c19169055388080612b02565b92936020600181928786015181550195019301612aec565b612b6a90858c5260208c20601f850160051c810191602086106106a057601f0160051c0190614ea9565b3861268b565b01519050388061264d565b848c52818c209250601f1984168c5b818110612bc65750908460019594939210612bad575b505050811b019055612662565b015160001960f88460031b161c19169055388080612ba0565b92936020600181928786015181550195019301612b8a565b612c0890858d5260208d20601f850160051c810191602086106106a057601f0160051c0190614ea9565b38612637565b9050880151386125f7565b9150600188018a52818a208a925b8a601f1984168510612c6c57506001935082601f19811610612c53575b5050811b01600187015561260e565b8a015160001960f88460031b161c191690553880612c44565b810151825560209384019360019092019101612c27565b612cb090600189018b5260208b20601f840160051c810191602085106106a057601f0160051c0190614ea9565b386125e1565b5060015460043510612571565b5034610710576020806003193601126107075760043580151580612e4d575b612cee90939293614f0f565b6002548291825b828110612e0f5750612d0683614d2c565b92612d146040519485614745565b808452612d23601f1991614d2c565b01845b818110612df45750508390845b838110612d9a575050505060405191838301848452825180915260408401948060408360051b870101940192955b828710612d6e5785850386f35b909192938280612d8a600193603f198a82030186528851614dc3565b9601920196019592919092612d61565b816001612da983999899614bdd565b50015414612dc3575b612dbb90614e84565b959495612d33565b91612dec612dbb91612dd76122f986614bdd565b612de182896151d5565b526120ba81886151d5565b929050612db2565b95809596612e00615363565b82828801015201959495612d26565b816001612e1e83989798614bdd565b50015414612e38575b612e3090614e84565b949394612cf5565b92612e45612e3091614e84565b939050612e27565b506001548110612ce2565b50346107105760209081600319360112610710576001600160401b039160043583811161051657612e8d903690600401614781565b9260095483526008825260408320918451918211612f9457612eaf8354614a0a565b601f8111612f66575b5080601f8311600114612f025750839482939492612ef7575b50508160011b916000199060031b1c19161790555b612ef1600954614e84565b60095580f35b015190503880612ed1565b90601f198316958486528286209286905b888210612f4e57505083600195969710612f35575b505050811b019055612ee6565b015160001960f88460031b161c19169055388080612f28565b80600185968294968601518155019501930190612f13565b612f8e90848652828620601f850160051c8101918486106106a057601f0160051c0190614ea9565b38612eb8565b634e487b7160e01b84526041600452602484fd5b5034610710576080366003190112610710576004356001600160401b03811161070757612fd9903690600401614781565b906024356001600160401b03811161070757612ff9903690600401614781565b916044356001600160401b03811161051657613019903690600401614d43565b926007549261302784614e84565b60075560405194613037866146f2565b84865260208601928484526040870152604051604081018181106001600160401b03821117611fc757604052600781526670656e64696e6760c81b602082015260608701528160808701524260a08701523360c087015260e0860152606435610100860152600454600160401b811015613657578060016130bb9201600455614c2e565b9290926136435785518355518051906001600160401b0382116134285781906130e76001860154614a0a565b601f8111613610575b50602090601f83116001146135a1578492613596575b50508160011b916000199060031b1c19161760018301555b60408501518051906001600160401b0382116134285781906131436002860154614a0a565b601f8111613563575b50602090601f83116001146134f45784926134e9575b50508160011b916000199060031b1c19161760028301555b60608501518051906001600160401b03821161342857819061319f6003860154614a0a565b601f81116134b6575b50602090601f831160011461344757849261343c575b50508160011b916000199060031b1c19161760038301555b6080850151600483015560a085015160058301556006820160018060a01b0360c0870151166bffffffffffffffffffffffff60a01b82541617905560e0850151805190600160401b82116134285760078401548260078601558083106133b0575b506020016007840183526020832083915b8383106132a157602088888860086101008e0151910155817f9eb849b4f6f3138108f9e92fd4141262c526a0552d10586d8b9fff4e38328d3960405180613296339542906064359084615528565b0390a3604051908152f35b80518051906001600160401b038211610ff9576132be8454614a0a565b601f8111613380575b50602090601f83116001146133135792826001949360209386958b92613308575b5050600019600383901b1c191690841b1785555b01920192019190613248565b0151905038806132e8565b908488526020882091885b601f1985168110613368575083602093600196938796938794601f1981161061334f575b505050811b0185556132fc565b015160001960f88460031b161c19169055388080613342565b9192602060018192868501518155019401920161331e565b6133aa9085895260208920601f850160051c810191602086106106a057601f0160051c0190614ea9565b386132c7565b60078501845260208420908382015b81830181106133cf575050613237565b80866133dd60019354614a0a565b806133eb575b5050016133bf565b601f81118414613403575050600081555b86386133e3565b82825261341e601f60208420920160051c8201858301614ea9565b60008355556133fc565b634e487b7160e01b83526041600452602483fd5b0151905038806131be565b9250600385018452602084209084935b601f198416851061349b576001945083601f19811610613482575b505050811b0160038301556131d6565b015160001960f88460031b161c19169055388080613472565b81810151835560209485019460019093019290910190613457565b6134e39060038701865260208620601f850160051c810191602086106106a057601f0160051c0190614ea9565b386131a8565b015190503880613162565b9250600285018452602084209084935b601f1984168510613548576001945083601f1981161061352f575b505050811b01600283015561317a565b015160001960f88460031b161c1916905538808061351f565b81810151835560209485019460019093019290910190613504565b6135909060028701865260208620601f850160051c810191602086106106a057601f0160051c0190614ea9565b3861314c565b015190503880613106565b9250600185018452602084209084935b601f19841685106135f5576001945083601f198116106135dc575b505050811b01600183015561311e565b015160001960f88460031b161c191690553880806135cc565b818101518355602094850194600190930192909101906135b1565b61363d9060018701865260208620601f850160051c810191602086106106a057601f0160051c0190614ea9565b386130f0565b634e487b7160e01b82526004829052602482fd5b634e487b7160e01b82526041600452602482fd5b50346107105760208060031936011261070757600435801515806137e0575b61369690939293614f0f565b6003548291825b8281106137a257506136ae83614d2c565b926136bc6040519485614745565b8084526136cb601f1991614d2c565b01845b8181106137875750508390845b838110613742575050505060405191838301848452825180915260408401948060408360051b870101940192955b8287106137165785850386f35b909192938280613732600193603f198a82030186528851614ca4565b9601920196019592919092613709565b81600161375183999899614c69565b5001541461376b575b61376390614e84565b9594956136db565b9161377f61376391612dd76108ca86614c69565b92905061375a565b95809596613793615461565b828288010152019594956136ce565b8160016137b183989798614c69565b500154146137cb575b6137c390614e84565b94939461369d565b926137d86137c391614e84565b9390506137ba565b50600154811061368a565b50346107105760208060031936011261070757600435801515806139a8575b61381390614f0f565b6000198101918183116110475761384b600861382e85614e36565b5001546001600160a01b0394906125b49060101c86163314614f50565b50600881018054610100600160b01b031981166103001790915542600a928301553380875291835260408087208588528452808720805460ff191690555163eac50f6b60e01b8152600481019290925293907f00000000000000000000000000000000000000000000000000000000000000008216908381602481855afa90811561399d578791613980575b50613911575b50907f346ef892a985c1086a400f5039fdd55058b695ef87c9ae769c1e191570857d32916040519442865260101c1693a380f35b803b15611fe157604051630a86fdff60e01b8152336004820152602481018590529086908290604490829084905af180156105ef57156138dd57946139787f346ef892a985c1086a400f5039fdd55058b695ef87c9ae769c1e191570857d329392966146df565b9490916138dd565b6139979150843d8611610551576105438183614745565b386138d7565b6040513d89823e3d90fd5b50600154811061380a565b503461071057602036600319011261071057600435906139d161558f565b5081151580613a13575b6139e49061554a565b60001982019182116108e8576108e46139ff61209f84614c2e565b604051918291602083526020830190614aea565b5060075482106139db565b50346107105780600319360112610710576040517f00000000000000000000000000000000000000000000000000000000000000006001600160a01b03168152602090f35b50346107105780600319360112610710576020600954604051908152f35b503461071057806003193601126107105760405163eac50f6b60e01b8152336004820152602091907f00000000000000000000000000000000000000000000000000000000000000006001600160a01b0316908381602481855afa908115613d57578391613d3a575b5015613cff578160249160405192838092636386c1c760e01b82523360048301525afa9081156105c5578291613c1e575b50613b258161486c565b8015908115613c0a575b5015613bae57908154613b4181614d2c565b91613b4f6040519384614745565b8183528380527f290decd9548b62a8d60345a988386fc84ba6bc95484008f6362f93160ef3e56393908084015b838310613b9157604051806108e487826149a8565b600b82600192613ba08961523e565b815201960192019194613b7c565b60405162461bcd60e51b815260048101839052602e60248201527f4f6e6c792061646d696e206f7220686f73706974616c2073746166662063616e60448201526d207669657720616c6c207065747360901b6064820152608490fd5b60029150613c178161486c565b1438613b2f565b90503d8083833e613c2f8183614745565b81016101608282031261051657838201516001600160401b03908181116105c15782613c5c918501614f90565b5060408301518181116105c15782613c75918501614f90565b5060608301518181116105c15782613c8e918501614f90565b50613c9b60808401614fd2565b50600260a084015110156105255760e08301518181116105c15782613cc1918501614f90565b5060036101008401511015610525576101208301519260048410156105c1576101408101519182116105c157613cf8929101614f90565b5038613b1b565b60405162461bcd60e51b8152600481018490526013602482015272155cd95c881b9bdd081c9959da5cdd195c9959606a1b6044820152606490fd5b613d519150843d8611610551576105438183614745565b38613aea565b6040513d85823e3d90fd5b50346107105780600319360112610710576020600154604051908152f35b50346107105760203660031901126107105760043560045481101561070757613da890614c2e565b508054613db760018301614a44565b91613dc460028201614a44565b613dd060038301614a44565b91600481015492613e2e600583015491613e20600860018060a01b0360068701541695015495613e126040519a8b9a8b526101008060208d01528b01906147eb565b9089820360408b01526147eb565b9087820360608901526147eb565b93608086015260a085015260c084015260e08301520390f35b50346107105780600319360112610710576040517f00000000000000000000000000000000000000000000000000000000000000006001600160a01b03168152602090f35b50346107105760203660031901126107105760043560035481101561070757613eb490614c69565b508054600182015491613ec960028201614a44565b613ed560038301614a44565b91600481015492613e2e600583015491613e20600760018060a01b0360068701541695015495604051998a998a5260208a01526101008060408b01528901906147eb565b50346107105760203660031901126107105760043560025481101561070757613f4190614bdd565b50805460018201549160018060a01b03613fa2816002840154169160038401546006613f6f60048701614a44565b9260058701541695015493604051978897885260208801526040870152606086015260e0608086015260e08501906147eb565b9160a084015260c08301520390f35b5034610710578060031936011261071057600454613fce81614d2c565b90613fdc6040519283614745565b808252600483527f8a35acfbc15ff81a39ae7d344fd709f28e8600b4aa8c65c6b64bfe7fe36bd19b9260208084015b83831061402057604051806108e48782614b7b565b60098260019261402f896155d6565b81520196019201919461400b565b50346107105760203660031901126107105761406860406108e4926004358152600860205220614a44565b6040519182916020835260208301906147eb565b50346107105760403660031901126107105760043560248035906004821015610525578215158061427a575b6140b190614f0f565b6000198301838111610bb7576140c690614e36565b5060405163584fab0f60e01b81523360048201526020926001600160a01b03917f0000000000000000000000000000000000000000000000000000000000000000831685828481845afa918215610bac578992614247575b50888092806141e9575b50505060088401923390845460101c16149081156141e1575b50156141785750918391610a667f7d0da604b8f505f4dbe71c3c18098b9a37e5cc4d9841c01d6be11b244b76a25c95606095614ed8565b83603a6084926040519262461bcd60e51b845260048401528201527f4f6e6c7920706574206f776e6572206f72207368656c7465722073746166662060448201527f63616e207570646174652061646f7074696f6e207374617475730000000000006064820152fd5b905038614141565b909192508360405180948193630418ed2160e21b835260048301525afa8015610b7257604091899161422d575b5001516003811015610b3d57600114388881614128565b61424191503d808b833e610b648183614745565b38614216565b9091508581813d8311614273575b61425f8183614745565b8101031261426f5751903861411e565b8880fd5b503d614255565b5060015483106140a8565b5034610710576020366003190112610710576004359060048210156107105780549080805b83811061432b57506142bb90615185565b92815b8381106142d357604051806108e487826149a8565b8160ff6142df83614e36565b50600880910154901c166142f28261486c565b6142fb8161486c565b1461430f575b61430a90614e84565b6142be565b9161432361430a91612dd761228c86614e36565b929050614301565b8460ff61433783614e36565b50600880910154901c1661434a8261486c565b6143538161486c565b14614367575b61436290614e84565b6142aa565b9061437461436291614e84565b919050614359565b5034610710576060366003190112610710576004356001600160401b03602480358281116105c1576143b2903690600401614781565b9160443591841515806146b8575b6143c99061554a565b60405163584fab0f60e01b8152336004820152602092907f00000000000000000000000000000000000000000000000000000000000000006001600160a01b031690889085818681865afa9081156105c557829161468b575b5061442e8115156153fd565b8460405180948193630418ed2160e21b835260048301525afa8015610b72576040918991614671575b500151600381101561465e5760018091036145fe57600019908782018881116145eb5761448390614c2e565b5094600386019488519485116145d9575061449e8554614a0a565b601f81116145ab575b508981601f861160011461451c575093879693817f2195d99dac9b89ea92bf6fc0c105f6640b48cbfff5d0aba408aa1e3210dc87069a999794819460049894614511575b501b9260031b1c19161790555b015561450b604051928392429184615528565b0390a280f35b8b01519350386144eb565b868c52808c20939594929150601f198516908c905b828210614594575050926004959285928a99967f2195d99dac9b89ea92bf6fc0c105f6640b48cbfff5d0aba408aa1e3210dc87069c9b99961061457c575b505050811b0190556144f8565b8a01519060f88460031b161c1916905538808061456f565b808885978294968f01518155019601930190614531565b6145d390868c52828c20601f870160051c8101918488106106a057601f0160051c0190614ea9565b386144a7565b634e487b7160e01b8b5260416004528afd5b634e487b7160e01b8a526011600452848afd5b60405162461bcd60e51b8152600481018590526033818501527f4f6e6c79207368656c7465722073746166662063616e207570646174652072656044820152727363756520726571756573742073746174757360681b6064820152608490fd5b634e487b7160e01b885260216004528288fd5b61468591503d808b833e610b648183614745565b38614457565b90508581813d83116146b1575b6146a28183614745565b81010312610707575138614422565b503d614698565b5060075485106143c0565b9050346107075781600319360112610707576020906006548152f35b6001600160401b038111611fc757604052565b61012081019081106001600160401b03821117611fc757604052565b6101a081019081106001600160401b03821117611fc757604052565b60e081019081106001600160401b03821117611fc757604052565b90601f801991011681019081106001600160401b03821117611fc757604052565b6001600160401b038111611fc757601f01601f191660200190565b81601f8201121561070b5780359061479882614766565b926147a66040519485614745565b8284526020838301011161070b57816000926020809301838601378301015290565b60005b8381106147db5750506000910152565b81810151838201526020016147cb565b90602091614804815180928185528580860191016147c8565b601f01601f1916010190565b908082519081815260208091019281808460051b8301019501936000915b84831061483e5750505050505090565b909192939495848061485c600193601f198682030187528a516147eb565b980193019301919493929061482e565b6004111561487657565b634e487b7160e01b600052602160045260246000fd5b908151815260209161491e61490c6148f06148de6148cc6148ba888701516101a0808b8b01528901906147eb565b604087015188820360408a01526147eb565b606086015187820360608901526147eb565b608085015186820360808801526147eb565b60a084015160a086015260c084015185820360c08701526147eb565b60e083015184820360e0860152614810565b9261010080830151906149308261486c565b84015261012080830151906149448261486c565b840152610140828101516001600160a01b03169084015261016080830151848603918501919091528051808652948201949082019160005b82811061499457505050506101808091015191015290565b83518752958101959281019260010161497c565b602080820190808352835180925260408301928160408460051b8301019501936000915b8483106149dc5750505050505090565b90919293949584806149fa600193603f198682030187528a5161488c565b98019301930191949392906149cc565b90600182811c92168015614a3a575b6020831014614a2457565b634e487b7160e01b600052602260045260246000fd5b91607f1691614a19565b9060405191826000825492614a5884614a0a565b908184526001948581169081600014614ac75750600114614a84575b5050614a8292500383614745565b565b9093915060005260209081600020936000915b818310614aaf575050614a8293508201013880614a74565b85548884018501529485019487945091830191614a97565b915050614a8294506020925060ff191682840152151560051b8201013880614a74565b9081518152614b6d614b35614b23614b1160208601516101208060208801528601906147eb565b604086015185820360408701526147eb565b606085015184820360608601526147eb565b6080840151608084015260a084015160a084015260018060a01b0360c08501511660c084015260e084015183820360e0850152614810565b916101008091015191015290565b602080820190808352835180925260408301928160408460051b8301019501936000915b848310614baf5750505050505090565b9091929394958480614bcd600193603f198682030187528a51614aea565b9801930193019194939290614b9f565b600254811015614c18576007906002600052027f405787fa12a823e0f2b7631cc41b3ba8828b3321ca811111fa75cd3aa3bb5ace0190600090565b634e487b7160e01b600052603260045260246000fd5b600454811015614c18576009906004600052027f8a35acfbc15ff81a39ae7d344fd709f28e8600b4aa8c65c6b64bfe7fe36bd19b0190600090565b600354811015614c18576009906003600052027fc2575a0e9e593c00f959f8c92f12db2869c3395a3b0502d05e2516446f71f85b0190600090565b90614d29918051825260208101516020830152614ce5614cd360408301516101208060408701528501906147eb565b606083015184820360608601526147eb565b916080820151608082015260a082015160a082015260018060a01b0360c08301511660c082015260e082015160e08201526101008092015191818403910152614810565b90565b6001600160401b038111611fc75760051b60200190565b9080601f8301121561070b57813590614d5b82614d2c565b92614d696040519485614745565b828452602092838086019160051b8301019280841161070b57848301915b848310614d975750505050505090565b82356001600160401b03811161070b578691614db884848094890101614781565b815201920191614d87565b90815181526020820151602082015260c08060018060a01b039384604082015116604085015260608101516060850152614e0c608082015160e0608087015260e08601906147eb565b9460a08201511660a0850152015191015290565b600435906001600160a01b038216820361070b57565b906000918254811015614e7057600b90838052027f290decd9548b62a8d60345a988386fc84ba6bc95484008f6362f93160ef3e563019190565b634e487b7160e01b83526032600452602483fd5b6000198114614e935760010190565b634e487b7160e01b600052601160045260246000fd5b818110614eb4575050565b60008155600101614ea9565b90614eca8161486c565b60ff80198354169116179055565b90614ee28161486c565b61ff0082549160081b169061ff001916179055565b9081602091031261070b5751801515810361070b5790565b15614f1657565b60405162461bcd60e51b815260206004820152601260248201527114195d08191bd95cc81b9bdd08195e1a5cdd60721b6044820152606490fd5b15614f5757565b60405162461bcd60e51b81526020600482015260116024820152702737ba103a3432903832ba1037bbb732b960791b6044820152606490fd5b81601f8201121561070b578051614fa681614766565b92614fb46040519485614745565b8184526020828401011161070b57614d2991602080850191016147c8565b51906001600160a01b038216820361070b57565b602091828282031261070b5781516001600160401b039283821161070b57019161010093848484031261070b5760405194850185811083821117611fc757604052835185528084015182811161070b5783615042918601614f90565b818601526040840151600381101561070b57604086015261506560608501614fd2565b6060860152608084015182811161070b5784019083601f8301121561070b5781519161509083614d2c565b9261509e6040519485614745565b808452828085019160051b8301019186831161070b578301905b82821061510d5750505050608085015260a083015160a085015260c083015181811161070b57826150ea918501614f90565b60c085015260e083015190811161070b576151059201614f90565b60e082015290565b83809161511984614fd2565b8152019101906150b8565b604051906151318261470e565b81610180600091828152606080602083015280604083015280808301528060808301528360a08301528060c08301528060e08301528361010083015283610120830152836101408301526101608201520152565b9061518f82614d2c565b61519c6040519182614745565b82815280926151ad601f1991614d2c565b019060005b8281106151be57505050565b6020906151c9615124565b828285010152016151b2565b8051821015614c185760209160051b010190565b9081546151f581614d2c565b926152036040519485614745565b818452600090815260208082208186015b848410615222575050505050565b600183819261523085614a44565b815201920193019290615214565b9060405161524b8161470e565b809280548252600161525e818301614a44565b6020908185015261527160028401614a44565b604085015261528260038401614a44565b606085015261529360048401614a44565b6080850152600583015460a08501526152ae60068401614a44565b60c08501526152bf600784016151e9565b60e0850152600883015460ff81166152d68161486c565b61010086015260ff8160081c166152ec8161486c565b61012086015260101c6001600160a01b031661014085015260405160098401805480835260009182528382209294858501949092905b82821061534e5750505050509181615341600a93610180950382614745565b6101608501520154910152565b84548652948501949383019390830190615322565b604051906153708261472a565b8160c0600091828152826020820152826040820152826060820152606060808201528260a08201520152565b906040516153a98161472a565b60c060068294805484526001810154602085015260018060a01b03806002830154166040860152600382015460608601526153e660048301614a44565b608086015260058201541660a08501520154910152565b1561540457565b60405162461bcd60e51b815260206004820152602f60248201527f43616c6c6572206973206e6f742061207374616666206d656d626572206f662060448201526e30b73c9034b739ba34ba3aba34b7b760891b6064820152608490fd5b6040519061546e826146f2565b606061010083600080825280602083015283604083015283808301528060808301528060a08301528060c083015260e08201520152565b906040516154b2816146f2565b6101006155236008839580548552600181015460208601526154d660028201614a44565b60408601526154e760038201614a44565b606086015260048101546080860152600581015460a086015260068101546001600160a01b031660c0860152600781015460e0860152016151e9565b910152565b615540604092959493956060835260608301906147eb565b9460208201520152565b1561555157565b60405162461bcd60e51b815260206004820152601660248201527514995c5d595cdd08191bd95cc81b9bdd08195e1a5cdd60521b6044820152606490fd5b6040519061559c826146f2565b60006101008382815260606020820152606060408201526060808201528260808201528260a08201528260c0820152606060e08201520152565b906040516155e3816146f2565b61010060088294805484526155fa60018201614a44565b602085015261560b60028201614a44565b604085015261561c60038201614a44565b606085015260048101546080850152600581015460a085015260068101546001600160a01b031660c0850152615654600782016151e9565b60e0850152015491015256fea2646970667358221220e0e2d9651b4473584fafb99cec466243924f423bec59b665fb36ff277cb3a31364736f6c63430008130033",
  "linkReferences": {},
  "deployedLinkReferences": {}
}