{
  "_format": "hh-sol-artifact-1",
  "contractName": "PetManager",
  "sourceName": "contracts/PetManager.sol",
  "abi": [
    {
      "inputs": [
        {
          "internalType": "address",
          "name": "_userManagerAddress",
          "type": "address"
        },
        {
          "internalType": "address",
          "name": "_institutionManagerAddress",
          "type": "address"
        }
      ],
      "stateMutability": "nonpayable",
      "type": "constructor"
    },
    {
      "inputs": [
        {
          "internalType": "uint256",
          "name": "_petId",
          "type": "uint256"
        },
        {
          "internalType": "address",
          "name": "_adopter",
          "type": "address"
        },
        {
          "internalType": "string",
          "name": "_notes",
          "type": "string"
        },
        {
          "internalType": "uint256",
          "name": "_institutionId",
          "type": "uint256"
        }
      ],
      "name": "addAdoptionEvent",
      "outputs": [
        {
          "internalType": "uint256",
          "name": "",
          "type": "uint256"
        }
      ],
      "stateMutability": "nonpayable",
      "type": "function"
    },
    {
      "inputs": [
        {
          "internalType": "uint256",
          "name": "_petId",
          "type": "uint256"
        },
        {
          "internalType": "string",
          "name": "_diagnosis",
          "type": "string"
        },
        {
          "internalType": "string",
          "name": "_treatment",
          "type": "string"
        },
        {
          "internalType": "uint256",
          "name": "_cost",
          "type": "uint256"
        },
        {
          "internalType": "string[]",
          "name": "_attachments",
          "type": "string[]"
        }
      ],
      "name": "addMedicalEvent",
      "outputs": [
        {
          "internalType": "uint256",
          "name": "",
          "type": "uint256"
        }
      ],
      "stateMutability": "nonpayable",
      "type": "function"
    },
    {
      "inputs": [
        {
          "internalType": "string",
          "name": "_name",
          "type": "string"
        },
        {
          "internalType": "string",
          "name": "_species",
          "type": "string"
        },
        {
          "internalType": "string",
          "name": "_breed",
          "type": "string"
        },
        {
          "internalType": "string",
          "name": "_gender",
          "type": "string"
        },
        {
          "internalType": "uint256",
          "name": "_age",
          "type": "uint256"
        },
        {
          "internalType": "string",
          "name": "_description",
          "type": "string"
        },
        {
          "internalType": "string",
          "name": "_image",
          "type": "string"
        },
        {
          "internalType": "enum IMyPetBase.PetHealthStatus",
          "name": "_healthStatus",
          "type": "uint8"
        },
        {
          "internalType": "enum IMyPetBase.PetAdoptionStatus",
          "name": "_adoptionStatus",
          "type": "uint8"
        }
      ],
      "name": "addPet",
      "outputs": [
        {
          "internalType": "uint256",
          "name": "",
          "type": "uint256"
        }
      ],
      "stateMutability": "nonpayable",
      "type": "function"
    },
    {
      "inputs": [
        {
          "internalType": "string",
          "name": "_location",
          "type": "string"
        },
        {
          "internalType": "string",
          "name": "_description",
          "type": "string"
        },
        {
          "internalType": "string[]",
          "name": "_images",
          "type": "string[]"
        },
        {
          "internalType": "uint256",
          "name": "_urgencyLevel",
          "type": "uint256"
        }
      ],
      "name": "addRescueRequest",
      "outputs": [
        {
          "internalType": "uint256",
          "name": "",
          "type": "uint256"
        }
      ],
      "stateMutability": "nonpayable",
      "type": "function"
    },
    {
      "inputs": [],
      "name": "adoptionEventIdCounter",
      "outputs": [
        {
          "internalType": "uint256",
          "name": "",
          "type": "uint256"
        }
      ],
      "stateMutability": "view",
      "type": "function"
    },
    {
      "inputs": [
        {
          "internalType": "uint256",
          "name": "",
          "type": "uint256"
        }
      ],
      "name": "adoptionEvents",
      "outputs": [
        {
          "internalType": "uint256",
          "name": "id",
          "type": "uint256"
        },
        {
          "internalType": "uint256",
          "name": "petId",
          "type": "uint256"
        },
        {
          "internalType": "address",
          "name": "adopter",
          "type": "address"
        },
        {
          "internalType": "uint256",
          "name": "timestamp",
          "type": "uint256"
        },
        {
          "internalType": "string",
          "name": "notes",
          "type": "string"
        },
        {
          "internalType": "address",
          "name": "previousOwner",
          "type": "address"
        },
        {
          "internalType": "uint256",
          "name": "institutionId",
          "type": "uint256"
        }
      ],
      "stateMutability": "view",
      "type": "function"
    },
    {
      "inputs": [
        {
          "internalType": "uint256",
          "name": "_eventId",
          "type": "uint256"
        }
      ],
      "name": "getAdoptionEvent",
      "outputs": [
        {
          "components": [
            {
              "internalType": "uint256",
              "name": "id",
              "type": "uint256"
            },
            {
              "internalType": "uint256",
              "name": "petId",
              "type": "uint256"
            },
            {
              "internalType": "address",
              "name": "adopter",
              "type": "address"
            },
            {
              "internalType": "uint256",
              "name": "timestamp",
              "type": "uint256"
            },
            {
              "internalType": "string",
              "name": "notes",
              "type": "string"
            },
            {
              "internalType": "address",
              "name": "previousOwner",
              "type": "address"
            },
            {
              "internalType": "uint256",
              "name": "institutionId",
              "type": "uint256"
            }
          ],
          "internalType": "struct IMyPetBase.AdoptionEvent",
          "name": "",
          "type": "tuple"
        }
      ],
      "stateMutability": "view",
      "type": "function"
    },
    {
      "inputs": [],
      "name": "getAllPets",
      "outputs": [
        {
          "components": [
            {
              "internalType": "uint256",
              "name": "id",
              "type": "uint256"
            },
            {
              "internalType": "string",
              "name": "name",
              "type": "string"
            },
            {
              "internalType": "string",
              "name": "species",
              "type": "string"
            },
            {
              "internalType": "string",
              "name": "breed",
              "type": "string"
            },
            {
              "internalType": "string",
              "name": "gender",
              "type": "string"
            },
            {
              "internalType": "uint256",
              "name": "age",
              "type": "uint256"
            },
            {
              "internalType": "string",
              "name": "description",
              "type": "string"
            },
            {
              "internalType": "string",
              "name": "image",
              "type": "string"
            },
            {
              "internalType": "enum IMyPetBase.PetHealthStatus",
              "name": "healthStatus",
              "type": "uint8"
            },
            {
              "internalType": "enum IMyPetBase.PetAdoptionStatus",
              "name": "adoptionStatus",
              "type": "uint8"
            },
            {
              "internalType": "address",
              "name": "owner",
              "type": "address"
            },
            {
              "internalType": "uint256[]",
              "name": "medicalRecordIds",
              "type": "uint256[]"
            },
            {
              "internalType": "uint256",
              "name": "lastUpdatedAt",
              "type": "uint256"
            }
          ],
          "internalType": "struct IMyPetBase.Pet[]",
          "name": "",
          "type": "tuple[]"
        }
      ],
      "stateMutability": "view",
      "type": "function"
    },
    {
      "inputs": [],
      "name": "getAllRescueRequests",
      "outputs": [
        {
          "components": [
            {
              "internalType": "uint256",
              "name": "id",
              "type": "uint256"
            },
            {
              "internalType": "string",
              "name": "location",
              "type": "string"
            },
            {
              "internalType": "string",
              "name": "description",
              "type": "string"
            },
            {
              "internalType": "string",
              "name": "status",
              "type": "string"
            },
            {
              "internalType": "uint256",
              "name": "responderOrgId",
              "type": "uint256"
            },
            {
              "internalType": "uint256",
              "name": "timestamp",
              "type": "uint256"
            },
            {
              "internalType": "address",
              "name": "requester",
              "type": "address"
            },
            {
              "internalType": "string[]",
              "name": "images",
              "type": "string[]"
            },
            {
              "internalType": "uint256",
              "name": "urgencyLevel",
              "type": "uint256"
            }
          ],
          "internalType": "struct IMyPetBase.RescueRequest[]",
          "name": "",
          "type": "tuple[]"
        }
      ],
      "stateMutability": "view",
      "type": "function"
    },
    {
      "inputs": [
        {
          "internalType": "uint256",
          "name": "_eventId",
          "type": "uint256"
        }
      ],
      "name": "getMedicalEvent",
      "outputs": [
        {
          "components": [
            {
              "internalType": "uint256",
              "name": "id",
              "type": "uint256"
            },
            {
              "internalType": "uint256",
              "name": "petId",
              "type": "uint256"
            },
            {
              "internalType": "string",
              "name": "diagnosis",
              "type": "string"
            },
            {
              "internalType": "string",
              "name": "treatment",
              "type": "string"
            },
            {
              "internalType": "uint256",
              "name": "timestamp",
              "type": "uint256"
            },
            {
              "internalType": "uint256",
              "name": "hospital",
              "type": "uint256"
            },
            {
              "internalType": "address",
              "name": "doctor",
              "type": "address"
            },
            {
              "internalType": "uint256",
              "name": "cost",
              "type": "uint256"
            },
            {
              "internalType": "string[]",
              "name": "attachments",
              "type": "string[]"
            }
          ],
          "internalType": "struct IMyPetBase.MedicalEvent",
          "name": "",
          "type": "tuple"
        }
      ],
      "stateMutability": "view",
      "type": "function"
    },
    {
      "inputs": [
        {
          "internalType": "uint256",
          "name": "_petId",
          "type": "uint256"
        }
      ],
      "name": "getPetAdoptionHistory",
      "outputs": [
        {
          "components": [
            {
              "internalType": "uint256",
              "name": "id",
              "type": "uint256"
            },
            {
              "internalType": "uint256",
              "name": "petId",
              "type": "uint256"
            },
            {
              "internalType": "address",
              "name": "adopter",
              "type": "address"
            },
            {
              "internalType": "uint256",
              "name": "timestamp",
              "type": "uint256"
            },
            {
              "internalType": "string",
              "name": "notes",
              "type": "string"
            },
            {
              "internalType": "address",
              "name": "previousOwner",
              "type": "address"
            },
            {
              "internalType": "uint256",
              "name": "institutionId",
              "type": "uint256"
            }
          ],
          "internalType": "struct IMyPetBase.AdoptionEvent[]",
          "name": "",
          "type": "tuple[]"
        }
      ],
      "stateMutability": "view",
      "type": "function"
    },
    {
      "inputs": [
        {
          "internalType": "uint256",
          "name": "_petId",
          "type": "uint256"
        }
      ],
      "name": "getPetById",
      "outputs": [
        {
          "components": [
            {
              "internalType": "uint256",
              "name": "id",
              "type": "uint256"
            },
            {
              "internalType": "string",
              "name": "name",
              "type": "string"
            },
            {
              "internalType": "string",
              "name": "species",
              "type": "string"
            },
            {
              "internalType": "string",
              "name": "breed",
              "type": "string"
            },
            {
              "internalType": "string",
              "name": "gender",
              "type": "string"
            },
            {
              "internalType": "uint256",
              "name": "age",
              "type": "uint256"
            },
            {
              "internalType": "string",
              "name": "description",
              "type": "string"
            },
            {
              "internalType": "string",
              "name": "image",
              "type": "string"
            },
            {
              "internalType": "enum IMyPetBase.PetHealthStatus",
              "name": "healthStatus",
              "type": "uint8"
            },
            {
              "internalType": "enum IMyPetBase.PetAdoptionStatus",
              "name": "adoptionStatus",
              "type": "uint8"
            },
            {
              "internalType": "address",
              "name": "owner",
              "type": "address"
            },
            {
              "internalType": "uint256[]",
              "name": "medicalRecordIds",
              "type": "uint256[]"
            },
            {
              "internalType": "uint256",
              "name": "lastUpdatedAt",
              "type": "uint256"
            }
          ],
          "internalType": "struct IMyPetBase.Pet",
          "name": "",
          "type": "tuple"
        }
      ],
      "stateMutability": "view",
      "type": "function"
    },
    {
      "inputs": [
        {
          "internalType": "uint256",
          "name": "_petId",
          "type": "uint256"
        }
      ],
      "name": "getPetMedicalHistory",
      "outputs": [
        {
          "components": [
            {
              "internalType": "uint256",
              "name": "id",
              "type": "uint256"
            },
            {
              "internalType": "uint256",
              "name": "petId",
              "type": "uint256"
            },
            {
              "internalType": "string",
              "name": "diagnosis",
              "type": "string"
            },
            {
              "internalType": "string",
              "name": "treatment",
              "type": "string"
            },
            {
              "internalType": "uint256",
              "name": "timestamp",
              "type": "uint256"
            },
            {
              "internalType": "uint256",
              "name": "hospital",
              "type": "uint256"
            },
            {
              "internalType": "address",
              "name": "doctor",
              "type": "address"
            },
            {
              "internalType": "uint256",
              "name": "cost",
              "type": "uint256"
            },
            {
              "internalType": "string[]",
              "name": "attachments",
              "type": "string[]"
            }
          ],
          "internalType": "struct IMyPetBase.MedicalEvent[]",
          "name": "",
          "type": "tuple[]"
        }
      ],
      "stateMutability": "view",
      "type": "function"
    },
    {
      "inputs": [
        {
          "internalType": "enum IMyPetBase.PetAdoptionStatus",
          "name": "_status",
          "type": "uint8"
        }
      ],
      "name": "getPetsByAdoptionStatus",
      "outputs": [
        {
          "components": [
            {
              "internalType": "uint256",
              "name": "id",
              "type": "uint256"
            },
            {
              "internalType": "string",
              "name": "name",
              "type": "string"
            },
            {
              "internalType": "string",
              "name": "species",
              "type": "string"
            },
            {
              "internalType": "string",
              "name": "breed",
              "type": "string"
            },
            {
              "internalType": "string",
              "name": "gender",
              "type": "string"
            },
            {
              "internalType": "uint256",
              "name": "age",
              "type": "uint256"
            },
            {
              "internalType": "string",
              "name": "description",
              "type": "string"
            },
            {
              "internalType": "string",
              "name": "image",
              "type": "string"
            },
            {
              "internalType": "enum IMyPetBase.PetHealthStatus",
              "name": "healthStatus",
              "type": "uint8"
            },
            {
              "internalType": "enum IMyPetBase.PetAdoptionStatus",
              "name": "adoptionStatus",
              "type": "uint8"
            },
            {
              "internalType": "address",
              "name": "owner",
              "type": "address"
            },
            {
              "internalType": "uint256[]",
              "name": "medicalRecordIds",
              "type": "uint256[]"
            },
            {
              "internalType": "uint256",
              "name": "lastUpdatedAt",
              "type": "uint256"
            }
          ],
          "internalType": "struct IMyPetBase.Pet[]",
          "name": "",
          "type": "tuple[]"
        }
      ],
      "stateMutability": "view",
      "type": "function"
    },
    {
      "inputs": [
        {
          "internalType": "enum IMyPetBase.PetHealthStatus",
          "name": "_status",
          "type": "uint8"
        }
      ],
      "name": "getPetsByHealthStatus",
      "outputs": [
        {
          "components": [
            {
              "internalType": "uint256",
              "name": "id",
              "type": "uint256"
            },
            {
              "internalType": "string",
              "name": "name",
              "type": "string"
            },
            {
              "internalType": "string",
              "name": "species",
              "type": "string"
            },
            {
              "internalType": "string",
              "name": "breed",
              "type": "string"
            },
            {
              "internalType": "string",
              "name": "gender",
              "type": "string"
            },
            {
              "internalType": "uint256",
              "name": "age",
              "type": "uint256"
            },
            {
              "internalType": "string",
              "name": "description",
              "type": "string"
            },
            {
              "internalType": "string",
              "name": "image",
              "type": "string"
            },
            {
              "internalType": "enum IMyPetBase.PetHealthStatus",
              "name": "healthStatus",
              "type": "uint8"
            },
            {
              "internalType": "enum IMyPetBase.PetAdoptionStatus",
              "name": "adoptionStatus",
              "type": "uint8"
            },
            {
              "internalType": "address",
              "name": "owner",
              "type": "address"
            },
            {
              "internalType": "uint256[]",
              "name": "medicalRecordIds",
              "type": "uint256[]"
            },
            {
              "internalType": "uint256",
              "name": "lastUpdatedAt",
              "type": "uint256"
            }
          ],
          "internalType": "struct IMyPetBase.Pet[]",
          "name": "",
          "type": "tuple[]"
        }
      ],
      "stateMutability": "view",
      "type": "function"
    },
    {
      "inputs": [
        {
          "internalType": "uint256",
          "name": "_requestId",
          "type": "uint256"
        }
      ],
      "name": "getRescueRequest",
      "outputs": [
        {
          "components": [
            {
              "internalType": "uint256",
              "name": "id",
              "type": "uint256"
            },
            {
              "internalType": "string",
              "name": "location",
              "type": "string"
            },
            {
              "internalType": "string",
              "name": "description",
              "type": "string"
            },
            {
              "internalType": "string",
              "name": "status",
              "type": "string"
            },
            {
              "internalType": "uint256",
              "name": "responderOrgId",
              "type": "uint256"
            },
            {
              "internalType": "uint256",
              "name": "timestamp",
              "type": "uint256"
            },
            {
              "internalType": "address",
              "name": "requester",
              "type": "address"
            },
            {
              "internalType": "string[]",
              "name": "images",
              "type": "string[]"
            },
            {
              "internalType": "uint256",
              "name": "urgencyLevel",
              "type": "uint256"
            }
          ],
          "internalType": "struct IMyPetBase.RescueRequest",
          "name": "",
          "type": "tuple"
        }
      ],
      "stateMutability": "view",
      "type": "function"
    },
    {
      "inputs": [
        {
          "internalType": "address",
          "name": "_user",
          "type": "address"
        }
      ],
      "name": "getUserPets",
      "outputs": [
        {
          "components": [
            {
              "internalType": "uint256",
              "name": "id",
              "type": "uint256"
            },
            {
              "internalType": "string",
              "name": "name",
              "type": "string"
            },
            {
              "internalType": "string",
              "name": "species",
              "type": "string"
            },
            {
              "internalType": "string",
              "name": "breed",
              "type": "string"
            },
            {
              "internalType": "string",
              "name": "gender",
              "type": "string"
            },
            {
              "internalType": "uint256",
              "name": "age",
              "type": "uint256"
            },
            {
              "internalType": "string",
              "name": "description",
              "type": "string"
            },
            {
              "internalType": "string",
              "name": "image",
              "type": "string"
            },
            {
              "internalType": "enum IMyPetBase.PetHealthStatus",
              "name": "healthStatus",
              "type": "uint8"
            },
            {
              "internalType": "enum IMyPetBase.PetAdoptionStatus",
              "name": "adoptionStatus",
              "type": "uint8"
            },
            {
              "internalType": "address",
              "name": "owner",
              "type": "address"
            },
            {
              "internalType": "uint256[]",
              "name": "medicalRecordIds",
              "type": "uint256[]"
            },
            {
              "internalType": "uint256",
              "name": "lastUpdatedAt",
              "type": "uint256"
            }
          ],
          "internalType": "struct IMyPetBase.Pet[]",
          "name": "",
          "type": "tuple[]"
        }
      ],
      "stateMutability": "view",
      "type": "function"
    },
    {
      "inputs": [
        {
          "internalType": "address",
          "name": "_user",
          "type": "address"
        }
      ],
      "name": "getUserRescueRequests",
      "outputs": [
        {
          "components": [
            {
              "internalType": "uint256",
              "name": "id",
              "type": "uint256"
            },
            {
              "internalType": "string",
              "name": "location",
              "type": "string"
            },
            {
              "internalType": "string",
              "name": "description",
              "type": "string"
            },
            {
              "internalType": "string",
              "name": "status",
              "type": "string"
            },
            {
              "internalType": "uint256",
              "name": "responderOrgId",
              "type": "uint256"
            },
            {
              "internalType": "uint256",
              "name": "timestamp",
              "type": "uint256"
            },
            {
              "internalType": "address",
              "name": "requester",
              "type": "address"
            },
            {
              "internalType": "string[]",
              "name": "images",
              "type": "string[]"
            },
            {
              "internalType": "uint256",
              "name": "urgencyLevel",
              "type": "uint256"
            }
          ],
          "internalType": "struct IMyPetBase.RescueRequest[]",
          "name": "",
          "type": "tuple[]"
        }
      ],
      "stateMutability": "view",
      "type": "function"
    },
    {
      "inputs": [],
      "name": "hashCount",
      "outputs": [
        {
          "internalType": "uint256",
          "name": "",
          "type": "uint256"
        }
      ],
      "stateMutability": "view",
      "type": "function"
    },
    {
      "inputs": [],
      "name": "institutionManagerAddress",
      "outputs": [
        {
          "internalType": "address",
          "name": "",
          "type": "address"
        }
      ],
      "stateMutability": "view",
      "type": "function"
    },
    {
      "inputs": [],
      "name": "medicalEventIdCounter",
      "outputs": [
        {
          "internalType": "uint256",
          "name": "",
          "type": "uint256"
        }
      ],
      "stateMutability": "view",
      "type": "function"
    },
    {
      "inputs": [
        {
          "internalType": "uint256",
          "name": "",
          "type": "uint256"
        }
      ],
      "name": "medicalEvents",
      "outputs": [
        {
          "internalType": "uint256",
          "name": "id",
          "type": "uint256"
        },
        {
          "internalType": "uint256",
          "name": "petId",
          "type": "uint256"
        },
        {
          "internalType": "string",
          "name": "diagnosis",
          "type": "string"
        },
        {
          "internalType": "string",
          "name": "treatment",
          "type": "string"
        },
        {
          "internalType": "uint256",
          "name": "timestamp",
          "type": "uint256"
        },
        {
          "internalType": "uint256",
          "name": "hospital",
          "type": "uint256"
        },
        {
          "internalType": "address",
          "name": "doctor",
          "type": "address"
        },
        {
          "internalType": "uint256",
          "name": "cost",
          "type": "uint256"
        }
      ],
      "stateMutability": "view",
      "type": "function"
    },
    {
      "inputs": [],
      "name": "petIdCounter",
      "outputs": [
        {
          "internalType": "uint256",
          "name": "",
          "type": "uint256"
        }
      ],
      "stateMutability": "view",
      "type": "function"
    },
    {
      "inputs": [
        {
          "internalType": "uint256",
          "name": "",
          "type": "uint256"
        }
      ],
      "name": "pets",
      "outputs": [
        {
          "internalType": "uint256",
          "name": "id",
          "type": "uint256"
        },
        {
          "internalType": "string",
          "name": "name",
          "type": "string"
        },
        {
          "internalType": "string",
          "name": "species",
          "type": "string"
        },
        {
          "internalType": "string",
          "name": "breed",
          "type": "string"
        },
        {
          "internalType": "string",
          "name": "gender",
          "type": "string"
        },
        {
          "internalType": "uint256",
          "name": "age",
          "type": "uint256"
        },
        {
          "internalType": "string",
          "name": "description",
          "type": "string"
        },
        {
          "internalType": "string",
          "name": "image",
          "type": "string"
        },
        {
          "internalType": "enum IMyPetBase.PetHealthStatus",
          "name": "healthStatus",
          "type": "uint8"
        },
        {
          "internalType": "enum IMyPetBase.PetAdoptionStatus",
          "name": "adoptionStatus",
          "type": "uint8"
        },
        {
          "internalType": "address",
          "name": "owner",
          "type": "address"
        },
        {
          "internalType": "uint256",
          "name": "lastUpdatedAt",
          "type": "uint256"
        }
      ],
      "stateMutability": "view",
      "type": "function"
    },
    {
      "inputs": [
        {
          "internalType": "uint256",
          "name": "_petId",
          "type": "uint256"
        }
      ],
      "name": "removePet",
      "outputs": [],
      "stateMutability": "nonpayable",
      "type": "function"
    },
    {
      "inputs": [],
      "name": "rescueRequestIdCounter",
      "outputs": [
        {
          "internalType": "uint256",
          "name": "",
          "type": "uint256"
        }
      ],
      "stateMutability": "view",
      "type": "function"
    },
    {
      "inputs": [
        {
          "internalType": "uint256",
          "name": "",
          "type": "uint256"
        }
      ],
      "name": "rescueRequests",
      "outputs": [
        {
          "internalType": "uint256",
          "name": "id",
          "type": "uint256"
        },
        {
          "internalType": "string",
          "name": "location",
          "type": "string"
        },
        {
          "internalType": "string",
          "name": "description",
          "type": "string"
        },
        {
          "internalType": "string",
          "name": "status",
          "type": "string"
        },
        {
          "internalType": "uint256",
          "name": "responderOrgId",
          "type": "uint256"
        },
        {
          "internalType": "uint256",
          "name": "timestamp",
          "type": "uint256"
        },
        {
          "internalType": "address",
          "name": "requester",
          "type": "address"
        },
        {
          "internalType": "uint256",
          "name": "urgencyLevel",
          "type": "uint256"
        }
      ],
      "stateMutability": "view",
      "type": "function"
    },
    {
      "inputs": [
        {
          "internalType": "string",
          "name": "_hash",
          "type": "string"
        }
      ],
      "name": "storeTransactionHash",
      "outputs": [],
      "stateMutability": "nonpayable",
      "type": "function"
    },
    {
      "inputs": [
        {
          "internalType": "uint256",
          "name": "",
          "type": "uint256"
        }
      ],
      "name": "transactionHashes",
      "outputs": [
        {
          "internalType": "string",
          "name": "",
          "type": "string"
        }
      ],
      "stateMutability": "view",
      "type": "function"
    },
    {
      "inputs": [
        {
          "internalType": "uint256",
          "name": "_petId",
          "type": "uint256"
        },
        {
          "internalType": "string",
          "name": "_name",
          "type": "string"
        },
        {
          "internalType": "string",
          "name": "_species",
          "type": "string"
        },
        {
          "internalType": "string",
          "name": "_breed",
          "type": "string"
        },
        {
          "internalType": "string",
          "name": "_gender",
          "type": "string"
        },
        {
          "internalType": "uint256",
          "name": "_age",
          "type": "uint256"
        },
        {
          "internalType": "string",
          "name": "_description",
          "type": "string"
        },
        {
          "internalType": "string",
          "name": "_image",
          "type": "string"
        },
        {
          "internalType": "enum IMyPetBase.PetHealthStatus",
          "name": "_healthStatus",
          "type": "uint8"
        },
        {
          "internalType": "enum IMyPetBase.PetAdoptionStatus",
          "name": "_adoptionStatus",
          "type": "uint8"
        }
      ],
      "name": "updatePet",
      "outputs": [],
      "stateMutability": "nonpayable",
      "type": "function"
    },
    {
      "inputs": [
        {
          "internalType": "uint256",
          "name": "_petId",
          "type": "uint256"
        },
        {
          "internalType": "enum IMyPetBase.PetAdoptionStatus",
          "name": "_adoptionStatus",
          "type": "uint8"
        }
      ],
      "name": "updatePetAdoptionStatus",
      "outputs": [],
      "stateMutability": "nonpayable",
      "type": "function"
    },
    {
      "inputs": [
        {
          "internalType": "uint256",
          "name": "_petId",
          "type": "uint256"
        },
        {
          "internalType": "enum IMyPetBase.PetHealthStatus",
          "name": "_healthStatus",
          "type": "uint8"
        }
      ],
      "name": "updatePetHealthStatus",
      "outputs": [],
      "stateMutability": "nonpayable",
      "type": "function"
    },
    {
      "inputs": [
        {
          "internalType": "uint256",
          "name": "_requestId",
          "type": "uint256"
        },
        {
          "internalType": "string",
          "name": "_status",
          "type": "string"
        },
        {
          "internalType": "uint256",
          "name": "_responderOrgId",
          "type": "uint256"
        }
      ],
      "name": "updateRescueRequestStatus",
      "outputs": [],
      "stateMutability": "nonpayable",
      "type": "function"
    },
    {
      "inputs": [],
      "name": "userManagerAddress",
      "outputs": [
        {
          "internalType": "address",
          "name": "",
          "type": "address"
        }
      ],
      "stateMutability": "view",
      "type": "function"
    }
  ],
  "bytecode": "0x60c0346200017c57601f620053db38819003918201601f19168301916001600160401b03831184841017620001815780849260409485528339810103126200017c576200005a6020620000528362000197565b920162000197565b600180805560058190556006819055600755906001600160a01b03808216156200013757821615620000e65760805260a05260405161522e9081620001ad8239608051818181610406015281816123de01528181613440015281816136fb0152613aa2015260a05181818161083f01528181610aaa0152818161368401528181613d2b0152613ffd0152f35b60405162461bcd60e51b815260206004820152602360248201527f496e76616c696420696e737469747574696f6e206d616e61676572206164647260448201526265737360e81b6064820152608490fd5b60405162461bcd60e51b815260206004820152601c60248201527f496e76616c69642075736572206d616e616765722061646472657373000000006044820152606490fd5b600080fd5b634e487b7160e01b600052604160045260246000fd5b51906001600160a01b03821682036200017c5756fe608080604052600436101561001357600080fd5b600090813560e01c9081630262df231461427d575080630c0e88df14613f9b57806311eedb6114613ea45780631c1c28f414613cc1578063213dafcd14613c8257806332e414bf14613bf65780634691085614613b5e5780634a95525d14613ad15780634d1def2c14613a8c57806350c688b3146139c557806359f95c25146139a75780635b236d97146136d15780635bebd9d7146136b35780635c828f371461366e5780638480f69e146136035780638ccdb9e5146135145780638e5e7d67146133a2578063926c9bcf14613222578063a50a6eb014612bb0578063a5e2252f14612a74578063a9dae805146128df578063b0e29ab714611f14578063b6ce010c14611774578063ba8cd53214611658578063bf2fbcae146115a6578063cb92050914611535578063cfb869bf146113ee578063d0c2dc06146112bb578063e737963b14610a03578063ed0f162f146107d5578063eda95cb7146107b7578063f29bc9de146106ed578063f664d942146106cf5763feed30131461019757600080fd5b346106cc5760803660031901126106cc576024356001600160a01b03811690036106c7576044356001600160401b0381116104e8576101da90369060040161433b565b6004351515806106ba575b6101ee90614ac9565b60043560001981019081116106a657610206906149f0565b5060018060a01b03600882015460101c16906005549261022584614a3e565b600555604051610234816142e4565b848152602081019160043583526040820160018060a01b036024351681526060830190428252608084019283528660a085015260643560c0850152600254600160401b8110156106925780600161028e9201600255614797565b95909561067e5784518655516001860155516002850180546001600160a01b0319166001600160a01b03929092169190911790555160038401555180516001600160401b03811161066a5760048401916102e88354614568565b601f811161062f575b50602090601f83116001146105c557918060c09492600696948c926105ba575b50508160011b916000199060031b1c19161790555b60a08101516005850180546001600160a01b0319166001600160a01b039283161790559101519190920155600882018054601090811c9092168652600a6020908152604080882060043589529091528620805460ff19908116909155815462010000600160b01b03191660243590931b62010000600160b01b03169290921790559060088101805461ff00191661010017905542600a91820155602480356001600160a01b03908116875260209283526040808820600480358a5290855281892080549096166001179095555163eac50f6b60e01b8082529481018690527f00000000000000000000000000000000000000000000000000000000000000009091169487939092829081885afa9081156104ec57839161059b575b50610535575b5050604051908152602480356001600160a01b03166004830152602090829081855afa90811561052a5784916104fb575b50610489575b602082604051908152f35b803b156104f75760405163f265841360e01b8152602480356001600160a01b031660048084019190915235908201529083908290818381604481015b03925af180156104ec571561047e576104de8391614299565b6104e8578161047e565b5080fd5b6040513d85823e3d90fd5b8280fd5b61051d915060203d602011610523575b61051581836142ff565b810190614ab1565b38610478565b503d61050b565b6040513d86823e3d90fd5b833b156104e857604051630a86fdff60e01b81526001600160a01b0391909116600480830191909152356024820152818160448183885af1801561059057156104475761058190614299565b61058c578338610447565b8380fd5b6040513d84823e3d90fd5b6105b4915060203d6020116105235761051581836142ff565b38610441565b015190503880610311565b838a5260208a209190601f1984168b5b81811061061757509260019285926006989660c09896106105fe575b505050811b019055610326565b015160001960f88460031b161c191690553880806105f1565b929360206001819287860151815501950193016105d5565b61065a90848b5260208b20601f850160051c81019160208610610660575b601f0160051c0190614a63565b386102f1565b909150819061064d565b634e487b7160e01b88526041600452602488fd5b634e487b7160e01b8a5260048a905260248afd5b634e487b7160e01b8a52604160045260248afd5b634e487b7160e01b83526011600452602483fd5b50600154600435106101e5565b600080fd5b80fd5b50346106cc57806003193601126106cc576020600554604051908152f35b50346106cc5760203660031901126106cc576004359061070b614fc6565b50811515806107ac575b156107675760001982019182116107535761074f61073b61073584614823565b5061505f565b60405191829160208352602083019061485e565b0390f35b634e487b7160e01b81526011600452602490fd5b60405162461bcd60e51b815260206004820152601c60248201527f4d65646963616c206576656e7420646f6573206e6f74206578697374000000006044820152606490fd5b506006548210610715565b50346106cc57806003193601126106cc576020600754604051908152f35b50346106cc5760403660031901126106cc5760248035600480359082101561058c57801515806109f8575b61080990614ac9565b60001981019081116109e55761081e906149f0565b5060405163584fab0f60e01b815233600482015290926001600160a01b03917f000000000000000000000000000000000000000000000000000000000000000083166020828481845afa9182156109da5787926109a7575b5086809280610925575b50505060088501923390845460101c161490811561091d575b50156108b35750906108aa91614a7a565b600a4291015580f35b60849060396040519162461bcd60e51b8352602060048401528201527f4f6e6c7920706574206f776e6572206f7220686f73706974616c20737461666660448201527f2063616e20757064617465206865616c746820737461747573000000000000006064820152fd5b905038610899565b909192508360405180948193630418ed2160e21b835260048301525afa801561099c57604091879161097a575b50015160038110156109675715388681610880565b50634e487b7160e01b8552602160045284fd5b61099691503d8089833e61098e81836142ff565b810190614ba0565b38610952565b6040513d88823e3d90fd5b9091506020813d82116109d2575b816109c2602093836142ff565b810103126106c757519038610876565b3d91506109b5565b6040513d89823e3d90fd5b634e487b7160e01b845260116004528284fd5b506001548110610800565b50346106cc5760a03660031901126106cc576024356001600160401b0381116104e857610a3490369060040161433b565b6044356001600160401b0381116104f757610a5390369060040161433b565b906084356001600160401b03811161058c57610a739036906004016148fd565b6004351515806112ae575b610a8790614ac9565b815115611269578251156112245760405163584fab0f60e01b81523360048201527f00000000000000000000000000000000000000000000000000000000000000006001600160a01b03169085602082602481865afa9182156112175781926111e2575b508192610afb6024931515614f62565b60405192838092630418ed2160e21b82528660048301525afa801561099c5760409187916111c8575b50015160038110156111b4576111605760065493610b4185614a3e565b60065560405193610b51856142ac565b85855260043560208601526040850152606084015242608084015260a08301523360c083015260643560e0830152610100820152600354600160401b81101561114c57806001610ba49201600355614823565b91909161113857805182556020810151600183015560408101518051906001600160401b038211611077578190610bde6002860154614568565b601f8111611105575b50602090601f831160011461109657879261108b575b50508160011b916000199060031b1c19161760028301555b60608101518051906001600160401b03821161107757610c386003850154614568565b601f8111611044575b50602090601f8311600114610fd357610100939291879183610fc8575b50508160011b916000199060031b1c19161760038401555b6080810151600484015560a081015160058401556006830160018060a01b0360c0830151166bffffffffffffffffffffffff60a01b82541617905560e08101516007840155015190815191600160401b8311610fb4576008820154836008840155808410610f3c575b50602060089101910184526020842084915b838310610e2d57858560043560001981019081116106a657610d12906149f0565b50600981019283549060018201808311610e1957610d48610d32826148e6565b91610d4060405193846142ff565b8083526148e6565b602082019190601f1901368337825b848110610df6575085610d6a8583614d8f565b5251926001600160401b038411610de257600160401b8411610de257838755808410610dc7575b5094815260208120905b828110610db35742600a850155604051858152602090f35b600190602087519701968184015501610d9b565b86835260208320610ddc918101908501614a63565b86610d91565b634e487b7160e01b83526041600452602483fd5b610e149088855280602086200154610e0e8285614d8f565b52614a3e565b610d57565b634e487b7160e01b82526011600452602482fd5b80518051906001600160401b03821161066a57610e4a8454614568565b601f8111610f0c575b50602090601f8311600114610e9f5792826001949360209386958c92610e94575b5050600019600383901b1c191690841b1785555b01920192019190610cf1565b015190503880610e74565b908489526020892091895b601f1985168110610ef4575083602093600196938796938794601f19811610610edb575b505050811b018555610e88565b015160001960f88460031b161c19169055388080610ece565b91926020600181928685015181550194019201610eaa565b610f3690858a5260208a20601f850160051c8101916020861061066057601f0160051c0190614a63565b38610e53565b60088301865260208620908482015b8183018110610f5b575050610cdf565b8088610f6960019354614568565b80610f77575b505001610f4b565b601f81118414610f8f575050600081555b8838610f6f565b828252610faa601f60208420920160051c8201858301614a63565b6000835555610f88565b634e487b7160e01b85526041600452602485fd5b015190503880610c5e565b906003850187526020872091875b601f198516811061102c57509183916001936101009695601f19811610611013575b505050811b016003840155610c76565b015160001960f88460031b161c19169055388080611003565b91926020600181928685015181550194019201610fe1565b6110719060038601885260208820601f850160051c8101916020861061066057601f0160051c0190614a63565b38610c41565b634e487b7160e01b86526041600452602486fd5b015190503880610bfd565b9250600285018752602087209087935b601f19841685106110ea576001945083601f198116106110d1575b505050811b016002830155610c15565b015160001960f88460031b161c191690553880806110c1565b818101518355602094850194600190930192909101906110a6565b6111329060028701895260208920601f850160051c8101916020861061066057601f0160051c0190614a63565b38610be7565b634e487b7160e01b84526004849052602484fd5b634e487b7160e01b84526041600452602484fd5b60405162461bcd60e51b815260206004820152602660248201527f43616c6c6572277320696e737469747574696f6e206973206e6f74206120686f6044820152651cdc1a5d185b60d21b6064820152608490fd5b634e487b7160e01b86526021600452602486fd5b6111dc91503d8089833e61098e81836142ff565b38610b24565b9150506020813d60201161120f575b816111fe602093836142ff565b810103126106c75751856024610aeb565b3d91506111f1565b50604051903d90823e3d90fd5b60405162461bcd60e51b815260206004820152601960248201527f54726561746d656e742063616e6e6f7420626520656d707479000000000000006044820152606490fd5b60405162461bcd60e51b815260206004820152601960248201527f446961676e6f7369732063616e6e6f7420626520656d707479000000000000006044820152606490fd5b5060015460043510610a7e565b50346106cc576020806003193601126104e8576112d66149da565b6004549183916001600160a01b0390811691835b8581106113b457506112fb866148e6565b9561130960405197886142ff565b808752611318601f19916148e6565b01845b81811061139e57505050825b84811061133c576040518061074f8882614735565b82826006611349846147e8565b5001541614611361575b61135c90614a3e565b611327565b9261139661135c9161137b611375876147e8565b5061516e565b611385828a614d8f565b526113908189614d8f565b50614a3e565b939050611353565b82906113a8615127565b82828b0101520161131b565b838360066113c1846147e8565b50015416146113d9575b6113d490614a3e565b6112ea565b956113e66113d491614a3e565b9690506113cb565b50346106cc5760203660031901126106cc5760043581548110156104e857611415906149f0565b508054611424600183016145a2565b91611431600282016145a2565b61143d600383016145a2565b9161144a600482016145a2565b9060058101546006820161145d906145a2565b611469600784016145a2565b9160088401549460ff8616978660081c60ff1695600a0154976040519b8c9b8c528b6101806020819201528c0161149f916143a5565b8b810360408d01526114b0916143a5565b8a810360608c01526114c1916143a5565b89810360808b01526114d2916143a5565b9060a089015287810360c08901526114e9916143a5565b86810360e08801526114fa916143a5565b93611504816143ca565b610100860152611513816143ca565b61012085015260101c6001600160a01b03166101408401526101608301520390f35b50346106cc5760203660031901126106cc5760043590611553614cde565b508115158061159b575b61156690614ac9565b60001982019182116107535761074f611587611581846149f0565b50614da3565b6040519182916020835260208301906143ea565b50600154821061155d565b50346106cc5760203660031901126106cc57600435906115c4614ec8565b508115158061164d575b156116085760001982019182116107535761074f6115f46115ee84614797565b50614f01565b60405191829160208352602083019061497d565b60405162461bcd60e51b815260206004820152601d60248201527f41646f7074696f6e206576656e7420646f6573206e6f742065786973740000006044820152606490fd5b5060055482106115ce565b50346106cc5760203660031901126106cc576116726149da565b600180546001600160a01b0392831692909184905b838110611717575061169890614d3f565b92849060015b8481106116b3576040518061074f8882614506565b600019810181811161170357828560086116cc846149f0565b50015460101c16146116e8575b506116e390614a3e565b61169e565b6116e3919361137b6115816116fc936149f0565b92906116d9565b634e487b7160e01b88526011600452602488fd5b60001981018181116117605783600861173088936149f0565b50015460101c161461174b575b61174690614a3e565b611687565b9061175861174691614a3e565b91905061173d565b634e487b7160e01b87526011600452602487fd5b50346106cc576101403660031901126106cc576004356024356001600160401b0381116104f7576117a990369060040161433b565b916044356001600160401b0381116104e8576117c990369060040161433b565b926064356001600160401b0381116104f7576117e990369060040161433b565b6084356001600160401b03811161058c5761180890369060040161433b565b9060c4356001600160401b038111611f105761182890369060040161433b565b9560e4356001600160401b038111611f0c5761184890369060040161433b565b956004610104351015611f0c576004610124351015611f0c5780151580611f01575b61187390614ac9565b6000198101908111611eed57806118aa61188f6118af936149f0565b50600801543360109190911c6001600160a01b031614614b0a565b6149f0565b50938051906001600160401b038211611ed95781906118d16001880154614568565b601f8111611ea6575b50602090601f8311600114611e38578892611e2d575b50508160011b916000199060031b1c19161760018501555b8051906001600160401b0382116110775781906119286002870154614568565b601f8111611dfa575b50602090601f8311600114611d8c578792611d81575b50508160011b916000199060031b1c19161760028401555b8051906001600160401b038211610fb457819061197f6003860154614568565b601f8111611d4e575b50602090601f8311600114611ce0578692611cd5575b50508160011b916000199060031b1c19161760038301555b8051906001600160401b03821161114c5781906119d66004850154614568565b601f8111611ca2575b50602090601f8311600114611c34578592611c29575b50508160011b916000199060031b1c19161760048201555b60a435600582015583516001600160401b038111610de257611a326006830154614568565b601f8111611bf6575b506020601f8211600114611b8b5783949582939492611b80575b50508160011b916000199060031b1c19161760068201555b6007810183516001600160401b03811161114c57611a8b8254614568565b601f8111611b50575b50602094601f8211600114611aee579484958293949592611ae3575b50508160011b916000199060031b1c19161790555b6108aa60088201611ad96101043582614a7a565b6101243590614a92565b015190503880611ab0565b601f1982169583865280862091865b888110611b3857508360019596979810611b1f575b505050811b019055611ac5565b015160001960f88460031b161c19169055388080611b12565b91926020600181928685015181550194019201611afd565b611b7a9083865260208620601f840160051c8101916020851061066057601f0160051c0190614a63565b38611a94565b015190503880611a55565b60068301845280842090845b601f1984168110611bde575060019394959683601f19811610611bc5575b505050811b016006820155611a6d565b015160001960f88460031b161c19169055388080611bb5565b9091602060018192858b015181550193019101611b97565b611c239060068401855260208520601f840160051c8101916020851061066057601f0160051c0190614a63565b38611a3b565b0151905038806119f5565b92506004840185528085209085935b601f1984168510611c87576001945083601f19811610611c6e575b505050811b016004820155611a0d565b015160001960f88460031b161c19169055388080611c5e565b81810151835560209485019460019093019290910190611c43565b611ccf9060048601875260208720601f850160051c8101916020861061066057601f0160051c0190614a63565b386119df565b01519050388061199e565b92506003850186528086209086935b601f1984168510611d33576001945083601f19811610611d1a575b505050811b0160038301556119b6565b015160001960f88460031b161c19169055388080611d0a565b81810151835560209485019460019093019290910190611cef565b611d7b9060038701885260208820601f850160051c8101916020861061066057601f0160051c0190614a63565b38611988565b015190503880611947565b92506002860187528087209087935b601f1984168510611ddf576001945083601f19811610611dc6575b505050811b01600284015561195f565b015160001960f88460031b161c19169055388080611db6565b81810151835560209485019460019093019290910190611d9b565b611e279060028801895260208920601f850160051c8101916020861061066057601f0160051c0190614a63565b38611931565b0151905038806118f0565b92506001870188528088209088935b601f1984168510611e8b576001945083601f19811610611e72575b505050811b016001850155611908565b015160001960f88460031b161c19169055388080611e62565b81810151835560209485019460019093019290910190611e47565b611ed390600189018a5260208a20601f850160051c8101916020861061066057601f0160051c0190614a63565b386118da565b634e487b7160e01b87526041600452602487fd5b634e487b7160e01b86526011600452602486fd5b50600154811061186a565b8580fd5b8480fd5b50346106cc576101203660031901126106cc576004356001600160401b0381116104e857611f4690369060040161433b565b6024356001600160401b0381116104f757611f6590369060040161433b565b906044356001600160401b03811161058c57611f8590369060040161433b565b916064356001600160401b038111611f1057611fa590369060040161433b565b60a4356001600160401b038111611f0c57611fc490369060040161433b565b60c4356001600160401b0381116128db57611fe390369060040161433b565b91600460e43510156128db5760046101043510156128db576001549561200887614a3e565b600155604051948560208101106001600160401b036020880111176128c557602086016040528886526040519661203e886142c8565b888852602088015260408701526060860152608085015260843560a085015260c084015260e083015261207260e4356143ca565b60e435610100830152612087610104356143ca565b6101043561012083015233610140830152610160820152426101808201528254600160401b81101561114c578060016120c2920185556149f0565b611138578151815560208201518051906001600160401b0382116110775781906120ef6001850154614568565b601f8111612892575b50602090601f8311600114612823578792612818575b50508160011b916000199060031b1c19161760018201555b60408201518051906001600160401b03821161107757819061214b6002850154614568565b601f81116127e5575b50602090601f831160011461277657879261276b575b50508160011b916000199060031b1c19161760028201555b60608201518051906001600160401b0382116110775781906121a76003850154614568565b601f8111612738575b50602090601f83116001146126c95787926126be575b50508160011b916000199060031b1c19161760038201555b60808201518051906001600160401b0382116110775781906122036004850154614568565b601f811161268b575b50602090601f831160011461261c578792612611575b50508160011b916000199060031b1c19161760048201555b60a0820151600582015560c08201518051906001600160401b0382116110775781906122696006850154614568565b601f81116125de575b50602090601f831160011461256f578792612564575b50508160011b916000199060031b1c19161760068201555b60e08201518051906001600160401b0382116110775781906122c56007850154614568565b601f8111612531575b50602090601f83116001146124c25787926124b7575b50508160011b916000199060031b1c19161760078201555b6008810191612319610100820151612313816143ca565b84614a7a565b61233161012082015161232b816143ca565b84614a92565b610140810151835462010000600160b01b03191660109190911b62010000600160b01b0316179092556001600160a01b039160098201610160820151908151916001600160401b03831161066a57600160401b831161066a57602090825484845580851061249d575b500190875260208720875b8381106124895750505050610180600a910151910155338352600a6020526040832082845260205260408320600160ff198254161790557f00000000000000000000000000000000000000000000000000000000000000001660405163eac50f6b60e01b8152336004820152602081602481855afa90811561052a57849161246a575b5061243857602082604051908152f35b803b156104f75760405163f265841360e01b8152336004820152602481018390529083908290818381604481016104c5565b612483915060203d6020116105235761051581836142ff565b38612428565b6001906020845194019381840155016123a5565b838a52828a206124b1918101908601614a63565b3861239a565b0151905038806122e4565b9250600784018752602087209087935b601f1984168510612516576001945083601f198116106124fd575b505050811b0160078201556122fc565b015160001960f88460031b161c191690553880806124ed565b818101518355602094850194600190930192909101906124d2565b61255e9060078601895260208920601f850160051c8101916020861061066057601f0160051c0190614a63565b386122ce565b015190503880612288565b9250600684018752602087209087935b601f19841685106125c3576001945083601f198116106125aa575b505050811b0160068201556122a0565b015160001960f88460031b161c1916905538808061259a565b8181015183556020948501946001909301929091019061257f565b61260b9060068601895260208920601f850160051c8101916020861061066057601f0160051c0190614a63565b38612272565b015190503880612222565b9250600484018752602087209087935b601f1984168510612670576001945083601f19811610612657575b505050811b01600482015561223a565b015160001960f88460031b161c19169055388080612647565b8181015183556020948501946001909301929091019061262c565b6126b89060048601895260208920601f850160051c8101916020861061066057601f0160051c0190614a63565b3861220c565b0151905038806121c6565b9250600384018752602087209087935b601f198416851061271d576001945083601f19811610612704575b505050811b0160038201556121de565b015160001960f88460031b161c191690553880806126f4565b818101518355602094850194600190930192909101906126d9565b6127659060038601895260208920601f850160051c8101916020861061066057601f0160051c0190614a63565b386121b0565b01519050388061216a565b9250600284018752602087209087935b601f19841685106127ca576001945083601f198116106127b1575b505050811b016002820155612182565b015160001960f88460031b161c191690553880806127a1565b81810151835560209485019460019093019290910190612786565b6128129060028601895260208920601f850160051c8101916020861061066057601f0160051c0190614a63565b38612154565b01519050388061210e565b9250600184018752602087209087935b601f1984168510612877576001945083601f1981161061285e575b505050811b016001820155612126565b015160001960f88460031b161c1916905538808061284e565b81810151835560209485019460019093019290910190612833565b6128bf9060018601895260208920601f850160051c8101916020861061066057601f0160051c0190614a63565b386120f8565b634e487b7160e01b600052604160045260246000fd5b8680fd5b50346106cc576020806003193601126104e85760043580151580612a69575b61290a90939293614ac9565b6002548291825b828110612a2b5750612922836148e6565b9261293060405194856142ff565b80845261293f601f19916148e6565b01845b818110612a105750508390845b8381106129b6575050505060405191838301848452825180915260408401948060408360051b870101940192955b82871061298a5785850386f35b9091929382806129a6600193603f198a8203018652885161497d565b960192019601959291909261297d565b8160016129c583999899614797565b500154146129df575b6129d790614a3e565b95949561294f565b91612a086129d7916129f36115ee86614797565b6129fd8289614d8f565b526113908188614d8f565b9290506129ce565b95809596612a1c614ec8565b82828801015201959495612942565b816001612a3a83989798614797565b50015414612a54575b612a4c90614a3e565b949394612911565b92612a61612a4c91614a3e565b939050612a43565b5060015481106128fe565b50346106cc57602090816003193601126106cc576001600160401b03916004358381116104f757612aa990369060040161433b565b926009548352600882526040832091845191821161114c57612acb8354614568565b601f8111612b82575b5080601f8311600114612b1e5750839482939492612b13575b50508160011b916000199060031b1c19161790555b612b0d600954614a3e565b60095580f35b015190503880612aed565b90601f198316958486528286209286905b888210612b6a57505083600195969710612b51575b505050811b019055612b02565b015160001960f88460031b161c19169055388080612b44565b80600185968294968601518155019501930190612b2f565b612baa90848652828620601f850160051c81019184861061066057601f0160051c0190614a63565b38612ad4565b50346106cc5760803660031901126106cc576004356001600160401b0381116104e857612be190369060040161433b565b906024356001600160401b0381116104e857612c0190369060040161433b565b916044356001600160401b0381116104f757612c219036906004016148fd565b9160075492612c2f84614a3e565b60075560405194612c3f866142ac565b848652602086019384526040860152604051604081018181106001600160401b038211176128c557604052600781526670656e64696e6760c81b602082015260608601528160808601524260a08601523360c086015260e0850152606435610100850152600454600160401b81101561320e57806001612cc292016004556147e8565b9290926131fa5784518355518051906001600160401b038211610de2578190612cee6001860154614568565b601f81116131c7575b50602090601f831160011461315857849261314d575b50508160011b916000199060031b1c19161760018301555b60408401518051906001600160401b038211610de2578190612d4a6002860154614568565b601f811161311a575b50602090601f83116001146130ab5784926130a0575b50508160011b916000199060031b1c19161760028301555b60608401518051906001600160401b038211610de2578190612da66003860154614568565b601f811161306d575b50602090601f8311600114612ffe578492612ff3575b50508160011b916000199060031b1c19161760038301555b6080840151600483015560a084015160058301556006820160018060a01b0360c0860151166bffffffffffffffffffffffff60a01b82541617905560e0840151805190600160401b8211610de2576007840154826007860155808310612f7b575b506020016007840183526020832083915b838310612e6c576101008801516008870155604051878152602090f35b80518051906001600160401b038211611ed957612e898454614568565b601f8111612f4b575b50602090601f8311600114612ede5792826001949360209386958b92612ed3575b5050600019600383901b1c191690841b1785555b01920192019190612e4f565b015190503880612eb3565b908488526020882091885b601f1985168110612f33575083602093600196938796938794601f19811610612f1a575b505050811b018555612ec7565b015160001960f88460031b161c19169055388080612f0d565b91926020600181928685015181550194019201612ee9565b612f759085895260208920601f850160051c8101916020861061066057601f0160051c0190614a63565b38612e92565b60078501845260208420908382015b8183018110612f9a575050612e3e565b8086612fa860019354614568565b80612fb6575b505001612f8a565b601f81118414612fce575050600081555b8638612fae565b828252612fe9601f60208420920160051c8201858301614a63565b6000835555612fc7565b015190503880612dc5565b9250600385018452602084209084935b601f1984168510613052576001945083601f19811610613039575b505050811b016003830155612ddd565b015160001960f88460031b161c19169055388080613029565b8181015183556020948501946001909301929091019061300e565b61309a9060038701865260208620601f850160051c8101916020861061066057601f0160051c0190614a63565b38612daf565b015190503880612d69565b9250600285018452602084209084935b601f19841685106130ff576001945083601f198116106130e6575b505050811b016002830155612d81565b015160001960f88460031b161c191690553880806130d6565b818101518355602094850194600190930192909101906130bb565b6131479060028701865260208620601f850160051c8101916020861061066057601f0160051c0190614a63565b38612d53565b015190503880612d0d565b9250600185018452602084209084935b601f19841685106131ac576001945083601f19811610613193575b505050811b016001830155612d25565b015160001960f88460031b161c19169055388080613183565b81810151835560209485019460019093019290910190613168565b6131f49060018701865260208620601f850160051c8101916020861061066057601f0160051c0190614a63565b38612cf7565b634e487b7160e01b82526004829052602482fd5b634e487b7160e01b82526041600452602482fd5b50346106cc576020806003193601126104e85760043580151580613397575b61324d90939293614ac9565b6003548291825b8281106133595750613265836148e6565b9261327360405194856142ff565b808452613282601f19916148e6565b01845b81811061333e5750508390845b8381106132f9575050505060405191838301848452825180915260408401948060408360051b870101940192955b8287106132cd5785850386f35b9091929382806132e9600193603f198a8203018652885161485e565b96019201960195929190926132c0565b81600161330883999899614823565b50015414613322575b61331a90614a3e565b959495613292565b9161333661331a916129f361073586614823565b929050613311565b9580959661334a614fc6565b82828801015201959495613285565b81600161336883989798614823565b50015414613382575b61337a90614a3e565b949394613254565b9261338f61337a91614a3e565b939050613371565b506001548110613241565b50346106cc57602090816003193601126106cc576004359182151580613509575b6133cc90614ac9565b6000198301928084116106a6576008613404856118aa6133ec87986149f0565b5060018060a01b03948591015460101c163314614b0a565b5060088101610300610100600160b01b0319825416179055600a42910155338452600a83526040842082855283526040842060ff1981541690557f0000000000000000000000000000000000000000000000000000000000000000169160405163eac50f6b60e01b81523360048201528181602481875afa9182156134fe5785926134e1575b5050613494575050f35b813b156134dd57604051630a86fdff60e01b8152336004820152602481019190915291908290604490829084905af18015610590576134d1575080f35b6134da90614299565b80f35b5050fd5b6134f79250803d106105235761051581836142ff565b388061348a565b6040513d87823e3d90fd5b5060015483106133c3565b50346106cc5760203660031901126106cc576004359060048210156106cc5780549080805b8381106135b6575061354a90614d3f565b92815b838110613562576040518061074f8782614506565b8160ff6008613570846149f0565b5001541661357d826143ca565b613586816143ca565b1461359a575b61359590614a3e565b61354d565b916135ae613595916129f3611581866149f0565b92905061358c565b8460ff60086135c4846149f0565b500154166135d1826143ca565b6135da816143ca565b146135ee575b6135e990614a3e565b613539565b906135fb6135e991614a3e565b9190506135e0565b50346106cc5760203660031901126106cc5760043590613621615127565b5081151580613663575b613634906150e2565b60001982019182116107535761074f61364f611375846147e8565b6040519182916020835260208301906146a4565b50600754821061362b565b50346106cc57806003193601126106cc576040517f00000000000000000000000000000000000000000000000000000000000000006001600160a01b03168152602090f35b50346106cc57806003193601126106cc576020600954604051908152f35b50346106cc57806003193601126106cc5760405163eac50f6b60e01b8152336004820152602091907f00000000000000000000000000000000000000000000000000000000000000006001600160a01b0316908381602481855afa9081156104ec57839161398a575b501561394f578160249160405192838092636386c1c760e01b82523360048301525afa90811561059057829161386e575b50613775816143ca565b801590811561385a575b50156137fe57908154613791816148e6565b9161379f60405193846142ff565b8183528380527f290decd9548b62a8d60345a988386fc84ba6bc95484008f6362f93160ef3e56393908084015b8383106137e1576040518061074f8782614506565b600b826001926137f089614da3565b8152019601920191946137cc565b60405162461bcd60e51b815260048101839052602e60248201527f4f6e6c792061646d696e206f7220686f73706974616c2073746166662063616e60448201526d207669657720616c6c207065747360901b6064820152608490fd5b60029150613867816143ca565b143861377f565b90503d8083833e61387f81836142ff565b8101610160828203126104f757838201516001600160401b0390818111611f1057826138ac918501614b4a565b506040830151818111611f1057826138c5918501614b4a565b506060830151818111611f1057826138de918501614b4a565b506138eb60808401614b8c565b50600260a0840151101561058c5760e0830151818111611f105782613911918501614b4a565b506003610100840151101561058c57610120830151926004841015611f1057610140810151918211611f1057613948929101614b4a565b503861376b565b60405162461bcd60e51b8152600481018490526013602482015272155cd95c881b9bdd081c9959da5cdd195c9959606a1b6044820152606490fd5b6139a19150843d86116105235761051581836142ff565b3861373a565b50346106cc57806003193601126106cc576020600154604051908152f35b50346106cc5760203660031901126106cc576004356004548110156104e8576139ed906147e8565b5080546139fc600183016145a2565b91613a09600282016145a2565b613a15600383016145a2565b91600481015492613a73600583015491613a65600860018060a01b0360068701541695015495613a576040519a8b9a8b526101008060208d01528b01906143a5565b9089820360408b01526143a5565b9087820360608901526143a5565b93608086015260a085015260c084015260e08301520390f35b50346106cc57806003193601126106cc576040517f00000000000000000000000000000000000000000000000000000000000000006001600160a01b03168152602090f35b50346106cc5760203660031901126106cc576004356003548110156104e857613af990614823565b508054600182015491613b0e600282016145a2565b613b1a600383016145a2565b91600481015492613a73600583015491613a65600760018060a01b0360068701541695015495604051998a998a5260208a01526101008060408b01528901906143a5565b50346106cc5760203660031901126106cc576004356002548110156104e857613b8690614797565b50805460018201549160018060a01b03613be7816002840154169160038401546006613bb4600487016145a2565b9260058701541695015493604051978897885260208801526040870152606086015260e0608086015260e08501906143a5565b9160a084015260c08301520390f35b50346106cc57806003193601126106cc57600454613c13816148e6565b90613c2160405192836142ff565b808252600483527f8a35acfbc15ff81a39ae7d344fd709f28e8600b4aa8c65c6b64bfe7fe36bd19b9260208084015b838310613c65576040518061074f8782614735565b600982600192613c748961516e565b815201960192019194613c50565b50346106cc5760203660031901126106cc57613cad604061074f9260043581526008602052206145a2565b6040519182916020835260208301906143a5565b50346106cc5760403660031901126106cc5760248035600480359082101561058c5780151580613e99575b613cf590614ac9565b60001981019081116109e557613d0a906149f0565b5060405163584fab0f60e01b815233600482015290926001600160a01b03917f000000000000000000000000000000000000000000000000000000000000000083166020828481845afa9182156109da578792613e66575b5086809280613e08575b50505060088501923390845460101c1614908115613e00575b5015613d965750906108aa91614a92565b608490603a6040519162461bcd60e51b8352602060048401528201527f4f6e6c7920706574206f776e6572206f72207368656c7465722073746166662060448201527f63616e207570646174652061646f7074696f6e207374617475730000000000006064820152fd5b905038613d85565b909192508360405180948193630418ed2160e21b835260048301525afa801561099c576040918791613e4c575b500151600381101561096757600114388681613d6c565b613e6091503d8089833e61098e81836142ff565b38613e35565b9091506020813d8211613e91575b81613e81602093836142ff565b810103126128db57519038613d62565b3d9150613e74565b506001548110613cec565b50346106cc5760203660031901126106cc576004359060048210156106cc5780549080805b838110613f4a5750613eda90614d3f565b92815b838110613ef2576040518061074f8782614506565b8160ff613efe836149f0565b50600880910154901c16613f11826143ca565b613f1a816143ca565b14613f2e575b613f2990614a3e565b613edd565b91613f42613f29916129f3611581866149f0565b929050613f20565b8460ff613f56836149f0565b50600880910154901c16613f69826143ca565b613f72816143ca565b14613f86575b613f8190614a3e565b613ec9565b90613f93613f8191614a3e565b919050613f78565b50346106cc5760603660031901126106cc576001600160401b0360246004358135838111611f1057613fd190369060040161433b565b9281151580614272575b613fe4906150e2565b60405163584fab0f60e01b8152336004820152602092907f00000000000000000000000000000000000000000000000000000000000000006001600160a01b031690879085818881865afa908115610590578291614245575b50614049811515614f62565b8660405180948193630418ed2160e21b835260048301525afa80156109da57604091889161422b575b5001519260038410156142185760018094036141b957600019918083019081116141a65761409f906147e8565b50956003870195815194851161419457506140ba8654614568565b601f8111614166575b5081601f8511600114614102575093839491849289956140f7575b50501b9260031b1c19161790555b600460443591015580f35b0151935038806140de565b92919084601f198116888b52858b20958b905b8983831061414c5750505010614134575b50505050811b0190556140ec565b01519060f88460031b161c1916905538808080614126565b858701518955909701969485019488935090810190614115565b61418e90878a52838a20601f870160051c81019185881061066057601f0160051c0190614a63565b386140c3565b634e487b7160e01b8952604160045288fd5b634e487b7160e01b885260116004528588fd5b6084906033866040519262461bcd60e51b845260048401528201527f4f6e6c79207368656c7465722073746166662063616e207570646174652072656044820152727363756520726571756573742073746174757360681b6064820152fd5b634e487b7160e01b875260216004528487fd5b61423f91503d808a833e61098e81836142ff565b38614072565b90508581813d831161426b575b61425c81836142ff565b810103126104e857513861403d565b503d614252565b506007548210613fdb565b9050346104e857816003193601126104e8576020906006548152f35b6001600160401b0381116128c557604052565b61012081019081106001600160401b038211176128c557604052565b6101a081019081106001600160401b038211176128c557604052565b60e081019081106001600160401b038211176128c557604052565b90601f801991011681019081106001600160401b038211176128c557604052565b6001600160401b0381116128c557601f01601f191660200190565b81601f820112156106c75780359061435282614320565b9261436060405194856142ff565b828452602083830101116106c757816000926020809301838601378301015290565b60005b8381106143955750506000910152565b8181015183820152602001614385565b906020916143be81518092818552858086019101614382565b601f01601f1916010190565b600411156143d457565b634e487b7160e01b600052602160045260246000fd5b908151815260209161447c61446a61444e61443c61442a614418888701516101a0808b8b01528901906143a5565b604087015188820360408a01526143a5565b606086015187820360608901526143a5565b608085015186820360808801526143a5565b60a084015160a086015260c084015185820360c08701526143a5565b60e083015184820360e08601526143a5565b92610100808301519061448e826143ca565b84015261012080830151906144a2826143ca565b840152610140828101516001600160a01b03169084015261016080830151848603918501919091528051808652948201949082019160005b8281106144f257505050506101808091015191015290565b8351875295810195928101926001016144da565b602080820190808352835180925260408301928160408460051b8301019501936000915b84831061453a5750505050505090565b9091929394958480614558600193603f198682030187528a516143ea565b980193019301919493929061452a565b90600182811c92168015614598575b602083101461458257565b634e487b7160e01b600052602260045260246000fd5b91607f1691614577565b90604051918260008254926145b684614568565b90818452600194858116908160001461462557506001146145e2575b50506145e0925003836142ff565b565b9093915060005260209081600020936000915b81831061460d5750506145e0935082010138806145d2565b855488840185015294850194879450918301916145f5565b9150506145e094506020925060ff191682840152151560051b82010138806145d2565b908082519081815260208091019281808460051b8301019501936000915b8483106146765750505050505090565b9091929394958480614694600193601f198682030187528a516143a5565b9801930193019194939290614666565b90815181526147276146ef6146dd6146cb60208601516101208060208801528601906143a5565b604086015185820360408701526143a5565b606085015184820360608601526143a5565b6080840151608084015260a084015160a084015260018060a01b0360c08501511660c084015260e084015183820360e0850152614648565b916101008091015191015290565b602080820190808352835180925260408301928160408460051b8301019501936000915b8483106147695750505050505090565b9091929394958480614787600193603f198682030187528a516146a4565b9801930193019194939290614759565b6002548110156147d2576007906002600052027f405787fa12a823e0f2b7631cc41b3ba8828b3321ca811111fa75cd3aa3bb5ace0190600090565b634e487b7160e01b600052603260045260246000fd5b6004548110156147d2576009906004600052027f8a35acfbc15ff81a39ae7d344fd709f28e8600b4aa8c65c6b64bfe7fe36bd19b0190600090565b6003548110156147d2576009906003600052027fc2575a0e9e593c00f959f8c92f12db2869c3395a3b0502d05e2516446f71f85b0190600090565b906148e391805182526020810151602083015261489f61488d60408301516101208060408701528501906143a5565b606083015184820360608601526143a5565b916080820151608082015260a082015160a082015260018060a01b0360c08301511660c082015260e082015160e08201526101008092015191818403910152614648565b90565b6001600160401b0381116128c55760051b60200190565b9080601f830112156106c757813590614915826148e6565b9261492360405194856142ff565b828452602092838086019160051b830101928084116106c757848301915b8483106149515750505050505090565b82356001600160401b0381116106c75786916149728484809489010161433b565b815201920191614941565b90815181526020820151602082015260c08060018060a01b0393846040820151166040850152606081015160608501526149c6608082015160e0608087015260e08601906143a5565b9460a08201511660a0850152015191015290565b600435906001600160a01b03821682036106c757565b906000918254811015614a2a57600b90838052027f290decd9548b62a8d60345a988386fc84ba6bc95484008f6362f93160ef3e563019190565b634e487b7160e01b83526032600452602483fd5b6000198114614a4d5760010190565b634e487b7160e01b600052601160045260246000fd5b818110614a6e575050565b60008155600101614a63565b90614a84816143ca565b60ff80198354169116179055565b90614a9c816143ca565b61ff0082549160081b169061ff001916179055565b908160209103126106c7575180151581036106c75790565b15614ad057565b60405162461bcd60e51b815260206004820152601260248201527114195d08191bd95cc81b9bdd08195e1a5cdd60721b6044820152606490fd5b15614b1157565b60405162461bcd60e51b81526020600482015260116024820152702737ba103a3432903832ba1037bbb732b960791b6044820152606490fd5b81601f820112156106c7578051614b6081614320565b92614b6e60405194856142ff565b818452602082840101116106c7576148e39160208085019101614382565b51906001600160a01b03821682036106c757565b60209182828203126106c75781516001600160401b03928382116106c75701916101009384848403126106c757604051948501858110838211176128c55760405283518552808401518281116106c75783614bfc918601614b4a565b81860152604084015160038110156106c7576040860152614c1f60608501614b8c565b606086015260808401518281116106c75784019083601f830112156106c757815191614c4a836148e6565b92614c5860405194856142ff565b808452828085019160051b830101918683116106c7578301905b828210614cc75750505050608085015260a083015160a085015260c08301518181116106c75782614ca4918501614b4a565b60c085015260e08301519081116106c757614cbf9201614b4a565b60e082015290565b838091614cd384614b8c565b815201910190614c72565b60405190614ceb826142c8565b81610180600091828152606080602083015280604083015280808301528060808301528360a08301528060c08301528060e08301528361010083015283610120830152836101408301526101608201520152565b90614d49826148e6565b614d5660405191826142ff565b8281528092614d67601f19916148e6565b019060005b828110614d7857505050565b602090614d83614cde565b82828501015201614d6c565b80518210156147d25760209160051b010190565b90604051614db0816142c8565b8092805482526001614dc38183016145a2565b60209081850152614dd6600284016145a2565b6040850152614de7600384016145a2565b6060850152614df8600484016145a2565b6080850152600583015460a0850152614e13600684016145a2565b60c0850152614e24600784016145a2565b60e0850152600883015460ff8116614e3b816143ca565b61010086015260ff8160081c16614e51816143ca565b61012086015260101c6001600160a01b031661014085015260405160098401805480835260009182528382209294858501949092905b828210614eb35750505050509181614ea6600a936101809503826142ff565b6101608501520154910152565b84548652948501949383019390830190614e87565b60405190614ed5826142e4565b8160c0600091828152826020820152826040820152826060820152606060808201528260a08201520152565b90604051614f0e816142e4565b60c060068294805484526001810154602085015260018060a01b0380600283015416604086015260038201546060860152614f4b600483016145a2565b608086015260058201541660a08501520154910152565b15614f6957565b60405162461bcd60e51b815260206004820152602f60248201527f43616c6c6572206973206e6f742061207374616666206d656d626572206f662060448201526e30b73c9034b739ba34ba3aba34b7b760891b6064820152608490fd5b60405190614fd3826142ac565b606061010083600080825280602083015283604083015283808301528060808301528060a08301528060c083015260e08201520152565b908154615016816148e6565b9261502460405194856142ff565b818452600090815260208082208186015b848410615043575050505050565b6001838192615051856145a2565b815201920193019290615035565b9060405161506c816142ac565b6101006150dd600883958054855260018101546020860152615090600282016145a2565b60408601526150a1600382016145a2565b606086015260048101546080860152600581015460a086015260068101546001600160a01b031660c0860152600781015460e08601520161500a565b910152565b156150e957565b60405162461bcd60e51b815260206004820152601660248201527514995c5d595cdd08191bd95cc81b9bdd08195e1a5cdd60521b6044820152606490fd5b60405190615134826142ac565b60006101008382815260606020820152606060408201526060808201528260808201528260a08201528260c0820152606060e08201520152565b9060405161517b816142ac565b6101006008829480548452615192600182016145a2565b60208501526151a3600282016145a2565b60408501526151b4600382016145a2565b606085015260048101546080850152600581015460a085015260068101546001600160a01b031660c08501526151ec6007820161500a565b60e0850152015491015256fea2646970667358221220e2a08b02c0c8f17198759dc79b72ecebb68e6287d5b051fa270ca1c19192754c64736f6c63430008130033",
  "linkReferences": {},
  "deployedLinkReferences": {}
}