{
  "_format": "hh-sol-artifact-1",
  "contractName": "PetManager",
  "sourceName": "contracts/PetManager.sol",
  "abi": [
    {
      "inputs": [
        {
          "internalType": "address",
          "name": "_userManagerAddress",
          "type": "address"
        },
        {
          "internalType": "address",
          "name": "_institutionManagerAddress",
          "type": "address"
        }
      ],
      "stateMutability": "nonpayable",
      "type": "constructor"
    },
    {
      "inputs": [
        {
          "internalType": "uint256",
          "name": "_petId",
          "type": "uint256"
        },
        {
          "internalType": "address",
          "name": "_adopter",
          "type": "address"
        },
        {
          "internalType": "string",
          "name": "_notes",
          "type": "string"
        }
      ],
      "name": "addAdoptionEvent",
      "outputs": [],
      "stateMutability": "nonpayable",
      "type": "function"
    },
    {
      "inputs": [
        {
          "internalType": "uint256",
          "name": "_petId",
          "type": "uint256"
        },
        {
          "internalType": "string",
          "name": "_diagnosis",
          "type": "string"
        },
        {
          "internalType": "string",
          "name": "_treatment",
          "type": "string"
        }
      ],
      "name": "addMedicalEvent",
      "outputs": [],
      "stateMutability": "nonpayable",
      "type": "function"
    },
    {
      "inputs": [
        {
          "internalType": "string",
          "name": "_name",
          "type": "string"
        },
        {
          "internalType": "string",
          "name": "_species",
          "type": "string"
        },
        {
          "internalType": "string",
          "name": "_breed",
          "type": "string"
        },
        {
          "internalType": "string",
          "name": "_gender",
          "type": "string"
        },
        {
          "internalType": "uint256",
          "name": "_age",
          "type": "uint256"
        },
        {
          "internalType": "string",
          "name": "_description",
          "type": "string"
        },
        {
          "internalType": "string",
          "name": "_image",
          "type": "string"
        }
      ],
      "name": "addPet",
      "outputs": [],
      "stateMutability": "nonpayable",
      "type": "function"
    },
    {
      "inputs": [
        {
          "internalType": "string",
          "name": "_location",
          "type": "string"
        },
        {
          "internalType": "string",
          "name": "_description",
          "type": "string"
        }
      ],
      "name": "addRescueRequest",
      "outputs": [
        {
          "internalType": "uint256",
          "name": "",
          "type": "uint256"
        }
      ],
      "stateMutability": "nonpayable",
      "type": "function"
    },
    {
      "inputs": [],
      "name": "adoptionEventIdCounter",
      "outputs": [
        {
          "internalType": "uint256",
          "name": "",
          "type": "uint256"
        }
      ],
      "stateMutability": "view",
      "type": "function"
    },
    {
      "inputs": [
        {
          "internalType": "uint256",
          "name": "",
          "type": "uint256"
        }
      ],
      "name": "adoptionEvents",
      "outputs": [
        {
          "internalType": "uint256",
          "name": "petId",
          "type": "uint256"
        },
        {
          "internalType": "address",
          "name": "adopter",
          "type": "address"
        },
        {
          "internalType": "uint256",
          "name": "timestamp",
          "type": "uint256"
        },
        {
          "internalType": "string",
          "name": "notes",
          "type": "string"
        }
      ],
      "stateMutability": "view",
      "type": "function"
    },
    {
      "inputs": [
        {
          "internalType": "string",
          "name": "_name",
          "type": "string"
        }
      ],
      "name": "findPetsByName",
      "outputs": [
        {
          "components": [
            {
              "internalType": "uint256",
              "name": "id",
              "type": "uint256"
            },
            {
              "internalType": "string",
              "name": "name",
              "type": "string"
            },
            {
              "internalType": "string",
              "name": "species",
              "type": "string"
            },
            {
              "internalType": "string",
              "name": "breed",
              "type": "string"
            },
            {
              "internalType": "string",
              "name": "gender",
              "type": "string"
            },
            {
              "internalType": "uint256",
              "name": "age",
              "type": "uint256"
            },
            {
              "internalType": "string",
              "name": "description",
              "type": "string"
            },
            {
              "internalType": "string",
              "name": "image",
              "type": "string"
            },
            {
              "internalType": "string",
              "name": "status",
              "type": "string"
            },
            {
              "internalType": "address",
              "name": "owner",
              "type": "address"
            }
          ],
          "internalType": "struct IMyPetBase.Pet[]",
          "name": "",
          "type": "tuple[]"
        }
      ],
      "stateMutability": "view",
      "type": "function"
    },
    {
      "inputs": [],
      "name": "getAllPets",
      "outputs": [
        {
          "components": [
            {
              "internalType": "uint256",
              "name": "id",
              "type": "uint256"
            },
            {
              "internalType": "string",
              "name": "name",
              "type": "string"
            },
            {
              "internalType": "string",
              "name": "species",
              "type": "string"
            },
            {
              "internalType": "string",
              "name": "breed",
              "type": "string"
            },
            {
              "internalType": "string",
              "name": "gender",
              "type": "string"
            },
            {
              "internalType": "uint256",
              "name": "age",
              "type": "uint256"
            },
            {
              "internalType": "string",
              "name": "description",
              "type": "string"
            },
            {
              "internalType": "string",
              "name": "image",
              "type": "string"
            },
            {
              "internalType": "string",
              "name": "status",
              "type": "string"
            },
            {
              "internalType": "address",
              "name": "owner",
              "type": "address"
            }
          ],
          "internalType": "struct IMyPetBase.Pet[]",
          "name": "",
          "type": "tuple[]"
        }
      ],
      "stateMutability": "view",
      "type": "function"
    },
    {
      "inputs": [
        {
          "internalType": "uint256",
          "name": "_petId",
          "type": "uint256"
        }
      ],
      "name": "getPetById",
      "outputs": [
        {
          "components": [
            {
              "internalType": "uint256",
              "name": "id",
              "type": "uint256"
            },
            {
              "internalType": "string",
              "name": "name",
              "type": "string"
            },
            {
              "internalType": "string",
              "name": "species",
              "type": "string"
            },
            {
              "internalType": "string",
              "name": "breed",
              "type": "string"
            },
            {
              "internalType": "string",
              "name": "gender",
              "type": "string"
            },
            {
              "internalType": "uint256",
              "name": "age",
              "type": "uint256"
            },
            {
              "internalType": "string",
              "name": "description",
              "type": "string"
            },
            {
              "internalType": "string",
              "name": "image",
              "type": "string"
            },
            {
              "internalType": "string",
              "name": "status",
              "type": "string"
            },
            {
              "internalType": "address",
              "name": "owner",
              "type": "address"
            }
          ],
          "internalType": "struct IMyPetBase.Pet",
          "name": "",
          "type": "tuple"
        }
      ],
      "stateMutability": "view",
      "type": "function"
    },
    {
      "inputs": [
        {
          "internalType": "address",
          "name": "_user",
          "type": "address"
        }
      ],
      "name": "getUserPets",
      "outputs": [
        {
          "components": [
            {
              "internalType": "uint256",
              "name": "id",
              "type": "uint256"
            },
            {
              "internalType": "string",
              "name": "name",
              "type": "string"
            },
            {
              "internalType": "string",
              "name": "species",
              "type": "string"
            },
            {
              "internalType": "string",
              "name": "breed",
              "type": "string"
            },
            {
              "internalType": "string",
              "name": "gender",
              "type": "string"
            },
            {
              "internalType": "uint256",
              "name": "age",
              "type": "uint256"
            },
            {
              "internalType": "string",
              "name": "description",
              "type": "string"
            },
            {
              "internalType": "string",
              "name": "image",
              "type": "string"
            },
            {
              "internalType": "string",
              "name": "status",
              "type": "string"
            },
            {
              "internalType": "address",
              "name": "owner",
              "type": "address"
            }
          ],
          "internalType": "struct IMyPetBase.Pet[]",
          "name": "",
          "type": "tuple[]"
        }
      ],
      "stateMutability": "view",
      "type": "function"
    },
    {
      "inputs": [],
      "name": "institutionManagerAddress",
      "outputs": [
        {
          "internalType": "address",
          "name": "",
          "type": "address"
        }
      ],
      "stateMutability": "view",
      "type": "function"
    },
    {
      "inputs": [
        {
          "internalType": "uint256",
          "name": "",
          "type": "uint256"
        }
      ],
      "name": "medicalEvents",
      "outputs": [
        {
          "internalType": "uint256",
          "name": "petId",
          "type": "uint256"
        },
        {
          "internalType": "string",
          "name": "diagnosis",
          "type": "string"
        },
        {
          "internalType": "string",
          "name": "treatment",
          "type": "string"
        },
        {
          "internalType": "uint256",
          "name": "timestamp",
          "type": "uint256"
        },
        {
          "internalType": "address",
          "name": "hospital",
          "type": "address"
        },
        {
          "internalType": "address",
          "name": "doctor",
          "type": "address"
        }
      ],
      "stateMutability": "view",
      "type": "function"
    },
    {
      "inputs": [],
      "name": "petIdCounter",
      "outputs": [
        {
          "internalType": "uint256",
          "name": "",
          "type": "uint256"
        }
      ],
      "stateMutability": "view",
      "type": "function"
    },
    {
      "inputs": [
        {
          "internalType": "uint256",
          "name": "",
          "type": "uint256"
        }
      ],
      "name": "pets",
      "outputs": [
        {
          "internalType": "uint256",
          "name": "id",
          "type": "uint256"
        },
        {
          "internalType": "string",
          "name": "name",
          "type": "string"
        },
        {
          "internalType": "string",
          "name": "species",
          "type": "string"
        },
        {
          "internalType": "string",
          "name": "breed",
          "type": "string"
        },
        {
          "internalType": "string",
          "name": "gender",
          "type": "string"
        },
        {
          "internalType": "uint256",
          "name": "age",
          "type": "uint256"
        },
        {
          "internalType": "string",
          "name": "description",
          "type": "string"
        },
        {
          "internalType": "string",
          "name": "image",
          "type": "string"
        },
        {
          "internalType": "string",
          "name": "status",
          "type": "string"
        },
        {
          "internalType": "address",
          "name": "owner",
          "type": "address"
        }
      ],
      "stateMutability": "view",
      "type": "function"
    },
    {
      "inputs": [
        {
          "internalType": "uint256",
          "name": "_petId",
          "type": "uint256"
        }
      ],
      "name": "removePet",
      "outputs": [],
      "stateMutability": "nonpayable",
      "type": "function"
    },
    {
      "inputs": [],
      "name": "rescueRequestIdCounter",
      "outputs": [
        {
          "internalType": "uint256",
          "name": "",
          "type": "uint256"
        }
      ],
      "stateMutability": "view",
      "type": "function"
    },
    {
      "inputs": [
        {
          "internalType": "uint256",
          "name": "",
          "type": "uint256"
        }
      ],
      "name": "rescueRequests",
      "outputs": [
        {
          "internalType": "uint256",
          "name": "id",
          "type": "uint256"
        },
        {
          "internalType": "string",
          "name": "location",
          "type": "string"
        },
        {
          "internalType": "string",
          "name": "description",
          "type": "string"
        },
        {
          "internalType": "string",
          "name": "status",
          "type": "string"
        },
        {
          "internalType": "uint256",
          "name": "responderOrgId",
          "type": "uint256"
        },
        {
          "internalType": "uint256",
          "name": "timestamp",
          "type": "uint256"
        }
      ],
      "stateMutability": "view",
      "type": "function"
    },
    {
      "inputs": [
        {
          "internalType": "uint256",
          "name": "_petId",
          "type": "uint256"
        },
        {
          "internalType": "string",
          "name": "_name",
          "type": "string"
        },
        {
          "internalType": "string",
          "name": "_species",
          "type": "string"
        },
        {
          "internalType": "string",
          "name": "_breed",
          "type": "string"
        },
        {
          "internalType": "string",
          "name": "_gender",
          "type": "string"
        },
        {
          "internalType": "uint256",
          "name": "_age",
          "type": "uint256"
        },
        {
          "internalType": "string",
          "name": "_description",
          "type": "string"
        },
        {
          "internalType": "string",
          "name": "_image",
          "type": "string"
        }
      ],
      "name": "updatePet",
      "outputs": [],
      "stateMutability": "nonpayable",
      "type": "function"
    },
    {
      "inputs": [
        {
          "internalType": "uint256",
          "name": "_requestId",
          "type": "uint256"
        },
        {
          "internalType": "string",
          "name": "_status",
          "type": "string"
        },
        {
          "internalType": "uint256",
          "name": "_responderOrgId",
          "type": "uint256"
        }
      ],
      "name": "updateRescueRequestStatus",
      "outputs": [],
      "stateMutability": "nonpayable",
      "type": "function"
    },
    {
      "inputs": [],
      "name": "userManagerAddress",
      "outputs": [
        {
          "internalType": "address",
          "name": "",
          "type": "address"
        }
      ],
      "stateMutability": "view",
      "type": "function"
    }
  ],
  "bytecode": "0x60c060405260018055600160055560016006553480156200001f57600080fd5b50604051620051e7380380620051e7833981810160405281019062000045919062000203565b600073ffffffffffffffffffffffffffffffffffffffff168273ffffffffffffffffffffffffffffffffffffffff1603620000b7576040517f08c379a0000000000000000000000000000000000000000000000000000000008152600401620000ae90620002ab565b60405180910390fd5b600073ffffffffffffffffffffffffffffffffffffffff168173ffffffffffffffffffffffffffffffffffffffff160362000129576040517f08c379a0000000000000000000000000000000000000000000000000000000008152600401620001209062000343565b60405180910390fd5b8173ffffffffffffffffffffffffffffffffffffffff1660808173ffffffffffffffffffffffffffffffffffffffff16815250508073ffffffffffffffffffffffffffffffffffffffff1660a08173ffffffffffffffffffffffffffffffffffffffff1681525050505062000365565b600080fd5b600073ffffffffffffffffffffffffffffffffffffffff82169050919050565b6000620001cb826200019e565b9050919050565b620001dd81620001be565b8114620001e957600080fd5b50565b600081519050620001fd81620001d2565b92915050565b600080604083850312156200021d576200021c62000199565b5b60006200022d85828601620001ec565b92505060206200024085828601620001ec565b9150509250929050565b600082825260208201905092915050565b7f496e76616c69642075736572206d616e61676572206164647265737300000000600082015250565b600062000293601c836200024a565b9150620002a0826200025b565b602082019050919050565b60006020820190508181036000830152620002c68162000284565b9050919050565b7f496e76616c696420696e737469747574696f6e206d616e61676572206164647260008201527f6573730000000000000000000000000000000000000000000000000000000000602082015250565b60006200032b6023836200024a565b91506200033882620002cd565b604082019050919050565b600060208201905081810360008301526200035e816200031c565b9050919050565b60805160a051614e47620003a060003960008181610bf90152818161133f015281816120430152612948015260006109e70152614e476000f3fe608060405234801561001057600080fd5b506004361061012c5760003560e01c80638e5e7d67116100ad578063cb92050911610071578063cb9205091461034e578063cfb869bf1461037e578063d89f4f4e146103b7578063eda95cb7146103e7578063f664d942146104055761012c565b80638e5e7d671461029a5780639ffe1561146102b6578063ba8cd532146102d2578063c261b16814610302578063c2dd81ee146103325761012c565b806350c688b3116100f457806350c688b3146101ef57806359f95c25146102245780635b236d97146102425780635c828f37146102605780637fab802a1461027e5761012c565b80630c0e88df146101315780632912dce31461014d57806346910856146101695780634a95525d1461019c5780634d1def2c146101d1575b600080fd5b61014b60048036038101906101469190613987565b610423565b005b61016760048036038101906101629190613a54565b6104c6565b005b610183600480360381019061017e9190613ac3565b610761565b6040516101939493929190613b8d565b60405180910390f35b6101b660048036038101906101b19190613ac3565b610849565b6040516101c896959493929190613bd9565b60405180910390f35b6101d96109e5565b6040516101e69190613c48565b60405180910390f35b61020960048036038101906102049190613ac3565b610a09565b60405161021b96959493929190613c63565b60405180910390f35b61022c610bed565b6040516102399190613cd9565b60405180910390f35b61024a610bf3565b6040516102579190613f22565b60405180910390f35b61026861133d565b6040516102759190613c48565b60405180910390f35b61029860048036038101906102939190613f44565b611361565b005b6102b460048036038101906102af9190613ac3565b6115ae565b005b6102d060048036038101906102cb919061408e565b6117e6565b005b6102ec60048036038101906102e791906141ec565b6119a6565b6040516102f99190613f22565b60405180910390f35b61031c60048036038101906103179190614219565b61203d565b6040516103299190613f22565b60405180910390f35b61034c60048036038101906103479190614262565b6128f4565b005b61036860048036038101906103639190613ac3565b612d25565b60405161037591906143f1565b60405180910390f35b61039860048036038101906103939190613ac3565b613226565b6040516103ae9a99989796959493929190614413565b60405180910390f35b6103d160048036038101906103cc91906144e0565b613662565b6040516103de9190613cd9565b60405180910390f35b6103ef613782565b6040516103fc9190613cd9565b60405180910390f35b61040d613788565b60405161041a9190613cd9565b60405180910390f35b600083118015610434575060065483105b610473576040517f08c379a000000000000000000000000000000000000000000000000000000000815260040161046a906145a4565b60405180910390fd5b6000600460018561048491906145f3565b8154811061049557610494614627565b5b90600052602060002090600602019050828160030190816104b69190614862565b5081816004018190555050505050565b6000831180156104d7575060015483105b610516576040517f08c379a000000000000000000000000000000000000000000000000000000000815260040161050d90614980565b60405180910390fd5b600060405180608001604052808581526020018473ffffffffffffffffffffffffffffffffffffffff16815260200142815260200183815250905060028190806001815401808255809150506001900390600052602060002090600402016000909190919091506000820151816000015560208201518160010160006101000a81548173ffffffffffffffffffffffffffffffffffffffff021916908373ffffffffffffffffffffffffffffffffffffffff1602179055506040820151816002015560608201518160030190816105ed9190614862565b50505060008060018661060091906145f3565b8154811061061157610610614627565b5b90600052602060002090600a020190506000600760008360090160009054906101000a900473ffffffffffffffffffffffffffffffffffffffff1673ffffffffffffffffffffffffffffffffffffffff1673ffffffffffffffffffffffffffffffffffffffff168152602001908152602001600020600087815260200190815260200160002060006101000a81548160ff021916908315150217905550838160090160006101000a81548173ffffffffffffffffffffffffffffffffffffffff021916908373ffffffffffffffffffffffffffffffffffffffff1602179055506001600760008673ffffffffffffffffffffffffffffffffffffffff1673ffffffffffffffffffffffffffffffffffffffff168152602001908152602001600020600087815260200190815260200160002060006101000a81548160ff0219169083151502179055505050505050565b6002818154811061077157600080fd5b90600052602060002090600402016000915090508060000154908060010160009054906101000a900473ffffffffffffffffffffffffffffffffffffffff16908060020154908060030180546107c690614685565b80601f01602080910402602001604051908101604052809291908181526020018280546107f290614685565b801561083f5780601f106108145761010080835404028352916020019161083f565b820191906000526020600020905b81548152906001019060200180831161082257829003601f168201915b5050505050905084565b6003818154811061085957600080fd5b906000526020600020906006020160009150905080600001549080600101805461088290614685565b80601f01602080910402602001604051908101604052809291908181526020018280546108ae90614685565b80156108fb5780601f106108d0576101008083540402835291602001916108fb565b820191906000526020600020905b8154815290600101906020018083116108de57829003601f168201915b50505050509080600201805461091090614685565b80601f016020809104026020016040519081016040528092919081815260200182805461093c90614685565b80156109895780601f1061095e57610100808354040283529160200191610989565b820191906000526020600020905b81548152906001019060200180831161096c57829003601f168201915b5050505050908060030154908060040160009054906101000a900473ffffffffffffffffffffffffffffffffffffffff16908060050160009054906101000a900473ffffffffffffffffffffffffffffffffffffffff16905086565b7f000000000000000000000000000000000000000000000000000000000000000081565b60048181548110610a1957600080fd5b9060005260206000209060060201600091509050806000015490806001018054610a4290614685565b80601f0160208091040260200160405190810160405280929190818152602001828054610a6e90614685565b8015610abb5780601f10610a9057610100808354040283529160200191610abb565b820191906000526020600020905b815481529060010190602001808311610a9e57829003601f168201915b505050505090806002018054610ad090614685565b80601f0160208091040260200160405190810160405280929190818152602001828054610afc90614685565b8015610b495780601f10610b1e57610100808354040283529160200191610b49565b820191906000526020600020905b815481529060010190602001808311610b2c57829003601f168201915b505050505090806003018054610b5e90614685565b80601f0160208091040260200160405190810160405280929190818152602001828054610b8a90614685565b8015610bd75780601f10610bac57610100808354040283529160200191610bd7565b820191906000526020600020905b815481529060010190602001808311610bba57829003601f168201915b5050505050908060040154908060050154905086565b60015481565b606060007f0000000000000000000000000000000000000000000000000000000000000000905060008173ffffffffffffffffffffffffffffffffffffffff1663584fab0f336040518263ffffffff1660e01b8152600401610c559190613c48565b602060405180830381865afa158015610c72573d6000803e3d6000fd5b505050506040513d601f19601f82011682018060405250810190610c9691906149b5565b9050600073ffffffffffffffffffffffffffffffffffffffff168173ffffffffffffffffffffffffffffffffffffffff1603610d07576040517f08c379a0000000000000000000000000000000000000000000000000000000008152600401610cfe90614a54565b60405180910390fd5b60008273ffffffffffffffffffffffffffffffffffffffff1663e4d34164836040518263ffffffff1660e01b8152600401610d429190613c48565b602060405180830381865afa158015610d5f573d6000803e3d6000fd5b505050506040513d601f19601f82011682018060405250810190610d839190614a89565b905060008373ffffffffffffffffffffffffffffffffffffffff16631063b484836040518263ffffffff1660e01b8152600401610dc09190613cd9565b600060405180830381865afa158015610ddd573d6000803e3d6000fd5b505050506040513d6000823e3d601f19601f82011682018060405250810190610e069190614b4b565b50509250505060006001811115610e2057610e1f614be2565b5b816001811115610e3357610e32614be2565b5b14610e73576040517f08c379a0000000000000000000000000000000000000000000000000000000008152600401610e6a90614c83565b60405180910390fd5b6000805480602002602001604051908101604052809291908181526020016000905b8282101561133057838290600052602060002090600a02016040518061014001604052908160008201548152602001600182018054610ed390614685565b80601f0160208091040260200160405190810160405280929190818152602001828054610eff90614685565b8015610f4c5780601f10610f2157610100808354040283529160200191610f4c565b820191906000526020600020905b815481529060010190602001808311610f2f57829003601f168201915b50505050508152602001600282018054610f6590614685565b80601f0160208091040260200160405190810160405280929190818152602001828054610f9190614685565b8015610fde5780601f10610fb357610100808354040283529160200191610fde565b820191906000526020600020905b815481529060010190602001808311610fc157829003601f168201915b50505050508152602001600382018054610ff790614685565b80601f016020809104026020016040519081016040528092919081815260200182805461102390614685565b80156110705780601f1061104557610100808354040283529160200191611070565b820191906000526020600020905b81548152906001019060200180831161105357829003601f168201915b5050505050815260200160048201805461108990614685565b80601f01602080910402602001604051908101604052809291908181526020018280546110b590614685565b80156111025780601f106110d757610100808354040283529160200191611102565b820191906000526020600020905b8154815290600101906020018083116110e557829003601f168201915b505050505081526020016005820154815260200160068201805461112590614685565b80601f016020809104026020016040519081016040528092919081815260200182805461115190614685565b801561119e5780601f106111735761010080835404028352916020019161119e565b820191906000526020600020905b81548152906001019060200180831161118157829003601f168201915b505050505081526020016007820180546111b790614685565b80601f01602080910402602001604051908101604052809291908181526020018280546111e390614685565b80156112305780601f1061120557610100808354040283529160200191611230565b820191906000526020600020905b81548152906001019060200180831161121357829003601f168201915b5050505050815260200160088201805461124990614685565b80601f016020809104026020016040519081016040528092919081815260200182805461127590614685565b80156112c25780601f10611297576101008083540402835291602001916112c2565b820191906000526020600020905b8154815290600101906020018083116112a557829003601f168201915b505050505081526020016009820160009054906101000a900473ffffffffffffffffffffffffffffffffffffffff1673ffffffffffffffffffffffffffffffffffffffff1673ffffffffffffffffffffffffffffffffffffffff168152505081526020019060010190610e95565b5050505094505050505090565b7f000000000000000000000000000000000000000000000000000000000000000081565b600060015490506001600081548092919061137b90614ca3565b919050555060006040518061014001604052808381526020018a81526020018981526020018881526020018781526020018681526020018581526020018481526020016040518060400160405280600681526020017f616374697665000000000000000000000000000000000000000000000000000081525081526020013373ffffffffffffffffffffffffffffffffffffffff16815250905060008190806001815401808255809150506001900390600052602060002090600a02016000909190919091506000820151816000015560208201518160010190816114609190614862565b5060408201518160020190816114769190614862565b50606082015181600301908161148c9190614862565b5060808201518160040190816114a29190614862565b5060a0820151816005015560c08201518160060190816114c29190614862565b5060e08201518160070190816114d89190614862565b506101008201518160080190816114ef9190614862565b506101208201518160090160006101000a81548173ffffffffffffffffffffffffffffffffffffffff021916908373ffffffffffffffffffffffffffffffffffffffff16021790555050506001600760003373ffffffffffffffffffffffffffffffffffffffff1673ffffffffffffffffffffffffffffffffffffffff168152602001908152602001600020600084815260200190815260200160002060006101000a81548160ff021916908315150217905550505050505050505050565b6000811180156115bf575060015481105b6115fe576040517f08c379a00000000000000000000000000000000000000000000000000000000081526004016115f590614980565b60405180910390fd5b3373ffffffffffffffffffffffffffffffffffffffff16600060018361162491906145f3565b8154811061163557611634614627565b5b90600052602060002090600a020160090160009054906101000a900473ffffffffffffffffffffffffffffffffffffffff1673ffffffffffffffffffffffffffffffffffffffff16146116bd576040517f08c379a00000000000000000000000000000000000000000000000000000000081526004016116b490614d37565b60405180910390fd5b6000806001836116cd91906145f3565b815481106116de576116dd614627565b5b90600052602060002090600a020190506040518060400160405280600781526020017f72656d6f766564000000000000000000000000000000000000000000000000008152508160080190816117349190614862565b5060008160090160006101000a81548173ffffffffffffffffffffffffffffffffffffffff021916908373ffffffffffffffffffffffffffffffffffffffff1602179055506000600760003373ffffffffffffffffffffffffffffffffffffffff1673ffffffffffffffffffffffffffffffffffffffff168152602001908152602001600020600084815260200190815260200160002060006101000a81548160ff0219169083151502179055505050565b6000881180156117f7575060015488105b611836576040517f08c379a000000000000000000000000000000000000000000000000000000000815260040161182d90614980565b60405180910390fd5b3373ffffffffffffffffffffffffffffffffffffffff16600060018a61185c91906145f3565b8154811061186d5761186c614627565b5b90600052602060002090600a020160090160009054906101000a900473ffffffffffffffffffffffffffffffffffffffff1673ffffffffffffffffffffffffffffffffffffffff16146118f5576040517f08c379a00000000000000000000000000000000000000000000000000000000081526004016118ec90614d37565b60405180910390fd5b60008060018a61190591906145f3565b8154811061191657611915614627565b5b90600052602060002090600a02019050878160010190816119379190614862565b50868160020190816119499190614862565b508581600301908161195b9190614862565b508481600401908161196d9190614862565b50838160050181905550828160060190816119889190614862565b508181600701908161199a9190614862565b50505050505050505050565b6060600080600190505b600154811015611a60578373ffffffffffffffffffffffffffffffffffffffff1660006001836119e091906145f3565b815481106119f1576119f0614627565b5b90600052602060002090600a020160090160009054906101000a900473ffffffffffffffffffffffffffffffffffffffff1673ffffffffffffffffffffffffffffffffffffffff1603611a4d578180611a4990614ca3565b9250505b8080611a5890614ca3565b9150506119b0565b5060008167ffffffffffffffff811115611a7d57611a7c61385c565b5b604051908082528060200260200182016040528015611ab657816020015b611aa361378e565b815260200190600190039081611a9b5790505b509050600080600190505b600154811015612031578573ffffffffffffffffffffffffffffffffffffffff166000600183611af191906145f3565b81548110611b0257611b01614627565b5b90600052602060002090600a020160090160009054906101000a900473ffffffffffffffffffffffffffffffffffffffff1673ffffffffffffffffffffffffffffffffffffffff160361201e576000600182611b5e91906145f3565b81548110611b6f57611b6e614627565b5b90600052602060002090600a02016040518061014001604052908160008201548152602001600182018054611ba390614685565b80601f0160208091040260200160405190810160405280929190818152602001828054611bcf90614685565b8015611c1c5780601f10611bf157610100808354040283529160200191611c1c565b820191906000526020600020905b815481529060010190602001808311611bff57829003601f168201915b50505050508152602001600282018054611c3590614685565b80601f0160208091040260200160405190810160405280929190818152602001828054611c6190614685565b8015611cae5780601f10611c8357610100808354040283529160200191611cae565b820191906000526020600020905b815481529060010190602001808311611c9157829003601f168201915b50505050508152602001600382018054611cc790614685565b80601f0160208091040260200160405190810160405280929190818152602001828054611cf390614685565b8015611d405780601f10611d1557610100808354040283529160200191611d40565b820191906000526020600020905b815481529060010190602001808311611d2357829003601f168201915b50505050508152602001600482018054611d5990614685565b80601f0160208091040260200160405190810160405280929190818152602001828054611d8590614685565b8015611dd25780601f10611da757610100808354040283529160200191611dd2565b820191906000526020600020905b815481529060010190602001808311611db557829003601f168201915b5050505050815260200160058201548152602001600682018054611df590614685565b80601f0160208091040260200160405190810160405280929190818152602001828054611e2190614685565b8015611e6e5780601f10611e4357610100808354040283529160200191611e6e565b820191906000526020600020905b815481529060010190602001808311611e5157829003601f168201915b50505050508152602001600782018054611e8790614685565b80601f0160208091040260200160405190810160405280929190818152602001828054611eb390614685565b8015611f005780601f10611ed557610100808354040283529160200191611f00565b820191906000526020600020905b815481529060010190602001808311611ee357829003601f168201915b50505050508152602001600882018054611f1990614685565b80601f0160208091040260200160405190810160405280929190818152602001828054611f4590614685565b8015611f925780601f10611f6757610100808354040283529160200191611f92565b820191906000526020600020905b815481529060010190602001808311611f7557829003601f168201915b505050505081526020016009820160009054906101000a900473ffffffffffffffffffffffffffffffffffffffff1673ffffffffffffffffffffffffffffffffffffffff1673ffffffffffffffffffffffffffffffffffffffff168152505083838151811061200457612003614627565b5b6020026020010181905250818061201a90614ca3565b9250505b808061202990614ca3565b915050611ac1565b50819350505050919050565b606060007f0000000000000000000000000000000000000000000000000000000000000000905060008173ffffffffffffffffffffffffffffffffffffffff1663584fab0f336040518263ffffffff1660e01b815260040161209f9190613c48565b602060405180830381865afa1580156120bc573d6000803e3d6000fd5b505050506040513d601f19601f820116820180604052508101906120e091906149b5565b9050600073ffffffffffffffffffffffffffffffffffffffff168173ffffffffffffffffffffffffffffffffffffffff1603612151576040517f08c379a000000000000000000000000000000000000000000000000000000000815260040161214890614a54565b60405180910390fd5b60008273ffffffffffffffffffffffffffffffffffffffff1663e4d34164836040518263ffffffff1660e01b815260040161218c9190613c48565b602060405180830381865afa1580156121a9573d6000803e3d6000fd5b505050506040513d601f19601f820116820180604052508101906121cd9190614a89565b905060008373ffffffffffffffffffffffffffffffffffffffff16631063b484836040518263ffffffff1660e01b815260040161220a9190613cd9565b600060405180830381865afa158015612227573d6000803e3d6000fd5b505050506040513d6000823e3d601f19601f820116820180604052508101906122509190614b4b565b5050925050506000600181111561226a57612269614be2565b5b81600181111561227d5761227c614be2565b5b146122bd576040517f08c379a00000000000000000000000000000000000000000000000000000000081526004016122b490614c83565b60405180910390fd5b600080600190505b60015481101561234457878051906020012060006001836122e691906145f3565b815481106122f7576122f6614627565b5b90600052602060002090600a02016001016040516123159190614dfa565b60405180910390200361233157818061232d90614ca3565b9250505b808061233c90614ca3565b9150506122c5565b5060008167ffffffffffffffff8111156123615761236061385c565b5b60405190808252806020026020018201604052801561239a57816020015b61238761378e565b81526020019060019003908161237f5790505b509050600080600190505b6001548110156128e457898051906020012060006001836123c691906145f3565b815481106123d7576123d6614627565b5b90600052602060002090600a02016001016040516123f59190614dfa565b6040518091039020036128d157600060018261241191906145f3565b8154811061242257612421614627565b5b90600052602060002090600a0201604051806101400160405290816000820154815260200160018201805461245690614685565b80601f016020809104026020016040519081016040528092919081815260200182805461248290614685565b80156124cf5780601f106124a4576101008083540402835291602001916124cf565b820191906000526020600020905b8154815290600101906020018083116124b257829003601f168201915b505050505081526020016002820180546124e890614685565b80601f016020809104026020016040519081016040528092919081815260200182805461251490614685565b80156125615780601f1061253657610100808354040283529160200191612561565b820191906000526020600020905b81548152906001019060200180831161254457829003601f168201915b5050505050815260200160038201805461257a90614685565b80601f01602080910402602001604051908101604052809291908181526020018280546125a690614685565b80156125f35780601f106125c8576101008083540402835291602001916125f3565b820191906000526020600020905b8154815290600101906020018083116125d657829003601f168201915b5050505050815260200160048201805461260c90614685565b80601f016020809104026020016040519081016040528092919081815260200182805461263890614685565b80156126855780601f1061265a57610100808354040283529160200191612685565b820191906000526020600020905b81548152906001019060200180831161266857829003601f168201915b50505050508152602001600582015481526020016006820180546126a890614685565b80601f01602080910402602001604051908101604052809291908181526020018280546126d490614685565b80156127215780601f106126f657610100808354040283529160200191612721565b820191906000526020600020905b81548152906001019060200180831161270457829003601f168201915b5050505050815260200160078201805461273a90614685565b80601f016020809104026020016040519081016040528092919081815260200182805461276690614685565b80156127b35780601f10612788576101008083540402835291602001916127b3565b820191906000526020600020905b81548152906001019060200180831161279657829003601f168201915b505050505081526020016008820180546127cc90614685565b80601f01602080910402602001604051908101604052809291908181526020018280546127f890614685565b80156128455780601f1061281a57610100808354040283529160200191612845565b820191906000526020600020905b81548152906001019060200180831161282857829003601f168201915b505050505081526020016009820160009054906101000a900473ffffffffffffffffffffffffffffffffffffffff1673ffffffffffffffffffffffffffffffffffffffff1673ffffffffffffffffffffffffffffffffffffffff16815250508383815181106128b7576128b6614627565b5b602002602001018190525081806128cd90614ca3565b9250505b80806128dc90614ca3565b9150506123a5565b5081975050505050505050919050565b600083118015612905575060015483105b612944576040517f08c379a000000000000000000000000000000000000000000000000000000000815260040161293b90614980565b60405180910390fd5b60007f0000000000000000000000000000000000000000000000000000000000000000905060008173ffffffffffffffffffffffffffffffffffffffff1663584fab0f336040518263ffffffff1660e01b81526004016129a49190613c48565b602060405180830381865afa1580156129c1573d6000803e3d6000fd5b505050506040513d601f19601f820116820180604052508101906129e591906149b5565b9050600073ffffffffffffffffffffffffffffffffffffffff168173ffffffffffffffffffffffffffffffffffffffff1603612a56576040517f08c379a0000000000000000000000000000000000000000000000000000000008152600401612a4d90614a54565b60405180910390fd5b60008273ffffffffffffffffffffffffffffffffffffffff1663e4d34164836040518263ffffffff1660e01b8152600401612a919190613c48565b602060405180830381865afa158015612aae573d6000803e3d6000fd5b505050506040513d601f19601f82011682018060405250810190612ad29190614a89565b905060008373ffffffffffffffffffffffffffffffffffffffff16631063b484836040518263ffffffff1660e01b8152600401612b0f9190613cd9565b600060405180830381865afa158015612b2c573d6000803e3d6000fd5b505050506040513d6000823e3d601f19601f82011682018060405250810190612b559190614b4b565b50509250505060006001811115612b6f57612b6e614be2565b5b816001811115612b8257612b81614be2565b5b14612bc2576040517f08c379a0000000000000000000000000000000000000000000000000000000008152600401612bb990614c83565b60405180910390fd5b60006040518060c001604052808981526020018881526020018781526020014281526020018573ffffffffffffffffffffffffffffffffffffffff1681526020013373ffffffffffffffffffffffffffffffffffffffff1681525090506003819080600181540180825580915050600190039060005260206000209060060201600090919091909150600082015181600001556020820151816001019081612c6a9190614862565b506040820151816002019081612c809190614862565b506060820151816003015560808201518160040160006101000a81548173ffffffffffffffffffffffffffffffffffffffff021916908373ffffffffffffffffffffffffffffffffffffffff16021790555060a08201518160050160006101000a81548173ffffffffffffffffffffffffffffffffffffffff021916908373ffffffffffffffffffffffffffffffffffffffff16021790555050505050505050505050565b612d2d61378e565b600082118015612d3e575060015482105b612d7d576040517f08c379a0000000000000000000000000000000000000000000000000000000008152600401612d7490614980565b60405180910390fd5b6000600183612d8c91906145f3565b81548110612d9d57612d9c614627565b5b90600052602060002090600a02016040518061014001604052908160008201548152602001600182018054612dd190614685565b80601f0160208091040260200160405190810160405280929190818152602001828054612dfd90614685565b8015612e4a5780601f10612e1f57610100808354040283529160200191612e4a565b820191906000526020600020905b815481529060010190602001808311612e2d57829003601f168201915b50505050508152602001600282018054612e6390614685565b80601f0160208091040260200160405190810160405280929190818152602001828054612e8f90614685565b8015612edc5780601f10612eb157610100808354040283529160200191612edc565b820191906000526020600020905b815481529060010190602001808311612ebf57829003601f168201915b50505050508152602001600382018054612ef590614685565b80601f0160208091040260200160405190810160405280929190818152602001828054612f2190614685565b8015612f6e5780601f10612f4357610100808354040283529160200191612f6e565b820191906000526020600020905b815481529060010190602001808311612f5157829003601f168201915b50505050508152602001600482018054612f8790614685565b80601f0160208091040260200160405190810160405280929190818152602001828054612fb390614685565b80156130005780601f10612fd557610100808354040283529160200191613000565b820191906000526020600020905b815481529060010190602001808311612fe357829003601f168201915b505050505081526020016005820154815260200160068201805461302390614685565b80601f016020809104026020016040519081016040528092919081815260200182805461304f90614685565b801561309c5780601f106130715761010080835404028352916020019161309c565b820191906000526020600020905b81548152906001019060200180831161307f57829003601f168201915b505050505081526020016007820180546130b590614685565b80601f01602080910402602001604051908101604052809291908181526020018280546130e190614685565b801561312e5780601f106131035761010080835404028352916020019161312e565b820191906000526020600020905b81548152906001019060200180831161311157829003601f168201915b5050505050815260200160088201805461314790614685565b80601f016020809104026020016040519081016040528092919081815260200182805461317390614685565b80156131c05780601f10613195576101008083540402835291602001916131c0565b820191906000526020600020905b8154815290600101906020018083116131a357829003601f168201915b505050505081526020016009820160009054906101000a900473ffffffffffffffffffffffffffffffffffffffff1673ffffffffffffffffffffffffffffffffffffffff1673ffffffffffffffffffffffffffffffffffffffff16815250509050919050565b6000818154811061323657600080fd5b90600052602060002090600a020160009150905080600001549080600101805461325f90614685565b80601f016020809104026020016040519081016040528092919081815260200182805461328b90614685565b80156132d85780601f106132ad576101008083540402835291602001916132d8565b820191906000526020600020905b8154815290600101906020018083116132bb57829003601f168201915b5050505050908060020180546132ed90614685565b80601f016020809104026020016040519081016040528092919081815260200182805461331990614685565b80156133665780601f1061333b57610100808354040283529160200191613366565b820191906000526020600020905b81548152906001019060200180831161334957829003601f168201915b50505050509080600301805461337b90614685565b80601f01602080910402602001604051908101604052809291908181526020018280546133a790614685565b80156133f45780601f106133c9576101008083540402835291602001916133f4565b820191906000526020600020905b8154815290600101906020018083116133d757829003601f168201915b50505050509080600401805461340990614685565b80601f016020809104026020016040519081016040528092919081815260200182805461343590614685565b80156134825780601f1061345757610100808354040283529160200191613482565b820191906000526020600020905b81548152906001019060200180831161346557829003601f168201915b50505050509080600501549080600601805461349d90614685565b80601f01602080910402602001604051908101604052809291908181526020018280546134c990614685565b80156135165780601f106134eb57610100808354040283529160200191613516565b820191906000526020600020905b8154815290600101906020018083116134f957829003601f168201915b50505050509080600701805461352b90614685565b80601f016020809104026020016040519081016040528092919081815260200182805461355790614685565b80156135a45780601f10613579576101008083540402835291602001916135a4565b820191906000526020600020905b81548152906001019060200180831161358757829003601f168201915b5050505050908060080180546135b990614685565b80601f01602080910402602001604051908101604052809291908181526020018280546135e590614685565b80156136325780601f1061360757610100808354040283529160200191613632565b820191906000526020600020905b81548152906001019060200180831161361557829003601f168201915b5050505050908060090160009054906101000a900473ffffffffffffffffffffffffffffffffffffffff1690508a565b60008060065490506006600081548092919061367d90614ca3565b919050555060006040518060c001604052808381526020018681526020018581526020016040518060400160405280600781526020017f70656e64696e670000000000000000000000000000000000000000000000000081525081526020016000815260200142815250905060048190806001815401808255809150506001900390600052602060002090600602016000909190919091506000820151816000015560208201518160010190816137349190614862565b50604082015181600201908161374a9190614862565b5060608201518160030190816137609190614862565b506080820151816004015560a082015181600501555050819250505092915050565b60065481565b60055481565b604051806101400160405280600081526020016060815260200160608152602001606081526020016060815260200160008152602001606081526020016060815260200160608152602001600073ffffffffffffffffffffffffffffffffffffffff1681525090565b6000604051905090565b600080fd5b600080fd5b6000819050919050565b61381e8161380b565b811461382957600080fd5b50565b60008135905061383b81613815565b92915050565b600080fd5b600080fd5b6000601f19601f8301169050919050565b7f4e487b7100000000000000000000000000000000000000000000000000000000600052604160045260246000fd5b6138948261384b565b810181811067ffffffffffffffff821117156138b3576138b261385c565b5b80604052505050565b60006138c66137f7565b90506138d2828261388b565b919050565b600067ffffffffffffffff8211156138f2576138f161385c565b5b6138fb8261384b565b9050602081019050919050565b82818337600083830152505050565b600061392a613925846138d7565b6138bc565b90508281526020810184848401111561394657613945613846565b5b613951848285613908565b509392505050565b600082601f83011261396e5761396d613841565b5b813561397e848260208601613917565b91505092915050565b6000806000606084860312156139a05761399f613801565b5b60006139ae8682870161382c565b935050602084013567ffffffffffffffff8111156139cf576139ce613806565b5b6139db86828701613959565b92505060406139ec8682870161382c565b9150509250925092565b600073ffffffffffffffffffffffffffffffffffffffff82169050919050565b6000613a21826139f6565b9050919050565b613a3181613a16565b8114613a3c57600080fd5b50565b600081359050613a4e81613a28565b92915050565b600080600060608486031215613a6d57613a6c613801565b5b6000613a7b8682870161382c565b9350506020613a8c86828701613a3f565b925050604084013567ffffffffffffffff811115613aad57613aac613806565b5b613ab986828701613959565b9150509250925092565b600060208284031215613ad957613ad8613801565b5b6000613ae78482850161382c565b91505092915050565b613af98161380b565b82525050565b613b0881613a16565b82525050565b600081519050919050565b600082825260208201905092915050565b60005b83811015613b48578082015181840152602081019050613b2d565b60008484015250505050565b6000613b5f82613b0e565b613b698185613b19565b9350613b79818560208601613b2a565b613b828161384b565b840191505092915050565b6000608082019050613ba26000830187613af0565b613baf6020830186613aff565b613bbc6040830185613af0565b8181036060830152613bce8184613b54565b905095945050505050565b600060c082019050613bee6000830189613af0565b8181036020830152613c008188613b54565b90508181036040830152613c148187613b54565b9050613c236060830186613af0565b613c306080830185613aff565b613c3d60a0830184613aff565b979650505050505050565b6000602082019050613c5d6000830184613aff565b92915050565b600060c082019050613c786000830189613af0565b8181036020830152613c8a8188613b54565b90508181036040830152613c9e8187613b54565b90508181036060830152613cb28186613b54565b9050613cc16080830185613af0565b613cce60a0830184613af0565b979650505050505050565b6000602082019050613cee6000830184613af0565b92915050565b600081519050919050565b600082825260208201905092915050565b6000819050602082019050919050565b613d298161380b565b82525050565b600082825260208201905092915050565b6000613d4b82613b0e565b613d558185613d2f565b9350613d65818560208601613b2a565b613d6e8161384b565b840191505092915050565b613d8281613a16565b82525050565b600061014083016000830151613da16000860182613d20565b5060208301518482036020860152613db98282613d40565b91505060408301518482036040860152613dd38282613d40565b91505060608301518482036060860152613ded8282613d40565b91505060808301518482036080860152613e078282613d40565b91505060a0830151613e1c60a0860182613d20565b5060c083015184820360c0860152613e348282613d40565b91505060e083015184820360e0860152613e4e8282613d40565b915050610100830151848203610100860152613e6a8282613d40565b915050610120830151613e81610120860182613d79565b508091505092915050565b6000613e988383613d88565b905092915050565b6000602082019050919050565b6000613eb882613cf4565b613ec28185613cff565b935083602082028501613ed485613d10565b8060005b85811015613f105784840389528151613ef18582613e8c565b9450613efc83613ea0565b925060208a01995050600181019050613ed8565b50829750879550505050505092915050565b60006020820190508181036000830152613f3c8184613ead565b905092915050565b600080600080600080600060e0888a031215613f6357613f62613801565b5b600088013567ffffffffffffffff811115613f8157613f80613806565b5b613f8d8a828b01613959565b975050602088013567ffffffffffffffff811115613fae57613fad613806565b5b613fba8a828b01613959565b965050604088013567ffffffffffffffff811115613fdb57613fda613806565b5b613fe78a828b01613959565b955050606088013567ffffffffffffffff81111561400857614007613806565b5b6140148a828b01613959565b94505060806140258a828b0161382c565b93505060a088013567ffffffffffffffff81111561404657614045613806565b5b6140528a828b01613959565b92505060c088013567ffffffffffffffff81111561407357614072613806565b5b61407f8a828b01613959565b91505092959891949750929550565b600080600080600080600080610100898b0312156140af576140ae613801565b5b60006140bd8b828c0161382c565b985050602089013567ffffffffffffffff8111156140de576140dd613806565b5b6140ea8b828c01613959565b975050604089013567ffffffffffffffff81111561410b5761410a613806565b5b6141178b828c01613959565b965050606089013567ffffffffffffffff81111561413857614137613806565b5b6141448b828c01613959565b955050608089013567ffffffffffffffff81111561416557614164613806565b5b6141718b828c01613959565b94505060a06141828b828c0161382c565b93505060c089013567ffffffffffffffff8111156141a3576141a2613806565b5b6141af8b828c01613959565b92505060e089013567ffffffffffffffff8111156141d0576141cf613806565b5b6141dc8b828c01613959565b9150509295985092959890939650565b60006020828403121561420257614201613801565b5b600061421084828501613a3f565b91505092915050565b60006020828403121561422f5761422e613801565b5b600082013567ffffffffffffffff81111561424d5761424c613806565b5b61425984828501613959565b91505092915050565b60008060006060848603121561427b5761427a613801565b5b60006142898682870161382c565b935050602084013567ffffffffffffffff8111156142aa576142a9613806565b5b6142b686828701613959565b925050604084013567ffffffffffffffff8111156142d7576142d6613806565b5b6142e386828701613959565b9150509250925092565b6000610140830160008301516143066000860182613d20565b506020830151848203602086015261431e8282613d40565b915050604083015184820360408601526143388282613d40565b915050606083015184820360608601526143528282613d40565b9150506080830151848203608086015261436c8282613d40565b91505060a083015161438160a0860182613d20565b5060c083015184820360c08601526143998282613d40565b91505060e083015184820360e08601526143b38282613d40565b9150506101008301518482036101008601526143cf8282613d40565b9150506101208301516143e6610120860182613d79565b508091505092915050565b6000602082019050818103600083015261440b81846142ed565b905092915050565b600061014082019050614429600083018d613af0565b818103602083015261443b818c613b54565b9050818103604083015261444f818b613b54565b90508181036060830152614463818a613b54565b905081810360808301526144778189613b54565b905061448660a0830188613af0565b81810360c08301526144988187613b54565b905081810360e08301526144ac8186613b54565b90508181036101008301526144c18185613b54565b90506144d1610120830184613aff565b9b9a5050505050505050505050565b600080604083850312156144f7576144f6613801565b5b600083013567ffffffffffffffff81111561451557614514613806565b5b61452185828601613959565b925050602083013567ffffffffffffffff81111561454257614541613806565b5b61454e85828601613959565b9150509250929050565b7f5265717565737420646f6573206e6f7420657869737400000000000000000000600082015250565b600061458e601683613b19565b915061459982614558565b602082019050919050565b600060208201905081810360008301526145bd81614581565b9050919050565b7f4e487b7100000000000000000000000000000000000000000000000000000000600052601160045260246000fd5b60006145fe8261380b565b91506146098361380b565b9250828203905081811115614621576146206145c4565b5b92915050565b7f4e487b7100000000000000000000000000000000000000000000000000000000600052603260045260246000fd5b7f4e487b7100000000000000000000000000000000000000000000000000000000600052602260045260246000fd5b6000600282049050600182168061469d57607f821691505b6020821081036146b0576146af614656565b5b50919050565b60008190508160005260206000209050919050565b60006020601f8301049050919050565b600082821b905092915050565b6000600883026147187fffffffffffffffffffffffffffffffffffffffffffffffffffffffffffffffff826146db565b61472286836146db565b95508019841693508086168417925050509392505050565b6000819050919050565b600061475f61475a6147558461380b565b61473a565b61380b565b9050919050565b6000819050919050565b61477983614744565b61478d61478582614766565b8484546146e8565b825550505050565b600090565b6147a2614795565b6147ad818484614770565b505050565b5b818110156147d1576147c660008261479a565b6001810190506147b3565b5050565b601f821115614816576147e7816146b6565b6147f0846146cb565b810160208510156147ff578190505b61481361480b856146cb565b8301826147b2565b50505b505050565b600082821c905092915050565b60006148396000198460080261481b565b1980831691505092915050565b60006148528383614828565b9150826002028217905092915050565b61486b82613b0e565b67ffffffffffffffff8111156148845761488361385c565b5b61488e8254614685565b6148998282856147d5565b600060209050601f8311600181146148cc57600084156148ba578287015190505b6148c48582614846565b86555061492c565b601f1984166148da866146b6565b60005b82811015614902578489015182556001820191506020850194506020810190506148dd565b8683101561491f578489015161491b601f891682614828565b8355505b6001600288020188555050505b505050505050565b7f50657420646f6573206e6f742065786973740000000000000000000000000000600082015250565b600061496a601283613b19565b915061497582614934565b602082019050919050565b600060208201905081810360008301526149998161495d565b9050919050565b6000815190506149af81613a28565b92915050565b6000602082840312156149cb576149ca613801565b5b60006149d9848285016149a0565b91505092915050565b7f43616c6c6572206973206e6f742061207374616666206d656d626572206f662060008201527f616e7920696e737469747574696f6e0000000000000000000000000000000000602082015250565b6000614a3e602f83613b19565b9150614a49826149e2565b604082019050919050565b60006020820190508181036000830152614a6d81614a31565b9050919050565b600081519050614a8381613815565b92915050565b600060208284031215614a9f57614a9e613801565b5b6000614aad84828501614a74565b91505092915050565b6000614ac9614ac4846138d7565b6138bc565b905082815260208101848484011115614ae557614ae4613846565b5b614af0848285613b2a565b509392505050565b600082601f830112614b0d57614b0c613841565b5b8151614b1d848260208601614ab6565b91505092915050565b60028110614b3357600080fd5b50565b600081519050614b4581614b26565b92915050565b600080600080600060a08688031215614b6757614b66613801565b5b6000614b7588828901614a74565b955050602086015167ffffffffffffffff811115614b9657614b95613806565b5b614ba288828901614af8565b9450506040614bb388828901614b36565b9350506060614bc4888289016149a0565b9250506080614bd5888289016149a0565b9150509295509295909350565b7f4e487b7100000000000000000000000000000000000000000000000000000000600052602160045260246000fd5b7f43616c6c6572277320696e737469747574696f6e206973206e6f74206120686f60008201527f73706974616c0000000000000000000000000000000000000000000000000000602082015250565b6000614c6d602683613b19565b9150614c7882614c11565b604082019050919050565b60006020820190508181036000830152614c9c81614c60565b9050919050565b6000614cae8261380b565b91507fffffffffffffffffffffffffffffffffffffffffffffffffffffffffffffffff8203614ce057614cdf6145c4565b5b600182019050919050565b7f4e6f742074686520706574206f776e6572000000000000000000000000000000600082015250565b6000614d21601183613b19565b9150614d2c82614ceb565b602082019050919050565b60006020820190508181036000830152614d5081614d14565b9050919050565b600081905092915050565b60008190508160005260206000209050919050565b60008154614d8481614685565b614d8e8186614d57565b94506001821660008114614da95760018114614dbe57614df1565b60ff1983168652811515820286019350614df1565b614dc785614d62565b60005b83811015614de957815481890152600182019150602081019050614dca565b838801955050505b50505092915050565b6000614e068284614d77565b91508190509291505056fea26469706673582212204c873bb46a7533b1dcb4f95727752f587cc4d19b6044dd5dd49f1a5b3bc1ea6364736f6c63430008130033",
  "linkReferences": {},
  "deployedLinkReferences": {}
}