{
  "_format": "hh-sol-artifact-1",
  "contractName": "PetManager",
  "sourceName": "contracts/PetManager.sol",
  "abi": [
    {
      "inputs": [
        {
          "internalType": "address",
          "name": "_userManagerAddress",
          "type": "address"
        }
      ],
      "stateMutability": "nonpayable",
      "type": "constructor"
    },
    {
      "inputs": [
        {
          "internalType": "uint256",
          "name": "_petId",
          "type": "uint256"
        },
        {
          "internalType": "address",
          "name": "_adopter",
          "type": "address"
        },
        {
          "internalType": "string",
          "name": "_notes",
          "type": "string"
        }
      ],
      "name": "addAdoptionEvent",
      "outputs": [],
      "stateMutability": "nonpayable",
      "type": "function"
    },
    {
      "inputs": [
        {
          "internalType": "uint256",
          "name": "_petId",
          "type": "uint256"
        },
        {
          "internalType": "string",
          "name": "_diagnosis",
          "type": "string"
        },
        {
          "internalType": "string",
          "name": "_treatment",
          "type": "string"
        },
        {
          "internalType": "address",
          "name": "_hospital",
          "type": "address"
        },
        {
          "internalType": "address",
          "name": "_doctor",
          "type": "address"
        }
      ],
      "name": "addMedicalEvent",
      "outputs": [],
      "stateMutability": "nonpayable",
      "type": "function"
    },
    {
      "inputs": [
        {
          "internalType": "string",
          "name": "_name",
          "type": "string"
        },
        {
          "internalType": "string",
          "name": "_species",
          "type": "string"
        },
        {
          "internalType": "string",
          "name": "_breed",
          "type": "string"
        },
        {
          "internalType": "string",
          "name": "_gender",
          "type": "string"
        },
        {
          "internalType": "uint256",
          "name": "_age",
          "type": "uint256"
        },
        {
          "internalType": "string",
          "name": "_description",
          "type": "string"
        },
        {
          "internalType": "string",
          "name": "_image",
          "type": "string"
        }
      ],
      "name": "addPet",
      "outputs": [],
      "stateMutability": "nonpayable",
      "type": "function"
    },
    {
      "inputs": [
        {
          "internalType": "string",
          "name": "_location",
          "type": "string"
        },
        {
          "internalType": "string",
          "name": "_description",
          "type": "string"
        }
      ],
      "name": "addRescueRequest",
      "outputs": [
        {
          "internalType": "uint256",
          "name": "",
          "type": "uint256"
        }
      ],
      "stateMutability": "nonpayable",
      "type": "function"
    },
    {
      "inputs": [],
      "name": "adoptionEventIdCounter",
      "outputs": [
        {
          "internalType": "uint256",
          "name": "",
          "type": "uint256"
        }
      ],
      "stateMutability": "view",
      "type": "function"
    },
    {
      "inputs": [
        {
          "internalType": "uint256",
          "name": "",
          "type": "uint256"
        }
      ],
      "name": "adoptionEvents",
      "outputs": [
        {
          "internalType": "uint256",
          "name": "petId",
          "type": "uint256"
        },
        {
          "internalType": "address",
          "name": "adopter",
          "type": "address"
        },
        {
          "internalType": "uint256",
          "name": "timestamp",
          "type": "uint256"
        },
        {
          "internalType": "string",
          "name": "notes",
          "type": "string"
        }
      ],
      "stateMutability": "view",
      "type": "function"
    },
    {
      "inputs": [
        {
          "internalType": "address",
          "name": "_user",
          "type": "address"
        }
      ],
      "name": "getUserPets",
      "outputs": [
        {
          "components": [
            {
              "internalType": "uint256",
              "name": "id",
              "type": "uint256"
            },
            {
              "internalType": "string",
              "name": "name",
              "type": "string"
            },
            {
              "internalType": "string",
              "name": "species",
              "type": "string"
            },
            {
              "internalType": "string",
              "name": "breed",
              "type": "string"
            },
            {
              "internalType": "string",
              "name": "gender",
              "type": "string"
            },
            {
              "internalType": "uint256",
              "name": "age",
              "type": "uint256"
            },
            {
              "internalType": "string",
              "name": "description",
              "type": "string"
            },
            {
              "internalType": "string",
              "name": "image",
              "type": "string"
            },
            {
              "internalType": "string",
              "name": "status",
              "type": "string"
            },
            {
              "internalType": "address",
              "name": "owner",
              "type": "address"
            }
          ],
          "internalType": "struct IMyPetBase.Pet[]",
          "name": "",
          "type": "tuple[]"
        }
      ],
      "stateMutability": "view",
      "type": "function"
    },
    {
      "inputs": [
        {
          "internalType": "uint256",
          "name": "",
          "type": "uint256"
        }
      ],
      "name": "medicalEvents",
      "outputs": [
        {
          "internalType": "uint256",
          "name": "petId",
          "type": "uint256"
        },
        {
          "internalType": "string",
          "name": "diagnosis",
          "type": "string"
        },
        {
          "internalType": "string",
          "name": "treatment",
          "type": "string"
        },
        {
          "internalType": "uint256",
          "name": "timestamp",
          "type": "uint256"
        },
        {
          "internalType": "address",
          "name": "hospital",
          "type": "address"
        },
        {
          "internalType": "address",
          "name": "doctor",
          "type": "address"
        }
      ],
      "stateMutability": "view",
      "type": "function"
    },
    {
      "inputs": [],
      "name": "petIdCounter",
      "outputs": [
        {
          "internalType": "uint256",
          "name": "",
          "type": "uint256"
        }
      ],
      "stateMutability": "view",
      "type": "function"
    },
    {
      "inputs": [
        {
          "internalType": "uint256",
          "name": "",
          "type": "uint256"
        }
      ],
      "name": "pets",
      "outputs": [
        {
          "internalType": "uint256",
          "name": "id",
          "type": "uint256"
        },
        {
          "internalType": "string",
          "name": "name",
          "type": "string"
        },
        {
          "internalType": "string",
          "name": "species",
          "type": "string"
        },
        {
          "internalType": "string",
          "name": "breed",
          "type": "string"
        },
        {
          "internalType": "string",
          "name": "gender",
          "type": "string"
        },
        {
          "internalType": "uint256",
          "name": "age",
          "type": "uint256"
        },
        {
          "internalType": "string",
          "name": "description",
          "type": "string"
        },
        {
          "internalType": "string",
          "name": "image",
          "type": "string"
        },
        {
          "internalType": "string",
          "name": "status",
          "type": "string"
        },
        {
          "internalType": "address",
          "name": "owner",
          "type": "address"
        }
      ],
      "stateMutability": "view",
      "type": "function"
    },
    {
      "inputs": [
        {
          "internalType": "uint256",
          "name": "_petId",
          "type": "uint256"
        }
      ],
      "name": "removePet",
      "outputs": [],
      "stateMutability": "nonpayable",
      "type": "function"
    },
    {
      "inputs": [],
      "name": "rescueRequestIdCounter",
      "outputs": [
        {
          "internalType": "uint256",
          "name": "",
          "type": "uint256"
        }
      ],
      "stateMutability": "view",
      "type": "function"
    },
    {
      "inputs": [
        {
          "internalType": "uint256",
          "name": "",
          "type": "uint256"
        }
      ],
      "name": "rescueRequests",
      "outputs": [
        {
          "internalType": "uint256",
          "name": "id",
          "type": "uint256"
        },
        {
          "internalType": "string",
          "name": "location",
          "type": "string"
        },
        {
          "internalType": "string",
          "name": "description",
          "type": "string"
        },
        {
          "internalType": "string",
          "name": "status",
          "type": "string"
        },
        {
          "internalType": "uint256",
          "name": "responderOrgId",
          "type": "uint256"
        },
        {
          "internalType": "uint256",
          "name": "timestamp",
          "type": "uint256"
        }
      ],
      "stateMutability": "view",
      "type": "function"
    },
    {
      "inputs": [
        {
          "internalType": "uint256",
          "name": "_petId",
          "type": "uint256"
        },
        {
          "internalType": "string",
          "name": "_name",
          "type": "string"
        },
        {
          "internalType": "string",
          "name": "_species",
          "type": "string"
        },
        {
          "internalType": "string",
          "name": "_breed",
          "type": "string"
        },
        {
          "internalType": "string",
          "name": "_gender",
          "type": "string"
        },
        {
          "internalType": "uint256",
          "name": "_age",
          "type": "uint256"
        },
        {
          "internalType": "string",
          "name": "_description",
          "type": "string"
        },
        {
          "internalType": "string",
          "name": "_image",
          "type": "string"
        }
      ],
      "name": "updatePet",
      "outputs": [],
      "stateMutability": "nonpayable",
      "type": "function"
    },
    {
      "inputs": [
        {
          "internalType": "uint256",
          "name": "_requestId",
          "type": "uint256"
        },
        {
          "internalType": "string",
          "name": "_status",
          "type": "string"
        },
        {
          "internalType": "uint256",
          "name": "_responderOrgId",
          "type": "uint256"
        }
      ],
      "name": "updateRescueRequestStatus",
      "outputs": [],
      "stateMutability": "nonpayable",
      "type": "function"
    },
    {
      "inputs": [],
      "name": "userManagerAddress",
      "outputs": [
        {
          "internalType": "address",
          "name": "",
          "type": "address"
        }
      ],
      "stateMutability": "view",
      "type": "function"
    }
  ],
  "bytecode": "0x60a060405260018055600160055560016006553480156200001f57600080fd5b50604051620033023803806200330283398181016040528101906200004591906200015c565b600073ffffffffffffffffffffffffffffffffffffffff168173ffffffffffffffffffffffffffffffffffffffff1603620000b7576040517f08c379a0000000000000000000000000000000000000000000000000000000008152600401620000ae90620001ef565b60405180910390fd5b8073ffffffffffffffffffffffffffffffffffffffff1660808173ffffffffffffffffffffffffffffffffffffffff16815250505062000211565b600080fd5b600073ffffffffffffffffffffffffffffffffffffffff82169050919050565b60006200012482620000f7565b9050919050565b620001368162000117565b81146200014257600080fd5b50565b60008151905062000156816200012b565b92915050565b600060208284031215620001755762000174620000f2565b5b6000620001858482850162000145565b91505092915050565b600082825260208201905092915050565b7f496e76616c69642075736572206d616e61676572206164647265737300000000600082015250565b6000620001d7601c836200018e565b9150620001e4826200019f565b602082019050919050565b600060208201905081810360008301526200020a81620001c8565b9050919050565b6080516130d56200022d600039600061091f01526130d56000f3fe608060405234801561001057600080fd5b50600436106101005760003560e01c80638e5e7d6711610097578063cfb869bf11610066578063cfb869bf146102b6578063d89f4f4e146102ef578063eda95cb71461031f578063f664d9421461033d57610100565b80638e5e7d67146102325780639ffe15611461024e578063ba8cd5321461026a578063bf37ebf11461029a57610100565b80634d1def2c116100d35780634d1def2c146101a557806350c688b3146101c357806359f95c25146101f85780637fab802a1461021657610100565b80630c0e88df146101055780632912dce314610121578063469108561461013d5780634a95525d14610170575b600080fd5b61011f600480360381019061011a9190612119565b61035b565b005b61013b600480360381019061013691906121e6565b6103fe565b005b61015760048036038101906101529190612255565b610699565b604051610167949392919061231f565b60405180910390f35b61018a60048036038101906101859190612255565b610781565b60405161019c9695949392919061236b565b60405180910390f35b6101ad61091d565b6040516101ba91906123da565b60405180910390f35b6101dd60048036038101906101d89190612255565b610941565b6040516101ef969594939291906123f5565b60405180910390f35b610200610b25565b60405161020d919061246b565b60405180910390f35b610230600480360381019061022b9190612486565b610b2b565b005b61024c60048036038101906102479190612255565b610d78565b005b610268600480360381019061026391906125d0565b610fb0565b005b610284600480360381019061027f919061272e565b611170565b6040516102919190612989565b60405180910390f35b6102b460048036038101906102af91906129ab565b611807565b005b6102d060048036038101906102cb9190612255565b6119b8565b6040516102e69a99989796959493929190612a5e565b60405180910390f35b61030960048036038101906103049190612b2b565b611df4565b604051610316919061246b565b60405180910390f35b610327611f14565b604051610334919061246b565b60405180910390f35b610345611f1a565b604051610352919061246b565b60405180910390f35b60008311801561036c575060065483105b6103ab576040517f08c379a00000000000000000000000000000000000000000000000000000000081526004016103a290612bef565b60405180910390fd5b600060046001856103bc9190612c3e565b815481106103cd576103cc612c72565b5b90600052602060002090600602019050828160030190816103ee9190612ead565b5081816004018190555050505050565b60008311801561040f575060015483105b61044e576040517f08c379a000000000000000000000000000000000000000000000000000000000815260040161044590612fcb565b60405180910390fd5b600060405180608001604052808581526020018473ffffffffffffffffffffffffffffffffffffffff16815260200142815260200183815250905060028190806001815401808255809150506001900390600052602060002090600402016000909190919091506000820151816000015560208201518160010160006101000a81548173ffffffffffffffffffffffffffffffffffffffff021916908373ffffffffffffffffffffffffffffffffffffffff1602179055506040820151816002015560608201518160030190816105259190612ead565b5050506000806001866105389190612c3e565b8154811061054957610548612c72565b5b90600052602060002090600a020190506000600760008360090160009054906101000a900473ffffffffffffffffffffffffffffffffffffffff1673ffffffffffffffffffffffffffffffffffffffff1673ffffffffffffffffffffffffffffffffffffffff168152602001908152602001600020600087815260200190815260200160002060006101000a81548160ff021916908315150217905550838160090160006101000a81548173ffffffffffffffffffffffffffffffffffffffff021916908373ffffffffffffffffffffffffffffffffffffffff1602179055506001600760008673ffffffffffffffffffffffffffffffffffffffff1673ffffffffffffffffffffffffffffffffffffffff168152602001908152602001600020600087815260200190815260200160002060006101000a81548160ff0219169083151502179055505050505050565b600281815481106106a957600080fd5b90600052602060002090600402016000915090508060000154908060010160009054906101000a900473ffffffffffffffffffffffffffffffffffffffff16908060020154908060030180546106fe90612cd0565b80601f016020809104026020016040519081016040528092919081815260200182805461072a90612cd0565b80156107775780601f1061074c57610100808354040283529160200191610777565b820191906000526020600020905b81548152906001019060200180831161075a57829003601f168201915b5050505050905084565b6003818154811061079157600080fd5b90600052602060002090600602016000915090508060000154908060010180546107ba90612cd0565b80601f01602080910402602001604051908101604052809291908181526020018280546107e690612cd0565b80156108335780601f1061080857610100808354040283529160200191610833565b820191906000526020600020905b81548152906001019060200180831161081657829003601f168201915b50505050509080600201805461084890612cd0565b80601f016020809104026020016040519081016040528092919081815260200182805461087490612cd0565b80156108c15780601f10610896576101008083540402835291602001916108c1565b820191906000526020600020905b8154815290600101906020018083116108a457829003601f168201915b5050505050908060030154908060040160009054906101000a900473ffffffffffffffffffffffffffffffffffffffff16908060050160009054906101000a900473ffffffffffffffffffffffffffffffffffffffff16905086565b7f000000000000000000000000000000000000000000000000000000000000000081565b6004818154811061095157600080fd5b906000526020600020906006020160009150905080600001549080600101805461097a90612cd0565b80601f01602080910402602001604051908101604052809291908181526020018280546109a690612cd0565b80156109f35780601f106109c8576101008083540402835291602001916109f3565b820191906000526020600020905b8154815290600101906020018083116109d657829003601f168201915b505050505090806002018054610a0890612cd0565b80601f0160208091040260200160405190810160405280929190818152602001828054610a3490612cd0565b8015610a815780601f10610a5657610100808354040283529160200191610a81565b820191906000526020600020905b815481529060010190602001808311610a6457829003601f168201915b505050505090806003018054610a9690612cd0565b80601f0160208091040260200160405190810160405280929190818152602001828054610ac290612cd0565b8015610b0f5780601f10610ae457610100808354040283529160200191610b0f565b820191906000526020600020905b815481529060010190602001808311610af257829003601f168201915b5050505050908060040154908060050154905086565b60015481565b6000600154905060016000815480929190610b4590612feb565b919050555060006040518061014001604052808381526020018a81526020018981526020018881526020018781526020018681526020018581526020018481526020016040518060400160405280600681526020017f616374697665000000000000000000000000000000000000000000000000000081525081526020013373ffffffffffffffffffffffffffffffffffffffff16815250905060008190806001815401808255809150506001900390600052602060002090600a0201600090919091909150600082015181600001556020820151816001019081610c2a9190612ead565b506040820151816002019081610c409190612ead565b506060820151816003019081610c569190612ead565b506080820151816004019081610c6c9190612ead565b5060a0820151816005015560c0820151816006019081610c8c9190612ead565b5060e0820151816007019081610ca29190612ead565b50610100820151816008019081610cb99190612ead565b506101208201518160090160006101000a81548173ffffffffffffffffffffffffffffffffffffffff021916908373ffffffffffffffffffffffffffffffffffffffff16021790555050506001600760003373ffffffffffffffffffffffffffffffffffffffff1673ffffffffffffffffffffffffffffffffffffffff168152602001908152602001600020600084815260200190815260200160002060006101000a81548160ff021916908315150217905550505050505050505050565b600081118015610d89575060015481105b610dc8576040517f08c379a0000000000000000000000000000000000000000000000000000000008152600401610dbf90612fcb565b60405180910390fd5b3373ffffffffffffffffffffffffffffffffffffffff166000600183610dee9190612c3e565b81548110610dff57610dfe612c72565b5b90600052602060002090600a020160090160009054906101000a900473ffffffffffffffffffffffffffffffffffffffff1673ffffffffffffffffffffffffffffffffffffffff1614610e87576040517f08c379a0000000000000000000000000000000000000000000000000000000008152600401610e7e9061307f565b60405180910390fd5b600080600183610e979190612c3e565b81548110610ea857610ea7612c72565b5b90600052602060002090600a020190506040518060400160405280600781526020017f72656d6f76656400000000000000000000000000000000000000000000000000815250816008019081610efe9190612ead565b5060008160090160006101000a81548173ffffffffffffffffffffffffffffffffffffffff021916908373ffffffffffffffffffffffffffffffffffffffff1602179055506000600760003373ffffffffffffffffffffffffffffffffffffffff1673ffffffffffffffffffffffffffffffffffffffff168152602001908152602001600020600084815260200190815260200160002060006101000a81548160ff0219169083151502179055505050565b600088118015610fc1575060015488105b611000576040517f08c379a0000000000000000000000000000000000000000000000000000000008152600401610ff790612fcb565b60405180910390fd5b3373ffffffffffffffffffffffffffffffffffffffff16600060018a6110269190612c3e565b8154811061103757611036612c72565b5b90600052602060002090600a020160090160009054906101000a900473ffffffffffffffffffffffffffffffffffffffff1673ffffffffffffffffffffffffffffffffffffffff16146110bf576040517f08c379a00000000000000000000000000000000000000000000000000000000081526004016110b69061307f565b60405180910390fd5b60008060018a6110cf9190612c3e565b815481106110e0576110df612c72565b5b90600052602060002090600a02019050878160010190816111019190612ead565b50868160020190816111139190612ead565b50858160030190816111259190612ead565b50848160040190816111379190612ead565b50838160050181905550828160060190816111529190612ead565b50818160070190816111649190612ead565b50505050505050505050565b6060600080600190505b60015481101561122a578373ffffffffffffffffffffffffffffffffffffffff1660006001836111aa9190612c3e565b815481106111bb576111ba612c72565b5b90600052602060002090600a020160090160009054906101000a900473ffffffffffffffffffffffffffffffffffffffff1673ffffffffffffffffffffffffffffffffffffffff160361121757818061121390612feb565b9250505b808061122290612feb565b91505061117a565b5060008167ffffffffffffffff81111561124757611246611fee565b5b60405190808252806020026020018201604052801561128057816020015b61126d611f20565b8152602001906001900390816112655790505b509050600080600190505b6001548110156117fb578573ffffffffffffffffffffffffffffffffffffffff1660006001836112bb9190612c3e565b815481106112cc576112cb612c72565b5b90600052602060002090600a020160090160009054906101000a900473ffffffffffffffffffffffffffffffffffffffff1673ffffffffffffffffffffffffffffffffffffffff16036117e85760006001826113289190612c3e565b8154811061133957611338612c72565b5b90600052602060002090600a0201604051806101400160405290816000820154815260200160018201805461136d90612cd0565b80601f016020809104026020016040519081016040528092919081815260200182805461139990612cd0565b80156113e65780601f106113bb576101008083540402835291602001916113e6565b820191906000526020600020905b8154815290600101906020018083116113c957829003601f168201915b505050505081526020016002820180546113ff90612cd0565b80601f016020809104026020016040519081016040528092919081815260200182805461142b90612cd0565b80156114785780601f1061144d57610100808354040283529160200191611478565b820191906000526020600020905b81548152906001019060200180831161145b57829003601f168201915b5050505050815260200160038201805461149190612cd0565b80601f01602080910402602001604051908101604052809291908181526020018280546114bd90612cd0565b801561150a5780601f106114df5761010080835404028352916020019161150a565b820191906000526020600020905b8154815290600101906020018083116114ed57829003601f168201915b5050505050815260200160048201805461152390612cd0565b80601f016020809104026020016040519081016040528092919081815260200182805461154f90612cd0565b801561159c5780601f106115715761010080835404028352916020019161159c565b820191906000526020600020905b81548152906001019060200180831161157f57829003601f168201915b50505050508152602001600582015481526020016006820180546115bf90612cd0565b80601f01602080910402602001604051908101604052809291908181526020018280546115eb90612cd0565b80156116385780601f1061160d57610100808354040283529160200191611638565b820191906000526020600020905b81548152906001019060200180831161161b57829003601f168201915b5050505050815260200160078201805461165190612cd0565b80601f016020809104026020016040519081016040528092919081815260200182805461167d90612cd0565b80156116ca5780601f1061169f576101008083540402835291602001916116ca565b820191906000526020600020905b8154815290600101906020018083116116ad57829003601f168201915b505050505081526020016008820180546116e390612cd0565b80601f016020809104026020016040519081016040528092919081815260200182805461170f90612cd0565b801561175c5780601f106117315761010080835404028352916020019161175c565b820191906000526020600020905b81548152906001019060200180831161173f57829003601f168201915b505050505081526020016009820160009054906101000a900473ffffffffffffffffffffffffffffffffffffffff1673ffffffffffffffffffffffffffffffffffffffff1673ffffffffffffffffffffffffffffffffffffffff16815250508383815181106117ce576117cd612c72565b5b602002602001018190525081806117e490612feb565b9250505b80806117f390612feb565b91505061128b565b50819350505050919050565b600085118015611818575060015485105b611857576040517f08c379a000000000000000000000000000000000000000000000000000000000815260040161184e90612fcb565b60405180910390fd5b60006040518060c001604052808781526020018681526020018581526020014281526020018473ffffffffffffffffffffffffffffffffffffffff1681526020018373ffffffffffffffffffffffffffffffffffffffff16815250905060038190806001815401808255809150506001900390600052602060002090600602016000909190919091506000820151816000015560208201518160010190816118ff9190612ead565b5060408201518160020190816119159190612ead565b506060820151816003015560808201518160040160006101000a81548173ffffffffffffffffffffffffffffffffffffffff021916908373ffffffffffffffffffffffffffffffffffffffff16021790555060a08201518160050160006101000a81548173ffffffffffffffffffffffffffffffffffffffff021916908373ffffffffffffffffffffffffffffffffffffffff1602179055505050505050505050565b600081815481106119c857600080fd5b90600052602060002090600a02016000915090508060000154908060010180546119f190612cd0565b80601f0160208091040260200160405190810160405280929190818152602001828054611a1d90612cd0565b8015611a6a5780601f10611a3f57610100808354040283529160200191611a6a565b820191906000526020600020905b815481529060010190602001808311611a4d57829003601f168201915b505050505090806002018054611a7f90612cd0565b80601f0160208091040260200160405190810160405280929190818152602001828054611aab90612cd0565b8015611af85780601f10611acd57610100808354040283529160200191611af8565b820191906000526020600020905b815481529060010190602001808311611adb57829003601f168201915b505050505090806003018054611b0d90612cd0565b80601f0160208091040260200160405190810160405280929190818152602001828054611b3990612cd0565b8015611b865780601f10611b5b57610100808354040283529160200191611b86565b820191906000526020600020905b815481529060010190602001808311611b6957829003601f168201915b505050505090806004018054611b9b90612cd0565b80601f0160208091040260200160405190810160405280929190818152602001828054611bc790612cd0565b8015611c145780601f10611be957610100808354040283529160200191611c14565b820191906000526020600020905b815481529060010190602001808311611bf757829003601f168201915b505050505090806005015490806006018054611c2f90612cd0565b80601f0160208091040260200160405190810160405280929190818152602001828054611c5b90612cd0565b8015611ca85780601f10611c7d57610100808354040283529160200191611ca8565b820191906000526020600020905b815481529060010190602001808311611c8b57829003601f168201915b505050505090806007018054611cbd90612cd0565b80601f0160208091040260200160405190810160405280929190818152602001828054611ce990612cd0565b8015611d365780601f10611d0b57610100808354040283529160200191611d36565b820191906000526020600020905b815481529060010190602001808311611d1957829003601f168201915b505050505090806008018054611d4b90612cd0565b80601f0160208091040260200160405190810160405280929190818152602001828054611d7790612cd0565b8015611dc45780601f10611d9957610100808354040283529160200191611dc4565b820191906000526020600020905b815481529060010190602001808311611da757829003601f168201915b5050505050908060090160009054906101000a900473ffffffffffffffffffffffffffffffffffffffff1690508a565b600080600654905060066000815480929190611e0f90612feb565b919050555060006040518060c001604052808381526020018681526020018581526020016040518060400160405280600781526020017f70656e64696e67000000000000000000000000000000000000000000000000008152508152602001600081526020014281525090506004819080600181540180825580915050600190039060005260206000209060060201600090919091909150600082015181600001556020820151816001019081611ec69190612ead565b506040820151816002019081611edc9190612ead565b506060820151816003019081611ef29190612ead565b506080820151816004015560a082015181600501555050819250505092915050565b60065481565b60055481565b604051806101400160405280600081526020016060815260200160608152602001606081526020016060815260200160008152602001606081526020016060815260200160608152602001600073ffffffffffffffffffffffffffffffffffffffff1681525090565b6000604051905090565b600080fd5b600080fd5b6000819050919050565b611fb081611f9d565b8114611fbb57600080fd5b50565b600081359050611fcd81611fa7565b92915050565b600080fd5b600080fd5b6000601f19601f8301169050919050565b7f4e487b7100000000000000000000000000000000000000000000000000000000600052604160045260246000fd5b61202682611fdd565b810181811067ffffffffffffffff8211171561204557612044611fee565b5b80604052505050565b6000612058611f89565b9050612064828261201d565b919050565b600067ffffffffffffffff82111561208457612083611fee565b5b61208d82611fdd565b9050602081019050919050565b82818337600083830152505050565b60006120bc6120b784612069565b61204e565b9050828152602081018484840111156120d8576120d7611fd8565b5b6120e384828561209a565b509392505050565b600082601f830112612100576120ff611fd3565b5b81356121108482602086016120a9565b91505092915050565b60008060006060848603121561213257612131611f93565b5b600061214086828701611fbe565b935050602084013567ffffffffffffffff81111561216157612160611f98565b5b61216d868287016120eb565b925050604061217e86828701611fbe565b9150509250925092565b600073ffffffffffffffffffffffffffffffffffffffff82169050919050565b60006121b382612188565b9050919050565b6121c3816121a8565b81146121ce57600080fd5b50565b6000813590506121e0816121ba565b92915050565b6000806000606084860312156121ff576121fe611f93565b5b600061220d86828701611fbe565b935050602061221e868287016121d1565b925050604084013567ffffffffffffffff81111561223f5761223e611f98565b5b61224b868287016120eb565b9150509250925092565b60006020828403121561226b5761226a611f93565b5b600061227984828501611fbe565b91505092915050565b61228b81611f9d565b82525050565b61229a816121a8565b82525050565b600081519050919050565b600082825260208201905092915050565b60005b838110156122da5780820151818401526020810190506122bf565b60008484015250505050565b60006122f1826122a0565b6122fb81856122ab565b935061230b8185602086016122bc565b61231481611fdd565b840191505092915050565b60006080820190506123346000830187612282565b6123416020830186612291565b61234e6040830185612282565b818103606083015261236081846122e6565b905095945050505050565b600060c0820190506123806000830189612282565b818103602083015261239281886122e6565b905081810360408301526123a681876122e6565b90506123b56060830186612282565b6123c26080830185612291565b6123cf60a0830184612291565b979650505050505050565b60006020820190506123ef6000830184612291565b92915050565b600060c08201905061240a6000830189612282565b818103602083015261241c81886122e6565b9050818103604083015261243081876122e6565b9050818103606083015261244481866122e6565b90506124536080830185612282565b61246060a0830184612282565b979650505050505050565b60006020820190506124806000830184612282565b92915050565b600080600080600080600060e0888a0312156124a5576124a4611f93565b5b600088013567ffffffffffffffff8111156124c3576124c2611f98565b5b6124cf8a828b016120eb565b975050602088013567ffffffffffffffff8111156124f0576124ef611f98565b5b6124fc8a828b016120eb565b965050604088013567ffffffffffffffff81111561251d5761251c611f98565b5b6125298a828b016120eb565b955050606088013567ffffffffffffffff81111561254a57612549611f98565b5b6125568a828b016120eb565b94505060806125678a828b01611fbe565b93505060a088013567ffffffffffffffff81111561258857612587611f98565b5b6125948a828b016120eb565b92505060c088013567ffffffffffffffff8111156125b5576125b4611f98565b5b6125c18a828b016120eb565b91505092959891949750929550565b600080600080600080600080610100898b0312156125f1576125f0611f93565b5b60006125ff8b828c01611fbe565b985050602089013567ffffffffffffffff8111156126205761261f611f98565b5b61262c8b828c016120eb565b975050604089013567ffffffffffffffff81111561264d5761264c611f98565b5b6126598b828c016120eb565b965050606089013567ffffffffffffffff81111561267a57612679611f98565b5b6126868b828c016120eb565b955050608089013567ffffffffffffffff8111156126a7576126a6611f98565b5b6126b38b828c016120eb565b94505060a06126c48b828c01611fbe565b93505060c089013567ffffffffffffffff8111156126e5576126e4611f98565b5b6126f18b828c016120eb565b92505060e089013567ffffffffffffffff81111561271257612711611f98565b5b61271e8b828c016120eb565b9150509295985092959890939650565b60006020828403121561274457612743611f93565b5b6000612752848285016121d1565b91505092915050565b600081519050919050565b600082825260208201905092915050565b6000819050602082019050919050565b61279081611f9d565b82525050565b600082825260208201905092915050565b60006127b2826122a0565b6127bc8185612796565b93506127cc8185602086016122bc565b6127d581611fdd565b840191505092915050565b6127e9816121a8565b82525050565b6000610140830160008301516128086000860182612787565b506020830151848203602086015261282082826127a7565b9150506040830151848203604086015261283a82826127a7565b9150506060830151848203606086015261285482826127a7565b9150506080830151848203608086015261286e82826127a7565b91505060a083015161288360a0860182612787565b5060c083015184820360c086015261289b82826127a7565b91505060e083015184820360e08601526128b582826127a7565b9150506101008301518482036101008601526128d182826127a7565b9150506101208301516128e86101208601826127e0565b508091505092915050565b60006128ff83836127ef565b905092915050565b6000602082019050919050565b600061291f8261275b565b6129298185612766565b93508360208202850161293b85612777565b8060005b85811015612977578484038952815161295885826128f3565b945061296383612907565b925060208a0199505060018101905061293f565b50829750879550505050505092915050565b600060208201905081810360008301526129a38184612914565b905092915050565b600080600080600060a086880312156129c7576129c6611f93565b5b60006129d588828901611fbe565b955050602086013567ffffffffffffffff8111156129f6576129f5611f98565b5b612a02888289016120eb565b945050604086013567ffffffffffffffff811115612a2357612a22611f98565b5b612a2f888289016120eb565b9350506060612a40888289016121d1565b9250506080612a51888289016121d1565b9150509295509295909350565b600061014082019050612a74600083018d612282565b8181036020830152612a86818c6122e6565b90508181036040830152612a9a818b6122e6565b90508181036060830152612aae818a6122e6565b90508181036080830152612ac281896122e6565b9050612ad160a0830188612282565b81810360c0830152612ae381876122e6565b905081810360e0830152612af781866122e6565b9050818103610100830152612b0c81856122e6565b9050612b1c610120830184612291565b9b9a5050505050505050505050565b60008060408385031215612b4257612b41611f93565b5b600083013567ffffffffffffffff811115612b6057612b5f611f98565b5b612b6c858286016120eb565b925050602083013567ffffffffffffffff811115612b8d57612b8c611f98565b5b612b99858286016120eb565b9150509250929050565b7f5265717565737420646f6573206e6f7420657869737400000000000000000000600082015250565b6000612bd96016836122ab565b9150612be482612ba3565b602082019050919050565b60006020820190508181036000830152612c0881612bcc565b9050919050565b7f4e487b7100000000000000000000000000000000000000000000000000000000600052601160045260246000fd5b6000612c4982611f9d565b9150612c5483611f9d565b9250828203905081811115612c6c57612c6b612c0f565b5b92915050565b7f4e487b7100000000000000000000000000000000000000000000000000000000600052603260045260246000fd5b7f4e487b7100000000000000000000000000000000000000000000000000000000600052602260045260246000fd5b60006002820490506001821680612ce857607f821691505b602082108103612cfb57612cfa612ca1565b5b50919050565b60008190508160005260206000209050919050565b60006020601f8301049050919050565b600082821b905092915050565b600060088302612d637fffffffffffffffffffffffffffffffffffffffffffffffffffffffffffffffff82612d26565b612d6d8683612d26565b95508019841693508086168417925050509392505050565b6000819050919050565b6000612daa612da5612da084611f9d565b612d85565b611f9d565b9050919050565b6000819050919050565b612dc483612d8f565b612dd8612dd082612db1565b848454612d33565b825550505050565b600090565b612ded612de0565b612df8818484612dbb565b505050565b5b81811015612e1c57612e11600082612de5565b600181019050612dfe565b5050565b601f821115612e6157612e3281612d01565b612e3b84612d16565b81016020851015612e4a578190505b612e5e612e5685612d16565b830182612dfd565b50505b505050565b600082821c905092915050565b6000612e8460001984600802612e66565b1980831691505092915050565b6000612e9d8383612e73565b9150826002028217905092915050565b612eb6826122a0565b67ffffffffffffffff811115612ecf57612ece611fee565b5b612ed98254612cd0565b612ee4828285612e20565b600060209050601f831160018114612f175760008415612f05578287015190505b612f0f8582612e91565b865550612f77565b601f198416612f2586612d01565b60005b82811015612f4d57848901518255600182019150602085019450602081019050612f28565b86831015612f6a5784890151612f66601f891682612e73565b8355505b6001600288020188555050505b505050505050565b7f50657420646f6573206e6f742065786973740000000000000000000000000000600082015250565b6000612fb56012836122ab565b9150612fc082612f7f565b602082019050919050565b60006020820190508181036000830152612fe481612fa8565b9050919050565b6000612ff682611f9d565b91507fffffffffffffffffffffffffffffffffffffffffffffffffffffffffffffffff820361302857613027612c0f565b5b600182019050919050565b7f4e6f742074686520706574206f776e6572000000000000000000000000000000600082015250565b60006130696011836122ab565b915061307482613033565b602082019050919050565b600060208201905081810360008301526130988161305c565b905091905056fea2646970667358221220c375159d2772e68b7ff5bd1d8800ee6b427da3860437d45fb5645db6726a239d64736f6c63430008130033",
  "linkReferences": {},
  "deployedLinkReferences": {}
}