{
  "_format": "hh-sol-artifact-1",
  "contractName": "PetManager",
  "sourceName": "contracts/PetManager.sol",
  "abi": [
    {
      "inputs": [
        {
          "internalType": "address",
          "name": "_userManagerAddress",
          "type": "address"
        },
        {
          "internalType": "address",
          "name": "_institutionManagerAddress",
          "type": "address"
        }
      ],
      "stateMutability": "nonpayable",
      "type": "constructor"
    },
    {
      "anonymous": false,
      "inputs": [
        {
          "indexed": true,
          "internalType": "uint256",
          "name": "eventId",
          "type": "uint256"
        },
        {
          "indexed": true,
          "internalType": "uint256",
          "name": "petId",
          "type": "uint256"
        },
        {
          "indexed": true,
          "internalType": "address",
          "name": "adopter",
          "type": "address"
        },
        {
          "indexed": false,
          "internalType": "address",
          "name": "previousOwner",
          "type": "address"
        },
        {
          "indexed": false,
          "internalType": "uint256",
          "name": "timestamp",
          "type": "uint256"
        }
      ],
      "name": "AdoptionEventAdded",
      "type": "event"
    },
    {
      "anonymous": false,
      "inputs": [
        {
          "indexed": true,
          "internalType": "uint256",
          "name": "eventId",
          "type": "uint256"
        },
        {
          "indexed": true,
          "internalType": "uint256",
          "name": "petId",
          "type": "uint256"
        },
        {
          "indexed": true,
          "internalType": "address",
          "name": "doctor",
          "type": "address"
        },
        {
          "indexed": false,
          "internalType": "uint256",
          "name": "hospitalId",
          "type": "uint256"
        },
        {
          "indexed": false,
          "internalType": "uint256",
          "name": "timestamp",
          "type": "uint256"
        }
      ],
      "name": "MedicalEventAdded",
      "type": "event"
    },
    {
      "anonymous": false,
      "inputs": [
        {
          "indexed": true,
          "internalType": "uint256",
          "name": "petId",
          "type": "uint256"
        },
        {
          "indexed": false,
          "internalType": "string",
          "name": "name",
          "type": "string"
        },
        {
          "indexed": true,
          "internalType": "address",
          "name": "owner",
          "type": "address"
        },
        {
          "indexed": false,
          "internalType": "uint256",
          "name": "timestamp",
          "type": "uint256"
        }
      ],
      "name": "PetAdded",
      "type": "event"
    },
    {
      "anonymous": false,
      "inputs": [
        {
          "indexed": true,
          "internalType": "uint256",
          "name": "petId",
          "type": "uint256"
        },
        {
          "indexed": false,
          "internalType": "enum IMyPetBase.PetAdoptionStatus",
          "name": "adoptionStatus",
          "type": "uint8"
        },
        {
          "indexed": false,
          "internalType": "address",
          "name": "updatedBy",
          "type": "address"
        },
        {
          "indexed": false,
          "internalType": "uint256",
          "name": "timestamp",
          "type": "uint256"
        }
      ],
      "name": "PetAdoptionStatusUpdated",
      "type": "event"
    },
    {
      "anonymous": false,
      "inputs": [
        {
          "indexed": true,
          "internalType": "uint256",
          "name": "petId",
          "type": "uint256"
        },
        {
          "indexed": false,
          "internalType": "enum IMyPetBase.PetHealthStatus",
          "name": "healthStatus",
          "type": "uint8"
        },
        {
          "indexed": false,
          "internalType": "address",
          "name": "updatedBy",
          "type": "address"
        },
        {
          "indexed": false,
          "internalType": "uint256",
          "name": "timestamp",
          "type": "uint256"
        }
      ],
      "name": "PetHealthStatusUpdated",
      "type": "event"
    },
    {
      "anonymous": false,
      "inputs": [
        {
          "indexed": true,
          "internalType": "uint256",
          "name": "petId",
          "type": "uint256"
        },
        {
          "indexed": true,
          "internalType": "address",
          "name": "previousOwner",
          "type": "address"
        },
        {
          "indexed": false,
          "internalType": "uint256",
          "name": "timestamp",
          "type": "uint256"
        }
      ],
      "name": "PetRemoved",
      "type": "event"
    },
    {
      "anonymous": false,
      "inputs": [
        {
          "indexed": true,
          "internalType": "uint256",
          "name": "petId",
          "type": "uint256"
        },
        {
          "indexed": false,
          "internalType": "string",
          "name": "name",
          "type": "string"
        },
        {
          "indexed": true,
          "internalType": "address",
          "name": "owner",
          "type": "address"
        },
        {
          "indexed": false,
          "internalType": "uint256",
          "name": "timestamp",
          "type": "uint256"
        }
      ],
      "name": "PetUpdated",
      "type": "event"
    },
    {
      "anonymous": false,
      "inputs": [
        {
          "indexed": true,
          "internalType": "uint256",
          "name": "requestId",
          "type": "uint256"
        },
        {
          "indexed": true,
          "internalType": "address",
          "name": "requester",
          "type": "address"
        },
        {
          "indexed": false,
          "internalType": "string",
          "name": "location",
          "type": "string"
        },
        {
          "indexed": false,
          "internalType": "uint256",
          "name": "urgencyLevel",
          "type": "uint256"
        },
        {
          "indexed": false,
          "internalType": "uint256",
          "name": "timestamp",
          "type": "uint256"
        }
      ],
      "name": "RescueRequestAdded",
      "type": "event"
    },
    {
      "anonymous": false,
      "inputs": [
        {
          "indexed": true,
          "internalType": "uint256",
          "name": "requestId",
          "type": "uint256"
        },
        {
          "indexed": false,
          "internalType": "string",
          "name": "status",
          "type": "string"
        },
        {
          "indexed": false,
          "internalType": "uint256",
          "name": "responderOrgId",
          "type": "uint256"
        },
        {
          "indexed": false,
          "internalType": "uint256",
          "name": "timestamp",
          "type": "uint256"
        }
      ],
      "name": "RescueRequestStatusUpdated",
      "type": "event"
    },
    {
      "inputs": [
        {
          "internalType": "uint256",
          "name": "_petId",
          "type": "uint256"
        },
        {
          "internalType": "address",
          "name": "_adopter",
          "type": "address"
        },
        {
          "internalType": "string",
          "name": "_notes",
          "type": "string"
        },
        {
          "internalType": "uint256",
          "name": "_institutionId",
          "type": "uint256"
        }
      ],
      "name": "addAdoptionEvent",
      "outputs": [
        {
          "internalType": "uint256",
          "name": "",
          "type": "uint256"
        }
      ],
      "stateMutability": "nonpayable",
      "type": "function"
    },
    {
      "inputs": [
        {
          "internalType": "uint256",
          "name": "_petId",
          "type": "uint256"
        },
        {
          "internalType": "string",
          "name": "_diagnosis",
          "type": "string"
        },
        {
          "internalType": "string",
          "name": "_treatment",
          "type": "string"
        },
        {
          "internalType": "uint256",
          "name": "_cost",
          "type": "uint256"
        },
        {
          "internalType": "string[]",
          "name": "_attachments",
          "type": "string[]"
        }
      ],
      "name": "addMedicalEvent",
      "outputs": [
        {
          "internalType": "uint256",
          "name": "",
          "type": "uint256"
        }
      ],
      "stateMutability": "nonpayable",
      "type": "function"
    },
    {
      "inputs": [
        {
          "internalType": "string",
          "name": "_name",
          "type": "string"
        },
        {
          "internalType": "string",
          "name": "_species",
          "type": "string"
        },
        {
          "internalType": "string",
          "name": "_breed",
          "type": "string"
        },
        {
          "internalType": "string",
          "name": "_gender",
          "type": "string"
        },
        {
          "internalType": "uint256",
          "name": "_age",
          "type": "uint256"
        },
        {
          "internalType": "string",
          "name": "_description",
          "type": "string"
        },
        {
          "internalType": "string",
          "name": "_image",
          "type": "string"
        },
        {
          "internalType": "enum IMyPetBase.PetHealthStatus",
          "name": "_healthStatus",
          "type": "uint8"
        },
        {
          "internalType": "enum IMyPetBase.PetAdoptionStatus",
          "name": "_adoptionStatus",
          "type": "uint8"
        }
      ],
      "name": "addPet",
      "outputs": [
        {
          "internalType": "uint256",
          "name": "",
          "type": "uint256"
        }
      ],
      "stateMutability": "nonpayable",
      "type": "function"
    },
    {
      "inputs": [
        {
          "internalType": "string",
          "name": "_location",
          "type": "string"
        },
        {
          "internalType": "string",
          "name": "_description",
          "type": "string"
        },
        {
          "internalType": "string[]",
          "name": "_images",
          "type": "string[]"
        },
        {
          "internalType": "uint256",
          "name": "_urgencyLevel",
          "type": "uint256"
        }
      ],
      "name": "addRescueRequest",
      "outputs": [
        {
          "internalType": "uint256",
          "name": "",
          "type": "uint256"
        }
      ],
      "stateMutability": "nonpayable",
      "type": "function"
    },
    {
      "inputs": [],
      "name": "adoptionEventIdCounter",
      "outputs": [
        {
          "internalType": "uint256",
          "name": "",
          "type": "uint256"
        }
      ],
      "stateMutability": "view",
      "type": "function"
    },
    {
      "inputs": [
        {
          "internalType": "uint256",
          "name": "",
          "type": "uint256"
        }
      ],
      "name": "adoptionEvents",
      "outputs": [
        {
          "internalType": "uint256",
          "name": "id",
          "type": "uint256"
        },
        {
          "internalType": "uint256",
          "name": "petId",
          "type": "uint256"
        },
        {
          "internalType": "address",
          "name": "adopter",
          "type": "address"
        },
        {
          "internalType": "uint256",
          "name": "timestamp",
          "type": "uint256"
        },
        {
          "internalType": "string",
          "name": "notes",
          "type": "string"
        },
        {
          "internalType": "address",
          "name": "previousOwner",
          "type": "address"
        },
        {
          "internalType": "uint256",
          "name": "institutionId",
          "type": "uint256"
        }
      ],
      "stateMutability": "view",
      "type": "function"
    },
    {
      "inputs": [
        {
          "internalType": "uint256",
          "name": "_eventId",
          "type": "uint256"
        }
      ],
      "name": "getAdoptionEvent",
      "outputs": [
        {
          "components": [
            {
              "internalType": "uint256",
              "name": "id",
              "type": "uint256"
            },
            {
              "internalType": "uint256",
              "name": "petId",
              "type": "uint256"
            },
            {
              "internalType": "address",
              "name": "adopter",
              "type": "address"
            },
            {
              "internalType": "uint256",
              "name": "timestamp",
              "type": "uint256"
            },
            {
              "internalType": "string",
              "name": "notes",
              "type": "string"
            },
            {
              "internalType": "address",
              "name": "previousOwner",
              "type": "address"
            },
            {
              "internalType": "uint256",
              "name": "institutionId",
              "type": "uint256"
            }
          ],
          "internalType": "struct IMyPetBase.AdoptionEvent",
          "name": "",
          "type": "tuple"
        }
      ],
      "stateMutability": "view",
      "type": "function"
    },
    {
      "inputs": [],
      "name": "getAllPets",
      "outputs": [
        {
          "components": [
            {
              "internalType": "uint256",
              "name": "id",
              "type": "uint256"
            },
            {
              "internalType": "string",
              "name": "name",
              "type": "string"
            },
            {
              "internalType": "string",
              "name": "species",
              "type": "string"
            },
            {
              "internalType": "string",
              "name": "breed",
              "type": "string"
            },
            {
              "internalType": "string",
              "name": "gender",
              "type": "string"
            },
            {
              "internalType": "uint256",
              "name": "age",
              "type": "uint256"
            },
            {
              "internalType": "string",
              "name": "description",
              "type": "string"
            },
            {
              "internalType": "string",
              "name": "image",
              "type": "string"
            },
            {
              "internalType": "enum IMyPetBase.PetHealthStatus",
              "name": "healthStatus",
              "type": "uint8"
            },
            {
              "internalType": "enum IMyPetBase.PetAdoptionStatus",
              "name": "adoptionStatus",
              "type": "uint8"
            },
            {
              "internalType": "address",
              "name": "owner",
              "type": "address"
            },
            {
              "internalType": "uint256[]",
              "name": "medicalRecordIds",
              "type": "uint256[]"
            },
            {
              "internalType": "uint256",
              "name": "lastUpdatedAt",
              "type": "uint256"
            }
          ],
          "internalType": "struct IMyPetBase.Pet[]",
          "name": "",
          "type": "tuple[]"
        }
      ],
      "stateMutability": "view",
      "type": "function"
    },
    {
      "inputs": [],
      "name": "getAllRescueRequests",
      "outputs": [
        {
          "components": [
            {
              "internalType": "uint256",
              "name": "id",
              "type": "uint256"
            },
            {
              "internalType": "string",
              "name": "location",
              "type": "string"
            },
            {
              "internalType": "string",
              "name": "description",
              "type": "string"
            },
            {
              "internalType": "string",
              "name": "status",
              "type": "string"
            },
            {
              "internalType": "uint256",
              "name": "responderOrgId",
              "type": "uint256"
            },
            {
              "internalType": "uint256",
              "name": "timestamp",
              "type": "uint256"
            },
            {
              "internalType": "address",
              "name": "requester",
              "type": "address"
            },
            {
              "internalType": "string[]",
              "name": "images",
              "type": "string[]"
            },
            {
              "internalType": "uint256",
              "name": "urgencyLevel",
              "type": "uint256"
            }
          ],
          "internalType": "struct IMyPetBase.RescueRequest[]",
          "name": "",
          "type": "tuple[]"
        }
      ],
      "stateMutability": "view",
      "type": "function"
    },
    {
      "inputs": [
        {
          "internalType": "uint256",
          "name": "_eventId",
          "type": "uint256"
        }
      ],
      "name": "getMedicalEvent",
      "outputs": [
        {
          "components": [
            {
              "internalType": "uint256",
              "name": "id",
              "type": "uint256"
            },
            {
              "internalType": "uint256",
              "name": "petId",
              "type": "uint256"
            },
            {
              "internalType": "string",
              "name": "diagnosis",
              "type": "string"
            },
            {
              "internalType": "string",
              "name": "treatment",
              "type": "string"
            },
            {
              "internalType": "uint256",
              "name": "timestamp",
              "type": "uint256"
            },
            {
              "internalType": "uint256",
              "name": "hospital",
              "type": "uint256"
            },
            {
              "internalType": "address",
              "name": "doctor",
              "type": "address"
            },
            {
              "internalType": "uint256",
              "name": "cost",
              "type": "uint256"
            },
            {
              "internalType": "string[]",
              "name": "attachments",
              "type": "string[]"
            }
          ],
          "internalType": "struct IMyPetBase.MedicalEvent",
          "name": "",
          "type": "tuple"
        }
      ],
      "stateMutability": "view",
      "type": "function"
    },
    {
      "inputs": [
        {
          "internalType": "uint256",
          "name": "_petId",
          "type": "uint256"
        }
      ],
      "name": "getPetAdoptionHistory",
      "outputs": [
        {
          "components": [
            {
              "internalType": "uint256",
              "name": "id",
              "type": "uint256"
            },
            {
              "internalType": "uint256",
              "name": "petId",
              "type": "uint256"
            },
            {
              "internalType": "address",
              "name": "adopter",
              "type": "address"
            },
            {
              "internalType": "uint256",
              "name": "timestamp",
              "type": "uint256"
            },
            {
              "internalType": "string",
              "name": "notes",
              "type": "string"
            },
            {
              "internalType": "address",
              "name": "previousOwner",
              "type": "address"
            },
            {
              "internalType": "uint256",
              "name": "institutionId",
              "type": "uint256"
            }
          ],
          "internalType": "struct IMyPetBase.AdoptionEvent[]",
          "name": "",
          "type": "tuple[]"
        }
      ],
      "stateMutability": "view",
      "type": "function"
    },
    {
      "inputs": [
        {
          "internalType": "uint256",
          "name": "_petId",
          "type": "uint256"
        }
      ],
      "name": "getPetById",
      "outputs": [
        {
          "components": [
            {
              "internalType": "uint256",
              "name": "id",
              "type": "uint256"
            },
            {
              "internalType": "string",
              "name": "name",
              "type": "string"
            },
            {
              "internalType": "string",
              "name": "species",
              "type": "string"
            },
            {
              "internalType": "string",
              "name": "breed",
              "type": "string"
            },
            {
              "internalType": "string",
              "name": "gender",
              "type": "string"
            },
            {
              "internalType": "uint256",
              "name": "age",
              "type": "uint256"
            },
            {
              "internalType": "string",
              "name": "description",
              "type": "string"
            },
            {
              "internalType": "string",
              "name": "image",
              "type": "string"
            },
            {
              "internalType": "enum IMyPetBase.PetHealthStatus",
              "name": "healthStatus",
              "type": "uint8"
            },
            {
              "internalType": "enum IMyPetBase.PetAdoptionStatus",
              "name": "adoptionStatus",
              "type": "uint8"
            },
            {
              "internalType": "address",
              "name": "owner",
              "type": "address"
            },
            {
              "internalType": "uint256[]",
              "name": "medicalRecordIds",
              "type": "uint256[]"
            },
            {
              "internalType": "uint256",
              "name": "lastUpdatedAt",
              "type": "uint256"
            }
          ],
          "internalType": "struct IMyPetBase.Pet",
          "name": "",
          "type": "tuple"
        }
      ],
      "stateMutability": "view",
      "type": "function"
    },
    {
      "inputs": [
        {
          "internalType": "uint256",
          "name": "_petId",
          "type": "uint256"
        }
      ],
      "name": "getPetMedicalHistory",
      "outputs": [
        {
          "components": [
            {
              "internalType": "uint256",
              "name": "id",
              "type": "uint256"
            },
            {
              "internalType": "uint256",
              "name": "petId",
              "type": "uint256"
            },
            {
              "internalType": "string",
              "name": "diagnosis",
              "type": "string"
            },
            {
              "internalType": "string",
              "name": "treatment",
              "type": "string"
            },
            {
              "internalType": "uint256",
              "name": "timestamp",
              "type": "uint256"
            },
            {
              "internalType": "uint256",
              "name": "hospital",
              "type": "uint256"
            },
            {
              "internalType": "address",
              "name": "doctor",
              "type": "address"
            },
            {
              "internalType": "uint256",
              "name": "cost",
              "type": "uint256"
            },
            {
              "internalType": "string[]",
              "name": "attachments",
              "type": "string[]"
            }
          ],
          "internalType": "struct IMyPetBase.MedicalEvent[]",
          "name": "",
          "type": "tuple[]"
        }
      ],
      "stateMutability": "view",
      "type": "function"
    },
    {
      "inputs": [
        {
          "internalType": "enum IMyPetBase.PetAdoptionStatus",
          "name": "_status",
          "type": "uint8"
        }
      ],
      "name": "getPetsByAdoptionStatus",
      "outputs": [
        {
          "components": [
            {
              "internalType": "uint256",
              "name": "id",
              "type": "uint256"
            },
            {
              "internalType": "string",
              "name": "name",
              "type": "string"
            },
            {
              "internalType": "string",
              "name": "species",
              "type": "string"
            },
            {
              "internalType": "string",
              "name": "breed",
              "type": "string"
            },
            {
              "internalType": "string",
              "name": "gender",
              "type": "string"
            },
            {
              "internalType": "uint256",
              "name": "age",
              "type": "uint256"
            },
            {
              "internalType": "string",
              "name": "description",
              "type": "string"
            },
            {
              "internalType": "string",
              "name": "image",
              "type": "string"
            },
            {
              "internalType": "enum IMyPetBase.PetHealthStatus",
              "name": "healthStatus",
              "type": "uint8"
            },
            {
              "internalType": "enum IMyPetBase.PetAdoptionStatus",
              "name": "adoptionStatus",
              "type": "uint8"
            },
            {
              "internalType": "address",
              "name": "owner",
              "type": "address"
            },
            {
              "internalType": "uint256[]",
              "name": "medicalRecordIds",
              "type": "uint256[]"
            },
            {
              "internalType": "uint256",
              "name": "lastUpdatedAt",
              "type": "uint256"
            }
          ],
          "internalType": "struct IMyPetBase.Pet[]",
          "name": "",
          "type": "tuple[]"
        }
      ],
      "stateMutability": "view",
      "type": "function"
    },
    {
      "inputs": [
        {
          "internalType": "uint256",
          "name": "_requestId",
          "type": "uint256"
        }
      ],
      "name": "getRescueRequest",
      "outputs": [
        {
          "components": [
            {
              "internalType": "uint256",
              "name": "id",
              "type": "uint256"
            },
            {
              "internalType": "string",
              "name": "location",
              "type": "string"
            },
            {
              "internalType": "string",
              "name": "description",
              "type": "string"
            },
            {
              "internalType": "string",
              "name": "status",
              "type": "string"
            },
            {
              "internalType": "uint256",
              "name": "responderOrgId",
              "type": "uint256"
            },
            {
              "internalType": "uint256",
              "name": "timestamp",
              "type": "uint256"
            },
            {
              "internalType": "address",
              "name": "requester",
              "type": "address"
            },
            {
              "internalType": "string[]",
              "name": "images",
              "type": "string[]"
            },
            {
              "internalType": "uint256",
              "name": "urgencyLevel",
              "type": "uint256"
            }
          ],
          "internalType": "struct IMyPetBase.RescueRequest",
          "name": "",
          "type": "tuple"
        }
      ],
      "stateMutability": "view",
      "type": "function"
    },
    {
      "inputs": [
        {
          "internalType": "address",
          "name": "_user",
          "type": "address"
        }
      ],
      "name": "getUserPets",
      "outputs": [
        {
          "components": [
            {
              "internalType": "uint256",
              "name": "id",
              "type": "uint256"
            },
            {
              "internalType": "string",
              "name": "name",
              "type": "string"
            },
            {
              "internalType": "string",
              "name": "species",
              "type": "string"
            },
            {
              "internalType": "string",
              "name": "breed",
              "type": "string"
            },
            {
              "internalType": "string",
              "name": "gender",
              "type": "string"
            },
            {
              "internalType": "uint256",
              "name": "age",
              "type": "uint256"
            },
            {
              "internalType": "string",
              "name": "description",
              "type": "string"
            },
            {
              "internalType": "string",
              "name": "image",
              "type": "string"
            },
            {
              "internalType": "enum IMyPetBase.PetHealthStatus",
              "name": "healthStatus",
              "type": "uint8"
            },
            {
              "internalType": "enum IMyPetBase.PetAdoptionStatus",
              "name": "adoptionStatus",
              "type": "uint8"
            },
            {
              "internalType": "address",
              "name": "owner",
              "type": "address"
            },
            {
              "internalType": "uint256[]",
              "name": "medicalRecordIds",
              "type": "uint256[]"
            },
            {
              "internalType": "uint256",
              "name": "lastUpdatedAt",
              "type": "uint256"
            }
          ],
          "internalType": "struct IMyPetBase.Pet[]",
          "name": "",
          "type": "tuple[]"
        }
      ],
      "stateMutability": "view",
      "type": "function"
    },
    {
      "inputs": [
        {
          "internalType": "address",
          "name": "_user",
          "type": "address"
        }
      ],
      "name": "getUserRescueRequests",
      "outputs": [
        {
          "components": [
            {
              "internalType": "uint256",
              "name": "id",
              "type": "uint256"
            },
            {
              "internalType": "string",
              "name": "location",
              "type": "string"
            },
            {
              "internalType": "string",
              "name": "description",
              "type": "string"
            },
            {
              "internalType": "string",
              "name": "status",
              "type": "string"
            },
            {
              "internalType": "uint256",
              "name": "responderOrgId",
              "type": "uint256"
            },
            {
              "internalType": "uint256",
              "name": "timestamp",
              "type": "uint256"
            },
            {
              "internalType": "address",
              "name": "requester",
              "type": "address"
            },
            {
              "internalType": "string[]",
              "name": "images",
              "type": "string[]"
            },
            {
              "internalType": "uint256",
              "name": "urgencyLevel",
              "type": "uint256"
            }
          ],
          "internalType": "struct IMyPetBase.RescueRequest[]",
          "name": "",
          "type": "tuple[]"
        }
      ],
      "stateMutability": "view",
      "type": "function"
    },
    {
      "inputs": [],
      "name": "hashCount",
      "outputs": [
        {
          "internalType": "uint256",
          "name": "",
          "type": "uint256"
        }
      ],
      "stateMutability": "view",
      "type": "function"
    },
    {
      "inputs": [],
      "name": "institutionManagerAddress",
      "outputs": [
        {
          "internalType": "address",
          "name": "",
          "type": "address"
        }
      ],
      "stateMutability": "view",
      "type": "function"
    },
    {
      "inputs": [],
      "name": "medicalEventIdCounter",
      "outputs": [
        {
          "internalType": "uint256",
          "name": "",
          "type": "uint256"
        }
      ],
      "stateMutability": "view",
      "type": "function"
    },
    {
      "inputs": [
        {
          "internalType": "uint256",
          "name": "",
          "type": "uint256"
        }
      ],
      "name": "medicalEvents",
      "outputs": [
        {
          "internalType": "uint256",
          "name": "id",
          "type": "uint256"
        },
        {
          "internalType": "uint256",
          "name": "petId",
          "type": "uint256"
        },
        {
          "internalType": "string",
          "name": "diagnosis",
          "type": "string"
        },
        {
          "internalType": "string",
          "name": "treatment",
          "type": "string"
        },
        {
          "internalType": "uint256",
          "name": "timestamp",
          "type": "uint256"
        },
        {
          "internalType": "uint256",
          "name": "hospital",
          "type": "uint256"
        },
        {
          "internalType": "address",
          "name": "doctor",
          "type": "address"
        },
        {
          "internalType": "uint256",
          "name": "cost",
          "type": "uint256"
        }
      ],
      "stateMutability": "view",
      "type": "function"
    },
    {
      "inputs": [],
      "name": "petIdCounter",
      "outputs": [
        {
          "internalType": "uint256",
          "name": "",
          "type": "uint256"
        }
      ],
      "stateMutability": "view",
      "type": "function"
    },
    {
      "inputs": [
        {
          "internalType": "uint256",
          "name": "",
          "type": "uint256"
        }
      ],
      "name": "pets",
      "outputs": [
        {
          "internalType": "uint256",
          "name": "id",
          "type": "uint256"
        },
        {
          "internalType": "string",
          "name": "name",
          "type": "string"
        },
        {
          "internalType": "string",
          "name": "species",
          "type": "string"
        },
        {
          "internalType": "string",
          "name": "breed",
          "type": "string"
        },
        {
          "internalType": "string",
          "name": "gender",
          "type": "string"
        },
        {
          "internalType": "uint256",
          "name": "age",
          "type": "uint256"
        },
        {
          "internalType": "string",
          "name": "description",
          "type": "string"
        },
        {
          "internalType": "string",
          "name": "image",
          "type": "string"
        },
        {
          "internalType": "enum IMyPetBase.PetHealthStatus",
          "name": "healthStatus",
          "type": "uint8"
        },
        {
          "internalType": "enum IMyPetBase.PetAdoptionStatus",
          "name": "adoptionStatus",
          "type": "uint8"
        },
        {
          "internalType": "address",
          "name": "owner",
          "type": "address"
        },
        {
          "internalType": "uint256",
          "name": "lastUpdatedAt",
          "type": "uint256"
        }
      ],
      "stateMutability": "view",
      "type": "function"
    },
    {
      "inputs": [
        {
          "internalType": "uint256",
          "name": "_petId",
          "type": "uint256"
        }
      ],
      "name": "removePet",
      "outputs": [],
      "stateMutability": "nonpayable",
      "type": "function"
    },
    {
      "inputs": [],
      "name": "rescueRequestIdCounter",
      "outputs": [
        {
          "internalType": "uint256",
          "name": "",
          "type": "uint256"
        }
      ],
      "stateMutability": "view",
      "type": "function"
    },
    {
      "inputs": [
        {
          "internalType": "uint256",
          "name": "",
          "type": "uint256"
        }
      ],
      "name": "rescueRequests",
      "outputs": [
        {
          "internalType": "uint256",
          "name": "id",
          "type": "uint256"
        },
        {
          "internalType": "string",
          "name": "location",
          "type": "string"
        },
        {
          "internalType": "string",
          "name": "description",
          "type": "string"
        },
        {
          "internalType": "string",
          "name": "status",
          "type": "string"
        },
        {
          "internalType": "uint256",
          "name": "responderOrgId",
          "type": "uint256"
        },
        {
          "internalType": "uint256",
          "name": "timestamp",
          "type": "uint256"
        },
        {
          "internalType": "address",
          "name": "requester",
          "type": "address"
        },
        {
          "internalType": "uint256",
          "name": "urgencyLevel",
          "type": "uint256"
        }
      ],
      "stateMutability": "view",
      "type": "function"
    },
    {
      "inputs": [
        {
          "internalType": "string",
          "name": "_hash",
          "type": "string"
        }
      ],
      "name": "storeTransactionHash",
      "outputs": [],
      "stateMutability": "nonpayable",
      "type": "function"
    },
    {
      "inputs": [
        {
          "internalType": "uint256",
          "name": "",
          "type": "uint256"
        }
      ],
      "name": "transactionHashes",
      "outputs": [
        {
          "internalType": "string",
          "name": "",
          "type": "string"
        }
      ],
      "stateMutability": "view",
      "type": "function"
    },
    {
      "inputs": [
        {
          "internalType": "uint256",
          "name": "_petId",
          "type": "uint256"
        },
        {
          "internalType": "string",
          "name": "_name",
          "type": "string"
        },
        {
          "internalType": "string",
          "name": "_species",
          "type": "string"
        },
        {
          "internalType": "string",
          "name": "_breed",
          "type": "string"
        },
        {
          "internalType": "string",
          "name": "_gender",
          "type": "string"
        },
        {
          "internalType": "uint256",
          "name": "_age",
          "type": "uint256"
        },
        {
          "internalType": "string",
          "name": "_description",
          "type": "string"
        },
        {
          "internalType": "string",
          "name": "_image",
          "type": "string"
        },
        {
          "internalType": "enum IMyPetBase.PetHealthStatus",
          "name": "_healthStatus",
          "type": "uint8"
        },
        {
          "internalType": "enum IMyPetBase.PetAdoptionStatus",
          "name": "_adoptionStatus",
          "type": "uint8"
        }
      ],
      "name": "updatePet",
      "outputs": [],
      "stateMutability": "nonpayable",
      "type": "function"
    },
    {
      "inputs": [
        {
          "internalType": "uint256",
          "name": "_petId",
          "type": "uint256"
        },
        {
          "internalType": "enum IMyPetBase.PetAdoptionStatus",
          "name": "_adoptionStatus",
          "type": "uint8"
        }
      ],
      "name": "updatePetAdoptionStatus",
      "outputs": [],
      "stateMutability": "nonpayable",
      "type": "function"
    },
    {
      "inputs": [
        {
          "internalType": "uint256",
          "name": "_petId",
          "type": "uint256"
        },
        {
          "internalType": "enum IMyPetBase.PetHealthStatus",
          "name": "_healthStatus",
          "type": "uint8"
        }
      ],
      "name": "updatePetHealthStatus",
      "outputs": [],
      "stateMutability": "nonpayable",
      "type": "function"
    },
    {
      "inputs": [
        {
          "internalType": "uint256",
          "name": "_requestId",
          "type": "uint256"
        },
        {
          "internalType": "string",
          "name": "_status",
          "type": "string"
        },
        {
          "internalType": "uint256",
          "name": "_responderOrgId",
          "type": "uint256"
        }
      ],
      "name": "updateRescueRequestStatus",
      "outputs": [],
      "stateMutability": "nonpayable",
      "type": "function"
    },
    {
      "inputs": [],
      "name": "userManagerAddress",
      "outputs": [
        {
          "internalType": "address",
          "name": "",
          "type": "address"
        }
      ],
      "stateMutability": "view",
      "type": "function"
    }
  ],
  "bytecode": "0x60c0346200017c57601f6200556238819003918201601f19168301916001600160401b03831184841017620001815780849260409485528339810103126200017c576200005a6020620000528362000197565b920162000197565b600180805560058190556006819055600755906001600160a01b03808216156200013757821615620000e65760805260a0526040516153b59081620001ad82396080518181816103e101528181612484015281816135be015281816137ca0152613b7c015260a05181818161087a01528181610b230152818161375301528181613e0701526141010152f35b60405162461bcd60e51b815260206004820152602360248201527f496e76616c696420696e737469747574696f6e206d616e61676572206164647260448201526265737360e81b6064820152608490fd5b60405162461bcd60e51b815260206004820152601c60248201527f496e76616c69642075736572206d616e616765722061646472657373000000006044820152606490fd5b600080fd5b634e487b7160e01b600052604160045260246000fd5b51906001600160a01b03821682036200017c5756fe608080604052600436101561001357600080fd5b600090813560e01c9081630262df23146143e2575080630c0e88df1461409b57806311eedb6114613fa45780631c1c28f414613d9b578063213dafcd14613d5c57806332e414bf14613cd05780634691085614613c385780634a95525d14613bab5780634d1def2c14613b6657806350c688b314613a9f57806359f95c2514613a815780635b236d97146137a05780635bebd9d7146137825780635c828f371461373d5780638480f69e146136d25780638e5e7d671461350a578063926c9bcf1461338a578063a50a6eb014612cc7578063a5e2252f14612b77578063a9dae805146129e2578063b0e29ab714611fb8578063b6ce010c1461183c578063ba8cd53214611720578063bf2fbcae1461166e578063cb920509146115fd578063cfb869bf146114b6578063d0c2dc0614611383578063e737963b14610a79578063ed0f162f1461080e578063eda95cb7146107f0578063f29bc9de14610726578063f664d942146107085763feed30131461018c57600080fd5b34610705576080366003190112610705576024356001600160a01b0381169003610700576044356001600160401b0381116106fc576101cf9036906004016144a0565b6004351515806106ef575b6101e390614c2e565b60043560001981019081116106db576101fb90614b55565b5060018060a01b03600882015460101c16906005549261021a84614ba3565b60055560405161022981614449565b848152602081019160043583526040820160018060a01b036024351681526060830190428252608084019283528660a085015260643560c0850152600254600160401b8110156106c75780600161028392016002556148fc565b9590956106b35784518655516001860155516002850180546001600160a01b0319166001600160a01b03929092169190911790555160038401555180516001600160401b03811161069f5760048401916102dd83546146cd565b601f8111610664575b50602090601f83116001146105fa57918060c09492600696948c926105ef575b50508160011b916000199060031b1c19161790555b60a08101516005850180546001600160a01b0319166001600160a01b039283161790559101519190920155600882018054601090811c83168752600a60208181526040808a2060048035808d52918452828c20805460ff19908116909155875461010060248035998a901b62010000600160b01b0316610100600160b01b0319909316929092171790985542998601999099559487168b52928252808a20928a5291815281892080549096166001179095555163eac50f6b60e01b8082529181018690527f000000000000000000000000000000000000000000000000000000000000000090931693909291829081865afa9081156105e45786916105c5575b50610558575b604051908152602480356001600160a01b03166004830152602090829081855afa90811561054d57859161051e575b506104ad575b604080516001600160a01b03848116825242602080840191909152928692602435909216916004359184917f55be7614be0c2182d17fa4209154903dc72879f15b00e2f2710ccda329bc34589190a4604051908152f35b803b1561051a5760405163f265841360e01b8152602480356001600160a01b0316600480840191909152359082015290849082908183816044810103925af1801561050f57156104565761050184916143fe565b61050b5782610456565b8280fd5b6040513d86823e3d90fd5b8380fd5b610540915060203d602011610546575b6105388183614464565b810190614c16565b38610450565b503d61052e565b6040513d87823e3d90fd5b813b156105b657604051630a86fdff60e01b81526001600160a01b0384166004808301919091523560248201528590818160448183885af180156105ba576105a2575b5050610421565b6105ab906143fe565b6105b657843861059b565b8480fd5b6040513d84823e3d90fd5b6105de915060203d602011610546576105388183614464565b3861041b565b6040513d88823e3d90fd5b015190503880610306565b838a5260208a209190601f1984168b5b81811061064c57509260019285926006989660c0989610610633575b505050811b01905561031b565b015160001960f88460031b161c19169055388080610626565b9293602060018192878601518155019501930161060a565b61068f90848b5260208b20601f850160051c81019160208610610695575b601f0160051c0190614bc8565b386102e6565b9091508190610682565b634e487b7160e01b88526041600452602488fd5b634e487b7160e01b8a5260048a905260248afd5b634e487b7160e01b8a52604160045260248afd5b634e487b7160e01b83526011600452602483fd5b50600154600435106101da565b5080fd5b600080fd5b80fd5b50346107055780600319360112610705576020600554604051908152f35b5034610705576020366003190112610705576004359061074461512b565b50811515806107e5575b156107a057600019820191821161078c5761078861077461076e84614988565b506151c4565b6040519182916020835260208301906149c3565b0390f35b634e487b7160e01b81526011600452602490fd5b60405162461bcd60e51b815260206004820152601c60248201527f4d65646963616c206576656e7420646f6573206e6f74206578697374000000006044820152606490fd5b50600654821061074e565b50346107055780600319360112610705576020600754604051908152f35b5034610705576040366003190112610705576004356024803590600482101561051a5782151580610a6e575b61084390614c2e565b6000198301838111610a5b5761085890614b55565b5060405163584fab0f60e01b81523360048201526020926001600160a01b03917f0000000000000000000000000000000000000000000000000000000000000000831685828481845afa918215610a50578992610a21575b508880928061099f575b50505060088401923390845460101c1614908115610997575b501561092e575091839161090a7fc8e817726513561c7616eb3edbd23bf2a45394ccb9fcc869aba072a54f13d6a195606095614bdf565b600a429101556040519161091d8161452f565b82523390820152426040820152a280f35b8360396084926040519262461bcd60e51b845260048401528201527f4f6e6c7920706574206f776e6572206f7220686f73706974616c20737461666660448201527f2063616e20757064617465206865616c746820737461747573000000000000006064820152fd5b9050386108d3565b909192508360405180948193630418ed2160e21b835260048301525afa8015610a165760409189916109f4575b50015160038110156109e157153888816108ba565b50634e487b7160e01b8752602160045286fd5b610a1091503d808b833e610a088183614464565b810190614d05565b386109cc565b6040513d8a823e3d90fd5b9091508581813d8311610a49575b610a398183614464565b81010312610700575190386108b0565b503d610a2f565b6040513d8b823e3d90fd5b50634e487b7160e01b8452601160045283fd5b50600154831061083a565b50346107055760a0366003190112610705576024356001600160401b0381116106fc57610aaa9036906004016144a0565b6044356001600160401b03811161050b57610ac99036906004016144a0565b906084356001600160401b03811161051a57610ae9903690600401614a62565b90600435151580611376575b610afe90614c2e565b805115611331578251156112ec5760405163584fab0f60e01b815233600482015291847f00000000000000000000000000000000000000000000000000000000000000006001600160a01b0316602085602481845afa9485156105ba5782956112b4575b5090602491610b728615156150c7565b60405192838092630418ed2160e21b82528860048301525afa80156105e457604091879161129a575b5001516003811015611286576112325760065493610bb885614ba3565b60065560405192610bc884614411565b8584526004356020850152604084015260608301524260808301528260a08301523360c083015260643560e0830152610100820152600354600160401b81101561121e57806001610c1c9201600355614988565b91909161120a57805182556020810151600183015560408101518051906001600160401b038211610e9d578190610c5660028601546146cd565b601f81116111d7575b50602090601f831160011461116857889261115d575b50508160011b916000199060031b1c19161760028301555b60608101518051906001600160401b038211610e9d57610cb060038501546146cd565b601f811161112a575b50602090601f83116001146110b9576101009392918891836110ae575b50508160011b916000199060031b1c19161760038401555b6080810151600484015560a081015160058401556006830160018060a01b0360c0830151166bffffffffffffffffffffffff60a01b82541617905560e08101516007840155015190815191600160401b831161109a576008820154836008840155808410611022575b50602060089101910185526020852085915b838310610eff57505050600435600019810191508111610eeb57610d8c90614b55565b50600981015460018101808211610ed757610da681614a4b565b90610db46040519283614464565b808252610dc3601f1991614a4b565b01366020830137855b828110610eb1575084610ddf8383614ef4565b528051916001600160401b038311610e9d57600160401b8311610e9d5790602091836009860155808410610e80575b500160098301865260208620955b828110610e6c576020868686600a4291015560405190815242838201523390827f34ff5635072ed578cb1a5a1c8738633eba9c3eb2bcc771cdeee87acff6b2c19b604060043593a4604051908152f35b600190602083519301928189015501610e1c565b600985018852828820610e97918101908501614bc8565b38610e0e565b634e487b7160e01b87526041600452602487fd5b610ed29060098501885280602089200154610ecc8285614ef4565b52614ba3565b610dcc565b634e487b7160e01b86526011600452602486fd5b634e487b7160e01b84526011600452602484fd5b80518051906001600160401b03821161100e57610f1c84546146cd565b601f8111610fde575b50602090601f8311600114610f715792826001949360209386958d92610f66575b5050600019600383901b1c191690841b1785555b01920192019190610d69565b015190503880610f46565b90848a5260208a20918a5b601f1985168110610fc6575083602093600196938796938794601f19811610610fad575b505050811b018555610f5a565b015160001960f88460031b161c19169055388080610fa0565b91926020600181928685015181550194019201610f7c565b61100890858b5260208b20601f850160051c8101916020861061069557601f0160051c0190614bc8565b38610f25565b634e487b7160e01b89526041600452602489fd5b60088301875260208720908482015b8183018110611041575050610d57565b808961104f600193546146cd565b8061105d575b505001611031565b601f81118414611075575050600081555b8938611055565b828252611090601f60208420920160051c8201858301614bc8565b600083555561106e565b634e487b7160e01b86526041600452602486fd5b015190503880610cd6565b906003850188526020882091885b601f198516811061111257509183916001936101009695601f198116106110f9575b505050811b016003840155610cee565b015160001960f88460031b161c191690553880806110e9565b919260206001819286850151815501940192016110c7565b6111579060038601895260208920601f850160051c8101916020861061069557601f0160051c0190614bc8565b38610cb9565b015190503880610c75565b9250600285018852602088209088935b601f19841685106111bc576001945083601f198116106111a3575b505050811b016002830155610c8d565b015160001960f88460031b161c19169055388080611193565b81810151835560209485019460019093019290910190611178565b61120490600287018a5260208a20601f850160051c8101916020861061069557601f0160051c0190614bc8565b38610c5f565b634e487b7160e01b85526004859052602485fd5b634e487b7160e01b85526041600452602485fd5b60405162461bcd60e51b815260206004820152602660248201527f43616c6c6572277320696e737469747574696f6e206973206e6f74206120686f6044820152651cdc1a5d185b60d21b6064820152608490fd5b634e487b7160e01b86526021600452602486fd5b6112ae91503d8089833e610a088183614464565b38610b9b565b915093506020813d6020116112e4575b816112d160209383614464565b8101031261070057519285906024610b62565b3d91506112c4565b60405162461bcd60e51b815260206004820152601960248201527f54726561746d656e742063616e6e6f7420626520656d707479000000000000006044820152606490fd5b60405162461bcd60e51b815260206004820152601960248201527f446961676e6f7369732063616e6e6f7420626520656d707479000000000000006044820152606490fd5b5060015460043510610af5565b5034610705576020806003193601126106fc5761139e614b3f565b6004549183916001600160a01b0390811691835b85811061147c57506113c386614a4b565b956113d16040519788614464565b8087526113e0601f1991614a4b565b01845b81811061146657505050825b8481106114045760405180610788888261489a565b828260066114118461494d565b5001541614611429575b61142490614ba3565b6113ef565b9261145e6114249161144361143d8761494d565b506152f5565b61144d828a614ef4565b526114588189614ef4565b50614ba3565b93905061141b565b82906114706152ae565b82828b010152016113e3565b838360066114898461494d565b50015416146114a1575b61149c90614ba3565b6113b2565b956114ae61149c91614ba3565b969050611493565b50346107055760203660031901126107055760043581548110156106fc576114dd90614b55565b5080546114ec60018301614707565b916114f960028201614707565b61150560038301614707565b9161151260048201614707565b9060058101546006820161152590614707565b61153160078401614707565b9160088401549460ff8616978660081c60ff1695600a0154976040519b8c9b8c528b6101806020819201528c016115679161450a565b8b810360408d01526115789161450a565b8a810360608c01526115899161450a565b89810360808b015261159a9161450a565b9060a089015287810360c08901526115b19161450a565b86810360e08801526115c29161450a565b936115cc8161452f565b6101008601526115db8161452f565b61012085015260101c6001600160a01b03166101408401526101608301520390f35b5034610705576020366003190112610705576004359061161b614e43565b5081151580611663575b61162e90614c2e565b600019820191821161078c5761078861164f61164984614b55565b50614f08565b60405191829160208352602083019061454f565b506001548210611625565b5034610705576020366003190112610705576004359061168c61502d565b5081151580611715575b156116d057600019820191821161078c576107886116bc6116b6846148fc565b50615066565b604051918291602083526020830190614ae2565b60405162461bcd60e51b815260206004820152601d60248201527f41646f7074696f6e206576656e7420646f6573206e6f742065786973740000006044820152606490fd5b506005548210611696565b50346107055760203660031901126107055761173a614b3f565b600180546001600160a01b0392831692909184905b8381106117df575061176090614ea4565b92849060015b84811061177b5760405180610788888261466b565b60001981018181116117cb578285600861179484614b55565b50015460101c16146117b0575b506117ab90614ba3565b611766565b6117ab91936114436116496117c493614b55565b92906117a1565b634e487b7160e01b88526011600452602488fd5b6000198101818111611828578360086117f88893614b55565b50015460101c1614611813575b61180e90614ba3565b61174f565b9061182061180e91614ba3565b919050611805565b634e487b7160e01b87526011600452602487fd5b503461070557610140366003190112610705576024356001600160401b0381116106fc5761186e9036906004016144a0565b6044356001600160401b03811161050b5761188d9036906004016144a0565b6064356001600160401b03811161051a576118ac9036906004016144a0565b6084356001600160401b0381116105b6576118cb9036906004016144a0565b60c4356001600160401b038111611fb4576118ea9036906004016144a0565b9060e4356001600160401b038111611fb05761190a9036906004016144a0565b926004610104351015611fb0576004610124351015611fb057600435151580611fa3575b61193790614c2e565b60043560001981019081116117cb578061197161195661197693614b55565b50600801543360109190911c6001600160a01b031614614c6f565b614b55565b509486516001600160401b03811161100e5761199560018801546146cd565b601f8111611f70575b50806020601f8211600114611f06578a91611efb575b508160011b916000199060031b1c19161760018701555b80516001600160401b03811161100e578060028801926119eb84546146cd565b601f8111611ecb575b50602090601f8311600114611e68578b92611e5d575b50508160011b916000199060031b1c19161790555b80516001600160401b03811161069f57806003870192611a3f84546146cd565b601f8111611e2d575b50602090601f8311600114611dca578a92611dbf575b50508160011b916000199060031b1c19161790555b80516001600160401b038111610e9d57806004860192611a9384546146cd565b601f8111611d8f575b50602090601f8311600114611d2c578992611d21575b50508160011b916000199060031b1c19161790555b60a435600584015580516001600160401b03811161109a57806006850192611aef84546146cd565b601f8111611cf1575b50602090601f8311600114611c8e578892611c83575b50508160011b916000199060031b1c19161790555b805160078301916001600160401b03821161109a578190611b4484546146cd565b601f8111611c53575b50602090601f8311600114611bf0578792611be5575b50508160011b916000199060031b1c19161790555b611b9660088201611b8c6101043582614bdf565b6101243590614bf7565b600a42910155611bb16040519160408352604083019061450a565b4260208301527f43b40e0bdc5aab239d36a56df4ba90b148b997eb5b50f01d12e22cf544d1731c339280600435930390a380f35b015190503880611b63565b8488528188209250601f198416885b818110611c3b5750908460019594939210611c22575b505050811b019055611b78565b015160001960f88460031b161c19169055388080611c15565b92936020600181928786015181550195019301611bff565b611c7d9085895260208920601f850160051c8101916020861061069557601f0160051c0190614bc8565b38611b4d565b015190503880611b0e565b8489528189209250601f198416895b818110611cd95750908460019594939210611cc0575b505050811b019055611b23565b015160001960f88460031b161c19169055388080611cb3565b92936020600181928786015181550195019301611c9d565b611d1b90858a5260208a20601f850160051c8101916020861061069557601f0160051c0190614bc8565b38611af8565b015190503880611ab2565b848a52818a209250601f1984168a5b818110611d775750908460019594939210611d5e575b505050811b019055611ac7565b015160001960f88460031b161c19169055388080611d51565b92936020600181928786015181550195019301611d3b565b611db990858b5260208b20601f850160051c8101916020861061069557601f0160051c0190614bc8565b38611a9c565b015190503880611a5e565b848b52818b209250601f1984168b5b818110611e155750908460019594939210611dfc575b505050811b019055611a73565b015160001960f88460031b161c19169055388080611def565b92936020600181928786015181550195019301611dd9565b611e5790858c5260208c20601f850160051c8101916020861061069557601f0160051c0190614bc8565b38611a48565b015190503880611a0a565b848c52818c209250601f1984168c5b818110611eb35750908460019594939210611e9a575b505050811b019055611a1f565b015160001960f88460031b161c19169055388080611e8d565b92936020600181928786015181550195019301611e77565b611ef590858d5260208d20601f850160051c8101916020861061069557601f0160051c0190614bc8565b386119f4565b9050880151386119b4565b9150600188018a52818a208a925b8a601f1984168510611f5957506001935082601f19811610611f40575b5050811b0160018701556119cb565b8a015160001960f88460031b161c191690553880611f31565b810151825560209384019360019092019101611f14565b611f9d90600189018b5260208b20601f840160051c8101916020851061069557601f0160051c0190614bc8565b3861199e565b506001546004351061192e565b8680fd5b8580fd5b503461070557610120366003190112610705576004356001600160401b0381116106fc57611fea9036906004016144a0565b6024356001600160401b03811161050b576120099036906004016144a0565b906044356001600160401b03811161051a576120299036906004016144a0565b916064356001600160401b0381116105b6576120499036906004016144a0565b9260a4356001600160401b038111611fb4576120699036906004016144a0565b60c4356001600160401b038111611fb0576120889036906004016144a0565b90600460e4351015611fb0576004610104351015611fb057600154956120ad87614ba3565b600155604051938460208101106001600160401b036020870111176129cc5760208501604052888552604051956120e38761442d565b88875287602088015260408701526060860152608085015260843560a085015260c084015260e083015261211860e43561452f565b60e43561010083015261212d6101043561452f565b6101043561012083015233610140830152610160820152426101808201528354600160401b81101561121e5780600161216892018655614b55565b61120a578151815560208201518051906001600160401b038211610e9d57819061219560018501546146cd565b601f8111612999575b50602090601f831160011461292a57889261291f575b50508160011b916000199060031b1c19161760018201555b60408201518051906001600160401b038211610e9d5781906121f160028501546146cd565b601f81116128ec575b50602090601f831160011461287d578892612872575b50508160011b916000199060031b1c19161760028201555b60608201518051906001600160401b038211610e9d57819061224d60038501546146cd565b601f811161283f575b50602090601f83116001146127d05788926127c5575b50508160011b916000199060031b1c19161760038201555b60808201518051906001600160401b038211610e9d5781906122a960048501546146cd565b601f8111612792575b50602090601f8311600114612723578892612718575b50508160011b916000199060031b1c19161760048201555b60a0820151600582015560c08201518051906001600160401b038211610e9d57819061230f60068501546146cd565b601f81116126e5575b50602090601f831160011461267657889261266b575b50508160011b916000199060031b1c19161760068201555b60e08201518051906001600160401b038211610e9d57819061236b60078501546146cd565b601f8111612638575b50602090601f83116001146125c95788926125be575b50508160011b916000199060031b1c19161760078201555b60088101916123bf6101008201516123b98161452f565b84614bdf565b6123d76101208201516123d18161452f565b84614bf7565b610140810151835462010000600160b01b03191660109190911b62010000600160b01b0316179092556001600160a01b039160098201610160820151908151916001600160401b03831161100e57600160401b831161100e5760209082548484558085106125a4575b500190885260208820885b8381106125905750505050610180600a910151910155338452600a6020526040842083855260205260408420600160ff198254161790557f00000000000000000000000000000000000000000000000000000000000000001660405163eac50f6b60e01b8152336004820152602081602481855afa90811561054d578591612571575b50612523575b60208383817f6342c419c510d61c7ee75cc1173c8ca03be76384bd2b9fc7eaa7279dbdfd95c261250f6040519360408552604085019061450a565b9242868201528033940390a3604051908152f35b803b1561051a5760405163f265841360e01b8152336004820152602481018490529084908290604490829084905af1801561050f57156124d45761256784916143fe565b61050b57826124d4565b61258a915060203d602011610546576105388183614464565b386124ce565b60019060208451940193818401550161244b565b838b52828b206125b8918101908601614bc8565b38612440565b01519050388061238a565b9250600784018852602088209088935b601f198416851061261d576001945083601f19811610612604575b505050811b0160078201556123a2565b015160001960f88460031b161c191690553880806125f4565b818101518355602094850194600190930192909101906125d9565b61266590600786018a5260208a20601f850160051c8101916020861061069557601f0160051c0190614bc8565b38612374565b01519050388061232e565b9250600684018852602088209088935b601f19841685106126ca576001945083601f198116106126b1575b505050811b016006820155612346565b015160001960f88460031b161c191690553880806126a1565b81810151835560209485019460019093019290910190612686565b61271290600686018a5260208a20601f850160051c8101916020861061069557601f0160051c0190614bc8565b38612318565b0151905038806122c8565b9250600484018852602088209088935b601f1984168510612777576001945083601f1981161061275e575b505050811b0160048201556122e0565b015160001960f88460031b161c1916905538808061274e565b81810151835560209485019460019093019290910190612733565b6127bf90600486018a5260208a20601f850160051c8101916020861061069557601f0160051c0190614bc8565b386122b2565b01519050388061226c565b9250600384018852602088209088935b601f1984168510612824576001945083601f1981161061280b575b505050811b016003820155612284565b015160001960f88460031b161c191690553880806127fb565b818101518355602094850194600190930192909101906127e0565b61286c90600386018a5260208a20601f850160051c8101916020861061069557601f0160051c0190614bc8565b38612256565b015190503880612210565b9250600284018852602088209088935b601f19841685106128d1576001945083601f198116106128b8575b505050811b016002820155612228565b015160001960f88460031b161c191690553880806128a8565b8181015183556020948501946001909301929091019061288d565b61291990600286018a5260208a20601f850160051c8101916020861061069557601f0160051c0190614bc8565b386121fa565b0151905038806121b4565b9250600184018852602088209088935b601f198416851061297e576001945083601f19811610612965575b505050811b0160018201556121cc565b015160001960f88460031b161c19169055388080612955565b8181015183556020948501946001909301929091019061293a565b6129c690600186018a5260208a20601f850160051c8101916020861061069557601f0160051c0190614bc8565b3861219e565b634e487b7160e01b600052604160045260246000fd5b5034610705576020806003193601126106fc5760043580151580612b6c575b612a0d90939293614c2e565b6002548291825b828110612b2e5750612a2583614a4b565b92612a336040519485614464565b808452612a42601f1991614a4b565b01845b818110612b135750508390845b838110612ab9575050505060405191838301848452825180915260408401948060408360051b870101940192955b828710612a8d5785850386f35b909192938280612aa9600193603f198a82030186528851614ae2565b9601920196019592919092612a80565b816001612ac8839998996148fc565b50015414612ae2575b612ada90614ba3565b959495612a52565b91612b0b612ada91612af66116b6866148fc565b612b008289614ef4565b526114588188614ef4565b929050612ad1565b95809596612b1f61502d565b82828801015201959495612a45565b816001612b3d839897986148fc565b50015414612b57575b612b4f90614ba3565b949394612a14565b92612b64612b4f91614ba3565b939050612b46565b506001548110612a01565b50346107055760209081600319360112610705576001600160401b039160043583811161050b57612bac9036906004016144a0565b9260095483526008825260408320918451918211612cb357612bce83546146cd565b601f8111612c85575b5080601f8311600114612c215750839482939492612c16575b50508160011b916000199060031b1c19161790555b612c10600954614ba3565b60095580f35b015190503880612bf0565b90601f198316958486528286209286905b888210612c6d57505083600195969710612c54575b505050811b019055612c05565b015160001960f88460031b161c19169055388080612c47565b80600185968294968601518155019501930190612c32565b612cad90848652828620601f850160051c81019184861061069557601f0160051c0190614bc8565b38612bd7565b634e487b7160e01b84526041600452602484fd5b5034610705576080366003190112610705576004356001600160401b0381116106fc57612cf89036906004016144a0565b906024356001600160401b0381116106fc57612d189036906004016144a0565b916044356001600160401b03811161050b57612d38903690600401614a62565b9260075492612d4684614ba3565b60075560405194612d5686614411565b84865260208601928484526040870152604051604081018181106001600160401b038211176129cc57604052600781526670656e64696e6760c81b602082015260608701528160808701524260a08701523360c087015260e0860152606435610100860152600454600160401b81101561337657806001612dda920160045561494d565b9290926133625785518355518051906001600160401b038211613147578190612e0660018601546146cd565b601f811161332f575b50602090601f83116001146132c05784926132b5575b50508160011b916000199060031b1c19161760018301555b60408501518051906001600160401b038211613147578190612e6260028601546146cd565b601f8111613282575b50602090601f8311600114613213578492613208575b50508160011b916000199060031b1c19161760028301555b60608501518051906001600160401b038211613147578190612ebe60038601546146cd565b601f81116131d5575b50602090601f831160011461316657849261315b575b50508160011b916000199060031b1c19161760038301555b6080850151600483015560a085015160058301556006820160018060a01b0360c0870151166bffffffffffffffffffffffff60a01b82541617905560e0850151805190600160401b82116131475760078401548260078601558083106130cf575b506020016007840183526020832083915b838310612fc057602088888860086101008e0151910155817f9eb849b4f6f3138108f9e92fd4141262c526a0552d10586d8b9fff4e38328d3960405180612fb5339542906064359084615247565b0390a3604051908152f35b80518051906001600160401b038211610e9d57612fdd84546146cd565b601f811161309f575b50602090601f83116001146130325792826001949360209386958b92613027575b5050600019600383901b1c191690841b1785555b01920192019190612f67565b015190503880613007565b908488526020882091885b601f1985168110613087575083602093600196938796938794601f1981161061306e575b505050811b01855561301b565b015160001960f88460031b161c19169055388080613061565b9192602060018192868501518155019401920161303d565b6130c99085895260208920601f850160051c8101916020861061069557601f0160051c0190614bc8565b38612fe6565b60078501845260208420908382015b81830181106130ee575050612f56565b80866130fc600193546146cd565b8061310a575b5050016130de565b601f81118414613122575050600081555b8638613102565b82825261313d601f60208420920160051c8201858301614bc8565b600083555561311b565b634e487b7160e01b83526041600452602483fd5b015190503880612edd565b9250600385018452602084209084935b601f19841685106131ba576001945083601f198116106131a1575b505050811b016003830155612ef5565b015160001960f88460031b161c19169055388080613191565b81810151835560209485019460019093019290910190613176565b6132029060038701865260208620601f850160051c8101916020861061069557601f0160051c0190614bc8565b38612ec7565b015190503880612e81565b9250600285018452602084209084935b601f1984168510613267576001945083601f1981161061324e575b505050811b016002830155612e99565b015160001960f88460031b161c1916905538808061323e565b81810151835560209485019460019093019290910190613223565b6132af9060028701865260208620601f850160051c8101916020861061069557601f0160051c0190614bc8565b38612e6b565b015190503880612e25565b9250600185018452602084209084935b601f1984168510613314576001945083601f198116106132fb575b505050811b016001830155612e3d565b015160001960f88460031b161c191690553880806132eb565b818101518355602094850194600190930192909101906132d0565b61335c9060018701865260208620601f850160051c8101916020861061069557601f0160051c0190614bc8565b38612e0f565b634e487b7160e01b82526004829052602482fd5b634e487b7160e01b82526041600452602482fd5b5034610705576020806003193601126106fc57600435801515806134ff575b6133b590939293614c2e565b6003548291825b8281106134c157506133cd83614a4b565b926133db6040519485614464565b8084526133ea601f1991614a4b565b01845b8181106134a65750508390845b838110613461575050505060405191838301848452825180915260408401948060408360051b870101940192955b8287106134355785850386f35b909192938280613451600193603f198a820301865288516149c3565b9601920196019592919092613428565b81600161347083999899614988565b5001541461348a575b61348290614ba3565b9594956133fa565b9161349e61348291612af661076e86614988565b929050613479565b958095966134b261512b565b828288010152019594956133ed565b8160016134d083989798614988565b500154146134ea575b6134e290614ba3565b9493946133bc565b926134f76134e291614ba3565b9390506134d9565b5060015481106133a9565b5034610705576020806003193601126106fc57600435801515806136c7575b61353290614c2e565b600019810191818311610eeb5761356a600861354d85614b55565b5001546001600160a01b0394906119719060101c86163314614c6f565b50600881018054610100600160b01b031981166103001790915542600a928301553380875291835260408087208588528452808720805460ff191690555163eac50f6b60e01b8152600481019290925293907f00000000000000000000000000000000000000000000000000000000000000008216908381602481855afa9081156136bc57879161369f575b50613630575b50907f346ef892a985c1086a400f5039fdd55058b695ef87c9ae769c1e191570857d32916040519442865260101c1693a380f35b803b15611fb457604051630a86fdff60e01b8152336004820152602481018590529086908290604490829084905af180156105e457156135fc57946136977f346ef892a985c1086a400f5039fdd55058b695ef87c9ae769c1e191570857d329392966143fe565b9490916135fc565b6136b69150843d8611610546576105388183614464565b386135f6565b6040513d89823e3d90fd5b506001548110613529565b503461070557602036600319011261070557600435906136f06152ae565b5081151580613732575b61370390615269565b600019820191821161078c5761078861371e61143d8461494d565b604051918291602083526020830190614809565b5060075482106136fa565b50346107055780600319360112610705576040517f00000000000000000000000000000000000000000000000000000000000000006001600160a01b03168152602090f35b50346107055780600319360112610705576020600954604051908152f35b503461070557806003193601126107055760405163eac50f6b60e01b8152336004820152602091907f00000000000000000000000000000000000000000000000000000000000000006001600160a01b0316908381602481855afa908115613a76578391613a59575b5015613a1e578160249160405192838092636386c1c760e01b82523360048301525afa9081156105ba57829161393d575b506138448161452f565b8015908115613929575b50156138cd5790815461386081614a4b565b9161386e6040519384614464565b8183528380527f290decd9548b62a8d60345a988386fc84ba6bc95484008f6362f93160ef3e56393908084015b8383106138b05760405180610788878261466b565b600b826001926138bf89614f08565b81520196019201919461389b565b60405162461bcd60e51b815260048101839052602e60248201527f4f6e6c792061646d696e206f7220686f73706974616c2073746166662063616e60448201526d207669657720616c6c207065747360901b6064820152608490fd5b600291506139368161452f565b143861384e565b90503d8083833e61394e8183614464565b81016101608282031261050b57838201516001600160401b03908181116105b6578261397b918501614caf565b5060408301518181116105b65782613994918501614caf565b5060608301518181116105b657826139ad918501614caf565b506139ba60808401614cf1565b50600260a0840151101561051a5760e08301518181116105b657826139e0918501614caf565b506003610100840151101561051a576101208301519260048410156105b6576101408101519182116105b657613a17929101614caf565b503861383a565b60405162461bcd60e51b8152600481018490526013602482015272155cd95c881b9bdd081c9959da5cdd195c9959606a1b6044820152606490fd5b613a709150843d8611610546576105388183614464565b38613809565b6040513d85823e3d90fd5b50346107055780600319360112610705576020600154604051908152f35b5034610705576020366003190112610705576004356004548110156106fc57613ac79061494d565b508054613ad660018301614707565b91613ae360028201614707565b613aef60038301614707565b91600481015492613b4d600583015491613b3f600860018060a01b0360068701541695015495613b316040519a8b9a8b526101008060208d01528b019061450a565b9089820360408b015261450a565b90878203606089015261450a565b93608086015260a085015260c084015260e08301520390f35b50346107055780600319360112610705576040517f00000000000000000000000000000000000000000000000000000000000000006001600160a01b03168152602090f35b5034610705576020366003190112610705576004356003548110156106fc57613bd390614988565b508054600182015491613be860028201614707565b613bf460038301614707565b91600481015492613b4d600583015491613b3f600760018060a01b0360068701541695015495604051998a998a5260208a01526101008060408b015289019061450a565b5034610705576020366003190112610705576004356002548110156106fc57613c60906148fc565b50805460018201549160018060a01b03613cc1816002840154169160038401546006613c8e60048701614707565b9260058701541695015493604051978897885260208801526040870152606086015260e0608086015260e085019061450a565b9160a084015260c08301520390f35b5034610705578060031936011261070557600454613ced81614a4b565b90613cfb6040519283614464565b808252600483527f8a35acfbc15ff81a39ae7d344fd709f28e8600b4aa8c65c6b64bfe7fe36bd19b9260208084015b838310613d3f5760405180610788878261489a565b600982600192613d4e896152f5565b815201960192019194613d2a565b503461070557602036600319011261070557613d876040610788926004358152600860205220614707565b60405191829160208352602083019061450a565b5034610705576040366003190112610705576004356024803590600482101561051a5782151580613f99575b613dd090614c2e565b6000198301838111610a5b57613de590614b55565b5060405163584fab0f60e01b81523360048201526020926001600160a01b03917f0000000000000000000000000000000000000000000000000000000000000000831685828481845afa918215610a50578992613f66575b5088809280613f08575b50505060088401923390845460101c1614908115613f00575b5015613e97575091839161090a7f7d0da604b8f505f4dbe71c3c18098b9a37e5cc4d9841c01d6be11b244b76a25c95606095614bf7565b83603a6084926040519262461bcd60e51b845260048401528201527f4f6e6c7920706574206f776e6572206f72207368656c7465722073746166662060448201527f63616e207570646174652061646f7074696f6e207374617475730000000000006064820152fd5b905038613e60565b909192508360405180948193630418ed2160e21b835260048301525afa8015610a16576040918991613f4c575b50015160038110156109e157600114388881613e47565b613f6091503d808b833e610a088183614464565b38613f35565b9091508581813d8311613f92575b613f7e8183614464565b81010312613f8e57519038613e3d565b8880fd5b503d613f74565b506001548310613dc7565b5034610705576020366003190112610705576004359060048210156107055780549080805b83811061404a5750613fda90614ea4565b92815b838110613ff25760405180610788878261466b565b8160ff613ffe83614b55565b50600880910154901c166140118261452f565b61401a8161452f565b1461402e575b61402990614ba3565b613fdd565b9161404261402991612af661164986614b55565b929050614020565b8460ff61405683614b55565b50600880910154901c166140698261452f565b6140728161452f565b14614086575b61408190614ba3565b613fc9565b9061409361408191614ba3565b919050614078565b5034610705576060366003190112610705576004356001600160401b03602480358281116105b6576140d19036906004016144a0565b9160443591841515806143d7575b6140e890615269565b60405163584fab0f60e01b8152336004820152602092907f00000000000000000000000000000000000000000000000000000000000000006001600160a01b031690889085818681865afa9081156105ba5782916143aa575b5061414d8115156150c7565b8460405180948193630418ed2160e21b835260048301525afa8015610a16576040918991614390575b500151600381101561437d57600180910361431d576000199087820188811161430a576141a29061494d565b5094600386019488519485116142f857506141bd85546146cd565b601f81116142ca575b508981601f861160011461423b575093879693817f2195d99dac9b89ea92bf6fc0c105f6640b48cbfff5d0aba408aa1e3210dc87069a999794819460049894614230575b501b9260031b1c19161790555b015561422a604051928392429184615247565b0390a280f35b8b015193503861420a565b868c52808c20939594929150601f198516908c905b8282106142b3575050926004959285928a99967f2195d99dac9b89ea92bf6fc0c105f6640b48cbfff5d0aba408aa1e3210dc87069c9b99961061429b575b505050811b019055614217565b8a01519060f88460031b161c1916905538808061428e565b808885978294968f01518155019601930190614250565b6142f290868c52828c20601f870160051c81019184881061069557601f0160051c0190614bc8565b386141c6565b634e487b7160e01b8b5260416004528afd5b634e487b7160e01b8a526011600452848afd5b60405162461bcd60e51b8152600481018590526033818501527f4f6e6c79207368656c7465722073746166662063616e207570646174652072656044820152727363756520726571756573742073746174757360681b6064820152608490fd5b634e487b7160e01b885260216004528288fd5b6143a491503d808b833e610a088183614464565b38614176565b90508581813d83116143d0575b6143c18183614464565b810103126106fc575138614141565b503d6143b7565b5060075485106140df565b9050346106fc57816003193601126106fc576020906006548152f35b6001600160401b0381116129cc57604052565b61012081019081106001600160401b038211176129cc57604052565b6101a081019081106001600160401b038211176129cc57604052565b60e081019081106001600160401b038211176129cc57604052565b90601f801991011681019081106001600160401b038211176129cc57604052565b6001600160401b0381116129cc57601f01601f191660200190565b81601f82011215610700578035906144b782614485565b926144c56040519485614464565b8284526020838301011161070057816000926020809301838601378301015290565b60005b8381106144fa5750506000910152565b81810151838201526020016144ea565b90602091614523815180928185528580860191016144e7565b601f01601f1916010190565b6004111561453957565b634e487b7160e01b600052602160045260246000fd5b90815181526020916145e16145cf6145b36145a161458f61457d888701516101a0808b8b015289019061450a565b604087015188820360408a015261450a565b6060860151878203606089015261450a565b6080850151868203608088015261450a565b60a084015160a086015260c084015185820360c087015261450a565b60e083015184820360e086015261450a565b9261010080830151906145f38261452f565b84015261012080830151906146078261452f565b840152610140828101516001600160a01b03169084015261016080830151848603918501919091528051808652948201949082019160005b82811061465757505050506101808091015191015290565b83518752958101959281019260010161463f565b602080820190808352835180925260408301928160408460051b8301019501936000915b84831061469f5750505050505090565b90919293949584806146bd600193603f198682030187528a5161454f565b980193019301919493929061468f565b90600182811c921680156146fd575b60208310146146e757565b634e487b7160e01b600052602260045260246000fd5b91607f16916146dc565b906040519182600082549261471b846146cd565b90818452600194858116908160001461478a5750600114614747575b505061474592500383614464565b565b9093915060005260209081600020936000915b81831061477257505061474593508201013880614737565b8554888401850152948501948794509183019161475a565b91505061474594506020925060ff191682840152151560051b8201013880614737565b908082519081815260208091019281808460051b8301019501936000915b8483106147db5750505050505090565b90919293949584806147f9600193601f198682030187528a5161450a565b98019301930191949392906147cb565b908151815261488c614854614842614830602086015161012080602088015286019061450a565b6040860151858203604087015261450a565b6060850151848203606086015261450a565b6080840151608084015260a084015160a084015260018060a01b0360c08501511660c084015260e084015183820360e08501526147ad565b916101008091015191015290565b602080820190808352835180925260408301928160408460051b8301019501936000915b8483106148ce5750505050505090565b90919293949584806148ec600193603f198682030187528a51614809565b98019301930191949392906148be565b600254811015614937576007906002600052027f405787fa12a823e0f2b7631cc41b3ba8828b3321ca811111fa75cd3aa3bb5ace0190600090565b634e487b7160e01b600052603260045260246000fd5b600454811015614937576009906004600052027f8a35acfbc15ff81a39ae7d344fd709f28e8600b4aa8c65c6b64bfe7fe36bd19b0190600090565b600354811015614937576009906003600052027fc2575a0e9e593c00f959f8c92f12db2869c3395a3b0502d05e2516446f71f85b0190600090565b90614a48918051825260208101516020830152614a046149f2604083015161012080604087015285019061450a565b6060830151848203606086015261450a565b916080820151608082015260a082015160a082015260018060a01b0360c08301511660c082015260e082015160e082015261010080920151918184039101526147ad565b90565b6001600160401b0381116129cc5760051b60200190565b9080601f8301121561070057813590614a7a82614a4b565b92614a886040519485614464565b828452602092838086019160051b8301019280841161070057848301915b848310614ab65750505050505090565b82356001600160401b038111610700578691614ad7848480948901016144a0565b815201920191614aa6565b90815181526020820151602082015260c08060018060a01b039384604082015116604085015260608101516060850152614b2b608082015160e0608087015260e086019061450a565b9460a08201511660a0850152015191015290565b600435906001600160a01b038216820361070057565b906000918254811015614b8f57600b90838052027f290decd9548b62a8d60345a988386fc84ba6bc95484008f6362f93160ef3e563019190565b634e487b7160e01b83526032600452602483fd5b6000198114614bb25760010190565b634e487b7160e01b600052601160045260246000fd5b818110614bd3575050565b60008155600101614bc8565b90614be98161452f565b60ff80198354169116179055565b90614c018161452f565b61ff0082549160081b169061ff001916179055565b90816020910312610700575180151581036107005790565b15614c3557565b60405162461bcd60e51b815260206004820152601260248201527114195d08191bd95cc81b9bdd08195e1a5cdd60721b6044820152606490fd5b15614c7657565b60405162461bcd60e51b81526020600482015260116024820152702737ba103a3432903832ba1037bbb732b960791b6044820152606490fd5b81601f82011215610700578051614cc581614485565b92614cd36040519485614464565b8184526020828401011161070057614a4891602080850191016144e7565b51906001600160a01b038216820361070057565b60209182828203126107005781516001600160401b039283821161070057019161010093848484031261070057604051948501858110838211176129cc5760405283518552808401518281116107005783614d61918601614caf565b8186015260408401516003811015610700576040860152614d8460608501614cf1565b606086015260808401518281116107005784019083601f8301121561070057815191614daf83614a4b565b92614dbd6040519485614464565b808452828085019160051b83010191868311610700578301905b828210614e2c5750505050608085015260a083015160a085015260c08301518181116107005782614e09918501614caf565b60c085015260e083015190811161070057614e249201614caf565b60e082015290565b838091614e3884614cf1565b815201910190614dd7565b60405190614e508261442d565b81610180600091828152606080602083015280604083015280808301528060808301528360a08301528060c08301528060e08301528361010083015283610120830152836101408301526101608201520152565b90614eae82614a4b565b614ebb6040519182614464565b8281528092614ecc601f1991614a4b565b019060005b828110614edd57505050565b602090614ee8614e43565b82828501015201614ed1565b80518210156149375760209160051b010190565b90604051614f158161442d565b8092805482526001614f28818301614707565b60209081850152614f3b60028401614707565b6040850152614f4c60038401614707565b6060850152614f5d60048401614707565b6080850152600583015460a0850152614f7860068401614707565b60c0850152614f8960078401614707565b60e0850152600883015460ff8116614fa08161452f565b61010086015260ff8160081c16614fb68161452f565b61012086015260101c6001600160a01b031661014085015260405160098401805480835260009182528382209294858501949092905b828210615018575050505050918161500b600a93610180950382614464565b6101608501520154910152565b84548652948501949383019390830190614fec565b6040519061503a82614449565b8160c0600091828152826020820152826040820152826060820152606060808201528260a08201520152565b9060405161507381614449565b60c060068294805484526001810154602085015260018060a01b03806002830154166040860152600382015460608601526150b060048301614707565b608086015260058201541660a08501520154910152565b156150ce57565b60405162461bcd60e51b815260206004820152602f60248201527f43616c6c6572206973206e6f742061207374616666206d656d626572206f662060448201526e30b73c9034b739ba34ba3aba34b7b760891b6064820152608490fd5b6040519061513882614411565b606061010083600080825280602083015283604083015283808301528060808301528060a08301528060c083015260e08201520152565b90815461517b81614a4b565b926151896040519485614464565b818452600090815260208082208186015b8484106151a8575050505050565b60018381926151b685614707565b81520192019301929061519a565b906040516151d181614411565b6101006152426008839580548552600181015460208601526151f560028201614707565b604086015261520660038201614707565b606086015260048101546080860152600581015460a086015260068101546001600160a01b031660c0860152600781015460e08601520161516f565b910152565b61525f6040929594939560608352606083019061450a565b9460208201520152565b1561527057565b60405162461bcd60e51b815260206004820152601660248201527514995c5d595cdd08191bd95cc81b9bdd08195e1a5cdd60521b6044820152606490fd5b604051906152bb82614411565b60006101008382815260606020820152606060408201526060808201528260808201528260a08201528260c0820152606060e08201520152565b9060405161530281614411565b610100600882948054845261531960018201614707565b602085015261532a60028201614707565b604085015261533b60038201614707565b606085015260048101546080850152600581015460a085015260068101546001600160a01b031660c08501526153736007820161516f565b60e0850152015491015256fea26469706673582212203d4a8d681d5338e35e6a51ffe678d7c316ceaba104c4d99df8990631c5bb22d164736f6c63430008130033",
  "linkReferences": {},
  "deployedLinkReferences": {}
}