{
  "_format": "hh-sol-artifact-1",
  "contractName": "PetManager",
  "sourceName": "contracts/PetManager.sol",
  "abi": [
    {
      "inputs": [
        {
          "internalType": "address",
          "name": "_userManagerAddress",
          "type": "address"
        },
        {
          "internalType": "address",
          "name": "_institutionManagerAddress",
          "type": "address"
        }
      ],
      "stateMutability": "nonpayable",
      "type": "constructor"
    },
    {
      "anonymous": false,
      "inputs": [
        {
          "indexed": true,
          "internalType": "uint256",
          "name": "eventId",
          "type": "uint256"
        },
        {
          "indexed": true,
          "internalType": "uint256",
          "name": "petId",
          "type": "uint256"
        },
        {
          "indexed": true,
          "internalType": "address",
          "name": "adopter",
          "type": "address"
        },
        {
          "indexed": false,
          "internalType": "address",
          "name": "previousOwner",
          "type": "address"
        },
        {
          "indexed": false,
          "internalType": "uint256",
          "name": "timestamp",
          "type": "uint256"
        }
      ],
      "name": "AdoptionEventAdded",
      "type": "event"
    },
    {
      "anonymous": false,
      "inputs": [
        {
          "indexed": true,
          "internalType": "uint256",
          "name": "eventId",
          "type": "uint256"
        },
        {
          "indexed": true,
          "internalType": "uint256",
          "name": "petId",
          "type": "uint256"
        },
        {
          "indexed": true,
          "internalType": "address",
          "name": "doctor",
          "type": "address"
        },
        {
          "indexed": false,
          "internalType": "uint256",
          "name": "hospitalId",
          "type": "uint256"
        },
        {
          "indexed": false,
          "internalType": "uint256",
          "name": "timestamp",
          "type": "uint256"
        }
      ],
      "name": "MedicalEventAdded",
      "type": "event"
    },
    {
      "anonymous": false,
      "inputs": [
        {
          "indexed": true,
          "internalType": "uint256",
          "name": "petId",
          "type": "uint256"
        },
        {
          "indexed": false,
          "internalType": "string",
          "name": "name",
          "type": "string"
        },
        {
          "indexed": true,
          "internalType": "address",
          "name": "owner",
          "type": "address"
        },
        {
          "indexed": false,
          "internalType": "uint256",
          "name": "timestamp",
          "type": "uint256"
        }
      ],
      "name": "PetAdded",
      "type": "event"
    },
    {
      "anonymous": false,
      "inputs": [
        {
          "indexed": true,
          "internalType": "uint256",
          "name": "petId",
          "type": "uint256"
        },
        {
          "indexed": false,
          "internalType": "enum IMyPetBase.PetAdoptionStatus",
          "name": "adoptionStatus",
          "type": "uint8"
        },
        {
          "indexed": false,
          "internalType": "address",
          "name": "updatedBy",
          "type": "address"
        },
        {
          "indexed": false,
          "internalType": "uint256",
          "name": "timestamp",
          "type": "uint256"
        }
      ],
      "name": "PetAdoptionStatusUpdated",
      "type": "event"
    },
    {
      "anonymous": false,
      "inputs": [
        {
          "indexed": true,
          "internalType": "uint256",
          "name": "petId",
          "type": "uint256"
        },
        {
          "indexed": false,
          "internalType": "enum IMyPetBase.PetHealthStatus",
          "name": "healthStatus",
          "type": "uint8"
        },
        {
          "indexed": false,
          "internalType": "address",
          "name": "updatedBy",
          "type": "address"
        },
        {
          "indexed": false,
          "internalType": "uint256",
          "name": "timestamp",
          "type": "uint256"
        }
      ],
      "name": "PetHealthStatusUpdated",
      "type": "event"
    },
    {
      "anonymous": false,
      "inputs": [
        {
          "indexed": true,
          "internalType": "uint256",
          "name": "petId",
          "type": "uint256"
        },
        {
          "indexed": true,
          "internalType": "address",
          "name": "previousOwner",
          "type": "address"
        },
        {
          "indexed": false,
          "internalType": "uint256",
          "name": "timestamp",
          "type": "uint256"
        }
      ],
      "name": "PetRemoved",
      "type": "event"
    },
    {
      "anonymous": false,
      "inputs": [
        {
          "indexed": true,
          "internalType": "uint256",
          "name": "petId",
          "type": "uint256"
        },
        {
          "indexed": false,
          "internalType": "string",
          "name": "name",
          "type": "string"
        },
        {
          "indexed": true,
          "internalType": "address",
          "name": "owner",
          "type": "address"
        },
        {
          "indexed": false,
          "internalType": "uint256",
          "name": "timestamp",
          "type": "uint256"
        }
      ],
      "name": "PetUpdated",
      "type": "event"
    },
    {
      "anonymous": false,
      "inputs": [
        {
          "indexed": true,
          "internalType": "uint256",
          "name": "requestId",
          "type": "uint256"
        },
        {
          "indexed": true,
          "internalType": "address",
          "name": "requester",
          "type": "address"
        },
        {
          "indexed": false,
          "internalType": "string",
          "name": "location",
          "type": "string"
        },
        {
          "indexed": false,
          "internalType": "uint256",
          "name": "urgencyLevel",
          "type": "uint256"
        },
        {
          "indexed": false,
          "internalType": "uint256",
          "name": "timestamp",
          "type": "uint256"
        }
      ],
      "name": "RescueRequestAdded",
      "type": "event"
    },
    {
      "anonymous": false,
      "inputs": [
        {
          "indexed": true,
          "internalType": "uint256",
          "name": "requestId",
          "type": "uint256"
        },
        {
          "indexed": false,
          "internalType": "string",
          "name": "status",
          "type": "string"
        },
        {
          "indexed": false,
          "internalType": "uint256",
          "name": "responderOrgId",
          "type": "uint256"
        },
        {
          "indexed": false,
          "internalType": "uint256",
          "name": "timestamp",
          "type": "uint256"
        }
      ],
      "name": "RescueRequestStatusUpdated",
      "type": "event"
    },
    {
      "inputs": [
        {
          "internalType": "uint256",
          "name": "_petId",
          "type": "uint256"
        },
        {
          "internalType": "address",
          "name": "_adopter",
          "type": "address"
        },
        {
          "internalType": "string",
          "name": "_notes",
          "type": "string"
        },
        {
          "internalType": "uint256",
          "name": "_institutionId",
          "type": "uint256"
        }
      ],
      "name": "addAdoptionEvent",
      "outputs": [
        {
          "internalType": "uint256",
          "name": "",
          "type": "uint256"
        }
      ],
      "stateMutability": "nonpayable",
      "type": "function"
    },
    {
      "inputs": [
        {
          "internalType": "uint256",
          "name": "_petId",
          "type": "uint256"
        },
        {
          "internalType": "string",
          "name": "_diagnosis",
          "type": "string"
        },
        {
          "internalType": "string",
          "name": "_treatment",
          "type": "string"
        },
        {
          "internalType": "uint256",
          "name": "_cost",
          "type": "uint256"
        },
        {
          "internalType": "string[]",
          "name": "_attachments",
          "type": "string[]"
        }
      ],
      "name": "addMedicalEvent",
      "outputs": [
        {
          "internalType": "uint256",
          "name": "",
          "type": "uint256"
        }
      ],
      "stateMutability": "nonpayable",
      "type": "function"
    },
    {
      "inputs": [
        {
          "internalType": "string",
          "name": "_name",
          "type": "string"
        },
        {
          "internalType": "string",
          "name": "_species",
          "type": "string"
        },
        {
          "internalType": "string",
          "name": "_breed",
          "type": "string"
        },
        {
          "internalType": "string",
          "name": "_gender",
          "type": "string"
        },
        {
          "internalType": "uint256",
          "name": "_age",
          "type": "uint256"
        },
        {
          "internalType": "string",
          "name": "_description",
          "type": "string"
        },
        {
          "internalType": "string[]",
          "name": "_images",
          "type": "string[]"
        },
        {
          "internalType": "enum IMyPetBase.PetHealthStatus",
          "name": "_healthStatus",
          "type": "uint8"
        },
        {
          "internalType": "enum IMyPetBase.PetAdoptionStatus",
          "name": "_adoptionStatus",
          "type": "uint8"
        }
      ],
      "name": "addPet",
      "outputs": [
        {
          "internalType": "uint256",
          "name": "",
          "type": "uint256"
        }
      ],
      "stateMutability": "nonpayable",
      "type": "function"
    },
    {
      "inputs": [
        {
          "internalType": "string",
          "name": "_location",
          "type": "string"
        },
        {
          "internalType": "string",
          "name": "_description",
          "type": "string"
        },
        {
          "internalType": "string[]",
          "name": "_images",
          "type": "string[]"
        },
        {
          "internalType": "uint256",
          "name": "_urgencyLevel",
          "type": "uint256"
        }
      ],
      "name": "addRescueRequest",
      "outputs": [
        {
          "internalType": "uint256",
          "name": "",
          "type": "uint256"
        }
      ],
      "stateMutability": "nonpayable",
      "type": "function"
    },
    {
      "inputs": [
        {
          "internalType": "string",
          "name": "_hash",
          "type": "string"
        }
      ],
      "name": "addTransactionHash",
      "outputs": [
        {
          "internalType": "uint256",
          "name": "",
          "type": "uint256"
        }
      ],
      "stateMutability": "nonpayable",
      "type": "function"
    },
    {
      "inputs": [],
      "name": "adoptionEventIdCounter",
      "outputs": [
        {
          "internalType": "uint256",
          "name": "",
          "type": "uint256"
        }
      ],
      "stateMutability": "view",
      "type": "function"
    },
    {
      "inputs": [
        {
          "internalType": "uint256",
          "name": "",
          "type": "uint256"
        }
      ],
      "name": "adoptionEvents",
      "outputs": [
        {
          "internalType": "uint256",
          "name": "id",
          "type": "uint256"
        },
        {
          "internalType": "uint256",
          "name": "petId",
          "type": "uint256"
        },
        {
          "internalType": "address",
          "name": "adopter",
          "type": "address"
        },
        {
          "internalType": "uint256",
          "name": "timestamp",
          "type": "uint256"
        },
        {
          "internalType": "string",
          "name": "notes",
          "type": "string"
        },
        {
          "internalType": "address",
          "name": "previousOwner",
          "type": "address"
        },
        {
          "internalType": "uint256",
          "name": "institutionId",
          "type": "uint256"
        }
      ],
      "stateMutability": "view",
      "type": "function"
    },
    {
      "inputs": [
        {
          "internalType": "uint256",
          "name": "_eventId",
          "type": "uint256"
        }
      ],
      "name": "getAdoptionEvent",
      "outputs": [
        {
          "components": [
            {
              "internalType": "uint256",
              "name": "id",
              "type": "uint256"
            },
            {
              "internalType": "uint256",
              "name": "petId",
              "type": "uint256"
            },
            {
              "internalType": "address",
              "name": "adopter",
              "type": "address"
            },
            {
              "internalType": "uint256",
              "name": "timestamp",
              "type": "uint256"
            },
            {
              "internalType": "string",
              "name": "notes",
              "type": "string"
            },
            {
              "internalType": "address",
              "name": "previousOwner",
              "type": "address"
            },
            {
              "internalType": "uint256",
              "name": "institutionId",
              "type": "uint256"
            }
          ],
          "internalType": "struct IMyPetBase.AdoptionEvent",
          "name": "",
          "type": "tuple"
        }
      ],
      "stateMutability": "view",
      "type": "function"
    },
    {
      "inputs": [],
      "name": "getAllPets",
      "outputs": [
        {
          "components": [
            {
              "internalType": "uint256",
              "name": "id",
              "type": "uint256"
            },
            {
              "internalType": "string",
              "name": "name",
              "type": "string"
            },
            {
              "internalType": "string",
              "name": "species",
              "type": "string"
            },
            {
              "internalType": "string",
              "name": "breed",
              "type": "string"
            },
            {
              "internalType": "string",
              "name": "gender",
              "type": "string"
            },
            {
              "internalType": "uint256",
              "name": "age",
              "type": "uint256"
            },
            {
              "internalType": "string",
              "name": "description",
              "type": "string"
            },
            {
              "internalType": "string[]",
              "name": "images",
              "type": "string[]"
            },
            {
              "internalType": "enum IMyPetBase.PetHealthStatus",
              "name": "healthStatus",
              "type": "uint8"
            },
            {
              "internalType": "enum IMyPetBase.PetAdoptionStatus",
              "name": "adoptionStatus",
              "type": "uint8"
            },
            {
              "internalType": "address",
              "name": "owner",
              "type": "address"
            },
            {
              "internalType": "uint256[]",
              "name": "medicalRecordIds",
              "type": "uint256[]"
            },
            {
              "internalType": "uint256",
              "name": "lastUpdatedAt",
              "type": "uint256"
            }
          ],
          "internalType": "struct IMyPetBase.Pet[]",
          "name": "",
          "type": "tuple[]"
        }
      ],
      "stateMutability": "view",
      "type": "function"
    },
    {
      "inputs": [],
      "name": "getAllRescueRequests",
      "outputs": [
        {
          "components": [
            {
              "internalType": "uint256",
              "name": "id",
              "type": "uint256"
            },
            {
              "internalType": "string",
              "name": "location",
              "type": "string"
            },
            {
              "internalType": "string",
              "name": "description",
              "type": "string"
            },
            {
              "internalType": "string",
              "name": "status",
              "type": "string"
            },
            {
              "internalType": "uint256",
              "name": "responderOrgId",
              "type": "uint256"
            },
            {
              "internalType": "uint256",
              "name": "timestamp",
              "type": "uint256"
            },
            {
              "internalType": "address",
              "name": "requester",
              "type": "address"
            },
            {
              "internalType": "string[]",
              "name": "images",
              "type": "string[]"
            },
            {
              "internalType": "uint256",
              "name": "urgencyLevel",
              "type": "uint256"
            }
          ],
          "internalType": "struct IMyPetBase.RescueRequest[]",
          "name": "",
          "type": "tuple[]"
        }
      ],
      "stateMutability": "view",
      "type": "function"
    },
    {
      "inputs": [
        {
          "internalType": "uint256",
          "name": "_eventId",
          "type": "uint256"
        }
      ],
      "name": "getMedicalEvent",
      "outputs": [
        {
          "components": [
            {
              "internalType": "uint256",
              "name": "id",
              "type": "uint256"
            },
            {
              "internalType": "uint256",
              "name": "petId",
              "type": "uint256"
            },
            {
              "internalType": "string",
              "name": "diagnosis",
              "type": "string"
            },
            {
              "internalType": "string",
              "name": "treatment",
              "type": "string"
            },
            {
              "internalType": "uint256",
              "name": "timestamp",
              "type": "uint256"
            },
            {
              "internalType": "uint256",
              "name": "hospital",
              "type": "uint256"
            },
            {
              "internalType": "address",
              "name": "doctor",
              "type": "address"
            },
            {
              "internalType": "uint256",
              "name": "cost",
              "type": "uint256"
            },
            {
              "internalType": "string[]",
              "name": "attachments",
              "type": "string[]"
            }
          ],
          "internalType": "struct IMyPetBase.MedicalEvent",
          "name": "",
          "type": "tuple"
        }
      ],
      "stateMutability": "view",
      "type": "function"
    },
    {
      "inputs": [
        {
          "internalType": "uint256",
          "name": "_petId",
          "type": "uint256"
        }
      ],
      "name": "getPetAdoptionHistory",
      "outputs": [
        {
          "components": [
            {
              "internalType": "uint256",
              "name": "id",
              "type": "uint256"
            },
            {
              "internalType": "uint256",
              "name": "petId",
              "type": "uint256"
            },
            {
              "internalType": "address",
              "name": "adopter",
              "type": "address"
            },
            {
              "internalType": "uint256",
              "name": "timestamp",
              "type": "uint256"
            },
            {
              "internalType": "string",
              "name": "notes",
              "type": "string"
            },
            {
              "internalType": "address",
              "name": "previousOwner",
              "type": "address"
            },
            {
              "internalType": "uint256",
              "name": "institutionId",
              "type": "uint256"
            }
          ],
          "internalType": "struct IMyPetBase.AdoptionEvent[]",
          "name": "",
          "type": "tuple[]"
        }
      ],
      "stateMutability": "view",
      "type": "function"
    },
    {
      "inputs": [
        {
          "internalType": "uint256",
          "name": "_petId",
          "type": "uint256"
        }
      ],
      "name": "getPetById",
      "outputs": [
        {
          "components": [
            {
              "internalType": "uint256",
              "name": "id",
              "type": "uint256"
            },
            {
              "internalType": "string",
              "name": "name",
              "type": "string"
            },
            {
              "internalType": "string",
              "name": "species",
              "type": "string"
            },
            {
              "internalType": "string",
              "name": "breed",
              "type": "string"
            },
            {
              "internalType": "string",
              "name": "gender",
              "type": "string"
            },
            {
              "internalType": "uint256",
              "name": "age",
              "type": "uint256"
            },
            {
              "internalType": "string",
              "name": "description",
              "type": "string"
            },
            {
              "internalType": "string[]",
              "name": "images",
              "type": "string[]"
            },
            {
              "internalType": "enum IMyPetBase.PetHealthStatus",
              "name": "healthStatus",
              "type": "uint8"
            },
            {
              "internalType": "enum IMyPetBase.PetAdoptionStatus",
              "name": "adoptionStatus",
              "type": "uint8"
            },
            {
              "internalType": "address",
              "name": "owner",
              "type": "address"
            },
            {
              "internalType": "uint256[]",
              "name": "medicalRecordIds",
              "type": "uint256[]"
            },
            {
              "internalType": "uint256",
              "name": "lastUpdatedAt",
              "type": "uint256"
            }
          ],
          "internalType": "struct IMyPetBase.Pet",
          "name": "",
          "type": "tuple"
        }
      ],
      "stateMutability": "view",
      "type": "function"
    },
    {
      "inputs": [
        {
          "internalType": "uint256",
          "name": "_petId",
          "type": "uint256"
        }
      ],
      "name": "getPetMedicalHistory",
      "outputs": [
        {
          "components": [
            {
              "internalType": "uint256",
              "name": "id",
              "type": "uint256"
            },
            {
              "internalType": "uint256",
              "name": "petId",
              "type": "uint256"
            },
            {
              "internalType": "string",
              "name": "diagnosis",
              "type": "string"
            },
            {
              "internalType": "string",
              "name": "treatment",
              "type": "string"
            },
            {
              "internalType": "uint256",
              "name": "timestamp",
              "type": "uint256"
            },
            {
              "internalType": "uint256",
              "name": "hospital",
              "type": "uint256"
            },
            {
              "internalType": "address",
              "name": "doctor",
              "type": "address"
            },
            {
              "internalType": "uint256",
              "name": "cost",
              "type": "uint256"
            },
            {
              "internalType": "string[]",
              "name": "attachments",
              "type": "string[]"
            }
          ],
          "internalType": "struct IMyPetBase.MedicalEvent[]",
          "name": "",
          "type": "tuple[]"
        }
      ],
      "stateMutability": "view",
      "type": "function"
    },
    {
      "inputs": [
        {
          "internalType": "enum IMyPetBase.PetAdoptionStatus",
          "name": "_status",
          "type": "uint8"
        }
      ],
      "name": "getPetsByAdoptionStatus",
      "outputs": [
        {
          "components": [
            {
              "internalType": "uint256",
              "name": "id",
              "type": "uint256"
            },
            {
              "internalType": "string",
              "name": "name",
              "type": "string"
            },
            {
              "internalType": "string",
              "name": "species",
              "type": "string"
            },
            {
              "internalType": "string",
              "name": "breed",
              "type": "string"
            },
            {
              "internalType": "string",
              "name": "gender",
              "type": "string"
            },
            {
              "internalType": "uint256",
              "name": "age",
              "type": "uint256"
            },
            {
              "internalType": "string",
              "name": "description",
              "type": "string"
            },
            {
              "internalType": "string[]",
              "name": "images",
              "type": "string[]"
            },
            {
              "internalType": "enum IMyPetBase.PetHealthStatus",
              "name": "healthStatus",
              "type": "uint8"
            },
            {
              "internalType": "enum IMyPetBase.PetAdoptionStatus",
              "name": "adoptionStatus",
              "type": "uint8"
            },
            {
              "internalType": "address",
              "name": "owner",
              "type": "address"
            },
            {
              "internalType": "uint256[]",
              "name": "medicalRecordIds",
              "type": "uint256[]"
            },
            {
              "internalType": "uint256",
              "name": "lastUpdatedAt",
              "type": "uint256"
            }
          ],
          "internalType": "struct IMyPetBase.Pet[]",
          "name": "",
          "type": "tuple[]"
        }
      ],
      "stateMutability": "view",
      "type": "function"
    },
    {
      "inputs": [
        {
          "internalType": "uint256",
          "name": "_requestId",
          "type": "uint256"
        }
      ],
      "name": "getRescueRequest",
      "outputs": [
        {
          "components": [
            {
              "internalType": "uint256",
              "name": "id",
              "type": "uint256"
            },
            {
              "internalType": "string",
              "name": "location",
              "type": "string"
            },
            {
              "internalType": "string",
              "name": "description",
              "type": "string"
            },
            {
              "internalType": "string",
              "name": "status",
              "type": "string"
            },
            {
              "internalType": "uint256",
              "name": "responderOrgId",
              "type": "uint256"
            },
            {
              "internalType": "uint256",
              "name": "timestamp",
              "type": "uint256"
            },
            {
              "internalType": "address",
              "name": "requester",
              "type": "address"
            },
            {
              "internalType": "string[]",
              "name": "images",
              "type": "string[]"
            },
            {
              "internalType": "uint256",
              "name": "urgencyLevel",
              "type": "uint256"
            }
          ],
          "internalType": "struct IMyPetBase.RescueRequest",
          "name": "",
          "type": "tuple"
        }
      ],
      "stateMutability": "view",
      "type": "function"
    },
    {
      "inputs": [
        {
          "internalType": "address",
          "name": "_user",
          "type": "address"
        }
      ],
      "name": "getUserPets",
      "outputs": [
        {
          "components": [
            {
              "internalType": "uint256",
              "name": "id",
              "type": "uint256"
            },
            {
              "internalType": "string",
              "name": "name",
              "type": "string"
            },
            {
              "internalType": "string",
              "name": "species",
              "type": "string"
            },
            {
              "internalType": "string",
              "name": "breed",
              "type": "string"
            },
            {
              "internalType": "string",
              "name": "gender",
              "type": "string"
            },
            {
              "internalType": "uint256",
              "name": "age",
              "type": "uint256"
            },
            {
              "internalType": "string",
              "name": "description",
              "type": "string"
            },
            {
              "internalType": "string[]",
              "name": "images",
              "type": "string[]"
            },
            {
              "internalType": "enum IMyPetBase.PetHealthStatus",
              "name": "healthStatus",
              "type": "uint8"
            },
            {
              "internalType": "enum IMyPetBase.PetAdoptionStatus",
              "name": "adoptionStatus",
              "type": "uint8"
            },
            {
              "internalType": "address",
              "name": "owner",
              "type": "address"
            },
            {
              "internalType": "uint256[]",
              "name": "medicalRecordIds",
              "type": "uint256[]"
            },
            {
              "internalType": "uint256",
              "name": "lastUpdatedAt",
              "type": "uint256"
            }
          ],
          "internalType": "struct IMyPetBase.Pet[]",
          "name": "",
          "type": "tuple[]"
        }
      ],
      "stateMutability": "view",
      "type": "function"
    },
    {
      "inputs": [
        {
          "internalType": "address",
          "name": "_user",
          "type": "address"
        }
      ],
      "name": "getUserRescueRequests",
      "outputs": [
        {
          "components": [
            {
              "internalType": "uint256",
              "name": "id",
              "type": "uint256"
            },
            {
              "internalType": "string",
              "name": "location",
              "type": "string"
            },
            {
              "internalType": "string",
              "name": "description",
              "type": "string"
            },
            {
              "internalType": "string",
              "name": "status",
              "type": "string"
            },
            {
              "internalType": "uint256",
              "name": "responderOrgId",
              "type": "uint256"
            },
            {
              "internalType": "uint256",
              "name": "timestamp",
              "type": "uint256"
            },
            {
              "internalType": "address",
              "name": "requester",
              "type": "address"
            },
            {
              "internalType": "string[]",
              "name": "images",
              "type": "string[]"
            },
            {
              "internalType": "uint256",
              "name": "urgencyLevel",
              "type": "uint256"
            }
          ],
          "internalType": "struct IMyPetBase.RescueRequest[]",
          "name": "",
          "type": "tuple[]"
        }
      ],
      "stateMutability": "view",
      "type": "function"
    },
    {
      "inputs": [],
      "name": "hashCount",
      "outputs": [
        {
          "internalType": "uint256",
          "name": "",
          "type": "uint256"
        }
      ],
      "stateMutability": "view",
      "type": "function"
    },
    {
      "inputs": [],
      "name": "institutionManagerAddress",
      "outputs": [
        {
          "internalType": "address",
          "name": "",
          "type": "address"
        }
      ],
      "stateMutability": "view",
      "type": "function"
    },
    {
      "inputs": [],
      "name": "medicalEventIdCounter",
      "outputs": [
        {
          "internalType": "uint256",
          "name": "",
          "type": "uint256"
        }
      ],
      "stateMutability": "view",
      "type": "function"
    },
    {
      "inputs": [
        {
          "internalType": "uint256",
          "name": "",
          "type": "uint256"
        }
      ],
      "name": "medicalEvents",
      "outputs": [
        {
          "internalType": "uint256",
          "name": "id",
          "type": "uint256"
        },
        {
          "internalType": "uint256",
          "name": "petId",
          "type": "uint256"
        },
        {
          "internalType": "string",
          "name": "diagnosis",
          "type": "string"
        },
        {
          "internalType": "string",
          "name": "treatment",
          "type": "string"
        },
        {
          "internalType": "uint256",
          "name": "timestamp",
          "type": "uint256"
        },
        {
          "internalType": "uint256",
          "name": "hospital",
          "type": "uint256"
        },
        {
          "internalType": "address",
          "name": "doctor",
          "type": "address"
        },
        {
          "internalType": "uint256",
          "name": "cost",
          "type": "uint256"
        }
      ],
      "stateMutability": "view",
      "type": "function"
    },
    {
      "inputs": [],
      "name": "petIdCounter",
      "outputs": [
        {
          "internalType": "uint256",
          "name": "",
          "type": "uint256"
        }
      ],
      "stateMutability": "view",
      "type": "function"
    },
    {
      "inputs": [
        {
          "internalType": "uint256",
          "name": "",
          "type": "uint256"
        }
      ],
      "name": "pets",
      "outputs": [
        {
          "internalType": "uint256",
          "name": "id",
          "type": "uint256"
        },
        {
          "internalType": "string",
          "name": "name",
          "type": "string"
        },
        {
          "internalType": "string",
          "name": "species",
          "type": "string"
        },
        {
          "internalType": "string",
          "name": "breed",
          "type": "string"
        },
        {
          "internalType": "string",
          "name": "gender",
          "type": "string"
        },
        {
          "internalType": "uint256",
          "name": "age",
          "type": "uint256"
        },
        {
          "internalType": "string",
          "name": "description",
          "type": "string"
        },
        {
          "internalType": "enum IMyPetBase.PetHealthStatus",
          "name": "healthStatus",
          "type": "uint8"
        },
        {
          "internalType": "enum IMyPetBase.PetAdoptionStatus",
          "name": "adoptionStatus",
          "type": "uint8"
        },
        {
          "internalType": "address",
          "name": "owner",
          "type": "address"
        },
        {
          "internalType": "uint256",
          "name": "lastUpdatedAt",
          "type": "uint256"
        }
      ],
      "stateMutability": "view",
      "type": "function"
    },
    {
      "inputs": [
        {
          "internalType": "uint256",
          "name": "_petId",
          "type": "uint256"
        }
      ],
      "name": "removePet",
      "outputs": [],
      "stateMutability": "nonpayable",
      "type": "function"
    },
    {
      "inputs": [],
      "name": "rescueRequestIdCounter",
      "outputs": [
        {
          "internalType": "uint256",
          "name": "",
          "type": "uint256"
        }
      ],
      "stateMutability": "view",
      "type": "function"
    },
    {
      "inputs": [
        {
          "internalType": "uint256",
          "name": "",
          "type": "uint256"
        }
      ],
      "name": "rescueRequests",
      "outputs": [
        {
          "internalType": "uint256",
          "name": "id",
          "type": "uint256"
        },
        {
          "internalType": "string",
          "name": "location",
          "type": "string"
        },
        {
          "internalType": "string",
          "name": "description",
          "type": "string"
        },
        {
          "internalType": "string",
          "name": "status",
          "type": "string"
        },
        {
          "internalType": "uint256",
          "name": "responderOrgId",
          "type": "uint256"
        },
        {
          "internalType": "uint256",
          "name": "timestamp",
          "type": "uint256"
        },
        {
          "internalType": "address",
          "name": "requester",
          "type": "address"
        },
        {
          "internalType": "uint256",
          "name": "urgencyLevel",
          "type": "uint256"
        }
      ],
      "stateMutability": "view",
      "type": "function"
    },
    {
      "inputs": [
        {
          "internalType": "string",
          "name": "_hash",
          "type": "string"
        }
      ],
      "name": "storeTransactionHash",
      "outputs": [],
      "stateMutability": "nonpayable",
      "type": "function"
    },
    {
      "inputs": [
        {
          "internalType": "uint256",
          "name": "",
          "type": "uint256"
        }
      ],
      "name": "transactionHashes",
      "outputs": [
        {
          "internalType": "string",
          "name": "",
          "type": "string"
        }
      ],
      "stateMutability": "view",
      "type": "function"
    },
    {
      "inputs": [
        {
          "internalType": "uint256",
          "name": "_petId",
          "type": "uint256"
        },
        {
          "internalType": "string",
          "name": "_name",
          "type": "string"
        },
        {
          "internalType": "string",
          "name": "_species",
          "type": "string"
        },
        {
          "internalType": "string",
          "name": "_breed",
          "type": "string"
        },
        {
          "internalType": "string",
          "name": "_gender",
          "type": "string"
        },
        {
          "internalType": "uint256",
          "name": "_age",
          "type": "uint256"
        },
        {
          "internalType": "string",
          "name": "_description",
          "type": "string"
        },
        {
          "internalType": "string[]",
          "name": "_images",
          "type": "string[]"
        },
        {
          "internalType": "enum IMyPetBase.PetHealthStatus",
          "name": "_healthStatus",
          "type": "uint8"
        },
        {
          "internalType": "enum IMyPetBase.PetAdoptionStatus",
          "name": "_adoptionStatus",
          "type": "uint8"
        }
      ],
      "name": "updatePet",
      "outputs": [],
      "stateMutability": "nonpayable",
      "type": "function"
    },
    {
      "inputs": [
        {
          "internalType": "uint256",
          "name": "_petId",
          "type": "uint256"
        },
        {
          "internalType": "enum IMyPetBase.PetAdoptionStatus",
          "name": "_adoptionStatus",
          "type": "uint8"
        }
      ],
      "name": "updatePetAdoptionStatus",
      "outputs": [],
      "stateMutability": "nonpayable",
      "type": "function"
    },
    {
      "inputs": [
        {
          "internalType": "uint256",
          "name": "_petId",
          "type": "uint256"
        },
        {
          "internalType": "enum IMyPetBase.PetHealthStatus",
          "name": "_healthStatus",
          "type": "uint8"
        }
      ],
      "name": "updatePetHealthStatus",
      "outputs": [],
      "stateMutability": "nonpayable",
      "type": "function"
    },
    {
      "inputs": [
        {
          "internalType": "uint256",
          "name": "_requestId",
          "type": "uint256"
        },
        {
          "internalType": "string",
          "name": "_status",
          "type": "string"
        },
        {
          "internalType": "uint256",
          "name": "_responderOrgId",
          "type": "uint256"
        }
      ],
      "name": "updateRescueRequestStatus",
      "outputs": [],
      "stateMutability": "nonpayable",
      "type": "function"
    },
    {
      "inputs": [],
      "name": "userManagerAddress",
      "outputs": [
        {
          "internalType": "address",
          "name": "",
          "type": "address"
        }
      ],
      "stateMutability": "view",
      "type": "function"
    }
  ],
  "bytecode": "0x60c0346200017c57601f6200588f38819003918201601f19168301916001600160401b03831184841017620001815780849260409485528339810103126200017c576200005a6020620000528362000197565b920162000197565b600180805560058190556006819055600755906001600160a01b03808216156200013757821615620000e65760805260a0526040516156e29081620001ad8239608051818181610410015281816119e2015281816138eb01528181613af70152613ea9015260a051818181610a4001528181610ce901528181613a8001528181614134015261442e0152f35b60405162461bcd60e51b815260206004820152602360248201527f496e76616c696420696e737469747574696f6e206d616e61676572206164647260448201526265737360e81b6064820152608490fd5b60405162461bcd60e51b815260206004820152601c60248201527f496e76616c69642075736572206d616e616765722061646472657373000000006044820152606490fd5b600080fd5b634e487b7160e01b600052604160045260246000fd5b51906001600160a01b03821682036200017c5756fe608080604052600436101561001357600080fd5b600090813560e01c9081630262df231461470f575080630c0e88df146143c857806311eedb61146142d15780631c1c28f4146140c8578063213dafcd1461408957806332e414bf14613ffd5780634691085614613f655780634a95525d14613ed85780634d1def2c14613e9357806350c688b314613dcc57806359f95c2514613dae5780635b236d9714613acd5780635bebd9d714613aaf5780635c828f3714613a6a5780638480f69e146139ff5780638e5e7d6714613837578063926c9bcf146136b7578063a50a6eb014612ff9578063a5e2252f14612ea9578063a9dae80514612d14578063ad9ad0e2146124d0578063ba8cd532146123b4578063bf2fbcae14612302578063cb92050914612291578063cfb869bf14612169578063d0c2dc0614612036578063e4c05c8014611530578063e737963b14610c3f578063ed0f162f146109d4578063eda95cb7146109b6578063f29bc9de146108ec578063f664d942146108ce578063f825c8031461077d5763feed30131461019757600080fd5b3461077a57608036600319011261077a576024356001600160a01b0381169003610775576044356001600160401b038111610771576101da9036906004016147cd565b600435151580610764575b6101ee90614f5b565b60043560001981019081116107505761020690614e82565b50600881015490600160ff8360081c1661021f816148b8565b14610712576005549261023184614ed0565b6005556040519061024182614776565b84825260043560208301526001600160a01b03602435811660408401524260608401526080830191909152601084901c1660a082015260643560c0820152600254600160401b8110156106fe5780600161029e9201600255614c29565b9190916106ea5780518255602081015160018301556002820160018060a01b036040830151166001600160601b0360a01b82541617905560608101516003830155608081015180516001600160401b0381116106d65760048401916103038354614a56565b601f811161069b575b50602090601f831160011461063157918060c09492600696948c92610626575b50508160011b916000199060031b1c19161790555b60a08101516005850180546001600160a01b0319166001600160a01b039283161790559101519190920155600882018054601090811c83168752600a60208181526040808a2060048035808d52918452828c20805460ff19908116909155875461010060248035808b1b62010000600160b01b0316610100600160b01b03199094169390931791909117909955429a87019a909a559888168c52938352818b20908b528252808a208054909716600117909655945163eac50f6b60e01b8082529287901c8516918101919091527f000000000000000000000000000000000000000000000000000000000000000090931693909291829081865afa90811561061b5786916105fc575b5061058b575b604051908152602480356001600160a01b03166004830152602090829081855afa908115610580578591610551575b506104e0575b604080516001600160a01b03601085901c8116825242602080840191909152928692602435909216916004359184917f55be7614be0c2182d17fa4209154903dc72879f15b00e2f2710ccda329bc34589190a4604051908152f35b803b1561054d5760405163f265841360e01b8152602480356001600160a01b0316600480840191909152359082015290849082908183816044810103925af18015610542571561048557610534849161472b565b61053e5782610485565b8280fd5b6040513d86823e3d90fd5b8380fd5b610573915060203d602011610579575b61056b8183614791565b810190614f43565b3861047f565b503d610561565b6040513d87823e3d90fd5b813b156105ed57604051630a86fdff60e01b81526001600160a01b03601085901c166004808301919091523560248201528590818160448183885af180156105f1576105d9575b5050610450565b6105e29061472b565b6105ed5784386105d2565b8480fd5b6040513d84823e3d90fd5b610615915060203d6020116105795761056b8183614791565b3861044a565b6040513d88823e3d90fd5b01519050388061032c565b838a5260208a209190601f1984168b5b81811061068357509260019285926006989660c098961061066a575b505050811b019055610341565b015160001960f88460031b161c1916905538808061065d565b92936020600181928786015181550195019301610641565b6106c690848b5260208b20601f850160051c810191602086106106cc575b601f0160051c0190614ef5565b3861030c565b90915081906106b9565b634e487b7160e01b88526041600452602488fd5b634e487b7160e01b86526004869052602486fd5b634e487b7160e01b86526041600452602486fd5b60405162461bcd60e51b815260206004820152601660248201527514195d081a5cc8185b1c9958591e4818591bdc1d195960521b6044820152606490fd5b634e487b7160e01b83526011600452602483fd5b50600154600435106101e5565b5080fd5b600080fd5b80fd5b503461077a576020908160031936011261077a576001600160401b0390600435828111610771576107b29036906004016147cd565b91600954825260088452604082209183519182116108ba576107d48354614a56565b601f811161088c575b508490601f831160011461082c579382939492610821575b50508160011b916000199060031b1c19161790555b60095461081681614ed0565b600955604051908152f35b0151905038806107f5565b90601f19831694848352868320925b8787821061087657505083600195961061085d575b505050811b01905561080a565b015160001960f88460031b161c19169055388080610850565b600184958293958501518155019401920161083b565b6108b490848352868320601f850160051c8101918886106106cc57601f0160051c0190614ef5565b386107dd565b634e487b7160e01b81526041600452602490fd5b503461077a578060031936011261077a576020600554604051908152f35b503461077a57602036600319011261077a576004359061090a6154ad565b50811515806109ab575b156109665760001982019182116109525761094e61093a61093484614cb5565b506154f1565b604051918291602083526020830190614cf0565b0390f35b634e487b7160e01b81526011600452602490fd5b60405162461bcd60e51b815260206004820152601c60248201527f4d65646963616c206576656e7420646f6573206e6f74206578697374000000006044820152606490fd5b506006548210610914565b503461077a578060031936011261077a576020600754604051908152f35b503461077a57604036600319011261077a576004356024803590600482101561054d5782151580610c34575b610a0990614f5b565b6000198301838111610c2157610a1e90614e82565b5060405163584fab0f60e01b81523360048201526020926001600160a01b03917f0000000000000000000000000000000000000000000000000000000000000000831685828481845afa918215610c16578992610be7575b5088809280610b65575b50505060088401923390845460101c1614908115610b5d575b5015610af45750918391610ad07fc8e817726513561c7616eb3edbd23bf2a45394ccb9fcc869aba072a54f13d6a195606095614f0c565b600a4291015560405191610ae3816148b8565b82523390820152426040820152a280f35b8360396084926040519262461bcd60e51b845260048401528201527f4f6e6c7920706574206f776e6572206f7220686f73706974616c20737461666660448201527f2063616e20757064617465206865616c746820737461747573000000000000006064820152fd5b905038610a99565b909192508360405180948193630418ed2160e21b835260048301525afa8015610bdc576040918991610bba575b5001516003811015610ba75715388881610a80565b50634e487b7160e01b8752602160045286fd5b610bd691503d808b833e610bce8183614791565b810190615032565b38610b92565b6040513d8a823e3d90fd5b9091508581813d8311610c0f575b610bff8183614791565b8101031261077557519038610a76565b503d610bf5565b6040513d8b823e3d90fd5b50634e487b7160e01b8452601160045283fd5b506001548310610a00565b503461077a5760a036600319011261077a576024356001600160401b03811161077157610c709036906004016147cd565b6044356001600160401b03811161053e57610c8f9036906004016147cd565b906084356001600160401b03811161054d57610caf903690600401614d8f565b90600435151580611523575b610cc490614f5b565b8051156114de578251156114995760405163584fab0f60e01b815233600482015291847f00000000000000000000000000000000000000000000000000000000000000006001600160a01b0316602085602481845afa9485156105f1578295611461575b5090602491610d38861515615449565b60405192838092630418ed2160e21b82528860048301525afa801561061b576040918791611447575b5001516003811015611433576113df5760065493610d7e85614ed0565b60065560405192610d8e8461473e565b8584526004356020850152604084015260608301524260808301528260a08301523360c083015260643560e0830152610100820152600354600160401b8110156113cb57806001610de29201600355614cb5565b9190916113b757805182556020810151600183015560408101518051906001600160401b03821161105e578190610e1c6002860154614a56565b601f8111611384575b50602090601f831160011461131557889261130a575b50508160011b916000199060031b1c19161760028301555b60608101518051906001600160401b03821161105e57610e766003850154614a56565b601f81116112d7575b50602090601f83116001146112665761010093929188918361125b575b50508160011b916000199060031b1c19161760038401555b6080810151600484015560a081015160058401556006830160018060a01b0360c0830151166001600160601b0360a01b82541617905560e08101516007840155015190815191600160401b83116106fe5760088201548360088401558084106111e3575b50602060089101910185526020852085915b8383106110c0575050506004356000198101915081116110ac57610f4d90614e82565b5060098101546001810180821161109857610f6781614d78565b90610f756040519283614791565b808252610f84601f1991614d78565b01366020830137855b828110611072575084610fa08383615221565b528051916001600160401b03831161105e57600160401b831161105e5790602091836009860155808410611041575b500160098301865260208620955b82811061102d576020868686600a4291015560405190815242838201523390827f34ff5635072ed578cb1a5a1c8738633eba9c3eb2bcc771cdeee87acff6b2c19b604060043593a4604051908152f35b600190602083519301928189015501610fdd565b600985018852828820611058918101908501614ef5565b38610fcf565b634e487b7160e01b87526041600452602487fd5b611093906009850188528060208920015461108d8285615221565b52614ed0565b610f8d565b634e487b7160e01b86526011600452602486fd5b634e487b7160e01b84526011600452602484fd5b80518051906001600160401b0382116111cf576110dd8454614a56565b601f811161119f575b50602090601f83116001146111325792826001949360209386958d92611127575b5050600019600383901b1c191690841b1785555b01920192019190610f2a565b015190503880611107565b90848a5260208a20918a5b601f1985168110611187575083602093600196938796938794601f1981161061116e575b505050811b01855561111b565b015160001960f88460031b161c19169055388080611161565b9192602060018192868501518155019401920161113d565b6111c990858b5260208b20601f850160051c810191602086106106cc57601f0160051c0190614ef5565b386110e6565b634e487b7160e01b89526041600452602489fd5b60088301875260208720908482015b8183018110611202575050610f18565b808961121060019354614a56565b8061121e575b5050016111f2565b601f81118414611236575050600081555b8938611216565b828252611251601f60208420920160051c8201858301614ef5565b600083555561122f565b015190503880610e9c565b906003850188526020882091885b601f19851681106112bf57509183916001936101009695601f198116106112a6575b505050811b016003840155610eb4565b015160001960f88460031b161c19169055388080611296565b91926020600181928685015181550194019201611274565b6113049060038601895260208920601f850160051c810191602086106106cc57601f0160051c0190614ef5565b38610e7f565b015190503880610e3b565b9250600285018852602088209088935b601f1984168510611369576001945083601f19811610611350575b505050811b016002830155610e53565b015160001960f88460031b161c19169055388080611340565b81810151835560209485019460019093019290910190611325565b6113b190600287018a5260208a20601f850160051c810191602086106106cc57601f0160051c0190614ef5565b38610e25565b634e487b7160e01b85526004859052602485fd5b634e487b7160e01b85526041600452602485fd5b60405162461bcd60e51b815260206004820152602660248201527f43616c6c6572277320696e737469747574696f6e206973206e6f74206120686f6044820152651cdc1a5d185b60d21b6064820152608490fd5b634e487b7160e01b86526021600452602486fd5b61145b91503d8089833e610bce8183614791565b38610d61565b915093506020813d602011611491575b8161147e60209383614791565b8101031261077557519285906024610d28565b3d9150611471565b60405162461bcd60e51b815260206004820152601960248201527f54726561746d656e742063616e6e6f7420626520656d707479000000000000006044820152606490fd5b60405162461bcd60e51b815260206004820152601960248201527f446961676e6f7369732063616e6e6f7420626520656d707479000000000000006044820152606490fd5b5060015460043510610cbb565b503461077a5761012036600319011261077a576004356001600160401b038111610771576115629036906004016147cd565b6024356001600160401b03811161053e576115819036906004016147cd565b906044356001600160401b03811161054d576115a19036906004016147cd565b916064356001600160401b0381116105ed576115c19036906004016147cd565b9260a4356001600160401b038111612032576115e19036906004016147cd565b60c4356001600160401b03811161202e57611600903690600401614d8f565b90600460e435101561202e57600461010435101561202e576001549561162587614ed0565b600155604051938460208101106001600160401b0360208701111761201857602085016040528885526040519561165b8761475a565b88875287602088015260408701526060860152608085015260843560a085015260c084015260e083015261169060e4356148b8565b60e4356101008301526116a5610104356148b8565b6101043561012083015233610140830152610160820152426101808201528354600160401b8110156113cb578060016116e092018655614e82565b6113b7578151815560208201518051906001600160401b03821161105e57819061170d6001850154614a56565b601f8111611fe5575b50602090601f8311600114611f76578892611f6b575b50508160011b916000199060031b1c19161760018201555b60408201518051906001600160401b03821161105e5781906117696002850154614a56565b601f8111611f38575b50602090601f8311600114611ec9578892611ebe575b50508160011b916000199060031b1c19161760028201555b60608201518051906001600160401b03821161105e5781906117c56003850154614a56565b601f8111611e8b575b50602090601f8311600114611e1c578892611e11575b50508160011b916000199060031b1c19161760038201555b60808201518051906001600160401b03821161105e5781906118216004850154614a56565b601f8111611dde575b50602090601f8311600114611d6f578892611d64575b50508160011b916000199060031b1c19161760048201555b60a0820151600582015560c08201518051906001600160401b03821161105e5781906118876006850154614a56565b601f8111611d31575b50602090601f8311600114611cc2578892611cb7575b50508160011b916000199060031b1c19161760068201555b60e0820151805190600160401b821161105e576007830154826007850155808310611c3f575b506020016007830187526020872087915b838310611b1c5750505050600881019161191d610100820151611917816148b8565b84614f0c565b61193561012082015161192f816148b8565b84614f24565b610140810151835462010000600160b01b03191660109190911b62010000600160b01b0316179092556001600160a01b039160098201610160820151908151916001600160401b0383116111cf57600160401b83116111cf576020908254848455808510611b02575b500190885260208820885b838110611aee5750505050610180600a910151910155338452600a6020526040842083855260205260408420600160ff198254161790557f00000000000000000000000000000000000000000000000000000000000000001660405163eac50f6b60e01b8152336004820152602081602481855afa908115610580578591611acf575b50611a81575b60208383817f6342c419c510d61c7ee75cc1173c8ca03be76384bd2b9fc7eaa7279dbdfd95c2611a6d60405193604085526040850190614837565b9242868201528033940390a3604051908152f35b803b1561054d5760405163f265841360e01b8152336004820152602481018490529084908290604490829084905af180156105425715611a3257611ac5849161472b565b61053e5782611a32565b611ae8915060203d6020116105795761056b8183614791565b38611a2c565b6001906020845194019381840155016119a9565b838b52828b20611b16918101908601614ef5565b3861199e565b80518051906001600160401b038211611c2b57611b398454614a56565b601f8111611bfb575b506020908b601f8411600114611b8e57928060209360019693879692611b83575b5050600019600383901b1c191690841b1785555b019201920191906118f5565b015190503880611b63565b85905260208c2091908c5b601f1985168110611be3575083602093600196938796938794601f19811610611bca575b505050811b018555611b77565b015160001960f88460031b161c19169055388080611bbd565b91926020600181928685015181550194019201611b99565b611c2590858d5260208d20601f850160051c810191602086106106cc57601f0160051c0190614ef5565b38611b42565b634e487b7160e01b8b52604160045260248bfd5b60078401885260208820908382015b8183018110611c5e5750506118e4565b808a611c6c60019354614a56565b80611c7a575b505001611c4e565b601f81118414611c92575050600081555b8a38611c72565b828252611cad601f60208420920160051c8201858301614ef5565b6000835555611c8b565b0151905038806118a6565b9250600684018852602088209088935b601f1984168510611d16576001945083601f19811610611cfd575b505050811b0160068201556118be565b015160001960f88460031b161c19169055388080611ced565b81810151835560209485019460019093019290910190611cd2565b611d5e90600686018a5260208a20601f850160051c810191602086106106cc57601f0160051c0190614ef5565b38611890565b015190503880611840565b9250600484018852602088209088935b601f1984168510611dc3576001945083601f19811610611daa575b505050811b016004820155611858565b015160001960f88460031b161c19169055388080611d9a565b81810151835560209485019460019093019290910190611d7f565b611e0b90600486018a5260208a20601f850160051c810191602086106106cc57601f0160051c0190614ef5565b3861182a565b0151905038806117e4565b9250600384018852602088209088935b601f1984168510611e70576001945083601f19811610611e57575b505050811b0160038201556117fc565b015160001960f88460031b161c19169055388080611e47565b81810151835560209485019460019093019290910190611e2c565b611eb890600386018a5260208a20601f850160051c810191602086106106cc57601f0160051c0190614ef5565b386117ce565b015190503880611788565b9250600284018852602088209088935b601f1984168510611f1d576001945083601f19811610611f04575b505050811b0160028201556117a0565b015160001960f88460031b161c19169055388080611ef4565b81810151835560209485019460019093019290910190611ed9565b611f6590600286018a5260208a20601f850160051c810191602086106106cc57601f0160051c0190614ef5565b38611772565b01519050388061172c565b9250600184018852602088209088935b601f1984168510611fca576001945083601f19811610611fb1575b505050811b016001820155611744565b015160001960f88460031b161c19169055388080611fa1565b81810151835560209485019460019093019290910190611f86565b61201290600186018a5260208a20601f850160051c810191602086106106cc57601f0160051c0190614ef5565b38611716565b634e487b7160e01b600052604160045260246000fd5b8680fd5b8580fd5b503461077a5760208060031936011261077157612051614e6c565b6004549183916001600160a01b0390811691835b85811061212f575061207686614d78565b956120846040519788614791565b808752612093601f1991614d78565b01845b81811061211957505050825b8481106120b7576040518061094e8882614bc7565b828260066120c484614c7a565b50015416146120dc575b6120d790614ed0565b6120a2565b926121116120d7916120f66120f087614c7a565b50615622565b612100828a615221565b5261210b8189615221565b50614ed0565b9390506120ce565b82906121236155db565b82828b01015201612096565b8383600661213c84614c7a565b5001541614612154575b61214f90614ed0565b612065565b9561216161214f91614ed0565b969050612146565b503461077a57602036600319011261077a5760043581548110156107715761219090614e82565b50805461219f60018301614a90565b916121ac60028201614a90565b6121b860038301614a90565b916121c560048201614a90565b906005810154600682016121d890614a90565b9060088301549360ff8516968560081c60ff1694600a0154966040519a8b9a8b526101608060208d01528b0161220d91614837565b8a810360408c015261221e91614837565b89810360608b015261222f91614837565b88810360808a015261224091614837565b9060a088015286810360c088015261225791614837565b93612261816148b8565b60e086015261226f816148b8565b61010085015260101c6001600160a01b03166101208401526101408301520390f35b503461077a57602036600319011261077a57600435906122af615170565b50811515806122f7575b6122c290614f5b565b60001982019182116109525761094e6122e36122dd84614e82565b5061528a565b6040519182916020835260208301906148d8565b5060015482106122b9565b503461077a57602036600319011261077a57600435906123206153af565b50811515806123a9575b156123645760001982019182116109525761094e61235061234a84614c29565b506153e8565b604051918291602083526020830190614e0f565b60405162461bcd60e51b815260206004820152601d60248201527f41646f7074696f6e206576656e7420646f6573206e6f742065786973740000006044820152606490fd5b50600554821061232a565b503461077a57602036600319011261077a576123ce614e6c565b600180546001600160a01b0392831692909184905b83811061247357506123f4906151d1565b92849060015b84811061240f576040518061094e88826149f4565b600019810181811161245f578285600861242884614e82565b50015460101c1614612444575b5061243f90614ed0565b6123fa565b61243f91936120f66122dd61245893614e82565b9290612435565b634e487b7160e01b88526011600452602488fd5b60001981018181116124bc5783600861248c8893614e82565b50015460101c16146124a7575b6124a290614ed0565b6123e3565b906124b46124a291614ed0565b919050612499565b634e487b7160e01b87526011600452602487fd5b503461077a5761014036600319011261077a576024356001600160401b038111610771576125029036906004016147cd565b6044356001600160401b03811161053e576125219036906004016147cd565b6064356001600160401b03811161054d576125409036906004016147cd565b6084356001600160401b0381116105ed5761255f9036906004016147cd565b60c4356001600160401b0381116120325761257e9036906004016147cd565b9060e4356001600160401b03811161202e5761259e903690600401614d8f565b92600461010435101561202e57600461012435101561202e57600435151580612d07575b6125cb90614f5b565b600435600019810190811161245f57806126056125ea61260a93614e82565b50600801543360109190911c6001600160a01b031614614f9c565b614e82565b509486516001600160401b0381116111cf576126296001880154614a56565b601f8111612cd4575b50806020601f8211600114612c6a578a91612c5f575b508160011b916000199060031b1c19161760018701555b80516001600160401b0381116111cf5780600288019261267f8454614a56565b601f8111612c2f575b50602090601f8311600114612bcc578b92612bc1575b50508160011b916000199060031b1c19161790555b80516001600160401b0381116106d6578060038701926126d38454614a56565b601f8111612b91575b50602090601f8311600114612b2e578a92612b23575b50508160011b916000199060031b1c19161790555b80516001600160401b03811161105e578060048601926127278454614a56565b601f8111612af3575b50602090601f8311600114612a90578992612a85575b50508160011b916000199060031b1c19161790555b60a435600584015580516001600160401b0381116106fe578060068501926127838454614a56565b601f8111612a55575b50602090601f83116001146129f25788926129e7575b50508160011b916000199060031b1c19161790555b805190600160401b82116113cb57600783015482600785015580831061296f575b506020016007830185526020852085915b8383106128615750505050612812600882016128086101043582614f0c565b6101243590614f24565b600a4291015561282d60405191604083526040830190614837565b4260208301527f43b40e0bdc5aab239d36a56df4ba90b148b997eb5b50f01d12e22cf544d1731c339280600435930390a380f35b80518051906001600160401b0382116111cf5761287e8454614a56565b601f811161293f575b50602090601f83116001146128d35792826001949360209386958d926128c8575b5050600019600383901b1c191690841b1785555b019201920191906127e9565b0151905038806128a8565b90848a52808a20918a5b601f1985168110612927575083602093600196938796938794601f1981161061290e575b505050811b0185556128bc565b015160001960f88460031b161c19169055388080612901565b919260206001819286850151815501940192016128dd565b61296990858b5260208b20601f850160051c810191602086106106cc57601f0160051c0190614ef5565b38612887565b60078401865260208620908382015b818301811061298e5750506127d8565b808861299c60019354614a56565b806129aa575b50500161297e565b601f811184146129c2575050600081555b88386129a2565b8282526129dd601f60208420920160051c8201858301614ef5565b60008355556129bb565b0151905038806127a2565b8489528189209250601f198416895b818110612a3d5750908460019594939210612a24575b505050811b0190556127b7565b015160001960f88460031b161c19169055388080612a17565b92936020600181928786015181550195019301612a01565b612a7f90858a5260208a20601f850160051c810191602086106106cc57601f0160051c0190614ef5565b3861278c565b015190503880612746565b848a52818a209250601f1984168a5b818110612adb5750908460019594939210612ac2575b505050811b01905561275b565b015160001960f88460031b161c19169055388080612ab5565b92936020600181928786015181550195019301612a9f565b612b1d90858b5260208b20601f850160051c810191602086106106cc57601f0160051c0190614ef5565b38612730565b0151905038806126f2565b848b52818b209250601f1984168b5b818110612b795750908460019594939210612b60575b505050811b019055612707565b015160001960f88460031b161c19169055388080612b53565b92936020600181928786015181550195019301612b3d565b612bbb90858c5260208c20601f850160051c810191602086106106cc57601f0160051c0190614ef5565b386126dc565b01519050388061269e565b848c52818c209250601f1984168c5b818110612c175750908460019594939210612bfe575b505050811b0190556126b3565b015160001960f88460031b161c19169055388080612bf1565b92936020600181928786015181550195019301612bdb565b612c5990858d5260208d20601f850160051c810191602086106106cc57601f0160051c0190614ef5565b38612688565b905088015138612648565b9150600188018a52818a208a925b8a601f1984168510612cbd57506001935082601f19811610612ca4575b5050811b01600187015561265f565b8a015160001960f88460031b161c191690553880612c95565b810151825560209384019360019092019101612c78565b612d0190600189018b5260208b20601f840160051c810191602085106106cc57601f0160051c0190614ef5565b38612632565b50600154600435106125c2565b503461077a576020806003193601126107715760043580151580612e9e575b612d3f90939293614f5b565b6002548291825b828110612e605750612d5783614d78565b92612d656040519485614791565b808452612d74601f1991614d78565b01845b818110612e455750508390845b838110612deb575050505060405191838301848452825180915260408401948060408360051b870101940192955b828710612dbf5785850386f35b909192938280612ddb600193603f198a82030186528851614e0f565b9601920196019592919092612db2565b816001612dfa83999899614c29565b50015414612e14575b612e0c90614ed0565b959495612d84565b91612e3d612e0c91612e2861234a86614c29565b612e328289615221565b5261210b8188615221565b929050612e03565b95809596612e516153af565b82828801015201959495612d77565b816001612e6f83989798614c29565b50015414612e89575b612e8190614ed0565b949394612d46565b92612e96612e8191614ed0565b939050612e78565b506001548110612d33565b503461077a576020908160031936011261077a576001600160401b039160043583811161053e57612ede9036906004016147cd565b9260095483526008825260408320918451918211612fe557612f008354614a56565b601f8111612fb7575b5080601f8311600114612f535750839482939492612f48575b50508160011b916000199060031b1c19161790555b612f42600954614ed0565b60095580f35b015190503880612f22565b90601f198316958486528286209286905b888210612f9f57505083600195969710612f86575b505050811b019055612f37565b015160001960f88460031b161c19169055388080612f79565b80600185968294968601518155019501930190612f64565b612fdf90848652828620601f850160051c8101918486106106cc57601f0160051c0190614ef5565b38612f09565b634e487b7160e01b84526041600452602484fd5b503461077a57608036600319011261077a576004356001600160401b0381116107715761302a9036906004016147cd565b906024356001600160401b0381116107715761304a9036906004016147cd565b916044356001600160401b03811161053e5761306a903690600401614d8f565b926007549261307884614ed0565b600755604051946130888661473e565b84865260208601928484526040870152604051604081018181106001600160401b0382111761201857604052600781526670656e64696e6760c81b602082015260608701528160808701524260a08701523360c087015260e0860152606435610100860152600454600160401b8110156136a35780600161310c9201600455614c7a565b92909261368f5785518355518051906001600160401b0382116134745781906131386001860154614a56565b601f811161365c575b50602090601f83116001146135ed5784926135e2575b50508160011b916000199060031b1c19161760018301555b60408501518051906001600160401b0382116134745781906131946002860154614a56565b601f81116135af575b50602090601f8311600114613540578492613535575b50508160011b916000199060031b1c19161760028301555b60608501518051906001600160401b0382116134745781906131f06003860154614a56565b601f8111613502575b50602090601f8311600114613493578492613488575b50508160011b916000199060031b1c19161760038301555b6080850151600483015560a085015160058301556006820160018060a01b0360c0870151166001600160601b0360a01b82541617905560e0850151805190600160401b82116134745760078401548260078601558083106133fc575b506020016007840183526020832083915b8383106132ed57602088888860086101008e0151910155817f9eb849b4f6f3138108f9e92fd4141262c526a0552d10586d8b9fff4e38328d39604051806132e2339542906064359084615574565b0390a3604051908152f35b80518051906001600160401b03821161105e5761330a8454614a56565b601f81116133cc575b50602090601f831160011461335f5792826001949360209386958b92613354575b5050600019600383901b1c191690841b1785555b01920192019190613294565b015190503880613334565b908488526020882091885b601f19851681106133b4575083602093600196938796938794601f1981161061339b575b505050811b018555613348565b015160001960f88460031b161c1916905538808061338e565b9192602060018192868501518155019401920161336a565b6133f69085895260208920601f850160051c810191602086106106cc57601f0160051c0190614ef5565b38613313565b60078501845260208420908382015b818301811061341b575050613283565b808661342960019354614a56565b80613437575b50500161340b565b601f8111841461344f575050600081555b863861342f565b82825261346a601f60208420920160051c8201858301614ef5565b6000835555613448565b634e487b7160e01b83526041600452602483fd5b01519050388061320f565b9250600385018452602084209084935b601f19841685106134e7576001945083601f198116106134ce575b505050811b016003830155613227565b015160001960f88460031b161c191690553880806134be565b818101518355602094850194600190930192909101906134a3565b61352f9060038701865260208620601f850160051c810191602086106106cc57601f0160051c0190614ef5565b386131f9565b0151905038806131b3565b9250600285018452602084209084935b601f1984168510613594576001945083601f1981161061357b575b505050811b0160028301556131cb565b015160001960f88460031b161c1916905538808061356b565b81810151835560209485019460019093019290910190613550565b6135dc9060028701865260208620601f850160051c810191602086106106cc57601f0160051c0190614ef5565b3861319d565b015190503880613157565b9250600185018452602084209084935b601f1984168510613641576001945083601f19811610613628575b505050811b01600183015561316f565b015160001960f88460031b161c19169055388080613618565b818101518355602094850194600190930192909101906135fd565b6136899060018701865260208620601f850160051c810191602086106106cc57601f0160051c0190614ef5565b38613141565b634e487b7160e01b82526004829052602482fd5b634e487b7160e01b82526041600452602482fd5b503461077a57602080600319360112610771576004358015158061382c575b6136e290939293614f5b565b6003548291825b8281106137ee57506136fa83614d78565b926137086040519485614791565b808452613717601f1991614d78565b01845b8181106137d35750508390845b83811061378e575050505060405191838301848452825180915260408401948060408360051b870101940192955b8287106137625785850386f35b90919293828061377e600193603f198a82030186528851614cf0565b9601920196019592919092613755565b81600161379d83999899614cb5565b500154146137b7575b6137af90614ed0565b959495613727565b916137cb6137af91612e2861093486614cb5565b9290506137a6565b958095966137df6154ad565b8282880101520195949561371a565b8160016137fd83989798614cb5565b50015414613817575b61380f90614ed0565b9493946136e9565b9261382461380f91614ed0565b939050613806565b5060015481106136d6565b503461077a5760208060031936011261077157600435801515806139f4575b61385f90614f5b565b6000198101918183116110ac57613897600861387a85614e82565b5001546001600160a01b0394906126059060101c86163314614f9c565b50600881018054610100600160b01b031981166103001790915542600a928301553380875291835260408087208588528452808720805460ff191690555163eac50f6b60e01b8152600481019290925293907f00000000000000000000000000000000000000000000000000000000000000008216908381602481855afa9081156139e95787916139cc575b5061395d575b50907f346ef892a985c1086a400f5039fdd55058b695ef87c9ae769c1e191570857d32916040519442865260101c1693a380f35b803b1561203257604051630a86fdff60e01b8152336004820152602481018590529086908290604490829084905af1801561061b571561392957946139c47f346ef892a985c1086a400f5039fdd55058b695ef87c9ae769c1e191570857d3293929661472b565b949091613929565b6139e39150843d86116105795761056b8183614791565b38613923565b6040513d89823e3d90fd5b506001548110613856565b503461077a57602036600319011261077a5760043590613a1d6155db565b5081151580613a5f575b613a3090615596565b60001982019182116109525761094e613a4b6120f084614c7a565b604051918291602083526020830190614b36565b506007548210613a27565b503461077a578060031936011261077a576040517f00000000000000000000000000000000000000000000000000000000000000006001600160a01b03168152602090f35b503461077a578060031936011261077a576020600954604051908152f35b503461077a578060031936011261077a5760405163eac50f6b60e01b8152336004820152602091907f00000000000000000000000000000000000000000000000000000000000000006001600160a01b0316908381602481855afa908115613da3578391613d86575b5015613d4b578160249160405192838092636386c1c760e01b82523360048301525afa9081156105f1578291613c6a575b50613b71816148b8565b8015908115613c56575b5015613bfa57908154613b8d81614d78565b91613b9b6040519384614791565b8183528380527f290decd9548b62a8d60345a988386fc84ba6bc95484008f6362f93160ef3e56393908084015b838310613bdd576040518061094e87826149f4565b600b82600192613bec8961528a565b815201960192019194613bc8565b60405162461bcd60e51b815260048101839052602e60248201527f4f6e6c792061646d696e206f7220686f73706974616c2073746166662063616e60448201526d207669657720616c6c207065747360901b6064820152608490fd5b60029150613c63816148b8565b1438613b7b565b90503d8083833e613c7b8183614791565b81016101608282031261053e57838201516001600160401b03908181116105ed5782613ca8918501614fdc565b5060408301518181116105ed5782613cc1918501614fdc565b5060608301518181116105ed5782613cda918501614fdc565b50613ce76080840161501e565b50600260a0840151101561054d5760e08301518181116105ed5782613d0d918501614fdc565b506003610100840151101561054d576101208301519260048410156105ed576101408101519182116105ed57613d44929101614fdc565b5038613b67565b60405162461bcd60e51b8152600481018490526013602482015272155cd95c881b9bdd081c9959da5cdd195c9959606a1b6044820152606490fd5b613d9d9150843d86116105795761056b8183614791565b38613b36565b6040513d85823e3d90fd5b503461077a578060031936011261077a576020600154604051908152f35b503461077a57602036600319011261077a5760043560045481101561077157613df490614c7a565b508054613e0360018301614a90565b91613e1060028201614a90565b613e1c60038301614a90565b91600481015492613e7a600583015491613e6c600860018060a01b0360068701541695015495613e5e6040519a8b9a8b526101008060208d01528b0190614837565b9089820360408b0152614837565b908782036060890152614837565b93608086015260a085015260c084015260e08301520390f35b503461077a578060031936011261077a576040517f00000000000000000000000000000000000000000000000000000000000000006001600160a01b03168152602090f35b503461077a57602036600319011261077a5760043560035481101561077157613f0090614cb5565b508054600182015491613f1560028201614a90565b613f2160038301614a90565b91600481015492613e7a600583015491613e6c600760018060a01b0360068701541695015495604051998a998a5260208a01526101008060408b0152890190614837565b503461077a57602036600319011261077a5760043560025481101561077157613f8d90614c29565b50805460018201549160018060a01b03613fee816002840154169160038401546006613fbb60048701614a90565b9260058701541695015493604051978897885260208801526040870152606086015260e0608086015260e0850190614837565b9160a084015260c08301520390f35b503461077a578060031936011261077a5760045461401a81614d78565b906140286040519283614791565b808252600483527f8a35acfbc15ff81a39ae7d344fd709f28e8600b4aa8c65c6b64bfe7fe36bd19b9260208084015b83831061406c576040518061094e8782614bc7565b60098260019261407b89615622565b815201960192019194614057565b503461077a57602036600319011261077a576140b4604061094e926004358152600860205220614a90565b604051918291602083526020830190614837565b503461077a57604036600319011261077a576004356024803590600482101561054d57821515806142c6575b6140fd90614f5b565b6000198301838111610c215761411290614e82565b5060405163584fab0f60e01b81523360048201526020926001600160a01b03917f0000000000000000000000000000000000000000000000000000000000000000831685828481845afa918215610c16578992614293575b5088809280614235575b50505060088401923390845460101c161490811561422d575b50156141c45750918391610ad07f7d0da604b8f505f4dbe71c3c18098b9a37e5cc4d9841c01d6be11b244b76a25c95606095614f24565b83603a6084926040519262461bcd60e51b845260048401528201527f4f6e6c7920706574206f776e6572206f72207368656c7465722073746166662060448201527f63616e207570646174652061646f7074696f6e207374617475730000000000006064820152fd5b90503861418d565b909192508360405180948193630418ed2160e21b835260048301525afa8015610bdc576040918991614279575b5001516003811015610ba757600114388881614174565b61428d91503d808b833e610bce8183614791565b38614262565b9091508581813d83116142bf575b6142ab8183614791565b810103126142bb5751903861416a565b8880fd5b503d6142a1565b5060015483106140f4565b503461077a57602036600319011261077a5760043590600482101561077a5780549080805b8381106143775750614307906151d1565b92815b83811061431f576040518061094e87826149f4565b8160ff61432b83614e82565b50600880910154901c1661433e826148b8565b614347816148b8565b1461435b575b61435690614ed0565b61430a565b9161436f61435691612e286122dd86614e82565b92905061434d565b8460ff61438383614e82565b50600880910154901c16614396826148b8565b61439f816148b8565b146143b3575b6143ae90614ed0565b6142f6565b906143c06143ae91614ed0565b9190506143a5565b503461077a57606036600319011261077a576004356001600160401b03602480358281116105ed576143fe9036906004016147cd565b916044359184151580614704575b61441590615596565b60405163584fab0f60e01b8152336004820152602092907f00000000000000000000000000000000000000000000000000000000000000006001600160a01b031690889085818681865afa9081156105f15782916146d7575b5061447a811515615449565b8460405180948193630418ed2160e21b835260048301525afa8015610bdc5760409189916146bd575b50015160038110156146aa57600180910361464a5760001990878201888111614637576144cf90614c7a565b50946003860194885194851161462557506144ea8554614a56565b601f81116145f7575b508981601f8611600114614568575093879693817f2195d99dac9b89ea92bf6fc0c105f6640b48cbfff5d0aba408aa1e3210dc87069a99979481946004989461455d575b501b9260031b1c19161790555b0155614557604051928392429184615574565b0390a280f35b8b0151935038614537565b868c52808c20939594929150601f198516908c905b8282106145e0575050926004959285928a99967f2195d99dac9b89ea92bf6fc0c105f6640b48cbfff5d0aba408aa1e3210dc87069c9b9996106145c8575b505050811b019055614544565b8a01519060f88460031b161c191690553880806145bb565b808885978294968f0151815501960193019061457d565b61461f90868c52828c20601f870160051c8101918488106106cc57601f0160051c0190614ef5565b386144f3565b634e487b7160e01b8b5260416004528afd5b634e487b7160e01b8a526011600452848afd5b60405162461bcd60e51b8152600481018590526033818501527f4f6e6c79207368656c7465722073746166662063616e207570646174652072656044820152727363756520726571756573742073746174757360681b6064820152608490fd5b634e487b7160e01b885260216004528288fd5b6146d191503d808b833e610bce8183614791565b386144a3565b90508581813d83116146fd575b6146ee8183614791565b8101031261077157513861446e565b503d6146e4565b50600754851061440c565b9050346107715781600319360112610771576020906006548152f35b6001600160401b03811161201857604052565b61012081019081106001600160401b0382111761201857604052565b6101a081019081106001600160401b0382111761201857604052565b60e081019081106001600160401b0382111761201857604052565b90601f801991011681019081106001600160401b0382111761201857604052565b6001600160401b03811161201857601f01601f191660200190565b81601f82011215610775578035906147e4826147b2565b926147f26040519485614791565b8284526020838301011161077557816000926020809301838601378301015290565b60005b8381106148275750506000910152565b8181015183820152602001614817565b9060209161485081518092818552858086019101614814565b601f01601f1916010190565b908082519081815260208091019281808460051b8301019501936000915b84831061488a5750505050505090565b90919293949584806148a8600193601f198682030187528a51614837565b980193019301919493929061487a565b600411156148c257565b634e487b7160e01b600052602160045260246000fd5b908151815260209161496a61495861493c61492a614918614906888701516101a0808b8b0152890190614837565b604087015188820360408a0152614837565b60608601518782036060890152614837565b60808501518682036080880152614837565b60a084015160a086015260c084015185820360c0870152614837565b60e083015184820360e086015261485c565b92610100808301519061497c826148b8565b8401526101208083015190614990826148b8565b840152610140828101516001600160a01b03169084015261016080830151848603918501919091528051808652948201949082019160005b8281106149e057505050506101808091015191015290565b8351875295810195928101926001016149c8565b602080820190808352835180925260408301928160408460051b8301019501936000915b848310614a285750505050505090565b9091929394958480614a46600193603f198682030187528a516148d8565b9801930193019194939290614a18565b90600182811c92168015614a86575b6020831014614a7057565b634e487b7160e01b600052602260045260246000fd5b91607f1691614a65565b9060405191826000825492614aa484614a56565b908184526001948581169081600014614b135750600114614ad0575b5050614ace92500383614791565b565b9093915060005260209081600020936000915b818310614afb575050614ace93508201013880614ac0565b85548884018501529485019487945091830191614ae3565b915050614ace94506020925060ff191682840152151560051b8201013880614ac0565b9081518152614bb9614b81614b6f614b5d6020860151610120806020880152860190614837565b60408601518582036040870152614837565b60608501518482036060860152614837565b6080840151608084015260a084015160a084015260018060a01b0360c08501511660c084015260e084015183820360e085015261485c565b916101008091015191015290565b602080820190808352835180925260408301928160408460051b8301019501936000915b848310614bfb5750505050505090565b9091929394958480614c19600193603f198682030187528a51614b36565b9801930193019194939290614beb565b600254811015614c64576007906002600052027f405787fa12a823e0f2b7631cc41b3ba8828b3321ca811111fa75cd3aa3bb5ace0190600090565b634e487b7160e01b600052603260045260246000fd5b600454811015614c64576009906004600052027f8a35acfbc15ff81a39ae7d344fd709f28e8600b4aa8c65c6b64bfe7fe36bd19b0190600090565b600354811015614c64576009906003600052027fc2575a0e9e593c00f959f8c92f12db2869c3395a3b0502d05e2516446f71f85b0190600090565b90614d75918051825260208101516020830152614d31614d1f6040830151610120806040870152850190614837565b60608301518482036060860152614837565b916080820151608082015260a082015160a082015260018060a01b0360c08301511660c082015260e082015160e0820152610100809201519181840391015261485c565b90565b6001600160401b0381116120185760051b60200190565b9080601f8301121561077557813590614da782614d78565b92614db56040519485614791565b828452602092838086019160051b8301019280841161077557848301915b848310614de35750505050505090565b82356001600160401b038111610775578691614e04848480948901016147cd565b815201920191614dd3565b90815181526020820151602082015260c08060018060a01b039384604082015116604085015260608101516060850152614e58608082015160e0608087015260e0860190614837565b9460a08201511660a0850152015191015290565b600435906001600160a01b038216820361077557565b906000918254811015614ebc57600b90838052027f290decd9548b62a8d60345a988386fc84ba6bc95484008f6362f93160ef3e563019190565b634e487b7160e01b83526032600452602483fd5b6000198114614edf5760010190565b634e487b7160e01b600052601160045260246000fd5b818110614f00575050565b60008155600101614ef5565b90614f16816148b8565b60ff80198354169116179055565b90614f2e816148b8565b61ff0082549160081b169061ff001916179055565b90816020910312610775575180151581036107755790565b15614f6257565b60405162461bcd60e51b815260206004820152601260248201527114195d08191bd95cc81b9bdd08195e1a5cdd60721b6044820152606490fd5b15614fa357565b60405162461bcd60e51b81526020600482015260116024820152702737ba103a3432903832ba1037bbb732b960791b6044820152606490fd5b81601f82011215610775578051614ff2816147b2565b926150006040519485614791565b8184526020828401011161077557614d759160208085019101614814565b51906001600160a01b038216820361077557565b60209182828203126107755781516001600160401b03928382116107755701916101009384848403126107755760405194850185811083821117612018576040528351855280840151828111610775578361508e918601614fdc565b81860152604084015160038110156107755760408601526150b16060850161501e565b606086015260808401518281116107755784019083601f83011215610775578151916150dc83614d78565b926150ea6040519485614791565b808452828085019160051b83010191868311610775578301905b8282106151595750505050608085015260a083015160a085015260c08301518181116107755782615136918501614fdc565b60c085015260e0830151908111610775576151519201614fdc565b60e082015290565b8380916151658461501e565b815201910190615104565b6040519061517d8261475a565b81610180600091828152606080602083015280604083015280808301528060808301528360a08301528060c08301528060e08301528361010083015283610120830152836101408301526101608201520152565b906151db82614d78565b6151e86040519182614791565b82815280926151f9601f1991614d78565b019060005b82811061520a57505050565b602090615215615170565b828285010152016151fe565b8051821015614c645760209160051b010190565b90815461524181614d78565b9261524f6040519485614791565b818452600090815260208082208186015b84841061526e575050505050565b600183819261527c85614a90565b815201920193019290615260565b906040516152978161475a565b80928054825260016152aa818301614a90565b602090818501526152bd60028401614a90565b60408501526152ce60038401614a90565b60608501526152df60048401614a90565b6080850152600583015460a08501526152fa60068401614a90565b60c085015261530b60078401615235565b60e0850152600883015460ff8116615322816148b8565b61010086015260ff8160081c16615338816148b8565b61012086015260101c6001600160a01b031661014085015260405160098401805480835260009182528382209294858501949092905b82821061539a575050505050918161538d600a93610180950382614791565b6101608501520154910152565b8454865294850194938301939083019061536e565b604051906153bc82614776565b8160c0600091828152826020820152826040820152826060820152606060808201528260a08201520152565b906040516153f581614776565b60c060068294805484526001810154602085015260018060a01b038060028301541660408601526003820154606086015261543260048301614a90565b608086015260058201541660a08501520154910152565b1561545057565b60405162461bcd60e51b815260206004820152602f60248201527f43616c6c6572206973206e6f742061207374616666206d656d626572206f662060448201526e30b73c9034b739ba34ba3aba34b7b760891b6064820152608490fd5b604051906154ba8261473e565b606061010083600080825280602083015283604083015283808301528060808301528060a08301528060c083015260e08201520152565b906040516154fe8161473e565b61010061556f60088395805485526001810154602086015261552260028201614a90565b604086015261553360038201614a90565b606086015260048101546080860152600581015460a086015260068101546001600160a01b031660c0860152600781015460e086015201615235565b910152565b61558c60409295949395606083526060830190614837565b9460208201520152565b1561559d57565b60405162461bcd60e51b815260206004820152601660248201527514995c5d595cdd08191bd95cc81b9bdd08195e1a5cdd60521b6044820152606490fd5b604051906155e88261473e565b60006101008382815260606020820152606060408201526060808201528260808201528260a08201528260c0820152606060e08201520152565b9060405161562f8161473e565b610100600882948054845261564660018201614a90565b602085015261565760028201614a90565b604085015261566860038201614a90565b606085015260048101546080850152600581015460a085015260068101546001600160a01b031660c08501526156a060078201615235565b60e0850152015491015256fea26469706673582212201ddad80d26b939d78138f44c906f09815edcc81dbc2c3f49745ef1586e6e357d64736f6c63430008130033",
  "linkReferences": {},
  "deployedLinkReferences": {}
}