{
  "_format": "hh-sol-artifact-1",
  "contractName": "PetManager",
  "sourceName": "contracts/PetManager.sol",
  "abi": [
    {
      "inputs": [
        {
          "internalType": "address",
          "name": "_userManagerAddress",
          "type": "address"
        },
        {
          "internalType": "address",
          "name": "_institutionManagerAddress",
          "type": "address"
        }
      ],
      "stateMutability": "nonpayable",
      "type": "constructor"
    },
    {
      "inputs": [
        {
          "internalType": "uint256",
          "name": "_petId",
          "type": "uint256"
        },
        {
          "internalType": "address",
          "name": "_adopter",
          "type": "address"
        },
        {
          "internalType": "string",
          "name": "_notes",
          "type": "string"
        }
      ],
      "name": "addAdoptionEvent",
      "outputs": [],
      "stateMutability": "nonpayable",
      "type": "function"
    },
    {
      "inputs": [
        {
          "internalType": "uint256",
          "name": "_petId",
          "type": "uint256"
        },
        {
          "internalType": "string",
          "name": "_diagnosis",
          "type": "string"
        },
        {
          "internalType": "string",
          "name": "_treatment",
          "type": "string"
        }
      ],
      "name": "addMedicalEvent",
      "outputs": [],
      "stateMutability": "nonpayable",
      "type": "function"
    },
    {
      "inputs": [
        {
          "internalType": "string",
          "name": "_name",
          "type": "string"
        },
        {
          "internalType": "string",
          "name": "_species",
          "type": "string"
        },
        {
          "internalType": "string",
          "name": "_breed",
          "type": "string"
        },
        {
          "internalType": "string",
          "name": "_gender",
          "type": "string"
        },
        {
          "internalType": "uint256",
          "name": "_age",
          "type": "uint256"
        },
        {
          "internalType": "string",
          "name": "_description",
          "type": "string"
        },
        {
          "internalType": "string",
          "name": "_image",
          "type": "string"
        }
      ],
      "name": "addPet",
      "outputs": [],
      "stateMutability": "nonpayable",
      "type": "function"
    },
    {
      "inputs": [
        {
          "internalType": "string",
          "name": "_location",
          "type": "string"
        },
        {
          "internalType": "string",
          "name": "_description",
          "type": "string"
        }
      ],
      "name": "addRescueRequest",
      "outputs": [
        {
          "internalType": "uint256",
          "name": "",
          "type": "uint256"
        }
      ],
      "stateMutability": "nonpayable",
      "type": "function"
    },
    {
      "inputs": [],
      "name": "adoptionEventIdCounter",
      "outputs": [
        {
          "internalType": "uint256",
          "name": "",
          "type": "uint256"
        }
      ],
      "stateMutability": "view",
      "type": "function"
    },
    {
      "inputs": [
        {
          "internalType": "uint256",
          "name": "",
          "type": "uint256"
        }
      ],
      "name": "adoptionEvents",
      "outputs": [
        {
          "internalType": "uint256",
          "name": "petId",
          "type": "uint256"
        },
        {
          "internalType": "address",
          "name": "adopter",
          "type": "address"
        },
        {
          "internalType": "uint256",
          "name": "timestamp",
          "type": "uint256"
        },
        {
          "internalType": "string",
          "name": "notes",
          "type": "string"
        }
      ],
      "stateMutability": "view",
      "type": "function"
    },
    {
      "inputs": [
        {
          "internalType": "string",
          "name": "_name",
          "type": "string"
        }
      ],
      "name": "findPetsByName",
      "outputs": [
        {
          "components": [
            {
              "internalType": "uint256",
              "name": "id",
              "type": "uint256"
            },
            {
              "internalType": "string",
              "name": "name",
              "type": "string"
            },
            {
              "internalType": "string",
              "name": "species",
              "type": "string"
            },
            {
              "internalType": "string",
              "name": "breed",
              "type": "string"
            },
            {
              "internalType": "string",
              "name": "gender",
              "type": "string"
            },
            {
              "internalType": "uint256",
              "name": "age",
              "type": "uint256"
            },
            {
              "internalType": "string",
              "name": "description",
              "type": "string"
            },
            {
              "internalType": "string",
              "name": "image",
              "type": "string"
            },
            {
              "internalType": "string",
              "name": "status",
              "type": "string"
            },
            {
              "internalType": "address",
              "name": "owner",
              "type": "address"
            }
          ],
          "internalType": "struct IMyPetBase.Pet[]",
          "name": "",
          "type": "tuple[]"
        }
      ],
      "stateMutability": "view",
      "type": "function"
    },
    {
      "inputs": [],
      "name": "getAllPets",
      "outputs": [
        {
          "components": [
            {
              "internalType": "uint256",
              "name": "id",
              "type": "uint256"
            },
            {
              "internalType": "string",
              "name": "name",
              "type": "string"
            },
            {
              "internalType": "string",
              "name": "species",
              "type": "string"
            },
            {
              "internalType": "string",
              "name": "breed",
              "type": "string"
            },
            {
              "internalType": "string",
              "name": "gender",
              "type": "string"
            },
            {
              "internalType": "uint256",
              "name": "age",
              "type": "uint256"
            },
            {
              "internalType": "string",
              "name": "description",
              "type": "string"
            },
            {
              "internalType": "string",
              "name": "image",
              "type": "string"
            },
            {
              "internalType": "string",
              "name": "status",
              "type": "string"
            },
            {
              "internalType": "address",
              "name": "owner",
              "type": "address"
            }
          ],
          "internalType": "struct IMyPetBase.Pet[]",
          "name": "",
          "type": "tuple[]"
        }
      ],
      "stateMutability": "view",
      "type": "function"
    },
    {
      "inputs": [
        {
          "internalType": "uint256",
          "name": "_petId",
          "type": "uint256"
        }
      ],
      "name": "getMedicalEventCountByPet",
      "outputs": [
        {
          "internalType": "uint256",
          "name": "",
          "type": "uint256"
        }
      ],
      "stateMutability": "view",
      "type": "function"
    },
    {
      "inputs": [
        {
          "internalType": "uint256",
          "name": "_petId",
          "type": "uint256"
        }
      ],
      "name": "getPetById",
      "outputs": [
        {
          "components": [
            {
              "internalType": "uint256",
              "name": "id",
              "type": "uint256"
            },
            {
              "internalType": "string",
              "name": "name",
              "type": "string"
            },
            {
              "internalType": "string",
              "name": "species",
              "type": "string"
            },
            {
              "internalType": "string",
              "name": "breed",
              "type": "string"
            },
            {
              "internalType": "string",
              "name": "gender",
              "type": "string"
            },
            {
              "internalType": "uint256",
              "name": "age",
              "type": "uint256"
            },
            {
              "internalType": "string",
              "name": "description",
              "type": "string"
            },
            {
              "internalType": "string",
              "name": "image",
              "type": "string"
            },
            {
              "internalType": "string",
              "name": "status",
              "type": "string"
            },
            {
              "internalType": "address",
              "name": "owner",
              "type": "address"
            }
          ],
          "internalType": "struct IMyPetBase.Pet",
          "name": "",
          "type": "tuple"
        }
      ],
      "stateMutability": "view",
      "type": "function"
    },
    {
      "inputs": [],
      "name": "getPetCount",
      "outputs": [
        {
          "internalType": "uint256",
          "name": "",
          "type": "uint256"
        }
      ],
      "stateMutability": "view",
      "type": "function"
    },
    {
      "inputs": [
        {
          "internalType": "uint256",
          "name": "_petId",
          "type": "uint256"
        },
        {
          "internalType": "uint256",
          "name": "_index",
          "type": "uint256"
        }
      ],
      "name": "getPetMedicalEventAt",
      "outputs": [
        {
          "internalType": "uint256",
          "name": "",
          "type": "uint256"
        }
      ],
      "stateMutability": "view",
      "type": "function"
    },
    {
      "inputs": [
        {
          "internalType": "address",
          "name": "_user",
          "type": "address"
        }
      ],
      "name": "getUserPets",
      "outputs": [
        {
          "components": [
            {
              "internalType": "uint256",
              "name": "id",
              "type": "uint256"
            },
            {
              "internalType": "string",
              "name": "name",
              "type": "string"
            },
            {
              "internalType": "string",
              "name": "species",
              "type": "string"
            },
            {
              "internalType": "string",
              "name": "breed",
              "type": "string"
            },
            {
              "internalType": "string",
              "name": "gender",
              "type": "string"
            },
            {
              "internalType": "uint256",
              "name": "age",
              "type": "uint256"
            },
            {
              "internalType": "string",
              "name": "description",
              "type": "string"
            },
            {
              "internalType": "string",
              "name": "image",
              "type": "string"
            },
            {
              "internalType": "string",
              "name": "status",
              "type": "string"
            },
            {
              "internalType": "address",
              "name": "owner",
              "type": "address"
            }
          ],
          "internalType": "struct IMyPetBase.Pet[]",
          "name": "",
          "type": "tuple[]"
        }
      ],
      "stateMutability": "view",
      "type": "function"
    },
    {
      "inputs": [],
      "name": "institutionManagerAddress",
      "outputs": [
        {
          "internalType": "address",
          "name": "",
          "type": "address"
        }
      ],
      "stateMutability": "view",
      "type": "function"
    },
    {
      "inputs": [
        {
          "internalType": "uint256",
          "name": "",
          "type": "uint256"
        }
      ],
      "name": "medicalEvents",
      "outputs": [
        {
          "internalType": "uint256",
          "name": "petId",
          "type": "uint256"
        },
        {
          "internalType": "string",
          "name": "diagnosis",
          "type": "string"
        },
        {
          "internalType": "string",
          "name": "treatment",
          "type": "string"
        },
        {
          "internalType": "uint256",
          "name": "timestamp",
          "type": "uint256"
        },
        {
          "internalType": "address",
          "name": "hospital",
          "type": "address"
        },
        {
          "internalType": "address",
          "name": "doctor",
          "type": "address"
        }
      ],
      "stateMutability": "view",
      "type": "function"
    },
    {
      "inputs": [],
      "name": "petIdCounter",
      "outputs": [
        {
          "internalType": "uint256",
          "name": "",
          "type": "uint256"
        }
      ],
      "stateMutability": "view",
      "type": "function"
    },
    {
      "inputs": [
        {
          "internalType": "uint256",
          "name": "",
          "type": "uint256"
        }
      ],
      "name": "pets",
      "outputs": [
        {
          "internalType": "uint256",
          "name": "id",
          "type": "uint256"
        },
        {
          "internalType": "string",
          "name": "name",
          "type": "string"
        },
        {
          "internalType": "string",
          "name": "species",
          "type": "string"
        },
        {
          "internalType": "string",
          "name": "breed",
          "type": "string"
        },
        {
          "internalType": "string",
          "name": "gender",
          "type": "string"
        },
        {
          "internalType": "uint256",
          "name": "age",
          "type": "uint256"
        },
        {
          "internalType": "string",
          "name": "description",
          "type": "string"
        },
        {
          "internalType": "string",
          "name": "image",
          "type": "string"
        },
        {
          "internalType": "string",
          "name": "status",
          "type": "string"
        },
        {
          "internalType": "address",
          "name": "owner",
          "type": "address"
        }
      ],
      "stateMutability": "view",
      "type": "function"
    },
    {
      "inputs": [
        {
          "internalType": "uint256",
          "name": "_petId",
          "type": "uint256"
        }
      ],
      "name": "removePet",
      "outputs": [],
      "stateMutability": "nonpayable",
      "type": "function"
    },
    {
      "inputs": [],
      "name": "rescueRequestIdCounter",
      "outputs": [
        {
          "internalType": "uint256",
          "name": "",
          "type": "uint256"
        }
      ],
      "stateMutability": "view",
      "type": "function"
    },
    {
      "inputs": [
        {
          "internalType": "uint256",
          "name": "",
          "type": "uint256"
        }
      ],
      "name": "rescueRequests",
      "outputs": [
        {
          "internalType": "uint256",
          "name": "id",
          "type": "uint256"
        },
        {
          "internalType": "string",
          "name": "location",
          "type": "string"
        },
        {
          "internalType": "string",
          "name": "description",
          "type": "string"
        },
        {
          "internalType": "string",
          "name": "status",
          "type": "string"
        },
        {
          "internalType": "uint256",
          "name": "responderOrgId",
          "type": "uint256"
        },
        {
          "internalType": "uint256",
          "name": "timestamp",
          "type": "uint256"
        }
      ],
      "stateMutability": "view",
      "type": "function"
    },
    {
      "inputs": [
        {
          "internalType": "uint256",
          "name": "_petId",
          "type": "uint256"
        },
        {
          "internalType": "string",
          "name": "_name",
          "type": "string"
        },
        {
          "internalType": "string",
          "name": "_species",
          "type": "string"
        },
        {
          "internalType": "string",
          "name": "_breed",
          "type": "string"
        },
        {
          "internalType": "string",
          "name": "_gender",
          "type": "string"
        },
        {
          "internalType": "uint256",
          "name": "_age",
          "type": "uint256"
        },
        {
          "internalType": "string",
          "name": "_description",
          "type": "string"
        },
        {
          "internalType": "string",
          "name": "_image",
          "type": "string"
        }
      ],
      "name": "updatePet",
      "outputs": [],
      "stateMutability": "nonpayable",
      "type": "function"
    },
    {
      "inputs": [
        {
          "internalType": "uint256",
          "name": "_requestId",
          "type": "uint256"
        },
        {
          "internalType": "string",
          "name": "_status",
          "type": "string"
        },
        {
          "internalType": "uint256",
          "name": "_responderOrgId",
          "type": "uint256"
        }
      ],
      "name": "updateRescueRequestStatus",
      "outputs": [],
      "stateMutability": "nonpayable",
      "type": "function"
    },
    {
      "inputs": [],
      "name": "userManagerAddress",
      "outputs": [
        {
          "internalType": "address",
          "name": "",
          "type": "address"
        }
      ],
      "stateMutability": "view",
      "type": "function"
    }
  ],
  "bytecode": "0x60c060405260018055600160055560016006553480156200001f57600080fd5b506040516200578038038062005780833981810160405281019062000045919062000203565b600073ffffffffffffffffffffffffffffffffffffffff168273ffffffffffffffffffffffffffffffffffffffff1603620000b7576040517f08c379a0000000000000000000000000000000000000000000000000000000008152600401620000ae90620002ab565b60405180910390fd5b600073ffffffffffffffffffffffffffffffffffffffff168173ffffffffffffffffffffffffffffffffffffffff160362000129576040517f08c379a0000000000000000000000000000000000000000000000000000000008152600401620001209062000343565b60405180910390fd5b8173ffffffffffffffffffffffffffffffffffffffff1660808173ffffffffffffffffffffffffffffffffffffffff16815250508073ffffffffffffffffffffffffffffffffffffffff1660a08173ffffffffffffffffffffffffffffffffffffffff1681525050505062000365565b600080fd5b600073ffffffffffffffffffffffffffffffffffffffff82169050919050565b6000620001cb826200019e565b9050919050565b620001dd81620001be565b8114620001e957600080fd5b50565b600081519050620001fd81620001d2565b92915050565b600080604083850312156200021d576200021c62000199565b5b60006200022d85828601620001ec565b92505060206200024085828601620001ec565b9150509250929050565b600082825260208201905092915050565b7f496e76616c69642075736572206d616e61676572206164647265737300000000600082015250565b600062000293601c836200024a565b9150620002a0826200025b565b602082019050919050565b60006020820190508181036000830152620002c68162000284565b9050919050565b7f496e76616c696420696e737469747574696f6e206d616e61676572206164647260008201527f6573730000000000000000000000000000000000000000000000000000000000602082015250565b60006200032b6023836200024a565b91506200033882620002cd565b604082019050919050565b600060208201905081810360008301526200035e816200031c565b9050919050565b60805160a0516153e0620003a06000396000818161142d015281816121310152612a36015260008181610b400152610d6701526153e06000f3fe608060405234801561001057600080fd5b506004361061014d5760003560e01c80637fab802a116100c3578063cb9205091161007c578063cb920509146103bd578063cfb869bf146103ed578063d89f4f4e14610426578063eda95cb714610456578063f664d94214610474578063fd682502146104925761014d565b80637fab802a146102ed5780638e5e7d67146103095780639ffe156114610325578063ba8cd53214610341578063c261b16814610371578063c2dd81ee146103a15761014d565b80634d1def2c116101155780634d1def2c146102225780634e8933de1461024057806350c688b31461025e57806359f95c25146102935780635b236d97146102b15780635c828f37146102cf5761014d565b80630c0e88df1461015257806318cc94091461016e5780632912dce31461019e57806346910856146101ba5780634a95525d146101ed575b600080fd5b61016c60048036038101906101679190613b78565b6104c2565b005b61018860048036038101906101839190613be7565b610565565b6040516101959190613c23565b60405180910390f35b6101b860048036038101906101b39190613c9c565b61061f565b005b6101d460048036038101906101cf9190613be7565b6108ba565b6040516101e49493929190613d99565b60405180910390f35b61020760048036038101906102029190613be7565b6109a2565b60405161021996959493929190613de5565b60405180910390f35b61022a610b3e565b6040516102379190613e54565b60405180910390f35b610248610b62565b6040516102559190613c23565b60405180910390f35b61027860048036038101906102739190613be7565b610b77565b60405161028a96959493929190613e6f565b60405180910390f35b61029b610d5b565b6040516102a89190613c23565b60405180910390f35b6102b9610d61565b6040516102c69190614113565b60405180910390f35b6102d761142b565b6040516102e49190613e54565b60405180910390f35b61030760048036038101906103029190614135565b61144f565b005b610323600480360381019061031e9190613be7565b61169c565b005b61033f600480360381019061033a919061427f565b6118d4565b005b61035b600480360381019061035691906143dd565b611a94565b6040516103689190614113565b60405180910390f35b61038b6004803603810190610386919061440a565b61212b565b6040516103989190614113565b60405180910390f35b6103bb60048036038101906103b69190614453565b6129e2565b005b6103d760048036038101906103d29190613be7565b612e13565b6040516103e491906145e2565b60405180910390f35b61040760048036038101906104029190613be7565b613314565b60405161041d9a99989796959493929190614604565b60405180910390f35b610440600480360381019061043b91906146d1565b613750565b60405161044d9190613c23565b60405180910390f35b61045e613870565b60405161046b9190613c23565b60405180910390f35b61047c613876565b6040516104899190613c23565b60405180910390f35b6104ac60048036038101906104a79190614749565b61387c565b6040516104b99190613c23565b60405180910390f35b6000831180156104d3575060065483105b610512576040517f08c379a0000000000000000000000000000000000000000000000000000000008152600401610509906147d5565b60405180910390fd5b600060046001856105239190614824565b8154811061053457610533614858565b5b90600052602060002090600602019050828160030190816105559190614a93565b5081816004018190555050505050565b60008082118015610577575060015482105b6105b6576040517f08c379a00000000000000000000000000000000000000000000000000000000081526004016105ad90614bb1565b60405180910390fd5b6000805b6003805490508110156106155783600382815481106105dc576105db614858565b5b906000526020600020906006020160000154036106025781806105fe90614bd1565b9250505b808061060d90614bd1565b9150506105ba565b5080915050919050565b600083118015610630575060015483105b61066f576040517f08c379a000000000000000000000000000000000000000000000000000000000815260040161066690614bb1565b60405180910390fd5b600060405180608001604052808581526020018473ffffffffffffffffffffffffffffffffffffffff16815260200142815260200183815250905060028190806001815401808255809150506001900390600052602060002090600402016000909190919091506000820151816000015560208201518160010160006101000a81548173ffffffffffffffffffffffffffffffffffffffff021916908373ffffffffffffffffffffffffffffffffffffffff1602179055506040820151816002015560608201518160030190816107469190614a93565b5050506000806001866107599190614824565b8154811061076a57610769614858565b5b90600052602060002090600a020190506000600760008360090160009054906101000a900473ffffffffffffffffffffffffffffffffffffffff1673ffffffffffffffffffffffffffffffffffffffff1673ffffffffffffffffffffffffffffffffffffffff168152602001908152602001600020600087815260200190815260200160002060006101000a81548160ff021916908315150217905550838160090160006101000a81548173ffffffffffffffffffffffffffffffffffffffff021916908373ffffffffffffffffffffffffffffffffffffffff1602179055506001600760008673ffffffffffffffffffffffffffffffffffffffff1673ffffffffffffffffffffffffffffffffffffffff168152602001908152602001600020600087815260200190815260200160002060006101000a81548160ff0219169083151502179055505050505050565b600281815481106108ca57600080fd5b90600052602060002090600402016000915090508060000154908060010160009054906101000a900473ffffffffffffffffffffffffffffffffffffffff169080600201549080600301805461091f906148b6565b80601f016020809104026020016040519081016040528092919081815260200182805461094b906148b6565b80156109985780601f1061096d57610100808354040283529160200191610998565b820191906000526020600020905b81548152906001019060200180831161097b57829003601f168201915b5050505050905084565b600381815481106109b257600080fd5b90600052602060002090600602016000915090508060000154908060010180546109db906148b6565b80601f0160208091040260200160405190810160405280929190818152602001828054610a07906148b6565b8015610a545780601f10610a2957610100808354040283529160200191610a54565b820191906000526020600020905b815481529060010190602001808311610a3757829003601f168201915b505050505090806002018054610a69906148b6565b80601f0160208091040260200160405190810160405280929190818152602001828054610a95906148b6565b8015610ae25780601f10610ab757610100808354040283529160200191610ae2565b820191906000526020600020905b815481529060010190602001808311610ac557829003601f168201915b5050505050908060030154908060040160009054906101000a900473ffffffffffffffffffffffffffffffffffffffff16908060050160009054906101000a900473ffffffffffffffffffffffffffffffffffffffff16905086565b7f000000000000000000000000000000000000000000000000000000000000000081565b600060018054610b729190614824565b905090565b60048181548110610b8757600080fd5b9060005260206000209060060201600091509050806000015490806001018054610bb0906148b6565b80601f0160208091040260200160405190810160405280929190818152602001828054610bdc906148b6565b8015610c295780601f10610bfe57610100808354040283529160200191610c29565b820191906000526020600020905b815481529060010190602001808311610c0c57829003601f168201915b505050505090806002018054610c3e906148b6565b80601f0160208091040260200160405190810160405280929190818152602001828054610c6a906148b6565b8015610cb75780601f10610c8c57610100808354040283529160200191610cb7565b820191906000526020600020905b815481529060010190602001808311610c9a57829003601f168201915b505050505090806003018054610ccc906148b6565b80601f0160208091040260200160405190810160405280929190818152602001828054610cf8906148b6565b8015610d455780601f10610d1a57610100808354040283529160200191610d45565b820191906000526020600020905b815481529060010190602001808311610d2857829003601f168201915b5050505050908060040154908060050154905086565b60015481565b606060007f000000000000000000000000000000000000000000000000000000000000000090508073ffffffffffffffffffffffffffffffffffffffff1663eac50f6b336040518263ffffffff1660e01b8152600401610dc19190613e54565b602060405180830381865afa158015610dde573d6000803e3d6000fd5b505050506040513d601f19601f82011682018060405250810190610e029190614c51565b610e41576040517f08c379a0000000000000000000000000000000000000000000000000000000008152600401610e3890614cca565b60405180910390fd5b60008173ffffffffffffffffffffffffffffffffffffffff16636386c1c7336040518263ffffffff1660e01b8152600401610e7c9190613e54565b600060405180830381865afa158015610e99573d6000803e3d6000fd5b505050506040513d6000823e3d601f19601f82011682018060405250810190610ec29190614df3565b995050505050505050505060006003811115610ee157610ee0614f42565b5b816003811115610ef457610ef3614f42565b5b1480610f24575060026003811115610f0f57610f0e614f42565b5b816003811115610f2257610f21614f42565b5b145b610f63576040517f08c379a0000000000000000000000000000000000000000000000000000000008152600401610f5a90614fe3565b60405180910390fd5b6000805480602002602001604051908101604052809291908181526020016000905b8282101561142057838290600052602060002090600a02016040518061014001604052908160008201548152602001600182018054610fc3906148b6565b80601f0160208091040260200160405190810160405280929190818152602001828054610fef906148b6565b801561103c5780601f106110115761010080835404028352916020019161103c565b820191906000526020600020905b81548152906001019060200180831161101f57829003601f168201915b50505050508152602001600282018054611055906148b6565b80601f0160208091040260200160405190810160405280929190818152602001828054611081906148b6565b80156110ce5780601f106110a3576101008083540402835291602001916110ce565b820191906000526020600020905b8154815290600101906020018083116110b157829003601f168201915b505050505081526020016003820180546110e7906148b6565b80601f0160208091040260200160405190810160405280929190818152602001828054611113906148b6565b80156111605780601f1061113557610100808354040283529160200191611160565b820191906000526020600020905b81548152906001019060200180831161114357829003601f168201915b50505050508152602001600482018054611179906148b6565b80601f01602080910402602001604051908101604052809291908181526020018280546111a5906148b6565b80156111f25780601f106111c7576101008083540402835291602001916111f2565b820191906000526020600020905b8154815290600101906020018083116111d557829003601f168201915b5050505050815260200160058201548152602001600682018054611215906148b6565b80601f0160208091040260200160405190810160405280929190818152602001828054611241906148b6565b801561128e5780601f106112635761010080835404028352916020019161128e565b820191906000526020600020905b81548152906001019060200180831161127157829003601f168201915b505050505081526020016007820180546112a7906148b6565b80601f01602080910402602001604051908101604052809291908181526020018280546112d3906148b6565b80156113205780601f106112f557610100808354040283529160200191611320565b820191906000526020600020905b81548152906001019060200180831161130357829003601f168201915b50505050508152602001600882018054611339906148b6565b80601f0160208091040260200160405190810160405280929190818152602001828054611365906148b6565b80156113b25780601f10611387576101008083540402835291602001916113b2565b820191906000526020600020905b81548152906001019060200180831161139557829003601f168201915b505050505081526020016009820160009054906101000a900473ffffffffffffffffffffffffffffffffffffffff1673ffffffffffffffffffffffffffffffffffffffff1673ffffffffffffffffffffffffffffffffffffffff168152505081526020019060010190610f85565b505050509250505090565b7f000000000000000000000000000000000000000000000000000000000000000081565b600060015490506001600081548092919061146990614bd1565b919050555060006040518061014001604052808381526020018a81526020018981526020018881526020018781526020018681526020018581526020018481526020016040518060400160405280600681526020017f616374697665000000000000000000000000000000000000000000000000000081525081526020013373ffffffffffffffffffffffffffffffffffffffff16815250905060008190806001815401808255809150506001900390600052602060002090600a020160009091909190915060008201518160000155602082015181600101908161154e9190614a93565b5060408201518160020190816115649190614a93565b50606082015181600301908161157a9190614a93565b5060808201518160040190816115909190614a93565b5060a0820151816005015560c08201518160060190816115b09190614a93565b5060e08201518160070190816115c69190614a93565b506101008201518160080190816115dd9190614a93565b506101208201518160090160006101000a81548173ffffffffffffffffffffffffffffffffffffffff021916908373ffffffffffffffffffffffffffffffffffffffff16021790555050506001600760003373ffffffffffffffffffffffffffffffffffffffff1673ffffffffffffffffffffffffffffffffffffffff168152602001908152602001600020600084815260200190815260200160002060006101000a81548160ff021916908315150217905550505050505050505050565b6000811180156116ad575060015481105b6116ec576040517f08c379a00000000000000000000000000000000000000000000000000000000081526004016116e390614bb1565b60405180910390fd5b3373ffffffffffffffffffffffffffffffffffffffff1660006001836117129190614824565b8154811061172357611722614858565b5b90600052602060002090600a020160090160009054906101000a900473ffffffffffffffffffffffffffffffffffffffff1673ffffffffffffffffffffffffffffffffffffffff16146117ab576040517f08c379a00000000000000000000000000000000000000000000000000000000081526004016117a29061504f565b60405180910390fd5b6000806001836117bb9190614824565b815481106117cc576117cb614858565b5b90600052602060002090600a020190506040518060400160405280600781526020017f72656d6f766564000000000000000000000000000000000000000000000000008152508160080190816118229190614a93565b5060008160090160006101000a81548173ffffffffffffffffffffffffffffffffffffffff021916908373ffffffffffffffffffffffffffffffffffffffff1602179055506000600760003373ffffffffffffffffffffffffffffffffffffffff1673ffffffffffffffffffffffffffffffffffffffff168152602001908152602001600020600084815260200190815260200160002060006101000a81548160ff0219169083151502179055505050565b6000881180156118e5575060015488105b611924576040517f08c379a000000000000000000000000000000000000000000000000000000000815260040161191b90614bb1565b60405180910390fd5b3373ffffffffffffffffffffffffffffffffffffffff16600060018a61194a9190614824565b8154811061195b5761195a614858565b5b90600052602060002090600a020160090160009054906101000a900473ffffffffffffffffffffffffffffffffffffffff1673ffffffffffffffffffffffffffffffffffffffff16146119e3576040517f08c379a00000000000000000000000000000000000000000000000000000000081526004016119da9061504f565b60405180910390fd5b60008060018a6119f39190614824565b81548110611a0457611a03614858565b5b90600052602060002090600a0201905087816001019081611a259190614a93565b5086816002019081611a379190614a93565b5085816003019081611a499190614a93565b5084816004019081611a5b9190614a93565b5083816005018190555082816006019081611a769190614a93565b5081816007019081611a889190614a93565b50505050505050505050565b6060600080600190505b600154811015611b4e578373ffffffffffffffffffffffffffffffffffffffff166000600183611ace9190614824565b81548110611adf57611ade614858565b5b90600052602060002090600a020160090160009054906101000a900473ffffffffffffffffffffffffffffffffffffffff1673ffffffffffffffffffffffffffffffffffffffff1603611b3b578180611b3790614bd1565b9250505b8080611b4690614bd1565b915050611a9e565b5060008167ffffffffffffffff811115611b6b57611b6a613a4d565b5b604051908082528060200260200182016040528015611ba457816020015b611b9161397f565b815260200190600190039081611b895790505b509050600080600190505b60015481101561211f578573ffffffffffffffffffffffffffffffffffffffff166000600183611bdf9190614824565b81548110611bf057611bef614858565b5b90600052602060002090600a020160090160009054906101000a900473ffffffffffffffffffffffffffffffffffffffff1673ffffffffffffffffffffffffffffffffffffffff160361210c576000600182611c4c9190614824565b81548110611c5d57611c5c614858565b5b90600052602060002090600a02016040518061014001604052908160008201548152602001600182018054611c91906148b6565b80601f0160208091040260200160405190810160405280929190818152602001828054611cbd906148b6565b8015611d0a5780601f10611cdf57610100808354040283529160200191611d0a565b820191906000526020600020905b815481529060010190602001808311611ced57829003601f168201915b50505050508152602001600282018054611d23906148b6565b80601f0160208091040260200160405190810160405280929190818152602001828054611d4f906148b6565b8015611d9c5780601f10611d7157610100808354040283529160200191611d9c565b820191906000526020600020905b815481529060010190602001808311611d7f57829003601f168201915b50505050508152602001600382018054611db5906148b6565b80601f0160208091040260200160405190810160405280929190818152602001828054611de1906148b6565b8015611e2e5780601f10611e0357610100808354040283529160200191611e2e565b820191906000526020600020905b815481529060010190602001808311611e1157829003601f168201915b50505050508152602001600482018054611e47906148b6565b80601f0160208091040260200160405190810160405280929190818152602001828054611e73906148b6565b8015611ec05780601f10611e9557610100808354040283529160200191611ec0565b820191906000526020600020905b815481529060010190602001808311611ea357829003601f168201915b5050505050815260200160058201548152602001600682018054611ee3906148b6565b80601f0160208091040260200160405190810160405280929190818152602001828054611f0f906148b6565b8015611f5c5780601f10611f3157610100808354040283529160200191611f5c565b820191906000526020600020905b815481529060010190602001808311611f3f57829003601f168201915b50505050508152602001600782018054611f75906148b6565b80601f0160208091040260200160405190810160405280929190818152602001828054611fa1906148b6565b8015611fee5780601f10611fc357610100808354040283529160200191611fee565b820191906000526020600020905b815481529060010190602001808311611fd157829003601f168201915b50505050508152602001600882018054612007906148b6565b80601f0160208091040260200160405190810160405280929190818152602001828054612033906148b6565b80156120805780601f1061205557610100808354040283529160200191612080565b820191906000526020600020905b81548152906001019060200180831161206357829003601f168201915b505050505081526020016009820160009054906101000a900473ffffffffffffffffffffffffffffffffffffffff1673ffffffffffffffffffffffffffffffffffffffff1673ffffffffffffffffffffffffffffffffffffffff16815250508383815181106120f2576120f1614858565b5b6020026020010181905250818061210890614bd1565b9250505b808061211790614bd1565b915050611baf565b50819350505050919050565b606060007f0000000000000000000000000000000000000000000000000000000000000000905060008173ffffffffffffffffffffffffffffffffffffffff1663584fab0f336040518263ffffffff1660e01b815260040161218d9190613e54565b602060405180830381865afa1580156121aa573d6000803e3d6000fd5b505050506040513d601f19601f820116820180604052508101906121ce919061506f565b9050600073ffffffffffffffffffffffffffffffffffffffff168173ffffffffffffffffffffffffffffffffffffffff160361223f576040517f08c379a00000000000000000000000000000000000000000000000000000000081526004016122369061510e565b60405180910390fd5b60008273ffffffffffffffffffffffffffffffffffffffff1663e4d34164836040518263ffffffff1660e01b815260040161227a9190613e54565b602060405180830381865afa158015612297573d6000803e3d6000fd5b505050506040513d601f19601f820116820180604052508101906122bb919061512e565b905060008373ffffffffffffffffffffffffffffffffffffffff16631063b484836040518263ffffffff1660e01b81526004016122f89190613c23565b600060405180830381865afa158015612315573d6000803e3d6000fd5b505050506040513d6000823e3d601f19601f8201168201806040525081019061233e919061515b565b5050925050506000600181111561235857612357614f42565b5b81600181111561236b5761236a614f42565b5b146123ab576040517f08c379a00000000000000000000000000000000000000000000000000000000081526004016123a290615264565b60405180910390fd5b600080600190505b60015481101561243257878051906020012060006001836123d49190614824565b815481106123e5576123e4614858565b5b90600052602060002090600a02016001016040516124039190615327565b60405180910390200361241f57818061241b90614bd1565b9250505b808061242a90614bd1565b9150506123b3565b5060008167ffffffffffffffff81111561244f5761244e613a4d565b5b60405190808252806020026020018201604052801561248857816020015b61247561397f565b81526020019060019003908161246d5790505b509050600080600190505b6001548110156129d257898051906020012060006001836124b49190614824565b815481106124c5576124c4614858565b5b90600052602060002090600a02016001016040516124e39190615327565b6040518091039020036129bf5760006001826124ff9190614824565b815481106125105761250f614858565b5b90600052602060002090600a02016040518061014001604052908160008201548152602001600182018054612544906148b6565b80601f0160208091040260200160405190810160405280929190818152602001828054612570906148b6565b80156125bd5780601f10612592576101008083540402835291602001916125bd565b820191906000526020600020905b8154815290600101906020018083116125a057829003601f168201915b505050505081526020016002820180546125d6906148b6565b80601f0160208091040260200160405190810160405280929190818152602001828054612602906148b6565b801561264f5780601f106126245761010080835404028352916020019161264f565b820191906000526020600020905b81548152906001019060200180831161263257829003601f168201915b50505050508152602001600382018054612668906148b6565b80601f0160208091040260200160405190810160405280929190818152602001828054612694906148b6565b80156126e15780601f106126b6576101008083540402835291602001916126e1565b820191906000526020600020905b8154815290600101906020018083116126c457829003601f168201915b505050505081526020016004820180546126fa906148b6565b80601f0160208091040260200160405190810160405280929190818152602001828054612726906148b6565b80156127735780601f1061274857610100808354040283529160200191612773565b820191906000526020600020905b81548152906001019060200180831161275657829003601f168201915b5050505050815260200160058201548152602001600682018054612796906148b6565b80601f01602080910402602001604051908101604052809291908181526020018280546127c2906148b6565b801561280f5780601f106127e45761010080835404028352916020019161280f565b820191906000526020600020905b8154815290600101906020018083116127f257829003601f168201915b50505050508152602001600782018054612828906148b6565b80601f0160208091040260200160405190810160405280929190818152602001828054612854906148b6565b80156128a15780601f10612876576101008083540402835291602001916128a1565b820191906000526020600020905b81548152906001019060200180831161288457829003601f168201915b505050505081526020016008820180546128ba906148b6565b80601f01602080910402602001604051908101604052809291908181526020018280546128e6906148b6565b80156129335780601f1061290857610100808354040283529160200191612933565b820191906000526020600020905b81548152906001019060200180831161291657829003601f168201915b505050505081526020016009820160009054906101000a900473ffffffffffffffffffffffffffffffffffffffff1673ffffffffffffffffffffffffffffffffffffffff1673ffffffffffffffffffffffffffffffffffffffff16815250508383815181106129a5576129a4614858565b5b602002602001018190525081806129bb90614bd1565b9250505b80806129ca90614bd1565b915050612493565b5081975050505050505050919050565b6000831180156129f3575060015483105b612a32576040517f08c379a0000000000000000000000000000000000000000000000000000000008152600401612a2990614bb1565b60405180910390fd5b60007f0000000000000000000000000000000000000000000000000000000000000000905060008173ffffffffffffffffffffffffffffffffffffffff1663584fab0f336040518263ffffffff1660e01b8152600401612a929190613e54565b602060405180830381865afa158015612aaf573d6000803e3d6000fd5b505050506040513d601f19601f82011682018060405250810190612ad3919061506f565b9050600073ffffffffffffffffffffffffffffffffffffffff168173ffffffffffffffffffffffffffffffffffffffff1603612b44576040517f08c379a0000000000000000000000000000000000000000000000000000000008152600401612b3b9061510e565b60405180910390fd5b60008273ffffffffffffffffffffffffffffffffffffffff1663e4d34164836040518263ffffffff1660e01b8152600401612b7f9190613e54565b602060405180830381865afa158015612b9c573d6000803e3d6000fd5b505050506040513d601f19601f82011682018060405250810190612bc0919061512e565b905060008373ffffffffffffffffffffffffffffffffffffffff16631063b484836040518263ffffffff1660e01b8152600401612bfd9190613c23565b600060405180830381865afa158015612c1a573d6000803e3d6000fd5b505050506040513d6000823e3d601f19601f82011682018060405250810190612c43919061515b565b50509250505060006001811115612c5d57612c5c614f42565b5b816001811115612c7057612c6f614f42565b5b14612cb0576040517f08c379a0000000000000000000000000000000000000000000000000000000008152600401612ca790615264565b60405180910390fd5b60006040518060c001604052808981526020018881526020018781526020014281526020018573ffffffffffffffffffffffffffffffffffffffff1681526020013373ffffffffffffffffffffffffffffffffffffffff1681525090506003819080600181540180825580915050600190039060005260206000209060060201600090919091909150600082015181600001556020820151816001019081612d589190614a93565b506040820151816002019081612d6e9190614a93565b506060820151816003015560808201518160040160006101000a81548173ffffffffffffffffffffffffffffffffffffffff021916908373ffffffffffffffffffffffffffffffffffffffff16021790555060a08201518160050160006101000a81548173ffffffffffffffffffffffffffffffffffffffff021916908373ffffffffffffffffffffffffffffffffffffffff16021790555050505050505050505050565b612e1b61397f565b600082118015612e2c575060015482105b612e6b576040517f08c379a0000000000000000000000000000000000000000000000000000000008152600401612e6290614bb1565b60405180910390fd5b6000600183612e7a9190614824565b81548110612e8b57612e8a614858565b5b90600052602060002090600a02016040518061014001604052908160008201548152602001600182018054612ebf906148b6565b80601f0160208091040260200160405190810160405280929190818152602001828054612eeb906148b6565b8015612f385780601f10612f0d57610100808354040283529160200191612f38565b820191906000526020600020905b815481529060010190602001808311612f1b57829003601f168201915b50505050508152602001600282018054612f51906148b6565b80601f0160208091040260200160405190810160405280929190818152602001828054612f7d906148b6565b8015612fca5780601f10612f9f57610100808354040283529160200191612fca565b820191906000526020600020905b815481529060010190602001808311612fad57829003601f168201915b50505050508152602001600382018054612fe3906148b6565b80601f016020809104026020016040519081016040528092919081815260200182805461300f906148b6565b801561305c5780601f106130315761010080835404028352916020019161305c565b820191906000526020600020905b81548152906001019060200180831161303f57829003601f168201915b50505050508152602001600482018054613075906148b6565b80601f01602080910402602001604051908101604052809291908181526020018280546130a1906148b6565b80156130ee5780601f106130c3576101008083540402835291602001916130ee565b820191906000526020600020905b8154815290600101906020018083116130d157829003601f168201915b5050505050815260200160058201548152602001600682018054613111906148b6565b80601f016020809104026020016040519081016040528092919081815260200182805461313d906148b6565b801561318a5780601f1061315f5761010080835404028352916020019161318a565b820191906000526020600020905b81548152906001019060200180831161316d57829003601f168201915b505050505081526020016007820180546131a3906148b6565b80601f01602080910402602001604051908101604052809291908181526020018280546131cf906148b6565b801561321c5780601f106131f15761010080835404028352916020019161321c565b820191906000526020600020905b8154815290600101906020018083116131ff57829003601f168201915b50505050508152602001600882018054613235906148b6565b80601f0160208091040260200160405190810160405280929190818152602001828054613261906148b6565b80156132ae5780601f10613283576101008083540402835291602001916132ae565b820191906000526020600020905b81548152906001019060200180831161329157829003601f168201915b505050505081526020016009820160009054906101000a900473ffffffffffffffffffffffffffffffffffffffff1673ffffffffffffffffffffffffffffffffffffffff1673ffffffffffffffffffffffffffffffffffffffff16815250509050919050565b6000818154811061332457600080fd5b90600052602060002090600a020160009150905080600001549080600101805461334d906148b6565b80601f0160208091040260200160405190810160405280929190818152602001828054613379906148b6565b80156133c65780601f1061339b576101008083540402835291602001916133c6565b820191906000526020600020905b8154815290600101906020018083116133a957829003601f168201915b5050505050908060020180546133db906148b6565b80601f0160208091040260200160405190810160405280929190818152602001828054613407906148b6565b80156134545780601f1061342957610100808354040283529160200191613454565b820191906000526020600020905b81548152906001019060200180831161343757829003601f168201915b505050505090806003018054613469906148b6565b80601f0160208091040260200160405190810160405280929190818152602001828054613495906148b6565b80156134e25780601f106134b7576101008083540402835291602001916134e2565b820191906000526020600020905b8154815290600101906020018083116134c557829003601f168201915b5050505050908060040180546134f7906148b6565b80601f0160208091040260200160405190810160405280929190818152602001828054613523906148b6565b80156135705780601f1061354557610100808354040283529160200191613570565b820191906000526020600020905b81548152906001019060200180831161355357829003601f168201915b50505050509080600501549080600601805461358b906148b6565b80601f01602080910402602001604051908101604052809291908181526020018280546135b7906148b6565b80156136045780601f106135d957610100808354040283529160200191613604565b820191906000526020600020905b8154815290600101906020018083116135e757829003601f168201915b505050505090806007018054613619906148b6565b80601f0160208091040260200160405190810160405280929190818152602001828054613645906148b6565b80156136925780601f1061366757610100808354040283529160200191613692565b820191906000526020600020905b81548152906001019060200180831161367557829003601f168201915b5050505050908060080180546136a7906148b6565b80601f01602080910402602001604051908101604052809291908181526020018280546136d3906148b6565b80156137205780601f106136f557610100808354040283529160200191613720565b820191906000526020600020905b81548152906001019060200180831161370357829003601f168201915b5050505050908060090160009054906101000a900473ffffffffffffffffffffffffffffffffffffffff1690508a565b60008060065490506006600081548092919061376b90614bd1565b919050555060006040518060c001604052808381526020018681526020018581526020016040518060400160405280600781526020017f70656e64696e670000000000000000000000000000000000000000000000000081525081526020016000815260200142815250905060048190806001815401808255809150506001900390600052602060002090600602016000909190919091506000820151816000015560208201518160010190816138229190614a93565b5060408201518160020190816138389190614a93565b50606082015181600301908161384e9190614a93565b506080820151816004015560a082015181600501555050819250505092915050565b60065481565b60055481565b6000808311801561388e575060015483105b6138cd576040517f08c379a00000000000000000000000000000000000000000000000000000000081526004016138c490614bb1565b60405180910390fd5b6000805b60038054905081101561393d5784600382815481106138f3576138f2614858565b5b9060005260206000209060060201600001540361392a5783820361391b578092505050613979565b818061392690614bd1565b9250505b808061393590614bd1565b9150506138d1565b506040517f08c379a00000000000000000000000000000000000000000000000000000000081526004016139709061538a565b60405180910390fd5b92915050565b604051806101400160405280600081526020016060815260200160608152602001606081526020016060815260200160008152602001606081526020016060815260200160608152602001600073ffffffffffffffffffffffffffffffffffffffff1681525090565b6000604051905090565b600080fd5b600080fd5b6000819050919050565b613a0f816139fc565b8114613a1a57600080fd5b50565b600081359050613a2c81613a06565b92915050565b600080fd5b600080fd5b6000601f19601f8301169050919050565b7f4e487b7100000000000000000000000000000000000000000000000000000000600052604160045260246000fd5b613a8582613a3c565b810181811067ffffffffffffffff82111715613aa457613aa3613a4d565b5b80604052505050565b6000613ab76139e8565b9050613ac38282613a7c565b919050565b600067ffffffffffffffff821115613ae357613ae2613a4d565b5b613aec82613a3c565b9050602081019050919050565b82818337600083830152505050565b6000613b1b613b1684613ac8565b613aad565b905082815260208101848484011115613b3757613b36613a37565b5b613b42848285613af9565b509392505050565b600082601f830112613b5f57613b5e613a32565b5b8135613b6f848260208601613b08565b91505092915050565b600080600060608486031215613b9157613b906139f2565b5b6000613b9f86828701613a1d565b935050602084013567ffffffffffffffff811115613bc057613bbf6139f7565b5b613bcc86828701613b4a565b9250506040613bdd86828701613a1d565b9150509250925092565b600060208284031215613bfd57613bfc6139f2565b5b6000613c0b84828501613a1d565b91505092915050565b613c1d816139fc565b82525050565b6000602082019050613c386000830184613c14565b92915050565b600073ffffffffffffffffffffffffffffffffffffffff82169050919050565b6000613c6982613c3e565b9050919050565b613c7981613c5e565b8114613c8457600080fd5b50565b600081359050613c9681613c70565b92915050565b600080600060608486031215613cb557613cb46139f2565b5b6000613cc386828701613a1d565b9350506020613cd486828701613c87565b925050604084013567ffffffffffffffff811115613cf557613cf46139f7565b5b613d0186828701613b4a565b9150509250925092565b613d1481613c5e565b82525050565b600081519050919050565b600082825260208201905092915050565b60005b83811015613d54578082015181840152602081019050613d39565b60008484015250505050565b6000613d6b82613d1a565b613d758185613d25565b9350613d85818560208601613d36565b613d8e81613a3c565b840191505092915050565b6000608082019050613dae6000830187613c14565b613dbb6020830186613d0b565b613dc86040830185613c14565b8181036060830152613dda8184613d60565b905095945050505050565b600060c082019050613dfa6000830189613c14565b8181036020830152613e0c8188613d60565b90508181036040830152613e208187613d60565b9050613e2f6060830186613c14565b613e3c6080830185613d0b565b613e4960a0830184613d0b565b979650505050505050565b6000602082019050613e696000830184613d0b565b92915050565b600060c082019050613e846000830189613c14565b8181036020830152613e968188613d60565b90508181036040830152613eaa8187613d60565b90508181036060830152613ebe8186613d60565b9050613ecd6080830185613c14565b613eda60a0830184613c14565b979650505050505050565b600081519050919050565b600082825260208201905092915050565b6000819050602082019050919050565b613f1a816139fc565b82525050565b600082825260208201905092915050565b6000613f3c82613d1a565b613f468185613f20565b9350613f56818560208601613d36565b613f5f81613a3c565b840191505092915050565b613f7381613c5e565b82525050565b600061014083016000830151613f926000860182613f11565b5060208301518482036020860152613faa8282613f31565b91505060408301518482036040860152613fc48282613f31565b91505060608301518482036060860152613fde8282613f31565b91505060808301518482036080860152613ff88282613f31565b91505060a083015161400d60a0860182613f11565b5060c083015184820360c08601526140258282613f31565b91505060e083015184820360e086015261403f8282613f31565b91505061010083015184820361010086015261405b8282613f31565b915050610120830151614072610120860182613f6a565b508091505092915050565b60006140898383613f79565b905092915050565b6000602082019050919050565b60006140a982613ee5565b6140b38185613ef0565b9350836020820285016140c585613f01565b8060005b8581101561410157848403895281516140e2858261407d565b94506140ed83614091565b925060208a019950506001810190506140c9565b50829750879550505050505092915050565b6000602082019050818103600083015261412d818461409e565b905092915050565b600080600080600080600060e0888a031215614154576141536139f2565b5b600088013567ffffffffffffffff811115614172576141716139f7565b5b61417e8a828b01613b4a565b975050602088013567ffffffffffffffff81111561419f5761419e6139f7565b5b6141ab8a828b01613b4a565b965050604088013567ffffffffffffffff8111156141cc576141cb6139f7565b5b6141d88a828b01613b4a565b955050606088013567ffffffffffffffff8111156141f9576141f86139f7565b5b6142058a828b01613b4a565b94505060806142168a828b01613a1d565b93505060a088013567ffffffffffffffff811115614237576142366139f7565b5b6142438a828b01613b4a565b92505060c088013567ffffffffffffffff811115614264576142636139f7565b5b6142708a828b01613b4a565b91505092959891949750929550565b600080600080600080600080610100898b0312156142a05761429f6139f2565b5b60006142ae8b828c01613a1d565b985050602089013567ffffffffffffffff8111156142cf576142ce6139f7565b5b6142db8b828c01613b4a565b975050604089013567ffffffffffffffff8111156142fc576142fb6139f7565b5b6143088b828c01613b4a565b965050606089013567ffffffffffffffff811115614329576143286139f7565b5b6143358b828c01613b4a565b955050608089013567ffffffffffffffff811115614356576143556139f7565b5b6143628b828c01613b4a565b94505060a06143738b828c01613a1d565b93505060c089013567ffffffffffffffff811115614394576143936139f7565b5b6143a08b828c01613b4a565b92505060e089013567ffffffffffffffff8111156143c1576143c06139f7565b5b6143cd8b828c01613b4a565b9150509295985092959890939650565b6000602082840312156143f3576143f26139f2565b5b600061440184828501613c87565b91505092915050565b6000602082840312156144205761441f6139f2565b5b600082013567ffffffffffffffff81111561443e5761443d6139f7565b5b61444a84828501613b4a565b91505092915050565b60008060006060848603121561446c5761446b6139f2565b5b600061447a86828701613a1d565b935050602084013567ffffffffffffffff81111561449b5761449a6139f7565b5b6144a786828701613b4a565b925050604084013567ffffffffffffffff8111156144c8576144c76139f7565b5b6144d486828701613b4a565b9150509250925092565b6000610140830160008301516144f76000860182613f11565b506020830151848203602086015261450f8282613f31565b915050604083015184820360408601526145298282613f31565b915050606083015184820360608601526145438282613f31565b9150506080830151848203608086015261455d8282613f31565b91505060a083015161457260a0860182613f11565b5060c083015184820360c086015261458a8282613f31565b91505060e083015184820360e08601526145a48282613f31565b9150506101008301518482036101008601526145c08282613f31565b9150506101208301516145d7610120860182613f6a565b508091505092915050565b600060208201905081810360008301526145fc81846144de565b905092915050565b60006101408201905061461a600083018d613c14565b818103602083015261462c818c613d60565b90508181036040830152614640818b613d60565b90508181036060830152614654818a613d60565b905081810360808301526146688189613d60565b905061467760a0830188613c14565b81810360c08301526146898187613d60565b905081810360e083015261469d8186613d60565b90508181036101008301526146b28185613d60565b90506146c2610120830184613d0b565b9b9a5050505050505050505050565b600080604083850312156146e8576146e76139f2565b5b600083013567ffffffffffffffff811115614706576147056139f7565b5b61471285828601613b4a565b925050602083013567ffffffffffffffff811115614733576147326139f7565b5b61473f85828601613b4a565b9150509250929050565b600080604083850312156147605761475f6139f2565b5b600061476e85828601613a1d565b925050602061477f85828601613a1d565b9150509250929050565b7f5265717565737420646f6573206e6f7420657869737400000000000000000000600082015250565b60006147bf601683613d25565b91506147ca82614789565b602082019050919050565b600060208201905081810360008301526147ee816147b2565b9050919050565b7f4e487b7100000000000000000000000000000000000000000000000000000000600052601160045260246000fd5b600061482f826139fc565b915061483a836139fc565b9250828203905081811115614852576148516147f5565b5b92915050565b7f4e487b7100000000000000000000000000000000000000000000000000000000600052603260045260246000fd5b7f4e487b7100000000000000000000000000000000000000000000000000000000600052602260045260246000fd5b600060028204905060018216806148ce57607f821691505b6020821081036148e1576148e0614887565b5b50919050565b60008190508160005260206000209050919050565b60006020601f8301049050919050565b600082821b905092915050565b6000600883026149497fffffffffffffffffffffffffffffffffffffffffffffffffffffffffffffffff8261490c565b614953868361490c565b95508019841693508086168417925050509392505050565b6000819050919050565b600061499061498b614986846139fc565b61496b565b6139fc565b9050919050565b6000819050919050565b6149aa83614975565b6149be6149b682614997565b848454614919565b825550505050565b600090565b6149d36149c6565b6149de8184846149a1565b505050565b5b81811015614a02576149f76000826149cb565b6001810190506149e4565b5050565b601f821115614a4757614a18816148e7565b614a21846148fc565b81016020851015614a30578190505b614a44614a3c856148fc565b8301826149e3565b50505b505050565b600082821c905092915050565b6000614a6a60001984600802614a4c565b1980831691505092915050565b6000614a838383614a59565b9150826002028217905092915050565b614a9c82613d1a565b67ffffffffffffffff811115614ab557614ab4613a4d565b5b614abf82546148b6565b614aca828285614a06565b600060209050601f831160018114614afd5760008415614aeb578287015190505b614af58582614a77565b865550614b5d565b601f198416614b0b866148e7565b60005b82811015614b3357848901518255600182019150602085019450602081019050614b0e565b86831015614b505784890151614b4c601f891682614a59565b8355505b6001600288020188555050505b505050505050565b7f50657420646f6573206e6f742065786973740000000000000000000000000000600082015250565b6000614b9b601283613d25565b9150614ba682614b65565b602082019050919050565b60006020820190508181036000830152614bca81614b8e565b9050919050565b6000614bdc826139fc565b91507fffffffffffffffffffffffffffffffffffffffffffffffffffffffffffffffff8203614c0e57614c0d6147f5565b5b600182019050919050565b60008115159050919050565b614c2e81614c19565b8114614c3957600080fd5b50565b600081519050614c4b81614c25565b92915050565b600060208284031215614c6757614c666139f2565b5b6000614c7584828501614c3c565b91505092915050565b7f55736572206e6f74207265676973746572656400000000000000000000000000600082015250565b6000614cb4601383613d25565b9150614cbf82614c7e565b602082019050919050565b60006020820190508181036000830152614ce381614ca7565b9050919050565b600081519050614cf981613a06565b92915050565b6000614d12614d0d84613ac8565b613aad565b905082815260208101848484011115614d2e57614d2d613a37565b5b614d39848285613d36565b509392505050565b600082601f830112614d5657614d55613a32565b5b8151614d66848260208601614cff565b91505092915050565b600081519050614d7e81613c70565b92915050565b60028110614d9157600080fd5b50565b600081519050614da381614d84565b92915050565b60028110614db657600080fd5b50565b600081519050614dc881614da9565b92915050565b60048110614ddb57600080fd5b50565b600081519050614ded81614dce565b92915050565b6000806000806000806000806000806101408b8d031215614e1757614e166139f2565b5b6000614e258d828e01614cea565b9a505060208b015167ffffffffffffffff811115614e4657614e456139f7565b5b614e528d828e01614d41565b99505060408b015167ffffffffffffffff811115614e7357614e726139f7565b5b614e7f8d828e01614d41565b98505060608b015167ffffffffffffffff811115614ea057614e9f6139f7565b5b614eac8d828e01614d41565b9750506080614ebd8d828e01614d6f565b96505060a0614ece8d828e01614d94565b95505060c0614edf8d828e01614cea565b94505060e08b015167ffffffffffffffff811115614f0057614eff6139f7565b5b614f0c8d828e01614d41565b935050610100614f1e8d828e01614db9565b925050610120614f308d828e01614dde565b9150509295989b9194979a5092959850565b7f4e487b7100000000000000000000000000000000000000000000000000000000600052602160045260246000fd5b7f4f6e6c792061646d696e206f7220686f73706974616c2073746166662063616e60008201527f207669657720616c6c2070657473000000000000000000000000000000000000602082015250565b6000614fcd602e83613d25565b9150614fd882614f71565b604082019050919050565b60006020820190508181036000830152614ffc81614fc0565b9050919050565b7f4e6f742074686520706574206f776e6572000000000000000000000000000000600082015250565b6000615039601183613d25565b915061504482615003565b602082019050919050565b600060208201905081810360008301526150688161502c565b9050919050565b600060208284031215615085576150846139f2565b5b600061509384828501614d6f565b91505092915050565b7f43616c6c6572206973206e6f742061207374616666206d656d626572206f662060008201527f616e7920696e737469747574696f6e0000000000000000000000000000000000602082015250565b60006150f8602f83613d25565b91506151038261509c565b604082019050919050565b60006020820190508181036000830152615127816150eb565b9050919050565b600060208284031215615144576151436139f2565b5b600061515284828501614cea565b91505092915050565b600080600080600060a08688031215615177576151766139f2565b5b600061518588828901614cea565b955050602086015167ffffffffffffffff8111156151a6576151a56139f7565b5b6151b288828901614d41565b94505060406151c388828901614db9565b93505060606151d488828901614d6f565b92505060806151e588828901614d6f565b9150509295509295909350565b7f43616c6c6572277320696e737469747574696f6e206973206e6f74206120686f60008201527f73706974616c0000000000000000000000000000000000000000000000000000602082015250565b600061524e602683613d25565b9150615259826151f2565b604082019050919050565b6000602082019050818103600083015261527d81615241565b9050919050565b600081905092915050565b60008190508160005260206000209050919050565b600081546152b1816148b6565b6152bb8186615284565b945060018216600081146152d657600181146152eb5761531e565b60ff198316865281151582028601935061531e565b6152f48561528f565b60005b83811015615316578154818901526001820191506020810190506152f7565b838801955050505b50505092915050565b600061533382846152a4565b915081905092915050565b7f496e646578206f7574206f6620626f756e647300000000000000000000000000600082015250565b6000615374601383613d25565b915061537f8261533e565b602082019050919050565b600060208201905081810360008301526153a381615367565b905091905056fea2646970667358221220ef7c8c0064c56685c008880da0d409bcffb5118ee4185ab09f7c108f0211544c64736f6c63430008130033",
  "linkReferences": {},
  "deployedLinkReferences": {}
}