{
  "_format": "hh-sol-artifact-1",
  "contractName": "PetManager",
  "sourceName": "contracts/PetManager.sol",
  "abi": [
    {
      "inputs": [
        {
          "internalType": "address",
          "name": "_userManagerAddress",
          "type": "address"
        },
        {
          "internalType": "address",
          "name": "_institutionManagerAddress",
          "type": "address"
        }
      ],
      "stateMutability": "nonpayable",
      "type": "constructor"
    },
    {
      "inputs": [
        {
          "internalType": "uint256",
          "name": "_petId",
          "type": "uint256"
        },
        {
          "internalType": "address",
          "name": "_adopter",
          "type": "address"
        },
        {
          "internalType": "string",
          "name": "_notes",
          "type": "string"
        }
      ],
      "name": "addAdoptionEvent",
      "outputs": [],
      "stateMutability": "nonpayable",
      "type": "function"
    },
    {
      "inputs": [
        {
          "internalType": "uint256",
          "name": "_petId",
          "type": "uint256"
        },
        {
          "internalType": "string",
          "name": "_diagnosis",
          "type": "string"
        },
        {
          "internalType": "string",
          "name": "_treatment",
          "type": "string"
        }
      ],
      "name": "addMedicalEvent",
      "outputs": [],
      "stateMutability": "nonpayable",
      "type": "function"
    },
    {
      "inputs": [
        {
          "internalType": "string",
          "name": "_name",
          "type": "string"
        },
        {
          "internalType": "string",
          "name": "_species",
          "type": "string"
        },
        {
          "internalType": "string",
          "name": "_breed",
          "type": "string"
        },
        {
          "internalType": "string",
          "name": "_gender",
          "type": "string"
        },
        {
          "internalType": "uint256",
          "name": "_age",
          "type": "uint256"
        },
        {
          "internalType": "string",
          "name": "_description",
          "type": "string"
        },
        {
          "internalType": "string",
          "name": "_image",
          "type": "string"
        }
      ],
      "name": "addPet",
      "outputs": [],
      "stateMutability": "nonpayable",
      "type": "function"
    },
    {
      "inputs": [
        {
          "internalType": "string",
          "name": "_location",
          "type": "string"
        },
        {
          "internalType": "string",
          "name": "_description",
          "type": "string"
        }
      ],
      "name": "addRescueRequest",
      "outputs": [
        {
          "internalType": "uint256",
          "name": "",
          "type": "uint256"
        }
      ],
      "stateMutability": "nonpayable",
      "type": "function"
    },
    {
      "inputs": [],
      "name": "adoptionEventIdCounter",
      "outputs": [
        {
          "internalType": "uint256",
          "name": "",
          "type": "uint256"
        }
      ],
      "stateMutability": "view",
      "type": "function"
    },
    {
      "inputs": [
        {
          "internalType": "uint256",
          "name": "",
          "type": "uint256"
        }
      ],
      "name": "adoptionEvents",
      "outputs": [
        {
          "internalType": "uint256",
          "name": "petId",
          "type": "uint256"
        },
        {
          "internalType": "address",
          "name": "adopter",
          "type": "address"
        },
        {
          "internalType": "uint256",
          "name": "timestamp",
          "type": "uint256"
        },
        {
          "internalType": "string",
          "name": "notes",
          "type": "string"
        }
      ],
      "stateMutability": "view",
      "type": "function"
    },
    {
      "inputs": [
        {
          "internalType": "string",
          "name": "_name",
          "type": "string"
        }
      ],
      "name": "findPetsByName",
      "outputs": [
        {
          "components": [
            {
              "internalType": "uint256",
              "name": "id",
              "type": "uint256"
            },
            {
              "internalType": "string",
              "name": "name",
              "type": "string"
            },
            {
              "internalType": "string",
              "name": "species",
              "type": "string"
            },
            {
              "internalType": "string",
              "name": "breed",
              "type": "string"
            },
            {
              "internalType": "string",
              "name": "gender",
              "type": "string"
            },
            {
              "internalType": "uint256",
              "name": "age",
              "type": "uint256"
            },
            {
              "internalType": "string",
              "name": "description",
              "type": "string"
            },
            {
              "internalType": "string",
              "name": "image",
              "type": "string"
            },
            {
              "internalType": "string",
              "name": "status",
              "type": "string"
            },
            {
              "internalType": "address",
              "name": "owner",
              "type": "address"
            }
          ],
          "internalType": "struct IMyPetBase.Pet[]",
          "name": "",
          "type": "tuple[]"
        }
      ],
      "stateMutability": "view",
      "type": "function"
    },
    {
      "inputs": [],
      "name": "getAllPets",
      "outputs": [
        {
          "components": [
            {
              "internalType": "uint256",
              "name": "id",
              "type": "uint256"
            },
            {
              "internalType": "string",
              "name": "name",
              "type": "string"
            },
            {
              "internalType": "string",
              "name": "species",
              "type": "string"
            },
            {
              "internalType": "string",
              "name": "breed",
              "type": "string"
            },
            {
              "internalType": "string",
              "name": "gender",
              "type": "string"
            },
            {
              "internalType": "uint256",
              "name": "age",
              "type": "uint256"
            },
            {
              "internalType": "string",
              "name": "description",
              "type": "string"
            },
            {
              "internalType": "string",
              "name": "image",
              "type": "string"
            },
            {
              "internalType": "string",
              "name": "status",
              "type": "string"
            },
            {
              "internalType": "address",
              "name": "owner",
              "type": "address"
            }
          ],
          "internalType": "struct IMyPetBase.Pet[]",
          "name": "",
          "type": "tuple[]"
        }
      ],
      "stateMutability": "view",
      "type": "function"
    },
    {
      "inputs": [
        {
          "internalType": "uint256",
          "name": "_petId",
          "type": "uint256"
        }
      ],
      "name": "getMedicalEventCountByPet",
      "outputs": [
        {
          "internalType": "uint256",
          "name": "",
          "type": "uint256"
        }
      ],
      "stateMutability": "view",
      "type": "function"
    },
    {
      "inputs": [
        {
          "internalType": "uint256",
          "name": "_petId",
          "type": "uint256"
        }
      ],
      "name": "getPetById",
      "outputs": [
        {
          "components": [
            {
              "internalType": "uint256",
              "name": "id",
              "type": "uint256"
            },
            {
              "internalType": "string",
              "name": "name",
              "type": "string"
            },
            {
              "internalType": "string",
              "name": "species",
              "type": "string"
            },
            {
              "internalType": "string",
              "name": "breed",
              "type": "string"
            },
            {
              "internalType": "string",
              "name": "gender",
              "type": "string"
            },
            {
              "internalType": "uint256",
              "name": "age",
              "type": "uint256"
            },
            {
              "internalType": "string",
              "name": "description",
              "type": "string"
            },
            {
              "internalType": "string",
              "name": "image",
              "type": "string"
            },
            {
              "internalType": "string",
              "name": "status",
              "type": "string"
            },
            {
              "internalType": "address",
              "name": "owner",
              "type": "address"
            }
          ],
          "internalType": "struct IMyPetBase.Pet",
          "name": "",
          "type": "tuple"
        }
      ],
      "stateMutability": "view",
      "type": "function"
    },
    {
      "inputs": [],
      "name": "getPetCount",
      "outputs": [
        {
          "internalType": "uint256",
          "name": "",
          "type": "uint256"
        }
      ],
      "stateMutability": "view",
      "type": "function"
    },
    {
      "inputs": [
        {
          "internalType": "uint256",
          "name": "_petId",
          "type": "uint256"
        },
        {
          "internalType": "uint256",
          "name": "_index",
          "type": "uint256"
        }
      ],
      "name": "getPetMedicalEventAt",
      "outputs": [
        {
          "internalType": "uint256",
          "name": "",
          "type": "uint256"
        }
      ],
      "stateMutability": "view",
      "type": "function"
    },
    {
      "inputs": [
        {
          "internalType": "address",
          "name": "_user",
          "type": "address"
        }
      ],
      "name": "getUserPets",
      "outputs": [
        {
          "components": [
            {
              "internalType": "uint256",
              "name": "id",
              "type": "uint256"
            },
            {
              "internalType": "string",
              "name": "name",
              "type": "string"
            },
            {
              "internalType": "string",
              "name": "species",
              "type": "string"
            },
            {
              "internalType": "string",
              "name": "breed",
              "type": "string"
            },
            {
              "internalType": "string",
              "name": "gender",
              "type": "string"
            },
            {
              "internalType": "uint256",
              "name": "age",
              "type": "uint256"
            },
            {
              "internalType": "string",
              "name": "description",
              "type": "string"
            },
            {
              "internalType": "string",
              "name": "image",
              "type": "string"
            },
            {
              "internalType": "string",
              "name": "status",
              "type": "string"
            },
            {
              "internalType": "address",
              "name": "owner",
              "type": "address"
            }
          ],
          "internalType": "struct IMyPetBase.Pet[]",
          "name": "",
          "type": "tuple[]"
        }
      ],
      "stateMutability": "view",
      "type": "function"
    },
    {
      "inputs": [],
      "name": "institutionManagerAddress",
      "outputs": [
        {
          "internalType": "address",
          "name": "",
          "type": "address"
        }
      ],
      "stateMutability": "view",
      "type": "function"
    },
    {
      "inputs": [
        {
          "internalType": "uint256",
          "name": "",
          "type": "uint256"
        }
      ],
      "name": "medicalEvents",
      "outputs": [
        {
          "internalType": "uint256",
          "name": "petId",
          "type": "uint256"
        },
        {
          "internalType": "string",
          "name": "diagnosis",
          "type": "string"
        },
        {
          "internalType": "string",
          "name": "treatment",
          "type": "string"
        },
        {
          "internalType": "uint256",
          "name": "timestamp",
          "type": "uint256"
        },
        {
          "internalType": "uint256",
          "name": "hospital",
          "type": "uint256"
        },
        {
          "internalType": "address",
          "name": "doctor",
          "type": "address"
        }
      ],
      "stateMutability": "view",
      "type": "function"
    },
    {
      "inputs": [],
      "name": "petIdCounter",
      "outputs": [
        {
          "internalType": "uint256",
          "name": "",
          "type": "uint256"
        }
      ],
      "stateMutability": "view",
      "type": "function"
    },
    {
      "inputs": [
        {
          "internalType": "uint256",
          "name": "",
          "type": "uint256"
        }
      ],
      "name": "pets",
      "outputs": [
        {
          "internalType": "uint256",
          "name": "id",
          "type": "uint256"
        },
        {
          "internalType": "string",
          "name": "name",
          "type": "string"
        },
        {
          "internalType": "string",
          "name": "species",
          "type": "string"
        },
        {
          "internalType": "string",
          "name": "breed",
          "type": "string"
        },
        {
          "internalType": "string",
          "name": "gender",
          "type": "string"
        },
        {
          "internalType": "uint256",
          "name": "age",
          "type": "uint256"
        },
        {
          "internalType": "string",
          "name": "description",
          "type": "string"
        },
        {
          "internalType": "string",
          "name": "image",
          "type": "string"
        },
        {
          "internalType": "string",
          "name": "status",
          "type": "string"
        },
        {
          "internalType": "address",
          "name": "owner",
          "type": "address"
        }
      ],
      "stateMutability": "view",
      "type": "function"
    },
    {
      "inputs": [
        {
          "internalType": "uint256",
          "name": "_petId",
          "type": "uint256"
        }
      ],
      "name": "removePet",
      "outputs": [],
      "stateMutability": "nonpayable",
      "type": "function"
    },
    {
      "inputs": [],
      "name": "rescueRequestIdCounter",
      "outputs": [
        {
          "internalType": "uint256",
          "name": "",
          "type": "uint256"
        }
      ],
      "stateMutability": "view",
      "type": "function"
    },
    {
      "inputs": [
        {
          "internalType": "uint256",
          "name": "",
          "type": "uint256"
        }
      ],
      "name": "rescueRequests",
      "outputs": [
        {
          "internalType": "uint256",
          "name": "id",
          "type": "uint256"
        },
        {
          "internalType": "string",
          "name": "location",
          "type": "string"
        },
        {
          "internalType": "string",
          "name": "description",
          "type": "string"
        },
        {
          "internalType": "string",
          "name": "status",
          "type": "string"
        },
        {
          "internalType": "uint256",
          "name": "responderOrgId",
          "type": "uint256"
        },
        {
          "internalType": "uint256",
          "name": "timestamp",
          "type": "uint256"
        }
      ],
      "stateMutability": "view",
      "type": "function"
    },
    {
      "inputs": [
        {
          "internalType": "uint256",
          "name": "_petId",
          "type": "uint256"
        },
        {
          "internalType": "string",
          "name": "_name",
          "type": "string"
        },
        {
          "internalType": "string",
          "name": "_species",
          "type": "string"
        },
        {
          "internalType": "string",
          "name": "_breed",
          "type": "string"
        },
        {
          "internalType": "string",
          "name": "_gender",
          "type": "string"
        },
        {
          "internalType": "uint256",
          "name": "_age",
          "type": "uint256"
        },
        {
          "internalType": "string",
          "name": "_description",
          "type": "string"
        },
        {
          "internalType": "string",
          "name": "_image",
          "type": "string"
        }
      ],
      "name": "updatePet",
      "outputs": [],
      "stateMutability": "nonpayable",
      "type": "function"
    },
    {
      "inputs": [
        {
          "internalType": "uint256",
          "name": "_requestId",
          "type": "uint256"
        },
        {
          "internalType": "string",
          "name": "_status",
          "type": "string"
        },
        {
          "internalType": "uint256",
          "name": "_responderOrgId",
          "type": "uint256"
        }
      ],
      "name": "updateRescueRequestStatus",
      "outputs": [],
      "stateMutability": "nonpayable",
      "type": "function"
    },
    {
      "inputs": [],
      "name": "userManagerAddress",
      "outputs": [
        {
          "internalType": "address",
          "name": "",
          "type": "address"
        }
      ],
      "stateMutability": "view",
      "type": "function"
    }
  ],
  "bytecode": "0x60c060405260018055600160055560016006553480156200001f57600080fd5b50604051620056ea380380620056ea833981810160405281019062000045919062000203565b600073ffffffffffffffffffffffffffffffffffffffff168273ffffffffffffffffffffffffffffffffffffffff1603620000b7576040517f08c379a0000000000000000000000000000000000000000000000000000000008152600401620000ae90620002ab565b60405180910390fd5b600073ffffffffffffffffffffffffffffffffffffffff168173ffffffffffffffffffffffffffffffffffffffff160362000129576040517f08c379a0000000000000000000000000000000000000000000000000000000008152600401620001209062000343565b60405180910390fd5b8173ffffffffffffffffffffffffffffffffffffffff1660808173ffffffffffffffffffffffffffffffffffffffff16815250508073ffffffffffffffffffffffffffffffffffffffff1660a08173ffffffffffffffffffffffffffffffffffffffff1681525050505062000365565b600080fd5b600073ffffffffffffffffffffffffffffffffffffffff82169050919050565b6000620001cb826200019e565b9050919050565b620001dd81620001be565b8114620001e957600080fd5b50565b600081519050620001fd81620001d2565b92915050565b600080604083850312156200021d576200021c62000199565b5b60006200022d85828601620001ec565b92505060206200024085828601620001ec565b9150509250929050565b600082825260208201905092915050565b7f496e76616c69642075736572206d616e61676572206164647265737300000000600082015250565b600062000293601c836200024a565b9150620002a0826200025b565b602082019050919050565b60006020820190508181036000830152620002c68162000284565b9050919050565b7f496e76616c696420696e737469747574696f6e206d616e61676572206164647260008201527f6573730000000000000000000000000000000000000000000000000000000000602082015250565b60006200032b6023836200024a565b91506200033882620002cd565b604082019050919050565b600060208201905081810360008301526200035e816200031c565b9050919050565b60805160a05161534a620003a06000396000818161140d0152818161211101526129f3015260008181610b200152610d47015261534a6000f3fe608060405234801561001057600080fd5b506004361061014d5760003560e01c80637fab802a116100c3578063cb9205091161007c578063cb920509146103bd578063cfb869bf146103ed578063d89f4f4e14610426578063eda95cb714610456578063f664d94214610474578063fd682502146104925761014d565b80637fab802a146102ed5780638e5e7d67146103095780639ffe156114610325578063ba8cd53214610341578063c261b16814610371578063c2dd81ee146103a15761014d565b80634d1def2c116101155780634d1def2c146102225780634e8933de1461024057806350c688b31461025e57806359f95c25146102935780635b236d97146102b15780635c828f37146102cf5761014d565b80630c0e88df1461015257806318cc94091461016e5780632912dce31461019e57806346910856146101ba5780634a95525d146101ed575b600080fd5b61016c60048036038101906101679190613a37565b6104c2565b005b61018860048036038101906101839190613aa6565b610565565b6040516101959190613ae2565b60405180910390f35b6101b860048036038101906101b39190613b5b565b61061f565b005b6101d460048036038101906101cf9190613aa6565b6108ba565b6040516101e49493929190613c58565b60405180910390f35b61020760048036038101906102029190613aa6565b6109a2565b60405161021996959493929190613ca4565b60405180910390f35b61022a610b1e565b6040516102379190613d13565b60405180910390f35b610248610b42565b6040516102559190613ae2565b60405180910390f35b61027860048036038101906102739190613aa6565b610b57565b60405161028a96959493929190613d2e565b60405180910390f35b61029b610d3b565b6040516102a89190613ae2565b60405180910390f35b6102b9610d41565b6040516102c69190613fd2565b60405180910390f35b6102d761140b565b6040516102e49190613d13565b60405180910390f35b61030760048036038101906103029190613ff4565b61142f565b005b610323600480360381019061031e9190613aa6565b61167c565b005b61033f600480360381019061033a919061413e565b6118b4565b005b61035b6004803603810190610356919061429c565b611a74565b6040516103689190613fd2565b60405180910390f35b61038b600480360381019061038691906142c9565b61210b565b6040516103989190613fd2565b60405180910390f35b6103bb60048036038101906103b69190614312565b612917565b005b6103d760048036038101906103d29190613aa6565b612cd2565b6040516103e491906144a1565b60405180910390f35b61040760048036038101906104029190613aa6565b6131d3565b60405161041d9a999897969594939291906144c3565b60405180910390f35b610440600480360381019061043b9190614590565b61360f565b60405161044d9190613ae2565b60405180910390f35b61045e61372f565b60405161046b9190613ae2565b60405180910390f35b61047c613735565b6040516104899190613ae2565b60405180910390f35b6104ac60048036038101906104a79190614608565b61373b565b6040516104b99190613ae2565b60405180910390f35b6000831180156104d3575060065483105b610512576040517f08c379a000000000000000000000000000000000000000000000000000000000815260040161050990614694565b60405180910390fd5b6000600460018561052391906146e3565b8154811061053457610533614717565b5b90600052602060002090600602019050828160030190816105559190614952565b5081816004018190555050505050565b60008082118015610577575060015482105b6105b6576040517f08c379a00000000000000000000000000000000000000000000000000000000081526004016105ad90614a70565b60405180910390fd5b6000805b6003805490508110156106155783600382815481106105dc576105db614717565b5b906000526020600020906006020160000154036106025781806105fe90614a90565b9250505b808061060d90614a90565b9150506105ba565b5080915050919050565b600083118015610630575060015483105b61066f576040517f08c379a000000000000000000000000000000000000000000000000000000000815260040161066690614a70565b60405180910390fd5b600060405180608001604052808581526020018473ffffffffffffffffffffffffffffffffffffffff16815260200142815260200183815250905060028190806001815401808255809150506001900390600052602060002090600402016000909190919091506000820151816000015560208201518160010160006101000a81548173ffffffffffffffffffffffffffffffffffffffff021916908373ffffffffffffffffffffffffffffffffffffffff1602179055506040820151816002015560608201518160030190816107469190614952565b50505060008060018661075991906146e3565b8154811061076a57610769614717565b5b90600052602060002090600a020190506000600760008360090160009054906101000a900473ffffffffffffffffffffffffffffffffffffffff1673ffffffffffffffffffffffffffffffffffffffff1673ffffffffffffffffffffffffffffffffffffffff168152602001908152602001600020600087815260200190815260200160002060006101000a81548160ff021916908315150217905550838160090160006101000a81548173ffffffffffffffffffffffffffffffffffffffff021916908373ffffffffffffffffffffffffffffffffffffffff1602179055506001600760008673ffffffffffffffffffffffffffffffffffffffff1673ffffffffffffffffffffffffffffffffffffffff168152602001908152602001600020600087815260200190815260200160002060006101000a81548160ff0219169083151502179055505050505050565b600281815481106108ca57600080fd5b90600052602060002090600402016000915090508060000154908060010160009054906101000a900473ffffffffffffffffffffffffffffffffffffffff169080600201549080600301805461091f90614775565b80601f016020809104026020016040519081016040528092919081815260200182805461094b90614775565b80156109985780601f1061096d57610100808354040283529160200191610998565b820191906000526020600020905b81548152906001019060200180831161097b57829003601f168201915b5050505050905084565b600381815481106109b257600080fd5b90600052602060002090600602016000915090508060000154908060010180546109db90614775565b80601f0160208091040260200160405190810160405280929190818152602001828054610a0790614775565b8015610a545780601f10610a2957610100808354040283529160200191610a54565b820191906000526020600020905b815481529060010190602001808311610a3757829003601f168201915b505050505090806002018054610a6990614775565b80601f0160208091040260200160405190810160405280929190818152602001828054610a9590614775565b8015610ae25780601f10610ab757610100808354040283529160200191610ae2565b820191906000526020600020905b815481529060010190602001808311610ac557829003601f168201915b5050505050908060030154908060040154908060050160009054906101000a900473ffffffffffffffffffffffffffffffffffffffff16905086565b7f000000000000000000000000000000000000000000000000000000000000000081565b600060018054610b5291906146e3565b905090565b60048181548110610b6757600080fd5b9060005260206000209060060201600091509050806000015490806001018054610b9090614775565b80601f0160208091040260200160405190810160405280929190818152602001828054610bbc90614775565b8015610c095780601f10610bde57610100808354040283529160200191610c09565b820191906000526020600020905b815481529060010190602001808311610bec57829003601f168201915b505050505090806002018054610c1e90614775565b80601f0160208091040260200160405190810160405280929190818152602001828054610c4a90614775565b8015610c975780601f10610c6c57610100808354040283529160200191610c97565b820191906000526020600020905b815481529060010190602001808311610c7a57829003601f168201915b505050505090806003018054610cac90614775565b80601f0160208091040260200160405190810160405280929190818152602001828054610cd890614775565b8015610d255780601f10610cfa57610100808354040283529160200191610d25565b820191906000526020600020905b815481529060010190602001808311610d0857829003601f168201915b5050505050908060040154908060050154905086565b60015481565b606060007f000000000000000000000000000000000000000000000000000000000000000090508073ffffffffffffffffffffffffffffffffffffffff1663eac50f6b336040518263ffffffff1660e01b8152600401610da19190613d13565b602060405180830381865afa158015610dbe573d6000803e3d6000fd5b505050506040513d601f19601f82011682018060405250810190610de29190614b10565b610e21576040517f08c379a0000000000000000000000000000000000000000000000000000000008152600401610e1890614b89565b60405180910390fd5b60008173ffffffffffffffffffffffffffffffffffffffff16636386c1c7336040518263ffffffff1660e01b8152600401610e5c9190613d13565b600060405180830381865afa158015610e79573d6000803e3d6000fd5b505050506040513d6000823e3d601f19601f82011682018060405250810190610ea29190614cb2565b995050505050505050505060006003811115610ec157610ec0614e01565b5b816003811115610ed457610ed3614e01565b5b1480610f04575060026003811115610eef57610eee614e01565b5b816003811115610f0257610f01614e01565b5b145b610f43576040517f08c379a0000000000000000000000000000000000000000000000000000000008152600401610f3a90614ea2565b60405180910390fd5b6000805480602002602001604051908101604052809291908181526020016000905b8282101561140057838290600052602060002090600a02016040518061014001604052908160008201548152602001600182018054610fa390614775565b80601f0160208091040260200160405190810160405280929190818152602001828054610fcf90614775565b801561101c5780601f10610ff15761010080835404028352916020019161101c565b820191906000526020600020905b815481529060010190602001808311610fff57829003601f168201915b5050505050815260200160028201805461103590614775565b80601f016020809104026020016040519081016040528092919081815260200182805461106190614775565b80156110ae5780601f10611083576101008083540402835291602001916110ae565b820191906000526020600020905b81548152906001019060200180831161109157829003601f168201915b505050505081526020016003820180546110c790614775565b80601f01602080910402602001604051908101604052809291908181526020018280546110f390614775565b80156111405780601f1061111557610100808354040283529160200191611140565b820191906000526020600020905b81548152906001019060200180831161112357829003601f168201915b5050505050815260200160048201805461115990614775565b80601f016020809104026020016040519081016040528092919081815260200182805461118590614775565b80156111d25780601f106111a7576101008083540402835291602001916111d2565b820191906000526020600020905b8154815290600101906020018083116111b557829003601f168201915b50505050508152602001600582015481526020016006820180546111f590614775565b80601f016020809104026020016040519081016040528092919081815260200182805461122190614775565b801561126e5780601f106112435761010080835404028352916020019161126e565b820191906000526020600020905b81548152906001019060200180831161125157829003601f168201915b5050505050815260200160078201805461128790614775565b80601f01602080910402602001604051908101604052809291908181526020018280546112b390614775565b80156113005780601f106112d557610100808354040283529160200191611300565b820191906000526020600020905b8154815290600101906020018083116112e357829003601f168201915b5050505050815260200160088201805461131990614775565b80601f016020809104026020016040519081016040528092919081815260200182805461134590614775565b80156113925780601f1061136757610100808354040283529160200191611392565b820191906000526020600020905b81548152906001019060200180831161137557829003601f168201915b505050505081526020016009820160009054906101000a900473ffffffffffffffffffffffffffffffffffffffff1673ffffffffffffffffffffffffffffffffffffffff1673ffffffffffffffffffffffffffffffffffffffff168152505081526020019060010190610f65565b505050509250505090565b7f000000000000000000000000000000000000000000000000000000000000000081565b600060015490506001600081548092919061144990614a90565b919050555060006040518061014001604052808381526020018a81526020018981526020018881526020018781526020018681526020018581526020018481526020016040518060400160405280600681526020017f616374697665000000000000000000000000000000000000000000000000000081525081526020013373ffffffffffffffffffffffffffffffffffffffff16815250905060008190806001815401808255809150506001900390600052602060002090600a020160009091909190915060008201518160000155602082015181600101908161152e9190614952565b5060408201518160020190816115449190614952565b50606082015181600301908161155a9190614952565b5060808201518160040190816115709190614952565b5060a0820151816005015560c08201518160060190816115909190614952565b5060e08201518160070190816115a69190614952565b506101008201518160080190816115bd9190614952565b506101208201518160090160006101000a81548173ffffffffffffffffffffffffffffffffffffffff021916908373ffffffffffffffffffffffffffffffffffffffff16021790555050506001600760003373ffffffffffffffffffffffffffffffffffffffff1673ffffffffffffffffffffffffffffffffffffffff168152602001908152602001600020600084815260200190815260200160002060006101000a81548160ff021916908315150217905550505050505050505050565b60008111801561168d575060015481105b6116cc576040517f08c379a00000000000000000000000000000000000000000000000000000000081526004016116c390614a70565b60405180910390fd5b3373ffffffffffffffffffffffffffffffffffffffff1660006001836116f291906146e3565b8154811061170357611702614717565b5b90600052602060002090600a020160090160009054906101000a900473ffffffffffffffffffffffffffffffffffffffff1673ffffffffffffffffffffffffffffffffffffffff161461178b576040517f08c379a000000000000000000000000000000000000000000000000000000000815260040161178290614f0e565b60405180910390fd5b60008060018361179b91906146e3565b815481106117ac576117ab614717565b5b90600052602060002090600a020190506040518060400160405280600781526020017f72656d6f766564000000000000000000000000000000000000000000000000008152508160080190816118029190614952565b5060008160090160006101000a81548173ffffffffffffffffffffffffffffffffffffffff021916908373ffffffffffffffffffffffffffffffffffffffff1602179055506000600760003373ffffffffffffffffffffffffffffffffffffffff1673ffffffffffffffffffffffffffffffffffffffff168152602001908152602001600020600084815260200190815260200160002060006101000a81548160ff0219169083151502179055505050565b6000881180156118c5575060015488105b611904576040517f08c379a00000000000000000000000000000000000000000000000000000000081526004016118fb90614a70565b60405180910390fd5b3373ffffffffffffffffffffffffffffffffffffffff16600060018a61192a91906146e3565b8154811061193b5761193a614717565b5b90600052602060002090600a020160090160009054906101000a900473ffffffffffffffffffffffffffffffffffffffff1673ffffffffffffffffffffffffffffffffffffffff16146119c3576040517f08c379a00000000000000000000000000000000000000000000000000000000081526004016119ba90614f0e565b60405180910390fd5b60008060018a6119d391906146e3565b815481106119e4576119e3614717565b5b90600052602060002090600a0201905087816001019081611a059190614952565b5086816002019081611a179190614952565b5085816003019081611a299190614952565b5084816004019081611a3b9190614952565b5083816005018190555082816006019081611a569190614952565b5081816007019081611a689190614952565b50505050505050505050565b6060600080600190505b600154811015611b2e578373ffffffffffffffffffffffffffffffffffffffff166000600183611aae91906146e3565b81548110611abf57611abe614717565b5b90600052602060002090600a020160090160009054906101000a900473ffffffffffffffffffffffffffffffffffffffff1673ffffffffffffffffffffffffffffffffffffffff1603611b1b578180611b1790614a90565b9250505b8080611b2690614a90565b915050611a7e565b5060008167ffffffffffffffff811115611b4b57611b4a61390c565b5b604051908082528060200260200182016040528015611b8457816020015b611b7161383e565b815260200190600190039081611b695790505b509050600080600190505b6001548110156120ff578573ffffffffffffffffffffffffffffffffffffffff166000600183611bbf91906146e3565b81548110611bd057611bcf614717565b5b90600052602060002090600a020160090160009054906101000a900473ffffffffffffffffffffffffffffffffffffffff1673ffffffffffffffffffffffffffffffffffffffff16036120ec576000600182611c2c91906146e3565b81548110611c3d57611c3c614717565b5b90600052602060002090600a02016040518061014001604052908160008201548152602001600182018054611c7190614775565b80601f0160208091040260200160405190810160405280929190818152602001828054611c9d90614775565b8015611cea5780601f10611cbf57610100808354040283529160200191611cea565b820191906000526020600020905b815481529060010190602001808311611ccd57829003601f168201915b50505050508152602001600282018054611d0390614775565b80601f0160208091040260200160405190810160405280929190818152602001828054611d2f90614775565b8015611d7c5780601f10611d5157610100808354040283529160200191611d7c565b820191906000526020600020905b815481529060010190602001808311611d5f57829003601f168201915b50505050508152602001600382018054611d9590614775565b80601f0160208091040260200160405190810160405280929190818152602001828054611dc190614775565b8015611e0e5780601f10611de357610100808354040283529160200191611e0e565b820191906000526020600020905b815481529060010190602001808311611df157829003601f168201915b50505050508152602001600482018054611e2790614775565b80601f0160208091040260200160405190810160405280929190818152602001828054611e5390614775565b8015611ea05780601f10611e7557610100808354040283529160200191611ea0565b820191906000526020600020905b815481529060010190602001808311611e8357829003601f168201915b5050505050815260200160058201548152602001600682018054611ec390614775565b80601f0160208091040260200160405190810160405280929190818152602001828054611eef90614775565b8015611f3c5780601f10611f1157610100808354040283529160200191611f3c565b820191906000526020600020905b815481529060010190602001808311611f1f57829003601f168201915b50505050508152602001600782018054611f5590614775565b80601f0160208091040260200160405190810160405280929190818152602001828054611f8190614775565b8015611fce5780601f10611fa357610100808354040283529160200191611fce565b820191906000526020600020905b815481529060010190602001808311611fb157829003601f168201915b50505050508152602001600882018054611fe790614775565b80601f016020809104026020016040519081016040528092919081815260200182805461201390614775565b80156120605780601f1061203557610100808354040283529160200191612060565b820191906000526020600020905b81548152906001019060200180831161204357829003601f168201915b505050505081526020016009820160009054906101000a900473ffffffffffffffffffffffffffffffffffffffff1673ffffffffffffffffffffffffffffffffffffffff1673ffffffffffffffffffffffffffffffffffffffff16815250508383815181106120d2576120d1614717565b5b602002602001018190525081806120e890614a90565b9250505b80806120f790614a90565b915050611b8f565b50819350505050919050565b606060007f0000000000000000000000000000000000000000000000000000000000000000905060008173ffffffffffffffffffffffffffffffffffffffff1663584fab0f336040518263ffffffff1660e01b815260040161216d9190613d13565b602060405180830381865afa15801561218a573d6000803e3d6000fd5b505050506040513d601f19601f820116820180604052508101906121ae9190614f2e565b9050600081036121f3576040517f08c379a00000000000000000000000000000000000000000000000000000000081526004016121ea90614fcd565b60405180910390fd5b60008273ffffffffffffffffffffffffffffffffffffffff16631063b484836040518263ffffffff1660e01b815260040161222e9190613ae2565b600060405180830381865afa15801561224b573d6000803e3d6000fd5b505050506040513d6000823e3d601f19601f820116820180604052508101906122749190614fed565b5050925050506000600181111561228e5761228d614e01565b5b8160018111156122a1576122a0614e01565b5b146122e1576040517f08c379a00000000000000000000000000000000000000000000000000000000081526004016122d8906150f6565b60405180910390fd5b600080600190505b600154811015612368578680519060200120600060018361230a91906146e3565b8154811061231b5761231a614717565b5b90600052602060002090600a020160010160405161233991906151b9565b60405180910390200361235557818061235190614a90565b9250505b808061236090614a90565b9150506122e9565b5060008167ffffffffffffffff8111156123855761238461390c565b5b6040519080825280602002602001820160405280156123be57816020015b6123ab61383e565b8152602001906001900390816123a35790505b509050600080600190505b60015481101561290857888051906020012060006001836123ea91906146e3565b815481106123fb576123fa614717565b5b90600052602060002090600a020160010160405161241991906151b9565b6040518091039020036128f557600060018261243591906146e3565b8154811061244657612445614717565b5b90600052602060002090600a0201604051806101400160405290816000820154815260200160018201805461247a90614775565b80601f01602080910402602001604051908101604052809291908181526020018280546124a690614775565b80156124f35780601f106124c8576101008083540402835291602001916124f3565b820191906000526020600020905b8154815290600101906020018083116124d657829003601f168201915b5050505050815260200160028201805461250c90614775565b80601f016020809104026020016040519081016040528092919081815260200182805461253890614775565b80156125855780601f1061255a57610100808354040283529160200191612585565b820191906000526020600020905b81548152906001019060200180831161256857829003601f168201915b5050505050815260200160038201805461259e90614775565b80601f01602080910402602001604051908101604052809291908181526020018280546125ca90614775565b80156126175780601f106125ec57610100808354040283529160200191612617565b820191906000526020600020905b8154815290600101906020018083116125fa57829003601f168201915b5050505050815260200160048201805461263090614775565b80601f016020809104026020016040519081016040528092919081815260200182805461265c90614775565b80156126a95780601f1061267e576101008083540402835291602001916126a9565b820191906000526020600020905b81548152906001019060200180831161268c57829003601f168201915b50505050508152602001600582015481526020016006820180546126cc90614775565b80601f01602080910402602001604051908101604052809291908181526020018280546126f890614775565b80156127455780601f1061271a57610100808354040283529160200191612745565b820191906000526020600020905b81548152906001019060200180831161272857829003601f168201915b5050505050815260200160078201805461275e90614775565b80601f016020809104026020016040519081016040528092919081815260200182805461278a90614775565b80156127d75780601f106127ac576101008083540402835291602001916127d7565b820191906000526020600020905b8154815290600101906020018083116127ba57829003601f168201915b505050505081526020016008820180546127f090614775565b80601f016020809104026020016040519081016040528092919081815260200182805461281c90614775565b80156128695780601f1061283e57610100808354040283529160200191612869565b820191906000526020600020905b81548152906001019060200180831161284c57829003601f168201915b505050505081526020016009820160009054906101000a900473ffffffffffffffffffffffffffffffffffffffff1673ffffffffffffffffffffffffffffffffffffffff1673ffffffffffffffffffffffffffffffffffffffff16815250508383815181106128db576128da614717565b5b602002602001018190525081806128f190614a90565b9250505b808061290090614a90565b9150506123c9565b50819650505050505050919050565b600083118015612928575060015483105b612967576040517f08c379a000000000000000000000000000000000000000000000000000000000815260040161295e90614a70565b60405180910390fd5b60008251116129ab576040517f08c379a00000000000000000000000000000000000000000000000000000000081526004016129a29061521c565b60405180910390fd5b60008151116129ef576040517f08c379a00000000000000000000000000000000000000000000000000000000081526004016129e690615288565b60405180910390fd5b60007f0000000000000000000000000000000000000000000000000000000000000000905060008173ffffffffffffffffffffffffffffffffffffffff1663584fab0f336040518263ffffffff1660e01b8152600401612a4f9190613d13565b602060405180830381865afa158015612a6c573d6000803e3d6000fd5b505050506040513d601f19601f82011682018060405250810190612a909190614f2e565b905060008103612ad5576040517f08c379a0000000000000000000000000000000000000000000000000000000008152600401612acc90614fcd565b60405180910390fd5b60008273ffffffffffffffffffffffffffffffffffffffff16631063b484836040518263ffffffff1660e01b8152600401612b109190613ae2565b600060405180830381865afa158015612b2d573d6000803e3d6000fd5b505050506040513d6000823e3d601f19601f82011682018060405250810190612b569190614fed565b50509250505060006001811115612b7057612b6f614e01565b5b816001811115612b8357612b82614e01565b5b14612bc3576040517f08c379a0000000000000000000000000000000000000000000000000000000008152600401612bba906150f6565b60405180910390fd5b60006040518060c001604052808881526020018781526020018681526020014281526020018481526020013373ffffffffffffffffffffffffffffffffffffffff1681525090506003819080600181540180825580915050600190039060005260206000209060060201600090919091909150600082015181600001556020820151816001019081612c559190614952565b506040820151816002019081612c6b9190614952565b50606082015181600301556080820151816004015560a08201518160050160006101000a81548173ffffffffffffffffffffffffffffffffffffffff021916908373ffffffffffffffffffffffffffffffffffffffff160217905550505050505050505050565b612cda61383e565b600082118015612ceb575060015482105b612d2a576040517f08c379a0000000000000000000000000000000000000000000000000000000008152600401612d2190614a70565b60405180910390fd5b6000600183612d3991906146e3565b81548110612d4a57612d49614717565b5b90600052602060002090600a02016040518061014001604052908160008201548152602001600182018054612d7e90614775565b80601f0160208091040260200160405190810160405280929190818152602001828054612daa90614775565b8015612df75780601f10612dcc57610100808354040283529160200191612df7565b820191906000526020600020905b815481529060010190602001808311612dda57829003601f168201915b50505050508152602001600282018054612e1090614775565b80601f0160208091040260200160405190810160405280929190818152602001828054612e3c90614775565b8015612e895780601f10612e5e57610100808354040283529160200191612e89565b820191906000526020600020905b815481529060010190602001808311612e6c57829003601f168201915b50505050508152602001600382018054612ea290614775565b80601f0160208091040260200160405190810160405280929190818152602001828054612ece90614775565b8015612f1b5780601f10612ef057610100808354040283529160200191612f1b565b820191906000526020600020905b815481529060010190602001808311612efe57829003601f168201915b50505050508152602001600482018054612f3490614775565b80601f0160208091040260200160405190810160405280929190818152602001828054612f6090614775565b8015612fad5780601f10612f8257610100808354040283529160200191612fad565b820191906000526020600020905b815481529060010190602001808311612f9057829003601f168201915b5050505050815260200160058201548152602001600682018054612fd090614775565b80601f0160208091040260200160405190810160405280929190818152602001828054612ffc90614775565b80156130495780601f1061301e57610100808354040283529160200191613049565b820191906000526020600020905b81548152906001019060200180831161302c57829003601f168201915b5050505050815260200160078201805461306290614775565b80601f016020809104026020016040519081016040528092919081815260200182805461308e90614775565b80156130db5780601f106130b0576101008083540402835291602001916130db565b820191906000526020600020905b8154815290600101906020018083116130be57829003601f168201915b505050505081526020016008820180546130f490614775565b80601f016020809104026020016040519081016040528092919081815260200182805461312090614775565b801561316d5780601f106131425761010080835404028352916020019161316d565b820191906000526020600020905b81548152906001019060200180831161315057829003601f168201915b505050505081526020016009820160009054906101000a900473ffffffffffffffffffffffffffffffffffffffff1673ffffffffffffffffffffffffffffffffffffffff1673ffffffffffffffffffffffffffffffffffffffff16815250509050919050565b600081815481106131e357600080fd5b90600052602060002090600a020160009150905080600001549080600101805461320c90614775565b80601f016020809104026020016040519081016040528092919081815260200182805461323890614775565b80156132855780601f1061325a57610100808354040283529160200191613285565b820191906000526020600020905b81548152906001019060200180831161326857829003601f168201915b50505050509080600201805461329a90614775565b80601f01602080910402602001604051908101604052809291908181526020018280546132c690614775565b80156133135780601f106132e857610100808354040283529160200191613313565b820191906000526020600020905b8154815290600101906020018083116132f657829003601f168201915b50505050509080600301805461332890614775565b80601f016020809104026020016040519081016040528092919081815260200182805461335490614775565b80156133a15780601f10613376576101008083540402835291602001916133a1565b820191906000526020600020905b81548152906001019060200180831161338457829003601f168201915b5050505050908060040180546133b690614775565b80601f01602080910402602001604051908101604052809291908181526020018280546133e290614775565b801561342f5780601f106134045761010080835404028352916020019161342f565b820191906000526020600020905b81548152906001019060200180831161341257829003601f168201915b50505050509080600501549080600601805461344a90614775565b80601f016020809104026020016040519081016040528092919081815260200182805461347690614775565b80156134c35780601f10613498576101008083540402835291602001916134c3565b820191906000526020600020905b8154815290600101906020018083116134a657829003601f168201915b5050505050908060070180546134d890614775565b80601f016020809104026020016040519081016040528092919081815260200182805461350490614775565b80156135515780601f1061352657610100808354040283529160200191613551565b820191906000526020600020905b81548152906001019060200180831161353457829003601f168201915b50505050509080600801805461356690614775565b80601f016020809104026020016040519081016040528092919081815260200182805461359290614775565b80156135df5780601f106135b4576101008083540402835291602001916135df565b820191906000526020600020905b8154815290600101906020018083116135c257829003601f168201915b5050505050908060090160009054906101000a900473ffffffffffffffffffffffffffffffffffffffff1690508a565b60008060065490506006600081548092919061362a90614a90565b919050555060006040518060c001604052808381526020018681526020018581526020016040518060400160405280600781526020017f70656e64696e670000000000000000000000000000000000000000000000000081525081526020016000815260200142815250905060048190806001815401808255809150506001900390600052602060002090600602016000909190919091506000820151816000015560208201518160010190816136e19190614952565b5060408201518160020190816136f79190614952565b50606082015181600301908161370d9190614952565b506080820151816004015560a082015181600501555050819250505092915050565b60065481565b60055481565b6000808311801561374d575060015483105b61378c576040517f08c379a000000000000000000000000000000000000000000000000000000000815260040161378390614a70565b60405180910390fd5b6000805b6003805490508110156137fc5784600382815481106137b2576137b1614717565b5b906000526020600020906006020160000154036137e9578382036137da578092505050613838565b81806137e590614a90565b9250505b80806137f490614a90565b915050613790565b506040517f08c379a000000000000000000000000000000000000000000000000000000000815260040161382f906152f4565b60405180910390fd5b92915050565b604051806101400160405280600081526020016060815260200160608152602001606081526020016060815260200160008152602001606081526020016060815260200160608152602001600073ffffffffffffffffffffffffffffffffffffffff1681525090565b6000604051905090565b600080fd5b600080fd5b6000819050919050565b6138ce816138bb565b81146138d957600080fd5b50565b6000813590506138eb816138c5565b92915050565b600080fd5b600080fd5b6000601f19601f8301169050919050565b7f4e487b7100000000000000000000000000000000000000000000000000000000600052604160045260246000fd5b613944826138fb565b810181811067ffffffffffffffff821117156139635761396261390c565b5b80604052505050565b60006139766138a7565b9050613982828261393b565b919050565b600067ffffffffffffffff8211156139a2576139a161390c565b5b6139ab826138fb565b9050602081019050919050565b82818337600083830152505050565b60006139da6139d584613987565b61396c565b9050828152602081018484840111156139f6576139f56138f6565b5b613a018482856139b8565b509392505050565b600082601f830112613a1e57613a1d6138f1565b5b8135613a2e8482602086016139c7565b91505092915050565b600080600060608486031215613a5057613a4f6138b1565b5b6000613a5e868287016138dc565b935050602084013567ffffffffffffffff811115613a7f57613a7e6138b6565b5b613a8b86828701613a09565b9250506040613a9c868287016138dc565b9150509250925092565b600060208284031215613abc57613abb6138b1565b5b6000613aca848285016138dc565b91505092915050565b613adc816138bb565b82525050565b6000602082019050613af76000830184613ad3565b92915050565b600073ffffffffffffffffffffffffffffffffffffffff82169050919050565b6000613b2882613afd565b9050919050565b613b3881613b1d565b8114613b4357600080fd5b50565b600081359050613b5581613b2f565b92915050565b600080600060608486031215613b7457613b736138b1565b5b6000613b82868287016138dc565b9350506020613b9386828701613b46565b925050604084013567ffffffffffffffff811115613bb457613bb36138b6565b5b613bc086828701613a09565b9150509250925092565b613bd381613b1d565b82525050565b600081519050919050565b600082825260208201905092915050565b60005b83811015613c13578082015181840152602081019050613bf8565b60008484015250505050565b6000613c2a82613bd9565b613c348185613be4565b9350613c44818560208601613bf5565b613c4d816138fb565b840191505092915050565b6000608082019050613c6d6000830187613ad3565b613c7a6020830186613bca565b613c876040830185613ad3565b8181036060830152613c998184613c1f565b905095945050505050565b600060c082019050613cb96000830189613ad3565b8181036020830152613ccb8188613c1f565b90508181036040830152613cdf8187613c1f565b9050613cee6060830186613ad3565b613cfb6080830185613ad3565b613d0860a0830184613bca565b979650505050505050565b6000602082019050613d286000830184613bca565b92915050565b600060c082019050613d436000830189613ad3565b8181036020830152613d558188613c1f565b90508181036040830152613d698187613c1f565b90508181036060830152613d7d8186613c1f565b9050613d8c6080830185613ad3565b613d9960a0830184613ad3565b979650505050505050565b600081519050919050565b600082825260208201905092915050565b6000819050602082019050919050565b613dd9816138bb565b82525050565b600082825260208201905092915050565b6000613dfb82613bd9565b613e058185613ddf565b9350613e15818560208601613bf5565b613e1e816138fb565b840191505092915050565b613e3281613b1d565b82525050565b600061014083016000830151613e516000860182613dd0565b5060208301518482036020860152613e698282613df0565b91505060408301518482036040860152613e838282613df0565b91505060608301518482036060860152613e9d8282613df0565b91505060808301518482036080860152613eb78282613df0565b91505060a0830151613ecc60a0860182613dd0565b5060c083015184820360c0860152613ee48282613df0565b91505060e083015184820360e0860152613efe8282613df0565b915050610100830151848203610100860152613f1a8282613df0565b915050610120830151613f31610120860182613e29565b508091505092915050565b6000613f488383613e38565b905092915050565b6000602082019050919050565b6000613f6882613da4565b613f728185613daf565b935083602082028501613f8485613dc0565b8060005b85811015613fc05784840389528151613fa18582613f3c565b9450613fac83613f50565b925060208a01995050600181019050613f88565b50829750879550505050505092915050565b60006020820190508181036000830152613fec8184613f5d565b905092915050565b600080600080600080600060e0888a031215614013576140126138b1565b5b600088013567ffffffffffffffff811115614031576140306138b6565b5b61403d8a828b01613a09565b975050602088013567ffffffffffffffff81111561405e5761405d6138b6565b5b61406a8a828b01613a09565b965050604088013567ffffffffffffffff81111561408b5761408a6138b6565b5b6140978a828b01613a09565b955050606088013567ffffffffffffffff8111156140b8576140b76138b6565b5b6140c48a828b01613a09565b94505060806140d58a828b016138dc565b93505060a088013567ffffffffffffffff8111156140f6576140f56138b6565b5b6141028a828b01613a09565b92505060c088013567ffffffffffffffff811115614123576141226138b6565b5b61412f8a828b01613a09565b91505092959891949750929550565b600080600080600080600080610100898b03121561415f5761415e6138b1565b5b600061416d8b828c016138dc565b985050602089013567ffffffffffffffff81111561418e5761418d6138b6565b5b61419a8b828c01613a09565b975050604089013567ffffffffffffffff8111156141bb576141ba6138b6565b5b6141c78b828c01613a09565b965050606089013567ffffffffffffffff8111156141e8576141e76138b6565b5b6141f48b828c01613a09565b955050608089013567ffffffffffffffff811115614215576142146138b6565b5b6142218b828c01613a09565b94505060a06142328b828c016138dc565b93505060c089013567ffffffffffffffff811115614253576142526138b6565b5b61425f8b828c01613a09565b92505060e089013567ffffffffffffffff8111156142805761427f6138b6565b5b61428c8b828c01613a09565b9150509295985092959890939650565b6000602082840312156142b2576142b16138b1565b5b60006142c084828501613b46565b91505092915050565b6000602082840312156142df576142de6138b1565b5b600082013567ffffffffffffffff8111156142fd576142fc6138b6565b5b61430984828501613a09565b91505092915050565b60008060006060848603121561432b5761432a6138b1565b5b6000614339868287016138dc565b935050602084013567ffffffffffffffff81111561435a576143596138b6565b5b61436686828701613a09565b925050604084013567ffffffffffffffff811115614387576143866138b6565b5b61439386828701613a09565b9150509250925092565b6000610140830160008301516143b66000860182613dd0565b50602083015184820360208601526143ce8282613df0565b915050604083015184820360408601526143e88282613df0565b915050606083015184820360608601526144028282613df0565b9150506080830151848203608086015261441c8282613df0565b91505060a083015161443160a0860182613dd0565b5060c083015184820360c08601526144498282613df0565b91505060e083015184820360e08601526144638282613df0565b91505061010083015184820361010086015261447f8282613df0565b915050610120830151614496610120860182613e29565b508091505092915050565b600060208201905081810360008301526144bb818461439d565b905092915050565b6000610140820190506144d9600083018d613ad3565b81810360208301526144eb818c613c1f565b905081810360408301526144ff818b613c1f565b90508181036060830152614513818a613c1f565b905081810360808301526145278189613c1f565b905061453660a0830188613ad3565b81810360c08301526145488187613c1f565b905081810360e083015261455c8186613c1f565b90508181036101008301526145718185613c1f565b9050614581610120830184613bca565b9b9a5050505050505050505050565b600080604083850312156145a7576145a66138b1565b5b600083013567ffffffffffffffff8111156145c5576145c46138b6565b5b6145d185828601613a09565b925050602083013567ffffffffffffffff8111156145f2576145f16138b6565b5b6145fe85828601613a09565b9150509250929050565b6000806040838503121561461f5761461e6138b1565b5b600061462d858286016138dc565b925050602061463e858286016138dc565b9150509250929050565b7f5265717565737420646f6573206e6f7420657869737400000000000000000000600082015250565b600061467e601683613be4565b915061468982614648565b602082019050919050565b600060208201905081810360008301526146ad81614671565b9050919050565b7f4e487b7100000000000000000000000000000000000000000000000000000000600052601160045260246000fd5b60006146ee826138bb565b91506146f9836138bb565b9250828203905081811115614711576147106146b4565b5b92915050565b7f4e487b7100000000000000000000000000000000000000000000000000000000600052603260045260246000fd5b7f4e487b7100000000000000000000000000000000000000000000000000000000600052602260045260246000fd5b6000600282049050600182168061478d57607f821691505b6020821081036147a05761479f614746565b5b50919050565b60008190508160005260206000209050919050565b60006020601f8301049050919050565b600082821b905092915050565b6000600883026148087fffffffffffffffffffffffffffffffffffffffffffffffffffffffffffffffff826147cb565b61481286836147cb565b95508019841693508086168417925050509392505050565b6000819050919050565b600061484f61484a614845846138bb565b61482a565b6138bb565b9050919050565b6000819050919050565b61486983614834565b61487d61487582614856565b8484546147d8565b825550505050565b600090565b614892614885565b61489d818484614860565b505050565b5b818110156148c1576148b660008261488a565b6001810190506148a3565b5050565b601f821115614906576148d7816147a6565b6148e0846147bb565b810160208510156148ef578190505b6149036148fb856147bb565b8301826148a2565b50505b505050565b600082821c905092915050565b60006149296000198460080261490b565b1980831691505092915050565b60006149428383614918565b9150826002028217905092915050565b61495b82613bd9565b67ffffffffffffffff8111156149745761497361390c565b5b61497e8254614775565b6149898282856148c5565b600060209050601f8311600181146149bc57600084156149aa578287015190505b6149b48582614936565b865550614a1c565b601f1984166149ca866147a6565b60005b828110156149f2578489015182556001820191506020850194506020810190506149cd565b86831015614a0f5784890151614a0b601f891682614918565b8355505b6001600288020188555050505b505050505050565b7f50657420646f6573206e6f742065786973740000000000000000000000000000600082015250565b6000614a5a601283613be4565b9150614a6582614a24565b602082019050919050565b60006020820190508181036000830152614a8981614a4d565b9050919050565b6000614a9b826138bb565b91507fffffffffffffffffffffffffffffffffffffffffffffffffffffffffffffffff8203614acd57614acc6146b4565b5b600182019050919050565b60008115159050919050565b614aed81614ad8565b8114614af857600080fd5b50565b600081519050614b0a81614ae4565b92915050565b600060208284031215614b2657614b256138b1565b5b6000614b3484828501614afb565b91505092915050565b7f55736572206e6f74207265676973746572656400000000000000000000000000600082015250565b6000614b73601383613be4565b9150614b7e82614b3d565b602082019050919050565b60006020820190508181036000830152614ba281614b66565b9050919050565b600081519050614bb8816138c5565b92915050565b6000614bd1614bcc84613987565b61396c565b905082815260208101848484011115614bed57614bec6138f6565b5b614bf8848285613bf5565b509392505050565b600082601f830112614c1557614c146138f1565b5b8151614c25848260208601614bbe565b91505092915050565b600081519050614c3d81613b2f565b92915050565b60028110614c5057600080fd5b50565b600081519050614c6281614c43565b92915050565b60028110614c7557600080fd5b50565b600081519050614c8781614c68565b92915050565b60048110614c9a57600080fd5b50565b600081519050614cac81614c8d565b92915050565b6000806000806000806000806000806101408b8d031215614cd657614cd56138b1565b5b6000614ce48d828e01614ba9565b9a505060208b015167ffffffffffffffff811115614d0557614d046138b6565b5b614d118d828e01614c00565b99505060408b015167ffffffffffffffff811115614d3257614d316138b6565b5b614d3e8d828e01614c00565b98505060608b015167ffffffffffffffff811115614d5f57614d5e6138b6565b5b614d6b8d828e01614c00565b9750506080614d7c8d828e01614c2e565b96505060a0614d8d8d828e01614c53565b95505060c0614d9e8d828e01614ba9565b94505060e08b015167ffffffffffffffff811115614dbf57614dbe6138b6565b5b614dcb8d828e01614c00565b935050610100614ddd8d828e01614c78565b925050610120614def8d828e01614c9d565b9150509295989b9194979a5092959850565b7f4e487b7100000000000000000000000000000000000000000000000000000000600052602160045260246000fd5b7f4f6e6c792061646d696e206f7220686f73706974616c2073746166662063616e60008201527f207669657720616c6c2070657473000000000000000000000000000000000000602082015250565b6000614e8c602e83613be4565b9150614e9782614e30565b604082019050919050565b60006020820190508181036000830152614ebb81614e7f565b9050919050565b7f4e6f742074686520706574206f776e6572000000000000000000000000000000600082015250565b6000614ef8601183613be4565b9150614f0382614ec2565b602082019050919050565b60006020820190508181036000830152614f2781614eeb565b9050919050565b600060208284031215614f4457614f436138b1565b5b6000614f5284828501614ba9565b91505092915050565b7f43616c6c6572206973206e6f742061207374616666206d656d626572206f662060008201527f616e7920696e737469747574696f6e0000000000000000000000000000000000602082015250565b6000614fb7602f83613be4565b9150614fc282614f5b565b604082019050919050565b60006020820190508181036000830152614fe681614faa565b9050919050565b600080600080600060a08688031215615009576150086138b1565b5b600061501788828901614ba9565b955050602086015167ffffffffffffffff811115615038576150376138b6565b5b61504488828901614c00565b945050604061505588828901614c78565b935050606061506688828901614c2e565b925050608061507788828901614c2e565b9150509295509295909350565b7f43616c6c6572277320696e737469747574696f6e206973206e6f74206120686f60008201527f73706974616c0000000000000000000000000000000000000000000000000000602082015250565b60006150e0602683613be4565b91506150eb82615084565b604082019050919050565b6000602082019050818103600083015261510f816150d3565b9050919050565b600081905092915050565b60008190508160005260206000209050919050565b6000815461514381614775565b61514d8186615116565b94506001821660008114615168576001811461517d576151b0565b60ff19831686528115158202860193506151b0565b61518685615121565b60005b838110156151a857815481890152600182019150602081019050615189565b838801955050505b50505092915050565b60006151c58284615136565b915081905092915050565b7f446961676e6f7369732063616e6e6f7420626520656d70747900000000000000600082015250565b6000615206601983613be4565b9150615211826151d0565b602082019050919050565b60006020820190508181036000830152615235816151f9565b9050919050565b7f54726561746d656e742063616e6e6f7420626520656d70747900000000000000600082015250565b6000615272601983613be4565b915061527d8261523c565b602082019050919050565b600060208201905081810360008301526152a181615265565b9050919050565b7f496e646578206f7574206f6620626f756e647300000000000000000000000000600082015250565b60006152de601383613be4565b91506152e9826152a8565b602082019050919050565b6000602082019050818103600083015261530d816152d1565b905091905056fea2646970667358221220c7a37130f54637769d5c299f75ba54e0cadc710414fc8467763160e09bff7cfc64736f6c63430008130033",
  "linkReferences": {},
  "deployedLinkReferences": {}
}