{
  "_format": "hh-sol-artifact-1",
  "contractName": "UserManager",
  "sourceName": "contracts/UserManager.sol",
  "abi": [
    {
      "inputs": [
        {
          "internalType": "address",
          "name": "_institutionManagerAddress",
          "type": "address"
        }
      ],
      "stateMutability": "nonpayable",
      "type": "constructor"
    },
    {
      "inputs": [
        {
          "internalType": "address",
          "name": "_user",
          "type": "address"
        },
        {
          "internalType": "uint256",
          "name": "_petId",
          "type": "uint256"
        }
      ],
      "name": "addPetToUser",
      "outputs": [],
      "stateMutability": "nonpayable",
      "type": "function"
    },
    {
      "inputs": [
        {
          "internalType": "address",
          "name": "_user",
          "type": "address"
        }
      ],
      "name": "checkUserIsRegistered",
      "outputs": [
        {
          "internalType": "bool",
          "name": "",
          "type": "bool"
        }
      ],
      "stateMutability": "view",
      "type": "function"
    },
    {
      "inputs": [],
      "name": "deployer",
      "outputs": [
        {
          "internalType": "address",
          "name": "",
          "type": "address"
        }
      ],
      "stateMutability": "view",
      "type": "function"
    },
    {
      "inputs": [],
      "name": "getAllUsers",
      "outputs": [
        {
          "components": [
            {
              "internalType": "string",
              "name": "name",
              "type": "string"
            },
            {
              "internalType": "string",
              "name": "email",
              "type": "string"
            },
            {
              "internalType": "string",
              "name": "phone",
              "type": "string"
            },
            {
              "internalType": "address",
              "name": "wallet",
              "type": "address"
            },
            {
              "internalType": "enum IMyPetBase.UserType",
              "name": "userType",
              "type": "uint8"
            },
            {
              "internalType": "uint256",
              "name": "orgId",
              "type": "uint256"
            },
            {
              "internalType": "bool",
              "name": "isProfileSet",
              "type": "bool"
            },
            {
              "internalType": "enum IMyPetBase.RoleType",
              "name": "roleId",
              "type": "uint8"
            },
            {
              "internalType": "uint256[]",
              "name": "petIds",
              "type": "uint256[]"
            },
            {
              "internalType": "uint256",
              "name": "registeredAt",
              "type": "uint256"
            },
            {
              "internalType": "string",
              "name": "avatar",
              "type": "string"
            }
          ],
          "internalType": "struct IMyPetBase.User[]",
          "name": "",
          "type": "tuple[]"
        }
      ],
      "stateMutability": "view",
      "type": "function"
    },
    {
      "inputs": [
        {
          "internalType": "address",
          "name": "_user",
          "type": "address"
        }
      ],
      "name": "getUserInfo",
      "outputs": [
        {
          "internalType": "uint256",
          "name": "id",
          "type": "uint256"
        },
        {
          "internalType": "string",
          "name": "name",
          "type": "string"
        },
        {
          "internalType": "string",
          "name": "email",
          "type": "string"
        },
        {
          "internalType": "string",
          "name": "phone",
          "type": "string"
        },
        {
          "internalType": "address",
          "name": "wallet",
          "type": "address"
        },
        {
          "internalType": "enum IMyPetBase.UserType",
          "name": "userType",
          "type": "uint8"
        },
        {
          "internalType": "uint256",
          "name": "orgId",
          "type": "uint256"
        },
        {
          "internalType": "string",
          "name": "orgName",
          "type": "string"
        },
        {
          "internalType": "enum IMyPetBase.InstitutionType",
          "name": "orgType",
          "type": "uint8"
        },
        {
          "internalType": "enum IMyPetBase.RoleType",
          "name": "roleId",
          "type": "uint8"
        },
        {
          "internalType": "uint256",
          "name": "registeredAt",
          "type": "uint256"
        },
        {
          "internalType": "string",
          "name": "avatar",
          "type": "string"
        }
      ],
      "stateMutability": "view",
      "type": "function"
    },
    {
      "inputs": [
        {
          "internalType": "address",
          "name": "_user",
          "type": "address"
        }
      ],
      "name": "getUserPetIds",
      "outputs": [
        {
          "internalType": "uint256[]",
          "name": "",
          "type": "uint256[]"
        }
      ],
      "stateMutability": "view",
      "type": "function"
    },
    {
      "inputs": [
        {
          "internalType": "uint256",
          "name": "_orgId",
          "type": "uint256"
        }
      ],
      "name": "getUsersByInstitution",
      "outputs": [
        {
          "components": [
            {
              "internalType": "string",
              "name": "name",
              "type": "string"
            },
            {
              "internalType": "string",
              "name": "email",
              "type": "string"
            },
            {
              "internalType": "string",
              "name": "phone",
              "type": "string"
            },
            {
              "internalType": "address",
              "name": "wallet",
              "type": "address"
            },
            {
              "internalType": "enum IMyPetBase.UserType",
              "name": "userType",
              "type": "uint8"
            },
            {
              "internalType": "uint256",
              "name": "orgId",
              "type": "uint256"
            },
            {
              "internalType": "bool",
              "name": "isProfileSet",
              "type": "bool"
            },
            {
              "internalType": "enum IMyPetBase.RoleType",
              "name": "roleId",
              "type": "uint8"
            },
            {
              "internalType": "uint256[]",
              "name": "petIds",
              "type": "uint256[]"
            },
            {
              "internalType": "uint256",
              "name": "registeredAt",
              "type": "uint256"
            },
            {
              "internalType": "string",
              "name": "avatar",
              "type": "string"
            }
          ],
          "internalType": "struct IMyPetBase.User[]",
          "name": "",
          "type": "tuple[]"
        }
      ],
      "stateMutability": "view",
      "type": "function"
    },
    {
      "inputs": [
        {
          "internalType": "enum IMyPetBase.RoleType",
          "name": "_roleId",
          "type": "uint8"
        }
      ],
      "name": "getUsersByRole",
      "outputs": [
        {
          "components": [
            {
              "internalType": "string",
              "name": "name",
              "type": "string"
            },
            {
              "internalType": "string",
              "name": "email",
              "type": "string"
            },
            {
              "internalType": "string",
              "name": "phone",
              "type": "string"
            },
            {
              "internalType": "address",
              "name": "wallet",
              "type": "address"
            },
            {
              "internalType": "enum IMyPetBase.UserType",
              "name": "userType",
              "type": "uint8"
            },
            {
              "internalType": "uint256",
              "name": "orgId",
              "type": "uint256"
            },
            {
              "internalType": "bool",
              "name": "isProfileSet",
              "type": "bool"
            },
            {
              "internalType": "enum IMyPetBase.RoleType",
              "name": "roleId",
              "type": "uint8"
            },
            {
              "internalType": "uint256[]",
              "name": "petIds",
              "type": "uint256[]"
            },
            {
              "internalType": "uint256",
              "name": "registeredAt",
              "type": "uint256"
            },
            {
              "internalType": "string",
              "name": "avatar",
              "type": "string"
            }
          ],
          "internalType": "struct IMyPetBase.User[]",
          "name": "",
          "type": "tuple[]"
        }
      ],
      "stateMutability": "view",
      "type": "function"
    },
    {
      "inputs": [],
      "name": "institutionManagerAddress",
      "outputs": [
        {
          "internalType": "address",
          "name": "",
          "type": "address"
        }
      ],
      "stateMutability": "view",
      "type": "function"
    },
    {
      "inputs": [
        {
          "internalType": "address",
          "name": "_user",
          "type": "address"
        }
      ],
      "name": "isUserInInstitutionStaffList",
      "outputs": [
        {
          "internalType": "bool",
          "name": "",
          "type": "bool"
        }
      ],
      "stateMutability": "view",
      "type": "function"
    },
    {
      "inputs": [
        {
          "internalType": "address",
          "name": "_user",
          "type": "address"
        },
        {
          "internalType": "uint256",
          "name": "_petId",
          "type": "uint256"
        }
      ],
      "name": "removePetFromUser",
      "outputs": [],
      "stateMutability": "nonpayable",
      "type": "function"
    },
    {
      "inputs": [
        {
          "internalType": "string",
          "name": "_name",
          "type": "string"
        },
        {
          "internalType": "string",
          "name": "_email",
          "type": "string"
        },
        {
          "internalType": "string",
          "name": "_phone",
          "type": "string"
        },
        {
          "internalType": "enum IMyPetBase.UserType",
          "name": "_userType",
          "type": "uint8"
        },
        {
          "internalType": "uint256",
          "name": "_orgId",
          "type": "uint256"
        },
        {
          "internalType": "string",
          "name": "_avatar",
          "type": "string"
        }
      ],
      "name": "setUserProfile",
      "outputs": [],
      "stateMutability": "nonpayable",
      "type": "function"
    },
    {
      "inputs": [
        {
          "internalType": "address",
          "name": "_user",
          "type": "address"
        },
        {
          "internalType": "enum IMyPetBase.RoleType",
          "name": "_roleId",
          "type": "uint8"
        }
      ],
      "name": "updateUserRole",
      "outputs": [],
      "stateMutability": "nonpayable",
      "type": "function"
    },
    {
      "inputs": [],
      "name": "userIdCounter",
      "outputs": [
        {
          "internalType": "uint256",
          "name": "",
          "type": "uint256"
        }
      ],
      "stateMutability": "view",
      "type": "function"
    },
    {
      "inputs": [
        {
          "internalType": "address",
          "name": "",
          "type": "address"
        }
      ],
      "name": "userIds",
      "outputs": [
        {
          "internalType": "uint256",
          "name": "",
          "type": "uint256"
        }
      ],
      "stateMutability": "view",
      "type": "function"
    },
    {
      "inputs": [
        {
          "internalType": "uint256",
          "name": "",
          "type": "uint256"
        }
      ],
      "name": "users",
      "outputs": [
        {
          "internalType": "string",
          "name": "name",
          "type": "string"
        },
        {
          "internalType": "string",
          "name": "email",
          "type": "string"
        },
        {
          "internalType": "string",
          "name": "phone",
          "type": "string"
        },
        {
          "internalType": "address",
          "name": "wallet",
          "type": "address"
        },
        {
          "internalType": "enum IMyPetBase.UserType",
          "name": "userType",
          "type": "uint8"
        },
        {
          "internalType": "uint256",
          "name": "orgId",
          "type": "uint256"
        },
        {
          "internalType": "bool",
          "name": "isProfileSet",
          "type": "bool"
        },
        {
          "internalType": "enum IMyPetBase.RoleType",
          "name": "roleId",
          "type": "uint8"
        },
        {
          "internalType": "uint256",
          "name": "registeredAt",
          "type": "uint256"
        },
        {
          "internalType": "string",
          "name": "avatar",
          "type": "string"
        }
      ],
      "stateMutability": "view",
      "type": "function"
    }
  ],
  "bytecode": "0x60a0346100fb57601f61255638819003918201601f19168301916001600160401b03831184841017610100578084926020946040528339810103126100fb57516001600160a01b0381168082036100fb576001600255156100aa57608052600380546001600160a01b0319163317905560405161243f908161011782396080518181816105c3015281816107160152818161082a015281816112590152818161163501526120b30152f35b60405162461bcd60e51b815260206004820152602360248201527f496e76616c696420696e737469747574696f6e206d616e61676572206164647260448201526265737360e81b6064820152608490fd5b600080fd5b634e487b7160e01b600052604160045260246000fdfe604060808152600436101561001357600080fd5b60003560e01c80630a86fdff146118a757806323b1ddc6146117f15780632640d5ea146115fb5780632faba6ae146115dc578063365b98b2146114d45780633913a679146114af5780634081db511461147657806342dd0779146107455780635c828f37146107015780636386c1c7146104d2578063c291fe62146103d8578063d5f39488146103af578063ddb7a4de14610223578063e2842d791461013d578063eac50f6b146100f75763f2658413146100cd57600080fd5b346100f2573660031901126100f2576100f06100e7611a00565b6024359061216e565b005b600080fd5b50346100f25760203660031901126100f257602090610134610117611a00565b6001600160a01b0316600090815260208190526040902054151590565b90519015158152f35b50346100f25760003660031901126100f2576003546001600160a01b031633036101e05760019081549061017082611e0c565b9161017d82519384611c8a565b808352600084815260207fb10e2d527612073b26eecdfd717e6a320cf44b4afac2b0732d9fcbe2b7fa0cf68186015b8484106101c4578551806101c08982611a75565b0390f35b60098389926101d285612294565b8152019201930192906101ac565b5162461bcd60e51b815260206004820181905260248201527f4f6e6c79206465706c6f7965722063616e207669657720616c6c2075736572736044820152606490fd5b50346100f25760203660031901126100f257600435600481101591826100f2576003546001600160a01b03163303610360576001546000805b828110610313575061026d90612358565b9260009060005b838110610288578451806101c08882611a75565b8660ff600561029684611bc8565b50015460081c16906102fd5760048110156102fd5782146102c0575b6102bb90611fbb565b610274565b916102f56102bb916102da6102d486611bc8565b50612294565b6102e4828a6123f5565b526102ef81896123f5565b50611fbb565b9290506102b2565b634e487b7160e01b600052602160045260246000fd5b8560ff600561032184611bc8565b50015460081c16906102fd5760048110156102fd57851461034b575b61034690611fbb565b61025c565b9061035861034691611fbb565b91905061033d565b5162461bcd60e51b8152602060048201526024808201527f4f6e6c79206465706c6f7965722063616e207669657720757365727320627920604482015263726f6c6560e01b6064820152608490fd5b50346100f25760003660031901126100f25760035490516001600160a01b039091168152602090f35b50346100f257806003193601126100f2576103f1611a00565b906024359160048310156100f2576003546001600160a01b03919082163303610482576001600160a01b03811660009081526020819052604090205461043d901515611fca565b611fca565b1660005260006020526000205490600019820191821161046c5760056104656100f093611bc8565b5001611f9c565b634e487b7160e01b600052601160045260246000fd5b825162461bcd60e51b815260206004820152602360248201527f4f6e6c79206465706c6f7965722063616e20757064617465207573657220726f6044820152626c657360e81b6064820152608490fd5b50346100f25760203660031901126100f2576104ec611a00565b6001600160a01b038116600090815260208190526040902054610510901515611fca565b6001600160a01b03908116600090815260208190528290205490600019820182811161046c5761053f90611bc8565b509261054a84611cab565b9361055760018201611cab565b9261056460028301611cab565b93600383015460ff8160a01c1660048501549060058601549461058e600860078901549801611cab565b9861059883611a5e565b60018314806106f8575b156106e0578851630418ed2160e21b815260048101859052956000876024817f000000000000000000000000000000000000000000000000000000000000000087165afa9687156106d5576000976106b0575b5089602088015197015161060881611a5e565b995b8051809e819e8252610180806020840152820161062691611a39565b9181830391015261063691611a39565b8b810360608d015261064791611a39565b931660808a015261065781611a5e565b60a089015260c088015286810360e088015261067291611a39565b9261067c81611a5e565b61010086015261012085019060081c60ff169061069891611a68565b6101408401528281036101608401526101c091611a39565b6106ce9197503d806000833e6106c68183611c8a565b810190611e23565b95386105f5565b8a513d6000823e3d90fd5b88516106eb81611c6f565b600081529560009961060a565b508315156105a2565b50346100f25760003660031901126100f257517f00000000000000000000000000000000000000000000000000000000000000006001600160a01b03168152602090f35b50346100f25760c03660031901126100f2576004356001600160401b0381116100f257610776903690600401611d6c565b6024356001600160401b0381116100f257610795903690600401611d6c565b906044356001600160401b0381116100f2576107b5903690600401611d6c565b91600260643510156100f25760a4356001600160401b0381116100f2576107e0903690600401611d6c565b336000908152602081905260409020549093901591610800606435611a5e565b60643560011480156114055760843580156113a35787516306eee7b360e41b8152906020826004817f00000000000000000000000000000000000000000000000000000000000000006001600160a01b03165afa91821561139857600092611365575b5010156113135786905b6003546001600160a01b0391903390831603611224575050506000925b15610de057600254336000526000602052866000205560015495600160401b871015610b8a5760018701806001556108c188611bc8565b5050871161046c576108e19051966108d888611c6f565b60008852611bc8565b50938051906001600160401b038211610b8a5781906109008754611c19565b601f8111610dae575b50602090601f8311600114610d4257600092610d37575b50508160011b916000199060031b1c19161784555b8051906001600160401b038211610b8a5781906109556001870154611c19565b601f8111610d02575b50602090601f8311600114610c9057600092610c85575b50508160011b916000199060031b1c19161760018401555b8051906001600160401b038211610b8a576109ab6002850154611c19565b601f8111610c50575b50602090601f8311600114610bdc57610a2793929160009183610bd1575b50508160011b916000199060031b1c19161760028401555b6003830180546001600160a01b03191633178155610a0b9060643590611f78565b608435600484015560058301805460ff19166001178155611f9c565b825160068201936001600160401b038211610b8a57600160401b8211610b8a576020908554838755808410610bb4575b500193600052602060002060005b828110610ba05750505060089192504260078201550181516001600160401b038111610b8a57610a958254611c19565b601f8111610b4d575b50602092601f8211600114610ae95792819293600092610ade575b50508160011b916000199060031b1c19161790555b610ad9600254611fbb565b600255005b015190503880610ab9565b601f198216938360005260206000209160005b868110610b355750836001959610610b1c575b505050811b019055610ace565b015160001960f88460031b161c19169055388080610b0f565b91926020600181928685015181550194019201610afc565b610b7a90836000526020600020601f840160051c81019160208510610b80575b601f0160051c0190611f61565b38610a9e565b9091508190610b6d565b634e487b7160e01b600052604160045260246000fd5b600190602087519701968184015501610a65565b610bcb908760005284846000209182019101611f61565b38610a57565b0151905038806109d2565b906002850160005260206000209160005b601f1985168110610c385750918391600193610a279695601f19811610610c1f575b505050811b0160028401556109ea565b015160001960f88460031b161c19169055388080610c0f565b91926020600181928685015181550194019201610bed565b610c7f90600286016000526020600020601f850160051c81019160208610610b8057601f0160051c0190611f61565b386109b4565b015190503880610975565b9250600186016000526020600020906000935b601f1984168510610ce7576001945083601f19811610610cce575b505050811b01600184015561098d565b015160001960f88460031b161c19169055388080610cbe565b81810151835560209485019460019093019290910190610ca3565b610d3190600188016000526020600020601f850160051c81019160208610610b8057601f0160051c0190611f61565b3861095e565b015190503880610920565b9250866000526020600020906000935b601f1984168510610d93576001945083601f19811610610d7a575b505050811b018455610935565b015160001960f88460031b161c19169055388080610d6d565b81810151835560209485019460019093019290910190610d52565b610dda90886000526020600020601f850160051c81019160208610610b8057601f0160051c0190611f61565b38610909565b909433600052600060205260002054600019810190811161046c57610e0490611bc8565b50928051906001600160401b038211610b8a578190610e238654611c19565b601f81116111f2575b50602090601f83116001146111865760009261117b575b50508160011b916000199060031b1c19161783555b8051906001600160401b038211610b8a578190610e786001860154611c19565b601f8111611146575b50602090601f83116001146110d4576000926110c9575b50508160011b916000199060031b1c19161760018301555b83516001600160401b038111610b8a57610ecd6002840154611c19565b601f8111611094575b506020601f821160011461101e579080610f1e939260089697600092611013575b50508160011b916000199060031b1c19161760028401555b610a0b60643560038501611f78565b0181516001600160401b038111610b8a57610f398254611c19565b601f8111610fe1575b50602092601f8211600114610f805792819293600092610f75575b5050600019600383901b1c191660019190911b179055005b015190503880610f5d565b601f198216938360005260206000209160005b868110610fc95750836001959610610fb0575b505050811b019055005b015160001960f88460031b161c19169055388080610fa6565b91926020600181928685015181550194019201610f93565b61100d90836000526020600020601f840160051c81019160208510610b8057601f0160051c0190611f61565b38610f42565b015190503880610ef7565b6002840160005260206000209560005b601f198416811061107c57509160089596600192610f1e959483601f19811610611063575b505050811b016002840155610f0f565b015160001960f88460031b161c19169055388080611053565b8282015188556001909701966020928301920161102e565b6110c390600285016000526020600020601f840160051c81019160208510610b8057601f0160051c0190611f61565b38610ed6565b015190503880610e98565b9250600185016000526020600020906000935b601f198416851061112b576001945083601f19811610611112575b505050811b016001830155610eb0565b015160001960f88460031b161c19169055388080611102565b818101518355602094850194600190930192909101906110e7565b61117590600187016000526020600020601f850160051c81019160208610610b8057601f0160051c0190611f61565b38610e81565b015190503880610e43565b9250856000526020600020906000935b601f19841685106111d7576001945083601f198116106111be575b505050811b018355610e58565b015160001960f88460031b161c191690553880806111b1565b81810151835560209485019460019093019290910190611196565b61121e90876000526020600020601f850160051c81019160208610610b8057601f0160051c0190611f61565b38610e2c565b61122f606435611a5e565b80611308575b156112fe576000602491835192838092630418ed2160e21b825260843560048301527f0000000000000000000000000000000000000000000000000000000000000000165afa9081156112f3576000916112d8575b5001805161129781611a5e565b6112a081611a5e565b6112ad575060029261088a565b600190516112ba81611a5e565b6112c381611a5e565b036112d05760039261088a565b60019261088a565b6112ed91503d806000833e6106c68183611c8a565b3861128a565b82513d6000823e3d90fd5b505060019261088a565b506084351515611235565b865162461bcd60e51b815260206004820152602560248201527f4173736f63696174656420696e737469747574696f6e20646f6573206e6f7420604482015264195e1a5cdd60da1b6064820152608490fd5b9091506020813d8211611390575b8161138060209383611c8a565b810103126100f257519038610863565b3d9150611373565b89513d6000823e3d90fd5b875162461bcd60e51b815260206004820152603560248201527f496e737469747574696f6e616c2075736572206d757374206173736f6369617460448201527432903bb4ba341030b71034b739ba34ba3aba34b7b760591b6064820152608490fd5b60843561141357869061086d565b865162461bcd60e51b815260206004820152603660248201527f506572736f6e616c20757365722073686f756c64206e6f74206173736f6369616044820152753a32903bb4ba341030b71034b739ba34ba3aba34b7b760511b6064820152608490fd5b50346100f25760203660031901126100f2576020906001600160a01b0361149b611a00565b166000526000825280600020549051908152f35b50346100f25760203660031901126100f2576020906101346114cf611a00565b61200c565b50346100f25760203660031901126100f2576004356001548110156100f2576101c061150261156f92611bc8565b509261150d84611cab565b61151960018601611cab565b946115c861152960028301611cab565b60038301549460ff8660a01c1661158a60048601549260058701549461157d611559600860078b01549a01611cab565b9983519e8f9e8f92610140808552840190611a39565b916020818403910152611a39565b918c8303908d0152611a39565b6001600160a01b0390971660608a01526115a381611a5e565b608089015260a088015260ff8116151560c088015260ff60e088019160081c16611a68565b610100850152838203610120850152611a39565b50346100f25760003660031901126100f2576020906002549051908152f35b50346100f25760203660031901126100f2578051630418ed2160e21b815260048035908201819052906001600160a01b03906000816024817f000000000000000000000000000000000000000000000000000000000000000086165afa9081156117e65782916060916000916117cb575b5001511633149081156117bd575b501561174057600154916000805b848110611708575061169990612358565b9160009060005b8581106116b4578351806101c08782611a75565b8160046116c083611bc8565b500154146116d7575b6116d290611fbb565b6116a0565b916117006116d2916116eb6102d486611bc8565b6116f582896123f5565b526102ef81886123f5565b9290506116c9565b83600461171483611bc8565b5001541461172b575b61172690611fbb565b611688565b9061173861172691611fbb565b91905061171d565b815162461bcd60e51b815260206004820152604a60248201527f4f6e6c7920696e737469747574696f6e20726573706f6e7369626c652070657260448201527f736f6e206f72206465706c6f7965722063616e207669657720696e737469747560648201526974696f6e20757365727360b01b608482015260a490fd5b90506003541633143861167a565b6117e091503d806000833e6106c68183611c8a565b3861166c565b84513d6000823e3d90fd5b50346100f257602090816003193601126100f25761180d611a00565b6001600160a01b038116600090815260208190526040902054611831901515611fca565b6001600160a01b0316600090815280835281902054600019810190811161046c57600661186061186792611bc8565b5001612245565b815192839281808501918186528451809352850193019160005b82811061189057505050500390f35b835185528695509381019392810192600101611881565b50346100f257806003193601126100f2576118c0611a00565b906024908135926118e96104388260018060a01b03166000526000602052604060002054151590565b6001600160a01b031660009081526020819052205460001991908281019081116119eb57916119188493611bc8565b506006019060005b8254808210156100f05785906119368386612156565b929054600393841b1c1461195457505061194f90611fbb565b611920565b909550828195939495019081116119d6579061198361197661199c9387612156565b905490881b1c9186612156565b90919082549060031b91821b91600019901b1916179055565b82549081156119c257508101926119b38484612156565b8154921b9290921b1916905555005b634e487b7160e01b60009081526031600452fd5b82634e487b7160e01b60005260116004526000fd5b50634e487b7160e01b60009081526011600452fd5b600435906001600160a01b03821682036100f257565b60005b838110611a295750506000910152565b8181015183820152602001611a19565b90602091611a5281518092818552858086019101611a16565b601f01601f1916010190565b600211156102fd57565b9060048210156102fd5752565b602080820190808352835180925260409283810182858560051b84010196019460009081935b868510611aad57505050505050505090565b9091929394959697603f1982820301855286895191611afb611aeb611adb8551610160808652850190611a39565b8486015184820386860152611a39565b8685015183820388850152611a39565b6060848101516001600160a01b03169083015260808085015191929190611b2182611a5e565b82015260a0808501519082015260c080850151151590820152611b4c60e08086015190830190611a68565b6101009182850151928282039083015283808451928381520193019088905b808210611bae575050508291600194611b9c9261012080830151908201526101408092015191818403910152611a39565b9a019501950193969594929190611a9b565b825185528c95948501949092019160019190910190611b6b565b600154811015611c03576009906001600052027fb10e2d527612073b26eecdfd717e6a320cf44b4afac2b0732d9fcbe2b7fa0cf60190600090565b634e487b7160e01b600052603260045260246000fd5b90600182811c92168015611c49575b6020831014611c3357565b634e487b7160e01b600052602260045260246000fd5b91607f1691611c28565b61016081019081106001600160401b03821117610b8a57604052565b602081019081106001600160401b03821117610b8a57604052565b90601f801991011681019081106001600160401b03821117610b8a57604052565b9060405191826000825492611cbf84611c19565b908184526001948581169081600014611d2e5750600114611ceb575b5050611ce992500383611c8a565b565b9093915060005260209081600020936000915b818310611d16575050611ce993508201013880611cdb565b85548884018501529485019487945091830191611cfe565b915050611ce994506020925060ff191682840152151560051b8201013880611cdb565b6001600160401b038111610b8a57601f01601f191660200190565b81601f820112156100f257803590611d8382611d51565b92611d916040519485611c8a565b828452602083830101116100f257816000926020809301838601378301015290565b81601f820112156100f2578051611dc981611d51565b92611dd76040519485611c8a565b818452602082840101116100f257611df59160208085019101611a16565b90565b51906001600160a01b03821682036100f257565b6001600160401b038111610b8a5760051b60200190565b60209182828203126100f25781516001600160401b03928382116100f25701916101009384848403126100f25760405194850185811083821117610b8a5760405283518552808401518281116100f25783611e7f918601611db3565b81860152604084015160028110156100f2576040860152611ea260608501611df8565b606086015260808401518281116100f25784019083601f830112156100f257815191611ecd83611e0c565b92611edb6040519485611c8a565b808452828085019160051b830101918683116100f2578301905b828210611f4a5750505050608085015260a083015160a085015260c08301518181116100f25782611f27918501611db3565b60c085015260e08301519081116100f257611f429201611db3565b60e082015290565b838091611f5684611df8565b815201910190611ef5565b818110611f6c575050565b60008155600101611f61565b90611f8281611a5e565b815460ff60a01b191660a09190911b60ff60a01b16179055565b9060048110156102fd5761ff0082549160081b169061ff001916179055565b600019811461046c5760010190565b15611fd157565b60405162461bcd60e51b8152602060048201526013602482015272155cd95c881b9bdd081c9959da5cdd195c9959606a1b6044820152606490fd5b6001600160a01b038116600090815260208190526040902054612030901515611fca565b6001600160a01b0390811660008181526020819052604081205490919060001981019081116121425761206290611bc8565b50600160ff600383015460a01c1661207981611a5e565b1480612135575b61208b575050905090565b9060446004602093015460405195869384926318078eb560e31b8452600484015260248301527f0000000000000000000000000000000000000000000000000000000000000000165afa9182156121285781926120e757505090565b9091506020813d8211612120575b8161210260209383611c8a565b8101031261211c5751908115158203612119575090565b80fd5b5080fd5b3d91506120f5565b50604051903d90823e3d90fd5b5060048101541515612080565b634e487b7160e01b83526011600452602483fd5b8054821015611c035760005260206000200190600090565b6001600160a01b038116600090815260208190526040902054612192901515611fca565b6001600160a01b03166000908152602081905260408120546000198101908111612231576121bf90611bc8565b50600601805491805b8381106122055750600160401b8310156121f1575081611983916001611ce99594018155612156565b634e487b7160e01b81526041600452602490fd5b846122108285612156565b90549060031b1c1461222a5761222590611fbb565b6121c8565b5050505050565b634e487b7160e01b82526011600452602482fd5b9060405191828154918282526020928383019160005283600020936000905b82821061227a57505050611ce992500383611c8a565b855484526001958601958895509381019390910190612264565b906040516122a181611c53565b80926122ac81611cab565b82526122ba60018201611cab565b60208301526122cb60028201611cab565b604083015260038101546001600160a01b038116606084015260a01c60ff166122f381611a5e565b6080830152600481015460a083015260ff6005820154818116151560c085015260081c169060048210156102fd576008612353916101409360e086015261233c60068201612245565b610100860152600781015461012086015201611cab565b910152565b9061236282611e0c565b60409061237182519182611c8a565b8381528093612382601f1991611e0c565b019160005b8381106123945750505050565b60209082516123a281611c53565b606080825283908082840152808684015260008184015260006080840152600060a0840152600060c0840152600060e0840152806101008401526000610120840152610140830152828601015201612387565b8051821015611c035760209160051b01019056fea2646970667358221220bdc73f5412d56dc4d9bbfc818232497cff76892e30b78313e16cb6d328993c5164736f6c63430008130033",
  "linkReferences": {},
  "deployedLinkReferences": {}
}