{
  "_format": "hh-sol-artifact-1",
  "contractName": "UserManager",
  "sourceName": "contracts/UserManager.sol",
  "abi": [
    {
      "inputs": [
        {
          "internalType": "address",
          "name": "_institutionManagerAddress",
          "type": "address"
        }
      ],
      "stateMutability": "nonpayable",
      "type": "constructor"
    },
    {
      "inputs": [
        {
          "internalType": "address",
          "name": "_user",
          "type": "address"
        },
        {
          "internalType": "uint256",
          "name": "_petId",
          "type": "uint256"
        }
      ],
      "name": "addPetToUser",
      "outputs": [],
      "stateMutability": "nonpayable",
      "type": "function"
    },
    {
      "inputs": [
        {
          "internalType": "address",
          "name": "_user",
          "type": "address"
        }
      ],
      "name": "checkUserIsRegistered",
      "outputs": [
        {
          "internalType": "bool",
          "name": "",
          "type": "bool"
        }
      ],
      "stateMutability": "view",
      "type": "function"
    },
    {
      "inputs": [],
      "name": "deployer",
      "outputs": [
        {
          "internalType": "address",
          "name": "",
          "type": "address"
        }
      ],
      "stateMutability": "view",
      "type": "function"
    },
    {
      "inputs": [],
      "name": "getAllUsers",
      "outputs": [
        {
          "components": [
            {
              "internalType": "string",
              "name": "name",
              "type": "string"
            },
            {
              "internalType": "string",
              "name": "email",
              "type": "string"
            },
            {
              "internalType": "string",
              "name": "phone",
              "type": "string"
            },
            {
              "internalType": "address",
              "name": "wallet",
              "type": "address"
            },
            {
              "internalType": "enum IMyPetBase.UserType",
              "name": "userType",
              "type": "uint8"
            },
            {
              "internalType": "uint256",
              "name": "orgId",
              "type": "uint256"
            },
            {
              "internalType": "bool",
              "name": "isProfileSet",
              "type": "bool"
            },
            {
              "internalType": "enum IMyPetBase.RoleType",
              "name": "roleId",
              "type": "uint8"
            },
            {
              "internalType": "uint256[]",
              "name": "petIds",
              "type": "uint256[]"
            },
            {
              "internalType": "uint256",
              "name": "registeredAt",
              "type": "uint256"
            },
            {
              "internalType": "string",
              "name": "avatar",
              "type": "string"
            }
          ],
          "internalType": "struct IMyPetBase.User[]",
          "name": "",
          "type": "tuple[]"
        }
      ],
      "stateMutability": "view",
      "type": "function"
    },
    {
      "inputs": [
        {
          "internalType": "address",
          "name": "_user",
          "type": "address"
        }
      ],
      "name": "getUserInfo",
      "outputs": [
        {
          "internalType": "uint256",
          "name": "id",
          "type": "uint256"
        },
        {
          "internalType": "string",
          "name": "name",
          "type": "string"
        },
        {
          "internalType": "string",
          "name": "email",
          "type": "string"
        },
        {
          "internalType": "string",
          "name": "phone",
          "type": "string"
        },
        {
          "internalType": "address",
          "name": "wallet",
          "type": "address"
        },
        {
          "internalType": "enum IMyPetBase.UserType",
          "name": "userType",
          "type": "uint8"
        },
        {
          "internalType": "uint256",
          "name": "orgId",
          "type": "uint256"
        },
        {
          "internalType": "string",
          "name": "orgName",
          "type": "string"
        },
        {
          "internalType": "enum IMyPetBase.InstitutionType",
          "name": "orgType",
          "type": "uint8"
        },
        {
          "internalType": "enum IMyPetBase.RoleType",
          "name": "roleId",
          "type": "uint8"
        },
        {
          "internalType": "uint256",
          "name": "registeredAt",
          "type": "uint256"
        },
        {
          "internalType": "string",
          "name": "avatar",
          "type": "string"
        }
      ],
      "stateMutability": "view",
      "type": "function"
    },
    {
      "inputs": [
        {
          "internalType": "address",
          "name": "_user",
          "type": "address"
        }
      ],
      "name": "getUserPetIds",
      "outputs": [
        {
          "internalType": "uint256[]",
          "name": "",
          "type": "uint256[]"
        }
      ],
      "stateMutability": "view",
      "type": "function"
    },
    {
      "inputs": [
        {
          "internalType": "uint256",
          "name": "_orgId",
          "type": "uint256"
        }
      ],
      "name": "getUsersByInstitution",
      "outputs": [
        {
          "components": [
            {
              "internalType": "string",
              "name": "name",
              "type": "string"
            },
            {
              "internalType": "string",
              "name": "email",
              "type": "string"
            },
            {
              "internalType": "string",
              "name": "phone",
              "type": "string"
            },
            {
              "internalType": "address",
              "name": "wallet",
              "type": "address"
            },
            {
              "internalType": "enum IMyPetBase.UserType",
              "name": "userType",
              "type": "uint8"
            },
            {
              "internalType": "uint256",
              "name": "orgId",
              "type": "uint256"
            },
            {
              "internalType": "bool",
              "name": "isProfileSet",
              "type": "bool"
            },
            {
              "internalType": "enum IMyPetBase.RoleType",
              "name": "roleId",
              "type": "uint8"
            },
            {
              "internalType": "uint256[]",
              "name": "petIds",
              "type": "uint256[]"
            },
            {
              "internalType": "uint256",
              "name": "registeredAt",
              "type": "uint256"
            },
            {
              "internalType": "string",
              "name": "avatar",
              "type": "string"
            }
          ],
          "internalType": "struct IMyPetBase.User[]",
          "name": "",
          "type": "tuple[]"
        }
      ],
      "stateMutability": "view",
      "type": "function"
    },
    {
      "inputs": [
        {
          "internalType": "enum IMyPetBase.RoleType",
          "name": "_roleId",
          "type": "uint8"
        }
      ],
      "name": "getUsersByRole",
      "outputs": [
        {
          "components": [
            {
              "internalType": "string",
              "name": "name",
              "type": "string"
            },
            {
              "internalType": "string",
              "name": "email",
              "type": "string"
            },
            {
              "internalType": "string",
              "name": "phone",
              "type": "string"
            },
            {
              "internalType": "address",
              "name": "wallet",
              "type": "address"
            },
            {
              "internalType": "enum IMyPetBase.UserType",
              "name": "userType",
              "type": "uint8"
            },
            {
              "internalType": "uint256",
              "name": "orgId",
              "type": "uint256"
            },
            {
              "internalType": "bool",
              "name": "isProfileSet",
              "type": "bool"
            },
            {
              "internalType": "enum IMyPetBase.RoleType",
              "name": "roleId",
              "type": "uint8"
            },
            {
              "internalType": "uint256[]",
              "name": "petIds",
              "type": "uint256[]"
            },
            {
              "internalType": "uint256",
              "name": "registeredAt",
              "type": "uint256"
            },
            {
              "internalType": "string",
              "name": "avatar",
              "type": "string"
            }
          ],
          "internalType": "struct IMyPetBase.User[]",
          "name": "",
          "type": "tuple[]"
        }
      ],
      "stateMutability": "view",
      "type": "function"
    },
    {
      "inputs": [],
      "name": "institutionManagerAddress",
      "outputs": [
        {
          "internalType": "address",
          "name": "",
          "type": "address"
        }
      ],
      "stateMutability": "view",
      "type": "function"
    },
    {
      "inputs": [
        {
          "internalType": "address",
          "name": "_user",
          "type": "address"
        },
        {
          "internalType": "uint256",
          "name": "_petId",
          "type": "uint256"
        }
      ],
      "name": "removePetFromUser",
      "outputs": [],
      "stateMutability": "nonpayable",
      "type": "function"
    },
    {
      "inputs": [
        {
          "internalType": "string",
          "name": "_name",
          "type": "string"
        },
        {
          "internalType": "string",
          "name": "_email",
          "type": "string"
        },
        {
          "internalType": "string",
          "name": "_phone",
          "type": "string"
        },
        {
          "internalType": "enum IMyPetBase.UserType",
          "name": "_userType",
          "type": "uint8"
        },
        {
          "internalType": "uint256",
          "name": "_orgId",
          "type": "uint256"
        },
        {
          "internalType": "string",
          "name": "_avatar",
          "type": "string"
        }
      ],
      "name": "setUserProfile",
      "outputs": [],
      "stateMutability": "nonpayable",
      "type": "function"
    },
    {
      "inputs": [
        {
          "internalType": "address",
          "name": "_user",
          "type": "address"
        },
        {
          "internalType": "enum IMyPetBase.RoleType",
          "name": "_roleId",
          "type": "uint8"
        }
      ],
      "name": "updateUserRole",
      "outputs": [],
      "stateMutability": "nonpayable",
      "type": "function"
    },
    {
      "inputs": [],
      "name": "userIdCounter",
      "outputs": [
        {
          "internalType": "uint256",
          "name": "",
          "type": "uint256"
        }
      ],
      "stateMutability": "view",
      "type": "function"
    },
    {
      "inputs": [
        {
          "internalType": "address",
          "name": "",
          "type": "address"
        }
      ],
      "name": "userIds",
      "outputs": [
        {
          "internalType": "uint256",
          "name": "",
          "type": "uint256"
        }
      ],
      "stateMutability": "view",
      "type": "function"
    },
    {
      "inputs": [
        {
          "internalType": "uint256",
          "name": "",
          "type": "uint256"
        }
      ],
      "name": "users",
      "outputs": [
        {
          "internalType": "string",
          "name": "name",
          "type": "string"
        },
        {
          "internalType": "string",
          "name": "email",
          "type": "string"
        },
        {
          "internalType": "string",
          "name": "phone",
          "type": "string"
        },
        {
          "internalType": "address",
          "name": "wallet",
          "type": "address"
        },
        {
          "internalType": "enum IMyPetBase.UserType",
          "name": "userType",
          "type": "uint8"
        },
        {
          "internalType": "uint256",
          "name": "orgId",
          "type": "uint256"
        },
        {
          "internalType": "bool",
          "name": "isProfileSet",
          "type": "bool"
        },
        {
          "internalType": "enum IMyPetBase.RoleType",
          "name": "roleId",
          "type": "uint8"
        },
        {
          "internalType": "uint256",
          "name": "registeredAt",
          "type": "uint256"
        },
        {
          "internalType": "string",
          "name": "avatar",
          "type": "string"
        }
      ],
      "stateMutability": "view",
      "type": "function"
    }
  ],
  "bytecode": "0x60a0346100fb57601f6124bc38819003918201601f19168301916001600160401b03831184841017610100578084926020946040528339810103126100fb57516001600160a01b0381168082036100fb576001600255156100aa57608052600380546001600160a01b031916331790556040516123a5908161011782396080518181816105bc01528181610715015281816108260152818161088a015281816112bd01526117010152f35b60405162461bcd60e51b815260206004820152602360248201527f496e76616c696420696e737469747574696f6e206d616e61676572206164647260448201526265737360e81b6064820152608490fd5b600080fd5b634e487b7160e01b600052604160045260246000fdfe6080604052600436101561001257600080fd5b60003560e01c80630a86fdff1461195657806323b1ddc61461189e5780632640d5ea146116c75780632faba6ae146116a9578063365b98b2146115a15780634081db511461156757806342dd0779146107445780635c828f37146106ff5780636386c1c7146104cb578063c291fe62146103cf578063d5f39488146103a6578063ddb7a4de14610218578063e2842d7914610132578063eac50f6b146100ed5763f2658413146100c157600080fd5b346100e85760403660031901126100e8576100e66100dd611ab0565b602435906120d4565b005b600080fd5b346100e85760203660031901126100e857602061012861010b611ab0565b6001600160a01b0316600090815260208190526040902054151590565b6040519015158152f35b346100e85760003660031901126100e8576003546001600160a01b031633036101d4576001805461016281611ebc565b906101706040519283611d3a565b808252600083815260207fb10e2d527612073b26eecdfd717e6a320cf44b4afac2b0732d9fcbe2b7fa0cf68185015b8484106101b857604051806101b48882611b25565b0390f35b60098388926101c6856121fa565b81520192019301929061019f565b606460405162461bcd60e51b815260206004820152602060248201527f4f6e6c79206465706c6f7965722063616e207669657720616c6c2075736572736044820152fd5b346100e85760203660031901126100e857600435600481101590816100e8576003546001600160a01b03163303610355576001546000805b8281106103085750610261906122be565b9160009060005b83811061027d57604051806101b48782611b25565b8560ff600561028b84611c78565b50015460081c16906102f25760048110156102f25782146102b5575b6102b09061206b565b610268565b916102ea6102b0916102cf6102c986611c78565b506121fa565b6102d9828961235b565b526102e4818861235b565b5061206b565b9290506102a7565b634e487b7160e01b600052602160045260246000fd5b8460ff600561031684611c78565b50015460081c16906102f25760048110156102f2578414610340575b61033b9061206b565b610250565b9061034d61033b9161206b565b919050610332565b60405162461bcd60e51b8152602060048201526024808201527f4f6e6c79206465706c6f7965722063616e207669657720757365727320627920604482015263726f6c6560e01b6064820152608490fd5b346100e85760003660031901126100e8576003546040516001600160a01b039091168152602090f35b346100e85760403660031901126100e8576103e8611ab0565b6024359060048210156100e8576003546001600160a01b0391908216330361047a576001600160a01b03811660009081526020819052604090205461043390151561207a565b61207a565b16600052600060205260406000205490600019820191821161046457600561045d6100e693611c78565b500161204c565b634e487b7160e01b600052601160045260246000fd5b60405162461bcd60e51b815260206004820152602360248201527f4f6e6c79206465706c6f7965722063616e20757064617465207573657220726f6044820152626c657360e81b6064820152608490fd5b346100e85760203660031901126100e8576104e4611ab0565b6001600160a01b03811660009081526020819052604090205461050890151561207a565b6001600160a01b0390811660009081526020819052604090205460001981018181116104645761053790611c78565b509161054283611d5b565b9261054f60018201611d5b565b9061055c60028201611d5b565b60038201549060ff8260a01c16916004840154600585015493610586600860078801549701611d5b565b9761059082611b0e565b60018214806106f6575b156106dd57604051630418ed2160e21b815260048101849052946000866024817f000000000000000000000000000000000000000000000000000000000000000086165afa9586156106d1576000966106ac575b506040602087015196015161060281611b0e565b985b6040519c8d9c8d528c6101806020819201528d0161062191611ae9565b8c810360408e015261063291611ae9565b8b810360608d015261064391611ae9565b931660808a015261065381611b0e565b60a089015260c088015286810360e088015261066e91611ae9565b9261067881611b0e565b61010086015261012085019060081c60ff169061069491611b18565b6101408401528281036101608401526101b491611ae9565b6106ca9196503d806000833e6106c28183611d3a565b810190611ed3565b948c6105ee565b6040513d6000823e3d90fd5b6040516106e981611d1f565b6000815294600098610604565b5082151561059a565b346100e85760003660031901126100e8576040517f00000000000000000000000000000000000000000000000000000000000000006001600160a01b03168152602090f35b346100e85760c03660031901126100e8576004356001600160401b0381116100e857610774903690600401611e1c565b6024356001600160401b0381116100e857610793903690600401611e1c565b906044356001600160401b0381116100e8576107b3903690600401611e1c565b90600260643510156100e85760a4356001600160401b0381116100e8576107de903690600401611e1c565b3360009081526020819052604090205490929015906107fe606435611b0e565b6064356001036114fb576084358015611498576040516306eee7b360e41b81526020816004817f00000000000000000000000000000000000000000000000000000000000000006001600160a01b03165afa9081156106d157600091611466575b50811015611413576040516318078eb560e31b815260048101919091523360248201526020816044817f00000000000000000000000000000000000000000000000000000000000000006001600160a01b03165afa9081156106d1576000916113d8575b501561136d575b6003546001600160a01b0390339082160361128157506000915b15610e3c5760025433600052600060205260406000205560015494600160401b861015610be657600186018060015561091c87611c78565b505086116104645761093d6040519661093488611d1f565b60008852611c78565b50938051906001600160401b038211610be657819061095c8754611cc9565b601f8111610e0a575b50602090601f8311600114610d9e57600092610d93575b50508160011b916000199060031b1c19161784555b8051906001600160401b038211610be65781906109b16001870154611cc9565b601f8111610d5e575b50602090601f8311600114610cec57600092610ce1575b50508160011b916000199060031b1c19161760018401555b8051906001600160401b038211610be657610a076002850154611cc9565b601f8111610cac575b50602090601f8311600114610c3857610a8393929160009183610c2d575b50508160011b916000199060031b1c19161760028401555b6003830180546001600160a01b03191633178155610a679060643590612028565b608435600484015560058301805460ff1916600117815561204c565b825160068201936001600160401b038211610be657600160401b8211610be6576020908554838755808410610c10575b500193600052602060002060005b828110610bfc5750505060089192504260078201550181516001600160401b038111610be657610af18254611cc9565b601f8111610ba9575b50602092601f8211600114610b455792819293600092610b3a575b50508160011b916000199060031b1c19161790555b610b3560025461206b565b600255005b015190508380610b15565b601f198216938360005260206000209160005b868110610b915750836001959610610b78575b505050811b019055610b2a565b015160001960f88460031b161c19169055838080610b6b565b91926020600181928685015181550194019201610b58565b610bd690836000526020600020601f840160051c81019160208510610bdc575b601f0160051c0190612011565b83610afa565b9091508190610bc9565b634e487b7160e01b600052604160045260246000fd5b600190602087519701968184015501610ac1565b610c27908760005284846000209182019101612011565b86610ab3565b015190508780610a2e565b906002850160005260206000209160005b601f1985168110610c945750918391600193610a839695601f19811610610c7b575b505050811b016002840155610a46565b015160001960f88460031b161c19169055878080610c6b565b91926020600181928685015181550194019201610c49565b610cdb90600286016000526020600020601f850160051c81019160208610610bdc57601f0160051c0190612011565b86610a10565b0151905087806109d1565b9250600186016000526020600020906000935b601f1984168510610d43576001945083601f19811610610d2a575b505050811b0160018401556109e9565b015160001960f88460031b161c19169055878080610d1a565b81810151835560209485019460019093019290910190610cff565b610d8d90600188016000526020600020601f850160051c81019160208610610bdc57601f0160051c0190612011565b886109ba565b01519050888061097c565b9250866000526020600020906000935b601f1984168510610def576001945083601f19811610610dd6575b505050811b018455610991565b015160001960f88460031b161c19169055888080610dc9565b81810151835560209485019460019093019290910190610dae565b610e3690886000526020600020601f850160051c81019160208610610bdc57601f0160051c0190612011565b89610965565b93336000526000602052604060002054600019810190811161046457610e6190611c78565b50928051906001600160401b038211610be6578190610e808654611cc9565b601f811161124f575b50602090601f83116001146111e3576000926111d8575b50508160011b916000199060031b1c19161783555b8051906001600160401b038211610be6578190610ed56001860154611cc9565b601f81116111a3575b50602090601f831160011461113157600092611126575b50508160011b916000199060031b1c19161760018301555b83516001600160401b038111610be657610f2a6002840154611cc9565b601f81116110f1575b506020601f821160011461107b579080610f7b939260089697600092611070575b50508160011b916000199060031b1c19161760028401555b610a6760643560038501612028565b0181516001600160401b038111610be657610f968254611cc9565b601f811161103e575b50602092601f8211600114610fdd5792819293600092610fd2575b5050600019600383901b1c191660019190911b179055005b015190508380610fba565b601f198216938360005260206000209160005b868110611026575083600195961061100d575b505050811b019055005b015160001960f88460031b161c19169055838080611003565b91926020600181928685015181550194019201610ff0565b61106a90836000526020600020601f840160051c81019160208510610bdc57601f0160051c0190612011565b83610f9f565b015190508780610f54565b6002840160005260206000209560005b601f19841681106110d957509160089596600192610f7b959483601f198116106110c0575b505050811b016002840155610f6c565b015160001960f88460031b161c191690558780806110b0565b8282015188556001909701966020928301920161108b565b61112090600285016000526020600020601f840160051c81019160208510610bdc57601f0160051c0190612011565b85610f33565b015190508680610ef5565b9250600185016000526020600020906000935b601f1984168510611188576001945083601f1981161061116f575b505050811b016001830155610f0d565b015160001960f88460031b161c1916905586808061115f565b81810151835560209485019460019093019290910190611144565b6111d290600187016000526020600020601f850160051c81019160208610610bdc57601f0160051c0190612011565b87610ede565b015190508780610ea0565b9250856000526020600020906000935b601f1984168510611234576001945083601f1981161061121b575b505050811b018355610eb5565b015160001960f88460031b161c1916905587808061120e565b818101518355602094850194600190930192909101906111f3565b61127b90876000526020600020601f850160051c81019160208610610bdc57601f0160051c0190612011565b88610e89565b61128c606435611b0e565b60643560011480611362575b1561135957600060249160405192838092630418ed2160e21b825260843560048301527f0000000000000000000000000000000000000000000000000000000000000000165afa80156106d15760409160009161133e575b500180516112fd81611b0e565b61130681611b0e565b61131357506002916108e4565b6001905161132081611b0e565b61132981611b0e565b03611336576003916108e4565b6001916108e4565b61135391503d806000833e6106c28183611d3a565b876112f0565b506001916108e4565b506084351515611298565b60405162461bcd60e51b815260206004820152603760248201527f55736572206973206e6f742061207374616666206d656d626572206f6620746860448201527f652073706563696669656420696e737469747574696f6e0000000000000000006064820152608490fd5b90506020813d60201161140b575b816113f360209383611d3a565b810103126100e8575180151581036100e857866108c3565b3d91506113e6565b60405162461bcd60e51b815260206004820152602560248201527f4173736f63696174656420696e737469747574696f6e20646f6573206e6f7420604482015264195e1a5cdd60da1b6064820152608490fd5b90506020813d602011611490575b8161148160209383611d3a565b810103126100e857518761085f565b3d9150611474565b60405162461bcd60e51b815260206004820152603560248201527f496e737469747574696f6e616c2075736572206d757374206173736f6369617460448201527432903bb4ba341030b71034b739ba34ba3aba34b7b760591b6064820152608490fd5b608435156108ca5760405162461bcd60e51b815260206004820152603660248201527f506572736f6e616c20757365722073686f756c64206e6f74206173736f6369616044820152753a32903bb4ba341030b71034b739ba34ba3aba34b7b760511b6064820152608490fd5b346100e85760203660031901126100e8576001600160a01b03611588611ab0565b1660005260006020526020604060002054604051908152f35b346100e85760203660031901126100e8576004356001548110156100e8576115cb61163b91611c78565b506101b46115d882611d5b565b916115e560018201611d5b565b6115f160028301611d5b565b9161169560038201549360ff8560a01c16600484015490611657600586015493611649611625600860078a01549901611d5b565b986040519d8e9d8e610140908181520190611ae9565b8d810360208f015290611ae9565b908b820360408d0152611ae9565b6001600160a01b0390971660608a015261167081611b0e565b608089015260a088015260ff8116151560c088015260ff60e088019160081c16611b18565b610100850152838203610120850152611ae9565b346100e85760003660031901126100e8576020600254604051908152f35b346100e85760203660031901126100e857604051630418ed2160e21b815260048035908201819052906001600160a01b03906000816024817f000000000000000000000000000000000000000000000000000000000000000086165afa9081156106d1578291606091600091611883575b500151163314908115611875575b50156117f7576001546000805b8281106117bf5750611764906122be565b9160009060005b83811061178057604051806101b48782611b25565b81600461178c83611c78565b500154146117a3575b61179e9061206b565b61176b565b916117b761179e916102cf6102c986611c78565b929050611795565b8360046117cb83611c78565b500154146117e2575b6117dd9061206b565b611753565b906117ef6117dd9161206b565b9190506117d4565b60405162461bcd60e51b815260206004820152604a60248201527f4f6e6c7920696e737469747574696f6e20726573706f6e7369626c652070657260448201527f736f6e206f72206465706c6f7965722063616e207669657720696e737469747560648201526974696f6e20757365727360b01b608482015260a490fd5b905060035416331482611746565b61189891503d806000833e6106c28183611d3a565b85611738565b346100e8576020806003193601126100e8576118b8611ab0565b6001600160a01b0381166000908152602081905260409020546118dc90151561207a565b6001600160a01b031660009081528082526040902054600019810190811161046457600661190c61191392611c78565b50016121ab565b906040519181839283018184528251809152816040850193019160005b82811061193f57505050500390f35b835185528695509381019392810192600101611930565b346100e85760403660031901126100e85761196f611ab0565b602480359161199661042e8260018060a01b03166000526000602052604060002054151590565b6001600160a01b03166000908152602081905260409020546000199190828101908111611a9b57916119c88493611c78565b506006019060005b8254808210156100e65785906119e683866120bc565b929054600393841b1c14611a045750506119ff9061206b565b6119d0565b90955082819593949501908111611a865790611a33611a26611a4c93876120bc565b905490881b1c91866120bc565b90919082549060031b91821b91600019901b1916179055565b8254908115611a725750810192611a6384846120bc565b8154921b9290921b1916905555005b634e487b7160e01b60009081526031600452fd5b82634e487b7160e01b60005260116004526000fd5b50634e487b7160e01b60009081526011600452fd5b600435906001600160a01b03821682036100e857565b60005b838110611ad95750506000910152565b8181015183820152602001611ac9565b90602091611b0281518092818552858086019101611ac6565b601f01601f1916010190565b600211156102f257565b9060048210156102f25752565b602080820190808352835180925260409283810182858560051b84010196019460009081935b868510611b5d57505050505050505090565b9091929394959697603f1982820301855286895191611bab611b9b611b8b8551610160808652850190611ae9565b8486015184820386860152611ae9565b8685015183820388850152611ae9565b6060848101516001600160a01b03169083015260808085015191929190611bd182611b0e565b82015260a0808501519082015260c080850151151590820152611bfc60e08086015190830190611b18565b6101009182850151928282039083015283808451928381520193019088905b808210611c5e575050508291600194611c4c9261012080830151908201526101408092015191818403910152611ae9565b9a019501950193969594929190611b4b565b825185528c95948501949092019160019190910190611c1b565b600154811015611cb3576009906001600052027fb10e2d527612073b26eecdfd717e6a320cf44b4afac2b0732d9fcbe2b7fa0cf60190600090565b634e487b7160e01b600052603260045260246000fd5b90600182811c92168015611cf9575b6020831014611ce357565b634e487b7160e01b600052602260045260246000fd5b91607f1691611cd8565b61016081019081106001600160401b03821117610be657604052565b602081019081106001600160401b03821117610be657604052565b90601f801991011681019081106001600160401b03821117610be657604052565b9060405191826000825492611d6f84611cc9565b908184526001948581169081600014611dde5750600114611d9b575b5050611d9992500383611d3a565b565b9093915060005260209081600020936000915b818310611dc6575050611d9993508201013880611d8b565b85548884018501529485019487945091830191611dae565b915050611d9994506020925060ff191682840152151560051b8201013880611d8b565b6001600160401b038111610be657601f01601f191660200190565b81601f820112156100e857803590611e3382611e01565b92611e416040519485611d3a565b828452602083830101116100e857816000926020809301838601378301015290565b81601f820112156100e8578051611e7981611e01565b92611e876040519485611d3a565b818452602082840101116100e857611ea59160208085019101611ac6565b90565b51906001600160a01b03821682036100e857565b6001600160401b038111610be65760051b60200190565b60209182828203126100e85781516001600160401b03928382116100e85701916101009384848403126100e85760405194850185811083821117610be65760405283518552808401518281116100e85783611f2f918601611e63565b81860152604084015160028110156100e8576040860152611f5260608501611ea8565b606086015260808401518281116100e85784019083601f830112156100e857815191611f7d83611ebc565b92611f8b6040519485611d3a565b808452828085019160051b830101918683116100e8578301905b828210611ffa5750505050608085015260a083015160a085015260c08301518181116100e85782611fd7918501611e63565b60c085015260e08301519081116100e857611ff29201611e63565b60e082015290565b83809161200684611ea8565b815201910190611fa5565b81811061201c575050565b60008155600101612011565b9061203281611b0e565b815460ff60a01b191660a09190911b60ff60a01b16179055565b9060048110156102f25761ff0082549160081b169061ff001916179055565b60001981146104645760010190565b1561208157565b60405162461bcd60e51b8152602060048201526013602482015272155cd95c881b9bdd081c9959da5cdd195c9959606a1b6044820152606490fd5b8054821015611cb35760005260206000200190600090565b6001600160a01b0381166000908152602081905260409020546120f890151561207a565b6001600160a01b031660009081526020819052604081205460001981019081116121975761212590611c78565b50600601805491805b83811061216b5750600160401b831015612157575081611a33916001611d9995940181556120bc565b634e487b7160e01b81526041600452602490fd5b8461217682856120bc565b90549060031b1c146121905761218b9061206b565b61212e565b5050505050565b634e487b7160e01b82526011600452602482fd5b9060405191828154918282526020928383019160005283600020936000905b8282106121e057505050611d9992500383611d3a565b8554845260019586019588955093810193909101906121ca565b9060405161220781611d03565b809261221281611d5b565b825261222060018201611d5b565b602083015261223160028201611d5b565b604083015260038101546001600160a01b038116606084015260a01c60ff1661225981611b0e565b6080830152600481015460a083015260ff6005820154818116151560c085015260081c169060048210156102f25760086122b9916101409360e08601526122a2600682016121ab565b610100860152600781015461012086015201611d5b565b910152565b906122c882611ebc565b6040906122d782519182611d3a565b83815280936122e8601f1991611ebc565b019160005b8381106122fa5750505050565b602090825161230881611d03565b606080825283908082840152808684015260008184015260006080840152600060a0840152600060c0840152600060e08401528061010084015260006101208401526101408301528286010152016122ed565b8051821015611cb35760209160051b01019056fea26469706673582212201bb18af4483fa27ad41838b1aef5a1b876a3a858105590d0f7c2d5ee4200984d64736f6c63430008130033",
  "linkReferences": {},
  "deployedLinkReferences": {}
}