{
  "_format": "hh-sol-artifact-1",
  "contractName": "UserManager",
  "sourceName": "contracts/UserManager.sol",
  "abi": [
    {
      "inputs": [
        {
          "internalType": "address",
          "name": "_institutionManagerAddress",
          "type": "address"
        }
      ],
      "stateMutability": "nonpayable",
      "type": "constructor"
    },
    {
      "inputs": [
        {
          "internalType": "address",
          "name": "_user",
          "type": "address"
        }
      ],
      "name": "checkUserIsRegistered",
      "outputs": [
        {
          "internalType": "bool",
          "name": "",
          "type": "bool"
        }
      ],
      "stateMutability": "view",
      "type": "function"
    },
    {
      "inputs": [],
      "name": "deployer",
      "outputs": [
        {
          "internalType": "address",
          "name": "",
          "type": "address"
        }
      ],
      "stateMutability": "view",
      "type": "function"
    },
    {
      "inputs": [
        {
          "internalType": "address",
          "name": "_user",
          "type": "address"
        }
      ],
      "name": "getUserInfo",
      "outputs": [
        {
          "internalType": "uint256",
          "name": "id",
          "type": "uint256"
        },
        {
          "internalType": "string",
          "name": "name",
          "type": "string"
        },
        {
          "internalType": "string",
          "name": "email",
          "type": "string"
        },
        {
          "internalType": "string",
          "name": "phone",
          "type": "string"
        },
        {
          "internalType": "address",
          "name": "wallet",
          "type": "address"
        },
        {
          "internalType": "enum IMyPetBase.UserType",
          "name": "userType",
          "type": "uint8"
        },
        {
          "internalType": "uint256",
          "name": "orgId",
          "type": "uint256"
        },
        {
          "internalType": "string",
          "name": "orgName",
          "type": "string"
        },
        {
          "internalType": "enum IMyPetBase.InstitutionType",
          "name": "orgType",
          "type": "uint8"
        },
        {
          "internalType": "enum IMyPetBase.RoleType",
          "name": "roleId",
          "type": "uint8"
        }
      ],
      "stateMutability": "view",
      "type": "function"
    },
    {
      "inputs": [],
      "name": "institutionManagerAddress",
      "outputs": [
        {
          "internalType": "address",
          "name": "",
          "type": "address"
        }
      ],
      "stateMutability": "view",
      "type": "function"
    },
    {
      "inputs": [
        {
          "internalType": "uint256",
          "name": "",
          "type": "uint256"
        }
      ],
      "name": "institutions",
      "outputs": [
        {
          "internalType": "uint256",
          "name": "id",
          "type": "uint256"
        },
        {
          "internalType": "string",
          "name": "name",
          "type": "string"
        },
        {
          "internalType": "enum IMyPetBase.InstitutionType",
          "name": "institutionType",
          "type": "uint8"
        },
        {
          "internalType": "address",
          "name": "wallet",
          "type": "address"
        },
        {
          "internalType": "address",
          "name": "responsiblePerson",
          "type": "address"
        }
      ],
      "stateMutability": "view",
      "type": "function"
    },
    {
      "inputs": [
        {
          "internalType": "string",
          "name": "_name",
          "type": "string"
        },
        {
          "internalType": "string",
          "name": "_email",
          "type": "string"
        },
        {
          "internalType": "string",
          "name": "_phone",
          "type": "string"
        },
        {
          "internalType": "enum IMyPetBase.UserType",
          "name": "_userType",
          "type": "uint8"
        },
        {
          "internalType": "uint256",
          "name": "_orgId",
          "type": "uint256"
        }
      ],
      "name": "setUserProfile",
      "outputs": [],
      "stateMutability": "nonpayable",
      "type": "function"
    },
    {
      "inputs": [],
      "name": "userIdCounter",
      "outputs": [
        {
          "internalType": "uint256",
          "name": "",
          "type": "uint256"
        }
      ],
      "stateMutability": "view",
      "type": "function"
    },
    {
      "inputs": [
        {
          "internalType": "address",
          "name": "",
          "type": "address"
        }
      ],
      "name": "userIds",
      "outputs": [
        {
          "internalType": "uint256",
          "name": "",
          "type": "uint256"
        }
      ],
      "stateMutability": "view",
      "type": "function"
    },
    {
      "inputs": [
        {
          "internalType": "uint256",
          "name": "",
          "type": "uint256"
        }
      ],
      "name": "users",
      "outputs": [
        {
          "internalType": "uint256",
          "name": "id",
          "type": "uint256"
        },
        {
          "internalType": "string",
          "name": "name",
          "type": "string"
        },
        {
          "internalType": "string",
          "name": "email",
          "type": "string"
        },
        {
          "internalType": "string",
          "name": "phone",
          "type": "string"
        },
        {
          "internalType": "address",
          "name": "wallet",
          "type": "address"
        },
        {
          "internalType": "enum IMyPetBase.UserType",
          "name": "userType",
          "type": "uint8"
        },
        {
          "internalType": "uint256",
          "name": "orgId",
          "type": "uint256"
        },
        {
          "internalType": "bool",
          "name": "isProfileSet",
          "type": "bool"
        },
        {
          "internalType": "enum IMyPetBase.RoleType",
          "name": "roleId",
          "type": "uint8"
        }
      ],
      "stateMutability": "view",
      "type": "function"
    }
  ],
  "bytecode": "0x60a060405260016002553480156200001657600080fd5b5060405162001f8e38038062001f8e83398181016040528101906200003c919062000194565b600073ffffffffffffffffffffffffffffffffffffffff168173ffffffffffffffffffffffffffffffffffffffff1603620000ae576040517f08c379a0000000000000000000000000000000000000000000000000000000008152600401620000a5906200024d565b60405180910390fd5b8073ffffffffffffffffffffffffffffffffffffffff1660808173ffffffffffffffffffffffffffffffffffffffff168152505033600460006101000a81548173ffffffffffffffffffffffffffffffffffffffff021916908373ffffffffffffffffffffffffffffffffffffffff160217905550506200026f565b600080fd5b600073ffffffffffffffffffffffffffffffffffffffff82169050919050565b60006200015c826200012f565b9050919050565b6200016e816200014f565b81146200017a57600080fd5b50565b6000815190506200018e8162000163565b92915050565b600060208284031215620001ad57620001ac6200012a565b5b6000620001bd848285016200017d565b91505092915050565b600082825260208201905092915050565b7f496e76616c696420696e737469747574696f6e206d616e61676572206164647260008201527f6573730000000000000000000000000000000000000000000000000000000000602082015250565b600062000235602383620001c6565b91506200024282620001d7565b604082019050919050565b60006020820190508181036000830152620002688162000226565b9050919050565b608051611d036200028b6000396000610a410152611d036000f3fe608060405234801561001057600080fd5b50600436106100935760003560e01c80635c828f37116100665780635c828f371461013a5780636386c1c714610158578063c3b59d0014610191578063d5f39488146101c5578063eac50f6b146101e357610093565b80632faba6ae14610098578063365b98b2146100b65780634081db51146100ee57806346197ec81461011e575b600080fd5b6100a0610213565b6040516100ad919061100c565b60405180910390f35b6100d060048036038101906100cb9190611067565b610219565b6040516100e59998979695949392919061123f565b60405180910390f35b6101086004803603810190610103919061130d565b610456565b604051610115919061100c565b60405180910390f35b61013860048036038101906101339190611494565b61046e565b005b610142610a3f565b60405161014f9190611563565b60405180910390f35b610172600480360381019061016d919061130d565b610a63565b6040516101889a999897969594939291906115c6565b60405180910390f35b6101ab60048036038101906101a69190611067565b610e65565b6040516101bc95949392919061167e565b60405180910390f35b6101cd610f70565b6040516101da9190611563565b60405180910390f35b6101fd60048036038101906101f8919061130d565b610f96565b60405161020a91906116d8565b60405180910390f35b60025481565b6001818154811061022957600080fd5b906000526020600020906007020160009150905080600001549080600101805461025290611722565b80601f016020809104026020016040519081016040528092919081815260200182805461027e90611722565b80156102cb5780601f106102a0576101008083540402835291602001916102cb565b820191906000526020600020905b8154815290600101906020018083116102ae57829003601f168201915b5050505050908060020180546102e090611722565b80601f016020809104026020016040519081016040528092919081815260200182805461030c90611722565b80156103595780601f1061032e57610100808354040283529160200191610359565b820191906000526020600020905b81548152906001019060200180831161033c57829003601f168201915b50505050509080600301805461036e90611722565b80601f016020809104026020016040519081016040528092919081815260200182805461039a90611722565b80156103e75780601f106103bc576101008083540402835291602001916103e7565b820191906000526020600020905b8154815290600101906020018083116103ca57829003601f168201915b5050505050908060040160009054906101000a900473ffffffffffffffffffffffffffffffffffffffff16908060040160149054906101000a900460ff16908060050154908060060160009054906101000a900460ff16908060060160019054906101000a900460ff16905089565b60006020528060005260406000206000915090505481565b600061047933610fa8565b15905060018081111561048f5761048e611165565b5b8360018111156104a2576104a1611165565b5b0361053357600082036104ea576040517f08c379a00000000000000000000000000000000000000000000000000000000081526004016104e1906117c5565b60405180910390fd5b600254821061052e576040517f08c379a000000000000000000000000000000000000000000000000000000000815260040161052590611857565b60405180910390fd5b610577565b60008214610576576040517f08c379a000000000000000000000000000000000000000000000000000000000815260040161056d906118e9565b60405180910390fd5b5b60003273ffffffffffffffffffffffffffffffffffffffff163373ffffffffffffffffffffffffffffffffffffffff161480156105e057503373ffffffffffffffffffffffffffffffffffffffff164173ffffffffffffffffffffffffffffffffffffffff1614155b1561074257600460009054906101000a900473ffffffffffffffffffffffffffffffffffffffff1673ffffffffffffffffffffffffffffffffffffffff163373ffffffffffffffffffffffffffffffffffffffff1603610643576000905061073d565b60018081111561065657610655611165565b5b84600181111561066957610668611165565b5b1480156106765750600083115b1561073757600083111561072d576000600360006001866106979190611938565b815260200190815260200160002060020160009054906101000a900460ff169050600060018111156106cc576106cb611165565b5b8160018111156106df576106de611165565b5b036106ed5760029150610727565b600180811115610700576106ff611165565b5b81600181111561071357610712611165565b5b036107215760039150610726565b600191505b5b50610732565b600190505b61073c565b600190505b5b610747565b600190505b811561090b576002546000803373ffffffffffffffffffffffffffffffffffffffff1673ffffffffffffffffffffffffffffffffffffffff1681526020019081526020016000208190555060018081600181540180825580915050039060005260206000209050506000600180805490506107c29190611938565b90506000600182815481106107da576107d961196c565b5b906000526020600020906007020190506002548160000181905550888160010190816108069190611b47565b50878160020190816108189190611b47565b508681600301908161082a9190611b47565b50338160040160006101000a81548173ffffffffffffffffffffffffffffffffffffffff021916908373ffffffffffffffffffffffffffffffffffffffff160217905550858160040160146101000a81548160ff0219169083600181111561089557610894611165565b5b021790555084816005018190555060018160060160006101000a81548160ff021916908315150217905550828160060160016101000a81548160ff021916908360038111156108e7576108e6611165565b5b0217905550600260008154809291906108ff90611c19565b91905055505050610a36565b60008060003373ffffffffffffffffffffffffffffffffffffffff1673ffffffffffffffffffffffffffffffffffffffff16815260200190815260200160002054905060006001808361095e9190611938565b8154811061096f5761096e61196c565b5b90600052602060002090600702019050888160010190816109909190611b47565b50878160020190816109a29190611b47565b50868160030190816109b49190611b47565b50858160040160146101000a81548160ff021916908360018111156109dc576109db611165565b5b021790555084816005018190555060018160060160006101000a81548160ff021916908315150217905550828160060160016101000a81548160ff02191690836003811115610a2e57610a2d611165565b5b021790555050505b50505050505050565b7f000000000000000000000000000000000000000000000000000000000000000081565b6000606080606060008060006060600080610a7d8b610fa8565b610abc576040517f08c379a0000000000000000000000000000000000000000000000000000000008152600401610ab390611cad565b60405180910390fd5b60008060008d73ffffffffffffffffffffffffffffffffffffffff1673ffffffffffffffffffffffffffffffffffffffff168152602001908152602001600020549050600060018083610b0f9190611938565b81548110610b2057610b1f61196c565b5b9060005260206000209060070201905080600001549b50806001018054610b4690611722565b80601f0160208091040260200160405190810160405280929190818152602001828054610b7290611722565b8015610bbf5780601f10610b9457610100808354040283529160200191610bbf565b820191906000526020600020905b815481529060010190602001808311610ba257829003601f168201915b50505050509a50806002018054610bd590611722565b80601f0160208091040260200160405190810160405280929190818152602001828054610c0190611722565b8015610c4e5780601f10610c2357610100808354040283529160200191610c4e565b820191906000526020600020905b815481529060010190602001808311610c3157829003601f168201915b50505050509950806003018054610c6490611722565b80601f0160208091040260200160405190810160405280929190818152602001828054610c9090611722565b8015610cdd5780601f10610cb257610100808354040283529160200191610cdd565b820191906000526020600020905b815481529060010190602001808311610cc057829003601f168201915b505050505098508060040160009054906101000a900473ffffffffffffffffffffffffffffffffffffffff1697508060040160149054906101000a900460ff169650806005015495508060060160019054906101000a900460ff169250600180811115610d4d57610d4c611165565b5b876001811115610d6057610d5f611165565b5b148015610d6e575060008614155b15610e3f57600060036000600189610d869190611938565b81526020019081526020016000209050806001018054610da590611722565b80601f0160208091040260200160405190810160405280929190818152602001828054610dd190611722565b8015610e1e5780601f10610df357610100808354040283529160200191610e1e565b820191906000526020600020905b815481529060010190602001808311610e0157829003601f168201915b505050505095508060020160009054906101000a900460ff16945050610e56565b604051806020016040528060008152509450600093505b50509193959799509193959799565b6003602052806000526040600020600091509050806000015490806001018054610e8e90611722565b80601f0160208091040260200160405190810160405280929190818152602001828054610eba90611722565b8015610f075780601f10610edc57610100808354040283529160200191610f07565b820191906000526020600020905b815481529060010190602001808311610eea57829003601f168201915b5050505050908060020160009054906101000a900460ff16908060020160019054906101000a900473ffffffffffffffffffffffffffffffffffffffff16908060030160009054906101000a900473ffffffffffffffffffffffffffffffffffffffff16905085565b600460009054906101000a900473ffffffffffffffffffffffffffffffffffffffff1681565b6000610fa182610fa8565b9050919050565b6000806000808473ffffffffffffffffffffffffffffffffffffffff1673ffffffffffffffffffffffffffffffffffffffff1681526020019081526020016000205414159050919050565b6000819050919050565b61100681610ff3565b82525050565b60006020820190506110216000830184610ffd565b92915050565b6000604051905090565b600080fd5b600080fd5b61104481610ff3565b811461104f57600080fd5b50565b6000813590506110618161103b565b92915050565b60006020828403121561107d5761107c611031565b5b600061108b84828501611052565b91505092915050565b600081519050919050565b600082825260208201905092915050565b60005b838110156110ce5780820151818401526020810190506110b3565b60008484015250505050565b6000601f19601f8301169050919050565b60006110f682611094565b611100818561109f565b93506111108185602086016110b0565b611119816110da565b840191505092915050565b600073ffffffffffffffffffffffffffffffffffffffff82169050919050565b600061114f82611124565b9050919050565b61115f81611144565b82525050565b7f4e487b7100000000000000000000000000000000000000000000000000000000600052602160045260246000fd5b600281106111a5576111a4611165565b5b50565b60008190506111b682611194565b919050565b60006111c6826111a8565b9050919050565b6111d6816111bb565b82525050565b60008115159050919050565b6111f1816111dc565b82525050565b6004811061120857611207611165565b5b50565b6000819050611219826111f7565b919050565b60006112298261120b565b9050919050565b6112398161121e565b82525050565b600061012082019050611255600083018c610ffd565b8181036020830152611267818b6110eb565b9050818103604083015261127b818a6110eb565b9050818103606083015261128f81896110eb565b905061129e6080830188611156565b6112ab60a08301876111cd565b6112b860c0830186610ffd565b6112c560e08301856111e8565b6112d3610100830184611230565b9a9950505050505050505050565b6112ea81611144565b81146112f557600080fd5b50565b600081359050611307816112e1565b92915050565b60006020828403121561132357611322611031565b5b6000611331848285016112f8565b91505092915050565b600080fd5b600080fd5b7f4e487b7100000000000000000000000000000000000000000000000000000000600052604160045260246000fd5b61137c826110da565b810181811067ffffffffffffffff8211171561139b5761139a611344565b5b80604052505050565b60006113ae611027565b90506113ba8282611373565b919050565b600067ffffffffffffffff8211156113da576113d9611344565b5b6113e3826110da565b9050602081019050919050565b82818337600083830152505050565b600061141261140d846113bf565b6113a4565b90508281526020810184848401111561142e5761142d61133f565b5b6114398482856113f0565b509392505050565b600082601f8301126114565761145561133a565b5b81356114668482602086016113ff565b91505092915050565b6002811061147c57600080fd5b50565b60008135905061148e8161146f565b92915050565b600080600080600060a086880312156114b0576114af611031565b5b600086013567ffffffffffffffff8111156114ce576114cd611036565b5b6114da88828901611441565b955050602086013567ffffffffffffffff8111156114fb576114fa611036565b5b61150788828901611441565b945050604086013567ffffffffffffffff81111561152857611527611036565b5b61153488828901611441565b93505060606115458882890161147f565b925050608061155688828901611052565b9150509295509295909350565b60006020820190506115786000830184611156565b92915050565b6002811061158f5761158e611165565b5b50565b60008190506115a08261157e565b919050565b60006115b082611592565b9050919050565b6115c0816115a5565b82525050565b6000610140820190506115dc600083018d610ffd565b81810360208301526115ee818c6110eb565b90508181036040830152611602818b6110eb565b90508181036060830152611616818a6110eb565b90506116256080830189611156565b61163260a08301886111cd565b61163f60c0830187610ffd565b81810360e083015261165181866110eb565b90506116616101008301856115b7565b61166f610120830184611230565b9b9a5050505050505050505050565b600060a0820190506116936000830188610ffd565b81810360208301526116a581876110eb565b90506116b460408301866115b7565b6116c16060830185611156565b6116ce6080830184611156565b9695505050505050565b60006020820190506116ed60008301846111e8565b92915050565b7f4e487b7100000000000000000000000000000000000000000000000000000000600052602260045260246000fd5b6000600282049050600182168061173a57607f821691505b60208210810361174d5761174c6116f3565b5b50919050565b7f496e737469747574696f6e616c2075736572206d757374206173736f6369617460008201527f65207769746820616e20696e737469747574696f6e0000000000000000000000602082015250565b60006117af60358361109f565b91506117ba82611753565b604082019050919050565b600060208201905081810360008301526117de816117a2565b9050919050565b7f4173736f63696174656420696e737469747574696f6e20646f6573206e6f742060008201527f6578697374000000000000000000000000000000000000000000000000000000602082015250565b600061184160258361109f565b915061184c826117e5565b604082019050919050565b6000602082019050818103600083015261187081611834565b9050919050565b7f506572736f6e616c20757365722073686f756c64206e6f74206173736f63696160008201527f7465207769746820616e20696e737469747574696f6e00000000000000000000602082015250565b60006118d360368361109f565b91506118de82611877565b604082019050919050565b60006020820190508181036000830152611902816118c6565b9050919050565b7f4e487b7100000000000000000000000000000000000000000000000000000000600052601160045260246000fd5b600061194382610ff3565b915061194e83610ff3565b925082820390508181111561196657611965611909565b5b92915050565b7f4e487b7100000000000000000000000000000000000000000000000000000000600052603260045260246000fd5b60008190508160005260206000209050919050565b60006020601f8301049050919050565b600082821b905092915050565b6000600883026119fd7fffffffffffffffffffffffffffffffffffffffffffffffffffffffffffffffff826119c0565b611a0786836119c0565b95508019841693508086168417925050509392505050565b6000819050919050565b6000611a44611a3f611a3a84610ff3565b611a1f565b610ff3565b9050919050565b6000819050919050565b611a5e83611a29565b611a72611a6a82611a4b565b8484546119cd565b825550505050565b600090565b611a87611a7a565b611a92818484611a55565b505050565b5b81811015611ab657611aab600082611a7f565b600181019050611a98565b5050565b601f821115611afb57611acc8161199b565b611ad5846119b0565b81016020851015611ae4578190505b611af8611af0856119b0565b830182611a97565b50505b505050565b600082821c905092915050565b6000611b1e60001984600802611b00565b1980831691505092915050565b6000611b378383611b0d565b9150826002028217905092915050565b611b5082611094565b67ffffffffffffffff811115611b6957611b68611344565b5b611b738254611722565b611b7e828285611aba565b600060209050601f831160018114611bb15760008415611b9f578287015190505b611ba98582611b2b565b865550611c11565b601f198416611bbf8661199b565b60005b82811015611be757848901518255600182019150602085019450602081019050611bc2565b86831015611c045784890151611c00601f891682611b0d565b8355505b6001600288020188555050505b505050505050565b6000611c2482610ff3565b91507fffffffffffffffffffffffffffffffffffffffffffffffffffffffffffffffff8203611c5657611c55611909565b5b600182019050919050565b7f55736572206e6f74207265676973746572656400000000000000000000000000600082015250565b6000611c9760138361109f565b9150611ca282611c61565b602082019050919050565b60006020820190508181036000830152611cc681611c8a565b905091905056fea264697066735822122074a5e06f9bce704a4273ea868b93b45ff37a895a929b95ddd339b2674a2f63e064736f6c63430008130033",
  "linkReferences": {},
  "deployedLinkReferences": {}
}