{
  "_format": "hh-sol-artifact-1",
  "contractName": "UserManager",
  "sourceName": "contracts/UserManager.sol",
  "abi": [
    {
      "inputs": [
        {
          "internalType": "address",
          "name": "_institutionManagerAddress",
          "type": "address"
        }
      ],
      "stateMutability": "nonpayable",
      "type": "constructor"
    },
    {
      "inputs": [
        {
          "internalType": "address",
          "name": "_user",
          "type": "address"
        },
        {
          "internalType": "uint256",
          "name": "_petId",
          "type": "uint256"
        }
      ],
      "name": "addPetToUser",
      "outputs": [],
      "stateMutability": "nonpayable",
      "type": "function"
    },
    {
      "inputs": [
        {
          "internalType": "address",
          "name": "_user",
          "type": "address"
        }
      ],
      "name": "checkUserIsRegistered",
      "outputs": [
        {
          "internalType": "bool",
          "name": "",
          "type": "bool"
        }
      ],
      "stateMutability": "view",
      "type": "function"
    },
    {
      "inputs": [],
      "name": "deployer",
      "outputs": [
        {
          "internalType": "address",
          "name": "",
          "type": "address"
        }
      ],
      "stateMutability": "view",
      "type": "function"
    },
    {
      "inputs": [],
      "name": "getAllUsers",
      "outputs": [
        {
          "components": [
            {
              "internalType": "string",
              "name": "name",
              "type": "string"
            },
            {
              "internalType": "string",
              "name": "email",
              "type": "string"
            },
            {
              "internalType": "string",
              "name": "phone",
              "type": "string"
            },
            {
              "internalType": "address",
              "name": "wallet",
              "type": "address"
            },
            {
              "internalType": "enum IMyPetBase.UserType",
              "name": "userType",
              "type": "uint8"
            },
            {
              "internalType": "uint256",
              "name": "orgId",
              "type": "uint256"
            },
            {
              "internalType": "bool",
              "name": "isProfileSet",
              "type": "bool"
            },
            {
              "internalType": "enum IMyPetBase.RoleType",
              "name": "roleId",
              "type": "uint8"
            },
            {
              "internalType": "uint256[]",
              "name": "petIds",
              "type": "uint256[]"
            },
            {
              "internalType": "string",
              "name": "avatar",
              "type": "string"
            }
          ],
          "internalType": "struct IMyPetBase.User[]",
          "name": "",
          "type": "tuple[]"
        }
      ],
      "stateMutability": "view",
      "type": "function"
    },
    {
      "inputs": [
        {
          "internalType": "address",
          "name": "_user",
          "type": "address"
        }
      ],
      "name": "getUserInfo",
      "outputs": [
        {
          "internalType": "uint256",
          "name": "id",
          "type": "uint256"
        },
        {
          "internalType": "string",
          "name": "name",
          "type": "string"
        },
        {
          "internalType": "string",
          "name": "email",
          "type": "string"
        },
        {
          "internalType": "string",
          "name": "phone",
          "type": "string"
        },
        {
          "internalType": "address",
          "name": "wallet",
          "type": "address"
        },
        {
          "internalType": "enum IMyPetBase.UserType",
          "name": "userType",
          "type": "uint8"
        },
        {
          "internalType": "uint256",
          "name": "orgId",
          "type": "uint256"
        },
        {
          "internalType": "string",
          "name": "orgName",
          "type": "string"
        },
        {
          "internalType": "enum IMyPetBase.InstitutionType",
          "name": "orgType",
          "type": "uint8"
        },
        {
          "internalType": "enum IMyPetBase.RoleType",
          "name": "roleId",
          "type": "uint8"
        },
        {
          "internalType": "string",
          "name": "avatar",
          "type": "string"
        }
      ],
      "stateMutability": "view",
      "type": "function"
    },
    {
      "inputs": [
        {
          "internalType": "address",
          "name": "_user",
          "type": "address"
        }
      ],
      "name": "getUserPetIds",
      "outputs": [
        {
          "internalType": "uint256[]",
          "name": "",
          "type": "uint256[]"
        }
      ],
      "stateMutability": "view",
      "type": "function"
    },
    {
      "inputs": [
        {
          "internalType": "uint256",
          "name": "_orgId",
          "type": "uint256"
        }
      ],
      "name": "getUsersByInstitution",
      "outputs": [
        {
          "components": [
            {
              "internalType": "string",
              "name": "name",
              "type": "string"
            },
            {
              "internalType": "string",
              "name": "email",
              "type": "string"
            },
            {
              "internalType": "string",
              "name": "phone",
              "type": "string"
            },
            {
              "internalType": "address",
              "name": "wallet",
              "type": "address"
            },
            {
              "internalType": "enum IMyPetBase.UserType",
              "name": "userType",
              "type": "uint8"
            },
            {
              "internalType": "uint256",
              "name": "orgId",
              "type": "uint256"
            },
            {
              "internalType": "bool",
              "name": "isProfileSet",
              "type": "bool"
            },
            {
              "internalType": "enum IMyPetBase.RoleType",
              "name": "roleId",
              "type": "uint8"
            },
            {
              "internalType": "uint256[]",
              "name": "petIds",
              "type": "uint256[]"
            },
            {
              "internalType": "string",
              "name": "avatar",
              "type": "string"
            }
          ],
          "internalType": "struct IMyPetBase.User[]",
          "name": "",
          "type": "tuple[]"
        }
      ],
      "stateMutability": "view",
      "type": "function"
    },
    {
      "inputs": [
        {
          "internalType": "enum IMyPetBase.RoleType",
          "name": "_roleId",
          "type": "uint8"
        }
      ],
      "name": "getUsersByRole",
      "outputs": [
        {
          "components": [
            {
              "internalType": "string",
              "name": "name",
              "type": "string"
            },
            {
              "internalType": "string",
              "name": "email",
              "type": "string"
            },
            {
              "internalType": "string",
              "name": "phone",
              "type": "string"
            },
            {
              "internalType": "address",
              "name": "wallet",
              "type": "address"
            },
            {
              "internalType": "enum IMyPetBase.UserType",
              "name": "userType",
              "type": "uint8"
            },
            {
              "internalType": "uint256",
              "name": "orgId",
              "type": "uint256"
            },
            {
              "internalType": "bool",
              "name": "isProfileSet",
              "type": "bool"
            },
            {
              "internalType": "enum IMyPetBase.RoleType",
              "name": "roleId",
              "type": "uint8"
            },
            {
              "internalType": "uint256[]",
              "name": "petIds",
              "type": "uint256[]"
            },
            {
              "internalType": "string",
              "name": "avatar",
              "type": "string"
            }
          ],
          "internalType": "struct IMyPetBase.User[]",
          "name": "",
          "type": "tuple[]"
        }
      ],
      "stateMutability": "view",
      "type": "function"
    },
    {
      "inputs": [],
      "name": "institutionManagerAddress",
      "outputs": [
        {
          "internalType": "address",
          "name": "",
          "type": "address"
        }
      ],
      "stateMutability": "view",
      "type": "function"
    },
    {
      "inputs": [
        {
          "internalType": "address",
          "name": "_user",
          "type": "address"
        }
      ],
      "name": "isUserInInstitutionStaffList",
      "outputs": [
        {
          "internalType": "bool",
          "name": "",
          "type": "bool"
        }
      ],
      "stateMutability": "view",
      "type": "function"
    },
    {
      "inputs": [
        {
          "internalType": "address",
          "name": "_user",
          "type": "address"
        },
        {
          "internalType": "uint256",
          "name": "_petId",
          "type": "uint256"
        }
      ],
      "name": "removePetFromUser",
      "outputs": [],
      "stateMutability": "nonpayable",
      "type": "function"
    },
    {
      "inputs": [
        {
          "internalType": "string",
          "name": "_name",
          "type": "string"
        },
        {
          "internalType": "string",
          "name": "_email",
          "type": "string"
        },
        {
          "internalType": "string",
          "name": "_phone",
          "type": "string"
        },
        {
          "internalType": "enum IMyPetBase.UserType",
          "name": "_userType",
          "type": "uint8"
        },
        {
          "internalType": "uint256",
          "name": "_orgId",
          "type": "uint256"
        },
        {
          "internalType": "string",
          "name": "_avatar",
          "type": "string"
        }
      ],
      "name": "setUserProfile",
      "outputs": [],
      "stateMutability": "nonpayable",
      "type": "function"
    },
    {
      "inputs": [
        {
          "internalType": "address",
          "name": "_user",
          "type": "address"
        },
        {
          "internalType": "enum IMyPetBase.RoleType",
          "name": "_roleId",
          "type": "uint8"
        }
      ],
      "name": "updateUserRole",
      "outputs": [],
      "stateMutability": "nonpayable",
      "type": "function"
    },
    {
      "inputs": [
        {
          "internalType": "address",
          "name": "",
          "type": "address"
        },
        {
          "internalType": "uint256",
          "name": "",
          "type": "uint256"
        }
      ],
      "name": "userAddress",
      "outputs": [
        {
          "internalType": "string",
          "name": "name",
          "type": "string"
        },
        {
          "internalType": "string",
          "name": "email",
          "type": "string"
        },
        {
          "internalType": "string",
          "name": "phone",
          "type": "string"
        },
        {
          "internalType": "address",
          "name": "wallet",
          "type": "address"
        },
        {
          "internalType": "enum IMyPetBase.UserType",
          "name": "userType",
          "type": "uint8"
        },
        {
          "internalType": "uint256",
          "name": "orgId",
          "type": "uint256"
        },
        {
          "internalType": "bool",
          "name": "isProfileSet",
          "type": "bool"
        },
        {
          "internalType": "enum IMyPetBase.RoleType",
          "name": "roleId",
          "type": "uint8"
        },
        {
          "internalType": "string",
          "name": "avatar",
          "type": "string"
        }
      ],
      "stateMutability": "view",
      "type": "function"
    },
    {
      "inputs": [],
      "name": "userIdCounter",
      "outputs": [
        {
          "internalType": "uint256",
          "name": "",
          "type": "uint256"
        }
      ],
      "stateMutability": "view",
      "type": "function"
    },
    {
      "inputs": [
        {
          "internalType": "address",
          "name": "",
          "type": "address"
        }
      ],
      "name": "userIds",
      "outputs": [
        {
          "internalType": "uint256",
          "name": "",
          "type": "uint256"
        }
      ],
      "stateMutability": "view",
      "type": "function"
    },
    {
      "inputs": [
        {
          "internalType": "uint256",
          "name": "",
          "type": "uint256"
        }
      ],
      "name": "users",
      "outputs": [
        {
          "internalType": "string",
          "name": "name",
          "type": "string"
        },
        {
          "internalType": "string",
          "name": "email",
          "type": "string"
        },
        {
          "internalType": "string",
          "name": "phone",
          "type": "string"
        },
        {
          "internalType": "address",
          "name": "wallet",
          "type": "address"
        },
        {
          "internalType": "enum IMyPetBase.UserType",
          "name": "userType",
          "type": "uint8"
        },
        {
          "internalType": "uint256",
          "name": "orgId",
          "type": "uint256"
        },
        {
          "internalType": "bool",
          "name": "isProfileSet",
          "type": "bool"
        },
        {
          "internalType": "enum IMyPetBase.RoleType",
          "name": "roleId",
          "type": "uint8"
        },
        {
          "internalType": "string",
          "name": "avatar",
          "type": "string"
        }
      ],
      "stateMutability": "view",
      "type": "function"
    }
  ],
  "bytecode": "0x60a0346100fd57601f620025de38819003918201601f19168301916001600160401b03831184841017610102578084926020946040528339810103126100fd57516001600160a01b0381168082036100fd576001600355156100ac57608052600480546001600160a01b031916331790556040516124c5908162000119823960805181818161067e015281816107c3015281816108cc015281816112ea0152818161163e01526121380152f35b60405162461bcd60e51b815260206004820152602360248201527f496e76616c696420696e737469747574696f6e206d616e61676572206164647260448201526265737360e81b6064820152608490fd5b600080fd5b634e487b7160e01b600052604160045260246000fdfe604060808152600436101561001357600080fd5b60003560e01c80630a86fdff146118b057806323b1ddc6146117fa5780632640d5ea146116045780632faba6ae146115e5578063365b98b2146115525780633913a6791461152d5780634081db51146114f457806342dd0779146107f25780635c828f37146107ae5780636386c1c71461058d578063b4778e2d146104dd578063c291fe62146103e3578063d5f39488146103ba578063ddb7a4de1461022e578063e2842d7914610148578063eac50f6b146101025763f2658413146100d857600080fd5b346100fd573660031901126100fd576100fb6100f2611a09565b60243590612207565b005b600080fd5b50346100fd5760203660031901126100fd5760209061013f610122611a09565b6001600160a01b0316600090815260208190526040902054151590565b90519015158152f35b50346100fd5760003660031901126100fd576004546001600160a01b031633036101eb5760019081549061017b82611e91565b9161018882519384611c89565b808352600084815260207fb10e2d527612073b26eecdfd717e6a320cf44b4afac2b0732d9fcbe2b7fa0cf68186015b8484106101cf578551806101cb8982611a81565b0390f35b60088389926101dd8561232d565b8152019201930192906101b7565b5162461bcd60e51b815260206004820181905260248201527f4f6e6c79206465706c6f7965722063616e207669657720616c6c2075736572736044820152606490fd5b50346100fd5760203660031901126100fd57600435600481101591826100fd576004546001600160a01b0316330361036b576001546000805b82811061031e5750610278906123e6565b9260009060005b838110610293578451806101cb8882611a81565b8660ff60056102a184611bc8565b50015460081c16906103085760048110156103085782146102cb575b6102c690612040565b61027f565b916103006102c6916102e56102df86611bc8565b5061232d565b6102ef828a61247b565b526102fa818961247b565b50612040565b9290506102bd565b634e487b7160e01b600052602160045260246000fd5b8560ff600561032c84611bc8565b50015460081c1690610308576004811015610308578514610356575b61035190612040565b610267565b9061036361035191612040565b919050610348565b5162461bcd60e51b8152602060048201526024808201527f4f6e6c79206465706c6f7965722063616e207669657720757365727320627920604482015263726f6c6560e01b6064820152608490fd5b50346100fd5760003660031901126100fd5760045490516001600160a01b039091168152602090f35b50346100fd57806003193601126100fd576103fc611a09565b906024359160048310156100fd576004546001600160a01b0391908216330361048d576001600160a01b03811660009081526020819052604090205461044890151561204f565b61204f565b166000526000602052600020549060001982019182116104775760056104706100fb93611bc8565b5001612021565b634e487b7160e01b600052601160045260246000fd5b825162461bcd60e51b815260206004820152602360248201527f4f6e6c79206465706c6f7965722063616e20757064617465207573657220726f6044820152626c657360e81b6064820152608490fd5b50346100fd57806003193601126100fd576104f6611a09565b6001600160a01b03908116600090815260026020528290208054602435908110156100fd576101cb9160005260206000209060031b019261053684611caa565b9361054360018201611caa565b9361055060028301611caa565b95600383015460048401549161056d600760058701549601611caa565b955198899860ff808860081c1697169560ff8560a01c169416928a611d50565b50346100fd5760203660031901126100fd576105a7611a09565b906105ca6104438360018060a01b03166000526000602052604060002054151590565b6001600160a01b039182166000908152602081905281902054916000198301838111610477576105f990611bc8565b509061060482611caa565b9261061160018401611caa565b9161061e60028501611caa565b60038501549160ff8360a01c1690600487015492610649600760ff60058b015460081c169901611caa565b9660028410156103085760018414806107a5575b1561078d578651630418ed2160e21b815260048101869052966000886024817f000000000000000000000000000000000000000000000000000000000000000088165afa9788156107825760009861075d575b508060208901519801516003811015610308579a5b81519c8d528c6101606020819201528d016106df91611a42565b908c8203908d01526106f091611a42565b8a810360608c015261070191611a42565b9316608089015260a0880161071591611a67565b60c087015285810360e087015261072b91611a42565b9060038410156103085761074f6101cb938695610100870152610120860190611a74565b838203610140850152611a42565b61077b9198503d806000833e6107738183611c89565b810190611ea8565b96386106b0565b50513d6000823e3d90fd5b865161079881611c6e565b600081529660009a6106c5565b5084151561065d565b50346100fd5760003660031901126100fd57517f00000000000000000000000000000000000000000000000000000000000000006001600160a01b03168152602090f35b50346100fd5760c03660031901126100fd576004356001600160401b0381116100fd57610823903690600401611df4565b6024356001600160401b0381116100fd57610842903690600401611df4565b906044356001600160401b0381116100fd57610862903690600401611df4565b91600260643510156100fd5760a4356001600160401b0381116100fd5761088d903690600401611df4565b33600090815260208190526040902054909390159160016064351480156114835760843580156114215787516306eee7b360e41b8152906020826004817f00000000000000000000000000000000000000000000000000000000000000006001600160a01b03165afa918215611416576000926113e3575b5010156113915786905b6004546001600160a01b03919033908316036112c0575050506000925b15610e7c57600354336000526000602052866000205560015495600160401b871015610c2657600187018060015561096388611bc8565b505087116104775761098390519661097a88611c6e565b60008852611bc8565b50938051906001600160401b038211610c265781906109a28754611c18565b601f8111610e4a575b50602090601f8311600114610dde57600092610dd3575b50508160011b916000199060031b1c19161784555b8051906001600160401b038211610c265781906109f76001870154611c18565b601f8111610d9e575b50602090601f8311600114610d2c57600092610d21575b50508160011b916000199060031b1c19161760018401555b8051906001600160401b038211610c2657610a4d6002850154611c18565b601f8111610cec575b50602090601f8311600114610c7857610ac993929160009183610c6d575b50508160011b916000199060031b1c19161760028401555b6003830180546001600160a01b03191633178155610aad9060643590611ffd565b608435600484015560058301805460ff19166001178155612021565b825160068201936001600160401b038211610c2657600160401b8211610c26576020908554838755808410610c50575b500193600052602060002060005b828110610c3c5750505060079192500181516001600160401b038111610c2657610b318254611c18565b601f8111610be9575b50602092601f8211600114610b855792819293600092610b7a575b50508160011b916000199060031b1c19161790555b610b75600354612040565b600355005b015190503880610b55565b601f198216938360005260206000209160005b868110610bd15750836001959610610bb8575b505050811b019055610b6a565b015160001960f88460031b161c19169055388080610bab565b91926020600181928685015181550194019201610b98565b610c1690836000526020600020601f840160051c81019160208510610c1c575b601f0160051c0190611fe6565b38610b3a565b9091508190610c09565b634e487b7160e01b600052604160045260246000fd5b600190602087519701968184015501610b07565b610c67908760005284846000209182019101611fe6565b38610af9565b015190503880610a74565b906002850160005260206000209160005b601f1985168110610cd45750918391600193610ac99695601f19811610610cbb575b505050811b016002840155610a8c565b015160001960f88460031b161c19169055388080610cab565b91926020600181928685015181550194019201610c89565b610d1b90600286016000526020600020601f850160051c81019160208610610c1c57601f0160051c0190611fe6565b38610a56565b015190503880610a17565b9250600186016000526020600020906000935b601f1984168510610d83576001945083601f19811610610d6a575b505050811b016001840155610a2f565b015160001960f88460031b161c19169055388080610d5a565b81810151835560209485019460019093019290910190610d3f565b610dcd90600188016000526020600020601f850160051c81019160208610610c1c57601f0160051c0190611fe6565b38610a00565b0151905038806109c2565b9250866000526020600020906000935b601f1984168510610e2f576001945083601f19811610610e16575b505050811b0184556109d7565b015160001960f88460031b161c19169055388080610e09565b81810151835560209485019460019093019290910190610dee565b610e7690886000526020600020601f850160051c81019160208610610c1c57601f0160051c0190611fe6565b386109ab565b909433600052600060205260002054600019810190811161047757610ea090611bc8565b50928051906001600160401b038211610c26578190610ebf8654611c18565b601f811161128e575b50602090601f831160011461122257600092611217575b50508160011b916000199060031b1c19161783555b8051906001600160401b038211610c26578190610f146001860154611c18565b601f81116111e2575b50602090601f831160011461117057600092611165575b50508160011b916000199060031b1c19161760018301555b83516001600160401b038111610c2657610f696002840154611c18565b601f8111611130575b506020601f82116001146110ba579080610fba9392600796976000926110af575b50508160011b916000199060031b1c19161760028401555b610aad60643560038501611ffd565b0181516001600160401b038111610c2657610fd58254611c18565b601f811161107d575b50602092601f821160011461101c5792819293600092611011575b5050600019600383901b1c191660019190911b179055005b015190503880610ff9565b601f198216938360005260206000209160005b868110611065575083600195961061104c575b505050811b019055005b015160001960f88460031b161c19169055388080611042565b9192602060018192868501518155019401920161102f565b6110a990836000526020600020601f840160051c81019160208510610c1c57601f0160051c0190611fe6565b38610fde565b015190503880610f93565b6002840160005260206000209560005b601f198416811061111857509160079596600192610fba959483601f198116106110ff575b505050811b016002840155610fab565b015160001960f88460031b161c191690553880806110ef565b828201518855600190970196602092830192016110ca565b61115f90600285016000526020600020601f840160051c81019160208510610c1c57601f0160051c0190611fe6565b38610f72565b015190503880610f34565b9250600185016000526020600020906000935b601f19841685106111c7576001945083601f198116106111ae575b505050811b016001830155610f4c565b015160001960f88460031b161c1916905538808061119e565b81810151835560209485019460019093019290910190611183565b61121190600187016000526020600020601f850160051c81019160208610610c1c57601f0160051c0190611fe6565b38610f1d565b015190503880610edf565b9250856000526020600020906000935b601f1984168510611273576001945083601f1981161061125a575b505050811b018355610ef4565b015160001960f88460031b161c1916905538808061124d565b81810151835560209485019460019093019290910190611232565b6112ba90876000526020600020601f850160051c81019160208610610c1c57601f0160051c0190611fe6565b38610ec8565b80611386575b1561137c576000602491835192838092630418ed2160e21b825260843560048301527f0000000000000000000000000000000000000000000000000000000000000000165afa90811561137157600091611356575b50018051600381101561030857611335575060029261092c565b5160038110156103085760010361134e5760039261092c565b60019261092c565b61136b91503d806000833e6107738183611c89565b3861131b565b82513d6000823e3d90fd5b505060019261092c565b5060843515156112c6565b865162461bcd60e51b815260206004820152602560248201527f4173736f63696174656420696e737469747574696f6e20646f6573206e6f7420604482015264195e1a5cdd60da1b6064820152608490fd5b9091506020813d821161140e575b816113fe60209383611c89565b810103126100fd57519038610905565b3d91506113f1565b89513d6000823e3d90fd5b875162461bcd60e51b815260206004820152603560248201527f496e737469747574696f6e616c2075736572206d757374206173736f6369617460448201527432903bb4ba341030b71034b739ba34ba3aba34b7b760591b6064820152608490fd5b60843561149157869061090f565b865162461bcd60e51b815260206004820152603660248201527f506572736f6e616c20757365722073686f756c64206e6f74206173736f6369616044820152753a32903bb4ba341030b71034b739ba34ba3aba34b7b760511b6064820152608490fd5b50346100fd5760203660031901126100fd576020906001600160a01b03611519611a09565b166000526000825280600020549051908152f35b50346100fd5760203660031901126100fd5760209061013f61154d611a09565b612091565b50346100fd5760203660031901126100fd576004356001548110156100fd5761157a90611bc8565b506101cb61158782611caa565b9261159460018401611caa565b926115a160028201611caa565b9360038201546004830154906115be600760058601549501611caa565b945197889760ff808760081c1696169460ff8460a01c169360018060a01b0316928a611d50565b50346100fd5760003660031901126100fd576020906003549051908152f35b50346100fd5760203660031901126100fd578051630418ed2160e21b815260048035908201819052906001600160a01b03906000816024817f000000000000000000000000000000000000000000000000000000000000000086165afa9081156117ef5782916060916000916117d4575b5001511633149081156117c6575b501561174957600154916000805b84811061171157506116a2906123e6565b9160009060005b8581106116bd578351806101cb8782611a81565b8160046116c983611bc8565b500154146116e0575b6116db90612040565b6116a9565b916117096116db916116f46102df86611bc8565b6116fe828961247b565b526102fa818861247b565b9290506116d2565b83600461171d83611bc8565b50015414611734575b61172f90612040565b611691565b9061174161172f91612040565b919050611726565b815162461bcd60e51b815260206004820152604a60248201527f4f6e6c7920696e737469747574696f6e20726573706f6e7369626c652070657260448201527f736f6e206f72206465706c6f7965722063616e207669657720696e737469747560648201526974696f6e20757365727360b01b608482015260a490fd5b905060045416331438611683565b6117e991503d806000833e6107738183611c89565b38611675565b84513d6000823e3d90fd5b50346100fd57602090816003193601126100fd57611816611a09565b6001600160a01b03811660009081526020819052604090205461183a90151561204f565b6001600160a01b0316600090815280835281902054600019810190811161047757600661186961187092611bc8565b50016122de565b815192839281808501918186528451809352850193019160005b82811061189957505050500390f35b83518552869550938101939281019260010161188a565b50346100fd57806003193601126100fd576118c9611a09565b906024908135926118f26104438260018060a01b03166000526000602052604060002054151590565b6001600160a01b031660009081526020819052205460001991908281019081116119f457916119218493611bc8565b506006019060005b8254808210156100fb57859061193f83866121ef565b929054600393841b1c1461195d57505061195890612040565b611929565b909550828195939495019081116119df579061198c61197f6119a593876121ef565b905490881b1c91866121ef565b90919082549060031b91821b91600019901b1916179055565b82549081156119cb57508101926119bc84846121ef565b8154921b9290921b1916905555005b634e487b7160e01b60009081526031600452fd5b82634e487b7160e01b60005260116004526000fd5b50634e487b7160e01b60009081526011600452fd5b600435906001600160a01b03821682036100fd57565b60005b838110611a325750506000910152565b8181015183820152602001611a22565b90602091611a5b81518092818552858086019101611a1f565b601f01601f1916010190565b9060028210156103085752565b9060048210156103085752565b602080820190808352835180925260409283810182858560051b84010196019460009081935b868510611ab957505050505050505090565b9091929394959697603f1982820301855286895191611b07611af7611ae78551610140808652850190611a42565b8486015184820386860152611a42565b8685015183820388850152611a42565b6060848101516001600160a01b031690830152608080850151919291611b2f91830190611a67565b60a0808501519082015260c080850151151590820152611b5760e08086015190830190611a74565b6101009182850151928282039083015283808451928381520193019088905b808210611bae575050508291600194611b9c926101208092015191818403910152611a42565b9a019501950193969594929190611aa7565b825185528c95948501949092019160019190910190611b76565b600154811015611c0257600160005260031b7fb10e2d527612073b26eecdfd717e6a320cf44b4afac2b0732d9fcbe2b7fa0cf60190600090565b634e487b7160e01b600052603260045260246000fd5b90600182811c92168015611c48575b6020831014611c3257565b634e487b7160e01b600052602260045260246000fd5b91607f1691611c27565b61014081019081106001600160401b03821117610c2657604052565b602081019081106001600160401b03821117610c2657604052565b90601f801991011681019081106001600160401b03821117610c2657604052565b9060405191826000825492611cbe84611c18565b908184526001948581169081600014611d2d5750600114611cea575b5050611ce892500383611c89565b565b9093915060005260209081600020936000915b818310611d15575050611ce893508201013880611cda565b85548884018501529485019487945091830191611cfd565b915050611ce894506020925060ff191682840152151560051b8201013880611cda565b959194611d98611dd69a9894611d8a611dc898611d7c611db2969d999d8c6101208091528d0190611a42565b908b820360208d0152611a42565b9089820360408b0152611a42565b6001600160a01b0390991660608801526080870190611a67565b60a0850152151560c084015260e0830190611a74565b610100818403910152611a42565b90565b6001600160401b038111610c2657601f01601f191660200190565b81601f820112156100fd57803590611e0b82611dd9565b92611e196040519485611c89565b828452602083830101116100fd57816000926020809301838601378301015290565b81601f820112156100fd578051611e5181611dd9565b92611e5f6040519485611c89565b818452602082840101116100fd57611dd69160208085019101611a1f565b51906001600160a01b03821682036100fd57565b6001600160401b038111610c265760051b60200190565b60209182828203126100fd5781516001600160401b03928382116100fd5701916101009384848403126100fd5760405194850185811083821117610c265760405283518552808401518281116100fd5783611f04918601611e3b565b81860152604084015160038110156100fd576040860152611f2760608501611e7d565b606086015260808401518281116100fd5784019083601f830112156100fd57815191611f5283611e91565b92611f606040519485611c89565b808452828085019160051b830101918683116100fd578301905b828210611fcf5750505050608085015260a083015160a085015260c08301518181116100fd5782611fac918501611e3b565b60c085015260e08301519081116100fd57611fc79201611e3b565b60e082015290565b838091611fdb84611e7d565b815201910190611f7a565b818110611ff1575050565b60008155600101611fe6565b90600281101561030857815460ff60a01b191660a09190911b60ff60a01b16179055565b9060048110156103085761ff0082549160081b169061ff001916179055565b60001981146104775760010190565b1561205657565b60405162461bcd60e51b8152602060048201526013602482015272155cd95c881b9bdd081c9959da5cdd195c9959606a1b6044820152606490fd5b6001600160a01b0381166000908152602081905260409020546120b590151561204f565b6001600160a01b0390811660008181526020819052604081205490919060001981019081116121db576120e790611bc8565b5060ff600382015460a01c1660028110156121c757600114806121ba575b612110575050905090565b9060446004602093015460405195869384926318078eb560e31b8452600484015260248301527f0000000000000000000000000000000000000000000000000000000000000000165afa9182156121ad57819261216c57505090565b9091506020813d82116121a5575b8161218760209383611c89565b810103126121a1575190811515820361219e575090565b80fd5b5080fd5b3d915061217a565b50604051903d90823e3d90fd5b5060048101541515612105565b634e487b7160e01b84526021600452602484fd5b634e487b7160e01b83526011600452602483fd5b8054821015611c025760005260206000200190600090565b6001600160a01b03811660009081526020819052604090205461222b90151561204f565b6001600160a01b031660009081526020819052604081205460001981019081116122ca5761225890611bc8565b50600601805491805b83811061229e5750600160401b83101561228a57508161198c916001611ce895940181556121ef565b634e487b7160e01b81526041600452602490fd5b846122a982856121ef565b90549060031b1c146122c3576122be90612040565b612261565b5050505050565b634e487b7160e01b82526011600452602482fd5b9060405191828154918282526020928383019160005283600020936000905b82821061231357505050611ce892500383611c89565b8554845260019586019588955093810193909101906122fd565b9060405161233a81611c52565b809261234581611caa565b825261235360018201611caa565b602083015261236460028201611caa565b604083015260038101546001600160a01b038116606084015260a01c60ff166002811015610308576080830152600481015460a083015260ff6005820154818116151560c085015260081c169060048210156103085760076123e1916101209360e08601526123d5600682016122de565b61010086015201611caa565b910152565b906123f082611e91565b6040906123ff82519182611c89565b8381528093612410601f1991611e91565b019160005b8381106124225750505050565b602090825161243081611c52565b606080825283908082840152808684015260008184015260006080840152600060a0840152600060c0840152600060e084015280610100840152610120830152828601015201612415565b8051821015611c025760209160051b01019056fea26469706673582212202bbcb86382ce3410e0a5f91649edfd6f6b0d111ea6a384ddfb84fd2e2fea555164736f6c63430008130033",
  "linkReferences": {},
  "deployedLinkReferences": {}
}