{
  "_format": "hh-sol-artifact-1",
  "contractName": "UserManager",
  "sourceName": "contracts/UserManager.sol",
  "abi": [
    {
      "inputs": [
        {
          "internalType": "address",
          "name": "_institutionManagerAddress",
          "type": "address"
        }
      ],
      "stateMutability": "nonpayable",
      "type": "constructor"
    },
    {
      "anonymous": false,
      "inputs": [
        {
          "indexed": true,
          "internalType": "address",
          "name": "user",
          "type": "address"
        },
        {
          "indexed": false,
          "internalType": "uint256",
          "name": "petId",
          "type": "uint256"
        },
        {
          "indexed": false,
          "internalType": "uint256",
          "name": "timestamp",
          "type": "uint256"
        }
      ],
      "name": "PetAddedToUser",
      "type": "event"
    },
    {
      "anonymous": false,
      "inputs": [
        {
          "indexed": true,
          "internalType": "address",
          "name": "user",
          "type": "address"
        },
        {
          "indexed": false,
          "internalType": "uint256",
          "name": "petId",
          "type": "uint256"
        },
        {
          "indexed": false,
          "internalType": "uint256",
          "name": "timestamp",
          "type": "uint256"
        }
      ],
      "name": "PetRemovedFromUser",
      "type": "event"
    },
    {
      "anonymous": false,
      "inputs": [
        {
          "indexed": true,
          "internalType": "address",
          "name": "user",
          "type": "address"
        },
        {
          "indexed": false,
          "internalType": "string",
          "name": "name",
          "type": "string"
        },
        {
          "indexed": false,
          "internalType": "enum IMyPetBase.UserType",
          "name": "userType",
          "type": "uint8"
        },
        {
          "indexed": false,
          "internalType": "uint256",
          "name": "orgId",
          "type": "uint256"
        },
        {
          "indexed": false,
          "internalType": "uint256",
          "name": "timestamp",
          "type": "uint256"
        }
      ],
      "name": "UserProfileSet",
      "type": "event"
    },
    {
      "anonymous": false,
      "inputs": [
        {
          "indexed": true,
          "internalType": "address",
          "name": "user",
          "type": "address"
        },
        {
          "indexed": false,
          "internalType": "enum IMyPetBase.RoleType",
          "name": "oldRole",
          "type": "uint8"
        },
        {
          "indexed": false,
          "internalType": "enum IMyPetBase.RoleType",
          "name": "newRole",
          "type": "uint8"
        },
        {
          "indexed": false,
          "internalType": "uint256",
          "name": "timestamp",
          "type": "uint256"
        }
      ],
      "name": "UserRoleUpdated",
      "type": "event"
    },
    {
      "inputs": [
        {
          "internalType": "address",
          "name": "_user",
          "type": "address"
        },
        {
          "internalType": "uint256",
          "name": "_petId",
          "type": "uint256"
        }
      ],
      "name": "addPetToUser",
      "outputs": [],
      "stateMutability": "nonpayable",
      "type": "function"
    },
    {
      "inputs": [
        {
          "internalType": "address",
          "name": "_user",
          "type": "address"
        }
      ],
      "name": "checkUserIsRegistered",
      "outputs": [
        {
          "internalType": "bool",
          "name": "",
          "type": "bool"
        }
      ],
      "stateMutability": "view",
      "type": "function"
    },
    {
      "inputs": [],
      "name": "deployer",
      "outputs": [
        {
          "internalType": "address",
          "name": "",
          "type": "address"
        }
      ],
      "stateMutability": "view",
      "type": "function"
    },
    {
      "inputs": [],
      "name": "getAllUsers",
      "outputs": [
        {
          "components": [
            {
              "internalType": "string",
              "name": "name",
              "type": "string"
            },
            {
              "internalType": "string",
              "name": "email",
              "type": "string"
            },
            {
              "internalType": "string",
              "name": "phone",
              "type": "string"
            },
            {
              "internalType": "address",
              "name": "wallet",
              "type": "address"
            },
            {
              "internalType": "enum IMyPetBase.UserType",
              "name": "userType",
              "type": "uint8"
            },
            {
              "internalType": "uint256",
              "name": "orgId",
              "type": "uint256"
            },
            {
              "internalType": "bool",
              "name": "isProfileSet",
              "type": "bool"
            },
            {
              "internalType": "enum IMyPetBase.RoleType",
              "name": "roleId",
              "type": "uint8"
            },
            {
              "internalType": "uint256[]",
              "name": "petIds",
              "type": "uint256[]"
            },
            {
              "internalType": "string",
              "name": "avatar",
              "type": "string"
            }
          ],
          "internalType": "struct IMyPetBase.User[]",
          "name": "",
          "type": "tuple[]"
        }
      ],
      "stateMutability": "view",
      "type": "function"
    },
    {
      "inputs": [
        {
          "internalType": "address",
          "name": "_user",
          "type": "address"
        }
      ],
      "name": "getUserInfo",
      "outputs": [
        {
          "internalType": "uint256",
          "name": "id",
          "type": "uint256"
        },
        {
          "internalType": "string",
          "name": "name",
          "type": "string"
        },
        {
          "internalType": "string",
          "name": "email",
          "type": "string"
        },
        {
          "internalType": "string",
          "name": "phone",
          "type": "string"
        },
        {
          "internalType": "address",
          "name": "wallet",
          "type": "address"
        },
        {
          "internalType": "enum IMyPetBase.UserType",
          "name": "userType",
          "type": "uint8"
        },
        {
          "internalType": "uint256",
          "name": "orgId",
          "type": "uint256"
        },
        {
          "internalType": "string",
          "name": "orgName",
          "type": "string"
        },
        {
          "internalType": "enum IMyPetBase.InstitutionType",
          "name": "orgType",
          "type": "uint8"
        },
        {
          "internalType": "enum IMyPetBase.RoleType",
          "name": "roleId",
          "type": "uint8"
        },
        {
          "internalType": "string",
          "name": "avatar",
          "type": "string"
        }
      ],
      "stateMutability": "view",
      "type": "function"
    },
    {
      "inputs": [
        {
          "internalType": "address",
          "name": "_user",
          "type": "address"
        }
      ],
      "name": "getUserPetIds",
      "outputs": [
        {
          "internalType": "uint256[]",
          "name": "",
          "type": "uint256[]"
        }
      ],
      "stateMutability": "view",
      "type": "function"
    },
    {
      "inputs": [],
      "name": "institutionManagerAddress",
      "outputs": [
        {
          "internalType": "address",
          "name": "",
          "type": "address"
        }
      ],
      "stateMutability": "view",
      "type": "function"
    },
    {
      "inputs": [
        {
          "internalType": "address",
          "name": "_user",
          "type": "address"
        },
        {
          "internalType": "uint256",
          "name": "_petId",
          "type": "uint256"
        }
      ],
      "name": "removePetFromUser",
      "outputs": [],
      "stateMutability": "nonpayable",
      "type": "function"
    },
    {
      "inputs": [
        {
          "internalType": "string",
          "name": "_name",
          "type": "string"
        },
        {
          "internalType": "string",
          "name": "_email",
          "type": "string"
        },
        {
          "internalType": "string",
          "name": "_phone",
          "type": "string"
        },
        {
          "internalType": "enum IMyPetBase.UserType",
          "name": "_userType",
          "type": "uint8"
        },
        {
          "internalType": "uint256",
          "name": "_orgId",
          "type": "uint256"
        },
        {
          "internalType": "string",
          "name": "_avatar",
          "type": "string"
        }
      ],
      "name": "setUserProfile",
      "outputs": [],
      "stateMutability": "nonpayable",
      "type": "function"
    },
    {
      "inputs": [
        {
          "internalType": "address",
          "name": "_user",
          "type": "address"
        },
        {
          "internalType": "enum IMyPetBase.RoleType",
          "name": "_roleId",
          "type": "uint8"
        }
      ],
      "name": "updateUserRole",
      "outputs": [],
      "stateMutability": "nonpayable",
      "type": "function"
    },
    {
      "inputs": [
        {
          "internalType": "address",
          "name": "",
          "type": "address"
        },
        {
          "internalType": "uint256",
          "name": "",
          "type": "uint256"
        }
      ],
      "name": "userAddress",
      "outputs": [
        {
          "internalType": "string",
          "name": "name",
          "type": "string"
        },
        {
          "internalType": "string",
          "name": "email",
          "type": "string"
        },
        {
          "internalType": "string",
          "name": "phone",
          "type": "string"
        },
        {
          "internalType": "address",
          "name": "wallet",
          "type": "address"
        },
        {
          "internalType": "enum IMyPetBase.UserType",
          "name": "userType",
          "type": "uint8"
        },
        {
          "internalType": "uint256",
          "name": "orgId",
          "type": "uint256"
        },
        {
          "internalType": "bool",
          "name": "isProfileSet",
          "type": "bool"
        },
        {
          "internalType": "enum IMyPetBase.RoleType",
          "name": "roleId",
          "type": "uint8"
        },
        {
          "internalType": "string",
          "name": "avatar",
          "type": "string"
        }
      ],
      "stateMutability": "view",
      "type": "function"
    },
    {
      "inputs": [],
      "name": "userIdCounter",
      "outputs": [
        {
          "internalType": "uint256",
          "name": "",
          "type": "uint256"
        }
      ],
      "stateMutability": "view",
      "type": "function"
    },
    {
      "inputs": [
        {
          "internalType": "address",
          "name": "",
          "type": "address"
        }
      ],
      "name": "userIds",
      "outputs": [
        {
          "internalType": "uint256",
          "name": "",
          "type": "uint256"
        }
      ],
      "stateMutability": "view",
      "type": "function"
    },
    {
      "inputs": [
        {
          "internalType": "uint256",
          "name": "",
          "type": "uint256"
        }
      ],
      "name": "users",
      "outputs": [
        {
          "internalType": "string",
          "name": "name",
          "type": "string"
        },
        {
          "internalType": "string",
          "name": "email",
          "type": "string"
        },
        {
          "internalType": "string",
          "name": "phone",
          "type": "string"
        },
        {
          "internalType": "address",
          "name": "wallet",
          "type": "address"
        },
        {
          "internalType": "enum IMyPetBase.UserType",
          "name": "userType",
          "type": "uint8"
        },
        {
          "internalType": "uint256",
          "name": "orgId",
          "type": "uint256"
        },
        {
          "internalType": "bool",
          "name": "isProfileSet",
          "type": "bool"
        },
        {
          "internalType": "enum IMyPetBase.RoleType",
          "name": "roleId",
          "type": "uint8"
        },
        {
          "internalType": "string",
          "name": "avatar",
          "type": "string"
        }
      ],
      "stateMutability": "view",
      "type": "function"
    }
  ],
  "bytecode": "0x60a0346100ed57601f6120fa38819003918201601f19168301916001600160401b038311848410176100f2578084926020946040528339810103126100ed57516001600160a01b0381168082036100ed5760016003551561009c57608052600480546001600160a01b03191633179055604051611ff19081610109823960805181818161074a015281816108930152818161099b01526113fe0152f35b60405162461bcd60e51b815260206004820152602360248201527f496e76616c696420696e737469747574696f6e206d616e61676572206164647260448201526265737360e81b6064820152608490fd5b600080fd5b634e487b7160e01b600052604160045260246000fdfe6080604052600436101561001257600080fd5b60e0600035811c9081630a86fdff1461179357816323b1ddc6146116db5781632faba6ae146116bd578163365b98b21461162a5781634081db51146115f057816342dd0779146108c25781635c828f371461087d5781636386c1c714610657578163b4778e2d146105a6578163c291fe6214610457578163d5f394881461042e578163e2842d791461012a57508063eac50f6b146100e55763f2658413146100b957600080fd5b346100e05760403660031901126100e0576100de6100d5611922565b60243590611e5f565b005b600080fd5b346100e05760203660031901126100e0576020610120610103611922565b6001600160a01b0316600090815260208190526040902054151590565b6040519015158152f35b346100e05760003660031901126100e0576004546001600160a01b039190821633036103ea57600180549261015e84611c47565b61016b60405191826119dd565b84815260208082019586856000527fb10e2d527612073b26eecdfd717e6a320cf44b4afac2b0732d9fcbe2b7fa0cf66000915b8383106102de57505050506040519481860192828752518093526040860160408460051b88010197946000925b8584106101d857888a0389f35b909192939495968099603f198a82030185528689516102286102166102068351610140808852870190611ac7565b8484015186820386880152611ac7565b60408301518582036040870152611ac7565b9260608781840151169082015261024760808084015190830190611aec565b60a0808301519082015260c08083015115159082015261026d8683015187830190611af9565b610100938483015194828203908301528380865192838152019501906000905b878183106102c65750505050926102b39183946101208092015191818403910152611ac7565b9b990197969591909101930191906101cb565b83518852968601968d9690930192919091019061028d565b604099979996949596519061014082018281106001600160401b038211176103d45760405261030c836119fe565b82526103198b84016119fe565b8783015260029061032b8285016119fe565b60408401526003840154878116606085015260ff928360a092831c16908110156103be576080850152600485015490840152600584015491808316151560c0850152600892831c169060048210156103be578389928d8f96015261039160068701611f6c565b6101008201526103a3600787016119fe565b6101208201528152019201920191909896989594939561019e565b634e487b7160e01b600052602160045260246000fd5b634e487b7160e01b600052604160045260246000fd5b606460405162461bcd60e51b815260206004820152602060248201527f4f6e6c79206465706c6f7965722063616e207669657720616c6c2075736572736044820152fd5b346100e05760003660031901126100e0576004546040516001600160a01b039091168152602090f35b346100e05760403660031901126100e057610470611922565b6024359060048210156100e0576004546001600160a01b03919082163303610555576001600160a01b0381166000908152602081905260409020546104bb901515611e05565b611e05565b1690816000526000602052604060002054600019810190811161053f577f311baed1215c680d3e61bbe2e1cb83f574b5d7a2b2f5bcc23897cbb8d623a99791610536600561050a606094611938565b50019161051f8160ff855460081c1694611dd7565b61052c6040518094611af9565b6020830190611af9565b426040820152a2005b634e487b7160e01b600052601160045260246000fd5b60405162461bcd60e51b815260206004820152602360248201527f4f6e6c79206465706c6f7965722063616e20757064617465207573657220726f6044820152626c657360e81b6064820152608490fd5b346100e05760403660031901126100e0576105bf611922565b60243560018060a01b038092166000526002602052604060002080548210156100e05760005260206000209060031b016106536105fb826119fe565b610607600184016119fe565b92610614600282016119fe565b9460038201546004830154906106316007600586015495016119fe565b9460405198899860ff808860081c1697169560ff8560a01c169416928a611b06565b0390f35b346100e05760203660031901126100e057610670611922565b6001600160a01b038116600090815260208190526040902054610694901515611e05565b6001600160a01b0390811660009081526020819052604090205491600019830183811161053f576106c490611938565b50906106cf826119fe565b926106dc600184016119fe565b906106e9600285016119fe565b9260038501549160ff8360a01c16600487015491610714600760ff60058b015460081c1699016119fe565b9660028310156103be576001831480610874575b1561085b57604051630418ed2160e21b815260048101859052966000886024817f000000000000000000000000000000000000000000000000000000000000000087165afa97881561084f5760009861082a575b506040602089015198015160038110156103be579a5b6040519c8d528c6101606020819201528d016107ad91611ac7565b8c810360408e01526107be91611ac7565b8b810360608d01526107cf91611ac7565b941660808a015260a089016107e391611aec565b60c0880152868203908701526107f891611ac7565b9060038410156103be5761081c610653938695610100870152610120860190611af9565b838203610140850152611ac7565b6108489198503d806000833e61084081836119dd565b810190611c5e565b968c61077c565b6040513d6000823e3d90fd5b604051610867816119c2565b600081529660009a610792565b50831515610728565b346100e05760003660031901126100e0576040517f00000000000000000000000000000000000000000000000000000000000000006001600160a01b03168152602090f35b346100e05760c03660031901126100e0576004356001600160401b0381116100e0576108f2903690600401611baa565b6024356001600160401b0381116100e057610911903690600401611baa565b906044356001600160401b0381116100e057610931903690600401611baa565b91600260643510156100e05760a4356001600160401b0381116100e05761095c903690600401611baa565b33600090815260208190526040902054909390156001606435148015611584576084358015611521576040516306eee7b360e41b8152906020826004817f00000000000000000000000000000000000000000000000000000000000000006001600160a01b03165afa91821561084f576000926114ee575b50101561149b575b6004546001600160a01b03919033908316036113d35750506000905b15610f855760035433600052600060205260406000205560015491600160401b8310156103d4576001830180600155610a3084611938565b5050831161053f57610a5160405193610a48856119c2565b60008552611938565b509385516001600160401b0381116103d457610a6d8654611988565b601f8111610f53575b50806020601f8211600114610eec57600091610ee1575b508160011b916000199060031b1c19161785555b8051906001600160401b0382116103d4578190610ac16001880154611988565b601f8111610eac575b50602090601f8311600114610e3a57600092610e2f575b50508160011b916000199060031b1c19161760018501555b8051906001600160401b0382116103d457610b176002860154611988565b601f8111610dfa575b50602090601f8311600114610d8657610b9393929160009183610d7b575b50508160011b916000199060031b1c19161760028501555b6003840180546001600160a01b03191633178155610b779060643590611db3565b608435600485015560058401805460ff19166001178155611dd7565b600682018151916001600160401b0383116103d457600160401b83116103d4576020908254848455808510610d5e575b500190600052602060002060005b838110610d4a575050505060070182516001600160401b0381116103d457610bf98254611988565b601f8111610d0d575b506020601f8211600114610ca75781929394600092610c9c575b50508160011b916000199060031b1c19161790555b610c3c600354611df6565b6003555b7f1542cfe39c964a4ea452b6989ff0468389586afa2ac8ec68425b43f6c34c8822610c7660405192608084526080840190611ac7565b91610c8660208201606435611aec565b60843560408201524260608201528033930390a2005b015190508480610c1c565b601f198216908360005260206000209160005b818110610cf557509583600195969710610cdc575b505050811b019055610c31565b015160001960f88460031b161c19169055848080610ccf565b9192602060018192868b015181550194019201610cba565b610d3a90836000526020600020601f840160051c81019160208510610d40575b601f0160051c0190611d9c565b84610c02565b9091508190610d2d565b600190602084519401938184015501610bd1565b610d75908460005285846000209182019101611d9c565b87610bc3565b015190508880610b3e565b906002860160005260206000209160005b601f1985168110610de25750918391600193610b939695601f19811610610dc9575b505050811b016002850155610b56565b015160001960f88460031b161c19169055888080610db9565b91926020600181928685015181550194019201610d97565b610e2990600287016000526020600020601f850160051c81019160208610610d4057601f0160051c0190611d9c565b87610b20565b015190508880610ae1565b9250600187016000526020600020906000935b601f1984168510610e91576001945083601f19811610610e78575b505050811b016001850155610af9565b015160001960f88460031b161c19169055888080610e68565b81810151835560209485019460019093019290910190610e4d565b610edb90600189016000526020600020601f850160051c81019160208610610d4057601f0160051c0190611d9c565b89610aca565b905087015189610a8d565b91508660005260206000206000925b601f1983168410610f3b576001935082601f19811610610f22575b5050811b018555610aa1565b89015160001960f88460031b161c191690558980610f16565b89810151825560209384019360019092019101610efb565b610f7f90876000526020600020601f840160051c81019160208510610d4057601f0160051c0190611d9c565b88610a76565b90336000526000602052604060002054600019810190811161053f57610faa90611938565b509284516001600160401b0381116103d457610fc68554611988565b601f81116113a1575b50806020601f821160011461133a5760009161132f575b508160011b916000199060031b1c19161784555b80516001600160401b0381116103d45780600186019261101a8454611988565b601f81116112fd575b50602090601f83116001146112975760009261128c575b50508160011b916000199060031b1c19161790555b8051906001600160401b0382116103d45761106d6002850154611988565b601f8111611257575b50602090601f83116001146111e057918060079594926110db946000926111d5575b50508160011b916000199060031b1c19161760028401555b6110bf60643560038501611db3565b608435600484015560058301805460ff19166001178155611dd7565b0182516001600160401b0381116103d4576110f68254611988565b601f81116111a3575b506020601f821160011461113d5781929394600092611132575b50508160011b916000199060031b1c1916179055610c40565b015190508480611119565b601f198216908360005260206000209160005b81811061118b57509583600195969710611172575b505050811b019055610c40565b015160001960f88460031b161c19169055848080611165565b9192602060018192868b015181550194019201611150565b6111cf90836000526020600020601f840160051c81019160208510610d4057601f0160051c0190611d9c565b846110ff565b015190508880611098565b906002850160005260206000209160005b601f198516811061123f57509260079594926001926110db9583601f19811610611226575b505050811b0160028401556110b0565b015160001960f88460031b161c19169055888080611216565b919260206001819286850151815501940192016111f1565b61128690600286016000526020600020601f850160051c81019160208610610d4057601f0160051c0190611d9c565b86611076565b01519050888061103a565b6000858152602081209350601f198516905b8181106112e557509084600195949392106112cc575b505050811b01905561104f565b015160001960f88460031b161c191690558880806112bf565b929360206001819287860151815501950193016112a9565b61132990856000526020600020601f850160051c81019160208610610d4057601f0160051c0190611d9c565b89611023565b905086015188610fe6565b91508560005260206000206000925b601f1983168410611389576001935082601f19811610611370575b5050811b018455610ffa565b88015160001960f88460031b161c191690558880611364565b88810151825560209384019360019092019101611349565b6113cd90866000526020600020601f840160051c81019160208510610d4057601f0160051c0190611d9c565b87610fcf565b80611490575b1561148757600060249160405192838092630418ed2160e21b825260843560048301527f0000000000000000000000000000000000000000000000000000000000000000165afa801561084f5760409160009161146c575b5001805160038110156103be5761144b57506002906109f8565b5160038110156103be57600103611464576003906109f8565b6001906109f8565b61148191503d806000833e61084081836119dd565b87611431565b506001906109f8565b5060843515156113d9565b60405162461bcd60e51b815260206004820152602560248201527f4173736f63696174656420696e737469747574696f6e20646f6573206e6f7420604482015264195e1a5cdd60da1b6064820152608490fd5b9091506020813d8211611519575b81611509602093836119dd565b810103126100e0575190886109d4565b3d91506114fc565b60405162461bcd60e51b815260206004820152603560248201527f496e737469747574696f6e616c2075736572206d757374206173736f6369617460448201527432903bb4ba341030b71034b739ba34ba3aba34b7b760591b6064820152608490fd5b608435156109dc5760405162461bcd60e51b815260206004820152603660248201527f506572736f6e616c20757365722073686f756c64206e6f74206173736f6369616044820152753a32903bb4ba341030b71034b739ba34ba3aba34b7b760511b6064820152608490fd5b346100e05760203660031901126100e0576001600160a01b03611611611922565b1660005260006020526020604060002054604051908152f35b346100e05760203660031901126100e0576004356001548110156100e05761165190611938565b5061165b816119fe565b9061065361166b600183016119fe565b611677600284016119fe565b9260038101549160048201546116946007600585015494016119fe565b9360405197889760ff808760081c1696169460ff8460a01c169360018060a01b0316928a611b06565b346100e05760003660031901126100e0576020600354604051908152f35b346100e0576020806003193601126100e0576116f5611922565b6001600160a01b038116600090815260208190526040902054611719901515611e05565b6001600160a01b031660009081528082526040902054600019810190811161053f57600661174961175092611938565b5001611f6c565b906040519181839283018184528251809152816040850193019160005b82811061177c57505050500390f35b83518552869550938101939281019260010161176d565b346100e05760403660031901126100e0576117ac611922565b60248035916117d36104b68260018060a01b03166000526000602052604060002054151590565b6001600160a01b031660008181526020818152604090912054919360001993909284810190811161190d5761180790611938565b5060060160005b8154808210156100de5785906118248385611e47565b929054600393841b1c1461184257505061183d90611df6565b61180e565b87819894959392969798019081116118f8579061187261186561188b9387611e47565b905490881b1c9186611e47565b90919082549060031b91821b91600019901b1916179055565b82549081156118e4575091817fddd73b49438f7e3b3481115693e2e491143891f3c9bb712a745a3fd9a898489d9694926040969401926118cb8484611e47565b81939154921b1b191690555582519182524290820152a2005b634e487b7160e01b60009081526031600452fd5b82634e487b7160e01b60005260116004526000fd5b50634e487b7160e01b60009081526011600452fd5b600435906001600160a01b03821682036100e057565b60015481101561197257600160005260031b7fb10e2d527612073b26eecdfd717e6a320cf44b4afac2b0732d9fcbe2b7fa0cf60190600090565b634e487b7160e01b600052603260045260246000fd5b90600182811c921680156119b8575b60208310146119a257565b634e487b7160e01b600052602260045260246000fd5b91607f1691611997565b602081019081106001600160401b038211176103d457604052565b90601f801991011681019081106001600160401b038211176103d457604052565b9060405191826000825492611a1284611988565b908184526001948581169081600014611a815750600114611a3e575b5050611a3c925003836119dd565b565b9093915060005260209081600020936000915b818310611a69575050611a3c93508201013880611a2e565b85548884018501529485019487945091830191611a51565b915050611a3c94506020925060ff191682840152151560051b8201013880611a2e565b60005b838110611ab75750506000910152565b8181015183820152602001611aa7565b90602091611ae081518092818552858086019101611aa4565b601f01601f1916010190565b9060028210156103be5752565b9060048210156103be5752565b959194611b4e611b8c9a9894611b40611b7e98611b32611b68969d999d8c6101208091528d0190611ac7565b908b820360208d0152611ac7565b9089820360408b0152611ac7565b6001600160a01b0390991660608801526080870190611aec565b60a0850152151560c084015260e0830190611af9565b610100818403910152611ac7565b90565b6001600160401b0381116103d457601f01601f191660200190565b81601f820112156100e057803590611bc182611b8f565b92611bcf60405194856119dd565b828452602083830101116100e057816000926020809301838601378301015290565b81601f820112156100e0578051611c0781611b8f565b92611c1560405194856119dd565b818452602082840101116100e057611b8c9160208085019101611aa4565b51906001600160a01b03821682036100e057565b6001600160401b0381116103d45760051b60200190565b60209182828203126100e05781516001600160401b03928382116100e05701916101009384848403126100e057604051948501858110838211176103d45760405283518552808401518281116100e05783611cba918601611bf1565b81860152604084015160038110156100e0576040860152611cdd60608501611c33565b606086015260808401518281116100e05784019083601f830112156100e057815191611d0883611c47565b92611d1660405194856119dd565b808452828085019160051b830101918683116100e0578301905b828210611d855750505050608085015260a083015160a085015260c08301518181116100e05782611d62918501611bf1565b60c085015260e08301519081116100e057611d7d9201611bf1565b60e082015290565b838091611d9184611c33565b815201910190611d30565b818110611da7575050565b60008155600101611d9c565b9060028110156103be57815460ff60a01b191660a09190911b60ff60a01b16179055565b9060048110156103be5761ff0082549160081b169061ff001916179055565b600019811461053f5760010190565b15611e0c57565b60405162461bcd60e51b8152602060048201526013602482015272155cd95c881b9bdd081c9959da5cdd195c9959606a1b6044820152606490fd5b80548210156119725760005260206000200190600090565b6001600160a01b038116600090815260208190526040902054611e83901515611e05565b6001600160a01b03166000818152602081905260408120549192916000198101908111611f5857611eb390611938565b50600601805491805b838110611f2b5750600160401b831015611f17575091611f0981611872847f5a22d2c0c411045010ffe7b82174b51bf53cbbf6829b7bacbfa219a9ff1ba2a5966001604097018155611e47565b8151908152426020820152a2565b634e487b7160e01b81526041600452602490fd5b84611f368285611e47565b90549060031b1c14611f5057611f4b90611df6565b611ebc565b505050505050565b634e487b7160e01b82526011600452602482fd5b9060405191828154918282526020928383019160005283600020936000905b828210611fa157505050611a3c925003836119dd565b855484526001958601958895509381019390910190611f8b56fea2646970667358221220e9a3c62d976482022f113b14ffa2a29380eb78975f728dfe21d8a1e08b1ee5cd64736f6c63430008130033",
  "linkReferences": {},
  "deployedLinkReferences": {}
}