{
  "_format": "hh-sol-artifact-1",
  "contractName": "UserManager",
  "sourceName": "contracts/UserManager.sol",
  "abi": [
    {
      "inputs": [
        {
          "internalType": "address",
          "name": "_institutionManagerAddress",
          "type": "address"
        }
      ],
      "stateMutability": "nonpayable",
      "type": "constructor"
    },
    {
      "inputs": [
        {
          "internalType": "address",
          "name": "_user",
          "type": "address"
        },
        {
          "internalType": "uint256",
          "name": "_petId",
          "type": "uint256"
        }
      ],
      "name": "addPetToUser",
      "outputs": [],
      "stateMutability": "nonpayable",
      "type": "function"
    },
    {
      "inputs": [
        {
          "internalType": "address",
          "name": "_user",
          "type": "address"
        }
      ],
      "name": "checkUserIsRegistered",
      "outputs": [
        {
          "internalType": "bool",
          "name": "",
          "type": "bool"
        }
      ],
      "stateMutability": "view",
      "type": "function"
    },
    {
      "inputs": [],
      "name": "deployer",
      "outputs": [
        {
          "internalType": "address",
          "name": "",
          "type": "address"
        }
      ],
      "stateMutability": "view",
      "type": "function"
    },
    {
      "inputs": [],
      "name": "getAllUsers",
      "outputs": [
        {
          "components": [
            {
              "internalType": "string",
              "name": "name",
              "type": "string"
            },
            {
              "internalType": "string",
              "name": "email",
              "type": "string"
            },
            {
              "internalType": "string",
              "name": "phone",
              "type": "string"
            },
            {
              "internalType": "address",
              "name": "wallet",
              "type": "address"
            },
            {
              "internalType": "enum IMyPetBase.UserType",
              "name": "userType",
              "type": "uint8"
            },
            {
              "internalType": "uint256",
              "name": "orgId",
              "type": "uint256"
            },
            {
              "internalType": "bool",
              "name": "isProfileSet",
              "type": "bool"
            },
            {
              "internalType": "enum IMyPetBase.RoleType",
              "name": "roleId",
              "type": "uint8"
            },
            {
              "internalType": "uint256[]",
              "name": "petIds",
              "type": "uint256[]"
            },
            {
              "internalType": "string",
              "name": "avatar",
              "type": "string"
            }
          ],
          "internalType": "struct IMyPetBase.User[]",
          "name": "",
          "type": "tuple[]"
        }
      ],
      "stateMutability": "view",
      "type": "function"
    },
    {
      "inputs": [
        {
          "internalType": "address",
          "name": "_user",
          "type": "address"
        }
      ],
      "name": "getUserInfo",
      "outputs": [
        {
          "internalType": "uint256",
          "name": "id",
          "type": "uint256"
        },
        {
          "internalType": "string",
          "name": "name",
          "type": "string"
        },
        {
          "internalType": "string",
          "name": "email",
          "type": "string"
        },
        {
          "internalType": "string",
          "name": "phone",
          "type": "string"
        },
        {
          "internalType": "address",
          "name": "wallet",
          "type": "address"
        },
        {
          "internalType": "enum IMyPetBase.UserType",
          "name": "userType",
          "type": "uint8"
        },
        {
          "internalType": "uint256",
          "name": "orgId",
          "type": "uint256"
        },
        {
          "internalType": "string",
          "name": "orgName",
          "type": "string"
        },
        {
          "internalType": "enum IMyPetBase.InstitutionType",
          "name": "orgType",
          "type": "uint8"
        },
        {
          "internalType": "enum IMyPetBase.RoleType",
          "name": "roleId",
          "type": "uint8"
        },
        {
          "internalType": "string",
          "name": "avatar",
          "type": "string"
        }
      ],
      "stateMutability": "view",
      "type": "function"
    },
    {
      "inputs": [
        {
          "internalType": "address",
          "name": "_user",
          "type": "address"
        }
      ],
      "name": "getUserPetIds",
      "outputs": [
        {
          "internalType": "uint256[]",
          "name": "",
          "type": "uint256[]"
        }
      ],
      "stateMutability": "view",
      "type": "function"
    },
    {
      "inputs": [
        {
          "internalType": "uint256",
          "name": "_orgId",
          "type": "uint256"
        }
      ],
      "name": "getUsersByInstitution",
      "outputs": [
        {
          "components": [
            {
              "internalType": "string",
              "name": "name",
              "type": "string"
            },
            {
              "internalType": "string",
              "name": "email",
              "type": "string"
            },
            {
              "internalType": "string",
              "name": "phone",
              "type": "string"
            },
            {
              "internalType": "address",
              "name": "wallet",
              "type": "address"
            },
            {
              "internalType": "enum IMyPetBase.UserType",
              "name": "userType",
              "type": "uint8"
            },
            {
              "internalType": "uint256",
              "name": "orgId",
              "type": "uint256"
            },
            {
              "internalType": "bool",
              "name": "isProfileSet",
              "type": "bool"
            },
            {
              "internalType": "enum IMyPetBase.RoleType",
              "name": "roleId",
              "type": "uint8"
            },
            {
              "internalType": "uint256[]",
              "name": "petIds",
              "type": "uint256[]"
            },
            {
              "internalType": "string",
              "name": "avatar",
              "type": "string"
            }
          ],
          "internalType": "struct IMyPetBase.User[]",
          "name": "",
          "type": "tuple[]"
        }
      ],
      "stateMutability": "view",
      "type": "function"
    },
    {
      "inputs": [
        {
          "internalType": "enum IMyPetBase.RoleType",
          "name": "_roleId",
          "type": "uint8"
        }
      ],
      "name": "getUsersByRole",
      "outputs": [
        {
          "components": [
            {
              "internalType": "string",
              "name": "name",
              "type": "string"
            },
            {
              "internalType": "string",
              "name": "email",
              "type": "string"
            },
            {
              "internalType": "string",
              "name": "phone",
              "type": "string"
            },
            {
              "internalType": "address",
              "name": "wallet",
              "type": "address"
            },
            {
              "internalType": "enum IMyPetBase.UserType",
              "name": "userType",
              "type": "uint8"
            },
            {
              "internalType": "uint256",
              "name": "orgId",
              "type": "uint256"
            },
            {
              "internalType": "bool",
              "name": "isProfileSet",
              "type": "bool"
            },
            {
              "internalType": "enum IMyPetBase.RoleType",
              "name": "roleId",
              "type": "uint8"
            },
            {
              "internalType": "uint256[]",
              "name": "petIds",
              "type": "uint256[]"
            },
            {
              "internalType": "string",
              "name": "avatar",
              "type": "string"
            }
          ],
          "internalType": "struct IMyPetBase.User[]",
          "name": "",
          "type": "tuple[]"
        }
      ],
      "stateMutability": "view",
      "type": "function"
    },
    {
      "inputs": [],
      "name": "institutionManagerAddress",
      "outputs": [
        {
          "internalType": "address",
          "name": "",
          "type": "address"
        }
      ],
      "stateMutability": "view",
      "type": "function"
    },
    {
      "inputs": [
        {
          "internalType": "address",
          "name": "_user",
          "type": "address"
        }
      ],
      "name": "isUserInInstitutionStaffList",
      "outputs": [
        {
          "internalType": "bool",
          "name": "",
          "type": "bool"
        }
      ],
      "stateMutability": "view",
      "type": "function"
    },
    {
      "inputs": [
        {
          "internalType": "address",
          "name": "_user",
          "type": "address"
        },
        {
          "internalType": "uint256",
          "name": "_petId",
          "type": "uint256"
        }
      ],
      "name": "removePetFromUser",
      "outputs": [],
      "stateMutability": "nonpayable",
      "type": "function"
    },
    {
      "inputs": [
        {
          "internalType": "string",
          "name": "_name",
          "type": "string"
        },
        {
          "internalType": "string",
          "name": "_email",
          "type": "string"
        },
        {
          "internalType": "string",
          "name": "_phone",
          "type": "string"
        },
        {
          "internalType": "enum IMyPetBase.UserType",
          "name": "_userType",
          "type": "uint8"
        },
        {
          "internalType": "uint256",
          "name": "_orgId",
          "type": "uint256"
        },
        {
          "internalType": "string",
          "name": "_avatar",
          "type": "string"
        }
      ],
      "name": "setUserProfile",
      "outputs": [],
      "stateMutability": "nonpayable",
      "type": "function"
    },
    {
      "inputs": [
        {
          "internalType": "address",
          "name": "_user",
          "type": "address"
        },
        {
          "internalType": "enum IMyPetBase.RoleType",
          "name": "_roleId",
          "type": "uint8"
        }
      ],
      "name": "updateUserRole",
      "outputs": [],
      "stateMutability": "nonpayable",
      "type": "function"
    },
    {
      "inputs": [
        {
          "internalType": "address",
          "name": "",
          "type": "address"
        },
        {
          "internalType": "uint256",
          "name": "",
          "type": "uint256"
        }
      ],
      "name": "userAddress",
      "outputs": [
        {
          "internalType": "string",
          "name": "name",
          "type": "string"
        },
        {
          "internalType": "string",
          "name": "email",
          "type": "string"
        },
        {
          "internalType": "string",
          "name": "phone",
          "type": "string"
        },
        {
          "internalType": "address",
          "name": "wallet",
          "type": "address"
        },
        {
          "internalType": "enum IMyPetBase.UserType",
          "name": "userType",
          "type": "uint8"
        },
        {
          "internalType": "uint256",
          "name": "orgId",
          "type": "uint256"
        },
        {
          "internalType": "bool",
          "name": "isProfileSet",
          "type": "bool"
        },
        {
          "internalType": "enum IMyPetBase.RoleType",
          "name": "roleId",
          "type": "uint8"
        },
        {
          "internalType": "string",
          "name": "avatar",
          "type": "string"
        }
      ],
      "stateMutability": "view",
      "type": "function"
    },
    {
      "inputs": [],
      "name": "userIdCounter",
      "outputs": [
        {
          "internalType": "uint256",
          "name": "",
          "type": "uint256"
        }
      ],
      "stateMutability": "view",
      "type": "function"
    },
    {
      "inputs": [
        {
          "internalType": "address",
          "name": "",
          "type": "address"
        }
      ],
      "name": "userIds",
      "outputs": [
        {
          "internalType": "uint256",
          "name": "",
          "type": "uint256"
        }
      ],
      "stateMutability": "view",
      "type": "function"
    },
    {
      "inputs": [
        {
          "internalType": "uint256",
          "name": "",
          "type": "uint256"
        }
      ],
      "name": "users",
      "outputs": [
        {
          "internalType": "string",
          "name": "name",
          "type": "string"
        },
        {
          "internalType": "string",
          "name": "email",
          "type": "string"
        },
        {
          "internalType": "string",
          "name": "phone",
          "type": "string"
        },
        {
          "internalType": "address",
          "name": "wallet",
          "type": "address"
        },
        {
          "internalType": "enum IMyPetBase.UserType",
          "name": "userType",
          "type": "uint8"
        },
        {
          "internalType": "uint256",
          "name": "orgId",
          "type": "uint256"
        },
        {
          "internalType": "bool",
          "name": "isProfileSet",
          "type": "bool"
        },
        {
          "internalType": "enum IMyPetBase.RoleType",
          "name": "roleId",
          "type": "uint8"
        },
        {
          "internalType": "string",
          "name": "avatar",
          "type": "string"
        }
      ],
      "stateMutability": "view",
      "type": "function"
    }
  ],
  "bytecode": "0x60a0346100fd57601f620025e738819003918201601f19168301916001600160401b03831184841017610102578084926020946040528339810103126100fd57516001600160a01b0381168082036100fd576001600355156100ac57608052600480546001600160a01b031916331790556040516124ce908162000119823960805181818161067e015281816107c4015281816108d8015281816113010152818161165d01526121550152f35b60405162461bcd60e51b815260206004820152602360248201527f496e76616c696420696e737469747574696f6e206d616e61676572206164647260448201526265737360e81b6064820152608490fd5b600080fd5b634e487b7160e01b600052604160045260246000fdfe604060808152600436101561001357600080fd5b60003560e01c80630a86fdff146118cf57806323b1ddc6146118195780632640d5ea146116235780632faba6ae14611604578063365b98b2146115715780633913a6791461154c5780634081db511461151357806342dd0779146107f35780635c828f37146107af5780636386c1c71461058d578063b4778e2d146104dd578063c291fe62146103e3578063d5f39488146103ba578063ddb7a4de1461022e578063e2842d7914610148578063eac50f6b146101025763f2658413146100d857600080fd5b346100fd573660031901126100fd576100fb6100f2611a28565b60243590612210565b005b600080fd5b50346100fd5760203660031901126100fd5760209061013f610122611a28565b6001600160a01b0316600090815260208190526040902054151590565b90519015158152f35b50346100fd5760003660031901126100fd576004546001600160a01b031633036101eb5760019081549061017b82611eae565b9161018882519384611ca6565b808352600084815260207fb10e2d527612073b26eecdfd717e6a320cf44b4afac2b0732d9fcbe2b7fa0cf68186015b8484106101cf578551806101cb8982611a9d565b0390f35b60088389926101dd85612336565b8152019201930192906101b7565b5162461bcd60e51b815260206004820181905260248201527f4f6e6c79206465706c6f7965722063616e207669657720616c6c2075736572736044820152606490fd5b50346100fd5760203660031901126100fd57600435600481101591826100fd576004546001600160a01b0316330361036b576001546000805b82811061031e5750610278906123ef565b9260009060005b838110610293578451806101cb8882611a9d565b8660ff60056102a184611be5565b50015460081c16906103085760048110156103085782146102cb575b6102c69061205d565b61027f565b916103006102c6916102e56102df86611be5565b50612336565b6102ef828a612484565b526102fa8189612484565b5061205d565b9290506102bd565b634e487b7160e01b600052602160045260246000fd5b8560ff600561032c84611be5565b50015460081c1690610308576004811015610308578514610356575b6103519061205d565b610267565b906103636103519161205d565b919050610348565b5162461bcd60e51b8152602060048201526024808201527f4f6e6c79206465706c6f7965722063616e207669657720757365727320627920604482015263726f6c6560e01b6064820152608490fd5b50346100fd5760003660031901126100fd5760045490516001600160a01b039091168152602090f35b50346100fd57806003193601126100fd576103fc611a28565b906024359160048310156100fd576004546001600160a01b0391908216330361048d576001600160a01b03811660009081526020819052604090205461044890151561206c565b61206c565b166000526000602052600020549060001982019182116104775760056104706100fb93611be5565b500161203e565b634e487b7160e01b600052601160045260246000fd5b825162461bcd60e51b815260206004820152602360248201527f4f6e6c79206465706c6f7965722063616e20757064617465207573657220726f6044820152626c657360e81b6064820152608490fd5b50346100fd57806003193601126100fd576104f6611a28565b6001600160a01b03908116600090815260026020528290208054602435908110156100fd576101cb9160005260206000209060031b019261053684611cc7565b9361054360018201611cc7565b9361055060028301611cc7565b95600383015460048401549161056d600760058701549601611cc7565b955198899860ff808860081c1697169560ff8560a01c169416928a611d6d565b50346100fd5760203660031901126100fd576105a7611a28565b6001600160a01b0381166000908152602081905260409020546105cb90151561206c565b6001600160a01b039081166000908152602081905282902054906000198201828111610477576105fa90611be5565b509261060584611cc7565b9361061260018201611cc7565b61061e60028301611cc7565b9360038301549060ff8260a01c16600485015491610649600760ff600589015460081c169701611cc7565b9761065383611a86565b60018314806107a6575b1561078e578751630418ed2160e21b815260048101859052956000876024817f000000000000000000000000000000000000000000000000000000000000000087165afa9687156107835760009761075e575b508860208801519701516106c381611a86565b985b80519c8d9c8d528c6101606020819201528d016106e191611a61565b908c8203908d01526106f291611a61565b8a810360608c015261070391611a61565b9316608089015261071381611a86565b60a088015260c087015285810360e087015261072e91611a61565b9161073881611a86565b610100850152610120840161074c91611a90565b8281036101408401526101cb91611a61565b61077c9197503d806000833e6107748183611ca6565b810190611ec5565b95386106b0565b89513d6000823e3d90fd5b875161079981611c8b565b60008152956000986106c5565b5083151561065d565b50346100fd5760003660031901126100fd57517f00000000000000000000000000000000000000000000000000000000000000006001600160a01b03168152602090f35b50346100fd5760c03660031901126100fd576004356001600160401b0381116100fd57610824903690600401611e11565b6024356001600160401b0381116100fd57610843903690600401611e11565b906044356001600160401b0381116100fd57610863903690600401611e11565b91600260643510156100fd5760a4356001600160401b0381116100fd5761088e903690600401611e11565b3360009081526020819052604090205490939015916108ae606435611a86565b60643560011480156114a25760843580156114405787516306eee7b360e41b8152906020826004817f00000000000000000000000000000000000000000000000000000000000000006001600160a01b03165afa9182156107835760009261140d575b5010156113bb5786905b6004546001600160a01b03919033908316036112cc575050506000925b15610e8857600354336000526000602052866000205560015495600160401b871015610c3257600187018060015561096f88611be5565b505087116104775761098f90519661098688611c8b565b60008852611be5565b50938051906001600160401b038211610c325781906109ae8754611c35565b601f8111610e56575b50602090601f8311600114610dea57600092610ddf575b50508160011b916000199060031b1c19161784555b8051906001600160401b038211610c32578190610a036001870154611c35565b601f8111610daa575b50602090601f8311600114610d3857600092610d2d575b50508160011b916000199060031b1c19161760018401555b8051906001600160401b038211610c3257610a596002850154611c35565b601f8111610cf8575b50602090601f8311600114610c8457610ad593929160009183610c79575b50508160011b916000199060031b1c19161760028401555b6003830180546001600160a01b03191633178155610ab9906064359061201a565b608435600484015560058301805460ff1916600117815561203e565b825160068201936001600160401b038211610c3257600160401b8211610c32576020908554838755808410610c5c575b500193600052602060002060005b828110610c485750505060079192500181516001600160401b038111610c3257610b3d8254611c35565b601f8111610bf5575b50602092601f8211600114610b915792819293600092610b86575b50508160011b916000199060031b1c19161790555b610b8160035461205d565b600355005b015190503880610b61565b601f198216938360005260206000209160005b868110610bdd5750836001959610610bc4575b505050811b019055610b76565b015160001960f88460031b161c19169055388080610bb7565b91926020600181928685015181550194019201610ba4565b610c2290836000526020600020601f840160051c81019160208510610c28575b601f0160051c0190612003565b38610b46565b9091508190610c15565b634e487b7160e01b600052604160045260246000fd5b600190602087519701968184015501610b13565b610c73908760005284846000209182019101612003565b38610b05565b015190503880610a80565b906002850160005260206000209160005b601f1985168110610ce05750918391600193610ad59695601f19811610610cc7575b505050811b016002840155610a98565b015160001960f88460031b161c19169055388080610cb7565b91926020600181928685015181550194019201610c95565b610d2790600286016000526020600020601f850160051c81019160208610610c2857601f0160051c0190612003565b38610a62565b015190503880610a23565b9250600186016000526020600020906000935b601f1984168510610d8f576001945083601f19811610610d76575b505050811b016001840155610a3b565b015160001960f88460031b161c19169055388080610d66565b81810151835560209485019460019093019290910190610d4b565b610dd990600188016000526020600020601f850160051c81019160208610610c2857601f0160051c0190612003565b38610a0c565b0151905038806109ce565b9250866000526020600020906000935b601f1984168510610e3b576001945083601f19811610610e22575b505050811b0184556109e3565b015160001960f88460031b161c19169055388080610e15565b81810151835560209485019460019093019290910190610dfa565b610e8290886000526020600020601f850160051c81019160208610610c2857601f0160051c0190612003565b386109b7565b909433600052600060205260002054600019810190811161047757610eac90611be5565b50928051906001600160401b038211610c32578190610ecb8654611c35565b601f811161129a575b50602090601f831160011461122e57600092611223575b50508160011b916000199060031b1c19161783555b8051906001600160401b038211610c32578190610f206001860154611c35565b601f81116111ee575b50602090601f831160011461117c57600092611171575b50508160011b916000199060031b1c19161760018301555b83516001600160401b038111610c3257610f756002840154611c35565b601f811161113c575b506020601f82116001146110c6579080610fc69392600796976000926110bb575b50508160011b916000199060031b1c19161760028401555b610ab96064356003850161201a565b0181516001600160401b038111610c3257610fe18254611c35565b601f8111611089575b50602092601f8211600114611028579281929360009261101d575b5050600019600383901b1c191660019190911b179055005b015190503880611005565b601f198216938360005260206000209160005b8681106110715750836001959610611058575b505050811b019055005b015160001960f88460031b161c1916905538808061104e565b9192602060018192868501518155019401920161103b565b6110b590836000526020600020601f840160051c81019160208510610c2857601f0160051c0190612003565b38610fea565b015190503880610f9f565b6002840160005260206000209560005b601f198416811061112457509160079596600192610fc6959483601f1981161061110b575b505050811b016002840155610fb7565b015160001960f88460031b161c191690553880806110fb565b828201518855600190970196602092830192016110d6565b61116b90600285016000526020600020601f840160051c81019160208510610c2857601f0160051c0190612003565b38610f7e565b015190503880610f40565b9250600185016000526020600020906000935b601f19841685106111d3576001945083601f198116106111ba575b505050811b016001830155610f58565b015160001960f88460031b161c191690553880806111aa565b8181015183556020948501946001909301929091019061118f565b61121d90600187016000526020600020601f850160051c81019160208610610c2857601f0160051c0190612003565b38610f29565b015190503880610eeb565b9250856000526020600020906000935b601f198416851061127f576001945083601f19811610611266575b505050811b018355610f00565b015160001960f88460031b161c19169055388080611259565b8181015183556020948501946001909301929091019061123e565b6112c690876000526020600020601f850160051c81019160208610610c2857601f0160051c0190612003565b38610ed4565b6112d7606435611a86565b806113b0575b156113a6576000602491835192838092630418ed2160e21b825260843560048301527f0000000000000000000000000000000000000000000000000000000000000000165afa90811561139b57600091611380575b5001805161133f81611a86565b61134881611a86565b6113555750600292610938565b6001905161136281611a86565b61136b81611a86565b0361137857600392610938565b600192610938565b61139591503d806000833e6107748183611ca6565b38611332565b82513d6000823e3d90fd5b5050600192610938565b5060843515156112dd565b865162461bcd60e51b815260206004820152602560248201527f4173736f63696174656420696e737469747574696f6e20646f6573206e6f7420604482015264195e1a5cdd60da1b6064820152608490fd5b9091506020813d8211611438575b8161142860209383611ca6565b810103126100fd57519038610911565b3d915061141b565b875162461bcd60e51b815260206004820152603560248201527f496e737469747574696f6e616c2075736572206d757374206173736f6369617460448201527432903bb4ba341030b71034b739ba34ba3aba34b7b760591b6064820152608490fd5b6084356114b057869061091b565b865162461bcd60e51b815260206004820152603660248201527f506572736f6e616c20757365722073686f756c64206e6f74206173736f6369616044820152753a32903bb4ba341030b71034b739ba34ba3aba34b7b760511b6064820152608490fd5b50346100fd5760203660031901126100fd576020906001600160a01b03611538611a28565b166000526000825280600020549051908152f35b50346100fd5760203660031901126100fd5760209061013f61156c611a28565b6120ae565b50346100fd5760203660031901126100fd576004356001548110156100fd5761159990611be5565b506101cb6115a682611cc7565b926115b360018401611cc7565b926115c060028201611cc7565b9360038201546004830154906115dd600760058601549501611cc7565b945197889760ff808760081c1696169460ff8460a01c169360018060a01b0316928a611d6d565b50346100fd5760003660031901126100fd576020906003549051908152f35b50346100fd5760203660031901126100fd578051630418ed2160e21b815260048035908201819052906001600160a01b03906000816024817f000000000000000000000000000000000000000000000000000000000000000086165afa90811561180e5782916060916000916117f3575b5001511633149081156117e5575b501561176857600154916000805b84811061173057506116c1906123ef565b9160009060005b8581106116dc578351806101cb8782611a9d565b8160046116e883611be5565b500154146116ff575b6116fa9061205d565b6116c8565b916117286116fa916117136102df86611be5565b61171d8289612484565b526102fa8188612484565b9290506116f1565b83600461173c83611be5565b50015414611753575b61174e9061205d565b6116b0565b9061176061174e9161205d565b919050611745565b815162461bcd60e51b815260206004820152604a60248201527f4f6e6c7920696e737469747574696f6e20726573706f6e7369626c652070657260448201527f736f6e206f72206465706c6f7965722063616e207669657720696e737469747560648201526974696f6e20757365727360b01b608482015260a490fd5b9050600454163314386116a2565b61180891503d806000833e6107748183611ca6565b38611694565b84513d6000823e3d90fd5b50346100fd57602090816003193601126100fd57611835611a28565b6001600160a01b03811660009081526020819052604090205461185990151561206c565b6001600160a01b0316600090815280835281902054600019810190811161047757600661188861188f92611be5565b50016122e7565b815192839281808501918186528451809352850193019160005b8281106118b857505050500390f35b8351855286955093810193928101926001016118a9565b50346100fd57806003193601126100fd576118e8611a28565b906024908135926119116104438260018060a01b03166000526000602052604060002054151590565b6001600160a01b03166000908152602081905220546000199190828101908111611a1357916119408493611be5565b506006019060005b8254808210156100fb57859061195e83866121f8565b929054600393841b1c1461197c5750506119779061205d565b611948565b909550828195939495019081116119fe57906119ab61199e6119c493876121f8565b905490881b1c91866121f8565b90919082549060031b91821b91600019901b1916179055565b82549081156119ea57508101926119db84846121f8565b8154921b9290921b1916905555005b634e487b7160e01b60009081526031600452fd5b82634e487b7160e01b60005260116004526000fd5b50634e487b7160e01b60009081526011600452fd5b600435906001600160a01b03821682036100fd57565b60005b838110611a515750506000910152565b8181015183820152602001611a41565b90602091611a7a81518092818552858086019101611a3e565b601f01601f1916010190565b6002111561030857565b9060048210156103085752565b602080820190808352835180925260409283810182858560051b84010196019460009081935b868510611ad557505050505050505090565b9091929394959697603f1982820301855286895191611b23611b13611b038551610140808652850190611a61565b8486015184820386860152611a61565b8685015183820388850152611a61565b6060848101516001600160a01b03169083015260808085015191929190611b4982611a86565b82015260a0808501519082015260c080850151151590820152611b7460e08086015190830190611a90565b6101009182850151928282039083015283808451928381520193019088905b808210611bcb575050508291600194611bb9926101208092015191818403910152611a61565b9a019501950193969594929190611ac3565b825185528c95948501949092019160019190910190611b93565b600154811015611c1f57600160005260031b7fb10e2d527612073b26eecdfd717e6a320cf44b4afac2b0732d9fcbe2b7fa0cf60190600090565b634e487b7160e01b600052603260045260246000fd5b90600182811c92168015611c65575b6020831014611c4f57565b634e487b7160e01b600052602260045260246000fd5b91607f1691611c44565b61014081019081106001600160401b03821117610c3257604052565b602081019081106001600160401b03821117610c3257604052565b90601f801991011681019081106001600160401b03821117610c3257604052565b9060405191826000825492611cdb84611c35565b908184526001948581169081600014611d4a5750600114611d07575b5050611d0592500383611ca6565b565b9093915060005260209081600020936000915b818310611d32575050611d0593508201013880611cf7565b85548884018501529485019487945091830191611d1a565b915050611d0594506020925060ff191682840152151560051b8201013880611cf7565b9591611df3999793611da3611db192611d95611de599959c989c610120808d528c0190611a61565b908a820360208c0152611a61565b9088820360408a0152611a61565b6001600160a01b039098166060870152611dca81611a86565b608086015260a0850152151560c084015260e0830190611a90565b610100818403910152611a61565b90565b6001600160401b038111610c3257601f01601f191660200190565b81601f820112156100fd57803590611e2882611df6565b92611e366040519485611ca6565b828452602083830101116100fd57816000926020809301838601378301015290565b81601f820112156100fd578051611e6e81611df6565b92611e7c6040519485611ca6565b818452602082840101116100fd57611df39160208085019101611a3e565b51906001600160a01b03821682036100fd57565b6001600160401b038111610c325760051b60200190565b60209182828203126100fd5781516001600160401b03928382116100fd5701916101009384848403126100fd5760405194850185811083821117610c325760405283518552808401518281116100fd5783611f21918601611e58565b81860152604084015160028110156100fd576040860152611f4460608501611e9a565b606086015260808401518281116100fd5784019083601f830112156100fd57815191611f6f83611eae565b92611f7d6040519485611ca6565b808452828085019160051b830101918683116100fd578301905b828210611fec5750505050608085015260a083015160a085015260c08301518181116100fd5782611fc9918501611e58565b60c085015260e08301519081116100fd57611fe49201611e58565b60e082015290565b838091611ff884611e9a565b815201910190611f97565b81811061200e575050565b60008155600101612003565b9061202481611a86565b815460ff60a01b191660a09190911b60ff60a01b16179055565b9060048110156103085761ff0082549160081b169061ff001916179055565b60001981146104775760010190565b1561207357565b60405162461bcd60e51b8152602060048201526013602482015272155cd95c881b9bdd081c9959da5cdd195c9959606a1b6044820152606490fd5b6001600160a01b0381166000908152602081905260409020546120d290151561206c565b6001600160a01b0390811660008181526020819052604081205490919060001981019081116121e45761210490611be5565b50600160ff600383015460a01c1661211b81611a86565b14806121d7575b61212d575050905090565b9060446004602093015460405195869384926318078eb560e31b8452600484015260248301527f0000000000000000000000000000000000000000000000000000000000000000165afa9182156121ca57819261218957505090565b9091506020813d82116121c2575b816121a460209383611ca6565b810103126121be57519081151582036121bb575090565b80fd5b5080fd5b3d9150612197565b50604051903d90823e3d90fd5b5060048101541515612122565b634e487b7160e01b83526011600452602483fd5b8054821015611c1f5760005260206000200190600090565b6001600160a01b03811660009081526020819052604090205461223490151561206c565b6001600160a01b031660009081526020819052604081205460001981019081116122d35761226190611be5565b50600601805491805b8381106122a75750600160401b8310156122935750816119ab916001611d0595940181556121f8565b634e487b7160e01b81526041600452602490fd5b846122b282856121f8565b90549060031b1c146122cc576122c79061205d565b61226a565b5050505050565b634e487b7160e01b82526011600452602482fd5b9060405191828154918282526020928383019160005283600020936000905b82821061231c57505050611d0592500383611ca6565b855484526001958601958895509381019390910190612306565b9060405161234381611c6f565b809261234e81611cc7565b825261235c60018201611cc7565b602083015261236d60028201611cc7565b604083015260038101546001600160a01b038116606084015260a01c60ff1661239581611a86565b6080830152600481015460a083015260ff6005820154818116151560c085015260081c169060048210156103085760076123ea916101209360e08601526123de600682016122e7565b61010086015201611cc7565b910152565b906123f982611eae565b60409061240882519182611ca6565b8381528093612419601f1991611eae565b019160005b83811061242b5750505050565b602090825161243981611c6f565b606080825283908082840152808684015260008184015260006080840152600060a0840152600060c0840152600060e08401528061010084015261012083015282860101520161241e565b8051821015611c1f5760209160051b01019056fea2646970667358221220b389edb9a4e548589e7826450f5fb4f43f171d20c4d022fd47e426d40488007a64736f6c63430008130033",
  "linkReferences": {},
  "deployedLinkReferences": {}
}