{
  "_format": "hh-sol-artifact-1",
  "contractName": "UserManager",
  "sourceName": "contracts/UserManager.sol",
  "abi": [
    {
      "inputs": [
        {
          "internalType": "address",
          "name": "_institutionManagerAddress",
          "type": "address"
        }
      ],
      "stateMutability": "nonpayable",
      "type": "constructor"
    },
    {
      "inputs": [
        {
          "internalType": "address",
          "name": "_user",
          "type": "address"
        }
      ],
      "name": "checkUserIsRegistered",
      "outputs": [
        {
          "internalType": "bool",
          "name": "",
          "type": "bool"
        }
      ],
      "stateMutability": "view",
      "type": "function"
    },
    {
      "inputs": [
        {
          "internalType": "address",
          "name": "_user",
          "type": "address"
        }
      ],
      "name": "getUserInfo",
      "outputs": [
        {
          "internalType": "uint256",
          "name": "id",
          "type": "uint256"
        },
        {
          "internalType": "string",
          "name": "name",
          "type": "string"
        },
        {
          "internalType": "string",
          "name": "email",
          "type": "string"
        },
        {
          "internalType": "string",
          "name": "phone",
          "type": "string"
        },
        {
          "internalType": "address",
          "name": "wallet",
          "type": "address"
        },
        {
          "internalType": "enum IMyPetBase.UserType",
          "name": "userType",
          "type": "uint8"
        },
        {
          "internalType": "uint256",
          "name": "orgId",
          "type": "uint256"
        },
        {
          "internalType": "string",
          "name": "orgName",
          "type": "string"
        },
        {
          "internalType": "enum IMyPetBase.InstitutionType",
          "name": "orgType",
          "type": "uint8"
        }
      ],
      "stateMutability": "view",
      "type": "function"
    },
    {
      "inputs": [],
      "name": "institutionManagerAddress",
      "outputs": [
        {
          "internalType": "address",
          "name": "",
          "type": "address"
        }
      ],
      "stateMutability": "view",
      "type": "function"
    },
    {
      "inputs": [
        {
          "internalType": "uint256",
          "name": "",
          "type": "uint256"
        }
      ],
      "name": "institutions",
      "outputs": [
        {
          "internalType": "uint256",
          "name": "id",
          "type": "uint256"
        },
        {
          "internalType": "string",
          "name": "name",
          "type": "string"
        },
        {
          "internalType": "enum IMyPetBase.InstitutionType",
          "name": "institutionType",
          "type": "uint8"
        },
        {
          "internalType": "address",
          "name": "wallet",
          "type": "address"
        },
        {
          "internalType": "address",
          "name": "responsiblePerson",
          "type": "address"
        }
      ],
      "stateMutability": "view",
      "type": "function"
    },
    {
      "inputs": [
        {
          "internalType": "string",
          "name": "_name",
          "type": "string"
        },
        {
          "internalType": "string",
          "name": "_email",
          "type": "string"
        },
        {
          "internalType": "string",
          "name": "_phone",
          "type": "string"
        },
        {
          "internalType": "enum IMyPetBase.UserType",
          "name": "_userType",
          "type": "uint8"
        },
        {
          "internalType": "uint256",
          "name": "_orgId",
          "type": "uint256"
        }
      ],
      "name": "setUserProfile",
      "outputs": [],
      "stateMutability": "nonpayable",
      "type": "function"
    },
    {
      "inputs": [],
      "name": "userIdCounter",
      "outputs": [
        {
          "internalType": "uint256",
          "name": "",
          "type": "uint256"
        }
      ],
      "stateMutability": "view",
      "type": "function"
    },
    {
      "inputs": [
        {
          "internalType": "address",
          "name": "",
          "type": "address"
        }
      ],
      "name": "userIds",
      "outputs": [
        {
          "internalType": "uint256",
          "name": "",
          "type": "uint256"
        }
      ],
      "stateMutability": "view",
      "type": "function"
    },
    {
      "inputs": [
        {
          "internalType": "uint256",
          "name": "",
          "type": "uint256"
        }
      ],
      "name": "users",
      "outputs": [
        {
          "internalType": "uint256",
          "name": "id",
          "type": "uint256"
        },
        {
          "internalType": "string",
          "name": "name",
          "type": "string"
        },
        {
          "internalType": "string",
          "name": "email",
          "type": "string"
        },
        {
          "internalType": "string",
          "name": "phone",
          "type": "string"
        },
        {
          "internalType": "address",
          "name": "wallet",
          "type": "address"
        },
        {
          "internalType": "enum IMyPetBase.UserType",
          "name": "userType",
          "type": "uint8"
        },
        {
          "internalType": "uint256",
          "name": "orgId",
          "type": "uint256"
        },
        {
          "internalType": "bool",
          "name": "isProfileSet",
          "type": "bool"
        }
      ],
      "stateMutability": "view",
      "type": "function"
    }
  ],
  "bytecode": "0x60a060405260016002553480156200001657600080fd5b5060405162001c4538038062001c4583398181016040528101906200003c919062000153565b600073ffffffffffffffffffffffffffffffffffffffff168173ffffffffffffffffffffffffffffffffffffffff1603620000ae576040517f08c379a0000000000000000000000000000000000000000000000000000000008152600401620000a5906200020c565b60405180910390fd5b8073ffffffffffffffffffffffffffffffffffffffff1660808173ffffffffffffffffffffffffffffffffffffffff1681525050506200022e565b600080fd5b600073ffffffffffffffffffffffffffffffffffffffff82169050919050565b60006200011b82620000ee565b9050919050565b6200012d816200010e565b81146200013957600080fd5b50565b6000815190506200014d8162000122565b92915050565b6000602082840312156200016c576200016b620000e9565b5b60006200017c848285016200013c565b91505092915050565b600082825260208201905092915050565b7f496e76616c696420696e737469747574696f6e206d616e61676572206164647260008201527f6573730000000000000000000000000000000000000000000000000000000000602082015250565b6000620001f460238362000185565b9150620002018262000196565b604082019050919050565b600060208201905081810360008301526200022781620001e5565b9050919050565b6080516119fb6200024a60003960006107da01526119fb6000f3fe608060405234801561001057600080fd5b50600436106100885760003560e01c80635c828f371161005b5780635c828f371461012e5780636386c1c71461014c578063c3b59d0014610184578063eac50f6b146101b857610088565b80632faba6ae1461008d578063365b98b2146100ab5780634081db51146100e257806346197ec814610112575b600080fd5b6100956101e8565b6040516100a29190610d6a565b60405180910390f35b6100c560048036038101906100c09190610dc5565b6101ee565b6040516100d9989796959493929190610f55565b60405180910390f35b6100fc60048036038101906100f79190611014565b610418565b6040516101099190610d6a565b60405180910390f35b61012c6004803603810190610127919061119b565b610430565b005b6101366107d8565b604051610143919061126a565b60405180910390f35b61016660048036038101906101619190611014565b6107fc565b60405161017b999897969594939291906112cd565b60405180910390f35b61019e60048036038101906101999190610dc5565b610be9565b6040516101af959493929190611376565b60405180910390f35b6101d260048036038101906101cd9190611014565b610cf4565b6040516101df91906113d0565b60405180910390f35b60025481565b600181815481106101fe57600080fd5b90600052602060002090600702016000915090508060000154908060010180546102279061141a565b80601f01602080910402602001604051908101604052809291908181526020018280546102539061141a565b80156102a05780601f10610275576101008083540402835291602001916102a0565b820191906000526020600020905b81548152906001019060200180831161028357829003601f168201915b5050505050908060020180546102b59061141a565b80601f01602080910402602001604051908101604052809291908181526020018280546102e19061141a565b801561032e5780601f106103035761010080835404028352916020019161032e565b820191906000526020600020905b81548152906001019060200180831161031157829003601f168201915b5050505050908060030180546103439061141a565b80601f016020809104026020016040519081016040528092919081815260200182805461036f9061141a565b80156103bc5780601f10610391576101008083540402835291602001916103bc565b820191906000526020600020905b81548152906001019060200180831161039f57829003601f168201915b5050505050908060040160009054906101000a900473ffffffffffffffffffffffffffffffffffffffff16908060040160149054906101000a900460ff16908060050154908060060160009054906101000a900460ff16905088565b60006020528060005260406000206000915090505481565b600061043b33610d06565b15905060018081111561045157610450610ec3565b5b83600181111561046457610463610ec3565b5b036104f557600082036104ac576040517f08c379a00000000000000000000000000000000000000000000000000000000081526004016104a3906114bd565b60405180910390fd5b60025482106104f0576040517f08c379a00000000000000000000000000000000000000000000000000000000081526004016104e79061154f565b60405180910390fd5b610539565b60008214610538576040517f08c379a000000000000000000000000000000000000000000000000000000000815260040161052f906115e1565b60405180910390fd5b5b80156106d1576002546000803373ffffffffffffffffffffffffffffffffffffffff1673ffffffffffffffffffffffffffffffffffffffff1681526020019081526020016000208190555060018081600181540180825580915050039060005260206000209050506000600180805490506105b49190611630565b90506000600182815481106105cc576105cb611664565b5b906000526020600020906007020190506002548160000181905550878160010190816105f8919061183f565b508681600201908161060a919061183f565b508581600301908161061c919061183f565b50338160040160006101000a81548173ffffffffffffffffffffffffffffffffffffffff021916908373ffffffffffffffffffffffffffffffffffffffff160217905550848160040160146101000a81548160ff0219169083600181111561068757610686610ec3565b5b021790555083816005018190555060018160060160006101000a81548160ff021916908315150217905550600260008154809291906106c590611911565b919050555050506107d0565b60008060003373ffffffffffffffffffffffffffffffffffffffff1673ffffffffffffffffffffffffffffffffffffffff1681526020019081526020016000205490506000600180836107249190611630565b8154811061073557610734611664565b5b9060005260206000209060070201905087816001019081610756919061183f565b5086816002019081610768919061183f565b508581600301908161077a919061183f565b50848160040160146101000a81548160ff021916908360018111156107a2576107a1610ec3565b5b021790555083816005018190555060018160060160006101000a81548160ff02191690831515021790555050505b505050505050565b7f000000000000000000000000000000000000000000000000000000000000000081565b600060608060606000806000606060006108158a610d06565b610854576040517f08c379a000000000000000000000000000000000000000000000000000000000815260040161084b906119a5565b60405180910390fd5b60008060008c73ffffffffffffffffffffffffffffffffffffffff1673ffffffffffffffffffffffffffffffffffffffff1681526020019081526020016000205490506000600180836108a79190611630565b815481106108b8576108b7611664565b5b9060005260206000209060070201905080600001549a508060010180546108de9061141a565b80601f016020809104026020016040519081016040528092919081815260200182805461090a9061141a565b80156109575780601f1061092c57610100808354040283529160200191610957565b820191906000526020600020905b81548152906001019060200180831161093a57829003601f168201915b5050505050995080600201805461096d9061141a565b80601f01602080910402602001604051908101604052809291908181526020018280546109999061141a565b80156109e65780601f106109bb576101008083540402835291602001916109e6565b820191906000526020600020905b8154815290600101906020018083116109c957829003601f168201915b505050505098508060030180546109fc9061141a565b80601f0160208091040260200160405190810160405280929190818152602001828054610a289061141a565b8015610a755780601f10610a4a57610100808354040283529160200191610a75565b820191906000526020600020905b815481529060010190602001808311610a5857829003601f168201915b505050505097508060040160009054906101000a900473ffffffffffffffffffffffffffffffffffffffff1696508060040160149054906101000a900460ff16955080600501549450600180811115610ad157610ad0610ec3565b5b866001811115610ae457610ae3610ec3565b5b148015610af2575060008514155b15610bc357600060036000600188610b0a9190611630565b81526020019081526020016000209050806001018054610b299061141a565b80601f0160208091040260200160405190810160405280929190818152602001828054610b559061141a565b8015610ba25780601f10610b7757610100808354040283529160200191610ba2565b820191906000526020600020905b815481529060010190602001808311610b8557829003601f168201915b505050505094508060020160009054906101000a900460ff16935050610bda565b604051806020016040528060008152509350600092505b50509193959799909294969850565b6003602052806000526040600020600091509050806000015490806001018054610c129061141a565b80601f0160208091040260200160405190810160405280929190818152602001828054610c3e9061141a565b8015610c8b5780601f10610c6057610100808354040283529160200191610c8b565b820191906000526020600020905b815481529060010190602001808311610c6e57829003601f168201915b5050505050908060020160009054906101000a900460ff16908060020160019054906101000a900473ffffffffffffffffffffffffffffffffffffffff16908060030160009054906101000a900473ffffffffffffffffffffffffffffffffffffffff16905085565b6000610cff82610d06565b9050919050565b6000806000808473ffffffffffffffffffffffffffffffffffffffff1673ffffffffffffffffffffffffffffffffffffffff1681526020019081526020016000205414159050919050565b6000819050919050565b610d6481610d51565b82525050565b6000602082019050610d7f6000830184610d5b565b92915050565b6000604051905090565b600080fd5b600080fd5b610da281610d51565b8114610dad57600080fd5b50565b600081359050610dbf81610d99565b92915050565b600060208284031215610ddb57610dda610d8f565b5b6000610de984828501610db0565b91505092915050565b600081519050919050565b600082825260208201905092915050565b60005b83811015610e2c578082015181840152602081019050610e11565b60008484015250505050565b6000601f19601f8301169050919050565b6000610e5482610df2565b610e5e8185610dfd565b9350610e6e818560208601610e0e565b610e7781610e38565b840191505092915050565b600073ffffffffffffffffffffffffffffffffffffffff82169050919050565b6000610ead82610e82565b9050919050565b610ebd81610ea2565b82525050565b7f4e487b7100000000000000000000000000000000000000000000000000000000600052602160045260246000fd5b60028110610f0357610f02610ec3565b5b50565b6000819050610f1482610ef2565b919050565b6000610f2482610f06565b9050919050565b610f3481610f19565b82525050565b60008115159050919050565b610f4f81610f3a565b82525050565b600061010082019050610f6b600083018b610d5b565b8181036020830152610f7d818a610e49565b90508181036040830152610f918189610e49565b90508181036060830152610fa58188610e49565b9050610fb46080830187610eb4565b610fc160a0830186610f2b565b610fce60c0830185610d5b565b610fdb60e0830184610f46565b9998505050505050505050565b610ff181610ea2565b8114610ffc57600080fd5b50565b60008135905061100e81610fe8565b92915050565b60006020828403121561102a57611029610d8f565b5b600061103884828501610fff565b91505092915050565b600080fd5b600080fd5b7f4e487b7100000000000000000000000000000000000000000000000000000000600052604160045260246000fd5b61108382610e38565b810181811067ffffffffffffffff821117156110a2576110a161104b565b5b80604052505050565b60006110b5610d85565b90506110c1828261107a565b919050565b600067ffffffffffffffff8211156110e1576110e061104b565b5b6110ea82610e38565b9050602081019050919050565b82818337600083830152505050565b6000611119611114846110c6565b6110ab565b90508281526020810184848401111561113557611134611046565b5b6111408482856110f7565b509392505050565b600082601f83011261115d5761115c611041565b5b813561116d848260208601611106565b91505092915050565b6002811061118357600080fd5b50565b60008135905061119581611176565b92915050565b600080600080600060a086880312156111b7576111b6610d8f565b5b600086013567ffffffffffffffff8111156111d5576111d4610d94565b5b6111e188828901611148565b955050602086013567ffffffffffffffff81111561120257611201610d94565b5b61120e88828901611148565b945050604086013567ffffffffffffffff81111561122f5761122e610d94565b5b61123b88828901611148565b935050606061124c88828901611186565b925050608061125d88828901610db0565b9150509295509295909350565b600060208201905061127f6000830184610eb4565b92915050565b6002811061129657611295610ec3565b5b50565b60008190506112a782611285565b919050565b60006112b782611299565b9050919050565b6112c7816112ac565b82525050565b6000610120820190506112e3600083018c610d5b565b81810360208301526112f5818b610e49565b90508181036040830152611309818a610e49565b9050818103606083015261131d8189610e49565b905061132c6080830188610eb4565b61133960a0830187610f2b565b61134660c0830186610d5b565b81810360e08301526113588185610e49565b90506113686101008301846112be565b9a9950505050505050505050565b600060a08201905061138b6000830188610d5b565b818103602083015261139d8187610e49565b90506113ac60408301866112be565b6113b96060830185610eb4565b6113c66080830184610eb4565b9695505050505050565b60006020820190506113e56000830184610f46565b92915050565b7f4e487b7100000000000000000000000000000000000000000000000000000000600052602260045260246000fd5b6000600282049050600182168061143257607f821691505b602082108103611445576114446113eb565b5b50919050565b7f496e737469747574696f6e616c2075736572206d757374206173736f6369617460008201527f65207769746820616e20696e737469747574696f6e0000000000000000000000602082015250565b60006114a7603583610dfd565b91506114b28261144b565b604082019050919050565b600060208201905081810360008301526114d68161149a565b9050919050565b7f4173736f63696174656420696e737469747574696f6e20646f6573206e6f742060008201527f6578697374000000000000000000000000000000000000000000000000000000602082015250565b6000611539602583610dfd565b9150611544826114dd565b604082019050919050565b600060208201905081810360008301526115688161152c565b9050919050565b7f506572736f6e616c20757365722073686f756c64206e6f74206173736f63696160008201527f7465207769746820616e20696e737469747574696f6e00000000000000000000602082015250565b60006115cb603683610dfd565b91506115d68261156f565b604082019050919050565b600060208201905081810360008301526115fa816115be565b9050919050565b7f4e487b7100000000000000000000000000000000000000000000000000000000600052601160045260246000fd5b600061163b82610d51565b915061164683610d51565b925082820390508181111561165e5761165d611601565b5b92915050565b7f4e487b7100000000000000000000000000000000000000000000000000000000600052603260045260246000fd5b60008190508160005260206000209050919050565b60006020601f8301049050919050565b600082821b905092915050565b6000600883026116f57fffffffffffffffffffffffffffffffffffffffffffffffffffffffffffffffff826116b8565b6116ff86836116b8565b95508019841693508086168417925050509392505050565b6000819050919050565b600061173c61173761173284610d51565b611717565b610d51565b9050919050565b6000819050919050565b61175683611721565b61176a61176282611743565b8484546116c5565b825550505050565b600090565b61177f611772565b61178a81848461174d565b505050565b5b818110156117ae576117a3600082611777565b600181019050611790565b5050565b601f8211156117f3576117c481611693565b6117cd846116a8565b810160208510156117dc578190505b6117f06117e8856116a8565b83018261178f565b50505b505050565b600082821c905092915050565b6000611816600019846008026117f8565b1980831691505092915050565b600061182f8383611805565b9150826002028217905092915050565b61184882610df2565b67ffffffffffffffff8111156118615761186061104b565b5b61186b825461141a565b6118768282856117b2565b600060209050601f8311600181146118a95760008415611897578287015190505b6118a18582611823565b865550611909565b601f1984166118b786611693565b60005b828110156118df578489015182556001820191506020850194506020810190506118ba565b868310156118fc57848901516118f8601f891682611805565b8355505b6001600288020188555050505b505050505050565b600061191c82610d51565b91507fffffffffffffffffffffffffffffffffffffffffffffffffffffffffffffffff820361194e5761194d611601565b5b600182019050919050565b7f55736572206e6f74207265676973746572656400000000000000000000000000600082015250565b600061198f601383610dfd565b915061199a82611959565b602082019050919050565b600060208201905081810360008301526119be81611982565b905091905056fea264697066735822122072676b0e7ec95b333184776cf988fb7664079dc3f380093c0b99b65f2659b2fd64736f6c63430008130033",
  "linkReferences": {},
  "deployedLinkReferences": {}
}