{
  "_format": "hh-sol-artifact-1",
  "contractName": "UserManager",
  "sourceName": "contracts/UserManager.sol",
  "abi": [
    {
      "inputs": [
        {
          "internalType": "address",
          "name": "_institutionManagerAddress",
          "type": "address"
        }
      ],
      "stateMutability": "nonpayable",
      "type": "constructor"
    },
    {
      "inputs": [
        {
          "internalType": "address",
          "name": "_user",
          "type": "address"
        },
        {
          "internalType": "uint256",
          "name": "_petId",
          "type": "uint256"
        }
      ],
      "name": "addPetToUser",
      "outputs": [],
      "stateMutability": "nonpayable",
      "type": "function"
    },
    {
      "inputs": [
        {
          "internalType": "address",
          "name": "_user",
          "type": "address"
        }
      ],
      "name": "checkUserIsRegistered",
      "outputs": [
        {
          "internalType": "bool",
          "name": "",
          "type": "bool"
        }
      ],
      "stateMutability": "view",
      "type": "function"
    },
    {
      "inputs": [],
      "name": "deployer",
      "outputs": [
        {
          "internalType": "address",
          "name": "",
          "type": "address"
        }
      ],
      "stateMutability": "view",
      "type": "function"
    },
    {
      "inputs": [],
      "name": "getAllUsers",
      "outputs": [
        {
          "components": [
            {
              "internalType": "string",
              "name": "name",
              "type": "string"
            },
            {
              "internalType": "string",
              "name": "email",
              "type": "string"
            },
            {
              "internalType": "string",
              "name": "phone",
              "type": "string"
            },
            {
              "internalType": "address",
              "name": "wallet",
              "type": "address"
            },
            {
              "internalType": "enum IMyPetBase.UserType",
              "name": "userType",
              "type": "uint8"
            },
            {
              "internalType": "uint256",
              "name": "orgId",
              "type": "uint256"
            },
            {
              "internalType": "bool",
              "name": "isProfileSet",
              "type": "bool"
            },
            {
              "internalType": "enum IMyPetBase.RoleType",
              "name": "roleId",
              "type": "uint8"
            },
            {
              "internalType": "uint256[]",
              "name": "petIds",
              "type": "uint256[]"
            },
            {
              "internalType": "uint256",
              "name": "registeredAt",
              "type": "uint256"
            },
            {
              "internalType": "string",
              "name": "avatar",
              "type": "string"
            }
          ],
          "internalType": "struct IMyPetBase.User[]",
          "name": "",
          "type": "tuple[]"
        }
      ],
      "stateMutability": "view",
      "type": "function"
    },
    {
      "inputs": [
        {
          "internalType": "address",
          "name": "_user",
          "type": "address"
        }
      ],
      "name": "getUserInfo",
      "outputs": [
        {
          "internalType": "uint256",
          "name": "id",
          "type": "uint256"
        },
        {
          "internalType": "string",
          "name": "name",
          "type": "string"
        },
        {
          "internalType": "string",
          "name": "email",
          "type": "string"
        },
        {
          "internalType": "string",
          "name": "phone",
          "type": "string"
        },
        {
          "internalType": "address",
          "name": "wallet",
          "type": "address"
        },
        {
          "internalType": "enum IMyPetBase.UserType",
          "name": "userType",
          "type": "uint8"
        },
        {
          "internalType": "uint256",
          "name": "orgId",
          "type": "uint256"
        },
        {
          "internalType": "string",
          "name": "orgName",
          "type": "string"
        },
        {
          "internalType": "enum IMyPetBase.InstitutionType",
          "name": "orgType",
          "type": "uint8"
        },
        {
          "internalType": "enum IMyPetBase.RoleType",
          "name": "roleId",
          "type": "uint8"
        },
        {
          "internalType": "uint256",
          "name": "registeredAt",
          "type": "uint256"
        },
        {
          "internalType": "string",
          "name": "avatar",
          "type": "string"
        }
      ],
      "stateMutability": "view",
      "type": "function"
    },
    {
      "inputs": [
        {
          "internalType": "address",
          "name": "_user",
          "type": "address"
        }
      ],
      "name": "getUserPetIds",
      "outputs": [
        {
          "internalType": "uint256[]",
          "name": "",
          "type": "uint256[]"
        }
      ],
      "stateMutability": "view",
      "type": "function"
    },
    {
      "inputs": [
        {
          "internalType": "uint256",
          "name": "_orgId",
          "type": "uint256"
        }
      ],
      "name": "getUsersByInstitution",
      "outputs": [
        {
          "components": [
            {
              "internalType": "string",
              "name": "name",
              "type": "string"
            },
            {
              "internalType": "string",
              "name": "email",
              "type": "string"
            },
            {
              "internalType": "string",
              "name": "phone",
              "type": "string"
            },
            {
              "internalType": "address",
              "name": "wallet",
              "type": "address"
            },
            {
              "internalType": "enum IMyPetBase.UserType",
              "name": "userType",
              "type": "uint8"
            },
            {
              "internalType": "uint256",
              "name": "orgId",
              "type": "uint256"
            },
            {
              "internalType": "bool",
              "name": "isProfileSet",
              "type": "bool"
            },
            {
              "internalType": "enum IMyPetBase.RoleType",
              "name": "roleId",
              "type": "uint8"
            },
            {
              "internalType": "uint256[]",
              "name": "petIds",
              "type": "uint256[]"
            },
            {
              "internalType": "uint256",
              "name": "registeredAt",
              "type": "uint256"
            },
            {
              "internalType": "string",
              "name": "avatar",
              "type": "string"
            }
          ],
          "internalType": "struct IMyPetBase.User[]",
          "name": "",
          "type": "tuple[]"
        }
      ],
      "stateMutability": "view",
      "type": "function"
    },
    {
      "inputs": [
        {
          "internalType": "enum IMyPetBase.RoleType",
          "name": "_roleId",
          "type": "uint8"
        }
      ],
      "name": "getUsersByRole",
      "outputs": [
        {
          "components": [
            {
              "internalType": "string",
              "name": "name",
              "type": "string"
            },
            {
              "internalType": "string",
              "name": "email",
              "type": "string"
            },
            {
              "internalType": "string",
              "name": "phone",
              "type": "string"
            },
            {
              "internalType": "address",
              "name": "wallet",
              "type": "address"
            },
            {
              "internalType": "enum IMyPetBase.UserType",
              "name": "userType",
              "type": "uint8"
            },
            {
              "internalType": "uint256",
              "name": "orgId",
              "type": "uint256"
            },
            {
              "internalType": "bool",
              "name": "isProfileSet",
              "type": "bool"
            },
            {
              "internalType": "enum IMyPetBase.RoleType",
              "name": "roleId",
              "type": "uint8"
            },
            {
              "internalType": "uint256[]",
              "name": "petIds",
              "type": "uint256[]"
            },
            {
              "internalType": "uint256",
              "name": "registeredAt",
              "type": "uint256"
            },
            {
              "internalType": "string",
              "name": "avatar",
              "type": "string"
            }
          ],
          "internalType": "struct IMyPetBase.User[]",
          "name": "",
          "type": "tuple[]"
        }
      ],
      "stateMutability": "view",
      "type": "function"
    },
    {
      "inputs": [],
      "name": "institutionManagerAddress",
      "outputs": [
        {
          "internalType": "address",
          "name": "",
          "type": "address"
        }
      ],
      "stateMutability": "view",
      "type": "function"
    },
    {
      "inputs": [
        {
          "internalType": "address",
          "name": "_user",
          "type": "address"
        },
        {
          "internalType": "uint256",
          "name": "_petId",
          "type": "uint256"
        }
      ],
      "name": "removePetFromUser",
      "outputs": [],
      "stateMutability": "nonpayable",
      "type": "function"
    },
    {
      "inputs": [
        {
          "internalType": "string",
          "name": "_name",
          "type": "string"
        },
        {
          "internalType": "string",
          "name": "_email",
          "type": "string"
        },
        {
          "internalType": "string",
          "name": "_phone",
          "type": "string"
        },
        {
          "internalType": "enum IMyPetBase.UserType",
          "name": "_userType",
          "type": "uint8"
        },
        {
          "internalType": "uint256",
          "name": "_orgId",
          "type": "uint256"
        },
        {
          "internalType": "string",
          "name": "_avatar",
          "type": "string"
        }
      ],
      "name": "setUserProfile",
      "outputs": [],
      "stateMutability": "nonpayable",
      "type": "function"
    },
    {
      "inputs": [
        {
          "internalType": "address",
          "name": "_user",
          "type": "address"
        },
        {
          "internalType": "enum IMyPetBase.RoleType",
          "name": "_roleId",
          "type": "uint8"
        }
      ],
      "name": "updateUserRole",
      "outputs": [],
      "stateMutability": "nonpayable",
      "type": "function"
    },
    {
      "inputs": [],
      "name": "userIdCounter",
      "outputs": [
        {
          "internalType": "uint256",
          "name": "",
          "type": "uint256"
        }
      ],
      "stateMutability": "view",
      "type": "function"
    },
    {
      "inputs": [
        {
          "internalType": "address",
          "name": "",
          "type": "address"
        }
      ],
      "name": "userIds",
      "outputs": [
        {
          "internalType": "uint256",
          "name": "",
          "type": "uint256"
        }
      ],
      "stateMutability": "view",
      "type": "function"
    },
    {
      "inputs": [
        {
          "internalType": "uint256",
          "name": "",
          "type": "uint256"
        }
      ],
      "name": "users",
      "outputs": [
        {
          "internalType": "string",
          "name": "name",
          "type": "string"
        },
        {
          "internalType": "string",
          "name": "email",
          "type": "string"
        },
        {
          "internalType": "string",
          "name": "phone",
          "type": "string"
        },
        {
          "internalType": "address",
          "name": "wallet",
          "type": "address"
        },
        {
          "internalType": "enum IMyPetBase.UserType",
          "name": "userType",
          "type": "uint8"
        },
        {
          "internalType": "uint256",
          "name": "orgId",
          "type": "uint256"
        },
        {
          "internalType": "bool",
          "name": "isProfileSet",
          "type": "bool"
        },
        {
          "internalType": "enum IMyPetBase.RoleType",
          "name": "roleId",
          "type": "uint8"
        },
        {
          "internalType": "uint256",
          "name": "registeredAt",
          "type": "uint256"
        },
        {
          "internalType": "string",
          "name": "avatar",
          "type": "string"
        }
      ],
      "stateMutability": "view",
      "type": "function"
    }
  ],
  "bytecode": "0x60a0346100f457601f6123d538819003918201601f19168301916001600160401b038311848410176100f9578084926020946040528339810103126100f457516001600160a01b0381168082036100f4576001600255156100a357608052600380546001600160a01b031916331790556040516122c5908161011082396080518181816105b80152818161070b0152818161081f0152818161124e01526116050152f35b60405162461bcd60e51b815260206004820152602360248201527f496e76616c696420696e737469747574696f6e206d616e61676572206164647260448201526265737360e81b6064820152608490fd5b600080fd5b634e487b7160e01b600052604160045260246000fdfe604060808152600436101561001357600080fd5b60003560e01c80630a86fdff1461187757806323b1ddc6146117c15780632640d5ea146115cb5780632faba6ae146115ac578063365b98b2146114a45780634081db511461146b57806342dd07791461073a5780635c828f37146106f65780636386c1c7146104c7578063c291fe62146103cd578063d5f39488146103a4578063ddb7a4de14610218578063e2842d7914610132578063eac50f6b146100ec5763f2658413146100c257600080fd5b346100e7573660031901126100e7576100e56100dc6119d0565b60243590611ff4565b005b600080fd5b50346100e75760203660031901126100e75760209061012961010c6119d0565b6001600160a01b0316600090815260208190526040902054151590565b90519015158152f35b50346100e75760003660031901126100e7576003546001600160a01b031633036101d55760019081549061016582611ddc565b9161017282519384611c5a565b808352600084815260207fb10e2d527612073b26eecdfd717e6a320cf44b4afac2b0732d9fcbe2b7fa0cf68186015b8484106101b9578551806101b58982611a45565b0390f35b60098389926101c78561211a565b8152019201930192906101a1565b5162461bcd60e51b815260206004820181905260248201527f4f6e6c79206465706c6f7965722063616e207669657720616c6c2075736572736044820152606490fd5b50346100e75760203660031901126100e757600435600481101591826100e7576003546001600160a01b03163303610355576001546000805b8281106103085750610262906121de565b9260009060005b83811061027d578451806101b58882611a45565b8660ff600561028b84611b98565b50015460081c16906102f25760048110156102f25782146102b5575b6102b090611f8b565b610269565b916102ea6102b0916102cf6102c986611b98565b5061211a565b6102d9828a61227b565b526102e4818961227b565b50611f8b565b9290506102a7565b634e487b7160e01b600052602160045260246000fd5b8560ff600561031684611b98565b50015460081c16906102f25760048110156102f2578514610340575b61033b90611f8b565b610251565b9061034d61033b91611f8b565b919050610332565b5162461bcd60e51b8152602060048201526024808201527f4f6e6c79206465706c6f7965722063616e207669657720757365727320627920604482015263726f6c6560e01b6064820152608490fd5b50346100e75760003660031901126100e75760035490516001600160a01b039091168152602090f35b50346100e757806003193601126100e7576103e66119d0565b906024359160048310156100e7576003546001600160a01b03919082163303610477576001600160a01b038116600090815260208190526040902054610432901515611f9a565b611f9a565b1660005260006020526000205490600019820191821161046157600561045a6100e593611b98565b5001611f6c565b634e487b7160e01b600052601160045260246000fd5b825162461bcd60e51b815260206004820152602360248201527f4f6e6c79206465706c6f7965722063616e20757064617465207573657220726f6044820152626c657360e81b6064820152608490fd5b50346100e75760203660031901126100e7576104e16119d0565b6001600160a01b038116600090815260208190526040902054610505901515611f9a565b6001600160a01b0390811660009081526020819052829020549060001982018281116104615761053490611b98565b509261053f84611c7b565b9361054c60018201611c7b565b9261055960028301611c7b565b93600383015460ff8160a01c16600485015490600586015494610583600860078901549801611c7b565b9861058d83611a2e565b60018314806106ed575b156106d5578851630418ed2160e21b815260048101859052956000876024817f000000000000000000000000000000000000000000000000000000000000000087165afa9687156106ca576000976106a5575b508960208801519701516105fd81611a2e565b995b8051809e819e8252610180806020840152820161061b91611a09565b9181830391015261062b91611a09565b8b810360608d015261063c91611a09565b931660808a015261064c81611a2e565b60a089015260c088015286810360e088015261066791611a09565b9261067181611a2e565b61010086015261012085019060081c60ff169061068d91611a38565b6101408401528281036101608401526101b591611a09565b6106c39197503d806000833e6106bb8183611c5a565b810190611df3565b95386105ea565b8a513d6000823e3d90fd5b88516106e081611c3f565b60008152956000996105ff565b50831515610597565b50346100e75760003660031901126100e757517f00000000000000000000000000000000000000000000000000000000000000006001600160a01b03168152602090f35b50346100e75760c03660031901126100e7576004356001600160401b0381116100e75761076b903690600401611d3c565b6024356001600160401b0381116100e75761078a903690600401611d3c565b906044356001600160401b0381116100e7576107aa903690600401611d3c565b91600260643510156100e75760a4356001600160401b0381116100e7576107d5903690600401611d3c565b3360009081526020819052604090205490939015916107f5606435611a2e565b60643560011480156113fa5760843580156113985787516306eee7b360e41b8152906020826004817f00000000000000000000000000000000000000000000000000000000000000006001600160a01b03165afa91821561138d5760009261135a575b5010156113085786905b6003546001600160a01b0391903390831603611219575050506000925b15610dd557600254336000526000602052866000205560015495600160401b871015610b7f5760018701806001556108b688611b98565b50508711610461576108d69051966108cd88611c3f565b60008852611b98565b50938051906001600160401b038211610b7f5781906108f58754611be9565b601f8111610da3575b50602090601f8311600114610d3757600092610d2c575b50508160011b916000199060031b1c19161784555b8051906001600160401b038211610b7f57819061094a6001870154611be9565b601f8111610cf7575b50602090601f8311600114610c8557600092610c7a575b50508160011b916000199060031b1c19161760018401555b8051906001600160401b038211610b7f576109a06002850154611be9565b601f8111610c45575b50602090601f8311600114610bd157610a1c93929160009183610bc6575b50508160011b916000199060031b1c19161760028401555b6003830180546001600160a01b03191633178155610a009060643590611f48565b608435600484015560058301805460ff19166001178155611f6c565b825160068201936001600160401b038211610b7f57600160401b8211610b7f576020908554838755808410610ba9575b500193600052602060002060005b828110610b955750505060089192504260078201550181516001600160401b038111610b7f57610a8a8254611be9565b601f8111610b42575b50602092601f8211600114610ade5792819293600092610ad3575b50508160011b916000199060031b1c19161790555b610ace600254611f8b565b600255005b015190503880610aae565b601f198216938360005260206000209160005b868110610b2a5750836001959610610b11575b505050811b019055610ac3565b015160001960f88460031b161c19169055388080610b04565b91926020600181928685015181550194019201610af1565b610b6f90836000526020600020601f840160051c81019160208510610b75575b601f0160051c0190611f31565b38610a93565b9091508190610b62565b634e487b7160e01b600052604160045260246000fd5b600190602087519701968184015501610a5a565b610bc0908760005284846000209182019101611f31565b38610a4c565b0151905038806109c7565b906002850160005260206000209160005b601f1985168110610c2d5750918391600193610a1c9695601f19811610610c14575b505050811b0160028401556109df565b015160001960f88460031b161c19169055388080610c04565b91926020600181928685015181550194019201610be2565b610c7490600286016000526020600020601f850160051c81019160208610610b7557601f0160051c0190611f31565b386109a9565b01519050388061096a565b9250600186016000526020600020906000935b601f1984168510610cdc576001945083601f19811610610cc3575b505050811b016001840155610982565b015160001960f88460031b161c19169055388080610cb3565b81810151835560209485019460019093019290910190610c98565b610d2690600188016000526020600020601f850160051c81019160208610610b7557601f0160051c0190611f31565b38610953565b015190503880610915565b9250866000526020600020906000935b601f1984168510610d88576001945083601f19811610610d6f575b505050811b01845561092a565b015160001960f88460031b161c19169055388080610d62565b81810151835560209485019460019093019290910190610d47565b610dcf90886000526020600020601f850160051c81019160208610610b7557601f0160051c0190611f31565b386108fe565b909433600052600060205260002054600019810190811161046157610df990611b98565b50928051906001600160401b038211610b7f578190610e188654611be9565b601f81116111e7575b50602090601f831160011461117b57600092611170575b50508160011b916000199060031b1c19161783555b8051906001600160401b038211610b7f578190610e6d6001860154611be9565b601f811161113b575b50602090601f83116001146110c9576000926110be575b50508160011b916000199060031b1c19161760018301555b83516001600160401b038111610b7f57610ec26002840154611be9565b601f8111611089575b506020601f8211600114611013579080610f13939260089697600092611008575b50508160011b916000199060031b1c19161760028401555b610a0060643560038501611f48565b0181516001600160401b038111610b7f57610f2e8254611be9565b601f8111610fd6575b50602092601f8211600114610f755792819293600092610f6a575b5050600019600383901b1c191660019190911b179055005b015190503880610f52565b601f198216938360005260206000209160005b868110610fbe5750836001959610610fa5575b505050811b019055005b015160001960f88460031b161c19169055388080610f9b565b91926020600181928685015181550194019201610f88565b61100290836000526020600020601f840160051c81019160208510610b7557601f0160051c0190611f31565b38610f37565b015190503880610eec565b6002840160005260206000209560005b601f198416811061107157509160089596600192610f13959483601f19811610611058575b505050811b016002840155610f04565b015160001960f88460031b161c19169055388080611048565b82820151885560019097019660209283019201611023565b6110b890600285016000526020600020601f840160051c81019160208510610b7557601f0160051c0190611f31565b38610ecb565b015190503880610e8d565b9250600185016000526020600020906000935b601f1984168510611120576001945083601f19811610611107575b505050811b016001830155610ea5565b015160001960f88460031b161c191690553880806110f7565b818101518355602094850194600190930192909101906110dc565b61116a90600187016000526020600020601f850160051c81019160208610610b7557601f0160051c0190611f31565b38610e76565b015190503880610e38565b9250856000526020600020906000935b601f19841685106111cc576001945083601f198116106111b3575b505050811b018355610e4d565b015160001960f88460031b161c191690553880806111a6565b8181015183556020948501946001909301929091019061118b565b61121390876000526020600020601f850160051c81019160208610610b7557601f0160051c0190611f31565b38610e21565b611224606435611a2e565b806112fd575b156112f3576000602491835192838092630418ed2160e21b825260843560048301527f0000000000000000000000000000000000000000000000000000000000000000165afa9081156112e8576000916112cd575b5001805161128c81611a2e565b61129581611a2e565b6112a2575060029261087f565b600190516112af81611a2e565b6112b881611a2e565b036112c55760039261087f565b60019261087f565b6112e291503d806000833e6106bb8183611c5a565b3861127f565b82513d6000823e3d90fd5b505060019261087f565b50608435151561122a565b865162461bcd60e51b815260206004820152602560248201527f4173736f63696174656420696e737469747574696f6e20646f6573206e6f7420604482015264195e1a5cdd60da1b6064820152608490fd5b9091506020813d8211611385575b8161137560209383611c5a565b810103126100e757519038610858565b3d9150611368565b89513d6000823e3d90fd5b875162461bcd60e51b815260206004820152603560248201527f496e737469747574696f6e616c2075736572206d757374206173736f6369617460448201527432903bb4ba341030b71034b739ba34ba3aba34b7b760591b6064820152608490fd5b608435611408578690610862565b865162461bcd60e51b815260206004820152603660248201527f506572736f6e616c20757365722073686f756c64206e6f74206173736f6369616044820152753a32903bb4ba341030b71034b739ba34ba3aba34b7b760511b6064820152608490fd5b50346100e75760203660031901126100e7576020906001600160a01b036114906119d0565b166000526000825280600020549051908152f35b50346100e75760203660031901126100e7576004356001548110156100e7576101b56114d261153f92611b98565b50926114dd84611c7b565b6114e960018601611c7b565b946115986114f960028301611c7b565b60038301549460ff8660a01c1661155a60048601549260058701549461154d611529600860078b01549a01611c7b565b9983519e8f9e8f92610140808552840190611a09565b916020818403910152611a09565b918c8303908d0152611a09565b6001600160a01b0390971660608a015261157381611a2e565b608089015260a088015260ff8116151560c088015260ff60e088019160081c16611a38565b610100850152838203610120850152611a09565b50346100e75760003660031901126100e7576020906002549051908152f35b50346100e75760203660031901126100e7578051630418ed2160e21b815260048035908201819052906001600160a01b03906000816024817f000000000000000000000000000000000000000000000000000000000000000086165afa9081156117b657829160609160009161179b575b50015116331490811561178d575b501561171057600154916000805b8481106116d85750611669906121de565b9160009060005b858110611684578351806101b58782611a45565b81600461169083611b98565b500154146116a7575b6116a290611f8b565b611670565b916116d06116a2916116bb6102c986611b98565b6116c5828961227b565b526102e4818861227b565b929050611699565b8360046116e483611b98565b500154146116fb575b6116f690611f8b565b611658565b906117086116f691611f8b565b9190506116ed565b815162461bcd60e51b815260206004820152604a60248201527f4f6e6c7920696e737469747574696f6e20726573706f6e7369626c652070657260448201527f736f6e206f72206465706c6f7965722063616e207669657720696e737469747560648201526974696f6e20757365727360b01b608482015260a490fd5b90506003541633143861164a565b6117b091503d806000833e6106bb8183611c5a565b3861163c565b84513d6000823e3d90fd5b50346100e757602090816003193601126100e7576117dd6119d0565b6001600160a01b038116600090815260208190526040902054611801901515611f9a565b6001600160a01b0316600090815280835281902054600019810190811161046157600661183061183792611b98565b50016120cb565b815192839281808501918186528451809352850193019160005b82811061186057505050500390f35b835185528695509381019392810192600101611851565b50346100e757806003193601126100e7576118906119d0565b906024908135926118b961042d8260018060a01b03166000526000602052604060002054151590565b6001600160a01b031660009081526020819052205460001991908281019081116119bb57916118e88493611b98565b506006019060005b8254808210156100e55785906119068386611fdc565b929054600393841b1c1461192457505061191f90611f8b565b6118f0565b909550828195939495019081116119a6579061195361194661196c9387611fdc565b905490881b1c9186611fdc565b90919082549060031b91821b91600019901b1916179055565b825490811561199257508101926119838484611fdc565b8154921b9290921b1916905555005b634e487b7160e01b60009081526031600452fd5b82634e487b7160e01b60005260116004526000fd5b50634e487b7160e01b60009081526011600452fd5b600435906001600160a01b03821682036100e757565b60005b8381106119f95750506000910152565b81810151838201526020016119e9565b90602091611a22815180928185528580860191016119e6565b601f01601f1916010190565b600211156102f257565b9060048210156102f25752565b602080820190808352835180925260409283810182858560051b84010196019460009081935b868510611a7d57505050505050505090565b9091929394959697603f1982820301855286895191611acb611abb611aab8551610160808652850190611a09565b8486015184820386860152611a09565b8685015183820388850152611a09565b6060848101516001600160a01b03169083015260808085015191929190611af182611a2e565b82015260a0808501519082015260c080850151151590820152611b1c60e08086015190830190611a38565b6101009182850151928282039083015283808451928381520193019088905b808210611b7e575050508291600194611b6c9261012080830151908201526101408092015191818403910152611a09565b9a019501950193969594929190611a6b565b825185528c95948501949092019160019190910190611b3b565b600154811015611bd3576009906001600052027fb10e2d527612073b26eecdfd717e6a320cf44b4afac2b0732d9fcbe2b7fa0cf60190600090565b634e487b7160e01b600052603260045260246000fd5b90600182811c92168015611c19575b6020831014611c0357565b634e487b7160e01b600052602260045260246000fd5b91607f1691611bf8565b61016081019081106001600160401b03821117610b7f57604052565b602081019081106001600160401b03821117610b7f57604052565b90601f801991011681019081106001600160401b03821117610b7f57604052565b9060405191826000825492611c8f84611be9565b908184526001948581169081600014611cfe5750600114611cbb575b5050611cb992500383611c5a565b565b9093915060005260209081600020936000915b818310611ce6575050611cb993508201013880611cab565b85548884018501529485019487945091830191611cce565b915050611cb994506020925060ff191682840152151560051b8201013880611cab565b6001600160401b038111610b7f57601f01601f191660200190565b81601f820112156100e757803590611d5382611d21565b92611d616040519485611c5a565b828452602083830101116100e757816000926020809301838601378301015290565b81601f820112156100e7578051611d9981611d21565b92611da76040519485611c5a565b818452602082840101116100e757611dc591602080850191016119e6565b90565b51906001600160a01b03821682036100e757565b6001600160401b038111610b7f5760051b60200190565b60209182828203126100e75781516001600160401b03928382116100e75701916101009384848403126100e75760405194850185811083821117610b7f5760405283518552808401518281116100e75783611e4f918601611d83565b81860152604084015160028110156100e7576040860152611e7260608501611dc8565b606086015260808401518281116100e75784019083601f830112156100e757815191611e9d83611ddc565b92611eab6040519485611c5a565b808452828085019160051b830101918683116100e7578301905b828210611f1a5750505050608085015260a083015160a085015260c08301518181116100e75782611ef7918501611d83565b60c085015260e08301519081116100e757611f129201611d83565b60e082015290565b838091611f2684611dc8565b815201910190611ec5565b818110611f3c575050565b60008155600101611f31565b90611f5281611a2e565b815460ff60a01b191660a09190911b60ff60a01b16179055565b9060048110156102f25761ff0082549160081b169061ff001916179055565b60001981146104615760010190565b15611fa157565b60405162461bcd60e51b8152602060048201526013602482015272155cd95c881b9bdd081c9959da5cdd195c9959606a1b6044820152606490fd5b8054821015611bd35760005260206000200190600090565b6001600160a01b038116600090815260208190526040902054612018901515611f9a565b6001600160a01b031660009081526020819052604081205460001981019081116120b75761204590611b98565b50600601805491805b83811061208b5750600160401b831015612077575081611953916001611cb99594018155611fdc565b634e487b7160e01b81526041600452602490fd5b846120968285611fdc565b90549060031b1c146120b0576120ab90611f8b565b61204e565b5050505050565b634e487b7160e01b82526011600452602482fd5b9060405191828154918282526020928383019160005283600020936000905b82821061210057505050611cb992500383611c5a565b8554845260019586019588955093810193909101906120ea565b9060405161212781611c23565b809261213281611c7b565b825261214060018201611c7b565b602083015261215160028201611c7b565b604083015260038101546001600160a01b038116606084015260a01c60ff1661217981611a2e565b6080830152600481015460a083015260ff6005820154818116151560c085015260081c169060048210156102f25760086121d9916101409360e08601526121c2600682016120cb565b610100860152600781015461012086015201611c7b565b910152565b906121e882611ddc565b6040906121f782519182611c5a565b8381528093612208601f1991611ddc565b019160005b83811061221a5750505050565b602090825161222881611c23565b606080825283908082840152808684015260008184015260006080840152600060a0840152600060c0840152600060e084015280610100840152600061012084015261014083015282860101520161220d565b8051821015611bd35760209160051b01019056fea264697066735822122017752a0e3d161c3d0d1bdd36bdf40dd70d1b8d3269ea31e170fd7694ab0c483764736f6c63430008130033",
  "linkReferences": {},
  "deployedLinkReferences": {}
}