{
  "_format": "hh-sol-artifact-1",
  "contractName": "InstitutionManager",
  "sourceName": "contracts/InstitutionManager.sol",
  "abi": [
    {
      "inputs": [],
      "stateMutability": "nonpayable",
      "type": "constructor"
    },
    {
      "anonymous": false,
      "inputs": [
        {
          "indexed": true,
          "internalType": "uint256",
          "name": "institutionId",
          "type": "uint256"
        },
        {
          "indexed": false,
          "internalType": "string",
          "name": "name",
          "type": "string"
        },
        {
          "indexed": false,
          "internalType": "enum IMyPetBase.InstitutionType",
          "name": "institutionType",
          "type": "uint8"
        },
        {
          "indexed": false,
          "internalType": "address",
          "name": "responsiblePerson",
          "type": "address"
        },
        {
          "indexed": false,
          "internalType": "uint256",
          "name": "timestamp",
          "type": "uint256"
        }
      ],
      "name": "InstitutionAdded",
      "type": "event"
    },
    {
      "anonymous": false,
      "inputs": [
        {
          "indexed": true,
          "internalType": "uint256",
          "name": "institutionId",
          "type": "uint256"
        },
        {
          "indexed": false,
          "internalType": "uint256",
          "name": "timestamp",
          "type": "uint256"
        }
      ],
      "name": "InstitutionDeleted",
      "type": "event"
    },
    {
      "anonymous": false,
      "inputs": [
        {
          "indexed": true,
          "internalType": "uint256",
          "name": "institutionId",
          "type": "uint256"
        },
        {
          "indexed": false,
          "internalType": "address",
          "name": "oldResponsiblePerson",
          "type": "address"
        },
        {
          "indexed": false,
          "internalType": "address",
          "name": "newResponsiblePerson",
          "type": "address"
        },
        {
          "indexed": false,
          "internalType": "uint256",
          "name": "timestamp",
          "type": "uint256"
        }
      ],
      "name": "InstitutionResponsiblePersonUpdated",
      "type": "event"
    },
    {
      "anonymous": false,
      "inputs": [
        {
          "indexed": true,
          "internalType": "uint256",
          "name": "institutionId",
          "type": "uint256"
        },
        {
          "indexed": false,
          "internalType": "string",
          "name": "name",
          "type": "string"
        },
        {
          "indexed": false,
          "internalType": "string",
          "name": "orgAddress",
          "type": "string"
        },
        {
          "indexed": false,
          "internalType": "string",
          "name": "contactInfo",
          "type": "string"
        },
        {
          "indexed": false,
          "internalType": "uint256",
          "name": "timestamp",
          "type": "uint256"
        }
      ],
      "name": "InstitutionUpdated",
      "type": "event"
    },
    {
      "anonymous": false,
      "inputs": [
        {
          "indexed": true,
          "internalType": "uint256",
          "name": "institutionId",
          "type": "uint256"
        },
        {
          "indexed": false,
          "internalType": "address",
          "name": "staff",
          "type": "address"
        },
        {
          "indexed": false,
          "internalType": "uint256",
          "name": "timestamp",
          "type": "uint256"
        }
      ],
      "name": "StaffAddedToInstitution",
      "type": "event"
    },
    {
      "anonymous": false,
      "inputs": [
        {
          "indexed": true,
          "internalType": "uint256",
          "name": "institutionId",
          "type": "uint256"
        },
        {
          "indexed": false,
          "internalType": "address",
          "name": "staff",
          "type": "address"
        },
        {
          "indexed": false,
          "internalType": "uint256",
          "name": "timestamp",
          "type": "uint256"
        }
      ],
      "name": "StaffRemovedFromInstitution",
      "type": "event"
    },
    {
      "inputs": [
        {
          "internalType": "string",
          "name": "_name",
          "type": "string"
        },
        {
          "internalType": "enum IMyPetBase.InstitutionType",
          "name": "_institutionType",
          "type": "uint8"
        },
        {
          "internalType": "address",
          "name": "_responsiblePerson",
          "type": "address"
        },
        {
          "internalType": "string",
          "name": "_orgAddress",
          "type": "string"
        },
        {
          "internalType": "string",
          "name": "_contactInfo",
          "type": "string"
        }
      ],
      "name": "addInstitution",
      "outputs": [
        {
          "internalType": "uint256",
          "name": "",
          "type": "uint256"
        }
      ],
      "stateMutability": "nonpayable",
      "type": "function"
    },
    {
      "inputs": [
        {
          "internalType": "uint256",
          "name": "_orgId",
          "type": "uint256"
        },
        {
          "internalType": "address",
          "name": "_staff",
          "type": "address"
        }
      ],
      "name": "addStaffToInstitution",
      "outputs": [],
      "stateMutability": "nonpayable",
      "type": "function"
    },
    {
      "inputs": [
        {
          "internalType": "uint256",
          "name": "_orgId",
          "type": "uint256"
        }
      ],
      "name": "deleteInstitution",
      "outputs": [],
      "stateMutability": "nonpayable",
      "type": "function"
    },
    {
      "inputs": [],
      "name": "deployer",
      "outputs": [
        {
          "internalType": "address",
          "name": "",
          "type": "address"
        }
      ],
      "stateMutability": "view",
      "type": "function"
    },
    {
      "inputs": [],
      "name": "getAllInstitutions",
      "outputs": [
        {
          "components": [
            {
              "internalType": "uint256",
              "name": "id",
              "type": "uint256"
            },
            {
              "internalType": "string",
              "name": "name",
              "type": "string"
            },
            {
              "internalType": "enum IMyPetBase.InstitutionType",
              "name": "institutionType",
              "type": "uint8"
            },
            {
              "internalType": "address",
              "name": "responsiblePerson",
              "type": "address"
            },
            {
              "internalType": "address[]",
              "name": "staffList",
              "type": "address[]"
            },
            {
              "internalType": "uint256",
              "name": "createdAt",
              "type": "uint256"
            },
            {
              "internalType": "string",
              "name": "orgAddress",
              "type": "string"
            },
            {
              "internalType": "string",
              "name": "contactInfo",
              "type": "string"
            }
          ],
          "internalType": "struct IMyPetBase.Institution[]",
          "name": "",
          "type": "tuple[]"
        }
      ],
      "stateMutability": "view",
      "type": "function"
    },
    {
      "inputs": [
        {
          "internalType": "uint256",
          "name": "_orgId",
          "type": "uint256"
        }
      ],
      "name": "getInstitutionDetail",
      "outputs": [
        {
          "components": [
            {
              "internalType": "uint256",
              "name": "id",
              "type": "uint256"
            },
            {
              "internalType": "string",
              "name": "name",
              "type": "string"
            },
            {
              "internalType": "enum IMyPetBase.InstitutionType",
              "name": "institutionType",
              "type": "uint8"
            },
            {
              "internalType": "address",
              "name": "responsiblePerson",
              "type": "address"
            },
            {
              "internalType": "address[]",
              "name": "staffList",
              "type": "address[]"
            },
            {
              "internalType": "uint256",
              "name": "createdAt",
              "type": "uint256"
            },
            {
              "internalType": "string",
              "name": "orgAddress",
              "type": "string"
            },
            {
              "internalType": "string",
              "name": "contactInfo",
              "type": "string"
            }
          ],
          "internalType": "struct IMyPetBase.Institution",
          "name": "",
          "type": "tuple"
        }
      ],
      "stateMutability": "view",
      "type": "function"
    },
    {
      "inputs": [
        {
          "internalType": "uint256",
          "name": "_orgId",
          "type": "uint256"
        }
      ],
      "name": "getInstitutionStaff",
      "outputs": [
        {
          "internalType": "address[]",
          "name": "",
          "type": "address[]"
        }
      ],
      "stateMutability": "view",
      "type": "function"
    },
    {
      "inputs": [],
      "name": "institutionIdCounter",
      "outputs": [
        {
          "internalType": "uint256",
          "name": "",
          "type": "uint256"
        }
      ],
      "stateMutability": "view",
      "type": "function"
    },
    {
      "inputs": [
        {
          "internalType": "uint256",
          "name": "",
          "type": "uint256"
        }
      ],
      "name": "institutions",
      "outputs": [
        {
          "internalType": "uint256",
          "name": "id",
          "type": "uint256"
        },
        {
          "internalType": "string",
          "name": "name",
          "type": "string"
        },
        {
          "internalType": "enum IMyPetBase.InstitutionType",
          "name": "institutionType",
          "type": "uint8"
        },
        {
          "internalType": "address",
          "name": "responsiblePerson",
          "type": "address"
        },
        {
          "internalType": "uint256",
          "name": "createdAt",
          "type": "uint256"
        },
        {
          "internalType": "string",
          "name": "orgAddress",
          "type": "string"
        },
        {
          "internalType": "string",
          "name": "contactInfo",
          "type": "string"
        }
      ],
      "stateMutability": "view",
      "type": "function"
    },
    {
      "inputs": [
        {
          "internalType": "uint256",
          "name": "_orgId",
          "type": "uint256"
        },
        {
          "internalType": "address",
          "name": "_staff",
          "type": "address"
        }
      ],
      "name": "isStaffInInstitution",
      "outputs": [
        {
          "internalType": "bool",
          "name": "",
          "type": "bool"
        }
      ],
      "stateMutability": "view",
      "type": "function"
    },
    {
      "inputs": [
        {
          "internalType": "uint256",
          "name": "_orgId",
          "type": "uint256"
        },
        {
          "internalType": "address",
          "name": "_staff",
          "type": "address"
        }
      ],
      "name": "removeStaffFromInstitution",
      "outputs": [],
      "stateMutability": "nonpayable",
      "type": "function"
    },
    {
      "inputs": [
        {
          "internalType": "address",
          "name": "",
          "type": "address"
        }
      ],
      "name": "staffToInstitution",
      "outputs": [
        {
          "internalType": "uint256",
          "name": "",
          "type": "uint256"
        }
      ],
      "stateMutability": "view",
      "type": "function"
    },
    {
      "inputs": [
        {
          "internalType": "uint256",
          "name": "_orgId",
          "type": "uint256"
        },
        {
          "internalType": "string",
          "name": "_name",
          "type": "string"
        },
        {
          "internalType": "string",
          "name": "_orgAddress",
          "type": "string"
        },
        {
          "internalType": "string",
          "name": "_contactInfo",
          "type": "string"
        }
      ],
      "name": "updateInstitution",
      "outputs": [],
      "stateMutability": "nonpayable",
      "type": "function"
    }
  ],
  "bytecode": "0x6080806040523461002d576001600255600380546001600160a01b03191633179055611a7490816100338239f35b600080fdfe6080604052600436101561001257600080fd5b60003560e01c806303d7fe401461130e5780630c09662114610e7f5780631063b48414610e165780633864855e14610bcf5780634104180e14610ab9578063584fab0f14610a7b5780636eee7b3014610a5d57806379bc9581146108a7578063ab2c193514610281578063c03c75a814610251578063c1d7efe71461019c578063c3b59d00146100d95763d5f39488146100ab57600080fd5b346100d45760003660031901126100d4576003546040516001600160a01b039091168152602090f35b600080fd5b346100d45760203660031901126100d4576004356000548110156100d45761010090611676565b508054610198610112600184016116fe565b9261018a60028201546004830154926101396006610132600584016116fe565b92016116fe565b93610156604051988998895260e060208a015260e0890190611552565b926101676040890160ff8316611592565b60081c6001600160a01b03166060880152608087015285820360a0870152611552565b9083820360c0850152611552565b0390f35b346100d4576020806003193601126100d45760043580151580610246575b6101c390611833565b60001981019081116102305760036101dd6101e492611676565b5001611910565b906040519181839283018184528251809152816040850193019160005b82811061021057505050500390f35b83516001600160a01b031685528695509381019392810192600101610201565b634e487b7160e01b600052601160045260246000fd5b5060025481106101ba565b346100d45760403660031901126100d457602061027761026f6114a6565b60043561187f565b6040519015158152f35b346100d45760a03660031901126100d45760043567ffffffffffffffff81116100d4576102b29036906004016114fb565b600360243510156100d4576001600160a01b0360443580821690036100d45760643567ffffffffffffffff81116100d4576102f19036906004016114fb565b9160843567ffffffffffffffff81116100d4576103129036906004016114fb565b908260035416330361085757826044351660005260016020526040600020546107fb5760025492610342846117a4565b600255600054600160401b811015610667578060016103649201600055611676565b505060001984018481116102305761037b90611676565b5094848655825167ffffffffffffffff81116106675761039e60018801546116c4565b601f81116107c6575b50806020601f82116001146107595760009161074e575b508160011b916000199060031b1c19161760018701555b6002860180546001600160a81b03191660243560ff161760443560081b610100600160a81b031617905560405167ffffffffffffffff60208201908111908211176106675780602060009201604052526003860154600060038801558061072f575b506003860160005242600487015580519067ffffffffffffffff821161066757819061046660058901546116c4565b601f81116106fa575b50602090601f83116001146106885760009261067d575b50508160011b916000199060031b1c19161760058601555b82519467ffffffffffffffff86116106675760209585946104c260068401546116c4565b601f8111610629575b508790601f831160011461058e57928261055a9593610533937fa24ff6a84ce4162168ff5856a36f4ff40654140278ccbf2bae76fd51eec9ddf59896600092610583575b50508160011b916000199060031b1c19161760068201555b60036044359101611810565b80604435166000526001875284604060002055604051928392608084526080840190611552565b90610569888401602435611592565b6044351660408301524260608301520390a2604051908152f35b015190508b8061050f565b9060068401600052886000209160005b601f198516811061060f575083610533937fa24ff6a84ce4162168ff5856a36f4ff40654140278ccbf2bae76fd51eec9ddf598969360019361055a9997601f198116106105f6575b505050811b016006820155610527565b015160001960f88460031b161c191690558b80806105e6565b818301518455899850600190930192918a01918a0161059e565b610657906006850160005289600020601f850160051c8101918b861061065d575b601f0160051c01906117b3565b886104cb565b909150819061064a565b634e487b7160e01b600052604160045260246000fd5b015190508780610486565b9250600588016000526020600020906000935b601f19841685106106df576001945083601f198116106106c6575b505050811b01600586015561049e565b015160001960f88460031b161c191690558780806106b6565b8181015183556020948501946001909301929091019061069b565b6107299060058a016000526020600020601f850160051c8101916020861061065d57601f0160051c01906117b3565b8861046f565b61074890600388016000526020600020908101906117b3565b86610437565b9050840151886103be565b91506001880160005260206000206000925b601f19831684106107ae576001935082601f19811610610795575b5050811b0160018701556103d5565b86015160001960f88460031b161c191690558880610786565b8681015182556020938401936001909201910161076b565b6107f590600189016000526020600020601f840160051c8101916020851061065d57601f0160051c01906117b3565b876103a7565b60405162461bcd60e51b815260206004820152602e60248201527f4164647265737320616c7265616479206173736f63696174656420776974682060448201526d30b71034b739ba34ba3aba34b7b760911b6064820152608490fd5b60405162461bcd60e51b815260206004820152602260248201527f4f6e6c79206465706c6f7965722063616e2061646420696e737469747574696f6044820152616e7360f01b6064820152608490fd5b346100d4576020806003193601126100d45760043580151580610a52575b6108ce90611833565b600019810190808211610230576108e482611676565b506003805491936001600160a01b039283163303610a015793810160005b815481101561094b57808461091a61093c93856117e2565b905490861b1c1660005260018852604060002086815414610941575b506117a4565b610902565b6000905588610936565b868361098088887f8d2c9a7324ab21ec3023d57761c8657a0bf8b02cb33c52377d0b5505aa4e4b9185604051428152a2611676565b6109eb576109ce926006926000835561099b600184016119f5565b6000600284015582019081549060008355816109d0575b505050600060048201556109c8600582016119f5565b016119f5565b005b6109e392600052600020908101906117b3565b8380806109b2565b634e487b7160e01b600052600060045260246000fd5b60405162461bcd60e51b8152600481018790526024808201527f4f6e6c79206465706c6f7965722063616e2064656c65746520696e73746974756044820152633a34b7b760e11b6064820152608490fd5b5060025481106108c5565b346100d45760003660031901126100d4576020600254604051908152f35b346100d45760203660031901126100d4576004356001600160a01b038116908190036100d45760005260016020526020604060002054604051908152f35b346100d45760003660031901126100d457600254600019908181019080821161023057610ae5826117ca565b91610af360405193846114d9565b808352610b02601f19916117ca565b0160005b818110610bb8575050600192835b828110610b7e578385604051906020808301818452845180915260408401918060408360051b8701019601926000905b838210610b515786880387f35b90919293948380610b6d839a603f198b820301865289516115b5565b999701959493919091019101610b44565b818101908082116102305761093682610ba2610b9c610bb395611676565b50611968565b610bac82896118fc565b52866118fc565b610b14565b602090610bc36118bc565b82828701015201610b06565b346100d45760403660031901126100d457600435610beb6114a6565b81151580610e0b575b610bfd90611833565b60001982810183811161023057610c1390611676565b50600281015460081c6001600160a01b0390811693909133859003610da957828216948514610d65578460005260018095816020526000604081205560006003809401925b610c5e57005b8254808210156109ce578287610c7484876117e2565b905490881b1c1614610c905750610c8a906117a4565b87610c58565b8798508093949596979192500191821161023057610cc386610cb5610ce294866117e2565b905490871b1c1691846117e2565b90919082549060031b9160018060a01b03809116831b921b1916179055565b8054938415610d4f577f5471f92ce8e2fbd58f5ecd78f9e98e5ecbb9bd8c03d2f9aa31eaedb576aef7f095610d4a950192610d1d84846117e2565b8154921b9290921b1916905555604080516001600160a01b03909216825242602083015290918291820190565b0390a2005b634e487b7160e01b600052603160045260246000fd5b606460405162461bcd60e51b815260206004820152602060248201527f43616e6e6f742072656d6f766520726573706f6e7369626c6520706572736f6e6044820152fd5b60405162461bcd60e51b815260206004820152603460248201527f4f6e6c7920696e737469747574696f6e20726573706f6e7369626c652070657260448201527339b7b71031b0b7103932b6b7bb329039ba30b33360611b6064820152608490fd5b506002548210610bf4565b346100d45760203660031901126100d457600435610e326118bc565b5080151580610e74575b610e4590611833565b600019810190811161023057610e60610b9c61019892611676565b6040519182916020835260208301906115b5565b506002548110610e3c565b346100d45760803660031901126100d45760043567ffffffffffffffff6024358181116100d457610eb49036906004016114fb565b906044358181116100d457610ecd9036906004016114fb565b6064358281116100d457610ee59036906004016114fb565b9184151580611303575b610ef890611833565b6000199085820186811161023057610f0f90611676565b509160018060a01b0380600285015460081c1633149081156112f5575b501561128a5760018084019387519484861161066757610f4c81546116c4565b95601f9687811161125a575b508060208882116001146111fa576000916111ef575b508582861b9260031b1c19161790555b60058101865185811161066757610f9582546116c4565b8781116111bf575b50602087821160011461115a579080600694939260009161114f575b508682871b9260031b1c19161790555b0193865193841161066757610fde85546116c4565b818111611115575b5060209084116001146110825793838061105e9461105099967f376bbef480820ae34240082dfdb3a0792773a8d30a5e3919015154cef3eb0b609b999561106c99600094611077575b501b9260031b1c19161790555b604051958695608087526080870190611552565b908582036020870152611552565b908382036040850152611552565b4260608301520390a2005b89015193508e61102f565b909291601f1983169185600052806000209260005b8181106110ff5750937f376bbef480820ae34240082dfdb3a0792773a8d30a5e3919015154cef3eb0b6099979361106c97936110509a97938361105e98106110e7575b505050811b01905561103c565b8801519060f88460031b161c191690558b80806110da565b8983015185559386019360209283019201611097565b611140908660005260206000208380880160051c82019260208910611146575b0160051c01906117b3565b89610fe6565b92508192611135565b90508901518d610fb9565b9291908490601f19811683600052856000209060005b8c8282106111a8575050958260069710611191575b5050811b019055610fc9565b8b01518860f88460031b161c191690558d80611185565b880151835560209788019789959093019201611170565b6111e9908360005260206000208980850160051c82019260208610611146570160051c01906117b3565b8b610f9d565b90508a01518c610f6e565b60008481528181208794509190601f198416908e5b828210611242575050831161122b575b5050811b019055610f7e565b8c01518760f88460031b161c191690558c8061121f565b8301518455889590930192602092830192018e61120f565b611284908360005260206000208980850160051c82019260208610611146570160051c01906117b3565b8b610f58565b60405162461bcd60e51b815260206004820152603a60248201527f4f6e6c7920726573706f6e7369626c6520706572736f6e206f72206465706c6f60448201527f7965722063616e2075706461746520696e737469747574696f6e0000000000006064820152608490fd5b905060035416331488610f2c565b506002548510610eef565b346100d45760403660031901126100d45760043561132a6114a6565b8115158061149b575b61133c90611833565b60001982018281116102305761135190611676565b5060028101546001600160a01b039060081c8116330361143c578216918260005260016020526040600020546113e2576113c2816003610d4a947f9fbeeefb032d0aff8fad6f24ba47ffd0c35f0d8e38e933a620f464b2025c9f359660005260016020528760406000205501611810565b604080516001600160a01b03909216825242602083015290918291820190565b60405162461bcd60e51b815260206004820152602c60248201527f537461666620616c7265616479206173736f636961746564207769746820616e60448201526b1034b739ba34ba3aba34b7b760a11b6064820152608490fd5b60405162461bcd60e51b815260206004820152603160248201527f4f6e6c7920696e737469747574696f6e20726573706f6e7369626c652070657260448201527039b7b71031b0b71030b2321039ba30b33360791b6064820152608490fd5b506002548210611333565b602435906001600160a01b03821682036100d457565b610100810190811067ffffffffffffffff82111761066757604052565b90601f8019910116810190811067ffffffffffffffff82111761066757604052565b81601f820112156100d45780359067ffffffffffffffff82116106675760405192611530601f8401601f1916602001856114d9565b828452602083830101116100d457816000926020809301838601378301015290565b919082519283825260005b84811061157e575050826000602080949584010152601f8019910116010190565b60208183018101518483018201520161155d565b90600382101561159f5752565b634e487b7160e01b600052602160045260246000fd5b919091805183526020926115d6848301516101008087850152830190611552565b936115e960408401516040840190611592565b60018060a01b0390816060850151166060840152608084015195838103608085015281808851928381520197019160005b82811061166057505050505060e061164c61165d949560a085015160a085015260c085015184820360c0860152611552565b9201519060e0818403910152611552565b90565b835185168952978101979281019260010161161a565b9060009182548110156116b057600790838052027f290decd9548b62a8d60345a988386fc84ba6bc95484008f6362f93160ef3e563019190565b634e487b7160e01b83526032600452602483fd5b90600182811c921680156116f4575b60208310146116de57565b634e487b7160e01b600052602260045260246000fd5b91607f16916116d3565b9060405191826000825492611712846116c4565b908184526001948581169081600014611781575060011461173e575b505061173c925003836114d9565b565b9093915060005260209081600020936000915b81831061176957505061173c9350820101388061172e565b85548884018501529485019487945091830191611751565b91505061173c94506020925060ff191682840152151560051b820101388061172e565b60001981146102305760010190565b8181106117be575050565b600081556001016117b3565b67ffffffffffffffff81116106675760051b60200190565b80548210156117fa5760005260206000200190600090565b634e487b7160e01b600052603260045260246000fd5b90815491600160401b8310156106675782610cc391600161173c950181556117e2565b1561183a57565b60405162461bcd60e51b815260206004820152601a60248201527f496e737469747574696f6e20646f6573206e6f742065786973740000000000006044820152606490fd5b90811515806118b1575b156118aa576001600160a01b03166000908152600160205260409020541490565b5050600090565b506002548210611889565b604051906118c9826114bc565b606060e0836000815282602082015260006040820152600083820152826080820152600060a08201528260c08201520152565b80518210156117fa5760209160051b010190565b9060405191828154918282526020928383019160005283600020936000905b8282106119455750505061173c925003836114d9565b85546001600160a01b03168452600195860195889550938101939091019061192f565b90604051611975816114bc565b809280548252611987600182016116fe565b6020830152600281015460ff8116600381101561159f57604084015260081c6001600160a01b0316606083015260e0906119f0906006906119ca60038201611910565b6080860152600481015460a08601526119e5600582016116fe565b60c0860152016116fe565b910152565b6119ff81546116c4565b9081611a09575050565b81601f60009311600114611a1b575055565b908083918252611a3a601f60208420940160051c8401600185016117b3565b555556fea2646970667358221220c0031188fe338b67ad44c8d7d01a5ea6d39783a356cf43c03e67c8a4310bb78164736f6c63430008130033",
  "linkReferences": {},
  "deployedLinkReferences": {}
}