{
  "_format": "hh-sol-artifact-1",
  "contractName": "InstitutionManager",
  "sourceName": "contracts/InstitutionManager.sol",
  "abi": [
    {
      "inputs": [],
      "stateMutability": "nonpayable",
      "type": "constructor"
    },
    {
      "inputs": [
        {
          "internalType": "string",
          "name": "_name",
          "type": "string"
        },
        {
          "internalType": "enum IMyPetBase.InstitutionType",
          "name": "_institutionType",
          "type": "uint8"
        },
        {
          "internalType": "address",
          "name": "_responsiblePerson",
          "type": "address"
        }
      ],
      "name": "addInstitution",
      "outputs": [],
      "stateMutability": "nonpayable",
      "type": "function"
    },
    {
      "inputs": [
        {
          "internalType": "uint256",
          "name": "_orgId",
          "type": "uint256"
        },
        {
          "internalType": "address",
          "name": "_staff",
          "type": "address"
        }
      ],
      "name": "addStaffToInstitution",
      "outputs": [],
      "stateMutability": "nonpayable",
      "type": "function"
    },
    {
      "inputs": [],
      "name": "deployer",
      "outputs": [
        {
          "internalType": "address",
          "name": "",
          "type": "address"
        }
      ],
      "stateMutability": "view",
      "type": "function"
    },
    {
      "inputs": [],
      "name": "getAllInstitutions",
      "outputs": [
        {
          "internalType": "uint256[]",
          "name": "",
          "type": "uint256[]"
        },
        {
          "internalType": "string[]",
          "name": "",
          "type": "string[]"
        },
        {
          "internalType": "enum IMyPetBase.InstitutionType[]",
          "name": "",
          "type": "uint8[]"
        },
        {
          "internalType": "address[]",
          "name": "",
          "type": "address[]"
        }
      ],
      "stateMutability": "view",
      "type": "function"
    },
    {
      "inputs": [
        {
          "internalType": "uint256",
          "name": "_orgId",
          "type": "uint256"
        }
      ],
      "name": "getInstitutionDetail",
      "outputs": [
        {
          "internalType": "uint256",
          "name": "id",
          "type": "uint256"
        },
        {
          "internalType": "string",
          "name": "name",
          "type": "string"
        },
        {
          "internalType": "enum IMyPetBase.InstitutionType",
          "name": "institutionType",
          "type": "uint8"
        },
        {
          "internalType": "address",
          "name": "wallet",
          "type": "address"
        },
        {
          "internalType": "address",
          "name": "responsiblePerson",
          "type": "address"
        }
      ],
      "stateMutability": "view",
      "type": "function"
    },
    {
      "inputs": [
        {
          "internalType": "uint256",
          "name": "_orgId",
          "type": "uint256"
        }
      ],
      "name": "getInstitutionStaff",
      "outputs": [
        {
          "internalType": "address[]",
          "name": "",
          "type": "address[]"
        }
      ],
      "stateMutability": "view",
      "type": "function"
    },
    {
      "inputs": [],
      "name": "institutionIdCounter",
      "outputs": [
        {
          "internalType": "uint256",
          "name": "",
          "type": "uint256"
        }
      ],
      "stateMutability": "view",
      "type": "function"
    },
    {
      "inputs": [
        {
          "internalType": "uint256",
          "name": "",
          "type": "uint256"
        }
      ],
      "name": "institutions",
      "outputs": [
        {
          "internalType": "uint256",
          "name": "id",
          "type": "uint256"
        },
        {
          "internalType": "string",
          "name": "name",
          "type": "string"
        },
        {
          "internalType": "enum IMyPetBase.InstitutionType",
          "name": "institutionType",
          "type": "uint8"
        },
        {
          "internalType": "address",
          "name": "wallet",
          "type": "address"
        },
        {
          "internalType": "address",
          "name": "responsiblePerson",
          "type": "address"
        }
      ],
      "stateMutability": "view",
      "type": "function"
    },
    {
      "inputs": [
        {
          "internalType": "uint256",
          "name": "_orgId",
          "type": "uint256"
        },
        {
          "internalType": "address",
          "name": "_staff",
          "type": "address"
        }
      ],
      "name": "isStaffInInstitution",
      "outputs": [
        {
          "internalType": "bool",
          "name": "",
          "type": "bool"
        }
      ],
      "stateMutability": "view",
      "type": "function"
    },
    {
      "inputs": [
        {
          "internalType": "uint256",
          "name": "_orgId",
          "type": "uint256"
        },
        {
          "internalType": "address",
          "name": "_staff",
          "type": "address"
        }
      ],
      "name": "removeStaffFromInstitution",
      "outputs": [],
      "stateMutability": "nonpayable",
      "type": "function"
    },
    {
      "inputs": [
        {
          "internalType": "address",
          "name": "",
          "type": "address"
        }
      ],
      "name": "staffToInstitution",
      "outputs": [
        {
          "internalType": "uint256",
          "name": "",
          "type": "uint256"
        }
      ],
      "stateMutability": "view",
      "type": "function"
    }
  ],
  "bytecode": "0x6080604052600160025534801561001557600080fd5b5033600360006101000a81548173ffffffffffffffffffffffffffffffffffffffff021916908373ffffffffffffffffffffffffffffffffffffffff160217905550611ff9806100666000396000f3fe608060405234801561001057600080fd5b50600436106100a95760003560e01c80636eee7b30116100715780636eee7b301461016b57806384b2809714610189578063c03c75a8146101a5578063c1d7efe7146101d5578063c3b59d0014610205578063d5f3948814610239576100a9565b806303d7fe40146100ae5780631063b484146100ca5780633864855e146100fe5780634104180e1461011a578063584fab0f1461013b575b600080fd5b6100c860048036038101906100c39190611140565b610257565b005b6100e460048036038101906100df9190611180565b6103b3565b6040516100f59594939291906112d2565b60405180910390f35b61011860048036038101906101139190611140565b610541565b005b61012261069e565b6040516101329493929190611672565b60405180910390f35b610155600480360381019061015091906116d3565b610a4a565b6040516101629190611700565b60405180910390f35b610173610a62565b6040516101809190611700565b60405180910390f35b6101a3600480360381019061019e9190611875565b610a68565b005b6101bf60048036038101906101ba9190611140565b610d00565b6040516101cc91906118ff565b60405180910390f35b6101ef60048036038101906101ea9190611180565b610d6b565b6040516101fc919061191a565b60405180910390f35b61021f600480360381019061021a9190611180565b610f57565b6040516102309594939291906112d2565b60405180910390f35b610241611072565b60405161024e919061193c565b60405180910390f35b600082118015610268575060025482105b6102a7576040517f08c379a000000000000000000000000000000000000000000000000000000000815260040161029e906119a3565b60405180910390fd5b6000806001846102b791906119f2565b815481106102c8576102c7611a26565b5b906000526020600020906004020190508060030160009054906101000a900473ffffffffffffffffffffffffffffffffffffffff1673ffffffffffffffffffffffffffffffffffffffff163373ffffffffffffffffffffffffffffffffffffffff161461036a576040517f08c379a000000000000000000000000000000000000000000000000000000000815260040161036190611ac7565b60405180910390fd5b82600160008473ffffffffffffffffffffffffffffffffffffffff1673ffffffffffffffffffffffffffffffffffffffff16815260200190815260200160002081905550505050565b60006060600080600080861180156103cc575060025486105b61040b576040517f08c379a0000000000000000000000000000000000000000000000000000000008152600401610402906119a3565b60405180910390fd5b60008060018861041b91906119f2565b8154811061042c5761042b611a26565b5b906000526020600020906004020190508060000154816001018260020160009054906101000a900460ff168360020160019054906101000a900473ffffffffffffffffffffffffffffffffffffffff168460030160009054906101000a900473ffffffffffffffffffffffffffffffffffffffff168380546104ad90611b16565b80601f01602080910402602001604051908101604052809291908181526020018280546104d990611b16565b80156105265780601f106104fb57610100808354040283529160200191610526565b820191906000526020600020905b81548152906001019060200180831161050957829003601f168201915b50505050509350955095509550955095505091939590929450565b600082118015610552575060025482105b610591576040517f08c379a0000000000000000000000000000000000000000000000000000000008152600401610588906119a3565b60405180910390fd5b6000806001846105a191906119f2565b815481106105b2576105b1611a26565b5b906000526020600020906004020190508060030160009054906101000a900473ffffffffffffffffffffffffffffffffffffffff1673ffffffffffffffffffffffffffffffffffffffff163373ffffffffffffffffffffffffffffffffffffffff1614610654576040517f08c379a000000000000000000000000000000000000000000000000000000000815260040161064b90611bb9565b60405180910390fd5b6000600160008473ffffffffffffffffffffffffffffffffffffffff1673ffffffffffffffffffffffffffffffffffffffff16815260200190815260200160002081905550505050565b606080606080600060016002546106b591906119f2565b67ffffffffffffffff8111156106ce576106cd611725565b5b6040519080825280602002602001820160405280156106fc5781602001602082028036833780820191505090505b5090506000600160025461071091906119f2565b67ffffffffffffffff81111561072957610728611725565b5b60405190808252806020026020018201604052801561075c57816020015b60608152602001906001900390816107475790505b5090506000600160025461077091906119f2565b67ffffffffffffffff81111561078957610788611725565b5b6040519080825280602002602001820160405280156107b75781602001602082028036833780820191505090505b509050600060016002546107cb91906119f2565b67ffffffffffffffff8111156107e4576107e3611725565b5b6040519080825280602002602001820160405280156108125781602001602082028036833780820191505090505b5090506000600190505b600254811015610a335760008060018361083691906119f2565b8154811061084757610846611a26565b5b9060005260206000209060040201905080600001548660018461086a91906119f2565b8151811061087b5761087a611a26565b5b60200260200101818152505080600101805461089690611b16565b80601f01602080910402602001604051908101604052809291908181526020018280546108c290611b16565b801561090f5780601f106108e45761010080835404028352916020019161090f565b820191906000526020600020905b8154815290600101906020018083116108f257829003601f168201915b50505050508560018461092291906119f2565b8151811061093357610932611a26565b5b60200260200101819052508060020160009054906101000a900460ff168460018461095e91906119f2565b8151811061096f5761096e611a26565b5b602002602001019060018111156109895761098861124c565b5b9081600181111561099d5761099c61124c565b5b815250508060020160019054906101000a900473ffffffffffffffffffffffffffffffffffffffff16836001846109d491906119f2565b815181106109e5576109e4611a26565b5b602002602001019073ffffffffffffffffffffffffffffffffffffffff16908173ffffffffffffffffffffffffffffffffffffffff1681525050508080610a2b90611bd9565b91505061081c565b508383838397509750975097505050505090919293565b60016020528060005260406000206000915090505481565b60025481565b600360009054906101000a900473ffffffffffffffffffffffffffffffffffffffff1673ffffffffffffffffffffffffffffffffffffffff163373ffffffffffffffffffffffffffffffffffffffff1614610af8576040517f08c379a0000000000000000000000000000000000000000000000000000000008152600401610aef90611c93565b60405180910390fd5b6000600160008373ffffffffffffffffffffffffffffffffffffffff1673ffffffffffffffffffffffffffffffffffffffff1681526020019081526020016000205414610b7a576040517f08c379a0000000000000000000000000000000000000000000000000000000008152600401610b7190611d25565b60405180910390fd5b6000600254905060026000815480929190610b9490611bd9565b9190505550600060018160018154018082558091505003906000526020600020905050600080600183610bc791906119f2565b81548110610bd857610bd7611a26565b5b9060005260206000209060040201905081816000018190555084816001019081610c029190611ef1565b50838160020160006101000a81548160ff02191690836001811115610c2a57610c2961124c565b5b0217905550828160020160016101000a81548173ffffffffffffffffffffffffffffffffffffffff021916908373ffffffffffffffffffffffffffffffffffffffff160217905550828160030160006101000a81548173ffffffffffffffffffffffffffffffffffffffff021916908373ffffffffffffffffffffffffffffffffffffffff16021790555081600160008573ffffffffffffffffffffffffffffffffffffffff1673ffffffffffffffffffffffffffffffffffffffff168152602001908152602001600020819055505050505050565b600080831480610d1257506002548310155b15610d205760009050610d65565b82600160008473ffffffffffffffffffffffffffffffffffffffff1673ffffffffffffffffffffffffffffffffffffffff168152602001908152602001600020541490505b92915050565b6060600082118015610d7e575060025482105b610dbd576040517f08c379a0000000000000000000000000000000000000000000000000000000008152600401610db4906119a3565b60405180910390fd5b6000805b600254811015610e335783600160008373ffffffffffffffffffffffffffffffffffffffff1673ffffffffffffffffffffffffffffffffffffffff1681526020019081526020016000205403610e20578180610e1c90611bd9565b9250505b8080610e2b90611bd9565b915050610dc1565b5060008167ffffffffffffffff811115610e5057610e4f611725565b5b604051908082528060200260200182016040528015610e7e5781602001602082028036833780820191505090505b5090506000805b600254811015610f4b57600081905086600160008373ffffffffffffffffffffffffffffffffffffffff1673ffffffffffffffffffffffffffffffffffffffff1681526020019081526020016000205403610f375780848481518110610eee57610eed611a26565b5b602002602001019073ffffffffffffffffffffffffffffffffffffffff16908173ffffffffffffffffffffffffffffffffffffffff16815250508280610f3390611bd9565b9350505b508080610f4390611bd9565b915050610e85565b50819350505050919050565b60008181548110610f6757600080fd5b9060005260206000209060040201600091509050806000015490806001018054610f9090611b16565b80601f0160208091040260200160405190810160405280929190818152602001828054610fbc90611b16565b80156110095780601f10610fde57610100808354040283529160200191611009565b820191906000526020600020905b815481529060010190602001808311610fec57829003601f168201915b5050505050908060020160009054906101000a900460ff16908060020160019054906101000a900473ffffffffffffffffffffffffffffffffffffffff16908060030160009054906101000a900473ffffffffffffffffffffffffffffffffffffffff16905085565b600360009054906101000a900473ffffffffffffffffffffffffffffffffffffffff1681565b6000604051905090565b600080fd5b600080fd5b6000819050919050565b6110bf816110ac565b81146110ca57600080fd5b50565b6000813590506110dc816110b6565b92915050565b600073ffffffffffffffffffffffffffffffffffffffff82169050919050565b600061110d826110e2565b9050919050565b61111d81611102565b811461112857600080fd5b50565b60008135905061113a81611114565b92915050565b60008060408385031215611157576111566110a2565b5b6000611165858286016110cd565b92505060206111768582860161112b565b9150509250929050565b600060208284031215611196576111956110a2565b5b60006111a4848285016110cd565b91505092915050565b6111b6816110ac565b82525050565b600081519050919050565b600082825260208201905092915050565b60005b838110156111f65780820151818401526020810190506111db565b60008484015250505050565b6000601f19601f8301169050919050565b600061121e826111bc565b61122881856111c7565b93506112388185602086016111d8565b61124181611202565b840191505092915050565b7f4e487b7100000000000000000000000000000000000000000000000000000000600052602160045260246000fd5b6002811061128c5761128b61124c565b5b50565b600081905061129d8261127b565b919050565b60006112ad8261128f565b9050919050565b6112bd816112a2565b82525050565b6112cc81611102565b82525050565b600060a0820190506112e760008301886111ad565b81810360208301526112f98187611213565b905061130860408301866112b4565b61131560608301856112c3565b61132260808301846112c3565b9695505050505050565b600081519050919050565b600082825260208201905092915050565b6000819050602082019050919050565b611361816110ac565b82525050565b60006113738383611358565b60208301905092915050565b6000602082019050919050565b60006113978261132c565b6113a18185611337565b93506113ac83611348565b8060005b838110156113dd5781516113c48882611367565b97506113cf8361137f565b9250506001810190506113b0565b5085935050505092915050565b600081519050919050565b600082825260208201905092915050565b6000819050602082019050919050565b600082825260208201905092915050565b6000611432826111bc565b61143c8185611416565b935061144c8185602086016111d8565b61145581611202565b840191505092915050565b600061146c8383611427565b905092915050565b6000602082019050919050565b600061148c826113ea565b61149681856113f5565b9350836020820285016114a885611406565b8060005b858110156114e457848403895281516114c58582611460565b94506114d083611474565b925060208a019950506001810190506114ac565b50829750879550505050505092915050565b600081519050919050565b600082825260208201905092915050565b6000819050602082019050919050565b61152b816112a2565b82525050565b600061153d8383611522565b60208301905092915050565b6000602082019050919050565b6000611561826114f6565b61156b8185611501565b935061157683611512565b8060005b838110156115a757815161158e8882611531565b975061159983611549565b92505060018101905061157a565b5085935050505092915050565b600081519050919050565b600082825260208201905092915050565b6000819050602082019050919050565b6115e981611102565b82525050565b60006115fb83836115e0565b60208301905092915050565b6000602082019050919050565b600061161f826115b4565b61162981856115bf565b9350611634836115d0565b8060005b8381101561166557815161164c88826115ef565b975061165783611607565b925050600181019050611638565b5085935050505092915050565b6000608082019050818103600083015261168c818761138c565b905081810360208301526116a08186611481565b905081810360408301526116b48185611556565b905081810360608301526116c88184611614565b905095945050505050565b6000602082840312156116e9576116e86110a2565b5b60006116f78482850161112b565b91505092915050565b600060208201905061171560008301846111ad565b92915050565b600080fd5b600080fd5b7f4e487b7100000000000000000000000000000000000000000000000000000000600052604160045260246000fd5b61175d82611202565b810181811067ffffffffffffffff8211171561177c5761177b611725565b5b80604052505050565b600061178f611098565b905061179b8282611754565b919050565b600067ffffffffffffffff8211156117bb576117ba611725565b5b6117c482611202565b9050602081019050919050565b82818337600083830152505050565b60006117f36117ee846117a0565b611785565b90508281526020810184848401111561180f5761180e611720565b5b61181a8482856117d1565b509392505050565b600082601f8301126118375761183661171b565b5b81356118478482602086016117e0565b91505092915050565b6002811061185d57600080fd5b50565b60008135905061186f81611850565b92915050565b60008060006060848603121561188e5761188d6110a2565b5b600084013567ffffffffffffffff8111156118ac576118ab6110a7565b5b6118b886828701611822565b93505060206118c986828701611860565b92505060406118da8682870161112b565b9150509250925092565b60008115159050919050565b6118f9816118e4565b82525050565b600060208201905061191460008301846118f0565b92915050565b600060208201905081810360008301526119348184611614565b905092915050565b600060208201905061195160008301846112c3565b92915050565b7f496e737469747574696f6e20646f6573206e6f74206578697374000000000000600082015250565b600061198d601a836111c7565b915061199882611957565b602082019050919050565b600060208201905081810360008301526119bc81611980565b9050919050565b7f4e487b7100000000000000000000000000000000000000000000000000000000600052601160045260246000fd5b60006119fd826110ac565b9150611a08836110ac565b9250828203905081811115611a2057611a1f6119c3565b5b92915050565b7f4e487b7100000000000000000000000000000000000000000000000000000000600052603260045260246000fd5b7f4f6e6c7920696e737469747574696f6e20726573706f6e7369626c652070657260008201527f736f6e2063616e20616464207374616666000000000000000000000000000000602082015250565b6000611ab16031836111c7565b9150611abc82611a55565b604082019050919050565b60006020820190508181036000830152611ae081611aa4565b9050919050565b7f4e487b7100000000000000000000000000000000000000000000000000000000600052602260045260246000fd5b60006002820490506001821680611b2e57607f821691505b602082108103611b4157611b40611ae7565b5b50919050565b7f4f6e6c7920696e737469747574696f6e20726573706f6e7369626c652070657260008201527f736f6e2063616e2072656d6f7665207374616666000000000000000000000000602082015250565b6000611ba36034836111c7565b9150611bae82611b47565b604082019050919050565b60006020820190508181036000830152611bd281611b96565b9050919050565b6000611be4826110ac565b91507fffffffffffffffffffffffffffffffffffffffffffffffffffffffffffffffff8203611c1657611c156119c3565b5b600182019050919050565b7f4f6e6c79206465706c6f7965722063616e2061646420696e737469747574696f60008201527f6e73000000000000000000000000000000000000000000000000000000000000602082015250565b6000611c7d6022836111c7565b9150611c8882611c21565b604082019050919050565b60006020820190508181036000830152611cac81611c70565b9050919050565b7f4164647265737320616c7265616479206173736f63696174656420776974682060008201527f616e20696e737469747574696f6e000000000000000000000000000000000000602082015250565b6000611d0f602e836111c7565b9150611d1a82611cb3565b604082019050919050565b60006020820190508181036000830152611d3e81611d02565b9050919050565b60008190508160005260206000209050919050565b60006020601f8301049050919050565b600082821b905092915050565b600060088302611da77fffffffffffffffffffffffffffffffffffffffffffffffffffffffffffffffff82611d6a565b611db18683611d6a565b95508019841693508086168417925050509392505050565b6000819050919050565b6000611dee611de9611de4846110ac565b611dc9565b6110ac565b9050919050565b6000819050919050565b611e0883611dd3565b611e1c611e1482611df5565b848454611d77565b825550505050565b600090565b611e31611e24565b611e3c818484611dff565b505050565b5b81811015611e6057611e55600082611e29565b600181019050611e42565b5050565b601f821115611ea557611e7681611d45565b611e7f84611d5a565b81016020851015611e8e578190505b611ea2611e9a85611d5a565b830182611e41565b50505b505050565b600082821c905092915050565b6000611ec860001984600802611eaa565b1980831691505092915050565b6000611ee18383611eb7565b9150826002028217905092915050565b611efa826111bc565b67ffffffffffffffff811115611f1357611f12611725565b5b611f1d8254611b16565b611f28828285611e64565b600060209050601f831160018114611f5b5760008415611f49578287015190505b611f538582611ed5565b865550611fbb565b601f198416611f6986611d45565b60005b82811015611f9157848901518255600182019150602085019450602081019050611f6c565b86831015611fae5784890151611faa601f891682611eb7565b8355505b6001600288020188555050505b50505050505056fea2646970667358221220cd14854146045ba93d6c2ed5c5580bb57aa7005284a004bf386b093fbfe0296164736f6c63430008130033",
  "linkReferences": {},
  "deployedLinkReferences": {}
}