{
  "_format": "hh-sol-artifact-1",
  "contractName": "InstitutionManager",
  "sourceName": "contracts/InstitutionManager.sol",
  "abi": [
    {
      "inputs": [],
      "stateMutability": "nonpayable",
      "type": "constructor"
    },
    {
      "inputs": [
        {
          "internalType": "string",
          "name": "_name",
          "type": "string"
        },
        {
          "internalType": "enum IMyPetBase.InstitutionType",
          "name": "_institutionType",
          "type": "uint8"
        },
        {
          "internalType": "address",
          "name": "_responsiblePerson",
          "type": "address"
        }
      ],
      "name": "addInstitution",
      "outputs": [],
      "stateMutability": "nonpayable",
      "type": "function"
    },
    {
      "inputs": [
        {
          "internalType": "uint256",
          "name": "_orgId",
          "type": "uint256"
        },
        {
          "internalType": "address",
          "name": "_staff",
          "type": "address"
        }
      ],
      "name": "addStaffToInstitution",
      "outputs": [],
      "stateMutability": "nonpayable",
      "type": "function"
    },
    {
      "inputs": [],
      "name": "deployer",
      "outputs": [
        {
          "internalType": "address",
          "name": "",
          "type": "address"
        }
      ],
      "stateMutability": "view",
      "type": "function"
    },
    {
      "inputs": [],
      "name": "getAllInstitutions",
      "outputs": [
        {
          "internalType": "uint256[]",
          "name": "",
          "type": "uint256[]"
        },
        {
          "internalType": "string[]",
          "name": "",
          "type": "string[]"
        },
        {
          "internalType": "enum IMyPetBase.InstitutionType[]",
          "name": "",
          "type": "uint8[]"
        },
        {
          "internalType": "address[]",
          "name": "",
          "type": "address[]"
        }
      ],
      "stateMutability": "view",
      "type": "function"
    },
    {
      "inputs": [
        {
          "internalType": "uint256",
          "name": "_orgId",
          "type": "uint256"
        }
      ],
      "name": "getInstitutionDetail",
      "outputs": [
        {
          "internalType": "uint256",
          "name": "id",
          "type": "uint256"
        },
        {
          "internalType": "string",
          "name": "name",
          "type": "string"
        },
        {
          "internalType": "enum IMyPetBase.InstitutionType",
          "name": "institutionType",
          "type": "uint8"
        },
        {
          "internalType": "address",
          "name": "wallet",
          "type": "address"
        },
        {
          "internalType": "address",
          "name": "responsiblePerson",
          "type": "address"
        },
        {
          "internalType": "address[]",
          "name": "staffList",
          "type": "address[]"
        }
      ],
      "stateMutability": "view",
      "type": "function"
    },
    {
      "inputs": [
        {
          "internalType": "uint256",
          "name": "_orgId",
          "type": "uint256"
        }
      ],
      "name": "getInstitutionStaff",
      "outputs": [
        {
          "internalType": "address[]",
          "name": "",
          "type": "address[]"
        }
      ],
      "stateMutability": "view",
      "type": "function"
    },
    {
      "inputs": [],
      "name": "institutionIdCounter",
      "outputs": [
        {
          "internalType": "uint256",
          "name": "",
          "type": "uint256"
        }
      ],
      "stateMutability": "view",
      "type": "function"
    },
    {
      "inputs": [
        {
          "internalType": "uint256",
          "name": "",
          "type": "uint256"
        }
      ],
      "name": "institutions",
      "outputs": [
        {
          "internalType": "uint256",
          "name": "id",
          "type": "uint256"
        },
        {
          "internalType": "string",
          "name": "name",
          "type": "string"
        },
        {
          "internalType": "enum IMyPetBase.InstitutionType",
          "name": "institutionType",
          "type": "uint8"
        },
        {
          "internalType": "address",
          "name": "wallet",
          "type": "address"
        },
        {
          "internalType": "address",
          "name": "responsiblePerson",
          "type": "address"
        }
      ],
      "stateMutability": "view",
      "type": "function"
    },
    {
      "inputs": [
        {
          "internalType": "uint256",
          "name": "_orgId",
          "type": "uint256"
        },
        {
          "internalType": "address",
          "name": "_staff",
          "type": "address"
        }
      ],
      "name": "isStaffInInstitution",
      "outputs": [
        {
          "internalType": "bool",
          "name": "",
          "type": "bool"
        }
      ],
      "stateMutability": "view",
      "type": "function"
    },
    {
      "inputs": [
        {
          "internalType": "uint256",
          "name": "_orgId",
          "type": "uint256"
        },
        {
          "internalType": "address",
          "name": "_staff",
          "type": "address"
        }
      ],
      "name": "removeStaffFromInstitution",
      "outputs": [],
      "stateMutability": "nonpayable",
      "type": "function"
    },
    {
      "inputs": [
        {
          "internalType": "address",
          "name": "",
          "type": "address"
        }
      ],
      "name": "staffToInstitution",
      "outputs": [
        {
          "internalType": "uint256",
          "name": "",
          "type": "uint256"
        }
      ],
      "stateMutability": "view",
      "type": "function"
    }
  ],
  "bytecode": "0x6080604052600160025534801561001557600080fd5b5033600360006101000a81548173ffffffffffffffffffffffffffffffffffffffff021916908373ffffffffffffffffffffffffffffffffffffffff160217905550612430806100666000396000f3fe608060405234801561001057600080fd5b50600436106100a95760003560e01c80636eee7b30116100715780636eee7b301461016c57806384b280971461018a578063c03c75a8146101a6578063c1d7efe7146101d6578063c3b59d0014610206578063d5f394881461023a576100a9565b806303d7fe40146100ae5780631063b484146100ca5780633864855e146100ff5780634104180e1461011b578063584fab0f1461013c575b600080fd5b6100c860048036038101906100c391906114d9565b610258565b005b6100e460048036038101906100df9190611519565b610419565b6040516100f696959493929190611729565b60405180910390f35b610119600480360381019061011491906114d9565b610638565b005b61012361092e565b6040516101339493929190611a20565b60405180910390f35b61015660048036038101906101519190611a81565b610cda565b6040516101639190611aae565b60405180910390f35b610174610cf2565b6040516101819190611aae565b60405180910390f35b6101a4600480360381019061019f9190611c23565b610cf8565b005b6101c060048036038101906101bb91906114d9565b610ff2565b6040516101cd9190611cad565b60405180910390f35b6101f060048036038101906101eb9190611519565b61105d565b6040516101fd9190611cc8565b60405180910390f35b610220600480360381019061021b9190611519565b611249565b604051610231959493929190611cea565b60405180910390f35b610242611364565b60405161024f9190611d44565b60405180910390f35b600082118015610269575060025482105b6102a8576040517f08c379a000000000000000000000000000000000000000000000000000000000815260040161029f90611dab565b60405180910390fd5b6000806001846102b89190611dfa565b815481106102c9576102c8611e2e565b5b906000526020600020906005020190508060030160009054906101000a900473ffffffffffffffffffffffffffffffffffffffff1673ffffffffffffffffffffffffffffffffffffffff163373ffffffffffffffffffffffffffffffffffffffff161461036b576040517f08c379a000000000000000000000000000000000000000000000000000000000815260040161036290611ecf565b60405180910390fd5b82600160008473ffffffffffffffffffffffffffffffffffffffff1673ffffffffffffffffffffffffffffffffffffffff1681526020019081526020016000208190555080600401829080600181540180825580915050600190039060005260206000200160009091909190916101000a81548173ffffffffffffffffffffffffffffffffffffffff021916908373ffffffffffffffffffffffffffffffffffffffff160217905550505050565b6000606060008060006060600087118015610435575060025487105b610474576040517f08c379a000000000000000000000000000000000000000000000000000000000815260040161046b90611dab565b60405180910390fd5b6000806001896104849190611dfa565b8154811061049557610494611e2e565b5b906000526020600020906005020190508060000154816001018260020160009054906101000a900460ff168360020160019054906101000a900473ffffffffffffffffffffffffffffffffffffffff168460030160009054906101000a900473ffffffffffffffffffffffffffffffffffffffff168560040184805461051a90611f1e565b80601f016020809104026020016040519081016040528092919081815260200182805461054690611f1e565b80156105935780601f1061056857610100808354040283529160200191610593565b820191906000526020600020905b81548152906001019060200180831161057657829003601f168201915b505050505094508080548060200260200160405190810160405280929190818152602001828054801561061b57602002820191906000526020600020905b8160009054906101000a900473ffffffffffffffffffffffffffffffffffffffff1673ffffffffffffffffffffffffffffffffffffffff16815260200190600101908083116105d1575b505050505090509650965096509650965096505091939550919395565b600082118015610649575060025482105b610688576040517f08c379a000000000000000000000000000000000000000000000000000000000815260040161067f90611dab565b60405180910390fd5b6000806001846106989190611dfa565b815481106106a9576106a8611e2e565b5b906000526020600020906005020190508060030160009054906101000a900473ffffffffffffffffffffffffffffffffffffffff1673ffffffffffffffffffffffffffffffffffffffff163373ffffffffffffffffffffffffffffffffffffffff161461074b576040517f08c379a000000000000000000000000000000000000000000000000000000000815260040161074290611fc1565b60405180910390fd5b6000600160008473ffffffffffffffffffffffffffffffffffffffff1673ffffffffffffffffffffffffffffffffffffffff1681526020019081526020016000208190555060005b8160040180549050811015610928578273ffffffffffffffffffffffffffffffffffffffff168260040182815481106107cf576107ce611e2e565b5b9060005260206000200160009054906101000a900473ffffffffffffffffffffffffffffffffffffffff1673ffffffffffffffffffffffffffffffffffffffff160361091557816004016001836004018054905061082d9190611dfa565b8154811061083e5761083d611e2e565b5b9060005260206000200160009054906101000a900473ffffffffffffffffffffffffffffffffffffffff1682600401828154811061087f5761087e611e2e565b5b9060005260206000200160006101000a81548173ffffffffffffffffffffffffffffffffffffffff021916908373ffffffffffffffffffffffffffffffffffffffff160217905550816004018054806108db576108da611fe1565b5b6001900381819060005260206000200160006101000a81549073ffffffffffffffffffffffffffffffffffffffff02191690559055610928565b808061092090612010565b915050610793565b50505050565b606080606080600060016002546109459190611dfa565b67ffffffffffffffff81111561095e5761095d611ad3565b5b60405190808252806020026020018201604052801561098c5781602001602082028036833780820191505090505b509050600060016002546109a09190611dfa565b67ffffffffffffffff8111156109b9576109b8611ad3565b5b6040519080825280602002602001820160405280156109ec57816020015b60608152602001906001900390816109d75790505b50905060006001600254610a009190611dfa565b67ffffffffffffffff811115610a1957610a18611ad3565b5b604051908082528060200260200182016040528015610a475781602001602082028036833780820191505090505b50905060006001600254610a5b9190611dfa565b67ffffffffffffffff811115610a7457610a73611ad3565b5b604051908082528060200260200182016040528015610aa25781602001602082028036833780820191505090505b5090506000600190505b600254811015610cc357600080600183610ac69190611dfa565b81548110610ad757610ad6611e2e565b5b90600052602060002090600502019050806000015486600184610afa9190611dfa565b81518110610b0b57610b0a611e2e565b5b602002602001018181525050806001018054610b2690611f1e565b80601f0160208091040260200160405190810160405280929190818152602001828054610b5290611f1e565b8015610b9f5780601f10610b7457610100808354040283529160200191610b9f565b820191906000526020600020905b815481529060010190602001808311610b8257829003601f168201915b505050505085600184610bb29190611dfa565b81518110610bc357610bc2611e2e565b5b60200260200101819052508060020160009054906101000a900460ff1684600184610bee9190611dfa565b81518110610bff57610bfe611e2e565b5b60200260200101906001811115610c1957610c186115e5565b5b90816001811115610c2d57610c2c6115e5565b5b815250508060020160019054906101000a900473ffffffffffffffffffffffffffffffffffffffff1683600184610c649190611dfa565b81518110610c7557610c74611e2e565b5b602002602001019073ffffffffffffffffffffffffffffffffffffffff16908173ffffffffffffffffffffffffffffffffffffffff1681525050508080610cbb90612010565b915050610aac565b508383838397509750975097505050505090919293565b60016020528060005260406000206000915090505481565b60025481565b600360009054906101000a900473ffffffffffffffffffffffffffffffffffffffff1673ffffffffffffffffffffffffffffffffffffffff163373ffffffffffffffffffffffffffffffffffffffff1614610d88576040517f08c379a0000000000000000000000000000000000000000000000000000000008152600401610d7f906120ca565b60405180910390fd5b6000600160008373ffffffffffffffffffffffffffffffffffffffff1673ffffffffffffffffffffffffffffffffffffffff1681526020019081526020016000205414610e0a576040517f08c379a0000000000000000000000000000000000000000000000000000000008152600401610e019061215c565b60405180910390fd5b6000600254905060026000815480929190610e2490612010565b9190505550600060018160018154018082558091505003906000526020600020905050600080600183610e579190611dfa565b81548110610e6857610e67611e2e565b5b9060005260206000209060050201905081816000018190555084816001019081610e929190612328565b50838160020160006101000a81548160ff02191690836001811115610eba57610eb96115e5565b5b0217905550828160020160016101000a81548173ffffffffffffffffffffffffffffffffffffffff021916908373ffffffffffffffffffffffffffffffffffffffff160217905550828160030160006101000a81548173ffffffffffffffffffffffffffffffffffffffff021916908373ffffffffffffffffffffffffffffffffffffffff160217905550600067ffffffffffffffff811115610f6057610f5f611ad3565b5b604051908082528060200260200182016040528015610f8e5781602001602082028036833780820191505090505b50816004019080519060200190610fa692919061138a565b5081600160008573ffffffffffffffffffffffffffffffffffffffff1673ffffffffffffffffffffffffffffffffffffffff168152602001908152602001600020819055505050505050565b60008083148061100457506002548310155b156110125760009050611057565b82600160008473ffffffffffffffffffffffffffffffffffffffff1673ffffffffffffffffffffffffffffffffffffffff168152602001908152602001600020541490505b92915050565b6060600082118015611070575060025482105b6110af576040517f08c379a00000000000000000000000000000000000000000000000000000000081526004016110a690611dab565b60405180910390fd5b6000805b6002548110156111255783600160008373ffffffffffffffffffffffffffffffffffffffff1673ffffffffffffffffffffffffffffffffffffffff168152602001908152602001600020540361111257818061110e90612010565b9250505b808061111d90612010565b9150506110b3565b5060008167ffffffffffffffff81111561114257611141611ad3565b5b6040519080825280602002602001820160405280156111705781602001602082028036833780820191505090505b5090506000805b60025481101561123d57600081905086600160008373ffffffffffffffffffffffffffffffffffffffff1673ffffffffffffffffffffffffffffffffffffffff168152602001908152602001600020540361122957808484815181106111e0576111df611e2e565b5b602002602001019073ffffffffffffffffffffffffffffffffffffffff16908173ffffffffffffffffffffffffffffffffffffffff1681525050828061122590612010565b9350505b50808061123590612010565b915050611177565b50819350505050919050565b6000818154811061125957600080fd5b906000526020600020906005020160009150905080600001549080600101805461128290611f1e565b80601f01602080910402602001604051908101604052809291908181526020018280546112ae90611f1e565b80156112fb5780601f106112d0576101008083540402835291602001916112fb565b820191906000526020600020905b8154815290600101906020018083116112de57829003601f168201915b5050505050908060020160009054906101000a900460ff16908060020160019054906101000a900473ffffffffffffffffffffffffffffffffffffffff16908060030160009054906101000a900473ffffffffffffffffffffffffffffffffffffffff16905085565b600360009054906101000a900473ffffffffffffffffffffffffffffffffffffffff1681565b828054828255906000526020600020908101928215611403579160200282015b828111156114025782518260006101000a81548173ffffffffffffffffffffffffffffffffffffffff021916908373ffffffffffffffffffffffffffffffffffffffff160217905550916020019190600101906113aa565b5b5090506114109190611414565b5090565b5b8082111561142d576000816000905550600101611415565b5090565b6000604051905090565b600080fd5b600080fd5b6000819050919050565b61145881611445565b811461146357600080fd5b50565b6000813590506114758161144f565b92915050565b600073ffffffffffffffffffffffffffffffffffffffff82169050919050565b60006114a68261147b565b9050919050565b6114b68161149b565b81146114c157600080fd5b50565b6000813590506114d3816114ad565b92915050565b600080604083850312156114f0576114ef61143b565b5b60006114fe85828601611466565b925050602061150f858286016114c4565b9150509250929050565b60006020828403121561152f5761152e61143b565b5b600061153d84828501611466565b91505092915050565b61154f81611445565b82525050565b600081519050919050565b600082825260208201905092915050565b60005b8381101561158f578082015181840152602081019050611574565b60008484015250505050565b6000601f19601f8301169050919050565b60006115b782611555565b6115c18185611560565b93506115d1818560208601611571565b6115da8161159b565b840191505092915050565b7f4e487b7100000000000000000000000000000000000000000000000000000000600052602160045260246000fd5b60028110611625576116246115e5565b5b50565b600081905061163682611614565b919050565b600061164682611628565b9050919050565b6116568161163b565b82525050565b6116658161149b565b82525050565b600081519050919050565b600082825260208201905092915050565b6000819050602082019050919050565b6116a08161149b565b82525050565b60006116b28383611697565b60208301905092915050565b6000602082019050919050565b60006116d68261166b565b6116e08185611676565b93506116eb83611687565b8060005b8381101561171c57815161170388826116a6565b975061170e836116be565b9250506001810190506116ef565b5085935050505092915050565b600060c08201905061173e6000830189611546565b818103602083015261175081886115ac565b905061175f604083018761164d565b61176c606083018661165c565b611779608083018561165c565b81810360a083015261178b81846116cb565b9050979650505050505050565b600081519050919050565b600082825260208201905092915050565b6000819050602082019050919050565b6117cd81611445565b82525050565b60006117df83836117c4565b60208301905092915050565b6000602082019050919050565b600061180382611798565b61180d81856117a3565b9350611818836117b4565b8060005b8381101561184957815161183088826117d3565b975061183b836117eb565b92505060018101905061181c565b5085935050505092915050565b600081519050919050565b600082825260208201905092915050565b6000819050602082019050919050565b600082825260208201905092915050565b600061189e82611555565b6118a88185611882565b93506118b8818560208601611571565b6118c18161159b565b840191505092915050565b60006118d88383611893565b905092915050565b6000602082019050919050565b60006118f882611856565b6119028185611861565b93508360208202850161191485611872565b8060005b85811015611950578484038952815161193185826118cc565b945061193c836118e0565b925060208a01995050600181019050611918565b50829750879550505050505092915050565b600081519050919050565b600082825260208201905092915050565b6000819050602082019050919050565b6119978161163b565b82525050565b60006119a9838361198e565b60208301905092915050565b6000602082019050919050565b60006119cd82611962565b6119d7818561196d565b93506119e28361197e565b8060005b83811015611a135781516119fa888261199d565b9750611a05836119b5565b9250506001810190506119e6565b5085935050505092915050565b60006080820190508181036000830152611a3a81876117f8565b90508181036020830152611a4e81866118ed565b90508181036040830152611a6281856119c2565b90508181036060830152611a7681846116cb565b905095945050505050565b600060208284031215611a9757611a9661143b565b5b6000611aa5848285016114c4565b91505092915050565b6000602082019050611ac36000830184611546565b92915050565b600080fd5b600080fd5b7f4e487b7100000000000000000000000000000000000000000000000000000000600052604160045260246000fd5b611b0b8261159b565b810181811067ffffffffffffffff82111715611b2a57611b29611ad3565b5b80604052505050565b6000611b3d611431565b9050611b498282611b02565b919050565b600067ffffffffffffffff821115611b6957611b68611ad3565b5b611b728261159b565b9050602081019050919050565b82818337600083830152505050565b6000611ba1611b9c84611b4e565b611b33565b905082815260208101848484011115611bbd57611bbc611ace565b5b611bc8848285611b7f565b509392505050565b600082601f830112611be557611be4611ac9565b5b8135611bf5848260208601611b8e565b91505092915050565b60028110611c0b57600080fd5b50565b600081359050611c1d81611bfe565b92915050565b600080600060608486031215611c3c57611c3b61143b565b5b600084013567ffffffffffffffff811115611c5a57611c59611440565b5b611c6686828701611bd0565b9350506020611c7786828701611c0e565b9250506040611c88868287016114c4565b9150509250925092565b60008115159050919050565b611ca781611c92565b82525050565b6000602082019050611cc26000830184611c9e565b92915050565b60006020820190508181036000830152611ce281846116cb565b905092915050565b600060a082019050611cff6000830188611546565b8181036020830152611d1181876115ac565b9050611d20604083018661164d565b611d2d606083018561165c565b611d3a608083018461165c565b9695505050505050565b6000602082019050611d59600083018461165c565b92915050565b7f496e737469747574696f6e20646f6573206e6f74206578697374000000000000600082015250565b6000611d95601a83611560565b9150611da082611d5f565b602082019050919050565b60006020820190508181036000830152611dc481611d88565b9050919050565b7f4e487b7100000000000000000000000000000000000000000000000000000000600052601160045260246000fd5b6000611e0582611445565b9150611e1083611445565b9250828203905081811115611e2857611e27611dcb565b5b92915050565b7f4e487b7100000000000000000000000000000000000000000000000000000000600052603260045260246000fd5b7f4f6e6c7920696e737469747574696f6e20726573706f6e7369626c652070657260008201527f736f6e2063616e20616464207374616666000000000000000000000000000000602082015250565b6000611eb9603183611560565b9150611ec482611e5d565b604082019050919050565b60006020820190508181036000830152611ee881611eac565b9050919050565b7f4e487b7100000000000000000000000000000000000000000000000000000000600052602260045260246000fd5b60006002820490506001821680611f3657607f821691505b602082108103611f4957611f48611eef565b5b50919050565b7f4f6e6c7920696e737469747574696f6e20726573706f6e7369626c652070657260008201527f736f6e2063616e2072656d6f7665207374616666000000000000000000000000602082015250565b6000611fab603483611560565b9150611fb682611f4f565b604082019050919050565b60006020820190508181036000830152611fda81611f9e565b9050919050565b7f4e487b7100000000000000000000000000000000000000000000000000000000600052603160045260246000fd5b600061201b82611445565b91507fffffffffffffffffffffffffffffffffffffffffffffffffffffffffffffffff820361204d5761204c611dcb565b5b600182019050919050565b7f4f6e6c79206465706c6f7965722063616e2061646420696e737469747574696f60008201527f6e73000000000000000000000000000000000000000000000000000000000000602082015250565b60006120b4602283611560565b91506120bf82612058565b604082019050919050565b600060208201905081810360008301526120e3816120a7565b9050919050565b7f4164647265737320616c7265616479206173736f63696174656420776974682060008201527f616e20696e737469747574696f6e000000000000000000000000000000000000602082015250565b6000612146602e83611560565b9150612151826120ea565b604082019050919050565b6000602082019050818103600083015261217581612139565b9050919050565b60008190508160005260206000209050919050565b60006020601f8301049050919050565b600082821b905092915050565b6000600883026121de7fffffffffffffffffffffffffffffffffffffffffffffffffffffffffffffffff826121a1565b6121e886836121a1565b95508019841693508086168417925050509392505050565b6000819050919050565b600061222561222061221b84611445565b612200565b611445565b9050919050565b6000819050919050565b61223f8361220a565b61225361224b8261222c565b8484546121ae565b825550505050565b600090565b61226861225b565b612273818484612236565b505050565b5b818110156122975761228c600082612260565b600181019050612279565b5050565b601f8211156122dc576122ad8161217c565b6122b684612191565b810160208510156122c5578190505b6122d96122d185612191565b830182612278565b50505b505050565b600082821c905092915050565b60006122ff600019846008026122e1565b1980831691505092915050565b600061231883836122ee565b9150826002028217905092915050565b61233182611555565b67ffffffffffffffff81111561234a57612349611ad3565b5b6123548254611f1e565b61235f82828561229b565b600060209050601f8311600181146123925760008415612380578287015190505b61238a858261230c565b8655506123f2565b601f1984166123a08661217c565b60005b828110156123c8578489015182556001820191506020850194506020810190506123a3565b868310156123e557848901516123e1601f8916826122ee565b8355505b6001600288020188555050505b50505050505056fea26469706673582212207ebf567e13309958be750a64377fb04ec26a03eb615711db7619d70dbd49ad0f64736f6c63430008130033",
  "linkReferences": {},
  "deployedLinkReferences": {}
}