{
  "_format": "hh-sol-artifact-1",
  "contractName": "InstitutionManager",
  "sourceName": "contracts/InstitutionManager.sol",
  "abi": [
    {
      "inputs": [],
      "stateMutability": "nonpayable",
      "type": "constructor"
    },
    {
      "inputs": [
        {
          "internalType": "string",
          "name": "_name",
          "type": "string"
        },
        {
          "internalType": "enum IMyPetBase.InstitutionType",
          "name": "_institutionType",
          "type": "uint8"
        },
        {
          "internalType": "address",
          "name": "_responsiblePerson",
          "type": "address"
        }
      ],
      "name": "addInstitution",
      "outputs": [],
      "stateMutability": "nonpayable",
      "type": "function"
    },
    {
      "inputs": [
        {
          "internalType": "uint256",
          "name": "_orgId",
          "type": "uint256"
        },
        {
          "internalType": "address",
          "name": "_staff",
          "type": "address"
        }
      ],
      "name": "addStaffToInstitution",
      "outputs": [],
      "stateMutability": "nonpayable",
      "type": "function"
    },
    {
      "inputs": [],
      "name": "deployer",
      "outputs": [
        {
          "internalType": "address",
          "name": "",
          "type": "address"
        }
      ],
      "stateMutability": "view",
      "type": "function"
    },
    {
      "inputs": [],
      "name": "getAllInstitutions",
      "outputs": [
        {
          "internalType": "uint256[]",
          "name": "",
          "type": "uint256[]"
        },
        {
          "internalType": "string[]",
          "name": "",
          "type": "string[]"
        },
        {
          "internalType": "enum IMyPetBase.InstitutionType[]",
          "name": "",
          "type": "uint8[]"
        },
        {
          "internalType": "address[]",
          "name": "",
          "type": "address[]"
        }
      ],
      "stateMutability": "view",
      "type": "function"
    },
    {
      "inputs": [
        {
          "internalType": "uint256",
          "name": "_orgId",
          "type": "uint256"
        }
      ],
      "name": "getInstitutionDetail",
      "outputs": [
        {
          "internalType": "uint256",
          "name": "id",
          "type": "uint256"
        },
        {
          "internalType": "string",
          "name": "name",
          "type": "string"
        },
        {
          "internalType": "enum IMyPetBase.InstitutionType",
          "name": "institutionType",
          "type": "uint8"
        },
        {
          "internalType": "address",
          "name": "wallet",
          "type": "address"
        },
        {
          "internalType": "address",
          "name": "responsiblePerson",
          "type": "address"
        }
      ],
      "stateMutability": "view",
      "type": "function"
    },
    {
      "inputs": [
        {
          "internalType": "uint256",
          "name": "_orgId",
          "type": "uint256"
        }
      ],
      "name": "getInstitutionStaff",
      "outputs": [
        {
          "internalType": "address[]",
          "name": "",
          "type": "address[]"
        }
      ],
      "stateMutability": "view",
      "type": "function"
    },
    {
      "inputs": [
        {
          "internalType": "address",
          "name": "",
          "type": "address"
        }
      ],
      "name": "institutionAddressToId",
      "outputs": [
        {
          "internalType": "uint256",
          "name": "",
          "type": "uint256"
        }
      ],
      "stateMutability": "view",
      "type": "function"
    },
    {
      "inputs": [],
      "name": "institutionIdCounter",
      "outputs": [
        {
          "internalType": "uint256",
          "name": "",
          "type": "uint256"
        }
      ],
      "stateMutability": "view",
      "type": "function"
    },
    {
      "inputs": [
        {
          "internalType": "uint256",
          "name": "",
          "type": "uint256"
        }
      ],
      "name": "institutions",
      "outputs": [
        {
          "internalType": "uint256",
          "name": "id",
          "type": "uint256"
        },
        {
          "internalType": "string",
          "name": "name",
          "type": "string"
        },
        {
          "internalType": "enum IMyPetBase.InstitutionType",
          "name": "institutionType",
          "type": "uint8"
        },
        {
          "internalType": "address",
          "name": "wallet",
          "type": "address"
        },
        {
          "internalType": "address",
          "name": "responsiblePerson",
          "type": "address"
        }
      ],
      "stateMutability": "view",
      "type": "function"
    },
    {
      "inputs": [
        {
          "internalType": "uint256",
          "name": "_orgId",
          "type": "uint256"
        },
        {
          "internalType": "address",
          "name": "_staff",
          "type": "address"
        }
      ],
      "name": "isStaffInInstitution",
      "outputs": [
        {
          "internalType": "bool",
          "name": "",
          "type": "bool"
        }
      ],
      "stateMutability": "view",
      "type": "function"
    },
    {
      "inputs": [
        {
          "internalType": "uint256",
          "name": "_orgId",
          "type": "uint256"
        },
        {
          "internalType": "address",
          "name": "_staff",
          "type": "address"
        }
      ],
      "name": "removeStaffFromInstitution",
      "outputs": [],
      "stateMutability": "nonpayable",
      "type": "function"
    },
    {
      "inputs": [
        {
          "internalType": "address",
          "name": "",
          "type": "address"
        }
      ],
      "name": "staffToInstitution",
      "outputs": [
        {
          "internalType": "address",
          "name": "",
          "type": "address"
        }
      ],
      "stateMutability": "view",
      "type": "function"
    }
  ],
  "bytecode": "0x6080604052600160035534801561001557600080fd5b5033600460006101000a81548173ffffffffffffffffffffffffffffffffffffffff021916908373ffffffffffffffffffffffffffffffffffffffff1602179055506122b3806100666000396000f3fe608060405234801561001057600080fd5b50600436106100b45760003560e01c806384b280971161007157806384b2809714610194578063c03c75a8146101b0578063c1d7efe7146101e0578063c3b59d0014610210578063d5f3948814610244578063e4d3416414610262576100b4565b806303d7fe40146100b95780631063b484146100d55780633864855e146101095780634104180e14610125578063584fab0f146101465780636eee7b3014610176575b600080fd5b6100d360048036038101906100ce91906113fa565b610292565b005b6100ef60048036038101906100ea919061143a565b61044c565b60405161010095949392919061158c565b60405180910390f35b610123600480360381019061011e91906113fa565b6105da565b005b61012d610771565b60405161013d949392919061192c565b60405180910390f35b610160600480360381019061015b919061198d565b610b1d565b60405161016d91906119ba565b60405180910390f35b61017e610b50565b60405161018b91906119d5565b60405180910390f35b6101ae60048036038101906101a99190611b4a565b610b56565b005b6101ca60048036038101906101c591906113fa565b610dee565b6040516101d79190611bd4565b60405180910390f35b6101fa60048036038101906101f5919061143a565b610efb565b6040516102079190611bef565b60405180910390f35b61022a6004803603810190610225919061143a565b6111f9565b60405161023b95949392919061158c565b60405180910390f35b61024c611314565b60405161025991906119ba565b60405180910390f35b61027c6004803603810190610277919061198d565b61133a565b60405161028991906119d5565b60405180910390f35b6000821180156102a3575060035482105b6102e2576040517f08c379a00000000000000000000000000000000000000000000000000000000081526004016102d990611c5d565b60405180910390fd5b6000806001846102f29190611cac565b8154811061030357610302611ce0565b5b906000526020600020906004020190508060030160009054906101000a900473ffffffffffffffffffffffffffffffffffffffff1673ffffffffffffffffffffffffffffffffffffffff163373ffffffffffffffffffffffffffffffffffffffff16146103a5576040517f08c379a000000000000000000000000000000000000000000000000000000000815260040161039c90611d81565b60405180910390fd5b8060020160019054906101000a900473ffffffffffffffffffffffffffffffffffffffff16600260008473ffffffffffffffffffffffffffffffffffffffff1673ffffffffffffffffffffffffffffffffffffffff16815260200190815260200160002060006101000a81548173ffffffffffffffffffffffffffffffffffffffff021916908373ffffffffffffffffffffffffffffffffffffffff160217905550505050565b6000606060008060008086118015610465575060035486105b6104a4576040517f08c379a000000000000000000000000000000000000000000000000000000000815260040161049b90611c5d565b60405180910390fd5b6000806001886104b49190611cac565b815481106104c5576104c4611ce0565b5b906000526020600020906004020190508060000154816001018260020160009054906101000a900460ff168360020160019054906101000a900473ffffffffffffffffffffffffffffffffffffffff168460030160009054906101000a900473ffffffffffffffffffffffffffffffffffffffff1683805461054690611dd0565b80601f016020809104026020016040519081016040528092919081815260200182805461057290611dd0565b80156105bf5780601f10610594576101008083540402835291602001916105bf565b820191906000526020600020905b8154815290600101906020018083116105a257829003601f168201915b50505050509350955095509550955095505091939590929450565b6000821180156105eb575060035482105b61062a576040517f08c379a000000000000000000000000000000000000000000000000000000000815260040161062190611c5d565b60405180910390fd5b60008060018461063a9190611cac565b8154811061064b5761064a611ce0565b5b906000526020600020906004020190508060030160009054906101000a900473ffffffffffffffffffffffffffffffffffffffff1673ffffffffffffffffffffffffffffffffffffffff163373ffffffffffffffffffffffffffffffffffffffff16146106ed576040517f08c379a00000000000000000000000000000000000000000000000000000000081526004016106e490611e73565b60405180910390fd5b6000600260008473ffffffffffffffffffffffffffffffffffffffff1673ffffffffffffffffffffffffffffffffffffffff16815260200190815260200160002060006101000a81548173ffffffffffffffffffffffffffffffffffffffff021916908373ffffffffffffffffffffffffffffffffffffffff160217905550505050565b606080606080600060016003546107889190611cac565b67ffffffffffffffff8111156107a1576107a06119fa565b5b6040519080825280602002602001820160405280156107cf5781602001602082028036833780820191505090505b509050600060016003546107e39190611cac565b67ffffffffffffffff8111156107fc576107fb6119fa565b5b60405190808252806020026020018201604052801561082f57816020015b606081526020019060019003908161081a5790505b509050600060016003546108439190611cac565b67ffffffffffffffff81111561085c5761085b6119fa565b5b60405190808252806020026020018201604052801561088a5781602001602082028036833780820191505090505b5090506000600160035461089e9190611cac565b67ffffffffffffffff8111156108b7576108b66119fa565b5b6040519080825280602002602001820160405280156108e55781602001602082028036833780820191505090505b5090506000600190505b600354811015610b06576000806001836109099190611cac565b8154811061091a57610919611ce0565b5b9060005260206000209060040201905080600001548660018461093d9190611cac565b8151811061094e5761094d611ce0565b5b60200260200101818152505080600101805461096990611dd0565b80601f016020809104026020016040519081016040528092919081815260200182805461099590611dd0565b80156109e25780601f106109b7576101008083540402835291602001916109e2565b820191906000526020600020905b8154815290600101906020018083116109c557829003601f168201915b5050505050856001846109f59190611cac565b81518110610a0657610a05611ce0565b5b60200260200101819052508060020160009054906101000a900460ff1684600184610a319190611cac565b81518110610a4257610a41611ce0565b5b60200260200101906001811115610a5c57610a5b611506565b5b90816001811115610a7057610a6f611506565b5b815250508060020160019054906101000a900473ffffffffffffffffffffffffffffffffffffffff1683600184610aa79190611cac565b81518110610ab857610ab7611ce0565b5b602002602001019073ffffffffffffffffffffffffffffffffffffffff16908173ffffffffffffffffffffffffffffffffffffffff1681525050508080610afe90611e93565b9150506108ef565b508383838397509750975097505050505090919293565b60026020528060005260406000206000915054906101000a900473ffffffffffffffffffffffffffffffffffffffff1681565b60035481565b600460009054906101000a900473ffffffffffffffffffffffffffffffffffffffff1673ffffffffffffffffffffffffffffffffffffffff163373ffffffffffffffffffffffffffffffffffffffff1614610be6576040517f08c379a0000000000000000000000000000000000000000000000000000000008152600401610bdd90611f4d565b60405180910390fd5b6000600160008373ffffffffffffffffffffffffffffffffffffffff1673ffffffffffffffffffffffffffffffffffffffff1681526020019081526020016000205414610c68576040517f08c379a0000000000000000000000000000000000000000000000000000000008152600401610c5f90611fdf565b60405180910390fd5b6000600354905060036000815480929190610c8290611e93565b9190505550600060018160018154018082558091505003906000526020600020905050600080600183610cb59190611cac565b81548110610cc657610cc5611ce0565b5b9060005260206000209060040201905081816000018190555084816001019081610cf091906121ab565b50838160020160006101000a81548160ff02191690836001811115610d1857610d17611506565b5b0217905550828160020160016101000a81548173ffffffffffffffffffffffffffffffffffffffff021916908373ffffffffffffffffffffffffffffffffffffffff160217905550828160030160006101000a81548173ffffffffffffffffffffffffffffffffffffffff021916908373ffffffffffffffffffffffffffffffffffffffff16021790555081600160008573ffffffffffffffffffffffffffffffffffffffff1673ffffffffffffffffffffffffffffffffffffffff168152602001908152602001600020819055505050505050565b600080831480610e0057506003548310155b15610e0e5760009050610ef5565b600080600185610e1e9190611cac565b81548110610e2f57610e2e611ce0565b5b906000526020600020906004020190508060020160019054906101000a900473ffffffffffffffffffffffffffffffffffffffff1673ffffffffffffffffffffffffffffffffffffffff16600260008573ffffffffffffffffffffffffffffffffffffffff1673ffffffffffffffffffffffffffffffffffffffff16815260200190815260200160002060009054906101000a900473ffffffffffffffffffffffffffffffffffffffff1673ffffffffffffffffffffffffffffffffffffffff16149150505b92915050565b6060600082118015610f0e575060035482105b610f4d576040517f08c379a0000000000000000000000000000000000000000000000000000000008152600401610f4490611c5d565b60405180910390fd5b600080600184610f5d9190611cac565b81548110610f6e57610f6d611ce0565b5b906000526020600020906004020190506000805b600354811015611064578260020160019054906101000a900473ffffffffffffffffffffffffffffffffffffffff1673ffffffffffffffffffffffffffffffffffffffff16600260008373ffffffffffffffffffffffffffffffffffffffff1673ffffffffffffffffffffffffffffffffffffffff16815260200190815260200160002060009054906101000a900473ffffffffffffffffffffffffffffffffffffffff1673ffffffffffffffffffffffffffffffffffffffff160361105157818061104d90611e93565b9250505b808061105c90611e93565b915050610f82565b5060008167ffffffffffffffff811115611081576110806119fa565b5b6040519080825280602002602001820160405280156110af5781602001602082028036833780820191505090505b5090506000805b6003548110156111ec5760008190508560020160019054906101000a900473ffffffffffffffffffffffffffffffffffffffff1673ffffffffffffffffffffffffffffffffffffffff16600260008373ffffffffffffffffffffffffffffffffffffffff1673ffffffffffffffffffffffffffffffffffffffff16815260200190815260200160002060009054906101000a900473ffffffffffffffffffffffffffffffffffffffff1673ffffffffffffffffffffffffffffffffffffffff16036111d8578084848151811061118f5761118e611ce0565b5b602002602001019073ffffffffffffffffffffffffffffffffffffffff16908173ffffffffffffffffffffffffffffffffffffffff168152505082806111d490611e93565b9350505b5080806111e490611e93565b9150506110b6565b5081945050505050919050565b6000818154811061120957600080fd5b906000526020600020906004020160009150905080600001549080600101805461123290611dd0565b80601f016020809104026020016040519081016040528092919081815260200182805461125e90611dd0565b80156112ab5780601f10611280576101008083540402835291602001916112ab565b820191906000526020600020905b81548152906001019060200180831161128e57829003601f168201915b5050505050908060020160009054906101000a900460ff16908060020160019054906101000a900473ffffffffffffffffffffffffffffffffffffffff16908060030160009054906101000a900473ffffffffffffffffffffffffffffffffffffffff16905085565b600460009054906101000a900473ffffffffffffffffffffffffffffffffffffffff1681565b60016020528060005260406000206000915090505481565b6000604051905090565b600080fd5b600080fd5b6000819050919050565b61137981611366565b811461138457600080fd5b50565b60008135905061139681611370565b92915050565b600073ffffffffffffffffffffffffffffffffffffffff82169050919050565b60006113c78261139c565b9050919050565b6113d7816113bc565b81146113e257600080fd5b50565b6000813590506113f4816113ce565b92915050565b600080604083850312156114115761141061135c565b5b600061141f85828601611387565b9250506020611430858286016113e5565b9150509250929050565b6000602082840312156114505761144f61135c565b5b600061145e84828501611387565b91505092915050565b61147081611366565b82525050565b600081519050919050565b600082825260208201905092915050565b60005b838110156114b0578082015181840152602081019050611495565b60008484015250505050565b6000601f19601f8301169050919050565b60006114d882611476565b6114e28185611481565b93506114f2818560208601611492565b6114fb816114bc565b840191505092915050565b7f4e487b7100000000000000000000000000000000000000000000000000000000600052602160045260246000fd5b6002811061154657611545611506565b5b50565b600081905061155782611535565b919050565b600061156782611549565b9050919050565b6115778161155c565b82525050565b611586816113bc565b82525050565b600060a0820190506115a16000830188611467565b81810360208301526115b381876114cd565b90506115c2604083018661156e565b6115cf606083018561157d565b6115dc608083018461157d565b9695505050505050565b600081519050919050565b600082825260208201905092915050565b6000819050602082019050919050565b61161b81611366565b82525050565b600061162d8383611612565b60208301905092915050565b6000602082019050919050565b6000611651826115e6565b61165b81856115f1565b935061166683611602565b8060005b8381101561169757815161167e8882611621565b975061168983611639565b92505060018101905061166a565b5085935050505092915050565b600081519050919050565b600082825260208201905092915050565b6000819050602082019050919050565b600082825260208201905092915050565b60006116ec82611476565b6116f681856116d0565b9350611706818560208601611492565b61170f816114bc565b840191505092915050565b600061172683836116e1565b905092915050565b6000602082019050919050565b6000611746826116a4565b61175081856116af565b935083602082028501611762856116c0565b8060005b8581101561179e578484038952815161177f858261171a565b945061178a8361172e565b925060208a01995050600181019050611766565b50829750879550505050505092915050565b600081519050919050565b600082825260208201905092915050565b6000819050602082019050919050565b6117e58161155c565b82525050565b60006117f783836117dc565b60208301905092915050565b6000602082019050919050565b600061181b826117b0565b61182581856117bb565b9350611830836117cc565b8060005b8381101561186157815161184888826117eb565b975061185383611803565b925050600181019050611834565b5085935050505092915050565b600081519050919050565b600082825260208201905092915050565b6000819050602082019050919050565b6118a3816113bc565b82525050565b60006118b5838361189a565b60208301905092915050565b6000602082019050919050565b60006118d98261186e565b6118e38185611879565b93506118ee8361188a565b8060005b8381101561191f57815161190688826118a9565b9750611911836118c1565b9250506001810190506118f2565b5085935050505092915050565b600060808201905081810360008301526119468187611646565b9050818103602083015261195a818661173b565b9050818103604083015261196e8185611810565b9050818103606083015261198281846118ce565b905095945050505050565b6000602082840312156119a3576119a261135c565b5b60006119b1848285016113e5565b91505092915050565b60006020820190506119cf600083018461157d565b92915050565b60006020820190506119ea6000830184611467565b92915050565b600080fd5b600080fd5b7f4e487b7100000000000000000000000000000000000000000000000000000000600052604160045260246000fd5b611a32826114bc565b810181811067ffffffffffffffff82111715611a5157611a506119fa565b5b80604052505050565b6000611a64611352565b9050611a708282611a29565b919050565b600067ffffffffffffffff821115611a9057611a8f6119fa565b5b611a99826114bc565b9050602081019050919050565b82818337600083830152505050565b6000611ac8611ac384611a75565b611a5a565b905082815260208101848484011115611ae457611ae36119f5565b5b611aef848285611aa6565b509392505050565b600082601f830112611b0c57611b0b6119f0565b5b8135611b1c848260208601611ab5565b91505092915050565b60028110611b3257600080fd5b50565b600081359050611b4481611b25565b92915050565b600080600060608486031215611b6357611b6261135c565b5b600084013567ffffffffffffffff811115611b8157611b80611361565b5b611b8d86828701611af7565b9350506020611b9e86828701611b35565b9250506040611baf868287016113e5565b9150509250925092565b60008115159050919050565b611bce81611bb9565b82525050565b6000602082019050611be96000830184611bc5565b92915050565b60006020820190508181036000830152611c0981846118ce565b905092915050565b7f496e737469747574696f6e20646f6573206e6f74206578697374000000000000600082015250565b6000611c47601a83611481565b9150611c5282611c11565b602082019050919050565b60006020820190508181036000830152611c7681611c3a565b9050919050565b7f4e487b7100000000000000000000000000000000000000000000000000000000600052601160045260246000fd5b6000611cb782611366565b9150611cc283611366565b9250828203905081811115611cda57611cd9611c7d565b5b92915050565b7f4e487b7100000000000000000000000000000000000000000000000000000000600052603260045260246000fd5b7f4f6e6c7920696e737469747574696f6e20726573706f6e7369626c652070657260008201527f736f6e2063616e20616464207374616666000000000000000000000000000000602082015250565b6000611d6b603183611481565b9150611d7682611d0f565b604082019050919050565b60006020820190508181036000830152611d9a81611d5e565b9050919050565b7f4e487b7100000000000000000000000000000000000000000000000000000000600052602260045260246000fd5b60006002820490506001821680611de857607f821691505b602082108103611dfb57611dfa611da1565b5b50919050565b7f4f6e6c7920696e737469747574696f6e20726573706f6e7369626c652070657260008201527f736f6e2063616e2072656d6f7665207374616666000000000000000000000000602082015250565b6000611e5d603483611481565b9150611e6882611e01565b604082019050919050565b60006020820190508181036000830152611e8c81611e50565b9050919050565b6000611e9e82611366565b91507fffffffffffffffffffffffffffffffffffffffffffffffffffffffffffffffff8203611ed057611ecf611c7d565b5b600182019050919050565b7f4f6e6c79206465706c6f7965722063616e2061646420696e737469747574696f60008201527f6e73000000000000000000000000000000000000000000000000000000000000602082015250565b6000611f37602283611481565b9150611f4282611edb565b604082019050919050565b60006020820190508181036000830152611f6681611f2a565b9050919050565b7f4164647265737320616c7265616479206173736f63696174656420776974682060008201527f616e20696e737469747574696f6e000000000000000000000000000000000000602082015250565b6000611fc9602e83611481565b9150611fd482611f6d565b604082019050919050565b60006020820190508181036000830152611ff881611fbc565b9050919050565b60008190508160005260206000209050919050565b60006020601f8301049050919050565b600082821b905092915050565b6000600883026120617fffffffffffffffffffffffffffffffffffffffffffffffffffffffffffffffff82612024565b61206b8683612024565b95508019841693508086168417925050509392505050565b6000819050919050565b60006120a86120a361209e84611366565b612083565b611366565b9050919050565b6000819050919050565b6120c28361208d565b6120d66120ce826120af565b848454612031565b825550505050565b600090565b6120eb6120de565b6120f68184846120b9565b505050565b5b8181101561211a5761210f6000826120e3565b6001810190506120fc565b5050565b601f82111561215f5761213081611fff565b61213984612014565b81016020851015612148578190505b61215c61215485612014565b8301826120fb565b50505b505050565b600082821c905092915050565b600061218260001984600802612164565b1980831691505092915050565b600061219b8383612171565b9150826002028217905092915050565b6121b482611476565b67ffffffffffffffff8111156121cd576121cc6119fa565b5b6121d78254611dd0565b6121e282828561211e565b600060209050601f8311600181146122155760008415612203578287015190505b61220d858261218f565b865550612275565b601f19841661222386611fff565b60005b8281101561224b57848901518255600182019150602085019450602081019050612226565b868310156122685784890151612264601f891682612171565b8355505b6001600288020188555050505b50505050505056fea2646970667358221220af68b130f55240dd2c030e784e5cb1bad7be3cff1747ac7a9ee8ebcc8497b89464736f6c63430008130033",
  "linkReferences": {},
  "deployedLinkReferences": {}
}