{
  "_format": "hh-sol-artifact-1",
  "contractName": "InstitutionManager",
  "sourceName": "contracts/InstitutionManager.sol",
  "abi": [
    {
      "inputs": [],
      "stateMutability": "nonpayable",
      "type": "constructor"
    },
    {
      "inputs": [
        {
          "internalType": "string",
          "name": "_name",
          "type": "string"
        },
        {
          "internalType": "enum IMyPetBase.InstitutionType",
          "name": "_institutionType",
          "type": "uint8"
        },
        {
          "internalType": "address",
          "name": "_responsiblePerson",
          "type": "address"
        },
        {
          "internalType": "string",
          "name": "_orgAddress",
          "type": "string"
        },
        {
          "internalType": "string",
          "name": "_contactInfo",
          "type": "string"
        }
      ],
      "name": "addInstitution",
      "outputs": [
        {
          "internalType": "uint256",
          "name": "",
          "type": "uint256"
        }
      ],
      "stateMutability": "nonpayable",
      "type": "function"
    },
    {
      "inputs": [
        {
          "internalType": "uint256",
          "name": "_orgId",
          "type": "uint256"
        },
        {
          "internalType": "address",
          "name": "_staff",
          "type": "address"
        }
      ],
      "name": "addStaffToInstitution",
      "outputs": [],
      "stateMutability": "nonpayable",
      "type": "function"
    },
    {
      "inputs": [],
      "name": "deployer",
      "outputs": [
        {
          "internalType": "address",
          "name": "",
          "type": "address"
        }
      ],
      "stateMutability": "view",
      "type": "function"
    },
    {
      "inputs": [],
      "name": "getAllInstitutions",
      "outputs": [
        {
          "components": [
            {
              "internalType": "uint256",
              "name": "id",
              "type": "uint256"
            },
            {
              "internalType": "string",
              "name": "name",
              "type": "string"
            },
            {
              "internalType": "enum IMyPetBase.InstitutionType",
              "name": "institutionType",
              "type": "uint8"
            },
            {
              "internalType": "address",
              "name": "responsiblePerson",
              "type": "address"
            },
            {
              "internalType": "address[]",
              "name": "staffList",
              "type": "address[]"
            },
            {
              "internalType": "uint256",
              "name": "createdAt",
              "type": "uint256"
            },
            {
              "internalType": "string",
              "name": "orgAddress",
              "type": "string"
            },
            {
              "internalType": "string",
              "name": "contactInfo",
              "type": "string"
            }
          ],
          "internalType": "struct IMyPetBase.Institution[]",
          "name": "",
          "type": "tuple[]"
        }
      ],
      "stateMutability": "view",
      "type": "function"
    },
    {
      "inputs": [
        {
          "internalType": "uint256",
          "name": "_orgId",
          "type": "uint256"
        }
      ],
      "name": "getInstitutionCreationTime",
      "outputs": [
        {
          "internalType": "uint256",
          "name": "",
          "type": "uint256"
        }
      ],
      "stateMutability": "view",
      "type": "function"
    },
    {
      "inputs": [
        {
          "internalType": "uint256",
          "name": "_orgId",
          "type": "uint256"
        }
      ],
      "name": "getInstitutionDetail",
      "outputs": [
        {
          "components": [
            {
              "internalType": "uint256",
              "name": "id",
              "type": "uint256"
            },
            {
              "internalType": "string",
              "name": "name",
              "type": "string"
            },
            {
              "internalType": "enum IMyPetBase.InstitutionType",
              "name": "institutionType",
              "type": "uint8"
            },
            {
              "internalType": "address",
              "name": "responsiblePerson",
              "type": "address"
            },
            {
              "internalType": "address[]",
              "name": "staffList",
              "type": "address[]"
            },
            {
              "internalType": "uint256",
              "name": "createdAt",
              "type": "uint256"
            },
            {
              "internalType": "string",
              "name": "orgAddress",
              "type": "string"
            },
            {
              "internalType": "string",
              "name": "contactInfo",
              "type": "string"
            }
          ],
          "internalType": "struct IMyPetBase.Institution",
          "name": "",
          "type": "tuple"
        }
      ],
      "stateMutability": "view",
      "type": "function"
    },
    {
      "inputs": [
        {
          "internalType": "uint256",
          "name": "_orgId",
          "type": "uint256"
        }
      ],
      "name": "getInstitutionStaff",
      "outputs": [
        {
          "internalType": "address[]",
          "name": "",
          "type": "address[]"
        }
      ],
      "stateMutability": "view",
      "type": "function"
    },
    {
      "inputs": [
        {
          "internalType": "enum IMyPetBase.InstitutionType",
          "name": "_type",
          "type": "uint8"
        }
      ],
      "name": "getInstitutionsByType",
      "outputs": [
        {
          "components": [
            {
              "internalType": "uint256",
              "name": "id",
              "type": "uint256"
            },
            {
              "internalType": "string",
              "name": "name",
              "type": "string"
            },
            {
              "internalType": "enum IMyPetBase.InstitutionType",
              "name": "institutionType",
              "type": "uint8"
            },
            {
              "internalType": "address",
              "name": "responsiblePerson",
              "type": "address"
            },
            {
              "internalType": "address[]",
              "name": "staffList",
              "type": "address[]"
            },
            {
              "internalType": "uint256",
              "name": "createdAt",
              "type": "uint256"
            },
            {
              "internalType": "string",
              "name": "orgAddress",
              "type": "string"
            },
            {
              "internalType": "string",
              "name": "contactInfo",
              "type": "string"
            }
          ],
          "internalType": "struct IMyPetBase.Institution[]",
          "name": "",
          "type": "tuple[]"
        }
      ],
      "stateMutability": "view",
      "type": "function"
    },
    {
      "inputs": [],
      "name": "institutionIdCounter",
      "outputs": [
        {
          "internalType": "uint256",
          "name": "",
          "type": "uint256"
        }
      ],
      "stateMutability": "view",
      "type": "function"
    },
    {
      "inputs": [
        {
          "internalType": "uint256",
          "name": "",
          "type": "uint256"
        }
      ],
      "name": "institutions",
      "outputs": [
        {
          "internalType": "uint256",
          "name": "id",
          "type": "uint256"
        },
        {
          "internalType": "string",
          "name": "name",
          "type": "string"
        },
        {
          "internalType": "enum IMyPetBase.InstitutionType",
          "name": "institutionType",
          "type": "uint8"
        },
        {
          "internalType": "address",
          "name": "responsiblePerson",
          "type": "address"
        },
        {
          "internalType": "uint256",
          "name": "createdAt",
          "type": "uint256"
        },
        {
          "internalType": "string",
          "name": "orgAddress",
          "type": "string"
        },
        {
          "internalType": "string",
          "name": "contactInfo",
          "type": "string"
        }
      ],
      "stateMutability": "view",
      "type": "function"
    },
    {
      "inputs": [
        {
          "internalType": "uint256",
          "name": "_orgId",
          "type": "uint256"
        },
        {
          "internalType": "address",
          "name": "_staff",
          "type": "address"
        }
      ],
      "name": "isStaffInInstitution",
      "outputs": [
        {
          "internalType": "bool",
          "name": "",
          "type": "bool"
        }
      ],
      "stateMutability": "view",
      "type": "function"
    },
    {
      "inputs": [
        {
          "internalType": "uint256",
          "name": "_orgId",
          "type": "uint256"
        },
        {
          "internalType": "address",
          "name": "_staff",
          "type": "address"
        }
      ],
      "name": "removeStaffFromInstitution",
      "outputs": [],
      "stateMutability": "nonpayable",
      "type": "function"
    },
    {
      "inputs": [
        {
          "internalType": "address",
          "name": "",
          "type": "address"
        }
      ],
      "name": "staffToInstitution",
      "outputs": [
        {
          "internalType": "uint256",
          "name": "",
          "type": "uint256"
        }
      ],
      "stateMutability": "view",
      "type": "function"
    },
    {
      "inputs": [
        {
          "internalType": "uint256",
          "name": "_orgId",
          "type": "uint256"
        },
        {
          "internalType": "string",
          "name": "_name",
          "type": "string"
        },
        {
          "internalType": "string",
          "name": "_orgAddress",
          "type": "string"
        },
        {
          "internalType": "string",
          "name": "_contactInfo",
          "type": "string"
        }
      ],
      "name": "updateInstitution",
      "outputs": [],
      "stateMutability": "nonpayable",
      "type": "function"
    },
    {
      "inputs": [
        {
          "internalType": "uint256",
          "name": "_orgId",
          "type": "uint256"
        },
        {
          "internalType": "address",
          "name": "_newResponsiblePerson",
          "type": "address"
        }
      ],
      "name": "updateInstitutionResponsiblePerson",
      "outputs": [],
      "stateMutability": "nonpayable",
      "type": "function"
    }
  ],
  "bytecode": "0x6080806040523461002d576001600255600380546001600160a01b03191633179055611a9090816100338239f35b600080fdfe6080604052600436101561001257600080fd5b60003560e01c806303d7fe401461131d5780630c09662114610ee05780631063b48414610e7757806310dca1ab14610c875780633864855e14610a8a5780634104180e14610a12578063584fab0f146109d45780636eee7b30146109b65780638192574e1461096157806390691bf61461083e578063ab2c193514610297578063c03c75a814610267578063c1d7efe7146101b2578063c3b59d00146100ef5763d5f39488146100c157600080fd5b346100ea5760003660031901126100ea576003546040516001600160a01b039091168152602090f35b600080fd5b346100ea5760203660031901126100ea576004356000548110156100ea576101169061168b565b5080546101ae61012860018401611713565b926101a0600282015460048301549261014f600661014860058401611713565b9201611713565b9361016c604051988998895260e060208a015260e089019061151b565b9261017d6040890160ff831661155b565b60081c6001600160a01b03166060880152608087015285820360a087015261151b565b9083820360c085015261151b565b0390f35b346100ea576020806003193601126100ea576004358015158061025c575b6101d990611848565b60001981019081116102465760036101f36101fa9261168b565b5001611975565b906040519181839283018184528251809152816040850193019160005b82811061022657505050500390f35b83516001600160a01b031685528695509381019392810192600101610217565b634e487b7160e01b600052601160045260246000fd5b5060025481106101d0565b346100ea5760403660031901126100ea57602061028d61028561146f565b600435611894565b6040519015158152f35b346100ea5760a03660031901126100ea5760043567ffffffffffffffff81116100ea576102c89036906004016114c4565b600260243510156100ea576001600160a01b0360443580821690036100ea5760643567ffffffffffffffff81116100ea576103079036906004016114c4565b9060843567ffffffffffffffff81116100ea576103289036906004016114c4565b92816003541633036107ee57816044351660005260016020526040600020546107925760025492610358846117b9565b600255600054600160401b8110156105f95780600161037a920160005561168b565b50506000198401848111610246576103919061168b565b509184835580519067ffffffffffffffff82116105f95781906103b760018601546116d9565b601f811161075d575b50602090601f83116001146106eb576000926106e0575b50508160011b916000199060031b1c19161760018301555b6002820180546001600160a81b03191660243560ff161760443560081b610100600160a81b031617905560405180602081011067ffffffffffffffff6020830111176105f9578060206000920160405252600382015460006003840155806106c1575b506003820160005242600483015580519067ffffffffffffffff82116105f957819061048160058501546116d9565b601f811161068c575b50602090601f831160011461061a5760009261060f575b50508160011b916000199060031b1c19161760058201555b835167ffffffffffffffff81116105f9576020946104da60068401546116d9565b601f81116105bb575b508590601f8311600114610549576105249392916000918361053e575b50508160011b916000199060031b1c19161760068201555b60036044359101611825565b604435166000526001825280604060002055604051908152f35b015190508780610500565b9060068401600052866000209160005b601f19851681106105a457509183916001936105249695601f1981161061058b575b505050811b016006820155610518565b015160001960f88460031b161c1916905587808061057b565b919288600181928685015181550194019201610559565b6105e9906006850160005287600020601f850160051c8101918986106105ef575b601f0160051c01906117c8565b866104e3565b90915081906105dc565b634e487b7160e01b600052604160045260246000fd5b0151905086806104a1565b9250600584016000526020600020906000935b601f1984168510610671576001945083601f19811610610658575b505050811b0160058201556104b9565b015160001960f88460031b161c19169055868080610648565b8181015183556020948501946001909301929091019061062d565b6106bb90600586016000526020600020601f850160051c810191602086106105ef57601f0160051c01906117c8565b8761048a565b6106da90600384016000526020600020908101906117c8565b85610452565b0151905087806103d7565b9250600185016000526020600020906000935b601f1984168510610742576001945083601f19811610610729575b505050811b0160018301556103ef565b015160001960f88460031b161c19169055878080610719565b818101518355602094850194600190930192909101906106fe565b61078c90600187016000526020600020601f850160051c810191602086106105ef57601f0160051c01906117c8565b886103c0565b60405162461bcd60e51b815260206004820152602e60248201527f4164647265737320616c7265616479206173736f63696174656420776974682060448201526d30b71034b739ba34ba3aba34b7b760911b6064820152608490fd5b60405162461bcd60e51b815260206004820152602260248201527f4f6e6c79206465706c6f7965722063616e2061646420696e737469747574696f6044820152616e7360f01b6064820152608490fd5b346100ea5760203660031901126100ea5760026004358181101591826100ea57600080549190805b838110610919575061087790611911565b9260009160005b84811061089357604051806101ae8882611629565b8660ff836108a08461168b565b500154169061090357828110156109035783146108c6575b6108c1906117b9565b61087e565b926108fb6108c1916108e06108da8761168b565b506119cd565b6108ea828a611961565b526108f58189611961565b506117b9565b9390506108b8565b634e487b7160e01b600052602160045260246000fd5b8560ff846109268461168b565b5001541690610903578381101561090357851461094c575b610947906117b9565b610866565b90610959610947916117b9565b91905061093e565b346100ea5760203660031901126100ea57600435801515806109ab575b61098790611848565b60001981019081116102465760046109a060209261168b565b500154604051908152f35b50600254811061097e565b346100ea5760003660031901126100ea576020600254604051908152f35b346100ea5760203660031901126100ea576004356001600160a01b038116908190036100ea5760005260016020526020604060002054604051908152f35b346100ea5760003660031901126100ea576002546000199081810181811161024657610a3d90611911565b9160015b828110610a5657604051806101ae8682611629565b81810190808211610246576108f582610a746108da610a859561168b565b610a7e8289611961565b5286611961565b610a41565b346100ea5760403660031901126100ea57600435610aa661146f565b81151580610c7c575b610ab890611848565b6000199180830190811161024657610acf9061168b565b509160018060a01b0380600285015460081c1692833303610c1a578116928314610bd657826000939293526001928392836020526000604081205560006003809701945b610b1957005b845480821015610bd4578285610b2f84896117f7565b9054908b1b1c1614610b4b5750610b45906117b9565b85610b13565b839495965080939192500191821161024657610b7c84610b6e610b9b94886117f7565b905490891b1c1691866117f7565b90919082549060031b9160018060a01b03809116831b921b1916179055565b82548015610bbe570192610baf84846117f7565b8154921b9290921b1916905555005b634e487b7160e01b600052603160045260246000fd5b005b606460405162461bcd60e51b815260206004820152602060248201527f43616e6e6f742072656d6f766520726573706f6e7369626c6520706572736f6e6044820152fd5b60405162461bcd60e51b815260206004820152603460248201527f4f6e6c7920696e737469747574696f6e20726573706f6e7369626c652070657260448201527339b7b71031b0b7103932b6b7bb329039ba30b33360611b6064820152608490fd5b506002548210610aaf565b346100ea5760403660031901126100ea57600435610ca361146f565b81151580610e6c575b610cb590611848565b600019820182811161024657610cca9061168b565b5091600283019060018060a01b0380835460081c1633148015610e5f575b15610de2578316806000526001602052604060002054828115918215610dd8575b505015610d6d57610bd49484916000526001602052604060002090815415610d56575b50508254610100600160a81b03191660089490941b610100600160a81b0316939093179091555050565b610d64936003925501611825565b83828180610d2c565b60405162461bcd60e51b815260206004820152603d60248201527f4e657720726573706f6e7369626c6520706572736f6e206973206173736f636960448201527f61746564207769746820616e6f7468657220696e737469747574696f6e0000006064820152608490fd5b1490508287610d09565b60405162461bcd60e51b815260206004820152604960248201527f4f6e6c792063757272656e7420726573706f6e7369626c6520706572736f6e2060448201527f6f72206465706c6f7965722063616e2075706461746520726573706f6e7369626064820152683632903832b939b7b760b91b608482015260a490fd5b5080600354163314610ce8565b506002548210610cac565b346100ea5760203660031901126100ea57600435610e936118d1565b5080151580610ed5575b610ea690611848565b600019810190811161024657610ec16108da6101ae9261168b565b604051918291602083526020830190611568565b506002548110610e9d565b346100ea5760803660031901126100ea57602460043567ffffffffffffffff82358181116100ea57610f169036906004016114c4565b916044358281116100ea57610f2f9036906004016114c4565b926064358381116100ea57610f489036906004016114c4565b82151580611312575b610f5a90611848565b600019928084019081116112fd57610f719061168b565b5060018060a01b0380600283015460081c1633149081156112ef575b50156112855760019586820184518781116111d45780610fad83546116d9565b96601f97888111611255575b506020908883116001146111f4576000926111e9575b505087828b1b9260031b1c19161790555b805160058301918782116111d457610ff883546116d9565b8681116111a4575b5060209086831160011461113e5760069493929160009183611133575b505087828b1b9260031b1c19161790555b0195815194851161111f575061104486546116d9565b8281116110e5575b50602091841160011461108457938394918492600095611079575b50501b9260031b1c1916179055600080f35b015193508680611067565b9190601f198416928660005284826000209460005b888282106110cc575050106110b4575b50505050811b019055005b01519060f88460031b161c19169055838080806110a9565b8486015188559096019560209485019488935001611099565b611110908760005260206000208480880160051c82019260208910611116575b0160051c01906117c8565b8661104c565b92508192611105565b634e487b7160e01b60009081526041600452fd5b015190508b8061101d565b9392918991601f1982169084600052806000209160005b81811061118c5750968360069810611175575b505050811b01905561102e565b01518960f88460031b161c191690558b8080611168565b8289015184558d959093019260209283019201611155565b6111ce908460005260206000208880860160051c82019260208710611116570160051c01906117c8565b8a611000565b89634e487b7160e01b60005260416004526000fd5b015190508b80610fcf565b908b9350601f1983169185600052816000209260005b81811061123d57508411611226575b505050811b019055610fe0565b01518960f88460031b161c191690558b8080611219565b8284015185558e96909401936020938401930161120a565b61127f908560005260206000208a80860160051c82019260208710611116570160051c01906117c8565b8c610fb9565b60405162461bcd60e51b815260206004820152603a818901527f4f6e6c7920726573706f6e7369626c6520706572736f6e206f72206465706c6f60448201527f7965722063616e2075706461746520696e737469747574696f6e0000000000006064820152608490fd5b905060035416331488610f8d565b86634e487b7160e01b60005260116004526000fd5b506002548310610f51565b346100ea5760403660031901126100ea5760043561133961146f565b81151580611464575b61134b90611848565b6000198201828111610246576113609061168b565b5060028101546001600160a01b039060081c81163303611405578216908160005260016020526040600020546113ab57610bd493600392600052600160205260406000205501611825565b60405162461bcd60e51b815260206004820152602c60248201527f537461666620616c7265616479206173736f636961746564207769746820616e60448201526b1034b739ba34ba3aba34b7b760a11b6064820152608490fd5b60405162461bcd60e51b815260206004820152603160248201527f4f6e6c7920696e737469747574696f6e20726573706f6e7369626c652070657260448201527039b7b71031b0b71030b2321039ba30b33360791b6064820152608490fd5b506002548210611342565b602435906001600160a01b03821682036100ea57565b610100810190811067ffffffffffffffff8211176105f957604052565b90601f8019910116810190811067ffffffffffffffff8211176105f957604052565b81601f820112156100ea5780359067ffffffffffffffff82116105f957604051926114f9601f8401601f1916602001856114a2565b828452602083830101116100ea57816000926020809301838601378301015290565b919082519283825260005b848110611547575050826000602080949584010152601f8019910116010190565b602081830181015184830182015201611526565b9060028210156109035752565b9190918051835260209261158984830151610100808785015283019061151b565b9361159c6040840151604084019061155b565b60018060a01b0390816060850151166060840152608084015195838103608085015281808851928381520197019160005b82811061161357505050505060e06115ff611610949560a085015160a085015260c085015184820360c086015261151b565b9201519060e081840391015261151b565b90565b83518516895297810197928101926001016115cd565b602080820190808352835180925260408301928160408460051b8301019501936000915b84831061165d5750505050505090565b909192939495848061167b600193603f198682030187528a51611568565b980193019301919493929061164d565b9060009182548110156116c557600790838052027f290decd9548b62a8d60345a988386fc84ba6bc95484008f6362f93160ef3e563019190565b634e487b7160e01b83526032600452602483fd5b90600182811c92168015611709575b60208310146116f357565b634e487b7160e01b600052602260045260246000fd5b91607f16916116e8565b9060405191826000825492611727846116d9565b9081845260019485811690816000146117965750600114611753575b5050611751925003836114a2565b565b9093915060005260209081600020936000915b81831061177e57505061175193508201013880611743565b85548884018501529485019487945091830191611766565b91505061175194506020925060ff191682840152151560051b8201013880611743565b60001981146102465760010190565b8181106117d3575050565b600081556001016117c8565b67ffffffffffffffff81116105f95760051b60200190565b805482101561180f5760005260206000200190600090565b634e487b7160e01b600052603260045260246000fd5b90815491600160401b8310156105f95782610b7c916001611751950181556117f7565b1561184f57565b60405162461bcd60e51b815260206004820152601a60248201527f496e737469747574696f6e20646f6573206e6f742065786973740000000000006044820152606490fd5b90811515806118c6575b156118bf576001600160a01b03166000908152600160205260409020541490565b5050600090565b50600254821061189e565b604051906118de82611485565b606060e0836000815282602082015260006040820152600083820152826080820152600060a08201528260c08201520152565b9061191b826117df565b61192860405191826114a2565b8281528092611939601f19916117df565b019060005b82811061194a57505050565b6020906119556118d1565b8282850101520161193e565b805182101561180f5760209160051b010190565b9060405191828154918282526020928383019160005283600020936000905b8282106119aa57505050611751925003836114a2565b85546001600160a01b031684526001958601958895509381019390910190611994565b906040516119da81611485565b8092805482526119ec60018201611713565b6020830152600281015460ff8116600281101561090357604084015260081c6001600160a01b0316606083015260e090611a5590600690611a2f60038201611975565b6080860152600481015460a0860152611a4a60058201611713565b60c086015201611713565b91015256fea26469706673582212207fecd0fdc5146c7372aa80d8c302817e13b2231ca7beabb9e68ce6701241902f64736f6c63430008130033",
  "linkReferences": {},
  "deployedLinkReferences": {}
}