{
  "_format": "hh-sol-artifact-1",
  "contractName": "InstitutionManager",
  "sourceName": "contracts/InstitutionManager.sol",
  "abi": [
    {
      "inputs": [],
      "stateMutability": "nonpayable",
      "type": "constructor"
    },
    {
      "inputs": [
        {
          "internalType": "string",
          "name": "_name",
          "type": "string"
        },
        {
          "internalType": "enum IMyPetBase.InstitutionType",
          "name": "_institutionType",
          "type": "uint8"
        },
        {
          "internalType": "address",
          "name": "_responsiblePerson",
          "type": "address"
        },
        {
          "internalType": "string",
          "name": "_orgAddress",
          "type": "string"
        },
        {
          "internalType": "string",
          "name": "_contactInfo",
          "type": "string"
        }
      ],
      "name": "addInstitution",
      "outputs": [
        {
          "internalType": "uint256",
          "name": "",
          "type": "uint256"
        }
      ],
      "stateMutability": "nonpayable",
      "type": "function"
    },
    {
      "inputs": [
        {
          "internalType": "uint256",
          "name": "_orgId",
          "type": "uint256"
        },
        {
          "internalType": "address",
          "name": "_staff",
          "type": "address"
        }
      ],
      "name": "addStaffToInstitution",
      "outputs": [],
      "stateMutability": "nonpayable",
      "type": "function"
    },
    {
      "inputs": [
        {
          "internalType": "uint256",
          "name": "_orgId",
          "type": "uint256"
        }
      ],
      "name": "deleteInstitution",
      "outputs": [],
      "stateMutability": "nonpayable",
      "type": "function"
    },
    {
      "inputs": [],
      "name": "deployer",
      "outputs": [
        {
          "internalType": "address",
          "name": "",
          "type": "address"
        }
      ],
      "stateMutability": "view",
      "type": "function"
    },
    {
      "inputs": [],
      "name": "getAllInstitutions",
      "outputs": [
        {
          "components": [
            {
              "internalType": "uint256",
              "name": "id",
              "type": "uint256"
            },
            {
              "internalType": "string",
              "name": "name",
              "type": "string"
            },
            {
              "internalType": "enum IMyPetBase.InstitutionType",
              "name": "institutionType",
              "type": "uint8"
            },
            {
              "internalType": "address",
              "name": "responsiblePerson",
              "type": "address"
            },
            {
              "internalType": "address[]",
              "name": "staffList",
              "type": "address[]"
            },
            {
              "internalType": "uint256",
              "name": "createdAt",
              "type": "uint256"
            },
            {
              "internalType": "string",
              "name": "orgAddress",
              "type": "string"
            },
            {
              "internalType": "string",
              "name": "contactInfo",
              "type": "string"
            }
          ],
          "internalType": "struct IMyPetBase.Institution[]",
          "name": "",
          "type": "tuple[]"
        }
      ],
      "stateMutability": "view",
      "type": "function"
    },
    {
      "inputs": [
        {
          "internalType": "uint256",
          "name": "_orgId",
          "type": "uint256"
        }
      ],
      "name": "getInstitutionDetail",
      "outputs": [
        {
          "components": [
            {
              "internalType": "uint256",
              "name": "id",
              "type": "uint256"
            },
            {
              "internalType": "string",
              "name": "name",
              "type": "string"
            },
            {
              "internalType": "enum IMyPetBase.InstitutionType",
              "name": "institutionType",
              "type": "uint8"
            },
            {
              "internalType": "address",
              "name": "responsiblePerson",
              "type": "address"
            },
            {
              "internalType": "address[]",
              "name": "staffList",
              "type": "address[]"
            },
            {
              "internalType": "uint256",
              "name": "createdAt",
              "type": "uint256"
            },
            {
              "internalType": "string",
              "name": "orgAddress",
              "type": "string"
            },
            {
              "internalType": "string",
              "name": "contactInfo",
              "type": "string"
            }
          ],
          "internalType": "struct IMyPetBase.Institution",
          "name": "",
          "type": "tuple"
        }
      ],
      "stateMutability": "view",
      "type": "function"
    },
    {
      "inputs": [
        {
          "internalType": "uint256",
          "name": "_orgId",
          "type": "uint256"
        }
      ],
      "name": "getInstitutionStaff",
      "outputs": [
        {
          "internalType": "address[]",
          "name": "",
          "type": "address[]"
        }
      ],
      "stateMutability": "view",
      "type": "function"
    },
    {
      "inputs": [],
      "name": "institutionIdCounter",
      "outputs": [
        {
          "internalType": "uint256",
          "name": "",
          "type": "uint256"
        }
      ],
      "stateMutability": "view",
      "type": "function"
    },
    {
      "inputs": [
        {
          "internalType": "uint256",
          "name": "",
          "type": "uint256"
        }
      ],
      "name": "institutions",
      "outputs": [
        {
          "internalType": "uint256",
          "name": "id",
          "type": "uint256"
        },
        {
          "internalType": "string",
          "name": "name",
          "type": "string"
        },
        {
          "internalType": "enum IMyPetBase.InstitutionType",
          "name": "institutionType",
          "type": "uint8"
        },
        {
          "internalType": "address",
          "name": "responsiblePerson",
          "type": "address"
        },
        {
          "internalType": "uint256",
          "name": "createdAt",
          "type": "uint256"
        },
        {
          "internalType": "string",
          "name": "orgAddress",
          "type": "string"
        },
        {
          "internalType": "string",
          "name": "contactInfo",
          "type": "string"
        }
      ],
      "stateMutability": "view",
      "type": "function"
    },
    {
      "inputs": [
        {
          "internalType": "uint256",
          "name": "_orgId",
          "type": "uint256"
        },
        {
          "internalType": "address",
          "name": "_staff",
          "type": "address"
        }
      ],
      "name": "isStaffInInstitution",
      "outputs": [
        {
          "internalType": "bool",
          "name": "",
          "type": "bool"
        }
      ],
      "stateMutability": "view",
      "type": "function"
    },
    {
      "inputs": [
        {
          "internalType": "uint256",
          "name": "_orgId",
          "type": "uint256"
        },
        {
          "internalType": "address",
          "name": "_staff",
          "type": "address"
        }
      ],
      "name": "removeStaffFromInstitution",
      "outputs": [],
      "stateMutability": "nonpayable",
      "type": "function"
    },
    {
      "inputs": [
        {
          "internalType": "address",
          "name": "",
          "type": "address"
        }
      ],
      "name": "staffToInstitution",
      "outputs": [
        {
          "internalType": "uint256",
          "name": "",
          "type": "uint256"
        }
      ],
      "stateMutability": "view",
      "type": "function"
    },
    {
      "inputs": [
        {
          "internalType": "uint256",
          "name": "_orgId",
          "type": "uint256"
        },
        {
          "internalType": "string",
          "name": "_name",
          "type": "string"
        },
        {
          "internalType": "string",
          "name": "_orgAddress",
          "type": "string"
        },
        {
          "internalType": "string",
          "name": "_contactInfo",
          "type": "string"
        }
      ],
      "name": "updateInstitution",
      "outputs": [],
      "stateMutability": "nonpayable",
      "type": "function"
    },
    {
      "inputs": [
        {
          "internalType": "uint256",
          "name": "_orgId",
          "type": "uint256"
        },
        {
          "internalType": "address",
          "name": "_newResponsiblePerson",
          "type": "address"
        }
      ],
      "name": "updateInstitutionResponsiblePerson",
      "outputs": [],
      "stateMutability": "nonpayable",
      "type": "function"
    }
  ],
  "bytecode": "0x6080806040523461002d576001600255600380546001600160a01b03191633179055611ae290816100338239f35b600080fdfe6080604052600436101561001257600080fd5b60003560e01c806303d7fe40146113c25780630c09662114610f855780631063b48414610f1c57806310dca1ab14610d2c5780633864855e14610b315780634104180e14610a1b578063584fab0f146109dd5780636eee7b30146109bf57806379bc958114610833578063ab2c19351461028c578063c03c75a81461025c578063c1d7efe7146101a7578063c3b59d00146100e45763d5f39488146100b657600080fd5b346100df5760003660031901126100df576003546040516001600160a01b039091168152602090f35b600080fd5b346100df5760203660031901126100df576004356000548110156100df5761010b906116e4565b5080546101a361011d6001840161176c565b926101956002820154600483015492610144600661013d6005840161176c565b920161176c565b93610161604051988998895260e060208a015260e08901906115c0565b926101726040890160ff8316611600565b60081c6001600160a01b03166060880152608087015285820360a08701526115c0565b9083820360c08501526115c0565b0390f35b346100df576020806003193601126100df5760043580151580610251575b6101ce906118a1565b600019810190811161023b5760036101e86101ef926116e4565b500161197e565b906040519181839283018184528251809152816040850193019160005b82811061021b57505050500390f35b83516001600160a01b03168552869550938101939281019260010161020c565b634e487b7160e01b600052601160045260246000fd5b5060025481106101c5565b346100df5760403660031901126100df57602061028261027a611514565b6004356118ed565b6040519015158152f35b346100df5760a03660031901126100df5760043567ffffffffffffffff81116100df576102bd903690600401611569565b600360243510156100df576001600160a01b0360443580821690036100df5760643567ffffffffffffffff81116100df576102fc903690600401611569565b9060843567ffffffffffffffff81116100df5761031d903690600401611569565b92816003541633036107e35781604435166000526001602052604060002054610787576002549261034d84611812565b600255600054600160401b8110156105ee5780600161036f92016000556116e4565b5050600019840184811161023b57610386906116e4565b509184835580519067ffffffffffffffff82116105ee5781906103ac6001860154611732565b601f8111610752575b50602090601f83116001146106e0576000926106d5575b50508160011b916000199060031b1c19161760018301555b6002820180546001600160a81b03191660243560ff161760443560081b610100600160a81b031617905560405180602081011067ffffffffffffffff6020830111176105ee578060206000920160405252600382015460006003840155806106b6575b506003820160005242600483015580519067ffffffffffffffff82116105ee5781906104766005850154611732565b601f8111610681575b50602090601f831160011461060f57600092610604575b50508160011b916000199060031b1c19161760058201555b835167ffffffffffffffff81116105ee576020946104cf6006840154611732565b601f81116105b0575b508590601f831160011461053e5761051993929160009183610533575b50508160011b916000199060031b1c19161760068201555b6003604435910161187e565b604435166000526001825280604060002055604051908152f35b0151905087806104f5565b9060068401600052866000209160005b601f198516811061059957509183916001936105199695601f19811610610580575b505050811b01600682015561050d565b015160001960f88460031b161c19169055878080610570565b91928860018192868501518155019401920161054e565b6105de906006850160005287600020601f850160051c8101918986106105e4575b601f0160051c0190611821565b866104d8565b90915081906105d1565b634e487b7160e01b600052604160045260246000fd5b015190508680610496565b9250600584016000526020600020906000935b601f1984168510610666576001945083601f1981161061064d575b505050811b0160058201556104ae565b015160001960f88460031b161c1916905586808061063d565b81810151835560209485019460019093019290910190610622565b6106b090600586016000526020600020601f850160051c810191602086106105e457601f0160051c0190611821565b8761047f565b6106cf9060038401600052602060002090810190611821565b85610447565b0151905087806103cc565b9250600185016000526020600020906000935b601f1984168510610737576001945083601f1981161061071e575b505050811b0160018301556103e4565b015160001960f88460031b161c1916905587808061070e565b818101518355602094850194600190930192909101906106f3565b61078190600187016000526020600020601f850160051c810191602086106105e457601f0160051c0190611821565b886103b5565b60405162461bcd60e51b815260206004820152602e60248201527f4164647265737320616c7265616479206173736f63696174656420776974682060448201526d30b71034b739ba34ba3aba34b7b760911b6064820152608490fd5b60405162461bcd60e51b815260206004820152602260248201527f4f6e6c79206465706c6f7965722063616e2061646420696e737469747574696f6044820152616e7360f01b6064820152608490fd5b346100df576020806003193601126100df57600435801515806109b4575b61085a906118a1565b60001981019080821161023b57610870826116e4565b506003805491936001600160a01b0392831633036109635793810160005b81548110156108d75780846108a66108c89385611850565b905490861b1c16600052600188526040600020868154146108cd575b50611812565b61088e565b60009055886108c2565b86836108e2886116e4565b61094d5761093092600692600083556108fd60018401611a63565b600060028401558201908154906000835581610932575b5050506000600482015561092a60058201611a63565b01611a63565b005b6109459260005260002090810190611821565b838080610914565b634e487b7160e01b600052600060045260246000fd5b60405162461bcd60e51b8152600481018790526024808201527f4f6e6c79206465706c6f7965722063616e2064656c65746520696e73746974756044820152633a34b7b760e11b6064820152608490fd5b506002548110610851565b346100df5760003660031901126100df576020600254604051908152f35b346100df5760203660031901126100df576004356001600160a01b038116908190036100df5760005260016020526020604060002054604051908152f35b346100df5760003660031901126100df57600254600019908181019080821161023b57610a4782611838565b91610a556040519384611547565b808352610a64601f1991611838565b0160005b818110610b1a575050600192835b828110610ae0578385604051906020808301818452845180915260408401918060408360051b8701019601926000905b838210610ab35786880387f35b90919293948380610acf839a603f198b82030186528951611623565b999701959493919091019101610aa6565b8181019080821161023b576108c282610b04610afe610b15956116e4565b506119d6565b610b0e828961196a565b528661196a565b610a76565b602090610b2561192a565b82828701015201610a68565b346100df5760403660031901126100df57600435610b4d611514565b81151580610d21575b610b5f906118a1565b6000199180830190811161023b57610b76906116e4565b509160018060a01b0380600285015460081c1692833303610cbf578116928314610c7b57826000939293526001928392836020526000604081205560006003809701945b610bc057005b845480821015610930578285610bd68489611850565b9054908b1b1c1614610bf25750610bec90611812565b85610bba565b839495965080939192500191821161023b57610c2384610c15610c429488611850565b905490891b1c169186611850565b90919082549060031b9160018060a01b03809116831b921b1916179055565b82548015610c65570192610c568484611850565b8154921b9290921b1916905555005b634e487b7160e01b600052603160045260246000fd5b606460405162461bcd60e51b815260206004820152602060248201527f43616e6e6f742072656d6f766520726573706f6e7369626c6520706572736f6e6044820152fd5b60405162461bcd60e51b815260206004820152603460248201527f4f6e6c7920696e737469747574696f6e20726573706f6e7369626c652070657260448201527339b7b71031b0b7103932b6b7bb329039ba30b33360611b6064820152608490fd5b506002548210610b56565b346100df5760403660031901126100df57600435610d48611514565b81151580610f11575b610d5a906118a1565b600019820182811161023b57610d6f906116e4565b5091600283019060018060a01b0380835460081c1633148015610f04575b15610e87578316806000526001602052604060002054828115918215610e7d575b505015610e12576109309484916000526001602052604060002090815415610dfb575b50508254610100600160a81b03191660089490941b610100600160a81b0316939093179091555050565b610e0993600392550161187e565b83828180610dd1565b60405162461bcd60e51b815260206004820152603d60248201527f4e657720726573706f6e7369626c6520706572736f6e206973206173736f636960448201527f61746564207769746820616e6f7468657220696e737469747574696f6e0000006064820152608490fd5b1490508287610dae565b60405162461bcd60e51b815260206004820152604960248201527f4f6e6c792063757272656e7420726573706f6e7369626c6520706572736f6e2060448201527f6f72206465706c6f7965722063616e2075706461746520726573706f6e7369626064820152683632903832b939b7b760b91b608482015260a490fd5b5080600354163314610d8d565b506002548210610d51565b346100df5760203660031901126100df57600435610f3861192a565b5080151580610f7a575b610f4b906118a1565b600019810190811161023b57610f66610afe6101a3926116e4565b604051918291602083526020830190611623565b506002548110610f42565b346100df5760803660031901126100df57602460043567ffffffffffffffff82358181116100df57610fbb903690600401611569565b916044358281116100df57610fd4903690600401611569565b926064358381116100df57610fed903690600401611569565b821515806113b7575b610fff906118a1565b600019928084019081116113a257611016906116e4565b5060018060a01b0380600283015460081c163314908115611394575b501561132a57600195868201845187811161127957806110528354611732565b96601f978881116112fa575b506020908883116001146112995760009261128e575b505087828b1b9260031b1c19161790555b805160058301918782116112795761109d8354611732565b868111611249575b506020908683116001146111e357600694939291600091836111d8575b505087828b1b9260031b1c19161790555b019581519485116111c457506110e98654611732565b82811161118a575b5060209184116001146111295793839491849260009561111e575b50501b9260031b1c1916179055600080f35b01519350868061110c565b9190601f198416928660005284826000209460005b8882821061117157505010611159575b50505050811b019055005b01519060f88460031b161c191690558380808061114e565b848601518855909601956020948501948893500161113e565b6111b5908760005260206000208480880160051c820192602089106111bb575b0160051c0190611821565b866110f1565b925081926111aa565b634e487b7160e01b60009081526041600452fd5b015190508b806110c2565b9392918991601f1982169084600052806000209160005b818110611231575096836006981061121a575b505050811b0190556110d3565b01518960f88460031b161c191690558b808061120d565b8289015184558d9590930192602092830192016111fa565b611273908460005260206000208880860160051c820192602087106111bb570160051c0190611821565b8a6110a5565b89634e487b7160e01b60005260416004526000fd5b015190508b80611074565b908b9350601f1983169185600052816000209260005b8181106112e2575084116112cb575b505050811b019055611085565b01518960f88460031b161c191690558b80806112be565b8284015185558e9690940193602093840193016112af565b611324908560005260206000208a80860160051c820192602087106111bb570160051c0190611821565b8c61105e565b60405162461bcd60e51b815260206004820152603a818901527f4f6e6c7920726573706f6e7369626c6520706572736f6e206f72206465706c6f60448201527f7965722063616e2075706461746520696e737469747574696f6e0000000000006064820152608490fd5b905060035416331488611032565b86634e487b7160e01b60005260116004526000fd5b506002548310610ff6565b346100df5760403660031901126100df576004356113de611514565b81151580611509575b6113f0906118a1565b600019820182811161023b57611405906116e4565b5060028101546001600160a01b039060081c811633036114aa57821690816000526001602052604060002054611450576109309360039260005260016020526040600020550161187e565b60405162461bcd60e51b815260206004820152602c60248201527f537461666620616c7265616479206173736f636961746564207769746820616e60448201526b1034b739ba34ba3aba34b7b760a11b6064820152608490fd5b60405162461bcd60e51b815260206004820152603160248201527f4f6e6c7920696e737469747574696f6e20726573706f6e7369626c652070657260448201527039b7b71031b0b71030b2321039ba30b33360791b6064820152608490fd5b5060025482106113e7565b602435906001600160a01b03821682036100df57565b610100810190811067ffffffffffffffff8211176105ee57604052565b90601f8019910116810190811067ffffffffffffffff8211176105ee57604052565b81601f820112156100df5780359067ffffffffffffffff82116105ee576040519261159e601f8401601f191660200185611547565b828452602083830101116100df57816000926020809301838601378301015290565b919082519283825260005b8481106115ec575050826000602080949584010152601f8019910116010190565b6020818301810151848301820152016115cb565b90600382101561160d5752565b634e487b7160e01b600052602160045260246000fd5b919091805183526020926116448483015161010080878501528301906115c0565b9361165760408401516040840190611600565b60018060a01b0390816060850151166060840152608084015195838103608085015281808851928381520197019160005b8281106116ce57505050505060e06116ba6116cb949560a085015160a085015260c085015184820360c08601526115c0565b9201519060e08184039101526115c0565b90565b8351851689529781019792810192600101611688565b90600091825481101561171e57600790838052027f290decd9548b62a8d60345a988386fc84ba6bc95484008f6362f93160ef3e563019190565b634e487b7160e01b83526032600452602483fd5b90600182811c92168015611762575b602083101461174c57565b634e487b7160e01b600052602260045260246000fd5b91607f1691611741565b906040519182600082549261178084611732565b9081845260019485811690816000146117ef57506001146117ac575b50506117aa92500383611547565b565b9093915060005260209081600020936000915b8183106117d75750506117aa9350820101388061179c565b855488840185015294850194879450918301916117bf565b9150506117aa94506020925060ff191682840152151560051b820101388061179c565b600019811461023b5760010190565b81811061182c575050565b60008155600101611821565b67ffffffffffffffff81116105ee5760051b60200190565b80548210156118685760005260206000200190600090565b634e487b7160e01b600052603260045260246000fd5b90815491600160401b8310156105ee5782610c239160016117aa95018155611850565b156118a857565b60405162461bcd60e51b815260206004820152601a60248201527f496e737469747574696f6e20646f6573206e6f742065786973740000000000006044820152606490fd5b908115158061191f575b15611918576001600160a01b03166000908152600160205260409020541490565b5050600090565b5060025482106118f7565b604051906119378261152a565b606060e0836000815282602082015260006040820152600083820152826080820152600060a08201528260c08201520152565b80518210156118685760209160051b010190565b9060405191828154918282526020928383019160005283600020936000905b8282106119b3575050506117aa92500383611547565b85546001600160a01b03168452600195860195889550938101939091019061199d565b906040516119e38161152a565b8092805482526119f56001820161176c565b6020830152600281015460ff8116600381101561160d57604084015260081c6001600160a01b0316606083015260e090611a5e90600690611a386003820161197e565b6080860152600481015460a0860152611a536005820161176c565b60c08601520161176c565b910152565b611a6d8154611732565b9081611a77575050565b81601f60009311600114611a89575055565b908083918252611aa8601f60208420940160051c840160018501611821565b555556fea264697066735822122026076a39bfaf826a92422cd1ea2086e994b1578b4c6f65db5fd585808d67fa8564736f6c63430008130033",
  "linkReferences": {},
  "deployedLinkReferences": {}
}